:020000040800F2
:1070000070CB0020BD720008496903081DB8010853
:10701000FDCD01085152010835BB030800000000F6
:107020000000000000000000000000009D8F030829
:1070300091590108000000008D7B0308B19E0308F0
:10704000D7720008D7720008D7720008D57E0308EF
:10705000D7720008D7720008D7720008D7720008EC
:10706000D7720008D7720008D7720008D7720008DC
:10707000D7720008D7720008D7720008D7720008CC
:10708000D7720008D7720008D7720008D7720008BC
:10709000D7720008D7720008D7720008255A010875
:1070A000D7720008D7720008D7720008D77200089C
:1070B000D7720008D7720008D7720008D77200088C
:1070C000D7720008D7720008D7720008D77200087C
:1070D00031B8030895BC0108D7720008D7720008C0
:1070E000D7720008D7720008D7720008D77200085C
:1070F0000DBB010811BB010839A70108D7720008B0
:10710000D7720008D7720008D7720008D77200083B
:10711000D7720008D7720008D7720008D77200082B
:10712000D7720008D7720008ED580108D77200081E
:10713000D7720008D7720008D7720008000000005C
:107140002C2B04080000000081C201120812484ADA
:107150000C0412303B08051C1A041059041428189A
:107160000222B042201A270C5AD00C14FFFF031A37
:10717000034A139C521420C4541420EC56142014B7
:1071800059180B2025830308F18403082504180AE5
:1071900099820308ED810308A90C1EF5870308FFF7
:1071A00001111B093D3C14FFFF011A024012041299
:1071B00005120EB6090DFF018314DD2A021A148987
:1071C00045393E01083CDE2A08105A5510DADB200A
:1071D000DADC201A010C029B100000000000000005
:1071E000000000000000000000000000000000009F
:1071F000000000000000000000000000000000008F
:10720000000000000000000001FF01FF01FF01FF7E
:1072100001FF01FF01FF01FF01FF01FF014A000023
:020000040800F2
:1072A800DFF80CD000F002FD00480047C9D60308FB
:1072B80070CB00200648804706480047FEE7FEE7F7
:1072C800FEE7FEE7FEE7FEE7FEE7FEE7FEE7FEE78E
:1072D800599F0308A97200082DE9F05F05460020B0
:1072E80092469B4688460646814640241BE028462F
:1072F80041464746224600F096FB53465A46C01A76
:10730800914110D311461846224600F07DFB2D1AF4
:1073180067EB01084F4622460120002100F074FB6C
:1073280017EB00094E41201EA4F10104DFDC48469A
:1073380031462A464346BDE8F09F10B5431A9342AA
:1073480009D28318881803E010F8011D03F8011DFD
:10735800521EF9D210BD40EA01039B0703D009E091
:1073680008C9121F08C0042AFAD203E011F8013B29
:1073780000F8013B521EF9D210BDD2B201E000F86C
:10738800012B491EFBD270470022F6E710B51346C1
:107398000A4604461946FFF7F0FF204610BD10B50F
:1073A800044604E00B7800F8013B03B1491C521E67
:1073B800F8D2204610BD421C10F8011B0029FBD151
:1073C800801A7047CBB203E00178994203D0401C81
:1073D800521EF9D20020704730B5044600200346FB
:1073E80000E05B1C934203D2E05CCD5C401BF8D00C
:1073F80030BD30B505460020034600E05B1C9342D3
:1074080005D2EC5CC85C201A01D1002CF6D130BD45
:107418000FB400B58DB010A909900B9000914FF0F2
:10742800FF300A9000200C90054806900548079008
:107438006A4609A80F9900F02DFB0DB05DF814FB02
:10744800B97A0008D77A00082DE9FF5F1D464FF08A
:10745800FF3BD5E9014691465F464FF00008A96910
:107468007F1C01988847296A824688470028F6D1F8
:10747800BAF1FF3F0CD024F4C064002E19DD600679
:1074880014D5BAF12B0F09D0BAF12D0F0ED103E0A4
:10749800584604B0BDE8F09F44F48064A9697F1C95
:1074A80001988847761E8246002E02DDBAF1300F19
:1074B80003D0B9F1000F26D032E0A969761E44F452
:1074C80000747F1C019888478246002E05DDBAF1BA
:1074D800780F06D0BAF1580F03D0B9F1000F10D0C9
:1074E8001EE0B9F1000F02D0B9F1100F18D1A96947
:1074F800761E24F400747F1C019888478246102069
:1075080002E0082000E00A20814609E008FB09089B
:10751800A969761E44F400747F1C01988847824646
:10752800002E05DD4946504600F09FFA0028EDDAA6
:10753800E96901988847A00502D46FF00100A8E71F
:10754800E00725D1600613D5600502D5C8F1000013
:1075580000E0404629680A1D2A600968220501D50D
:10756800087015E0220701D5088011E008600FE0D7
:107578002868011D29600068210502D580F800806F
:1075880006E0210702D5A0F8008001E0C0F80080DD
:1075980038467EE72DE9FF5FD2E901A74FF00008E2
:1075A800916999461446DDF838B0464601988847EF
:1075B800054659EA0B0005D009E0A169761C019837
:1075C80088470546216A284688470028F5D1681C5F
:1075D80003D05FEACA7005D015E04FF0FF3004B061
:1075E800BDE8F09F2068011D2160D0F800800AE006
:1075F8005FEACA7001D108F8015BA169761C7F1E99
:10760800019888470546002F1ADD681C18D0B9F183
:10761800000F0DD0E81705EBD060421120F01F00D5
:1076280059F822102A1A012090400142E0D107E0BF
:10763800BBF1000FDCD1216A284688470028D7D043
:10764800E16901988847BBF1000F07D1002E05DDDD
:107658005FEACA7002D1002188F80010A068B84219
:1076680003DDBBF1000F03D017B16FF00100B6E7DF
:107678003046B4E72DE9FE4F804681EA0300C00F8B
:107688000C46009021F0004123F00045B8EB0200C1
:10769800A94105D24046214690461C460B46024663
:1076A80023F00040104347D0270DC7F30A00C3F367
:1076B8000A510290401A019040286BDAC3F3130074
:1076C80040F4801B0098924620B10023D2EB030AB5
:1076D80063EB0B0B01985946C0F14002504600F08D
:1076E80093F906460D4650465946019A00F0ABF903
:1076F80010EB08006141002487EA115284EAE7731D
:107708001A4340D0009A62B3019A012A4FEA0752FD
:1077180015DC001B61EB02014FF0004202EA075240
:10772800CDE90042001C41F5801132462B4600F09D
:10773800EEF903B0BDE8F08F40462146F9E7001B9B
:1077480061EB0201001C41F5801300185B41201811
:10775800A2F5001747EB030140EAD570B6196D4151
:1077680011E06D084FEA360645EAC0754FEA075240
:10777800001B61EB0201001C41F5801149084FEA2A
:1077880030000019514132462B4603B0BDE8F04F96
:1077980000F0AEB90098012240000023D0EB0202AD
:1077A80063EBE073009821464FEAE074B8EB000001
:1077B80061EB0401E9E783F000435BE781F00041F6
:1077C80058E72DE9FE4F81EA030404F0004421F054
:1077D800004100944FF0000B23F0004350EA0104ED
:1077E8005ED052EA03045BD0C3F30A54C1F30A55CE
:1077F8002C44A4F2F3340194A0FB0254C1F3130106
:1078080041F48011C3F3130343F4801301FB0244D2
:1078180000FB034E840A970A44EA815447EA8357D7
:10782800A4FB076802958D0A05FB07854FEA932C90
:1078380004FB0C542705029D4FEA065847EA163701
:10784800B5EB08056EEB070C870E920E47EA811719
:1078580042EA8312A7FB0201B6EB0B0164EB0004BA
:107868002B0D43EA0C335E1844EB1C50DA465146A4
:10787800E7FB0201C5F313044FEA0B3343EA145341
:107888004FEA0432019C43EA0603A4F10C04029473
:10789800009CCDE900B400F03AF903B0BDE8F08FE0
:1078A80000200146F9E72DE9F04D81EA030404F0D0
:1078B800004B21F0004514464FF0000A23F0004128
:1078C80050EA050220D054EA01021DD0C5F30A5738
:1078D8000246C5F31303C1F31300C1F30A5640F47B
:1078E800801543F48013A7EB0608101BD64608F250
:1078F800FD3873EB050002D308F1010801E0921886
:107908005B41B8F1000F03DA00200146BDE8F08DB5
:1079180000204FF48011064684460EE0171B73EBD7
:10792800050705D3121B63EB050306434CEA010C5C
:1079380049084FEA300092185B4150EA0107EDD13F
:1079480052EA030012D082EA040083EA05010843E0
:1079580005D0101BAB4106D20122002306E000220D
:107968004FF0004302E06FF0010253101AEB0600DB
:107978004CEB085110EB0A0041EB0B01BDE8F04D50
:1079880000F0B6B80EB540F2334102910021CDE9BE
:1079980000110A460B4600F0BAF803B000BD70B5F6
:1079A800C1F30A5201F000450024C1F3130140F26B
:1079B800FF3341F480119A4201DA002070BD40F291
:1079C80033439A42A2F2334203DC524200F02BF8CE
:1079D80000E090402C43F1D0404270BD30B50B46DA
:1079E800014600202022012409E021FA02F59D42E7
:1079F80005D303FA02F5491B04FA02F52844151EBB
:107A0800A2F10102F1DC30BD202A04DB203A00FAA1
:107A180002F1002070479140C2F1200320FA03F3DD
:107A2800194390407047202A04DB203A21FA02F0DB
:107A38000021704721FA02F3D040C2F120029140A0
:107A4800084319467047202A06DBCB17203A41FA2B
:107A580002F043EAE07306E041FA02F3D040C2F1D3
:107A6800200291400843194670473A2800D230381E
:107A780020F02002412A01D3A2F13700884201D325
:107A88004FF0FF307047000002681144137801601E
:107A980018467047D16004495161044911620021B8
:107AA8001161114600F020B9917A0008E57C0008C0
:107AB800426842B1016811F8013B23B1521EC0E986
:107AC8000012184670470121C160881E704742683D
:107AD8005AB1C368016843B983688B4205D0491E0F
:107AE800521CC0E90012002070474FF0FF30704769
:107AF80010B5141E73F1000408DA401C41F10001AE
:107B080092185B411A4301D120F0010010BD2DE904
:107B1800F04D92469B4611B1B1FA81F202E0B0FAFB
:107B280080F220329046FFF76FFF04460F4640EA86
:107B38000A0041EA0B0153465A46084313D011463E
:107B480053EA010019D0C8F140025046FFF76BFF15
:107B580005460E46504659464246FFF755FF08432C
:107B680005D0012004E020463946BDE8F08D00200C
:107B7800054346EAE0762C4337430A986305E40A4E
:107B8800A0EB08000022FD0A44EA47540A3002D557
:107B980000200146E9E7010510196941DDE90845BA
:107BA80000196941BDE8F04DA2E72DE9F04D002329
:107BB8001A461B1A8A4103DB00200146BDE8F08DF6
:107BC800C1F30A52C1F3130141F480154FF0000BC1
:107BD800D10702D100186D41521E0027044640F219
:107BE800FF11384601EB620A3E46804602460020F5
:107BF8004FF48011FFF717FFC2197141BB1846EB0C
:107C08000100B4EB030C75EB000C04D3E41A65EB2C
:107C1800000517460E46241908F101006D418046FB
:107C28003428E3DDF91946EB0600091BA84103D205
:107C38004FF0FF32134601E0002213461BEB07000A
:107C480046EB0A51BDE8F04DFFF752BFC1F30A52A7
:107C5800C1F3130140F2FF3341F480119A4202DA72
:107C680000200146704740F233439A42A2F2334261
:107C780002DC5242FFF7D7BEFFF7C6BE30B5041E7E
:107C880071F1000404DB4FF00044404264EB010151
:107C9800141E73F1000405DB1C464FF000435242EA
:107CA80063EB0403994208BF904230BD1CB50948F4
:107CB8000090094801900546009C06E0E06840F005
:107CC800010394E8070098471034AC42F6D3FFF755
:107CD800EBFA0000EC2A04082C2B0408C0B24FF47D
:107CE800F05100F097B900002DE9F34F8BB04FF039
:107CF800000801F10C000C464FF0010B46460DF14F
:107D0800080A01906269012101989047051E2DD04B
:107D1800252D2CD0216A8847C0B1626901210198BC
:107D28009047216A88470028F7D1411E6269019867
:107D3800904700E0761CA1690B988847216A88471C
:107D48000028F7D1E1690B988847DBE7A1690B9810
:107D580088470746A84201D1761CD3E7E1690B980A
:107D680088477F1C02D1B8F1000F6FD046E1002789
:107D780062693D463946019890472A2804D16269CC
:107D88000121019890470125DFF884926269012159
:107D980001989047A0F130010A290AD24F45E5DC45
:107DA80007EB870100EB4107303FDFD445F01005B2
:107DB800ECE7E90601D46FF000476C280AD04C289C
:107DC80014D0682815D06A280DD074281CD07A28B9
:107DD8001AD01DE062690121019890476C2802D0F1
:107DE80045F0040514E045F002050DE045F02005D6
:107DF8000AE06269012101989047682802D045F09D
:107E0800080505E045F4006562690121019890477D
:107E1800C4E9015765283DD019DC58287AD00CDC14
:107E2800452837D004DC252826D0412831D131E037
:107E380046282FD047282CD12CE05B2877D0612802
:107E480028D063287CD0642823D15AE0D0E06F285A
:107E580048D008DC66281DD067281BD0692821D0A7
:107E68006E2816D127E0702845D0732868D0752869
:107E780047D078280DD14DE0A1690B988847054671
:107E880025283FF469AFE1690B9888476D1C3FF4DA
:107E98006AAFB3E023466A466FF001000B99AFF36F
:107EA80000809EE045F040006060A80723464FF040
:107EB800000236D43EE0E8077FF447AF2068011D92
:107EC80021600068290501D506701BE7290701D53F
:107ED800068017E7A90703D5F117C0E9006111E784
:107EE80006600FE745F040006060A80723464FF0A2
:107EF800080216D41EE040F60E0125EA0100606073
:107F080016E045F040006060A80723464FF00A02DB
:107F180007D40FE045F040006060A80708D5234665
:107F280010226FF001000B99AFF3008059E007E0D1
:107F3800234610226FF001000B99FFF785FA50E0F5
:107F48004FF000094F464B46632802D05B2806D005
:107F580040E0E80601D40120A06001273AE0626908
:107F68000121019890475E2805D14FF00109626907
:107F7800494601989047216939B900210A46534674
:107F880043F82120491C0829FADBB0B3216969B9F3
:107F9800C11700EBD16253110AEB830122F01F02D3
:107FA800821A01200B68904003430B60626901212B
:107FB800019890475D28E8D1B9F1000F09D0002059
:107FC800514651F82020D24341F82020401C08286F
:107FD800F7DB02AB224600976FF001000B99FFF721
:107FE800D9FA00280CDA401C08D1BBF1000F05D0E3
:107FF8004FF0FF300DB0BDE8F08FFFE74046F9E7DE
:10800800E90701D108F1010806444FF0000B79E6B1
:10801800CCCCCC0C7F2801D9002208E0064A02EB20
:108028005002C007127800D1120902F00F02012095
:10803800904008407047000078E7030870B58C1836
:1080480010F8015B15F0070301D110F8013B2A1164
:1080580006D110F8012B03E010F8016B01F8016B51
:108068005B1EF9D12B0705D40023521E0DD401F84D
:10807800013BFAE710F8013BCB1A921C03E013F816
:10808800015B01F8015B521EF9D5A142D8D300204B
:1080980070BD000010B588B04EF6E000C0F60300D1
:1080A80090E80E5044690191018B807E02920393FF
:1080B800CDF810C0CDF814E00694ADF81C108DF87A
:1080C8001E0032F051F801A830F01EF808B010BDBB
:1080D8002DE9F04186B00FF045F80FF04DF840F665
:1080E8009000C5F60000016841F4803101600DF090
:1080F80007FC4EF6B86240F6000340F20047002144
:10810800C0F60302C4F60003C4F600074FF00008E7
:10811800002500200491CDE90211CDE9001104E009
:10812800A68835430131262914D002EBC104A6796B
:10813800002EF7D052F831609E4207D0BE42EFD0F1
:10814800B6F1904FEED1A6883043EBE7A68848EA0F
:108158000608E7E700214C2702910121C5F6000730
:10816800019103210204039121D084B2009438685C
:10817800694640F001003860386800F00100059059
:108188000598D7F8000140F00100C7F80001D7F8BA
:10819800000100F00100059005984FF090400FF0A5
:1081A800D9FB4FF09040214600220FF0A3FC40F28B
:1081B80000442804C4F600041FD0ADB20095386806
:1081C800694640F002003860386800F00200059007
:1081D8000598D7F8000140F00200C7F80001D7F869
:1081E800000100F002000590059820460FF0B2FB50
:1081F8002046294600220FF07DFC5FEA084022D085
:108208001FFA88F50095386804F5806440F004008A
:1082180038603868694600F0040005900598D7F87A
:10822800000140F00400C7F80001D7F8000100F091
:1082380004000590059820460FF08CFB204629463F
:1082480000220FF057FC06B0BDE8F081704700002F
:10825800B0B588B04468B4F80B10A1F512410729ED
:1082680000F2AC81DFE811F00800C200E400AA01C6
:10827800F7000201BE00E200044668462FF062FFE4
:108288009DF800109DF801209DF802304FF60D0072
:10829800C0F6030035F060FD9DF804104FF2DB7066
:1082A800C0F6030035F058FD9DF80910481E8F28C8
:1082B80000F200814FF63432C0F60302DFE810F016
:1082C80021019000EB000E011301F000FF00FA00FD
:1082D800FA00FA00FA00FA00FA00FA00FA00FA00C6
:1082E800FA00FA00FA00FA00FA00FA00FA00FA00B6
:1082F800FA00FA00FA00FA00FA00FA00FA00FA00A6
:10830800FA00FA00FA00FA00FA00FA00FA00FA0095
:10831800FA00FA00FA00FA00FA00FA00FA00FA0085
:10832800FA00FA00FA00FA00FA00FA00FA00FA0075
:10833800FA00FA00FA00FA00FA00FA00FA00FA0065
:10834800FA00FA00FA00FA00FA00FA00FA00FA0055
:10835800FA00FA00FA00FA00FA00FA00FA0004013A
:108368001D011801FA00FA00FA00FA00FA00FA00F2
:10837800FA00FA00FA00FA00FA00FA00FA00FA0025
:10838800FA00FA00FA00FA00FA00FA00FA00FA0015
:10839800FA00FA00FA00FA00FA00FA00FA00E1001E
:1083A800F500FA00FA00FA00FA00FA00FA00E6000E
:1083B800DC00FA00FA00FA00FA00FA00FA00FA0003
:1083C800FA00FA00FA00FA00FA00FA00FA00FA00D5
:1083D800FA00FA00FA00FA00FA00FA00FA000901B5
:1083E8009CA28EE0D4F80D1082A03AE04FF6C101AD
:1083F800C0F603010446084635F0AEFC64684FF643
:108408005310617BC0F6030035F0A6FC607B0028A2
:1084180007BF4FF64120C0F603004FF60A20C0F60A
:10842800030008B0BDE8B04036F090B968A01EE07F
:108438004FF6A210C0F6030036F088F9D4F80D10F4
:10844800D4F811204FF63100C0F6030008B0BDE89B
:10845800B04035F081BCD4F80D104FF65700C0F687
:10846800030008B0BDE8B04035F076BC70A008B095
:10847800BDE8B04035F070BC4FF69222C0F603025A
:108488003FE04FF6F222C0F603023AE04FF67B22B5
:10849800C0F6030235E04FF64832C0F6030230E07A
:1084A8004FF66232C0F603022BE04FF60832C0F6F0
:1084B800030226E040F2E652C0F6040221E04FF63D
:1084C8005232C0F603021CE04FF61E32C0F6030219
:1084D80017E04FF6E322C0F6030212E04FF63D32F2
:1084E800C0F603020DE04FF6D922C0F6030208E0F9
:1084F8004FF6C022C0F6030203E04FF6A922C0F6E9
:1085080003024FF2BA70C0F6030035F025FC9DF85F
:108518000A109DF80B209DF80C304FF2F770C0F64A
:10852800030035F019FC4FF68310C0F6030035F050
:1085380013FC002560680795407B06950128059582
:10854800049534D0E0BB4FF6F010C0F6030036F0C7
:10855800FDF8FFF79FFD0F208DF810007F2042F2F5
:1085680000058DF81200CEF204052868040C4FF6B9
:108578003210C0F60300214635F0EEFBADF81C4082
:108588002C684FF613106FF31F34C0F60300214612
:1085980035F0E2FB04A8ADF81E402FF0A7FD00F06F
:1085A80035F90120002133F051F908B0B0BD4FF67C
:1085B800E200C0F6030035F0CFFB257008B0B0BD6F
:1085C8004FF68F00C0F6030035F0C6FB08B0B0BD0B
:1085D8003E3E3D3D20534843495F5355425F455613
:1085E800545F4E564D5F454E445F45524153450AD0
:1085F8000D0000003D3D3E3E534843495F53554200
:108608005F4556545F4E564D5F53544152545F4533
:1086180052415345203A204E756D6265724F66533C
:108628006563746F7273203D2025750A0000000091
:108638003E3E3D3D20534843495F5355425F4556B2
:10864800545F4E564D5F454E445F57524954450A54
:108658000D000000424C455F484349002DE9F041B8
:1086680016460D4604460FF04BFA40F25401C2F28A
:1086780000010A8840F64813A242C2F200030DD155
:108688001A68821A632A09D84FF68270C0F6030066
:1086980021463246BDE8F04135F05EBB40F2F02895
:1086A800C2F20008B8F816200C80002A186018BF1B
:1086B800944203D039A0214635F04EFB0020A8F89B
:1086C800160088F880004FF6C070C0F603003146E7
:1086D80035F042FB3EA021462A4635F03DFB0FF01F
:1086E8000FFA014640F2D200C0F6040035F034FB20
:1086F80013F016FA05460EF0EBFB064613F010FAD7
:1087080007460EF0E5FB57B9012823D104F02EFAED
:1087180028B140F22550C0F6040036F017F898F852
:10872800803040F23310C0F604002946324635F056
:1087380013FB40F6C700C0F6040036F007F840F215
:108748004060C2F20000012101704480BDE8F041A0
:108758002EF0DCBB98F8803040F23310C0F60400ED
:108768002946324635F0F8FA012000F0B7FB98F8B0
:108778008000012808D040F69400C0F6040035F0C7
:10878800E5FF012000F0AAFB98F880000128D6D068
:1087980040F6AD10C0F60400CFE700BF3E3E3D3DB9
:1087A80020446973636F6E6E6563742068616E64DC
:1087B8006C65206D69736D617463683A20657674C1
:1087C8003D30782578206374783D307825780A0024
:1087D80020202020202D20436F6E6E656374696F02
:1087E8006E2048616E646C653A20202030782578C8
:1087F8000A20202020202D20526561736F6E3A20B8
:10880800202020307825780A0D0000002DE9F0435B
:1088180099B046F2EC20C2F200000921017040F242
:10882800D8510024C2F200010A5D1AB10134082CA3
:10883800FAD1082440F2D8510130C2F20001224690
:10884800FEF7ADFD40F2A001601CC2F20001087005
:108858000EF02AFBFF2821D004460FF20C502146C7
:1088680035F07AFAA52C13D10CF038FF02F062FF2C
:1088780040F67B120FF24051C0F60402012888BF6F
:108888001146084635F062FF00200CF039FF05E07C
:108898000FF2FC4035F05AFF0CF020FF0EF018FBE9
:1088A800044613F033F940F29409C5F60009D9F8E3
:1088B80000108046C1F30070C1F34075C1F38077A2
:1088C8008DE8A10040F2E800C1F38062C1F3C06303
:1088D800CE0FC0F60400039635F03EFAD9F8000032
:1088E80040F2D55140F40000C9F8000040F296501B
:1088F800C0F60400C0F60401012C08BF01464FF67B
:10890800F370C0F603002246434635F025FA4EF6CA
:10891800FC00C0F6030090E88E00D0E904650DF174
:10892800140ED0E906C48EE88E00CDE9096500F181
:108938002007D0E90C65008F8ECFADF84C0040F2CF
:108948002800C2F2030014904DF26170C0F60000D6
:108958000DF1340E15904DF285708EE88E00C0F63C
:10896800000014A9CDE90BC41196129534F08CFBC4
:108978000220012132F06AFF4DF20152C0F60302D3
:108988000220002132F08EFF05A82FF0A1FB48B18C
:10899800014640F20C40C0F6040035F0DDF90DF058
:1089A80091FA05E040F23330C0F6040035F0D4F90E
:1089B8000020CDE91400ADF84E000EF067FA1490CF
:1089C8000EF064FA40F65110C0F60400159135F027
:1089D800BDFE34F0F7FC38B101464FF6BF50C0F683
:1089E800030035F0B9F905E040F27670C0F60400EE
:1089F80035F0ACFEBDF8540040F2A10400BA149959
:108A0800C2F20004000C208108BAC4F80A0014AAB3
:108A18002E20062134F068F838B101464FF6205070
:108A2800C0F6030035F098F919E040F27860C0F616
:108A3800040035F08BFEDDE91470C0F30721C2B2E3
:108A4800C7F30740C7F30726CDE9000640F2B01088
:108A58003B0EFFB2C0F60400029735F07DF94EF6E2
:108A6800F872C0F603021820102134F03DF838B12E
:108A780001464FF6CB40C0F6030035F06DF905E02E
:108A880040F23360C0F6040035F060FE4EF6E8723E
:108A9800C0F603020820102134F026F838B1014648
:108AA8004FF67640C0F6030035F056F905E040F27F
:108AB800EE50C0F6040035F049FE01201F2133F0C6
:108AC800EBFF38B101464FF68150C0F6030035F090
:108AD80043F905E040F24870C0F6040035F036FE70
:108AE80033F0DAFE38B101464FF61C60C0F60300D9
:108AF80035F032F905E040F2B370C0F6040035F005
:108B080025FE0DF15E0718AE0DF162030520002168
:108B18000722CDE9006733F059FB38B101464FF61B
:108B2800EC50C0F6030035F017F905E040F29370F9
:108B3800C0F6040035F00AFEBDF86200BDF860100A
:108B480040F28E57C0F6040700220723009733F03F
:108B5800CBFEBDF86200BDF85E100DF14E07002295
:108B68000223009733F0C0FE00200221022234F0D5
:108B780055FB38B101464FF6D660C0F6030035F014
:108B8800EBF805E040F63D00C0F6040035F0DEFDE8
:108B980040F2F025C2F200050120287033F0EAFB0C
:108BA80038B101464FF61070C0F6030035F0D4F81E
:108BB80005E040F66700C0F6040035F0C7FD40F256
:108BC8000110C0F600004BF20721C5F80100102083
:108BD800C0F20101002208236871A9600127CDE9CC
:108BE8000030CDE902210120012101220023049750
:108BF80033F034FB38B101464FF64D60C0F6030040
:108C080035F0AAF805E040F2D470C0F6040035F05B
:108C18009DFDA87880B133F0B9FA38B101464FF616
:108C28009760C0F6030035F097F805E040F60E00AF
:108C3800C0F6040035F08AFD40F27730C0F6040033
:108C480035F08AF840F2C960C0F6040035F07EFDC0
:108C580030F01EF8002085F880004FF6FF7048F6C7
:108C6800F952E882C0F600020120002132F01AFE13
:108C78002020A071062033F0E9FE38B1014640F209
:108C8800BA20C0F6040035F067F805E040F2FE208F
:108C9800C0F6040035F060F80CF048FD002000260E
:108CA80003F02CFC2EF0FCF84CF6B132C0F60302AF
:108CB8004FF48040002132F0F5FD4CF6B534C0F693
:108CC80003044FF400400021224632F0EBFD05F189
:108CD800830100200022234612F0AEFA48F6DD6335
:108CE80005F18101C0F600030020002212F0A4FA69
:108CF80049F6AD6305F18201C0F6030300200022A6
:108D080012F09AFA40F29210C2F2000001210170AA
:108D180040F29010C2F200002E83017012F000FFA2
:108D280004460EF0D5F854B9012811D103F01EFFFE
:108D380028B140F22550C0F6040035F007FD40F296
:108D48000C70C0F6040035F001FD19B0BDE8F083E1
:108D5800012000F0C3F895F880000128F5D040F60E
:108D68000310C0F60400EEE73D3D3E3E204E46436C
:108D780020626F6F74206F70636F64652064657420
:108D880065637465643A203078253032780A0000CB
:108D98003D3D3E3E204E464320626F6F74206F700B
:108DA800636F646520756E6B6E6F776E2C20636CD5
:108DB800656172696E6700003D3D3E3E204E464348
:108DC80020626F6F74207265736375653A206D65F4
:108DD80073682070726F766973696F6E696E672049
:108DE80073746F72616765206572617365640000F2
:108DF80010B540F2F024C2F2000494F8800005286F
:108E08000CD033F0DBFA002184F8801018A111A2ED
:108E1800002808BF1146084634F09EFF12F080FE75
:108E280004460EF055F854B901280DD103F09EFE02
:108E380028B140F22550C0F6040035F087FC15A093
:108E4800BDE8104035F082BC0220BDE8104000F0BB
:108E580045B800BF2A2A2053544F50204144564554
:108E680052544953494E47202A2A20200D0A0D0002
:108E78002A2A2053544F50204144564552544953AE
:108E8800494E47202A2A20204661696C6564200DD6
:108E98000A0D00003D3D3E3E20536B6970206C6F0B
:108EA800772D706F77657220616476657274697367
:108EB800696E6720726573746172743A204D6573C8
:108EC80068206F776E732061647665727469736960
:108ED8006E6700000120042132F0F8BD2DE9F04151
:108EE80088B040F29211C2F20001044640F290109C
:108EF8000D78C2F200000678002D40F2F02818BF65
:108F08008025002EC2F2000818BFA026012C18BF29
:108F18004FF4C86598F8810018BF4FF47A6612F0CC
:108F2800C1FB022C15D198F880000138012810D80F
:108F380033F044FA38B101464FF62B40C0F603002F
:108F480034F00AFF05E040F2BF40C0F6040035F0F7
:108F5800FDFB40F2A000C2F20000007898F818105B
:108F680046F2EC23002708F11902C2F20003CDE90A
:108F78000070CDE90231CDE90427002029463246A8
:108F88000123069733F0A6F908B30546122801D045
:108F98000C2D36D112F0C4FD06460DF099FF56B9D6
:108FA800012833D103F0E2FD28B140F22550C0F684
:108FB800040035F0CBFB40F28000C0F604002946DF
:108FC80034F0CAFE88F8804008B0BDE8F08122A0DD
:108FD80088F8804035F0BAFB40F2A101C2F20001E6
:108FE8000E2033F08DFAF0B10146012C12BF24A0F7
:108FF80040F23820C0F6040008B0BDE8F04134F073
:10900800ABBE4FF64D70C0F6030003E040F22D00F2
:10901800C0F60400294634F09FFE002088F880003E
:1090280008B0BDE8F081012C0DD123A034F094FEE6
:1090380098F881004EF24601C0F2010108B0BDE87F
:10904800F04112F04FBA40F28D20C0F6040008B08B
:10905800BDE8F04134F080BE3D3D3E3E206163698D
:109068005F6761705F7365745F646973636F76656A
:109078007261626C65202D2053756363657373009C
:109088003D3D3E3E205374617274204C6F772050F2
:109098006F776572204164766572746973696E676B
:1090A800204661696C6564202C20726573756C7448
:1090B8003A202564200A0D003D3D3E3E205375634D
:1090C800636573733A2053746172742046617374D4
:1090D800204164766572746973696E67200A0D00B1
:1090E80010B503F0E3FC0446062817D940F2FC103B
:1090F80041F20001C2F20000C1F2020141F206028F
:1091080041F20033C1F20702C1F2013380E80E00D8
:109118004FF6FF718181072C0DD228E003F0C6FCC1
:10912800024642F23550C0F604000721022334F00B
:1091380013FE072C1BD303F0B9FC044606280CD9F0
:1091480040F254203021C2F20000C0F201014FF673
:10915800FF72C0E90012002006E042F2F250C0F6A9
:10916800040034F0F9FD0120062C88BF10BD42F23E
:10917800AD50C0F6040034F0EFFD022010BD000031
:1091880010B546F21C34C2F20004207820B103F076
:1091980009FD0020207010BD002004F0ADFD0EF088
:1091A800AFFC0446002004F0A7FD0028FAD00EF01A
:1091B800A7FC001BB0F57A7F08D94AF6E0404F219A
:1091C800C2F20000C0F2AD01016010BD152838BF21
:1091D80010BDBDE8104003F0E5BC00000220704758
:1091E800002200200A8070477047000080B50020E8
:1091F80004F072FD002080BD40F2C240C2F20000BF
:109208000078704741F62950C2F200000121017030
:1092180041F63150C2F200000022027041F6365287
:10922800C2F200020120117004F046BD80B541F67B
:109238002950C2F200000021017041F63650C2F2F6
:1092480000000170012004F027FD12F069FCF0B164
:1092580003F08CFCD8B941F62A50C2F2000000781D
:10926800002808BF80BD41F63050C2F200000178E6
:1092780069B90121017041F29900C0F6040035F086
:1092880065FA40200021BDE8804032F01FBC80BD57
:109298000020704770470000B0B540F25A04C2F28F
:1092A8000004257803F074FB854209D940F6A470C0
:1092B800C0F6040035F04AFABDE8B04003F068BBD8
:1092C8002078002818BFB0BD02A035F03FFA012071
:1092D800B0BD00BF4E756D626572204F6620456C4B
:1092E800656D656E7473206D7573742062652031C9
:1092F800206F722067726561746572207468616E90
:109308002031210D0000000001463020C0F202008B
:1093180008604FF4857200208A80704780B501206C
:109328001F2133F0B9FB002818BF0120400080BD81
:1093380001464EF67D40888041F6F850CAF64F60E7
:10934800086045F24B30C5F2A140C1F8060046F26C
:109358000430C2F20000828803680020CA81C1F884
:109368000A30704700207047014601A034F0F4BC71
:10937800556E70726F766973696F6E6564204E6F93
:109388006465204964656E746966696572207265F2
:109398006365697665643A20253032780A0D0000E5
:1093A800B0B546F20435C2F20005E91D00202A4690
:1093B80033F00CFB18B1014618A034F0CDFC0DF0C9
:1093C80065FD020A28704FEA112C6A70020C000E23
:1093D8002971691EAA70E870EF2006220B4685F8ED
:1093E80005C000BF13F8014F013A04EB4000F9D162
:1093F8000322EA71EF230622A87100BF11F8014F7A
:10940800013A04EB4303F9D1C0B2D9B2081AB0FA51
:1094180080F040094CF0C0016971B0BD4661696CCB
:10942800656420746F2072656164205075626C6990
:109438006320416464726573732025640000000032
:1094480080B54CF60162C0F601020420002132F01A
:1094580029FA0420002132F039FB4BF60D02C0F640
:1094680000024020002132F01DFA40200021BDE812
:10947800804032F02BBB000080B542F25530C0F678
:10948800040035F063F942F2B210C0F6040035F07A
:109498005DF942F23E20C0F6040035F057F942F279
:1094A8005020C0F6040035F051F942F22B20C0F6E6
:1094B800040035F04BF942F2F710C0F6040035F01D
:1094C80045F942F21820C0F6040035F03FF942F29F
:1094D8000420C0F6040035F039F942F2C910C0F68C
:1094E800040035F033F903F03BFA014642F2C200BA
:1094F800C0F6040034F030FC03F024FA014642F2CE
:10950800B100C0F6040034F027FC03F041FA01462C
:1095180042F24700C0F6040034F01EFC03F0C6FA1D
:10952800014642F2D300C0F6040034F015FC03F003
:10953800A5FA014642F26100C0F6040034F00CFCC2
:1095480003F09EFA014642F23300C0F6040034F0FC
:1095580003FC03F007FA014642F2EE00C0F60400ED
:1095680034F0FAFB03F074FA014642F21510C0F623
:10957800040034F0F1FB42F2E310C0F6040035F0C9
:10958800E5F842F28000C0F604000021012234F020
:10959800E3FB42F2F220C0F6040035F0D7F842F2BD
:1095A8006220C0F6040035F0D1F842F29820C0F6E7
:1095B800040035F0CBF842F27A20C0F6040035F00A
:1095C800C5F842F2AF20C0F6040035F0BFF842F209
:1095D8000230C0F6040035F0B9F842F2D320C0F6E4
:1095E800040035F0B3F807A035F0B0F80CA001215D
:1095F80034F0B2FB17A035F0A9F81EA0BDE88040F2
:1096080035F0A4B80A5B496D706F7274616E74208E
:10961800496E666F726D6174696F6E5D200D000032
:109628004E756D626572206F6620456C656D656E5E
:10963800747320656E61626C656420696E20417088
:10964800706C69636174696F6E3A202564200D0A35
:10965800000000004E65696768626F75722054618A
:10966800626C6520697320656E61626C6564200DAB
:10967800000000002A2A2A2A2A2A2A2A2A2A2A2AEA
:109688002A2A2A2A2A2A2A2A0D0A0D0080B54AF6E9
:10969800F840C2F20000006804212EF04BF940B1F6
:1096A800014640F6C060C0F60400BDE8804034F0D2
:1096B80053BB41F23500C0F60400BDE8804035F0E8
:1096C80045B8000000207047B0B541F26355C0F6B8
:1096D8000405284600211C4631F036FA41F20150B3
:1096E800C0F60400214634F037FB2846002131F04B
:1096F8002BFA02A035F02AF80020B0BD2338323109
:1097080030210D00B0B5B0F9000040F2941203EB1F
:109718004301C2F20002322822F8210040F2AC10C4
:109728001C46C2F200000CDB47F6F64101800168D6
:1097380042688368042013F09BF8002004F0BCFA08
:1097480008E0016842688368022013F091F800205D
:1097580004F0A2FA41F21235C0F6040528460021A9
:1097680031F0F2F906A0214634F0F6FA2846002135
:1097780031F0EAF911A034F0E9FF0020B0BD00BFD4
:1097880047656E657269635F4C6576656C44656CA8
:1097980074615F5365742063616C6C6261636B20F4
:1097A800726563656976656420666F7220656C65AD
:1097B8006D656E74202564200D0A00002338323050
:1097C80039210D00014640F29310C2F20000825C7C
:1097D80000200A7070470000014602EB420040F288
:1097E8009412C2F2000212F8203002EB80000B70D3
:1097F80042784A7082788A70C2780020CA707047AE
:10980800014602EB820040F2A012C2F20002125C92
:1098180000200A707047000002EB820140F2A0129B
:10982800C2F200020A4453780146037090784870E7
:10983800D078887012790020CA707047014640F2CB
:10984800A610C2F2000010F8122000200A7070471B
:10985800B0B5B0F900101C4603EB430240F2941374
:1098680040F2A81CC2F2000321EAE170C2F2000C27
:1098780023F8220040F64212BCF80030C2F200027F
:10988800108098424FF0000347F6F54298BF012335
:1098980091424FF00002C8BF012200251A43002957
:1098A800C8BF012505EA020140F64012C2F20002D3
:1098B800117047F6FF710022ACF800002EF078FA1C
:1098C80040F2AC13C2F20003188019685A689B680A
:1098D800042012F0CDFF41F27635C0F60405284683
:1098E800002131F031F941F2D120C0F604002146BF
:1098F80034F032FA2846002131F026F904A0214636
:1099080034F02AFA022021462DF0A2FA0020B0BD38
:10991800233832303621666F7220656C656D656E4E
:1099280074496E646578202564200D0A00000000E3
:1099380000207047B0B540F2941C1C46016842688C
:10994800806803EB4303C2F2000C0CEB8305A860AC
:109958006A6041F22A35C0F604054CF823102846FF
:10996800002131F0F1F806A0214634F0F5F9284637
:10997800002131F0E9F811A034F0E8FE0020B0BD74
:1099880047656E657269635F4C6576656C4D6F7689
:10999800655F5365742063616C6C6261636B2072F0
:1099A8006563656976656420666F7220656C656DB0
:1099B800656E74202564200D0A00000023383230BB
:1099C8004221200D0000000070B51C46002B47D135
:1099D800027840F2A016B0F8013001F0FE05C2F29C
:1099E8000006022D3270A6F8013015D140F2AC15F0
:1099F800C2F200052B8029686A68AB680546042016
:109A080012F036FFB5F80310B6F80100A6F80310F7
:109A1800884225D108BB0FE0012908BF012A0FD0D1
:109A280040F2AC10C2F200000121018001684268D6
:109A38008368022012F01CFF002004F02DF90FE0CB
:109A480040F2AC10C2F2000047F6F641018001680E
:109A580042688368042012F00BFF002004F02CF900
:109A680041F24135C0F604052846002131F06CF872
:109A780041F24A20C0F60400214634F06DF9284628
:109A8800002131F061F805A0214634F065F9012084
:109A980021462DF0DDF9002070BD00BF233832309B
:109AA8003221666F7220656C656D656E74496E64EF
:109AB8006578202564200D0A000000002DE9F04F8C
:109AC80081B041F28E57C0F604070C4680463846EE
:109AD80000211E4631F038F81CA0314634F03CF91C
:109AE8003846002131F030F827A034F02FFE44B377
:109AF80041F28E5608F1020B08F1010A0025C0F662
:109B080004060EE0D94629A73046002131F01CF89A
:109B180099F80010384634F01FF90135E8B284424C
:109B28000FD9E8B250B10228ECD00128F5D141F2A2
:109B38004A57D146C0F60407E6E700BFC14614A756
:109B4800E2E7002001B0BDE8F08F00BF47656E6511
:109B58007269635F4F6E4F66665F537461747573A5
:109B68002063616C6C6261636B2072656365697602
:109B7800656420666F7220656C656D656E7420255E
:109B880064200D0A000000002338323034210D0013
:109B980050726573656E74204F6E4F6666207661ED
:109BA8006C75653A2025640A0D00000052656D61E8
:109BB800696E696E672054696D652076616C75659C
:109BC8003A2025640A0D000070B5007840F2A61608
:109BD80041F25935C2F20006C0F6040526F8130012
:109BE800284600211C4630F0AFFF0EA0214634F075
:109BF800B3F82846002130F0A7FF41F28B20C0F6C9
:109C08000400214634F0A8F836F81400012805D1DC
:109C180045F24420C2F2000001210170FFF7E4FA86
:109C2800002070BD23383231332120666F722065E1
:109C38006C656D656E74496E646578202564200DC9
:109C48000A0000002DE9F04141F2A957C0F60407C7
:109C58000C460546384600211E4630F075FF12A016
:109C6800314634F079F83846002130F06DFF1EA0F7
:109C780034F06CFDACB141F2A9580026C0F60408D6
:109C88001BA703E00136F0B284420AD93006F9D1A5
:109C98004046002130F058FF2978384634F05CF807
:109CA800F0E70020BDE8F08147656E657269635F83
:109CB800506F7765724F6E4F66665F537461747547
:109CC800732063616C6C6261636B207265636569A4
:109CD80076656420666F7220656C656D656E7420AC
:109CE8002564200D0A0000002338323132210D008E
:109CF8004F6E20506F7765722075702076616C7595
:109D0800653A2025640A0D0070B50188428804462A
:109D180018A034F021F8617B41F64320C0F6040016
:109D280034F01AF8607B002808BF01F01FFD607B43
:109D3800002818BF70BD1FA034F00EF8207B88B132
:109D480041F651750026C0F6040500BFA0680178E9
:109D5800284634F001F8A068217B013601308E4294
:109D6800A060F3D342F21830C0F60400BDE870409A
:109D780034F0ECBC4170704B65792041646420720A
:109D88006563656976656420666F72206E65744BDD
:109D98006579496E64657820252E32782C206170AB
:109DA800704B6579496E64657820252E3278200DD0
:109DB8000A0000004170704B65792069733A2000F1
:109DC80010B582B00446007A002808BF01F0CEFC26
:109DD800217862686388247A41F6B650C0F6040098
:109DE800009433F0B9FF02B010BD000010B504466E
:109DF8000188428841F6C860C0F6040033F0ACFF21
:109E0800617B41F64320C0F6040033F0A5FF607B78
:109E1800002818BF10BDBDE8104001F0A7BC000025
:109E280070B50188044619A033F096FFA17A41F66F
:109E38004320C0F6040033F08FFFA07A002808BF43
:109E480001F094FCA07A002818BF70BD19A034F066
:109E58007DFC208988B141F651750026C0F60405BD
:109E680060680188284633F077FF606801362189E9
:109E7800F2B2023091426060F2D842F21830C0F675
:109E88000400BDE8704034F061BC00BF4170702030
:109E98004B6579204C69737420666F72206E657407
:109EA8004B6579496E64657820252E327820697370
:109EB800200D0A004170704B657920496E64657801
:109EC8006573206172653A200D00000010B582B0FC
:109ED8000446007A002808BF01F048FC217862682F
:109EE8006388247A41F61D60C0F60400009433F0BC
:109EF80033FF02B010BD000070B5044601884288E7
:109F080041F68660C0F6040033F026FF617B41F617
:109F18004320C0F6040033F01FFF607B002808BF11
:109F280001F024FC607B002818BF70BD10A033F03E
:109F380013FF207B80B141F651750026C0F6040559
:109F4800A0680178284633F007FFA068217B013616
:109F580001308E42A060F3D342F21830C0F60400FC
:109F680034F0F4FB07A0BDE8704034F0EFBB00BF4D
:109F780055706461746564204170704B657920691F
:109F8800733A200049742077696C6C2062652072EE
:109F980065706C61636564206279206F6C64206110
:109FA80070704B6579206166746572204B65792005
:109FB80052656672657368200D00000070B50188EF
:109FC800044618A033F0C8FE617B41F64320C0F672
:109FD800040033F0C1FE607B002808BF01F0C6FB17
:109FE800607B002818BF70BD1AA033F0B5FE207B37
:109FF80080B141F651750026C0F604056068017805
:10A00800284633F0A9FE6068217B013601308E4274
:10A018006060F3D342F21830C0F60400BDE8704027
:10A0280034F094BB4E6574204B65792041646420FC
:10A03800726563656976656420666F72206E657403
:10A048004B6579496E64657820252E3278200D0A93
:10A05800000000004E65744B65792069733A200052
:10A0680010B50188044609A033F076FE617B41F6FD
:10A078004320C0F6040033F06FFE607B002818BF51
:10A0880010BDBDE8104001F071BB00BF4E657420E3
:10A098004B65792044656C657465207265636569F4
:10A0A80076656420666F72206E65744B6579496EBB
:10A0B800646578202564200D0A00000070B5044608
:10A0C800817941F64320C0F6040033F045FEA079BB
:10A0D800002808BF01F04AFB0FA034F037FBA08826
:10A0E80088B141F651750026C0F60405206801883C
:10A0F800284633F031FE20680136A188F2B20230DA
:10A1080091422060F2D842F21830C0F60400BDE84F
:10A11800704034F01BBB00BF4E65744B6579204915
:10A128006E6465786573206172653A200D000000E1
:10A1380070B5018804461AA033F00EFE617B41F623
:10A148004320C0F6040033F007FE607B002808BFF8
:10A1580001F00CFB607B002818BF70BD1CA033F019
:10A16800FBFD207B80B141F651750026C0F6040541
:10A1780060680178284633F0EFFD6068217B01367E
:10A1880001308E426060F3D342F21830C0F604000A
:10A1980034F0DCFA13A0BDE8704034F0D7BA00BF41
:10A1A8004E6574204B657920557064617465207222
:10A1B8006563656976656420666F72206E65744BA9
:10A1C8006579496E646578202564200D0A000000D1
:10A1D80055706461746564204E65744B65792069B7
:10A1E800733A000049742077696C6C2062652072AC
:10A1F80065706C61636564206279206F6C64206EA1
:10A2080065744B6579206166746572204B657920A9
:10A2180052656672657368200D000000B0B586B09F
:10A228000446417C41F64320C0F6040033F094FD17
:10A23800607C002808BF01F099FA6089217B2278A8
:10A24800636894F80EC094F80FE0257C647B8DE871
:10A25800015041F65720C0F604000395049433F0EA
:10A268007BFD06B0B0BD000010B504464168027819
:10A2780041F67250C0F6040033F06EFD6168B1F526
:10A28800885F18BF10BD2046BDE810402EF0A6BE5E
:10A2980010B50446817A41F64320C0F6040033F035
:10A2A8005BFDA07A002808BF01F060FA94F80BC0A3
:10A2B80041F6583021786268238941F6B234C0F6F5
:10A2C8000400C0F60404BCF1000F08BF2046BDE836
:10A2D800104033F041BD000010B50446817A41F6C4
:10A2E8004320C0F6040033F037FDA07A002808BFE9
:10A2F80001F03CFAE07A50B121786268238941F68E
:10A308000440C0F60400BDE8104033F025BD207BB2
:10A318002178626838B141F60A70C0F60400BDE8D9
:10A32800104033F019BD238941F66540C0F604009A
:10A33800BDE8104033F010BD10B50446817A41F6EF
:10A348004320C0F6040033F007FDA07A002808BFB8
:10A3580001F00CFA94F80BC041F6BA402178626813
:10A36800238941F61A54C0F60400C0F60404BCF16F
:10A37800000F08BF2046BDE8104033F0EDBC0000D8
:10A3880045F6CC61C2F200010A6802700A68120A36
:10A3980042704A888270CA78C2700020086070478C
:10A3A80010B54BF60932C0F603020820002131F03F
:10A3B80079FA47F28014C2F200044BF61133C0F662
:10A3C800030300202146002210F036FF20784CF2CB
:10A3D8005821C0F2120111F085F82FF0D3FA49F292
:10A3E8008912C0F6000280200021BDE8104031F03B
:10A3F80059BA0000B0B540F2AA14C2F20004012014
:10A4080020700020002503F057FC4FF4FA700DF07F
:10A418007BF80020257003F03FFC4FF4FA700DF034
:10A4280073F80020B0BD000040F2AA10C2F200008C
:10A43800007810B1002003F03FBC002003F02CBCD2
:10A44800002070472DE9F04F81B041F60327C0F690
:10A4580004070C460546384600211E4630F074FBBA
:10A4680024A0314633F078FC3846002130F06CFBEC
:10A478002FA034F06BF9002C38D041F6032B41F6AD
:10A4880053080027C0F6040BC0F604080FF2C009F1
:10A498000FF2A40A002605E00A4633F05DFC0136F7
:10A4A800B44223D0052EFAD8DFE806F00C030C17C7
:10A4B8000C0E5846002130F047FB687847EA002127
:10A4C8004046E9E7AF5DEAE75846002130F03CFB3B
:10A4D800687947EA00215046DEE75846002130F007
:10A4E80033FBE87847EA00214846D5E7002001B069
:10A4F800BDE8F08F4C696768745F43746C5F4465AE
:10A508006661756C745374617475732063616C6CE7
:10A518006261636B20726563656976656420666F46
:10A528007220656C656D656E74202564200D0A00C7
:10A538002338323638210D0044656C746120555635
:10A548003A203078257820282564290A0D00000053
:10A5580054656D70657261747572653A203078253E
:10A568007820282564290A0D000000000020704783
:10A578002DE9F04F81B041F68D07C0F604070C466F
:10A588000546384600211E4630F0DEFA41F2C95031
:10A59800C0F60400314633F0DFFB3846002130F0C6
:10A5A800D3FA23A034F0D2F8002C3DD041F68D0B1D
:10A5B80041F2F76A41F2EC7841F275790027C0F66A
:10A5C800040BC0F6040AC0F60408C0F60409002605
:10A5D80004E000BFAF5D0136B44225D086B126F055
:10A5E80002000128F6D0042E11D0022EF3D15846CD
:10A5F800002130F0A9FAA87847EA002148460FE080
:10A608005846002130F0A0FA2978504608E058460C
:10A61800002130F099FA287947EA0021404600BF26
:10A628000A4633F099FBD6E7002001B0BDE8F08F69
:10A638002338323633210D00002070472DE9F04FC2
:10A6480081B041F6F407C0F604070C4605463846C3
:10A6580000211E4630F078FA34A0314633F07CFBF6
:10A668003846002130F070FA40A034F06FF8002C22
:10A6780057D041F6F40641F22C7A41F210774FF0A8
:10A688000008C0F60406C0F6040A0FF2E80BC0F68C
:10A6980004074FF0000906E00A4633F05DFB09F1B4
:10A6A80001094C453DD0B9F1080FF8D8DFE809F0A9
:10A6B8000E2D0E110E1D0E0526003046002130F01D
:10A6C80043FAE87948EA00215846E5E715F8098091
:10A6D800E5E73046002130F037FAE87848EA00210B
:10A6E80041F2D560C0F60400D6E73046002130F0CC
:10A6F8002BFA687948EA00215046CDE73046002118
:10A7080030F022FA297A3846C6E73046002130F080
:10A718001BFA687848EA002141F25070C0F604003C
:10A72800BAE7002001B0BDE8F08F00BF4C69676848
:10A73800745F43746C54656D70657261747572658D
:10A748005F5374617475732063616C6C6261636BD1
:10A7580020726563656976656420666F7220656C32
:10A76800656D656E74202564200D0A002338323625
:10A7780036210D005461726765742043544C20449F
:10A78800656C74612055563A203078257820282544
:10A7980064290D0A00000000002070472DE9F04FE1
:10A7A80081B041F64717C0F604070C4605463846FF
:10A7B80000211E4630F0C8F933A0314633F0CCFAF8
:10A7C8003846002130F0C0F93DA033F0BFFF002C1F
:10A7D80055D041F6471641F22C7B4FF00008C0F6E1
:10A7E80004060FF2001AC0F6040B37A74FF0000951
:10A7F80007E000BF0A4633F0AFFA09F101094C45FA
:10A808003DD0B9F1080FF8D8DFE809F00E2D0E1188
:10A818000E1D0E0526003046002130F095F9E87926
:10A8280048EA00215846E5E715F80980E5E730468B
:10A83800002130F089F9E87848EA002141F25070A7
:10A84800C0F60400D6E73046002130F07DF968797B
:10A8580048EA00215046CDE73046002130F074F92F
:10A86800297A3846C6E73046002130F06DF9687815
:10A8780048EA002141F28C70C0F60400BAE70020D3
:10A8880001B0BDE8F08F00BF4C696768745F43741E
:10A898006C5F5374617475732063616C6C6261637F
:10A8A8006B20726563656976656420666F722065E2
:10A8B8006C656D656E74202564200D0A000000002B
:10A8C8002338323630210D0052656D61696E696E2C
:10A8D800672054696D653A307825782028256429E1
:10A8E8000D0A00005461726765742043544C204C73
:10A8F800696768746E6573733A2030782578202804
:10A908002564290D0A0000000020704700207047C8
:10A9180000207047002070470020704700207047D3
:10A9280000207047002070470020704700207047C3
:10A93800002070470020704740F21001C2F2000169
:10A948000B2312FB0312137901460370527900207E
:10A958004A70704740F21001C2F200010B2312FB4B
:10A968000312937801460370D27800204A7070472A
:10A97800014640F25C20C2F2000010F8123000EBF1
:10A9880042000B7040780B23487040F21000C2F26E
:10A99800000012FB030082788A70C2780020CA7017
:10A9A8007047000040F21001C2F200010B2312FBB5
:10A9B8000312937901460370D0794870107A887031
:10A9C800507AC870927A00200A71704740F2100CD1
:10A9D8000B230146C2F2000C02FB03F01CF8000036
:10A9E80012FB03C208705078487090788870D2784B
:10A9F8000020CA7070470000002070472DE9F04F12
:10AA080081B041F6E517C0F604070C4605463846FE
:10AA180000211E4630F098F824A0314633F09CF906
:10AA28003846002130F090F82FA033F08FFE002C2C
:10AA380038D041F6E51B41F653080027C0F6040B51
:10AA4800C0F604080FF2C0090FF2A40A002605E0B8
:10AA58000A4633F081F90136B44223D0052EFAD8DC
:10AA6800DFE806F00C030C170C0E5846002130F0F6
:10AA78006BF8687847EA00214046E9E7AF5DEAE706
:10AA88005846002130F060F8687947EA00215046BE
:10AA9800DEE75846002130F057F8E87847EA002109
:10AAA8004846D5E7002001B0BDE8F08F4C696768DB
:10AAB800745F48736C44656661756C745F53746148
:10AAC8007475732063616C6C6261636B207265637B
:10AAD800656976656420666F7220656C656D656E64
:10AAE80074202564200D0A002338323743210D00D5
:10AAF80053617475726174696F6E3A203078257885
:10AB080020282564290A0D004875653A20307825E3
:10AB18007820282564290A0D0000000000207047CD
:10AB28002DE9F04F81B041F61617C0F604070C4620
:10AB38000546384600211E4630F006F828A0314662
:10AB480033F00AF9384600212FF0FEFF32A033F027
:10AB5800FDFD002C3FD041F6161B00276FF00206C2
:10AB6800C0F6040B0FF2B8090FF2CC0A4FF0000838
:10AB780006E000BF15F8087008F1010844452AD01E
:10AB880018EA060FF6D0B8F1040F17D0B8F1030F82
:10AB98000BD0B8F1010FEFD1584600212FF0D4FFA8
:10ABA800687847EA0021504611E0584600212FF006
:10ABB800CBFFE87847EA0021484608E058460021DC
:10ABC8002FF0C2FF297941F61C00C0F604000A469E
:10ABD80033F0C2F8D0E7002001B0BDE8F08F00BF25
:10ABE8004C696768745F48736C4875655F53746136
:10ABF8007475732063616C6C6261636B207265634A
:10AC0800656976656420666F7220656C656D656E32
:10AC180074202564200D0A002338323731210D00B5
:10AC2800546172676574204875653A2030782578D4
:10AC380020282564290A0D0050726573656E7420FA
:10AC48004875653A203078257820282564290A0D2A
:10AC580000000000002070472DE9F04F81B041F658
:10AC6800D807C0F604070C460546384600211E469C
:10AC78002FF06AFF33A0314633F06EF838460021D2
:10AC88002FF062FF3EA033F061FD002C55D041F655
:10AC9800D80641F66A0A4FF00008C0F60406C0F666
:10ACA800040A0FF2081B38A74FF0000907E000BF9D
:10ACB8000A4633F051F809F101094C453DD0B9F184
:10ACC800080FF8D8DFE809F02F0E110E1D0E050E3B
:10ACD8002600304600212FF037FFA87948EA0021E6
:10ACE8005846E5E715F80980E5E7304600212FF0DA
:10ACF8002BFFA87848EA002141F63800C0F6040086
:10AD0800D6E7304600212FF01FFF287948EA0021B6
:10AD18005046CDE7304600212FF016FF287A48EA42
:10AD280000213846C4E7304600212FF00DFF29786E
:10AD380041F60300C0F60400BAE7002001B0BDE800
:10AD4800F08F00BF4C696768745F48736C52616E1E
:10AD580067655F5374617475732063616C6C6261BD
:10AD6800636B20726563656976656420666F72201F
:10AD7800656C656D656E74202564200D0A00000001
:10AD88002338323745210D00536174757261746937
:10AD98006F6E2052616E6765204D61783A20307879
:10ADA800257820282564290A0D0000005361747550
:10ADB800726174696F6E2052616E6765204D696EAD
:10ADC8003A203078257820282564290A0D000000CB
:10ADD800002070472DE9F04F81B041F65E17C0F6AC
:10ADE80004070C460546384600211E462FF0ACFEE7
:10ADF80028A0314632F0B0FF384600212FF0A4FEDB
:10AE080034A033F0A3FC002C3FD041F65E1B002792
:10AE18006FF00206C0F6040B0FF2C0090FF2DC0A4D
:10AE28004FF0000806E000BF15F8087008F10108A7
:10AE380044452AD018EA060FF6D0B8F1040F17D007
:10AE4800B8F1030F0BD0B8F1010FEFD1584600212C
:10AE58002FF07AFE687847EA0021504611E05846FC
:10AE680000212FF071FEE87847EA0021484608E003
:10AE7800584600212FF068FE297941F61C00C0F6DB
:10AE880004000A4632F068FFD0E7002001B0BDE8B0
:10AE9800F08F00BF4C696768745F48736C536174C6
:10AEA80075726174696F6E5F537461747573206332
:10AEB800616C6C6261636B20726563656976656459
:10AEC80020666F7220656C656D656E742025642040
:10AED8000D0A00002338323735210D00546172679E
:10AEE80065742053617475726174696F6E3A2030AD
:10AEF80078257820282564290A0D0000507265738A
:10AF0800656E742053617475726174696F6E3A204E
:10AF18003078257820282564290A0D0000207047FC
:10AF28002DE9F04F81B041F63017C0F604070C4602
:10AF38000546384600211E462FF006FE2AA0314657
:10AF480032F00AFF384600212FF0FEFD34A033F01E
:10AF5800FDFB002C44D041F6301641F61C0B0027AF
:10AF6800C0F604060FF2DC090FF2BC0AC0F6040BA7
:10AF78004FF0000806E00A4632F0EEFE08F101083C
:10AF880044452DD0B8F1060FF8D8DFE808F00D04D5
:10AF98000D200D101900304600212FF0D5FD6878DE
:10AFA80047EA00212DA0E6E715F80870E6E73046E5
:10AFB80000212FF0C9FD687947EA00215046DAE7F9
:10AFC800304600212FF0C0FDA9795846D3E7304616
:10AFD80000212FF0B9FDE87847EA00214846CAE782
:10AFE800002001B0BDE8F08F4C696768745F487352
:10AFF8006C5F5374617475732063616C6C62616318
:10B008006B20726563656976656420666F7220657A
:10B018006C656D656E74202564200D0A00000000C3
:10B028002338323738210D0048534C20536174754A
:10B03800726174696F6E3A2030782578202825640B
:10B04800290A0D0048534C204875653A2030782568
:10B058007820282564290A0D0000000048534C2058
:10B068004C696768746E6573733A20307825782068
:10B07800282564290A0D0000B0B5054600881C463D
:10B0880000284FF0000002D002F016FE01E002F0A6
:10B0980003FE40F210012888C2F200010B2241F29F
:10B0A800C04514FB0211C0F604058880284600211B
:10B0B8002FF04AFD09A033F049FB284600212FF064
:10B0C80043FD41F21A40C0F60400214632F044FE26
:10B0D800032021462BF0BCFE0020B0BD23383235BA
:10B0E8003921200D000000002DE9F04381B041F620
:10B0F800C017C0F604070C460546384600211E4610
:10B108002FF022FD41F29260C0F60400314632F081
:10B1180023FE384600212FF017FD41F68500C0F6C2
:10B12800040033F013FBECB141F6C0180026C0F65A
:10B1380004080FF2380900270EE000BF404600213E
:10B148002FF002FD687846EA002148460A4632F0A8
:10B1580003FE0137BC4205D0012FEFD0002FF8D1F4
:10B168002E78F6E7002001B0BDE8F0834C696768E7
:10B17800746E6573732044656661756C743A20302B
:10B1880078257820282564290D0A0000B0B540F2FA
:10B198001002B0F80700C2F200020B2341F2E244A9
:10B1A80011FB0325C0F604046880204600212FF017
:10B1B800CBFC06A032F0D0FD204600212FF0C4FCC5
:10B1C800698805A032F0C8FD0020B0BD23383235AB
:10B1D80039210A0D000000004170706C695F4C69EC
:10B1E8006768745F4C696768746E6573735F4C61F8
:10B1F80073745F536574204C69676874204C61737D
:10B20800742056616C7565203078252E3278200DB3
:10B218000A0000002DE9F04381B041F62127C0F66D
:10B2280004070C460546384600211E462FF08CFCC4
:10B2380017A0314632F090FD384600212FF084FCEB
:10B2480041F68500C0F6040033F080FAE4B141F617
:10B2580021280026C0F604080FF2740900270DE023
:10B26800404600212FF070FC687846EA00214846E5
:10B278000A4632F071FD0137BC4205D0012FEFD0EC
:10B28800002FF8D12E78F6E7002001B0BDE8F08352
:10B298004C696768745F4C696768746E6573735F3F
:10B2A8004C6173745F5374617475732063616C6C63
:10B2B8006261636B20726563656976656420666F99
:10B2C8007220656C656D656E74202564200D0A001A
:10B2D8004C696768746E657373204C6173743A20A7
:10B2E8003078257820282564290D0A00B0B54088D3
:10B2F80040F25C2141F28545C2F20001C0F6040526
:10B3080021F81300284600211C462FF01DFC41F2AD
:10B31800D730C0F60400214632F01EFD2846002131
:10B328002FF012FC02A032F017FD0020B0BD00BFC4
:10B338002338323530210A0D000000002DE9F04F86
:10B3480081B041F67F17C0F604070C46054638461B
:10B3580000211E462FF0F8FB41F25060C0F60400B1
:10B36800314632F0F9FC384600212FF0EDFB26A0DB
:10B3780033F0ECF9002C42D041F67F1B41F2AF7953
:10B3880041F2CD7A00276FF00206C0F6040BC0F632
:10B398000409C0F6040A4FF0000805E015F8087023
:10B3A80008F1010844452AD018EA060FF6D0B8F18A
:10B3B800040F17D0B8F1030F0BD0B8F1010FEFD17C
:10B3C800584600212FF0C0FB687847EA0021504614
:10B3D80011E0584600212FF0B7FBE87847EA002132
:10B3E800484608E0584600212FF0AEFB297941F283
:10B3F8001070C0F604000A4632F0AEFCD0E7002018
:10B4080001B0BDE8F08F00BF2338323532210D007E
:10B41800B0B540F210021C460178C2F200020B23BC
:10B4280014FB03229171D0F8010041F26545C0F682
:10B438000405C2F80700284600212FF085FB08A064
:10B4480032F08AFC284600212FF07EFB41F28E3034
:10B45800C0F60400214632F07FFC0020B0BD00BFDA
:10B46800233832354221200A0D0000002DE9F04F23
:10B4780081B041F6B507C0F604070C4605463846C4
:10B4880000211E462FF060FB41F20F60C0F6040059
:10B49800314632F061FC384600212FF055FB23A0DD
:10B4A80033F054F9002C3DD041F6B50B41F2F76A60
:10B4B80041F2EC7841F275790027C0F6040BC0F62A
:10B4C800040AC0F60408C0F60409002604E000BF18
:10B4D800AF5D0136B44225D086B126F002000128BE
:10B4E800F6D0042E11D0022EF3D1584600212FF0A9
:10B4F8002BFBA87847EA002148460FE05846002170
:10B508002FF022FB2978504608E0584600212FF0FA
:10B518001BFB287947EA0021404600BF0A4632F063
:10B528001BFCD6E7002001B0BDE8F08F2338323588
:10B5380038210D00F0B581B041F2A646C0F60406E8
:10B548000546304600211C4600272FF0FDFA27A0AB
:10B5580032F002FC304600212FF0F6FA2A88B5F8BE
:10B56800073025A0214632F0F7FB40F21001288869
:10B57800C2F200010B2214FB02136243885240F608
:10B58800421240F2B816B5F80710C2F20002C2F231
:10B598000006002818BF0146128835885980AA423B
:10B5A8004FF0000147F6F54398BF01219A4288BF42
:10B5B80001273943002A328018BF0122114040F682
:10B5C8004012C2F2000211704FF6FF7100222CF0F7
:10B5D800EFFB40F2AC11C2F20001088003202146C3
:10B5E8002BF036FC002001B0F0BD00BF2338323408
:10B5F80043210A0D00000000456C656D656E7420DE
:10B60800696E6465782025642070726573656E7450
:10B61800203078252E3278206C617374203078259C
:10B628002E32780D0A0000002DE9F04F81B041F666
:10B63800A317C0F604070C460546384600211E46E7
:10B648002FF082FA2AA0314632F086FB38460021D4
:10B658002FF07AFA35A033F079F8002C43D041F670
:10B66800A31B41F2AF7941F2CD7A00276FF00206B1
:10B67800C0F6040BC0F60409C0F6040A4FF000082F
:10B6880006E000BF15F8087008F1010844452AD003
:10B6980018EA060FF6D0B8F1040F17D0B8F1030F67
:10B6A8000BD0B8F1010FEFD1584600212FF04CFA1A
:10B6B800687847EA0021504611E0584600212FF0EB
:10B6C80043FAE87847EA0021484608E0584600214E
:10B6D8002FF03AFA297941F21070C0F604000A46B0
:10B6E80032F03AFBD0E7002001B0BDE8F08F00BF90
:10B6F8004C696768745F4C696768746E6573735FDB
:10B708005374617475732063616C6C6261636B2040
:10B71800726563656976656420666F7220656C651D
:10B728006D656E74202564200D0A000023383234BC
:10B7380045210D0010B54AF6F840C2F20000006835
:10B7480004212CF0F7F8044640B140F6C060C0F67A
:10B758000400214632F000FB204610BD41F23500BE
:10B76800C0F6040032F0F2FF204610BD80B510F09C
:10B77800D7F950B101F0FAF9002818BF80BD41F699
:10B788002A50C2F200000121017080BD81B08DF8FD
:10B7980003004AF6E440C2F200000068406801B0C5
:10B7A80070470000B0B583B094468E4604460998A9
:10B7B8000899079A02948DF807E08DF806C0ADF84D
:10B7C8000430ADF802208DF801108DF800000299C0
:10B7D8000120087002990020487002998870029927
:10B7E800C8700299087103B0B0BD000081B08DF82F
:10B7F80003004AF6E440C2F200000068006901B0A4
:10B808007047000080B541F63050C2F20000017860
:10B81800012907D10021017010F082F910B101202F
:10B828002EF022FB10F07CF9B8B110F07FF9A0B12E
:10B8380041F63150C2F20000017871B9012101705E
:10B848000BF046FB012802D0032009F059FF41F212
:10B85800FC00C0F6040032F079FF40200021BDE86A
:10B86800804030F033B9000041F63650C2F2000093
:10B878000078002818BF704780B501F03DFD0A2008
:10B888000BF042FEFDF702FF002009F039FF40F6F9
:10B898007B70C0F6040032F059FF01F063FB30F012
:10B8A8004FFC000080B582B08DF807004AF6EC40E6
:10B8B800C2F20000006801699DF80700884702B0DD
:10B8C80080BD00002DE9F04F8FB0834600284FF06F
:10B8D800030000F0C6800D46002900F0C28040F247
:10B8E80090389BF800A045F20829C2F20008012010
:10B8F800C2F20009A8F8000069A0002189F800A098
:10B9080000272FF021F99BF800106BA02A4632F08F
:10B9180023FA6EA6002400BF1BF80710304632F049
:10B928001BFA0134A7B2BD42F6D840F23F40C0F638
:10B93800040032F011FAAAF1010125294FF00100A3
:10B9480000F28F80DFE801F0138D8D8D8D8D8D8D48
:10B958008D8D8D8D8D8D8D60524F8D8D8D8D8D8DB5
:10B968008D8D8D8D8D8D8D31426A75857C203C2D18
:10B978006BD845F20820C2F2000059462A46FBF768
:10B98800DCFCA8F800506BE00BF0CAFA0446FBF7A1
:10B9980012FDC5B2102D28BF102509F1010021465E
:10B9A8002A46FBF7CAFC681C58E0022D4DD39BF8C9
:10B9B800010069468DF800004AF6E000C2F2000076
:10B9C80001224FF47A730EF099FB49E0032D3CD322
:10B9D8009BF8010004285AD0032836D19BF80200AE
:10B9E8002EF0BCF93CE00BF01BFA34E068463B2132
:10B9F8000BF034FA70B1044609F101006946224699
:10BA0800FBF79BFC601C29E068463B210BF00EFA13
:10BA18000028F0D101200FB0BDE8F08F022D14D31B
:10BA28009BF80100042837D003280ED10BF06CFADC
:10BA380011E0022D09D39BF801002EF027F90FE041
:10BA4800A5F1120010F1100F0ED203200FB0BDE8BF
:10BA5800F08F0BF023FA89F801000220A8F8000003
:10BA680000200FB0BDE8F08F681E00216C468DF8ED
:10BA78001010CDE90211CDE900110BF10101C2B29C
:10BA88002046FBF75AFC20462EF0A8F9E8E79BF879
:10BA980002002EF083F9E3E70BF03CFADBE700BF86
:10BAA8004170706C695F56656E646F725F44617453
:10BAB800615F7772697465002330452D25303268DF
:10BAC80078202530326C7821200A0D002530326824
:10BAD800782000002DE9F04F83B00546067845F23E
:10BAE8000820C2F20000067041F22020C0F60400CF
:10BAF800002100242FF028F8297853A032F02CF9DF
:10BB0800701E032800F29A80DFE800F002084C99C2
:10BB180040F29030C2F2000002218CE000F01AFFDF
:10BB280004783CB341F22028471C00250DF1020996
:10BB38000FF23C1AC0F604080FF2481B13E000BFCE
:10BB4800E0B201F02BF8044609F806005E464046CC
:10BB580000212EF0F9FF3046214632F0FDF817F8A3
:10BB6800014B013534B1EEB22E2C09F80640E7D16D
:10BB78005646ECE7BDF8020045F20822BDF805106C
:10BB8800C2F20002A2F801009DF80800A2F8031012
:10BB9800BDF80910507140F29030D180C2F2000017
:10BBA800082148E000F0D0FE04785CB341F2F01BB5
:10BBB80041F22029471C00250DF1020AC0F6040BAA
:10BBC800C0F604090FF290080DE000BF5E46484633
:10BBD80000212EF0B9FF3046214632F0BDF817F8A3
:10BBE800014B013574B1EEB22E2C0AF80640EDD0A7
:10BBF800522CEBD0E0B200F0D1FF04460AF8060060
:10BC08004646E4E7BDF8020045F20827C2F20007FD
:10BC1800A7F801009DF805009DF807109DF8092078
:10BC28009DF80B30F87040F2903039717A71BB7121
:10BC3800C2F2000007210180002400E00124204610
:10BC480003B0BDE8F08F00BF2330322D25303268B5
:10BC58007821200A0D000000537562204C6962208B
:10BC680076657273696F6E2069732025780A0D00F6
:10BC78004C69622076657273696F6E20697320253E
:10BC8800630A0D004C69622076657273696F6E20D5
:10BC980069732025780A0D002DE9F04381B0064626
:10BCA80090F8008041F20820C0F6040000211546F3
:10BCB80000272EF049FF31787CA032F04DF8A8F12A
:10BCC800010005284FF0010900F2CE800024DFE8CA
:10BCD80000F003502ACC718D41F20820C0F6040010
:10BCE80000214FF000092EF02FFF41F24510C0F659
:10BCF8000400294632F030F840F2AC10C2F20000DD
:10BD080047F6F6410180016842688368042010F014
:10BD1800AFFD002001F0D0FF40F2AA10C2F20000EF
:10BD2800012101709FE041F20820C0F604000021C3
:10BD38004FF000092EF008FF41F27B10C0F6040016
:10BD4800294632F009F840F2AA14C2F20004207819
:10BD5800012874D140F2AC10C2F200000121018028
:10BD6800016842688368042010F082FD84F800901E
:10BD78001EE041F20820C0F6040000214FF000093F
:10BD88002EF0E2FE5DA0294631F0E6FF40F2AC104D
:10BD9800C2F2000001210180016842688368042022
:10BDA80010F066FD40F2AA10C2F2000080F8009080
:10BDB800002018E041F20820C0F6040000212EF00F
:10BDC800C3FE41F2B510C0F60400294631F0C4FFA5
:10BDD800707840F2AA11C2F20001012808703DD023
:10BDE80000204FF0000901F057FF3CE041F2082025
:10BDF800C0F6040000212EF0A7FE30A0294631F03D
:10BE0800ABFF7778B47847F6FF7147EA0420002241
:10BE18002BF0CEFF054640F2AC10C2F200000580C0
:10BE2800016842688368042010F022FD00204FF06A
:10BE38000009B5F57A5F35D901F03EFF15E040F20B
:10BE4800AC10C2F2000047F6F64101800168426872
:10BE58008368042010F00CFD0120207000204FF0B2
:10BE6800000901F029FF0027002445F20820C2F24A
:10BE78000000B8F1060F80F8008003D14470877085
:10BE8800032106E040F2AA11C2F2000109784170CC
:10BE9800022140F29032C2F200024846118001B0FD
:10BEA800BDE8F08301F0F8FEDFE700BF2330332D53
:10BEB8002530326878210A0D000000004170706C4E
:10BEC800695F4C45445F496E74656E736974792087
:10BED80063616C6C6261636B20726563656976652A
:10BEE8006420666F7220656C656D656E74496E645A
:10BEF8006578202564200D0A000000004170706CF0
:10BF0800695F4C45445F4F46462063616C6C6261D3
:10BF1800636B20726563656976656420666F72205D
:10BF2800656C656D656E74496E646578202564205E
:10BF38000D0A0000B0B584B001F0E6F928B1002080
:10BF480001F0BAFE012004B0B0BD0020002501F0C8
:10BF5800A3FE40F20C22C2F20002136C108892F881
:10BF680044100124CDE90035931C0E22029401F0FF
:10BF7800B1F804B0B0BD0000F0B581B040F20C27B4
:10BF88000E46C2F2000715460146B81C32461C464A
:10BF9800FBF7D3F900203C803E643C2E88BF032089
:10BFA80087F8445001B0F0BD2DE9F0410446077808
:10BFB80045F2082841F238200D46C2F20008C0F6C2
:10BFC8000400002188F8007000262EF0BDFD2178BD
:10BFD80020A031F0C1FEF81E032837D3022F19D054
:10BFE800062F32D19DB140F23F4700210FF274086D
:10BFF800C0F60407002600BF625C404631F0ACFE84
:10C00800384631F0A9FE0136F1B28D42F4D800204D
:10C01800BDE8F0813D2D0AD341F23820C0F6040076
:10C0280000212EF091FD13A032F090FB3C25611CFD
:10C038006A1E08F10100FBF780F940F29030C2F265
:10C04800000005800020BDE8F08101263046BDE8EB
:10C05800F08100BF2330312D253032687821200A45
:10C068000D000000646174615B25645D3D202564FA
:10C07800000000004C656E6774682072656365692E
:10C088007665642067726561746572207468616E94
:10C098002073697A65206F6620726573706F6E739E
:10C0A8006520627566666572200D000040F2FC121C
:10C0B800C1EBC101C2F2000202EB4101002200BF44
:10C0C80031F81230984204BF012070470132072A24
:10C0D80004BF00207047F3E740F25422C2F2000286
:10C0E80002EBC101002200BF51F82230984204BF80
:10C0F800012070470132012A1CBF00207047F3E776
:10C108000020704710B540F2FC12C1EBC101C2F229
:10C11800000202EB410100244FF6FF7231F814309F
:10C12800934203D00134072CF8D107246200FBF7AF
:10C1380004F9E0B210BD000010B540F25422C2F27A
:10C14800000202EBC10100244FF6FF7251F82430BF
:10C15800934203D00134012CF8D00224A200FBF74B
:10C16800ECF8E0B210BD0000B0B588B0DDF844C00E
:10C17800DDF840C0DDF83CC0DDF838C0DDF834C07B
:10C18800DDF830C007900691059204930EF090FCFC
:10C1980006980EF0DDFC05980499109A119BDDF8BD
:10C1A8003CC00D9CEE460025CEF80850CEF8044061
:10C1B800CEF800C00EF06EFB0E980F99079A0EF09D
:10C1C800DFFA0C980D990EF0B7FA03900EF048FCC0
:10C1D800039808B0B0BD0000B0B588B0DDF844C021
:10C1E800DDF840C0DDF83CC0DDF838C0DDF834C00B
:10C1F800DDF830C007900691059204930020039063
:10C208000EF056FC04980EF0A3FC0C980D99109AA9
:10C21800119BDDF83CC0059CEE460125CEF8085080
:10C22800CEF80440CEF800C00EF034FB0E980F99FB
:10C23800079A0EF0A5FA069805990EF01BFB0EF06A
:10C248000FFC039808B0B0BD80B592B01190109162
:10C258000F920E9340F26020C2F200000D90002071
:10C268000B9010980290119820B1FFE7119800F0F8
:10C27800FFF8FFE70E9890B1FFE70F9800F00F0066
:10C288000B900F9830B1FFE70B9818B9FFE7102013
:10C298000B90FFE70B990F98401A0F90FFE7FFE705
:10C2A8000F9870B3FFE7029B186859689A68DB68B3
:10C2B8000A93099208910790FFE7079800BA0D9929
:10C2C800096848400790089800BA0D99496848409D
:10C2D8000890099800BA0D998968484009900A9809
:10C2E80000BA0D99C96848400A90FFE70D9907A858
:10C2F80000F0B4F80298103002900F9810380F90A0
:10C30800CEE70E98002800F08180FFE700200A9011
:10C318000990089007900C90FFE70C980B998842B9
:10C3280013D2FFE702990C98095C03228243D200DA
:10C3380001FA02F320F0030207A98858184388502D
:10C34800FFE70C9801300C90E7E700200690059075
:10C358000490039003A90191084600F07FF8019822
:10C3680000F056F80B980F2811D8FFE70B98032117
:10C378008143CA00802101FA02F320F0030207A9D1
:10C3880088581843885003A800F042F8FFE70020B7
:10C398000C90FFE70C98032814D8FFE70D980C9A27
:10C3A80050F8220003A951F8221080EA010307A9D6
:10C3B80051F82200584041F82200FFE70C9801305C
:10C3C8000C90E7E70D9907A800F048F80EF048FB35
:10C3D800FFE70D98006800BA07900D98406800BA0A
:10C3E80008900D98806800BA09900D98C06800BA46
:10C3F8000A90FFE70E990798089A099BDDF828C06C
:10C40800C1F80CC08B604A600860FFE712B080BDBD
:10C4180082B0019001980068C00F872148430090BE
:10C42800019908684A68400040EAD270086001999A
:10C4380048688A68400040EAD27048600199886874
:10C44800CA68400040EAD27088600199CA680098BA
:10C4580080EA4200C86002B07047000080B582B030
:10C4680001900091019800990EF0ECFA02B080BD9D
:10C4780080B584B0039040F26020C2F200000290C0
:10C488000EF016FB03980EF063FB002001900EF0EF
:10C4980089FB01980299C8600299886002994860EE
:10C4A8000299086004B080BD80B588B007900691F5
:10C4B80005920EF0FDFA07980EF04AFB04200EF0E4
:10C4C80071FB069B186859689A68DB6804930392A5
:10C4D8000291019001A908460EF0B4FA0EF0C0FAD4
:10C4E80005990198029A039BDDF810C0C1F80CC0A9
:10C4F8008B604A60086008B080BD000010B54CF23F
:10C508003D520446C0F600024FF4806000212FF02F
:10C51800C9F940F2F803C2F200034FF0640C03EBD0
:10C52800840242F61920214623F824C0BDE81040B1
:10C5380000F0A6B840F2F802C2F2000242F6192052
:10C54800002100F09DB8000040F2F801C2F200019D
:10C55800CA780880012A18BF70474FF48060032109
:10C568002FF0B4BA80B582B04178FF2902D00020FC
:10C5780002B080BDB0F8031040F61442914212D0C8
:10C5880040F601429142F2D140F22811C2F2000174
:10C598004988B0F8072002319142E8D1407B012157
:10C5A80021EA00000EE040F22811C2F20001498899
:10C5B800B0F8072001319142D9D1B0F8050030F028
:10C5C8009BF802208DF8060000208DF807000DF179
:10C5D800060000F035F8012002B080BDF0B587B044
:10C5E8004CF26D50C0F600002CF062FB41F60F00D3
:10C5F80040F228150DF11A04ADF81A00C2F2000530
:10C60800012021460122042300950126042730F049
:10C6180013F842F6192135F8020BADF81A100A2161
:10C6280000221223CDE90032CDE902710121224610
:10C638000123049605952FF08FFF07B0F0BD000089
:10C648000078022812D0012809D0002818BF7047A6
:10C6580040F2F800C2F200000121C170704740F2B8
:10C66800F800C2F200000021C170704740F2F802E1
:10C67800C2F2000242F61920002100F001B80000C1
:10C68800944642F61922904218BF704780B582B08E
:10C6980001EB410040F22811C2F2000101EB400217
:10C6A80031F81000518800220123CDF800C030F085
:10C6B8001BF902B080BD000082B00090009820B93C
:10C6C800FFE703208DF8070009E000984AF6C0410B
:10C6D800C2F20001086000208DF80700FFE79DF80E
:10C6E800070002B07047000082B00090009820B99F
:10C6F800FFE703208DF8070009E000984AF6EC41AF
:10C70800C2F20001086000208DF80700FFE79DF8DD
:10C71800070002B07047000080B582B001908DF824
:10C728000310019820B1FFE79DF8030020B9FFE747
:10C7380002208DF802000CE04AF62850C2F20000F0
:10C74800006801999DF8032005F022F88DF8020091
:10C75800FFE79DF8020002B080BD000080B541F6F9
:10C768002A50C2F20000012101700FF0D9F9002807
:10C7780008BF80BD41F63050C2F20000017869B9A7
:10C788000121017041F24100C0F6040031F0DEFFE2
:10C7980040200021BDE880402FF098B980BD0000FE
:10C7A8000622028040F20012C0F20232C0F80220D3
:10C7B80004228271072008707047000083B002903D
:10C7C80001918DF803208DF8023003B07047000006
:10C7D80010B5044608A031F0BFFA601EC0B20228A6
:10C7E80099BF13A151F8200040F62670C0F6040046
:10C7F800BDE8104031F0AABF467269656E6473687F
:10C80800697020636C65617265642E204C6F7720B7
:10C81800706F776572206E6F6465206164647265FD
:10C828007373203078252E3458200D0A000000003C
:10C83800380F0408D70E0408060F0408F0B581B0B5
:10C848000F46014640F68760069CC0F604001D4668
:10C85800164631F081FA0DA0394631F07DFA642090
:10C8680006FB00F113A031F077FA1CA0294631F03D
:10C8780073FA4CB140F65660C0F60400214601B088
:10C88800BDE8F04031F068BA01B0F0BD4C6F7720D8
:10C89800706F776572206E6F646520726563656975
:10C8A80076652064656C61792025646D73200D0AB6
:10C8B800000000004C6F7720706F776572206E6FF4
:10C8C800646520706F6C6C2074696D656F75742079
:10C8D800256C646D73200D0A000000004C6F7720F2
:10C8E800706F776572206E6F6465206E756D626516
:10C8F80072206F6620656C656D656E7473202564A3
:10C90800200D0A0081B00020ADF802004AF6285038
:10C91800C2F20000006880B1FFE74AF67040C2F238
:10C9280000000078012808D1FFE74AF67040C2F2FB
:10C9380000004088ADF80200FFE7BDF8020001B032
:10C94800704700000320704742F6C600C0F6040096
:10C958007047000042F68E00C0F6040070470000E1
:10C968000320704780B582B04AF62850C2F2000012
:10C97800006828B1FFE713F067F98DF8070003E0B6
:10C9880000208DF80700FFE79DF8070002B080BD82
:10C998000520704783B08DF80B0001910020ADF899
:10C9A80002009DF80B0004284ADCFFE74AF62850ED
:10C9B800C2F200000068002841D0FFE74AF6704044
:10C9C800C2F200000078012839D1FFE700208DF875
:10C9D8000100FFE79DF801000A282FDCFFE79DF81A
:10C9E8000B104AF67040C2F2000000EB8100406A6A
:10C9F8009DF80110C1EBC10100EBC100806F0199E6
:10CA0800884214D1FFE79DF80B104AF67040C2F235
:10CA1800000000EB8100406A9DF80110C1EBC101E4
:10CA280000EBC100B0F87C00ADF8020006E0FFE7BB
:10CA38009DF8010001308DF80100CBE7FFE703E026
:10CA48000020ADF80200FFE7BDF8020003B0704710
:10CA580080B582B04AF62850C2F20000006828B1BA
:10CA6800FFE713F047F98DF8070003E000208DF881
:10CA78000700FFE79DF8070002B080BD0A20704755
:10CA880080B582B04AF62850C2F20000006828B18A
:10CA9800FFE713F043F98DF8070003E000208DF855
:10CAA8000700FFE79DF8070002B080BD0B20704724
:10CAB80080B582B00190019830F0E2FF019819F03A
:10CAC80001F902B080BD000080B582B04AF6E440AA
:10CAD800C2F2000000688269036A4BF2AD70C0F6CA
:10CAE8000000694648604BF2F570C0F60000086027
:10CAF8004BF29571C0F60001052019F0DFF902B07C
:10CB080080BD00002DE9F0478AB04AF6E440C2F241
:10CB1800000001680A784B68886891F80CC091F8A1
:10CB280014E04C7D8D690E7F4F7FD1F8208091F8FD
:10CB38000D90D1F810A06946C1F824A0C1F8209042
:10CB4800C1F81C808F614E610D61CC60C1F808E0AE
