:020000040800F2
:1070000050CB0020BD720008F574030859BB01087D
:10701000C5D20108695401088DCD030800000000A5
:10702000000000000000000000000000E1A10308D3
:10703000A95B010800000000B58D0308F5B0030846
:10704000D7720008D7720008D7720008FD900308B5
:10705000D7720008D7720008D7720008D7720008EC
:10706000D7720008D7720008D7720008D7720008DC
:10707000D7720008D7720008D7720008D7720008CC
:10708000D7720008D7720008D7720008D7720008BC
:10709000D7720008D7720008D77200083D5C01085B
:1070A000D7720008D7720008D7720008D77200089C
:1070B000D7720008D7720008D7720008D77200088C
:1070C000D7720008D7720008D7720008D77200087C
:1070D00075CA0308D5BF0108D7720008D772000827
:1070E000D7720008D7720008D7720008D77200085C
:1070F0004DBE010851BE010875AA0108D7720008EB
:10710000D7720008D7720008D7720008D77200083B
:10711000D7720008D7720008D7720008D77200082B
:10712000D7720008D7720008055B0108D772000803
:10713000D7720008D7720008D7720008000000005C
:10714000E84004080000000081C201120812484A09
:107150000C0412303B08051C1A041059041428189A
:107160000222B042201A270C5AD00C14FFFF031A37
:10717000034A13D0521420F85414202057142048E6
:107180005918132069950308359703086996030871
:10719000DD94030831041AED0C1E399A0308FF012F
:1071A000111B093D3C14FFFF011A02401204120595
:1071B000120EB6090DFF018314DD2A021A14894547
:1071C000514001083CDE2A08105A6D10DADB20DA43
:1071D000DC201A010C029B100000000000000000DF
:1071E000000000000000000000000000000000009F
:1071F000000000000000000000000000000000008F
:10720000000000000000000000000000000000007E
:10721000000000000000000000000000000000006E
:10722000000000000000000000000000000000005E
:10723000000000000000000000000000000000004E
:10724000000000000000000000000000000000003E
:10725000000000000000000000000000000000002E
:1072600000000000000000000000000001FF01FF1E
:1072700001FF01FF01FF01FF01FF01FF01FF01FF0E
:04728000014A0000BF
:020000040800F2
:1072A800DFF80CD000F002FD00480047B1E9030800
:1072B80050CB00200648804706480047FEE7FEE717
:1072C800FEE7FEE7FEE7FEE7FEE7FEE7FEE7FEE78E
:1072D8009DB10308A97200082DE9F05F054600205A
:1072E80092469B4688460646814640241BE028462F
:1072F80041464746224600F096FB53465A46C01A76
:10730800914110D311461846224600F07DFB2D1AF4
:1073180067EB01084F4622460120002100F074FB6C
:1073280017EB00094E41201EA4F10104DFDC48469A
:1073380031462A464346BDE8F09F10B5431A9342AA
:1073480009D28318881803E010F8011D03F8011DFD
:10735800521EF9D210BD40EA01039B0703D009E091
:1073680008C9121F08C0042AFAD203E011F8013B29
:1073780000F8013B521EF9D210BDD2B201E000F86C
:10738800012B491EFBD270470022F6E710B51346C1
:107398000A4604461946FFF7F0FF204610BD10B50F
:1073A800044604E00B7800F8013B03B1491C521E67
:1073B800F8D2204610BD421C10F8011B0029FBD151
:1073C800801A7047CBB203E00178994203D0401C81
:1073D800521EF9D20020704730B5044600200346FB
:1073E80000E05B1C934203D2E05CCD5C401BF8D00C
:1073F80030BD30B505460020034600E05B1C9342D3
:1074080005D2EC5CC85C201A01D1002CF6D130BD45
:107418000FB400B58DB010A909900B9000914FF0F2
:10742800FF300A9000200C90054806900548079008
:107438006A4609A80F9900F02DFB0DB05DF814FB02
:10744800B97A0008D77A00082DE9FF5F1D464FF08A
:10745800FF3BD5E9014691465F464FF00008A96910
:107468007F1C01988847296A824688470028F6D1F8
:10747800BAF1FF3F0CD024F4C064002E19DD600679
:1074880014D5BAF12B0F09D0BAF12D0F0ED103E0A4
:10749800584604B0BDE8F09F44F48064A9697F1C95
:1074A80001988847761E8246002E02DDBAF1300F19
:1074B80003D0B9F1000F26D032E0A969761E44F452
:1074C80000747F1C019888478246002E05DDBAF1BA
:1074D800780F06D0BAF1580F03D0B9F1000F10D0C9
:1074E8001EE0B9F1000F02D0B9F1100F18D1A96947
:1074F800761E24F400747F1C019888478246102069
:1075080002E0082000E00A20814609E008FB09089B
:10751800A969761E44F400747F1C01988847824646
:10752800002E05DD4946504600F09FFA0028EDDAA6
:10753800E96901988847A00502D46FF00100A8E71F
:10754800E00725D1600613D5600502D5C8F1000013
:1075580000E0404629680A1D2A600968220501D50D
:10756800087015E0220701D5088011E008600FE0D7
:107578002868011D29600068210502D580F800806F
:1075880006E0210702D5A0F8008001E0C0F80080DD
:1075980038467EE72DE9FF5FD2E901A74FF00008E2
:1075A800916999461446DDF838B0464601988847EF
:1075B800054659EA0B0005D009E0A169761C019837
:1075C80088470546216A284688470028F5D1681C5F
:1075D80003D05FEACA7005D015E04FF0FF3004B061
:1075E800BDE8F09F2068011D2160D0F800800AE006
:1075F8005FEACA7001D108F8015BA169761C7F1E99
:10760800019888470546002F1ADD681C18D0B9F183
:10761800000F0DD0E81705EBD060421120F01F00D5
:1076280059F822102A1A012090400142E0D107E0BF
:10763800BBF1000FDCD1216A284688470028D7D043
:10764800E16901988847BBF1000F07D1002E05DDDD
:107658005FEACA7002D1002188F80010A068B84219
:1076680003DDBBF1000F03D017B16FF00100B6E7DF
:107678003046B4E72DE9FE4F804681EA0300C00F8B
:107688000C46009021F0004123F00045B8EB0200C1
:10769800A94105D24046214690461C460B46024663
:1076A80023F00040104347D0270DC7F30A00C3F367
:1076B8000A510290401A019040286BDAC3F3130074
:1076C80040F4801B0098924620B10023D2EB030AB5
:1076D80063EB0B0B01985946C0F14002504600F08D
:1076E80093F906460D4650465946019A00F0ABF903
:1076F80010EB08006141002487EA115284EAE7731D
:107708001A4340D0009A62B3019A012A4FEA0752FD
:1077180015DC001B61EB02014FF0004202EA075240
:10772800CDE90042001C41F5801132462B4600F09D
:10773800EEF903B0BDE8F08F40462146F9E7001B9B
:1077480061EB0201001C41F5801300185B41201811
:10775800A2F5001747EB030140EAD570B6196D4151
:1077680011E06D084FEA360645EAC0754FEA075240
:10777800001B61EB0201001C41F5801149084FEA2A
:1077880030000019514132462B4603B0BDE8F04F96
:1077980000F0AEB90098012240000023D0EB0202AD
:1077A80063EBE073009821464FEAE074B8EB000001
:1077B80061EB0401E9E783F000435BE781F00041F6
:1077C80058E72DE9FE4F81EA030404F0004421F054
:1077D800004100944FF0000B23F0004350EA0104ED
:1077E8005ED052EA03045BD0C3F30A54C1F30A55CE
:1077F8002C44A4F2F3340194A0FB0254C1F3130106
:1078080041F48011C3F3130343F4801301FB0244D2
:1078180000FB034E840A970A44EA815447EA8357D7
:10782800A4FB076802958D0A05FB07854FEA932C90
:1078380004FB0C542705029D4FEA065847EA163701
:10784800B5EB08056EEB070C870E920E47EA811719
:1078580042EA8312A7FB0201B6EB0B0164EB0004BA
:107868002B0D43EA0C335E1844EB1C50DA465146A4
:10787800E7FB0201C5F313044FEA0B3343EA145341
:107888004FEA0432019C43EA0603A4F10C04029473
:10789800009CCDE900B400F03AF903B0BDE8F08FE0
:1078A80000200146F9E72DE9F04D81EA030404F0D0
:1078B800004B21F0004514464FF0000A23F0004128
:1078C80050EA050220D054EA01021DD0C5F30A5738
:1078D8000246C5F31303C1F31300C1F30A5640F47B
:1078E800801543F48013A7EB0608101BD64608F250
:1078F800FD3873EB050002D308F1010801E0921886
:107908005B41B8F1000F03DA00200146BDE8F08DB5
:1079180000204FF48011064684460EE0171B73EBD7
:10792800050705D3121B63EB050306434CEA010C5C
:1079380049084FEA300092185B4150EA0107EDD13F
:1079480052EA030012D082EA040083EA05010843E0
:1079580005D0101BAB4106D20122002306E000220D
:107968004FF0004302E06FF0010253101AEB0600DB
:107978004CEB085110EB0A0041EB0B01BDE8F04D50
:1079880000F0B6B80EB540F2334102910021CDE9BE
:1079980000110A460B4600F0BAF803B000BD70B5F6
:1079A800C1F30A5201F000450024C1F3130140F26B
:1079B800FF3341F480119A4201DA002070BD40F291
:1079C80033439A42A2F2334203DC524200F02BF8CE
:1079D80000E090402C43F1D0404270BD30B50B46DA
:1079E800014600202022012409E021FA02F59D42E7
:1079F80005D303FA02F5491B04FA02F52844151EBB
:107A0800A2F10102F1DC30BD202A04DB203A00FAA1
:107A180002F1002070479140C2F1200320FA03F3DD
:107A2800194390407047202A04DB203A21FA02F0DB
:107A38000021704721FA02F3D040C2F120029140A0
:107A4800084319467047202A06DBCB17203A41FA2B
:107A580002F043EAE07306E041FA02F3D040C2F1D3
:107A6800200291400843194670473A2800D230381E
:107A780020F02002412A01D3A2F13700884201D325
:107A88004FF0FF307047000002681144137801601E
:107A980018467047D16004495161044911620021B8
:107AA8001161114600F020B9917A0008E57C0008C0
:107AB800426842B1016811F8013B23B1521EC0E986
:107AC8000012184670470121C160881E704742683D
:107AD8005AB1C368016843B983688B4205D0491E0F
:107AE800521CC0E90012002070474FF0FF30704769
:107AF80010B5141E73F1000408DA401C41F10001AE
:107B080092185B411A4301D120F0010010BD2DE904
:107B1800F04D92469B4611B1B1FA81F202E0B0FAFB
:107B280080F220329046FFF76FFF04460F4640EA86
:107B38000A0041EA0B0153465A46084313D011463E
:107B480053EA010019D0C8F140025046FFF76BFF15
:107B580005460E46504659464246FFF755FF08432C
:107B680005D0012004E020463946BDE8F08D00200C
:107B7800054346EAE0762C4337430A986305E40A4E
:107B8800A0EB08000022FD0A44EA47540A3002D557
:107B980000200146E9E7010510196941DDE90845BA
:107BA80000196941BDE8F04DA2E72DE9F04D002329
:107BB8001A461B1A8A4103DB00200146BDE8F08DF6
:107BC800C1F30A52C1F3130141F480154FF0000BC1
:107BD800D10702D100186D41521E0027044640F219
:107BE800FF11384601EB620A3E46804602460020F5
:107BF8004FF48011FFF717FFC2197141BB1846EB0C
:107C08000100B4EB030C75EB000C04D3E41A65EB2C
:107C1800000517460E46241908F101006D418046FB
:107C28003428E3DDF91946EB0600091BA84103D205
:107C38004FF0FF32134601E0002213461BEB07000A
:107C480046EB0A51BDE8F04DFFF752BFC1F30A52A7
:107C5800C1F3130140F2FF3341F480119A4202DA72
:107C680000200146704740F233439A42A2F2334261
:107C780002DC5242FFF7D7BEFFF7C6BE30B5041E7E
:107C880071F1000404DB4FF00044404264EB010151
:107C9800141E73F1000405DB1C464FF000435242EA
:107CA80063EB0403994208BF904230BD1CB50948F4
:107CB8000090094801900546009C06E0E06840F005
:107CC800010394E8070098471034AC42F6D3FFF755
:107CD800EBFA000098400408E8400408C0B24FF4EA
:107CE800F05100F097B900002DE9F34F8BB04FF039
:107CF800000801F10C000C464FF0010B46460DF14F
:107D0800080A01906269012101989047051E2DD04B
:107D1800252D2CD0216A8847C0B1626901210198BC
:107D28009047216A88470028F7D1411E6269019867
:107D3800904700E0761CA1690B988847216A88471C
:107D48000028F7D1E1690B988847DBE7A1690B9810
:107D580088470746A84201D1761CD3E7E1690B980A
:107D680088477F1C02D1B8F1000F6FD046E1002789
:107D780062693D463946019890472A2804D16269CC
:107D88000121019890470125DFF884926269012159
:107D980001989047A0F130010A290AD24F45E5DC45
:107DA80007EB870100EB4107303FDFD445F01005B2
:107DB800ECE7E90601D46FF000476C280AD04C289C
:107DC80014D0682815D06A280DD074281CD07A28B9
:107DD8001AD01DE062690121019890476C2802D0F1
:107DE80045F0040514E045F002050DE045F02005D6
:107DF8000AE06269012101989047682802D045F09D
:107E0800080505E045F4006562690121019890477D
:107E1800C4E9015765283DD019DC58287AD00CDC14
:107E2800452837D004DC252826D0412831D131E037
:107E380046282FD047282CD12CE05B2877D0612802
:107E480028D063287CD0642823D15AE0D0E06F285A
:107E580048D008DC66281DD067281BD0692821D0A7
:107E68006E2816D127E0702845D0732868D0752869
:107E780047D078280DD14DE0A1690B988847054671
:107E880025283FF469AFE1690B9888476D1C3FF4DA
:107E98006AAFB3E023466A466FF001000B99AFF36F
:107EA80000809EE045F040006060A80723464FF040
:107EB800000236D43EE0E8077FF447AF2068011D92
:107EC80021600068290501D506701BE7290701D53F
:107ED800068017E7A90703D5F117C0E9006111E784
:107EE80006600FE745F040006060A80723464FF0A2
:107EF800080216D41EE040F60E0125EA0100606073
:107F080016E045F040006060A80723464FF00A02DB
:107F180007D40FE045F040006060A80708D5234665
:107F280010226FF001000B99AFF3008059E007E0D1
:107F3800234610226FF001000B99FFF785FA50E0F5
:107F48004FF000094F464B46632802D05B2806D005
:107F580040E0E80601D40120A06001273AE0626908
:107F68000121019890475E2805D14FF00109626907
:107F7800494601989047216939B900210A46534674
:107F880043F82120491C0829FADBB0B3216969B9F3
:107F9800C11700EBD16253110AEB830122F01F02D3
:107FA800821A01200B68904003430B60626901212B
:107FB800019890475D28E8D1B9F1000F09D0002059
:107FC800514651F82020D24341F82020401C08286F
:107FD800F7DB02AB224600976FF001000B99FFF721
:107FE800D9FA00280CDA401C08D1BBF1000F05D0E3
:107FF8004FF0FF300DB0BDE8F08FFFE74046F9E7DE
:10800800E90701D108F1010806444FF0000B79E6B1
:10801800CCCCCC0C7F2801D9002208E0064A02EB20
:108028005002C007127800D1120902F00F02012095
:10803800904008407047000060FA030870B58C183B
:1080480010F8015B15F0070301D110F8013B2A1164
:1080580006D110F8012B03E010F8016B01F8016B51
:108068005B1EF9D12B0705D40023521E0DD401F84D
:10807800013BFAE710F8013BCB1A921C03E013F816
:10808800015B01F8015B521EF9D5A142D8D300204B
:1080980070BD000010B588B04FF6C830C0F60300B8
:1080A80090E80E5044690191018B807E02920393FF
:1080B800CDF810C0CDF814E00694ADF81C108DF87A
:1080C8001E0033F073F901A831F032F908B010BD81
:1080D8002DE9F04186B00FF0A9F90FF0B1F940F69B
:1080E8009000C5F60000016841F4803101600DF090
:1080F80013FD40F2A01240F6000340F200470021B1
:10810800C0F60402C4F60003C4F600074FF00008E6
:10811800002500200491CDE90211CDE9001104E009
:10812800A68835430131262914D002EBC104A6796B
:10813800002EF7D052F831609E4207D0BE42EFD0F1
:10814800B6F1904FEED1A6883043EBE7A68848EA0F
:108158000608E7E700214C2702910121C5F6000730
:10816800019103210204039121D084B2009438685C
:10817800694640F001003860386800F00100059059
:108188000598D7F8000140F00100C7F80001D7F8BA
:10819800000100F00100059005984FF090400FF0A5
:1081A8003DFD4FF09040214600220FF007FE40F2BF
:1081B80000442804C4F600041FD0ADB20095386806
:1081C800694640F002003860386800F00200059007
:1081D8000598D7F8000140F00200C7F80001D7F869
:1081E800000100F002000590059820460FF016FDEA
:1081F8002046294600220FF0E1FD5FEA084022D020
:108208001FFA88F50095386804F5806440F004008A
:1082180038603868694600F0040005900598D7F87A
:10822800000140F00400C7F80001D7F8000100F091
:1082380004000590059820460FF0F0FC20462946DA
:1082480000220FF0BBFD06B0BDE8F08170470000CA
:1082580070470000B0B588B04468B4F80B10A1F5B9
:108268001241072900F2AC81DFE811F00800C200D2
:10827800E400AA01F7000201BE00E20004466846D5
:1082880031F082F89DF800109DF801209DF8023029
:1082980040F6F520C0F6040036F0D2FE9DF8041032
:1082A80040F6C320C0F6040036F0CAFE9DF8091057
:1082B800481E8F2800F2008140F61C62C0F60402B6
:1082C800DFE810F021019000EB000E011301F0002F
:1082D800FF00FA00FA00FA00FA00FA00FA00FA00C1
:1082E800FA00FA00FA00FA00FA00FA00FA00FA00B6
:1082F800FA00FA00FA00FA00FA00FA00FA00FA00A6
:10830800FA00FA00FA00FA00FA00FA00FA00FA0095
:10831800FA00FA00FA00FA00FA00FA00FA00FA0085
:10832800FA00FA00FA00FA00FA00FA00FA00FA0075
:10833800FA00FA00FA00FA00FA00FA00FA00FA0065
:10834800FA00FA00FA00FA00FA00FA00FA00FA0055
:10835800FA00FA00FA00FA00FA00FA00FA00FA0045
:10836800FA0004011D011801FA00FA00FA00FA00E7
:10837800FA00FA00FA00FA00FA00FA00FA00FA0025
:10838800FA00FA00FA00FA00FA00FA00FA00FA0015
:10839800FA00FA00FA00FA00FA00FA00FA00FA0005
:1083A800FA00E100F500FA00FA00FA00FA00FA0013
:1083B800FA00E600DC00FA00FA00FA00FA00FA0017
:1083C800FA00FA00FA00FA00FA00FA00FA00FA00D5
:1083D800FA00FA00FA00FA00FA00FA00FA00FA00C5
:1083E800FA0009019CA28EE0D4F80D1082A03AE0B0
:1083F80040F6A931C0F604010446084636F020FECE
:10840800646840F63B40617BC0F6040036F018FE15
:10841800607B002807BF40F62950C0F6040040F6EC
:10842800F240C0F6040008B0BDE8B04037F002BB27
:1084380068A01EE040F68A40C0F6040037F0FAFA59
:10844800D4F80D10D4F8112040F61930C0F6040005
:1084580008B0BDE8B04036F0F3BDD4F80D1040F6D2
:108468003F30C0F6040008B0BDE8B04036F0E8BDC3
:1084780070A008B0BDE8B04036F0E2BD40F67A52D0
:10848800C0F604023FE040F6DA52C0F604023AE0D1
:1084980040F66352C0F6040235E040F63062C0F69A
:1084A800040230E040F64A62C0F604022BE040F6CF
:1084B800F052C0F6040226E041F60D12C0F604029E
:1084C80021E040F63A62C0F604021CE040F606627B
:1084D800C0F6040217E040F6CB52C0F6040212E0E0
:1084E80040F62562C0F604020DE040F6C152C0F61F
:1084F800040208E040F6A852C0F6040203E040F681
:108508009152C0F6040240F6A220C0F6040036F0EC
:1085180097FD9DF80A109DF80B209DF80C3040F649
:10852800DF20C0F6040036F08BFD40F66B40C0F645
:10853800040036F085FD002560680795407B0695A8
:1085480001280595049534D0E0BB40F6D840C0F624
:10855800040037F06FFAFFF79DFD0F208DF810002B
:108568007F2042F200058DF81200CEF2040528683B
:10857800040C40F61A40C0F60400214636F060FDAF
:10858800ADF81C402C6840F6FB306FF31F34C0F682
:108598000400214636F054FD04A8ADF81E4030F022
:1085A800B9FE00F031F90120002134F071FA08B069
:1085B800B0BD40F6CA30C0F6040036F041FD257063
:1085C80008B0B0BD40F67730C0F6040036F038FD8C
:1085D80008B0B0BD3E3E3D3D20534843495F53552A
:1085E800425F4556545F4E564D5F454E445F455277
:1085F8004153450A0D0000003D3D3E3E5348434966
:108608005F5355425F4556545F4E564D5F53544134
:1086180052545F4552415345203A204E756D62656C
:10862800724F66536563746F7273203D2025750A17
:10863800000000003E3E3D3D20534843495F5355EE
:10864800425F4556545F4E564D5F454E445F575204
:108658004954450A0D000000424C455F4843490013
:1086680080B54AF27470C2F2000010F037F9BDE824
:1086780080402DF0C3BD000040F2F020C2F200009F
:1086880090F88000704700002DE9F04116460D462D
:1086980004460FF099FB40F25401C2F200010A8827
:1086A80040F64813A242C2F200030DD11A68821A9A
:1086B800632A09D841F2AC20C0F6040021463246AC
:1086C800BDE8F04136F0BCBC40F2F028C2F2000828
:1086D800B8F816200C80002A186018BF944203D0FE
:1086E8002DA0214636F0ACFC0020A8F8160088F82A
:1086F800800041F2EA20C0F60400314636F0A0FCC2
:1087080041F26270C0F6040021462A4636F098FC11
:108718000FF05AFB014641F22840C0F6040036F03B
:108728008FFC13F09DFB05460EF036FD06462DF036
:10873800EFFF98F88030074641F28940C0F6040000
:108748002946324636F07CFC0FB120A017E0012004
:1087580000F0BEFB98F88000012808D041F6BB3035
:10876800C0F6040037F066F9012000F0B1FB98F874
:108778008000012805D041F69840C0F6040037F083
:1087880059F940F24060C2F20000012101704480B2
:10879800BDE8F0412FF092B93E3E3D3D204469735B
:1087A800636F6E6E6563742068616E646C65206DBE
:1087B80069736D617463683A206576743D30782515
:1087C80078206374783D307825780A003D3D3E3E38
:1087D80020536B6970206C656761637920616476EA
:1087E8006572746973696E672072657374617274F7
:1087F8003A204D657368206F776E732061647665E3
:1088080072746973696E67002DE9F04399B046F296
:108818002030C2F200000921017040F2D851002432
:10882800C2F200010A5D1AB10134082CFAD10824F9
:1088380040F2D8510130C2F200012246FEF7AFFDE6
:1088480040F2A001601CC2F2000108700EF090FC1A
:10885800FF2821D004460FF22050214636F0F0FBC5
:10886800A52C13D10DF046F802F06CFF41F66642D4
:108878000FF25451C0F60402012888BF1146084679
:1088880037F0D8F800200DF047F805E00FF2105047
:1088980037F0D0F80DF02EF80EF07EFC044613F0F9
:1088A800D5FA40F29409C5F60009D9F80060804667
:1088B80030462DF0C9FC0DF0E7FCC6F30070C6F396
:1088C8004071C6F380758DE8230041F23E40C6F33F
:1088D8008062C6F3C063F70FC0F604003146039701
:1088E80036F0AEFBD9F8000041F6FC0140F4000078
:1088F800C9F8000041F6BD00C0F60400C0F6040146
:10890800012C08BF014641F24930C0F60400224656
:10891800434636F095FB2DF027FC04462DF01EFD4E
:1089280005462DF0F5FE034641F21D30C0F6040061
:1089380021462A4636F084FB4FF6E430C0F60300A1
:1089480090E88E00D0E904650DF1140ED0E906C454
:108958008EE88E00CDE9096500F12007D0E90C65A5
:10896800008F8ECFADF84C0040F22800C2F2030011
:1089780014904DF67910C0F600000DF1340E1590E4
:108988004DF69D108EE88E00C0F6000014A9CDE9C2
:108998000BC41196129535F0EBFC0220012134F03E
:1089A80077F84EF2E972C0F603020220002134F093
:1089B800A5F805A830F0A0FC48B1014641F29C702A
:1089C800C0F6040036F03CFB0DF088FB05E041F2F0
:1089D8008960C0F6040036F033FB0020CDE91400AE
:1089E800ADF84E000EF0B6FB14900EF0B3FB41F656
:1089F8003C40C0F60400159137F01CF835F056FEDF
:108A080038B1014641F2E900C0F6040036F018FB1F
:108A180005E041F69D20C0F6040037F00BF8BDF8DC
:108A2800540040F2A10400BA1499C2F20004000CE8
:108A3800208108BAC4F80A0014AA2E20062135F0AD
:108A4800C7F938B1014641F24A00C0F6040036F0D1
:108A5800F7FA19E041F69F10C0F6040036F0EAFF75
:108A6800DDE91470C0F30721C2B2C7F30740C7F3AA
:108A78000726CDE9000641F206503B0EFFB2C0F6CC
:108A88000400029736F0DCFA40F2E022C0F6040255
:108A98001820102135F09CF938B1014640F6F570E0
:108AA800C0F6040036F0CCFA05E041F65A10C0F6DC
:108AB800040036F0BFFF40F2D022C0F604020820BE
:108AC800102135F085F938B1014640F6A070C0F69E
:108AD800040036F0B5FA05E041F61510C0F60400BA
:108AE80036F0A8FF01201F2135F04AF938B10146B8
:108AF80041F2AB00C0F6040036F0A2FA05E041F6F8
:108B08006F20C0F6040036F095FF35F039F838B11B
:108B1800014641F24610C0F6040036F091FA05E02D
:108B280041F6DA20C0F6040036F084FF0DF15E0746
:108B380018AE0DF16203052000210722CDE9006778
:108B480034F0B8FC38B1014641F21610C0F6040002
:108B580036F076FA05E041F6BA20C0F6040036F0A1
:108B680069FFBDF86200BDF8601041F6B507C0F6B0
:108B7800040700220723009735F02AF8BDF86200A1
:108B8800BDF85E100DF14E0700220223009735F064
:108B98001FF800200221022235F0B4FC38B101464A
:108BA80041F20020C0F6040036F04AFA05E041F62A
:108BB8006430C0F6040036F03DFF40F2F025C2F202
:108BC80000050120287034F049FD38B1014641F212
:108BD8003A20C0F6040036F033FA05E041F68E304C
:108BE800C0F6040036F026FF40F20110C0F600007F
:108BF8004BF20721C5F801001020C0F20101002244
:108C080008236871A9600127CDE90030CDE9022168
:108C18000120012101220023049734F093FC38B18C
:108C2800014641F27710C0F6040036F009FA05E073
:108C380041F6FB20C0F6040036F0FCFEA87880B1AF
:108C480034F018FC38B1014641F2C110C0F60400F6
:108C580036F0F6F905E041F63530C0F6040036F096
:108C6800E9FE41F2CD60C0F6040036F0E9F941F6BC
:108C7800F010C0F6040036F0DDFE31F025F90020D2
:108C880085F880004FF6FF7048F60962E882C0F662
:108C980000020120002133F031FF2020A0710620BE
:108CA80035F048F838B1014641F21060C0F60400CA
:108CB80036F0C6F905E041F25460C0F6040036F01B
:108CC800BFF90CF03FFE0020002603F0FFFC2EF059
:108CD800BDFE4DF69962C0F603024FF480400021B4
:108CE80033F00CFF4DF69D64C0F603044FF40040CA
:108CF8000021224633F002FF05F183010020002203
:108D0800234612F037FC48F6D16305F18101C0F61D
:108D180000030020002212F02DFC4BF2F10305F1B4
:108D28008201C0F603030020002212F023FC40F267
:108D38009210C2F200000121017040F29010C2F2BC
:108D480000002E8301702DF0E3FC20B141F63320A2
:108D5800C0F604000AE0012000F0BAF895F8800097
:108D6800012805D041F6EE30C0F6040036F062FE68
:108D780019B0BDE8F08300BF3D3D3E3E204E46435E
:108D880020626F6F74206F70636F64652064657410
:108D980065637465643A203078253032780A0000BB
:108DA8003D3D3E3E204E464320626F6F74206F70FB
:108DB800636F646520756E6B6E6F776E2C20636CC5
:108DC800656172696E6700003D3D3E3E204E464338
:108DD80020626F6F74207265736375653A206D65E4
:108DE80073682070726F766973696F6E696E672039
:108DF80073746F72616765206572617365640000E2
:108E080010B540F2F024C2F2000494F8800005285E
:108E18000CD034F047FC002184F8801011A10AA27C
:108E2800002808BF1146084636F00AF92DF070FCF4
:108E380020B115A0BDE8104036F0FCBD0220BDE809
:108E4800104000F045B800BF2A2A2053544F502044
:108E58004144564552544953494E47202A2A202016
:108E68000D0A0D002A2A2053544F502041445645DC
:108E780052544953494E47202A2A20204661696C9A
:108E88006564200D0A0D00003D3D3E3E20536B6990
:108E980070206C6F772D706F7765722061647665CE
:108EA80072746973696E6720726573746172743A5B
:108EB800204D657368206F776E73206164766572E4
:108EC800746973696E6700000120042133F02ABFBA
:108ED8002DE9F04188B040F29211C2F20001044637
:108EE80040F290100D78C2F200000678002D40F292
:108EF800F02818BF8025002EC2F2000818BFA0264F
:108F0800012C18BF4FF4C86598F8810018BF4FF4BA
:108F18007A6612F065FD022C15D198F880000138A8
:108F2800012810D834F0BEFB38B1014640F6557020
:108F3800C0F6040036F084F805E041F64F00C0F6AC
:108F4800040036F077FD40F2A000C2F2000000787D
:108F580098F8181046F22033002708F11902C2F2D7
:108F68000003CDE90070CDE90231CDE904270020E6
:108F7800294632460123069734F020FBC0B1054646
:108F8800122801D00C2D2DD12DF0C2FB58B141F281
:108F9800D630C0F60400294636F052F888F88040EA
:108FA80008B0BDE8F08141F28330C0F604001DE04E
:108FB8001FA088F8804036F03DFD40F2A101C2F2C2
:108FC80000010E2034F010FCC8B10146012C12BF7C
:108FD80021A041F28E50C0F6040008B0BDE8F0416F
:108FE80036F02EB841F27720C0F60400294636F054
:108FF80027F8002088F8800008B0BDE8F081012C2F
:109008000DD123A036F01CF898F881004EF24601E5
:10901800C0F2010108B0BDE8F04112F001BC41F214
:10902800E350C0F6040008B0BDE8F04136F008B8D7
:109038003D3D3E3E206163695F6761705F736574A3
:109048005F646973636F76657261626C65202D2059
:1090580053756363657373003D3D3E3E20537461F1
:109068007274204C6F7720506F7765722041647658
:109078006572746973696E67204661696C656420FE
:109088002C20726573756C743A202564200A0D00D3
:109098003D3D3E3E20537563636573733A205374B8
:1090A80061727420466173742041647665727469D4
:1090B80073696E67200A0D0010B503F0F5FD0446CC
:1090C800062817D940F2FC1041F20001C2F2000054
:1090D800C1F2020141F2060241F20033C1F2070275
:1090E800C1F2013380E80E004FF6FF718181072C31
:1090F8000DD228E003F0D8FD024643F6E320C0F67F
:1091080004000721022335F09BFF072C1BD303F033
:10911800CBFD044606280CD940F254203021C2F277
:109128000000C0F201014FF6FF72C0E900120020F2
:1091380006E043F6A030C0F6040035F081FF0120B8
:10914800062C88BF10BD43F65B30C0F6040035F02E
:1091580077FF022010BD000010B546F25034C2F26D
:109168000004207820B103F01BFE0020207010BD01
:10917800002004F0CDFE0EF027FE0446002004F087
:10918800C7FE0028FAD00EF01FFE001BB0F57A7F4C
:1091980008D94AF6BC404F21C2F20000C0F2AD0126
:1091A800016010BD152838BF10BDBDE8104003F0A0
:1091B800F7BD000002207047002200200A80704797
:1091C8007047000080B5002004F092FE002080BDAA
:1091D80040F2C240C2F200000078704741F65D508C
:1091E800C2F200000121017041F66550C2F2000090
:1091F8000022027041F66A52C2F200020120117088
:1092080004F066BE80B541F65D50C2F20000002150
:10921800017041F66A50C2F200000170012004F0AA
:1092280047FE12F01DFED0B103F09EFD002818BFC6
:1092380080BD41F66450C2F20000017849B941F698
:109248005E51C2F2000101220978027004A035F0D3
:10925800F7FE40200021BDE8804033F063BD80BDAB
:1092680050726F766973696F6E696E672073657384
:1092780073696F6E20636F6D706C65746564202808
:10928800646973636F6E6E6563742C20636F6E66BA
:1092980069675F7365656E3D2575290D0A000000D5
:1092A8000020704770470000B0B540F25A04C2F27F
:1092B8000004257803F06AFC854209D942F2E020CF
:1092C800C0F6040036F0B6FBBDE8B04003F05EBC63
:1092D8002078002818BFB0BD02A036F0ABFB0120F3
:1092E800B0BD00BF4E756D626572204F6620456C3B
:1092F800656D656E7473206D7573742062652031B9
:10930800206F722067726561746572207468616E7F
:109318002031210D0000000001463020C0F202007B
:1093280008604FF4857200208A80704780B501205C
:109338001F2134F025FD002818BF0120400080BD02
:1093480001464EF67D40888041F6F850CAF64F60D7
:10935800086045F24B30C5F2A140C1F8060046F25C
:109368003830C2F20000828803680020CA81C1F840
:109378000A30704700207047014601A035F060BEF2
:10938800556E70726F766973696F6E6564204E6F83
:109398006465204964656E746966696572207265E2
:1093A8006365697665643A20253032780A0D0000D5
:1093B800B0B546F23835C2F20005E91D00202A464C
:1093C80034F078FC18B1014618A035F039FE0DF0DC
:1093D800C1FE020A28704FEA112C6A70020C000EB6
:1093E8002971691EAA70E870EF2006220B4685F8DD
:1093F80005C000BF13F8014F013A04EB4000F9D152
:109408000322EA71EF230622A87100BF11F8014F69
:10941800013A04EB4303F9D1C0B2D9B2081AB0FA41
:1094280080F040094CF0C0016971B0BD4661696CBB
:10943800656420746F2072656164205075626C6980
:109448006320416464726573732025640000000022
:1094580080B54DF2C922C0F601020420002133F084
:109468004DFB0420002133F05DFC4BF6B102C0F641
:1094780000024020002133F041FB40200021BDE8DC
:10948800804033F04FBC000080B543F66F00C0F653
:10949800040036F0CFFA43F2CC60C0F6040036F090
:1094A800C9FA43F25870C0F6040036F0C3FA43F222
:1094B8006A70C0F6040036F0BDFA43F24570C0F693
:1094C800040036F0B7FA43F21170C0F6040036F023
:1094D800B1FA43F23270C0F6040036F0ABFA43F248
:1094E8001E70C0F6040036F0A5FA43F2E360C0F639
:1094F800040036F09FFA03F031FB014643F2DC50DA
:10950800C0F6040035F09CFD03F01AFB014643F257
:10951800CB50C0F6040035F093FD03F037FB01464D
:1095280043F26150C0F6040035F08AFD03F0BCFB3D
:10953800014643F2ED50C0F6040035F081FD03F01A
:109548009BFB014643F27B50C0F6040035F078FDE2
:1095580003F094FB014643F24D50C0F6040035F089
:109568006FFD03F0FDFA014643F20860C0F60400FF
:1095780035F066FD03F06AFB014643F22F60C0F642
:10958800040035F05DFD43F2FD60C0F6040036F0DE
:1095980051FA43F29A50C0F604000021012235F036
:1095A8004FFD43F60C00C0F6040036F043FA43F2D0
:1095B8007C70C0F6040036F03DFA43F2B270C0F693
:1095C800040036F037FA43F29470C0F6040036F01F
:1095D80031FA43F2C970C0F6040036F02BFA43F6AC
:1095E8001C00C0F6040036F025FA43F2ED70C0F610
:1095F800040036F01FFA07A036F01CFA0CA001216F
:1096080035F01EFD17A036F015FA1EA0BDE8804003
:1096180036F010BA0A5B496D706F7274616E74200F
:10962800496E666F726D6174696F6E5D200D000022
:109638004E756D626572206F6620456C656D656E4E
:10964800747320656E61626C656420696E20417078
:10965800706C69636174696F6E3A202564200D0A25
:10966800000000004E65696768626F75722054617A
:10967800626C6520697320656E61626C6564200D9B
:10968800000000002A2A2A2A2A2A2A2A2A2A2A2ADA
:109698002A2A2A2A2A2A2A2A0D0A0D0080B54AF6D9
:1096A800D440C2F20000006804212FF041F840B114
:1096B800014642F2FC10C0F60400BDE8804035F0D7
:1096C800BFBC42F22E30C0F60400BDE8804036F040
:1096D800B1B9000000207047B0B542F64D25C0F67C
:1096E8000405284600211C4632F050FB42F6EB10D8
:1096F800C0F60400214635F0A3FC2846002132F0CC
:1097080045FB02A036F096F90020B0BD233832316F
:1097180030210D00B0B5B0F9000040F2941203EB0F
:109728004301C2F20002322822F8210040F2AC10B4
:109738001C46C2F200000CDB47F6F64101800168C6
:1097480042688368042013F033FA002004F0C0FB59
:1097580008E0016842688368022013F029FA0020B3
:1097680004F0A6FB42F2FC75C0F604052846002169
:1097780032F00CFB06A0214635F062FC2846002199
:1097880032F004FB11A036F055F90020B0BD00BF3F
:1097980047656E657269635F4C6576656C44656C98
:1097A80074615F5365742063616C6C6261636B20E4
:1097B800726563656976656420666F7220656C659D
:1097C8006D656E74202564200D0A00002338323040
:1097D80039210D00014640F29310C2F20000825C6C
:1097E80000200A7070470000014602EB420040F278
:1097F8009412C2F2000212F8203002EB80000B70C3
:1098080042784A7082788A70C2780020CA7070479D
:10981800014602EB820040F2A012C2F20002125C82
:1098280000200A707047000002EB820140F2A0128B
:10983800C2F200020A4453780146037090784870D7
:10984800D078887012790020CA707047014640F2BB
:10985800A610C2F2000010F8122000200A7070470B
:10986800B0B5B0F900101C4603EB430240F2941364
:1098780040F2A81CC2F2000321EAE170C2F2000C17
:1098880023F8220040F64212BCF80030C2F200026F
:10989800108098424FF0000347F6F54298BF012325
:1098A80091424FF00002C8BF012200251A43002947
:1098B800C8BF012505EA020140F64012C2F20002C3
:1098C800117047F6FF710022ACF800002FF084FBFE
:1098D80040F2AC13C2F20003188019685A689B68FA
:1098E800042013F065F942F66005C0F60405284621
:1098F800002132F04BFA42F2BB70C0F60400214658
:1099080035F09EFB2846002132F040FA04A021469B
:1099180035F096FB022021462EF070F80020B0BDED
:10992800233832303621666F7220656C656D656E3E
:1099380074496E646578202564200D0A00000000D3
:1099480000207047B0B540F2941C1C46016842687C
:10995800806803EB4303C2F2000C0CEB8305A8609C
:109968006A6042F61405C0F604054CF82310284630
:10997800002132F00BFA06A0214635F061FB28469B
:10998800002132F003FA11A036F054F80020B0BDDF
:1099980047656E657269635F4C6576656C4D6F7679
:1099A800655F5365742063616C6C6261636B2072E0
:1099B8006563656976656420666F7220656C656DA0
:1099C800656E74202564200D0A00000023383230AB
:1099D8004221200D0000000070B51C46002B47D125
:1099E800027840F2A016B0F8013001F0FE05C2F28C
:1099F8000006022D3270A6F8013015D140F2AC15E0
:109A0800C2F200052B8029686A68AB680546042005
:109A180013F0CEF8B5F80310B6F80100A6F8031055
:109A2800884225D108BB0FE0012908BF012A0FD0C1
:109A380040F2AC10C2F200000121018001684268C6
:109A48008368022013F0B4F8002004F031FA0FE024
:109A580040F2AC10C2F2000047F6F64101800168FE
:109A680042688368042013F0A3F8002004F030FA59
:109A780042F62B05C0F604052846002132F086F987
:109A880042F23470C0F60400214635F0D9FA28466F
:109A9800002132F07BF905A0214635F0D1FA0120EA
:109AA80021462DF0ABFF002070BD00BF23383230B7
:109AB8003221666F7220656C656D656E74496E64DF
:109AC8006578202564200D0A000000002DE9F04F7C
:109AD80081B042F67827C0F604070C46804638461F
:109AE80000211E4632F052F91CA0314635F0A8FA82
:109AF8003846002132F04AF927A035F09BFF44B3DD
:109B080042F6782608F1020B08F1010A0025C0F692
:109B180004060EE0D94629A73046002132F036F96E
:109B280099F80010384635F08BFA0135E8B28442CE
:109B38000FD9E8B250B10228ECD00128F5D142F68D
:109B48003427D146C0F60407E6E700BFC14614A78C
:109B5800E2E7002001B0BDE8F08F00BF47656E6501
:109B68007269635F4F6E4F66665F53746174757395
:109B78002063616C6C6261636B20726563656976F2
:109B8800656420666F7220656C656D656E7420254E
:109B980064200D0A000000002338323034210D0003
:109BA80050726573656E74204F6E4F6666207661DD
:109BB8006C75653A2025640A0D00000052656D61D8
:109BC800696E696E672054696D652076616C75658C
:109BD8003A2025640A0D000070B5007840F2A616F8
:109BE80042F64305C2F20006C0F6040526F8130043
:109BF800284600211C4632F0C9F80EA0214635F04F
:109C08001FFA2846002132F0C1F842F27570C0F6FA
:109C18000400214635F014FA36F81400012805D15D
:109C280045F27820C2F2000001210170FFF7C8FA5E
:109C3800002070BD23383231332120666F722065D1
:109C48006C656D656E74496E646578202564200DB9
:109C58000A0000002DE9F04142F69327C0F60407F8
:109C68000C460546384600211E4632F08FF812A0F1
:109C7800314635F0E5F93846002132F087F81EA064
:109C880035F0D8FEACB142F693280026C0F6040899
:109C98001BA703E00136F0B284420AD93006F9D195
:109CA8004046002132F072F82978384635F0C8F974
:109CB800F0E70020BDE8F08147656E657269635F73
:109CC800506F7765724F6E4F66665F537461747537
:109CD800732063616C6C6261636B20726563656994
:109CE80076656420666F7220656C656D656E74209C
:109CF8002564200D0A0000002338323132210D007E
:109D08004F6E20506F7765722075702076616C7584
:109D1800653A2025640A0D0070B50188428804461A
:109D280018A035F08DF9617B42F62D70C0F604005D
:109D380035F086F9607B002808BF01F01FFD607BC5
:109D4800002818BF70BD1FA035F07AF9207B88B1B4
:109D580043F23B450026C0F6040500BFA068017821
:109D6800284635F06DF9A068217B013601308E4216
:109D7800A060F3D343F63200C0F60400BDE870409B
:109D880035F058BE4170704B65792041646420728B
:109D98006563656976656420666F72206E65744BCD
:109DA8006579496E64657820252E32782C2061709B
:109DB800704B6579496E64657820252E3278200DC0
:109DC8000A0000004170704B65792069733A2000E1
:109DD80010B582B00446007A002808BF01F0CEFC16
:109DE800217862686388247A43F2A020C0F60400D0
:109DF800009435F025F902B010BD000010B50446F6
:109E08000188428843F2B230C0F6040035F018F9F0
:109E1800617B42F62D70C0F6040035F011F9607BC5
:109E2800002818BF10BDBDE8104001F0A7BC000015
:109E380070B50188044619A035F002F9A17A42F6F6
:109E48002D70C0F6040035F0FBF8A07A002808BF92
:109E580001F094FCA07A002818BF70BD19A035F055
:109E6800E9FD208988B143F23B450026C0F6040588
:109E780060680188284635F0E3F860680136218972
:109E8800F2B2023091426060F2D843F63200C0F676
:109E98000400BDE8704035F0CDBD00BF41707020B2
:109EA8004B6579204C69737420666F72206E6574F7
:109EB8004B6579496E64657820252E327820697360
:109EC800200D0A004170704B657920496E646578F1
:109ED8006573206172653A200D00000010B582B0EC
:109EE8000446007A002808BF01F048FC217862681F
:109EF8006388247A43F20730C0F60400009435F0F2
:109F08009FF802B010BD000070B504460188428871
:109F180043F27030C0F6040035F092F8617B42F6E7
:109F28002D70C0F6040035F08BF8607B002808BF60
:109F380001F024FC607B002818BF70BD10A035F02C
:109F48007FF8207B80B143F23B450026C0F604052C
:109F5800A0680178284635F073F8A068217B01369F
:109F680001308E42A060F3D343F63200C0F60400FD
:109F780035F060FD07A0BDE8704035F05BBD00BF5F
:109F880055706461746564204170704B657920690F
:109F9800733A200049742077696C6C2062652072DE
:109FA80065706C61636564206279206F6C64206100
:109FB80070704B6579206166746572204B657920F5
:109FC80052656672657368200D00000070B50188DF
:109FD800044618A035F034F8617B42F62D70C0F6BF
:109FE800040035F02DF8607B002808BF01F0C6FB9F
:109FF800607B002818BF70BD1AA035F021F8207BBF
:10A0080080B143F23B450026C0F60405606801783C
:10A01800284635F015F86068217B013601308E42FC
:10A028006060F3D343F63200C0F60400BDE8704028
:10A0380035F000BD4E6574204B657920416464207D
:10A04800726563656976656420666F72206E6574F3
:10A058004B6579496E64657820252E3278200D0A83
:10A06800000000004E65744B65792069733A200042
:10A0780010B50188044609A034F0E2FF617B42F67E
:10A088002D70C0F6040034F0DBFF607B002818BF99
:10A0980010BDBDE8104001F071BB00BF4E657420D3
:10A0A8004B65792044656C657465207265636569E4
:10A0B80076656420666F72206E65744B6579496EAB
:10A0C800646578202564200D0A00000070B50446F8
:10A0D800817942F62D70C0F6040034F0B1FFA07902
:10A0E800002808BF01F04AFB0FA035F0A3FCA088A8
:10A0F80088B143F23B450026C0F604052068018874
:10A10800284634F09DFF20680136A188F2B202305B
:10A1180091422060F2D843F63200C0F60400BDE850
:10A12800704035F087BC00BF4E65744B6579204997
:10A138006E6465786573206172653A200D000000D1
:10A1480070B5018804461AA034F07AFF617B42F6A4
:10A158002D70C0F6040034F073FF607B002808BF40
:10A1680001F00CFB607B002818BF70BD1CA034F008
:10A1780067FF207B80B143F23B450026C0F604050B
:10A1880060680178284634F05BFF6068217B0136FF
:10A1980001308E426060F3D343F63200C0F604000B
:10A1A80035F048FC13A0BDE8704035F043BC00BF53
:10A1B8004E6574204B657920557064617465207212
:10A1C8006563656976656420666F72206E65744B99
:10A1D8006579496E646578202564200D0A000000C1
:10A1E80055706461746564204E65744B65792069A7
:10A1F800733A000049742077696C6C20626520729C
:10A2080065706C61636564206279206F6C64206E90
:10A2180065744B6579206166746572204B65792099
:10A2280052656672657368200D000000B0B586B08F
:10A238000446417C42F62D70C0F6040034F000FF5D
:10A24800607C002808BF01F099FA6089217B227898
:10A25800636894F80EC094F80FE0257C647B8DE861
:10A26800015042F64170C0F604000395049434F09E
:10A27800E7FE06B0B0BD000010B50446416802789C
:10A2880043F25C20C0F6040034F0DAFE6168B1F5F0
:10A29800885F18BF10BD2046BDE810402FF0C0BF32
:10A2A80010B50446817A42F62D70C0F6040034F0E9
:10A2B800C7FEA07A002808BF01F060FA94F80BC026
:10A2C80043F2420021786268238943F29C04C0F675
:10A2D8000400C0F60404BCF1000F08BF2046BDE826
:10A2E800104034F0ADBE000010B50446817A42F645
:10A2F8002D70C0F6040034F0A3FEA07A002808BF31
:10A3080001F03CFAE07A50B121786268238943F27F
:10A31800EE00C0F60400BDE8104034F091BE207B8A
:10A328002178626838B143F2F430C0F60400BDE821
:10A33800104034F085BE238943F24F10C0F6040064
:10A34800BDE8104034F07CBE10B50446817A42F670
:10A358002D70C0F6040034F073FEA07A002808BF00
:10A3680001F00CFA94F80BC043F2A410217862684B
:10A37800238943F20424C0F60400C0F60404BCF1A7
:10A38800000F08BF2046BDE8104034F059BE000059
:10A3980045F60071C2F200010A6802700A68120AE2
:10A3A80042704A888270CA78C2700020086070477C
:10A3B80010B54CF66152C0F603020820002132F0B5
:10A3C8009DFB47F2B414C2F200044CF66953C0F680
:10A3D800030300202146002211F0CCF820784CF22B
:10A3E8005821C0F2120111F01BFA30F0EDFB49F2CE
:10A3F8006112C0F6000280200021BDE8104032F052
:10A408007DBB0000B0B540F2AA14C2F200040120DE
:10A4180020700020002503F05BFD4FF4FA700DF06A
:10A42800D7F90020257003F043FD4FF4FA700DF0C2
:10A43800CFF90020B0BD000040F2AA10C2F200001F
:10A44800007810B1002003F043BD002003F030BDB8
:10A45800002070472DE9F04F81B042F6ED67C0F655
:10A4680004070C460546384600211E4631F08EFC8E
:10A4780024A0314634F0E4FD3846002131F086FC52
:10A488002FA035F0D7FA002C38D042F6ED6B42F603
:10A498003D580027C0F6040BC0F604080FF2C009A7
:10A4A8000FF2A40A002605E00A4634F0C9FD013679
:10A4B800B44223D0052EFAD8DFE806F00C030C17B7
:10A4C8000C0E5846002131F061FC687847EA0021FB
:10A4D8004046E9E7AF5DEAE75846002131F056FC0F
:10A4E800687947EA00215046DEE75846002131F0F6
:10A4F8004DFCE87847EA00214846D5E7002001B03E
:10A50800BDE8F08F4C696768745F43746C5F44659D
:10A518006661756C745374617475732063616C6CD7
:10A528006261636B20726563656976656420666F36
:10A538007220656C656D656E74202564200D0A00B7
:10A548002338323638210D0044656C746120555625
:10A558003A203078257820282564290A0D00000043
:10A5680054656D70657261747572653A203078252E
:10A578007820282564290A0D000000000020704773
:10A588002DE9F04F81B042F67757C0F604070C4624
:10A598000546384600211E4631F0F8FB42F6B32046
:10A5A800C0F60400314634F04BFD3846002131F046
:10A5B800EDFB23A035F03EFA002C3DD042F6775B48
:10A5C80042F6E13A42F6D64842F65F490027C0F61D
:10A5D800040BC0F6040AC0F60408C0F604090026F5
:10A5E80004E000BFAF5D0136B44225D086B126F045
:10A5F80002000128F6D0042E11D0022EF3D15846BD
:10A60800002131F0C3FBA87847EA002148460FE053
:10A618005846002131F0BAFB2978504608E05846E0
:10A62800002131F0B3FB287947EA0021404600BFFA
:10A638000A4634F005FDD6E7002001B0BDE8F08FEA
:10A648002338323633210D00002070472DE9F04FB2
:10A6580081B042F6DE57C0F604070C460546384678
:10A6680000211E4631F092FB34A0314634F0E8FC5C
:10A678003846002131F08AFB40A035F0DBF9002C88
:10A6880057D042F6DE5642F6164A42F6FA374FF0EF
:10A698000008C0F60406C0F6040A0FF2E80BC0F67C
:10A6A80004074FF0000906E00A4634F0C9FC09F136
:10A6B80001094C453DD0B9F1080FF8D8DFE809F099
:10A6C8000E2D0E110E1D0E0526003046002131F00C
:10A6D8005DFBE87948EA00215846E5E715F8098066
:10A6E800E5E73046002131F051FBE87848EA0021DF
:10A6F80042F6BF30C0F60400D6E73046002131F0FC
:10A7080045FB687948EA00215046CDE730460021EC
:10A7180031F03CFB297A3846C6E73046002131F053
:10A7280035FB687848EA002142F63A40C0F6040052
:10A73800BAE7002001B0BDE8F08F00BF4C69676838
:10A74800745F43746C54656D70657261747572657D
:10A758005F5374617475732063616C6C6261636BC1
:10A7680020726563656976656420666F7220656C22
:10A77800656D656E74202564200D0A002338323615
:10A7880036210D005461726765742043544C20448F
:10A79800656C74612055563A203078257820282534
:10A7A80064290D0A00000000002070472DE9F04FD1
:10A7B80081B042F63167C0F604070C4605463846B4
:10A7C80000211E4631F0E2FA33A0314634F038FC5D
:10A7D8003846002131F0DAFA3DA035F02BF9002C8B
:10A7E80055D042F6316642F6164B4FF00008C0F6D7
:10A7F80004060FF2001AC0F6040B37A74FF0000941
:10A8080007E000BF0A4634F01BFC09F101094C457A
:10A818003DD0B9F1080FF8D8DFE809F00E2D0E1178
:10A828000E1D0E0526003046002131F0AFFAE879FA
:10A8380048EA00215846E5E715F80980E5E730467B
:10A84800002131F0A3FAE87848EA002142F63A40BC
:10A85800C0F60400D6E73046002131F097FA68794F
:10A8680048EA00215046CDE73046002131F08EFA03
:10A87800297A3846C6E73046002131F087FA6878E9
:10A8880048EA002142F67640C0F60400BAE7002004
:10A8980001B0BDE8F08F00BF4C696768745F43740E
:10A8A8006C5F5374617475732063616C6C6261636F
:10A8B8006B20726563656976656420666F722065D2
:10A8C8006C656D656E74202564200D0A000000001B
:10A8D8002338323630210D0052656D61696E696E1C
:10A8E800672054696D653A307825782028256429D1
:10A8F8000D0A00005461726765742043544C204C63
:10A90800696768746E6573733A20307825782028F3
:10A918002564290D0A0000000020704700207047B8
:10A9280000207047002070470020704700207047C3
:10A9380000207047002070470020704700207047B3
:10A94800002070470020704740F21001C2F2000159
:10A958000B2312FB0312137901460370527900206E
:10A968004A70704740F21001C2F200010B2312FB3B
:10A978000312937801460370D27800204A7070471A
:10A98800014640F25C20C2F2000010F8123000EBE1
:10A9980042000B7040780B23487040F21000C2F25E
:10A9A800000012FB030082788A70C2780020CA7007
:10A9B8007047000040F21001C2F200010B2312FBA5
:10A9C8000312937901460370D0794870107A887021
:10A9D800507AC870927A00200A71704740F2100CC1
:10A9E8000B230146C2F2000C02FB03F01CF8000026
:10A9F80012FB03C208705078487090788870D2783B
:10AA08000020CA7070470000002070472DE9F04F01
:10AA180081B042F6CF67C0F604070C4605463846B3
:10AA280000211E4631F0B2F924A0314634F008FB6B
:10AA38003846002131F0AAF92FA034F0FBFF002C92
:10AA480038D042F6CF6B42F63D580027C0F6040BCB
:10AA5800C0F604080FF2C0090FF2A40A002605E0A8
:10AA68000A4634F0EDFA0136B44223D0052EFAD85E
:10AA7800DFE806F00C030C170C0E5846002131F0E5
:10AA880085F9687847EA00214046E9E7AF5DEAE7DB
:10AA98005846002131F07AF9687947EA0021504692
:10AAA800DEE75846002131F071F9E87847EA0021DD
:10AAB8004846D5E7002001B0BDE8F08F4C696768CB
:10AAC800745F48736C44656661756C745F53746138
:10AAD8007475732063616C6C6261636B207265636B
:10AAE800656976656420666F7220656C656D656E54
:10AAF80074202564200D0A002338323743210D00C5
:10AB080053617475726174696F6E3A203078257874
:10AB180020282564290A0D004875653A20307825D3
:10AB28007820282564290A0D0000000000207047BD
:10AB38002DE9F04F81B042F60067C0F604070C46D5
:10AB48000546384600211E4631F020F928A0314636
:10AB580034F076FA3846002131F018F932A034F092
:10AB680069FF002C3FD042F6006B00276FF0020609
:10AB7800C0F6040B0FF2B8090FF2CC0A4FF0000828
:10AB880006E000BF15F8087008F1010844452AD00E
:10AB980018EA060FF6D0B8F1040F17D0B8F1030F72
:10ABA8000BD0B8F1010FEFD15846002131F0EEF883
:10ABB800687847EA0021504611E05846002131F0F4
:10ABC800E5F8E87847EA0021484608E058460021B9
:10ABD80031F0DCF8297942F60650C0F604000A463E
:10ABE80034F02EFAD0E7002001B0BDE8F08F00BFA6
:10ABF8004C696768745F48736C4875655F53746126
:10AC08007475732063616C6C6261636B2072656339
:10AC1800656976656420666F7220656C656D656E22
:10AC280074202564200D0A002338323731210D00A5
:10AC3800546172676574204875653A2030782578C4
:10AC480020282564290A0D0050726573656E7420EA
:10AC58004875653A203078257820282564290A0D1A
:10AC680000000000002070472DE9F04F81B042F647
:10AC7800C257C0F604070C460546384600211E4652
:10AC880031F084F833A0314634F0DAF9384600213F
:10AC980031F07CF83EA034F0CDFE002C55D042F6C1
:10ACA800C25642F6545A4FF00008C0F60406C0F6E1
:10ACB800040A0FF2081B38A74FF0000907E000BF8D
:10ACC8000A4634F0BDF909F101094C453DD0B9F106
:10ACD800080FF8D8DFE809F02F0E110E1D0E050E2B
:10ACE80026003046002131F051F8A87948EA0021C1
:10ACF8005846E5E715F80980E5E73046002131F0C8
:10AD080045F8A87848EA002142F62250C0F6040027
:10AD1800D6E73046002131F039F8287948EA002191
:10AD28005046CDE73046002131F030F8287A48EA1D
:10AD380000213846C4E73046002131F027F8297849
:10AD480042F6ED40C0F60400BAE7002001B0BDE8C5
:10AD5800F08F00BF4C696768745F48736C52616E0E
:10AD680067655F5374617475732063616C6C6261AD
:10AD7800636B20726563656976656420666F72200F
:10AD8800656C656D656E74202564200D0A000000F1
:10AD98002338323745210D00536174757261746927
:10ADA8006F6E2052616E6765204D61783A20307869
:10ADB800257820282564290A0D0000005361747540
:10ADC800726174696F6E2052616E6765204D696E9D
:10ADD8003A203078257820282564290A0D000000BB
:10ADE800002070472DE9F04F81B042F64867C0F661
:10ADF80004070C460546384600211E4630F0C6FFBB
:10AE080028A0314634F01CF93846002130F0BEFF46
:10AE180034A034F00FFE002C3FD042F6486B0027D8
:10AE28006FF00206C0F6040B0FF2C0090FF2DC0A3D
:10AE38004FF0000806E000BF15F8087008F1010897
:10AE480044452AD018EA060FF6D0B8F1040F17D0F7
:10AE5800B8F1030F0BD0B8F1010FEFD1584600211C
:10AE680030F094FF687847EA0021504611E05846D0
:10AE7800002130F08BFFE87847EA0021484608E0D7
:10AE88005846002130F082FF297942F60650C0F674
:10AE980004000A4634F0D4F8D0E7002001B0BDE839
:10AEA800F08F00BF4C696768745F48736C536174B6
:10AEB80075726174696F6E5F537461747573206322
:10AEC800616C6C6261636B20726563656976656449
:10AED80020666F7220656C656D656E742025642030
:10AEE8000D0A00002338323735210D00546172678E
:10AEF80065742053617475726174696F6E3A20309D
:10AF080078257820282564290A0D00005072657379
:10AF1800656E742053617475726174696F6E3A203E
:10AF28003078257820282564290A0D0000207047EC
:10AF38002DE9F04F81B042F61A67C0F604070C46B7
:10AF48000546384600211E4630F020FF2AA031462B
:10AF580034F076F83846002130F018FF34A034F089
:10AF680069FD002C44D042F61A6642F6065B0027BB
:10AF7800C0F604060FF2DC090FF2BC0AC0F6040B97
:10AF88004FF0000806E00A4634F05AF808F10108C4
:10AF980044452DD0B8F1060FF8D8DFE808F00D04C5
:10AFA8000D200D1019003046002130F0EFFE6878B2
:10AFB80047EA00212DA0E6E715F80870E6E73046D5
:10AFC800002130F0E3FE687947EA00215046DAE7CD
:10AFD8003046002130F0DAFEA9795846D3E73046EA
:10AFE800002130F0D3FEE87847EA00214846CAE756
:10AFF800002001B0BDE8F08F4C696768745F487342
:10B008006C5F5374617475732063616C6C62616307
:10B018006B20726563656976656420666F7220656A
:10B028006C656D656E74202564200D0A00000000B3
:10B038002338323738210D0048534C20536174753A
:10B04800726174696F6E3A203078257820282564FB
:10B05800290A0D0048534C204875653A2030782558
:10B068007820282564290A0D0000000048534C2048
:10B078004C696768746E6573733A20307825782058
:10B08800282564290A0D0000B0B5054600881C462D
:10B0980000284FF0000002D002F01AFF01E002F091
:10B0A80007FF40F210012888C2F200010B2242F685
:10B0B800AA1514FB0211C0F6040588802846002151
:10B0C80030F064FE09A034F0B5FC2846002130F0C9
:10B0D8005DFE42F60410C0F60400214633F0B0FFCE
:10B0E800032021462CF08AFC0020B0BD23383235DD
:10B0F8003921200D000000002DE9F04381B042F60F
:10B10800AA67C0F604070C460546384600211E46C5
:10B1180030F03CFE42F67C30C0F60400314633F095
:10B128008FFF3846002130F031FE42F66F50C0F6EE
:10B13800040034F07FFCECB142F6AA680026C0F6A1
:10B1480004080FF2380900270EE000BF404600212E
:10B1580030F01CFE687846EA002148460A4633F07B
:10B168006FFF0137BC4205D0012FEFD0002FF8D177
:10B178002E78F6E7002001B0BDE8F0834C696768D7
:10B18800746E6573732044656661756C743A20301B
:10B1980078257820282564290D0A0000B0B540F2EA
:10B1A8001002B0F80700C2F200020B2342F6CC14DA
:10B1B80011FB0325C0F6040468802046002130F006
:10B1C800E5FD06A033F03CFF2046002130F0DEFD0F
:10B1D800698805A033F034FF0020B0BD233832352C
:10B1E80039210A0D000000004170706C695F4C69DC
:10B1F8006768745F4C696768746E6573735F4C61E8
:10B2080073745F536574204C69676874204C61736C
:10B21800742056616C7565203078252E3278200DA3
:10B228000A0000002DE9F04381B042F60B77C0F622
:10B2380004070C460546384600211E4630F0A6FD98
:10B2480017A0314633F0FCFE3846002130F09EFD51
:10B2580042F66F50C0F6040034F0ECFBE4B142F65D
:10B268000B780026C0F604080FF2740900270DE0D9
:10B278004046002130F08AFD687846EA00214846B9
:10B288000A4633F0DDFE0137BC4205D0012FEFD06E
:10B29800002FF8D12E78F6E7002001B0BDE8F08342
:10B2A8004C696768745F4C696768746E6573735F2F
:10B2B8004C6173745F5374617475732063616C6C53
:10B2C8006261636B20726563656976656420666F89
:10B2D8007220656C656D656E74202564200D0A000A
:10B2E8004C696768746E657373204C6173743A2097
:10B2F8003078257820282564290D0A00B0B54088C3
:10B3080040F25C2142F66F15C2F20001C0F6040556
:10B3180021F81300284600211C4630F037FD42F67C
:10B32800C100C0F60400214633F08AFE28460021F9
:10B3380030F02CFD02A033F083FE0020B0BD00BF2A
:10B348002338323530210A0D000000002DE9F04F76
:10B3580081B042F66967C0F604070C4605463846D0
:10B3680000211E4630F012FD42F63A30C0F60400C5
:10B37800314633F065FE3846002130F007FD26A03F
:10B3880034F058FB002C42D042F6696B42F69949DA
:10B3980042F6B74A00276FF00206C0F6040BC0F663
:10B3A8000409C0F6040A4FF0000805E015F8087013
:10B3B80008F1010844452AD018EA060FF6D0B8F17A
:10B3C800040F17D0B8F1030F0BD0B8F1010FEFD16C
:10B3D8005846002130F0DAFC687847EA00215046E8
:10B3E80011E05846002130F0D1FCE87847EA002106
:10B3F800484608E05846002130F0C8FC297942F652
:10B40800FA30C0F604000A4633F01AFED0E70020EE
:10B4180001B0BDE8F08F00BF2338323532210D006E
:10B42800B0B540F210021C460178C2F200020B23AC
:10B4380014FB03229171D0F8010042F64F15C0F6B3
:10B448000405C2F807002846002130F09FFC08A038
:10B4580033F0F6FD2846002130F098FC42F67800DB
:10B46800C0F60400214633F0EBFD0020B0BD00BF5C
:10B47800233832354221200A0D0000002DE9F04F13
:10B4880081B042F69F57C0F604070C460546384679
:10B4980000211E4630F07AFC42F6F920C0F604007E
:10B4A800314633F0CDFD3846002130F06FFC23A043
:10B4B80034F0C0FA002C3DD042F69F5B42F6E13AE8
:10B4C80042F6D64842F65F490027C0F6040BC0F69C
:10B4D800040AC0F60408C0F60409002604E000BF08
:10B4E800AF5D0136B44225D086B126F002000128AE
:10B4F800F6D0042E11D0022EF3D15846002130F098
:10B5080045FCA87847EA002148460FE05846002144
:10B5180030F03CFC2978504608E05846002130F0CD
:10B5280035FC287947EA0021404600BF0A4633F037
:10B5380087FDD6E7002001B0BDE8F08F233832350B
:10B5480038210D00F0B581B042F69016C0F6040619
:10B558000546304600211C46002730F017FC27A07E
:10B5680033F06EFD3046002130F010FC2A88B5F823
:10B57800073025A0214633F063FD40F210012888EA
:10B58800C2F200010B2214FB02136243885240F6F8
:10B59800421240F2B816B5F80710C2F20002C2F221
:10B5A8000006002818BF0146128835885980AA422B
:10B5B8004FF0000147F6F54398BF01219A4288BF32
:10B5C80001273943002A328018BF0122114040F672
:10B5D8004012C2F2000211704FF6FF7100222DF0E6
:10B5E800FBFC40F2AC11C2F20001088003202146A6
:10B5F8002CF004FA002001B0F0BD00BF233832342B
:10B6080043210A0D00000000456C656D656E7420CD
:10B61800696E6465782025642070726573656E7440
:10B62800203078252E3278206C617374203078258C
:10B638002E32780D0A0000002DE9F04F81B042F655
:10B648008D67C0F604070C460546384600211E469D
:10B6580030F09CFB2AA0314633F0F2FC384600213A
:10B6680030F094FB35A034F0E5F9002C43D042F6D5
:10B678008D6B42F6994942F6B74A00276FF00206E9
:10B68800C0F6040BC0F60409C0F6040A4FF000081F
:10B6980006E000BF15F8087008F1010844452AD0F3
:10B6A80018EA060FF6D0B8F1040F17D0B8F1030F57
:10B6B8000BD0B8F1010FEFD15846002130F066FBEE
:10B6C800687847EA0021504611E05846002130F0DA
:10B6D8005DFBE87847EA0021484608E05846002123
:10B6E80030F054FB297942F6FA30C0F604000A46D5
:10B6F80033F0A6FCD0E7002001B0BDE8F08F00BF12
:10B708004C696768745F4C696768746E6573735FCA
:10B718005374617475732063616C6C6261636B2030
:10B72800726563656976656420666F7220656C650D
:10B738006D656E74202564200D0A000023383234AC
:10B7480045210D0010B54AF6D440C2F20000006849
:10B7580004212CF0EDFF044640B142F2FC10C0F683
:10B768000400214633F06CFC204610BD42F22E3016
:10B77800C0F6040034F05EF9204610BD80B510F024
:10B788006FFB50B101F0F0FA002818BF80BD41F6F8
:10B798005E50C2F200000121017080BD80B510F03A
:10B7A8005FFB18B310F062FB00B341F66550C2F2BC
:10B7B80000000178002918BF80BD012101700BF03D
:10B7C800EBFC012802D003200AF0A6F80AA034F006
:10B7D80031F9002000212AF015FE40B942F28030EC
:10B7E800C0F60400BDE8804034F024B980BD642070
:10B7F8000BF0EEFF31F0F4FD50726F766973696FEC
:10B808006E696E672073657373696F6E2074696DF6
:10B81800656F75743A2072657475726E20746F2046
:10B828006C656761637920474154540D000000003E
:10B8380081B08DF803004AF6C040C2F200000068EB
:10B84800406801B070470000B0B583B094468E469A
:10B85800044609980899079A02948DF807E08DF82C
:10B8680006C0ADF80430ADF802208DF801108DF84F
:10B87800000002990120087002990020487002997E
:10B8880088700299C8700299087103B0B0BD0000B1
:10B8980081B08DF803004AF6C040C2F2000000688B
:10B8A800006901B070470000B0B541F66455C2F2B6
:10B8B8000005287801282BD12CF0E6FF4AF699419B
:10B8C800C2F20001097802460843C4B29CB90020BC
:10B8D800287010F0C5FAB0B101202FF0E7FB022064
:10B8E80000212AF08FFDD8B942F23A30C0F60400A0
:10B8F80034F0A0F807E0C9B20DA033F0A1FB402056
:10B90800002131F00FFAB4FA84F0400908BFB0BD45
:10B91800FFF744FF40200021BDE8B04031F002BAF3
:10B9280012A034F087F8FA200BF052FF31F058FDDE
:10B9380050726F766973696F6E696E6720636F6D99
:10B948006D69742077616974696E6720666F72200B
:10B958004D657368204E564D206F703D25752072D9
:10B968006573756C743D25640D0A000050726F761E
:10B978006973696F6E696E6720636F6D6D69747442
:10B9880065643A207265626F6F7420746F204D652C
:10B998007368206F7065726174696F6E616C0D00F9
:10B9A80041F66A50C2F200000078002818BF7047BC
:10B9B80080B501F0ADFD0A200BF00AFFFDF76EFE21
:10B9C800002009F0A9FF42F2B720C0F6040034F0C5
:10B9D80031F801F0C5FB31F003FD000080B582B0FD
:10B9E8008DF807004AF6C840C2F2000000680169F5
:10B9F8009DF80700884702B080BD00002DE9F04F90
:10BA08008FB0834600284FF0030000F013810D46E5
:10BA1800002900F00F8140F290389BF800A045F211
:10BA28003C29C2F200080120C2F20009A8F800006F
:10BA38008FA0002189F800A0002730F0A7F99BF813
:10BA4800001091A02A4633F0FBFA94A6002400BF08
:10BA58001BF80710304633F0F3FA0134A7B2BD42A1
:10BA6800F6D841F2CF70C0F6040033F0E9FAAAF133
:10BA7800010127294FF0010000F2DC80DFE811F016
:10BA88002800DA00DA00DA00DA00DA00DA00DA0090
:10BA9800DA00DA00DA00DA00DA00DA00DA0099000F
:10BAA80093009000DA00DA00DA00DA00DA00DA004F
:10BAB800DA00DA00DA00DA00DA00DA00DA00470041
:10BAC8006D00A800B300D200BA0036007A00590011
:10BAD8003C2D00F2B78045F23C20C2F200005946E6
:10BAE8002A46FBF72AFCA8F80050A2E00BF07CFBE2
:10BAF8000446FBF760FCC5B2102D28BF102509F1DC
:10BB0800010021462A46FBF718FC681C8FE0022D2D
:10BB1800C0F098809BF8010069468DF800004AF64D
:10BB2800B800C2F2000001224FF47A730EF084FCD0
:10BB38007FE0012D40F0868068462AF01DFB012039
:10BB480089F80100BDF80000DDF80210029AA9F892
:10BB580002000C20C9E9011269E0032D72D39BF899
:10BB6800010004287CD003286CD19BF802002FF038
:10BB780017FA5EE0052D60D1DBF8011003202AF0EA
:10BB880041FC002862D0002089F80100DBF80100A0
:10BB9800C9F802000620A8F800002AF063FD48E072
:10BBA8000BF0A2FA40E068463B210BF0BBFA30B933
:10BBB80052E068463B210BF09DFA00284CD0044621
:10BBC80009F1010069462246FBF7B7FB601C2EE02D
:10BBD800022D37D39BF80100042846D0032831D121
:10BBE8000BF0F6FA20E0022D2CD39BF801002FF081
:10BBF8006FF91EE0A5F1120010F1100F22D3681E94
:10BC080000216C468DF81010CDE90211CDE9001124
:10BC18000BF10101C2B22046FBF78FFB20462FF043
:10BC2800FFF906E00BF09EFA89F801000220A8F857
:10BC3800000000200FB0BDE8F08F89F80100022055
:10BC4800A8F8000003200FB0BDE8F08F042089F8A1
:10BC580001000220A8F8000001200FB0BDE8F08F15
:10BC68009BF802002FF0BCF9E3E70BF0B7FADBE72B
:10BC78004170706C695F56656E646F725F44617481
:10BC8800615F7772697465002330452D253032680D
:10BC980078202530326C7821200A0D002530326852
:10BCA800782000002DE9F04F83B00546067845F26C
:10BCB8003C20C2F20000067042F2DE40C0F60400EA
:10BCC8000021002430F062F8297853A033F0B8F945
:10BCD800701E032800F29A80DFE800F002084C99F1
:10BCE80040F29030C2F2000002218CE000F030FFF8
:10BCF80004783CB342F2DE48471C00250DF10209E6
:10BD08000FF23C1AC0F604080FF2481B13E000BFFC
:10BD1800E0B201F041F8044609F806005E464046E4
:10BD2800002130F033F83046214633F089F917F80E
:10BD3800014B013534B1EEB22E2C09F80640E7D19B
:10BD48005646ECE7BDF8020045F23C22BDF8051066
:10BD5800C2F20002A2F801009DF80800A2F8031040
:10BD6800BDF80910507140F29030D180C2F2000045
:10BD7800082148E000F0E6FE04785CB342F2AE4BDE
:10BD880042F2DE49471C00250DF1020AC0F6040BF9
:10BD9800C0F604090FF290080DE000BF5E46484661
:10BDA80000212FF0F3FF3046214633F049F917F808
:10BDB800014B013574B1EEB22E2C0AF80640EDD0D5
:10BDC800522CEBD0E0B200F0E7FF04460AF8060078
:10BDD8004646E4E7BDF8020045F23C27C2F20007F8
:10BDE800A7F801009DF805009DF807109DF80920A7
:10BDF8009DF80B30F87040F2903039717A71BB7150
:10BE0800C2F2000007210180002400E0012420463E
:10BE180003B0BDE8F08F00BF2330322D25303268E3
:10BE28007821200A0D000000537562204C696220B9
:10BE380076657273696F6E2069732025780A0D0024
:10BE48004C69622076657273696F6E20697320256C
:10BE5800630A0D004C69622076657273696F6E2003
:10BE680069732025780A0D002DE9F04381B0064654
:10BE780090F8008042F2C640C0F604000021154642
:10BE880000272FF083FF31787CA033F0D9F8A8F190
:10BE9800010005284FF0010900F2CE800024DFE8F8
:10BEA80000F003502ACC718D42F2C640C0F604005F
:10BEB80000214FF000092FF069FF42F20340C0F65D
:10BEC8000400294633F0BCF840F2AC10C2F200007E
:10BED80047F6F6410180016842688368042010F043
:10BEE80067FE002001F0F4FF40F2AA10C2F2000041
:10BEF800012101709FE042F2C640C0F60400002113
:10BF08004FF000092FF042FF42F23940C0F604001A
:10BF1800294633F095F840F2AA14C2F200042078BA
:10BF2800012874D140F2AC10C2F200000121018056
:10BF3800016842688368042010F03AFE84F8009093
:10BF48001EE042F2C640C0F6040000214FF000098E
:10BF58002FF01CFF5DA0294633F072F840F2AC10B8
:10BF6800C2F2000001210180016842688368042050
:10BF780010F01EFE40F2AA10C2F2000080F80090F5
:10BF8800002018E042F2C640C0F6040000212FF05D
:10BF9800FDFE42F27340C0F60400294633F050F823
:10BFA800707840F2AA11C2F20001012808703DD051
:10BFB80000204FF0000901F07BFF3CE042F2C64050
:10BFC800C0F6040000212FF0E1FE30A0294633F02E
:10BFD80037F87778B47847F6FF7147EA04200022EB
:10BFE8002CF0FAFF054640F2AC10C2F200000580C2
:10BFF800016842688368042010F0DAFD00204FF0E1
:10C008000009B5F57A5F35D901F062FF15E040F215
:10C01800AC10C2F2000047F6F641018001684268A0
:10C028008368042010F0C4FD0120207000204FF028
:10C03800000901F04DFF0027002445F23C20C2F220
:10C048000000B8F1060F80F8008003D144708770B3
:10C05800032106E040F2AA11C2F2000109784170FA
:10C06800022140F29032C2F200024846118001B02B
:10C07800BDE8F08301F01CFFDFE700BF2330332D5C
:10C088002530326878210A0D000000004170706C7C
:10C09800695F4C45445F496E74656E7369747920B5
:10C0A80063616C6C6261636B207265636569766558
:10C0B8006420666F7220656C656D656E74496E6488
:10C0C8006578202564200D0A000000004170706C1E
:10C0D800695F4C45445F4F46462063616C6C626102
:10C0E800636B20726563656976656420666F72208C
:10C0F800656C656D656E74496E646578202564208D
:10C108000D0A0000B0B584B001F00AFA28B1002089
:10C1180001F0DEFE012004B0B0BD0020002501F0D2
:10C12800C7FE40F20C22C2F20002136C108892F88B
:10C1380044100124CDE90035931C0E22029401F02D
:10C14800D5F804B0B0BD0000F0B581B040F20C27BE
:10C158000E46C2F2000715460146B81C32461C4678
:10C16800FBF7EBF800203C803E643C2E88BF0320A0
:10C1780087F8445001B0F0BD2DE9F0410446077836
:10C1880045F23C2842F2F6400D46C2F20008C0F6DD
:10C198000400002188F8007000262FF0F7FD2178B0
:10C1A80020A032F04DFFF81E032837D3022F19D0F4
:10C1B800062F32D19DB141F2CF7700210FF27408DA
:10C1C800C0F60407002600BF625C404632F038FF24
:10C1D800384632F035FF0136F1B28D42F4D80020EE
:10C1E800BDE8F0813D2D0AD342F2F640C0F60400C6
:10C1F80000212FF0CBFD13A033F01CFC3C25611C63
:10C208006A1E08F10100FBF798F840F29030C2F27C
:10C21800000005800020BDE8F08101263046BDE819
:10C22800F08100BF2330312D253032687821200A73
:10C238000D000000646174615B25645D3D20256428
:10C24800000000004C656E6774682072656365695C
:10C258007665642067726561746572207468616EC2
:10C268002073697A65206F6620726573706F6E73CC
:10C278006520627566666572200D000040F2FC124A
:10C28800C1EBC101C2F2000202EB4101002200BF72
:10C2980031F81230984204BF012070470132072A52
:10C2A80004BF00207047F3E740F25422C2F20002B4
:10C2B80002EBC101002200BF51F82230984204BFAE
:10C2C800012070470132012A1CBF00207047F3E7A4
:10C2D8000020704710B540F2FC12C1EBC101C2F258
:10C2E800000202EB410100244FF6FF7231F81430CE
:10C2F800934203D00134072CF8D107246200FBF7DE
:10C308001CF8E0B210BD000010B540F25422C2F291
:10C31800000202EBC10100244FF6FF7251F82430ED
:10C32800934203D00134012CF8D00224A200FBF779
:10C3380004F8E0B210BD0000B0B588B0DDF844C024
:10C34800DDF840C0DDF83CC0DDF838C0DDF834C0A9
:10C35800DDF830C007900691059204930EF046FD73
:10C3680006980EF093FD05980499109A119BDDF834
:10C378003CC00D9CEE460025CEF80850CEF804408F
:10C38800CEF800C00EF024FC0E980F99079A0EF014
:10C3980095FB0C980D990EF06DFB03900EF0FEFCCA
:10C3A800039808B0B0BD0000B0B588B0DDF844C04F
:10C3B800DDF840C0DDF83CC0DDF838C0DDF834C039
:10C3C800DDF830C007900691059204930020039091
:10C3D8000EF00CFD04980EF059FD0C980D99109A6A
:10C3E800119BDDF83CC0059CEE460125CEF80850AF
:10C3F800CEF80440CEF800C00EF0EAFB0E980F9974
:10C40800079A0EF05BFB069805990EF0D1FB0EF02B
:10C41800C5FC039808B0B0BD80B592B011901091DA
:10C428000F920E9340F26020C2F200000D9000209F
:10C438000B9010980290119820B1FFE7119800F026
:10C44800FFF8FFE70E9890B1FFE70F9800F00F0094
:10C458000B900F9830B1FFE70B9818B9FFE7102041
:10C468000B90FFE70B990F98401A0F90FFE7FFE733
:10C478000F9870B3FFE7029B186859689A68DB68E1
:10C488000A93099208910790FFE7079800BA0D9957
:10C49800096848400790089800BA0D9949684840CB
:10C4A8000890099800BA0D998968484009900A9837
:10C4B80000BA0D99C96848400A90FFE70D9907A886
:10C4C80000F0B4F80298103002900F9810380F90CE
:10C4D800CEE70E98002800F08180FFE700200A9040
:10C4E8000990089007900C90FFE70C980B998842E8
:10C4F80013D2FFE702990C98095C03228243D20009
:10C5080001FA02F320F0030207A98858184388505B
:10C51800FFE70C9801300C90E7E7002006900590A3
:10C528000490039003A90191084600F07FF8019850
:10C5380000F056F80B980F2811D8FFE70B98032145
:10C548008143CA00802101FA02F320F0030207A9FF
:10C5580088581843885003A800F042F8FFE70020E5
:10C568000C90FFE70C98032814D8FFE70D980C9A55
:10C5780050F8220003A951F8221080EA010307A904
:10C5880051F82200584041F82200FFE70C9801308A
:10C598000C90E7E70D9907A800F048F80EF0FEFBAD
:10C5A800FFE70D98006800BA07900D98406800BA38
:10C5B80008900D98806800BA09900D98C06800BA74
:10C5C8000A90FFE70E990798089A099BDDF828C09A
:10C5D800C1F80CC08B604A600860FFE712B080BDEC
:10C5E80082B0019001980068C00F872148430090ED
:10C5F800019908684A68400040EAD27008600199C9
:10C6080048688A68400040EAD270486001998868A2
:10C61800CA68400040EAD27088600199CA680098E8
:10C6280080EA4200C86002B07047000080B582B05E
:10C6380001900091019800990EF0A2FB02B080BD14
:10C6480080B584B0039040F26020C2F200000290EE
:10C658000EF0CCFB03980EF019FC002001900EF0B0
:10C668003FFC01980299C860029988600299486065
:10C678000299086004B080BD80B588B00790069123
:10C6880005920EF0B3FB07980EF000FC04200EF0A4
:10C6980027FC069B186859689A68DB68049303921C
:10C6A8000291019001A908460EF06AFB0EF076FB94
:10C6B80005990198029A039BDDF810C0C1F80CC0D7
:10C6C8008B604A60086008B080BD000010B54CF26D
:10C6D8000D720446C0F600024FF48060002130F06D
:10C6E8000DFA40F2F803C2F200034FF0640C03EBBA
:10C6F800840242F61920214623F824C0BDE81040E0
:10C7080000F0A6B840F2F802C2F2000242F6192080
:10C71800002100F09DB8000040F2F801C2F20001CB
:10C72800CA780880012A18BF70474FF48060032137
:10C7380030F0F8BA80B582B04178FF2902D00020E5
:10C7480002B080BDB0F8031040F61442914212D0F6
:10C7580040F601429142F2D140F22811C2F20001A2
:10C768004988B0F8072002319142E8D1407B012185
:10C7780021EA00000EE040F22811C2F200014988C7
:10C78800B0F8072001319142D9D1B0F8050031F055
:10C7980027F902208DF8060000208DF807000DF11A
:10C7A800060000F035F8012002B080BDF0B587B072
:10C7B8004CF23D70C0F600002DF096FB41F60F00DC
:10C7C80040F228150DF11A04ADF81A00C2F200055E
:10C7D800012021460122042300950126042731F077
:10C7E8009FF842F6192135F8020BADF81A100A2104
:10C7F80000221223CDE90032CDE90271012122463F
:10C8080001230496059531F01BF807B0F0BD000030
:10C818000078022812D0012809D0002818BF7047D4
:10C8280040F2F800C2F200000121C170704740F2E6
:10C83800F800C2F200000021C170704740F2F8020F
:10C84800C2F2000242F61920002100F001B80000EF
:10C85800944642F61922904218BF704780B582B0BC
:10C8680001EB410040F22811C2F2000101EB400245
:10C8780031F81000518800220123CDF800C031F0B2
:10C88800A7F902B080BD000082B00090009820B9DE
:10C89800FFE703208DF8070009E000984AF69C415D
:10C8A800C2F20001086000208DF80700FFE79DF83C
:10C8B800070002B07047000082B00090009820B9CD
:10C8C800FFE703208DF8070009E000984AF6C84101
:10C8D800C2F20001086000208DF80700FFE79DF80C
:10C8E800070002B07047000080B582B001908DF853
:10C8F8000310019820B1FFE79DF8030020B9FFE776
:10C9080002208DF802000CE04AF60450C2F2000042
:10C91800006801999DF8032005F046F88DF802009B
:10C92800FFE79DF8020002B080BD000080B541F627
:10C938005E50C2F20000012101700FF091FA002848
:10C9480008BF80BD41F66451C2F20001087830B9D1
:10C95800012203A00A70BDE8804033F06BB880BDA7
:10C9680050726F766973696F6E696E6720636F6E58
:10C97800666967757265643A2077616974696E677C
:10C9880020646973636F6E6E65637420666F7220CE
:10C998004E564D20636F6D6D69740D00062202803E
:10C9A80040F20012C0F20232C0F802200422827162
:10C9B800072008707047000083B0029001918DF83D
:10C9C80003208DF8023003B07047000010B504460C
:10C9D80008A032F035FB601EC0B2022899BF13A12F
:10C9E80051F8200042F26220C0F60400BDE8104071
:10C9F80033F020B8467269656E64736869702063A5
:10CA08006C65617265642E204C6F7720706F776556
:10CA180072206E6F64652061646472657373203080
:10CA280078252E3458200D0A0000000074220408CE
:10CA38001322040842220408F0B581B00F460146CB
:10CA480042F2C310069CC0F604001D46164632F09A
:10CA5800F7FA0DA0394632F0F3FA642006FB00F12C
:10CA680013A032F0EDFA1CA0294632F0E9FA4CB1D5
:10CA780042F29210C0F60400214601B0BDE8F04031
:10CA880032F0DEBA01B0F0BD4C6F7720706F776579
:10CA980072206E6F646520726563656976652064CF
:10CAA800656C61792025646D73200D0A0000000013
:10CAB8004C6F7720706F776572206E6F6465207099
:10CAC8006F6C6C2074696D656F757420256C646D6E
:10CAD80073200D0A000000004C6F7720706F776597
:10CAE80072206E6F6465206E756D626572206F6668
