:020000040800F2
:1070000070CB0020BD72000819670308F1B50108B4
:10701000CDCB0108D9500108D9B803080000000001
:10702000000000000000000000000000258D0308A3
:10703000295801080000000019790308559C03082D
:10704000D7720008D7720008D7720008617C030865
:10705000D7720008D7720008D7720008D7720008EC
:10706000D7720008D7720008D7720008D7720008DC
:10707000D7720008D7720008D7720008D7720008CC
:10708000D7720008D7720008D7720008D7720008BC
:10709000D7720008D7720008D7720008BD580108DF
:1070A000D7720008D7720008D7720008D77200089C
:1070B000D7720008D7720008D7720008D77200088C
:1070C000D7720008D7720008D7720008D77200087C
:1070D000D5B5030869BA0108D7720008D77200084D
:1070E000D7720008D7720008D7720008D77200085C
:1070F000E1B80108E5B801080DA50108D77200083C
:10710000D7720008D7720008D7720008D77200083B
:10711000D7720008D7720008D7720008D77200082B
:10712000D7720008D772000885570108D772000887
:10713000D7720008D7720008D7720008000000005C
:10714000402504080000000081C201120812484ACC
:107150000C0412303B08051C1A041059041428189A
:107160000222B042201A270C5AD00C14FFFF031A37
:10717000034A139C521420C4541420EC56142014B7
:1071800059180F20B18003087D820308B1810308DC
:10719000250C1E797F030835101E81850308FF0129
:1071A000111B093D3C14FFFF011A02401204120595
:1071B000120EB6090DFF018314DD2A021A14894547
:1071C000C13C01083CDE2A08105ADD10DADB20DA67
:1071D000DC201A010C029B100000000000000000DF
:1071E000000000000000000000000000000000009F
:1071F000000000000000000000000000000000008F
:1072000001FF01FF01FF01FF01FF01FF01FF01FF7E
:0872100001FF01FF014A00002B
:020000040800F2
:1072A800DFF80CD000F002FD0048004781D3030846
:1072B80070CB00200648804706480047FEE7FEE7F7
:1072C800FEE7FEE7FEE7FEE7FEE7FEE7FEE7FEE78E
:1072D800FD9C0308A97200082DE9F05F054600200F
:1072E80092469B4688460646814640241BE028462F
:1072F80041464746224600F096FB53465A46C01A76
:10730800914110D311461846224600F07DFB2D1AF4
:1073180067EB01084F4622460120002100F074FB6C
:1073280017EB00094E41201EA4F10104DFDC48469A
:1073380031462A464346BDE8F09F10B5431A9342AA
:1073480009D28318881803E010F8011D03F8011DFD
:10735800521EF9D210BD40EA01039B0703D009E091
:1073680008C9121F08C0042AFAD203E011F8013B29
:1073780000F8013B521EF9D210BDD2B201E000F86C
:10738800012B491EFBD270470022F6E710B51346C1
:107398000A4604461946FFF7F0FF204610BD10B50F
:1073A800044604E00B7800F8013B03B1491C521E67
:1073B800F8D2204610BD421C10F8011B0029FBD151
:1073C800801A7047CBB203E00178994203D0401C81
:1073D800521EF9D20020704730B5044600200346FB
:1073E80000E05B1C934203D2E05CCD5C401BF8D00C
:1073F80030BD30B505460020034600E05B1C9342D3
:1074080005D2EC5CC85C201A01D1002CF6D130BD45
:107418000FB400B58DB010A909900B9000914FF0F2
:10742800FF300A9000200C90054806900548079008
:107438006A4609A80F9900F02DFB0DB05DF814FB02
:10744800B97A0008D77A00082DE9FF5F1D464FF08A
:10745800FF3BD5E9014691465F464FF00008A96910
:107468007F1C01988847296A824688470028F6D1F8
:10747800BAF1FF3F0CD024F4C064002E19DD600679
:1074880014D5BAF12B0F09D0BAF12D0F0ED103E0A4
:10749800584604B0BDE8F09F44F48064A9697F1C95
:1074A80001988847761E8246002E02DDBAF1300F19
:1074B80003D0B9F1000F26D032E0A969761E44F452
:1074C80000747F1C019888478246002E05DDBAF1BA
:1074D800780F06D0BAF1580F03D0B9F1000F10D0C9
:1074E8001EE0B9F1000F02D0B9F1100F18D1A96947
:1074F800761E24F400747F1C019888478246102069
:1075080002E0082000E00A20814609E008FB09089B
:10751800A969761E44F400747F1C01988847824646
:10752800002E05DD4946504600F09FFA0028EDDAA6
:10753800E96901988847A00502D46FF00100A8E71F
:10754800E00725D1600613D5600502D5C8F1000013
:1075580000E0404629680A1D2A600968220501D50D
:10756800087015E0220701D5088011E008600FE0D7
:107578002868011D29600068210502D580F800806F
:1075880006E0210702D5A0F8008001E0C0F80080DD
:1075980038467EE72DE9FF5FD2E901A74FF00008E2
:1075A800916999461446DDF838B0464601988847EF
:1075B800054659EA0B0005D009E0A169761C019837
:1075C80088470546216A284688470028F5D1681C5F
:1075D80003D05FEACA7005D015E04FF0FF3004B061
:1075E800BDE8F09F2068011D2160D0F800800AE006
:1075F8005FEACA7001D108F8015BA169761C7F1E99
:10760800019888470546002F1ADD681C18D0B9F183
:10761800000F0DD0E81705EBD060421120F01F00D5
:1076280059F822102A1A012090400142E0D107E0BF
:10763800BBF1000FDCD1216A284688470028D7D043
:10764800E16901988847BBF1000F07D1002E05DDDD
:107658005FEACA7002D1002188F80010A068B84219
:1076680003DDBBF1000F03D017B16FF00100B6E7DF
:107678003046B4E72DE9FE4F804681EA0300C00F8B
:107688000C46009021F0004123F00045B8EB0200C1
:10769800A94105D24046214690461C460B46024663
:1076A80023F00040104347D0270DC7F30A00C3F367
:1076B8000A510290401A019040286BDAC3F3130074
:1076C80040F4801B0098924620B10023D2EB030AB5
:1076D80063EB0B0B01985946C0F14002504600F08D
:1076E80093F906460D4650465946019A00F0ABF903
:1076F80010EB08006141002487EA115284EAE7731D
:107708001A4340D0009A62B3019A012A4FEA0752FD
:1077180015DC001B61EB02014FF0004202EA075240
:10772800CDE90042001C41F5801132462B4600F09D
:10773800EEF903B0BDE8F08F40462146F9E7001B9B
:1077480061EB0201001C41F5801300185B41201811
:10775800A2F5001747EB030140EAD570B6196D4151
:1077680011E06D084FEA360645EAC0754FEA075240
:10777800001B61EB0201001C41F5801149084FEA2A
:1077880030000019514132462B4603B0BDE8F04F96
:1077980000F0AEB90098012240000023D0EB0202AD
:1077A80063EBE073009821464FEAE074B8EB000001
:1077B80061EB0401E9E783F000435BE781F00041F6
:1077C80058E72DE9FE4F81EA030404F0004421F054
:1077D800004100944FF0000B23F0004350EA0104ED
:1077E8005ED052EA03045BD0C3F30A54C1F30A55CE
:1077F8002C44A4F2F3340194A0FB0254C1F3130106
:1078080041F48011C3F3130343F4801301FB0244D2
:1078180000FB034E840A970A44EA815447EA8357D7
:10782800A4FB076802958D0A05FB07854FEA932C90
:1078380004FB0C542705029D4FEA065847EA163701
:10784800B5EB08056EEB070C870E920E47EA811719
:1078580042EA8312A7FB0201B6EB0B0164EB0004BA
:107868002B0D43EA0C335E1844EB1C50DA465146A4
:10787800E7FB0201C5F313044FEA0B3343EA145341
:107888004FEA0432019C43EA0603A4F10C04029473
:10789800009CCDE900B400F03AF903B0BDE8F08FE0
:1078A80000200146F9E72DE9F04D81EA030404F0D0
:1078B800004B21F0004514464FF0000A23F0004128
:1078C80050EA050220D054EA01021DD0C5F30A5738
:1078D8000246C5F31303C1F31300C1F30A5640F47B
:1078E800801543F48013A7EB0608101BD64608F250
:1078F800FD3873EB050002D308F1010801E0921886
:107908005B41B8F1000F03DA00200146BDE8F08DB5
:1079180000204FF48011064684460EE0171B73EBD7
:10792800050705D3121B63EB050306434CEA010C5C
:1079380049084FEA300092185B4150EA0107EDD13F
:1079480052EA030012D082EA040083EA05010843E0
:1079580005D0101BAB4106D20122002306E000220D
:107968004FF0004302E06FF0010253101AEB0600DB
:107978004CEB085110EB0A0041EB0B01BDE8F04D50
:1079880000F0B6B80EB540F2334102910021CDE9BE
:1079980000110A460B4600F0BAF803B000BD70B5F6
:1079A800C1F30A5201F000450024C1F3130140F26B
:1079B800FF3341F480119A4201DA002070BD40F291
:1079C80033439A42A2F2334203DC524200F02BF8CE
:1079D80000E090402C43F1D0404270BD30B50B46DA
:1079E800014600202022012409E021FA02F59D42E7
:1079F80005D303FA02F5491B04FA02F52844151EBB
:107A0800A2F10102F1DC30BD202A04DB203A00FAA1
:107A180002F1002070479140C2F1200320FA03F3DD
:107A2800194390407047202A04DB203A21FA02F0DB
:107A38000021704721FA02F3D040C2F120029140A0
:107A4800084319467047202A06DBCB17203A41FA2B
:107A580002F043EAE07306E041FA02F3D040C2F1D3
:107A6800200291400843194670473A2800D230381E
:107A780020F02002412A01D3A2F13700884201D325
:107A88004FF0FF307047000002681144137801601E
:107A980018467047D16004495161044911620021B8
:107AA8001161114600F020B9917A0008E57C0008C0
:107AB800426842B1016811F8013B23B1521EC0E986
:107AC8000012184670470121C160881E704742683D
:107AD8005AB1C368016843B983688B4205D0491E0F
:107AE800521CC0E90012002070474FF0FF30704769
:107AF80010B5141E73F1000408DA401C41F10001AE
:107B080092185B411A4301D120F0010010BD2DE904
:107B1800F04D92469B4611B1B1FA81F202E0B0FAFB
:107B280080F220329046FFF76FFF04460F4640EA86
:107B38000A0041EA0B0153465A46084313D011463E
:107B480053EA010019D0C8F140025046FFF76BFF15
:107B580005460E46504659464246FFF755FF08432C
:107B680005D0012004E020463946BDE8F08D00200C
:107B7800054346EAE0762C4337430A986305E40A4E
:107B8800A0EB08000022FD0A44EA47540A3002D557
:107B980000200146E9E7010510196941DDE90845BA
:107BA80000196941BDE8F04DA2E72DE9F04D002329
:107BB8001A461B1A8A4103DB00200146BDE8F08DF6
:107BC800C1F30A52C1F3130141F480154FF0000BC1
:107BD800D10702D100186D41521E0027044640F219
:107BE800FF11384601EB620A3E46804602460020F5
:107BF8004FF48011FFF717FFC2197141BB1846EB0C
:107C08000100B4EB030C75EB000C04D3E41A65EB2C
:107C1800000517460E46241908F101006D418046FB
:107C28003428E3DDF91946EB0600091BA84103D205
:107C38004FF0FF32134601E0002213461BEB07000A
:107C480046EB0A51BDE8F04DFFF752BFC1F30A52A7
:107C5800C1F3130140F2FF3341F480119A4202DA72
:107C680000200146704740F233439A42A2F2334261
:107C780002DC5242FFF7D7BEFFF7C6BE30B5041E7E
:107C880071F1000404DB4FF00044404264EB010151
:107C9800141E73F1000405DB1C464FF000435242EA
:107CA80063EB0403994208BF904230BD1CB50948F4
:107CB8000090094801900546009C06E0E06840F005
:107CC800010394E8070098471034AC42F6D3FFF755
:107CD800EBFA00000025040840250408C0B24FF460
:107CE800F05100F097B900002DE9F34F8BB04FF039
:107CF800000801F10C000C464FF0010B46460DF14F
:107D0800080A01906269012101989047051E2DD04B
:107D1800252D2CD0216A8847C0B1626901210198BC
:107D28009047216A88470028F7D1411E6269019867
:107D3800904700E0761CA1690B988847216A88471C
:107D48000028F7D1E1690B988847DBE7A1690B9810
:107D580088470746A84201D1761CD3E7E1690B980A
:107D680088477F1C02D1B8F1000F6FD046E1002789
:107D780062693D463946019890472A2804D16269CC
:107D88000121019890470125DFF884926269012159
:107D980001989047A0F130010A290AD24F45E5DC45
:107DA80007EB870100EB4107303FDFD445F01005B2
:107DB800ECE7E90601D46FF000476C280AD04C289C
:107DC80014D0682815D06A280DD074281CD07A28B9
:107DD8001AD01DE062690121019890476C2802D0F1
:107DE80045F0040514E045F002050DE045F02005D6
:107DF8000AE06269012101989047682802D045F09D
:107E0800080505E045F4006562690121019890477D
:107E1800C4E9015765283DD019DC58287AD00CDC14
:107E2800452837D004DC252826D0412831D131E037
:107E380046282FD047282CD12CE05B2877D0612802
:107E480028D063287CD0642823D15AE0D0E06F285A
:107E580048D008DC66281DD067281BD0692821D0A7
:107E68006E2816D127E0702845D0732868D0752869
:107E780047D078280DD14DE0A1690B988847054671
:107E880025283FF469AFE1690B9888476D1C3FF4DA
:107E98006AAFB3E023466A466FF001000B99AFF36F
:107EA80000809EE045F040006060A80723464FF040
:107EB800000236D43EE0E8077FF447AF2068011D92
:107EC80021600068290501D506701BE7290701D53F
:107ED800068017E7A90703D5F117C0E9006111E784
:107EE80006600FE745F040006060A80723464FF0A2
:107EF800080216D41EE040F60E0125EA0100606073
:107F080016E045F040006060A80723464FF00A02DB
:107F180007D40FE045F040006060A80708D5234665
:107F280010226FF001000B99AFF3008059E007E0D1
:107F3800234610226FF001000B99FFF785FA50E0F5
:107F48004FF000094F464B46632802D05B2806D005
:107F580040E0E80601D40120A06001273AE0626908
:107F68000121019890475E2805D14FF00109626907
:107F7800494601989047216939B900210A46534674
:107F880043F82120491C0829FADBB0B3216969B9F3
:107F9800C11700EBD16253110AEB830122F01F02D3
:107FA800821A01200B68904003430B60626901212B
:107FB800019890475D28E8D1B9F1000F09D0002059
:107FC800514651F82020D24341F82020401C08286F
:107FD800F7DB02AB224600976FF001000B99FFF721
:107FE800D9FA00280CDA401C08D1BBF1000F05D0E3
:107FF8004FF0FF300DB0BDE8F08FFFE74046F9E7DE
:10800800E90701D108F1010806444FF0000B79E6B1
:10801800CCCCCC0C7F2801D9002208E0064A02EB20
:108028005002C007127800D1120902F00F02012095
:10803800904008407047000030E4030870B58C1881
:1080480010F8015B15F0070301D110F8013B2A1164
:1080580006D110F8012B03E010F8016B01F8016B51
:108068005B1EF9D12B0705D40023521E0DD401F84D
:10807800013BFAE710F8013BCB1A921C03E013F816
:10808800015B01F8015B521EF9D5A142D8D300204B
:1080980070BD000010B588B04EF29850C0F60300CD
:1080A80090E80E5044690191018B807E02920393FF
:1080B800CDF810C0CDF814E00694ADF81C108DF87A
:1080C8001E0031F023FF01A82FF0E4FE08B010BD18
:1080D8002DE9F04186B00EF02FFF0EF037FF40F685
:1080E8009000C5F60000016841F4803101600DF090
:1080F80053FB4EF6743240F6000340F2004700216D
:10810800C0F60302C4F60003C4F600074FF00008E7
:10811800002500200491CDE90211CDE9001104E009
:10812800A68835430131262914D002EBC104A6796B
:10813800002EF7D052F831609E4207D0BE42EFD0F1
:10814800B6F1904FEED1A6883043EBE7A68848EA0F
:108158000608E7E700214C2702910121C5F6000730
:10816800019103210204039121D084B2009438685C
:10817800694640F001003860386800F00100059059
:108188000598D7F8000140F00100C7F80001D7F8BA
:10819800000100F00100059005984FF090400FF0A5
:1081A800C3FA4FF09040214600220FF08DFB40F2B9
:1081B80000442804C4F600041FD0ADB20095386806
:1081C800694640F002003860386800F00200059007
:1081D8000598D7F8000140F00200C7F80001D7F869
:1081E800000100F002000590059820460FF09CFA67
:1081F8002046294600220FF067FB5FEA084022D09C
:108208001FFA88F50095386804F5806440F004008A
:1082180038603868694600F0040005900598D7F87A
:10822800000140F00400C7F80001D7F8000100F091
:1082380004000590059820460FF076FA2046294656
:1082480000220FF041FB06B0BDE8F0817047000046
:10825800B0B588B04468B4F80B10A1F512410729ED
:1082680000F2AC81DFE811F00800C200E400AA01C6
:10827800F7000201BE00E200044668462FF028FE1F
:108288009DF800109DF801209DF802304FF26C20F7
:10829800C0F6030035F0BCFB9DF804104FF23A20FD
:1082A800C0F6030035F0B4FB9DF80910481E8F286E
:1082B80000F200814FF29352C0F60302DFE810F09B
:1082C80021019000EB000E011301F000FF00FA00FD
:1082D800FA00FA00FA00FA00FA00FA00FA00FA00C6
:1082E800FA00FA00FA00FA00FA00FA00FA00FA00B6
:1082F800FA00FA00FA00FA00FA00FA00FA00FA00A6
:10830800FA00FA00FA00FA00FA00FA00FA00FA0095
:10831800FA00FA00FA00FA00FA00FA00FA00FA0085
:10832800FA00FA00FA00FA00FA00FA00FA00FA0075
:10833800FA00FA00FA00FA00FA00FA00FA00FA0065
:10834800FA00FA00FA00FA00FA00FA00FA00FA0055
:10835800FA00FA00FA00FA00FA00FA00FA0004013A
:108368001D011801FA00FA00FA00FA00FA00FA00F2
:10837800FA00FA00FA00FA00FA00FA00FA00FA0025
:10838800FA00FA00FA00FA00FA00FA00FA00FA0015
:10839800FA00FA00FA00FA00FA00FA00FA00E1001E
:1083A800F500FA00FA00FA00FA00FA00FA00E6000E
:1083B800DC00FA00FA00FA00FA00FA00FA00FA0003
:1083C800FA00FA00FA00FA00FA00FA00FA00FA00D5
:1083D800FA00FA00FA00FA00FA00FA00FA000901B5
:1083E8009CA28EE0D4F80D1082A03AE04FF2203122
:1083F800C0F603010446084635F00AFB64684FF2EC
:10840800B230617BC0F6030035F002FB607B0028C8
:1084180007BF4FF2A040C0F603004FF26940C0F614
:10842800030008B0BDE8B04035F0ECBF68A01EE01E
:108438004FF20140C0F6030035F0E4FFD4F80D1008
:10844800D4F811204FF29020C0F6030008B0BDE820
:10845800B04035F0DDBAD4F80D104FF2B620C0F6B2
:10846800030008B0BDE8B04035F0D2BA70A008B03B
:10847800BDE8B04035F0CCBA4FF2F142C0F6030285
:108488003FE04FF25152C0F603023AE04FF2DA42AF
:10849800C0F6030235E04FF2A752C0F6030230E0FF
:1084A8004FF2C152C0F603022BE04FF26752C0F6FA
:1084B800030226E040F24502C0F6040221E04FF232
:1084C800B152C0F603021CE04FF27D52C0F603021F
:1084D80017E04FF24252C0F6030212E04FF29C52EC
:1084E800C0F603020DE04FF23852C0F6030208E06E
:1084F8004FF21F52C0F6030203E04FF20852C0F6D3
:1085080003024FF21920C0F6030035F081FA9DF8F6
:108518000A109DF80B209DF80C304FF25620C0F63B
:10852800030035F075FA4FF2E230C0F6030035F07B
:108538006FFA002560680795407B06950128059528
:10854800049534D0E0BB4FF24F40C0F6030035F03D
:1085580059FFFFF79FFD0F208DF810007F2042F292
:1085680000058DF81200CEF204052868040C4FF2BD
:108578009130C0F60300214635F04AFAADF81C40A8
:108588002C684FF272306FF31F34C0F60300214697
:1085980035F03EFA04A8ADF81E402FF06DFC00F04F
:1085A80035F90120002133F023F808B0B0BD4FF2AF
:1085B8004130C0F6030035F02BFA257008B0B0BD85
:1085C8004FF2EE20C0F6030035F022FA08B0B0BD35
:1085D8003E3E3D3D20534843495F5355425F455613
:1085E800545F4E564D5F454E445F45524153450AD0
:1085F8000D0000003D3D3E3E534843495F53554200
:108608005F4556545F4E564D5F53544152545F4533
:1086180052415345203A204E756D6265724F66533C
:108628006563746F7273203D2025750A0000000091
:108638003E3E3D3D20534843495F5355425F4556B2
:10864800545F4E564D5F454E445F57524954450A54
:108658000D000000424C455F484349002DE9F041B8
:1086680016460D4604460FF035F940F25401C2F2A1
:1086780000010A8840F64813A242C2F200030DD155
:108688001A68821A632A09D84FF6E110C0F6030067
:1086980021463246BDE8F04135F0BAB940F2F0283B
:1086A800C2F20008B8F816200C80002A186018BF1B
:1086B800944203D039A0214635F0AAF90020A8F841
:1086C800160088F880004FF61F20C0F603003146D8
:1086D80035F09EF93EA021462A4635F099F90FF06B
:1086E800F9F801464FF63130C0F6030035F090F93D
:1086F80013F000F905460EF0D5FA064613F0FAF81D
:1087080007460EF0CFFA57B9012823D104F072F9C1
:1087180028B14FF68470C0F6030035F073FE98F860
:1087280080304FF69230C0F603002946324635F0C5
:108738006FF940F22630C0F6040035F063FE40F2CF
:108748004060C2F20000012101704480BDE8F041A0
:108758002EF0C4BA98F880304FF69230C0F6030075
:108768002946324635F054F9012000F0B7FB98F855
:108778008000012808D040F2F320C0F6040035F04C
:1087880041FE012000F0AAFB98F880000128D6D00D
:1087980040F20C40C0F60400CFE700BF3E3E3D3D2E
:1087A80020446973636F6E6E6563742068616E64DC
:1087B8006C65206D69736D617463683A20657674C1
:1087C8003D30782578206374783D307825780A0024
:1087D80020202020202D20436F6E6E656374696F02
:1087E8006E2048616E646C653A20202030782578C8
:1087F8000A20202020202D20526561736F6E3A20B8
:10880800202020307825780A0D0000002DE9F0435B
:1088180099B046F2EC20C2F200000921017040F242
:10882800D8510024C2F200010A5D1AB10134082CA3
:10883800FAD1082440F2D8510130C2F20001224690
:10884800FEF7ADFD40F2A001601CC2F20001087005
:108858000EF014FAFF2821D004460FF20C502146DE
:1088680035F0D6F8A52C13D10CF07CFE02F056FF9B
:1088780040F2DA320FF24051C0F60402012888BFF4
:108888001146084635F0BEFD00200CF07DFE05E0DF
:108898000FF2FC4035F0B6FD0CF064FE0EF002FA63
:1088A800044613F01DF840F29409C5F60009D9F8FA
:1088B80000108046C1F30070C1F34075C1F38077A2
:1088C8008DE8A1004FF64730C1F38062C1F3C06361
:1088D800CE0FC0F60300039635F09AF8D9F80000D9
:1088E80040F2340140F40000C9F800004FF6F5707A
:1088F800C0F60300C0F60401012C08BF01464FF67C
:108908005220C0F603002246434635F081F84EF265
:10891800B450C0F6030090E88E00D0E904650DF16C
:10892800140ED0E906C48EE88E00CDE9096500F181
:108938002007D0E90C65008F8ECFADF84C0040F2CF
:108948002800C2F2030014904DF2E950C0F600006E
:108958000DF1340E15904DF20D608EE88E00C0F6C4
:10896800000014A9CDE90BC41196129534F0E8F96A
:108978000220012132F03CFE4DF2B912C0F603028A
:108988000220002132F060FE05A82FF067FA48B1F6
:1089980001464FF66B60C0F6030035F039F80DF06C
:1089A800B3F905E04FF69250C0F6030035F030F801
:1089B8000020CDE91400ADF84E000EF051F91490E6
:1089C8000EF04EF940F2B030C0F60400159135F0C3
:1089D80019FD34F053FB38B101464FF61E00C0F6BE
:1089E800030035F015F805E040F2D510C0F6040094
:1089F80035F008FDBDF8540040F2A10400BA1499FE
:108A0800C2F20004000C208108BAC4F80A0014AAB3
:108A18002E20062133F0C4FE38B101464FF27F7094
:108A2800C0F6030034F0F4FF19E040F2D700C0F6B6
:108A3800040035F0E7FCDDE91470C0F30721C2B289
:108A4800C7F30740C7F30726CDE900064FF60F40E6
:108A58003B0EFFB2C0F60300029734F0D9FF4EF682
:108A6800B442C0F603021820102133F099FE38B141
:108A780001464FF22A70C0F6030034F0C9FF05E042
:108A880040F29200C0F6040035F0BCFC4EF6A44259
:108A9800C0F603020820102133F082FE38B10146E7
:108AA8004FF2D560C0F6030034F0B2FF05E040F2A3
:108AB8004D00C0F6040035F0A5FC01201F2133F05D
:108AC80047FE38B101464FF2E070C0F6030034F0BB
:108AD8009FFF05E040F2A710C0F6040035F092FCB5
:108AE80033F036FD38B101464FF67B00C0F603007F
:108AF80034F08EFF05E040F21220C0F6040035F095
:108B080081FC0DF15E0718AE0DF16203052000210E
:108B18000722CDE9006733F0B5F938B101464FF6C1
:108B28004B00C0F6030034F073FF05E040F2F2108A
:108B3800C0F6040035F066FCBDF86200BDF86010B0
:108B48004FF6ED77C0F6030700220723009733F0AE
:108B580027FDBDF86200BDF85E100DF14E0700223A
:108B68000223009733F01CFD00200221022234F07A
:108B7800B1F938B101464FF63510C0F6030034F0AC
:108B880047FF05E040F29C20C0F6040035F03AFCAF
:108B980040F2F025C2F200050120287033F046FAB1
:108BA80038B101464FF66F10C0F6030034F030FFBD
:108BB80005E040F2C620C0F6040035F023FC40F280
:108BC8000110C0F600004BF20721C5F80100102083
:108BD800C0F20101002208236871A9600127CDE9CC
:108BE8000030CDE902210120012101220023049750
:108BF80033F090F938B101464FF6AC00C0F60300E7
:108C080034F006FF05E040F23320C0F6040035F0EA
:108C1800F9FBA87880B133F015F938B101464FF661
:108C2800F600C0F6030034F0F3FE05E040F26D20D4
:108C3800C0F6040035F0E6FB4FF6D650C0F6030048
:108C480034F0E6FE40F22810C0F6040035F0DAFBF6
:108C58002FF0E2FE002085F880004FF6FF7048F6FE
:108C6800F952E882C0F600020120002132F0ECFC43
:108C78002020A071062033F045FD38B101464FF69B
:108C88001950C0F6030034F0C3FE05E04FF65D50FE
:108C9800C0F6030034F0BCFE0CF094FC0020002663
:108CA80003F070FB2DF0E4FF4CF66902C0F60302F6
:108CB8004FF48040002132F0C7FC4CF66D04C0F63A
:108CC80003044FF400400021224632F0BDFC05F1B8
:108CD800830100200022234612F098F948F6DD634C
:108CE80005F18101C0F600030020002212F08EF980
:108CF80049F6514305F18201C0F603030020002222
:108D080012F084F940F29210C2F2000001210170C1
:108D180040F29010C2F200002E83017012F0EAFDBA
:108D280004460DF0BFFF54B9012811D103F062FECB
:108D380028B14FF68470C0F6030035F063FB40F2AB
:108D48006B10C0F6040035F05DFB19B0BDE8F08388
:108D5800012000F0C3F895F880000128F5D040F212
:108D68006230C0F60400EEE73D3D3E3E204E4643ED
:108D780020626F6F74206F70636F64652064657420
:108D880065637465643A203078253032780A0000CB
:108D98003D3D3E3E204E464320626F6F74206F700B
:108DA800636F646520756E6B6E6F776E2C20636CD5
:108DB800656172696E6700003D3D3E3E204E464348
:108DC80020626F6F74207265736375653A206D65F4
:108DD80073682070726F766973696F6E696E672049
:108DE80073746F72616765206572617365640000F2
:108DF80010B540F2F024C2F2000494F8800005286F
:108E08000CD033F037F9002184F8801018A111A292
:108E1800002808BF1146084634F0FAFD12F06AFD32
:108E280004460DF03FFF54B901280DD103F0E2FDCF
:108E380028B14FF68470C0F6030035F0E3FA15A0A8
:108E4800BDE8104035F0DEBA0220BDE8104000F061
:108E580045B800BF2A2A2053544F50204144564554
:108E680052544953494E47202A2A20200D0A0D0002
:108E78002A2A2053544F50204144564552544953AE
:108E8800494E47202A2A20204661696C6564200DD6
:108E98000A0D00003D3D3E3E20536B6970206C6F0B
:108EA800772D706F77657220616476657274697367
:108EB800696E6720726573746172743A204D6573C8
:108EC80068206F776E732061647665727469736960
:108ED8006E6700000120042132F0CABC2DE9F04180
:108EE80088B040F29211C2F20001044640F290109C
:108EF8000D78C2F200000678002D40F2F02818BF65
:108F08008025002EC2F2000818BFA026012C18BF29
:108F18004FF4C86598F8810018BF4FF47A6612F0CC
:108F2800ABFA022C15D198F880000138012810D826
:108F380033F0A0F838B101464FF28A60C0F603005A
:108F480034F066FD05E04FF61E70C0F6030035F0FC
:108F580059FA40F2A000C2F20000007898F8181000
:108F680046F2EC23002708F11902C2F20003CDE90A
:108F78000070CDE90231CDE90427002029463246A8
:108F88000123069733F002F808B30546122801D0EA
:108F98000C2D36D112F0AEFC06460DF083FE56B904
:108FA800012833D103F026FD28B14FF68470C0F6AE
:108FB800030035F027FA4FF6DF20C0F603002946F4
:108FC80034F026FD88F8804008B0BDE8F08122A082
:108FD80088F8804035F016FA40F2A101C2F200018B
:108FE8000E2033F0E9F8F0B10146012C12BF24A09D
:108FF8004FF69740C0F6030008B0BDE8F04134F0E2
:1090080007BD4FF6AC10C0F6030003E04FF68C2006
:10901800C0F60300294634F0FBFC002088F88000E5
:1090280008B0BDE8F081012C0DD123A034F0F0FC8C
:1090380098F881004EF24601C0F2010108B0BDE87F
:10904800F04112F039B94FF6EC40C0F6030008B011
:10905800BDE8F04134F0DCBC3D3D3E3E2061636933
:109068005F6761705F7365745F646973636F76656A
:109078007261626C65202D2053756363657373009C
:109088003D3D3E3E205374617274204C6F772050F2
:109098006F776572204164766572746973696E676B
:1090A800204661696C6564202C20726573756C7448
:1090B8003A202564200A0D003D3D3E3E205375634D
:1090C800636573733A2053746172742046617374D4
:1090D800204164766572746973696E67200A0D00B1
:1090E80010B503F027FC0446062817D940F2FC10F7
:1090F80041F20001C2F20000C1F2020141F206028F
:1091080041F20033C1F20702C1F2013380E80E00D8
:109118004FF6FF718181072C0DD228E003F00AFC7D
:10912800024641F64970C0F604000721022334F0D4
:109138006FFC072C1BD303F0FDFB044606280CD953
:1091480040F254203021C2F20000C0F201014FF673
:10915800FF72C0E90012002006E042F20600C0F6E5
:10916800040034F055FC0120062C88BF10BD41F6E0
:10917800C170C0F6040034F04BFC022010BD0000A2
:1091880010B546F21C34C2F20004207820B103F076
:109198004DFC0020207010BD002004F0F1FC0EF002
:1091A80099FB0446002004F0EBFC0028FAD00EF0EE
:1091B80091FB001BB0F57A7F08D94AF6E0404F21B1
:1091C800C2F20000C0F2AD01016010BD152838BF21
:1091D80010BDBDE8104003F029BC00000220704714
:1091E800002200200A8070477047000080B50020E8
:1091F80004F0B6FC002080BD40F2C240C2F200007C
:109208000078704741F62950C2F200000121017030
:1092180041F63150C2F200000022027041F6365287
:10922800C2F200020120117004F08ABC80B541F638
:109238002950C2F200000021017041F63650C2F2F6
:1092480000000170012004F06BFC12F053FBF0B138
:1092580003F0D0FBD8B941F62A50C2F200000078DA
:10926800002808BF80BD41F63050C2F200000178E6
:1092780069B90121017040F6AD20C0F6040035F04F
:10928800C1F840200021BDE8804032F0F1BA80BD2D
:109298000020704770470000B0B540F25A04C2F28F
:1092A8000004257803F0B8FA854209D940F6B810C9
:1092B800C0F6040035F0A6F8BDE8B04003F0ACBA3B
:1092C8002078002818BFB0BD02A035F09BF8012017
:1092D800B0BD00BF4E756D626572204F6620456C4B
:1092E800656D656E7473206D7573742062652031C9
:1092F800206F722067726561746572207468616E90
:109308002031210D0000000001463020C0F202008B
:1093180008604FF4857200208A80704780B501206C
:109328001F2133F015FA002818BF0120400080BD26
:1093380001464EF67D40888041F6F850CAF64F60E7
:10934800086045F24B30C5F2A140C1F8060046F26C
:109358000430C2F20000828803680020CA81C1F884
:109368000A30704700207047014601A034F050BB16
:10937800556E70726F766973696F6E6564204E6F93
:109388006465204964656E746966696572207265F2
:109398006365697665643A20253032780A0D0000E5
:1093A800B0B546F20435C2F20005E91D00202A4690
:1093B80033F068F918B1014612A034F029FB691E90
:1093C800EF2006220B4600BF13F8014F013A04EBC9
:1093D8004000F9D10322EA71EF220623A87100BFE9
:1093E80011F8014F013B04EB4202F9D1C0B2D1B2EE
:1093F800081A6979B0FA80F0400941F0C001697132
:10940800B0BD00BF4661696C656420746F207265E9
:109418006164205075626C6963204164647265738D
:10942800732025640000000080B54CF6D132C0F6E8
:1094380001020420002132F007F90420002132F053
:1094480017FA4BF2F572C0F600024020002132F004
:10945800FBF840200021BDE8804032F009BA000046
:1094680080B541F66950C0F6040034F0CBFF41F6F0
:10947800C630C0F6040034F0C5FF41F65240C0F6CD
:10948800040034F0BFFF41F66440C0F6040034F035
:10949800B9FF41F63F40C0F6040034F0B3FF41F68F
:1094A8000B40C0F6040034F0ADFF41F62C40C0F686
:1094B800040034F0A7FF41F61840C0F6040034F069
:1094C800A1FF41F6DD30C0F6040034F09BFF03F045
:1094D8008BF9014641F6D620C0F6040034F098FA1C
:1094E80003F074F9014641F6C520C0F6040034F0D3
:1094F8008FFA03F091F9014641F65B20C0F60400AB
:1095080034F086FA03F016FA014641F6E720C0F671
:10951800040034F07DFA03F0F5F9014641F67520B0
:10952800C0F6040034F074FA03F0EEF9014641F68F
:109538004720C0F6040034F06BFA03F057F90146EF
:1095480041F60230C0F6040034F062FA03F0C4F9C0
:10955800014641F62930C0F6040034F059FA41F6C4
:10956800F730C0F6040034F04DFF41F69420C0F601
:1095780004000021012234F04BFA41F60650C0F6EF
:10958800040034F03FFF41F67640C0F6040034F0A2
:1095980039FF41F6AC40C0F6040034F033FF41F621
:1095A8008E40C0F6040034F02DFF41F6C340C0F6EB
:1095B800040034F027FF41F61650C0F6040034F0DA
:1095C80021FF41F6E740C0F6040034F01BFF07A076
:1095D80034F018FF0CA0012134F01AFA17A034F067
:1095E80011FF1EA0BDE8804034F00CBF0A5B496D36
:1095F800706F7274616E7420496E666F726D6174FB
:10960800696F6E5D200D00004E756D626572206F8A
:109618006620456C656D656E747320656E61626C5D
:10962800656420696E204170706C69636174696F4C
:109638006E3A202564200D0A000000004E65696717
:1096480068626F7572205461626C65206973206569
:109658006E61626C6564200D000000002A2A2A2AC7
:109668002A2A2A2A2A2A2A2A2A2A2A2A2A2A2A2A52
:109678000D0A0D0080B54AF6F840C2F200000068F5
:1096880004212EF01DF840B1014640F6D400C0F682
:109698000400BDE8804034F0BBB940F64920C0F66C
:1096A8000400BDE8804034F0ADBE000000207047E3
:1096B800B0B540F67775C0F60405284600211C466B
:1096C80031F014F940F61570C0F60400214634F064
:1096D8009FF92846002131F009F902A034F092FEE2
:1096E8000020B0BD2338323130210D00B0B5B0F9BB
:1096F800000040F2941203EB4301C2F20002322848
:1097080022F8210040F2AC101C46C2F200000CDB2B
:1097180047F6F6410180016842688368042012F028
:109728008FFF002004F00CFA08E0016842688368A3
:10973800022012F085FF002004F0F2F940F62655C9
:10974800C0F604052846002131F0D0F806A02146CD
:1097580034F05EF92846002131F0C8F811A034F041
:1097680051FE0020B0BD00BF47656E657269635F3A
:109778004C6576656C44656C74615F5365742063F1
:10978800616C6C6261636B207265636569766564A0
:1097980020666F7220656C656D656E742025642087
:1097A8000D0A00002338323039210D00014640F2FD
:1097B8009310C2F20000825C00200A70704700001B
:1097C800014602EB420040F29412C2F2000212F883
:1097D800203002EB80000B7042784A7082788A70E1
:1097E800C2780020CA707047014602EB820040F23E
:1097F800A012C2F20002125C00200A70704700003A
:1098080002EB820140F2A012C2F200020A4453782D
:109818000146037090784870D078887012790020DB
:10982800CA707047014640F2A610C2F2000010F854
:10983800122000200A707047B0B5B0F900101C461D
:1098480003EB430240F2941340F2A81CC2F2000357
:1098580021EAE170C2F2000C23F8220040F642121D
:10986800BCF80030C2F20002108098424FF00003AA
:1098780047F6F54298BF012391424FF00002C8BF56
:10988800012200251A430029C8BF012505EA020163
:1098980040F64012C2F20002117047F6FF71002232
:1098A800ACF800002EF04AF940F2AC13C2F2000303
:1098B800188019685A689B68042012F0C1FE40F6A7
:1098C8008A55C0F604052846002131F00FF840F605
:1098D800E540C0F60400214634F09AF828460021F5
:1098E80031F004F804A0214634F092F80220214611
:1098F8002DF096F90020B0BD233832303621666F3E
:109908007220656C656D656E74496E646578202596
:1099180064200D0A0000000000207047B0B540F236
:10992800941C1C4601684268806803EB4303C2F23A
:10993800000C0CEB8305A8606A6040F63E55C0F643
:1099480004054CF823102846002130F0CFFF06A06C
:10995800214634F05DF82846002130F0C7FF11A0F9
:1099680034F050FD0020B0BD47656E657269635FD5
:109978004C6576656C4D6F76655F536574206361E1
:109988006C6C6261636B20726563656976656420DF
:10999800666F7220656C656D656E74202564200D98
:1099A8000A000000233832304221200D0000000058
:1099B80070B51C46002B47D1027840F2A016B0F8CB
:1099C800013001F0FE05C2F20006022D3270A6F841
:1099D800013015D140F2AC15C2F200052B80296880
:1099E8006A68AB680546042012F02AFEB5F8031031
:1099F800B6F80100A6F80310884225D108BB0FE08D
:109A0800012908BF012A0FD040F2AC10C2F20000B1
:109A180001210180016842688368022012F010FE6B
:109A2800002004F07DF80FE040F2AC10C2F2000014
:109A380047F6F6410180016842688368042012F005
:109A4800FFFD002004F07CF840F65555C0F60405EB
:109A58002846002130F04AFF40F65E40C0F6040078
:109A6800214633F0D5FF2846002130F03FFF05A0FE
:109A7800214633F0CDFF012021462DF0D1F80020FA
:109A880070BD00BF233832303221666F7220656C9A
:109A9800656D656E74496E646578202564200D0ACD
:109AA800000000002DE9F04F81B040F6A277C0F623
:109AB80004070C468046384600211E4630F016FF43
:109AC8001CA0314633F0A4FF3846002130F00EFFC9
:109AD80027A034F097FC44B340F6A27608F1020BB5
:109AE80008F1010A0025C0F604060EE0D94629A7A8
:109AF8003046002130F0FAFE99F80010384633F06D
:109B080087FF0135E8B284420FD9E8B250B1022884
:109B1800ECD00128F5D140F65E77D146C0F60407AF
:109B2800E6E700BFC14614A7E2E7002001B0BDE8A0
:109B3800F08F00BF47656E657269635F4F6E4F6651
:109B4800665F5374617475732063616C6C626163E2
:109B58006B20726563656976656420666F7220653F
:109B68006C656D656E74202564200D0A0000000088
:109B78002338323034210D0050726573656E7420BD
:109B88004F6E4F66662076616C75653A2025640ACB
:109B98000D00000052656D61696E696E6720546939
:109BA8006D652076616C75653A2025640A0D0000A4
:109BB80070B5007840F2A61640F66D55C2F2000660
:109BC800C0F6040526F81300284600211C4630F08C
:109BD8008DFE0EA0214633F01BFF2846002130F0F1
:109BE80085FE40F69F40C0F60400214633F010FF82
:109BF80036F81400012805D145F24420C2F20000CD
:109C080001210170FFF7F0FA002070BD23383231CE
:109C1800332120666F7220656C656D656E74496EC0
:109C2800646578202564200D0A0000002DE9F041C4
:109C380040F6BD77C0F604070C46054638460021B5
:109C48001E4630F053FE12A0314633F0E1FE38468E
:109C5800002130F04BFE1EA034F0D4FBACB140F62E
:109C6800BD780026C0F604081BA703E00136F0B251
:109C780084420AD93006F9D14046002130F036FE38
:109C88002978384633F0C4FEF0E70020BDE8F081BB
:109C980047656E657269635F506F7765724F6E4F87
:109CA80066665F5374617475732063616C6C62617E
:109CB800636B20726563656976656420666F7220E0
:109CC800656C656D656E74202564200D0A000000C2
:109CD8002338323132210D004F6E20506F77657274
:109CE8002075702076616C75653A2025640A0D0030
:109CF80070B501884288044618A033F089FE617B5C
:109D080041F25740C0F6040033F082FE607B002821
:109D180008BF01F01FFD607B002818BF70BD1FA0A1
:109D280033F076FE207B88B141F665150026C0F633
:109D3800040500BFA0680178284633F069FEA068D2
:109D4800217B013601308E42A060F3D341F62C50BE
:109D5800C0F60400BDE8704034F054BB4170704B4D
:109D6800657920416464207265636569766564205D
:109D7800666F72206E65744B6579496E64657820EC
:109D8800252E32782C206170704B6579496E646598
:109D98007820252E3278200D0A0000004170704B83
:109DA80065792069733A200010B582B00446007ABC
:109DB800002808BF01F0CEFC217862686388247A05
:109DC80041F2CA70C0F60400009433F021FE02B0DC
:109DD80010BD000010B504460188428841F6DC0039
:109DE800C0F6040033F014FE617B41F25740C0F620
:109DF800040033F00DFE607B002818BF10BDBDE8DD
:109E0800104001F0A7BC000070B50188044619A0F5
:109E180033F0FEFDA17A41F25740C0F6040033F05A
:109E2800F7FDA07A002808BF01F094FCA07A00286A
:109E380018BF70BD19A034F0E5FA208988B141F641
:109E480065150026C0F6040560680188284633F0C9
:109E5800DFFD606801362189F2B20230914260600C
:109E6800F2D841F62C50C0F60400BDE8704034F03A
:109E7800C9BA00BF417070204B6579204C69737472
:109E880020666F72206E65744B6579496E646578DB
:109E980020252E3278206973200D0A004170704BFE
:109EA800657920496E6465786573206172653A202A
:109EB8000D00000010B582B00446007A002808BFE3
:109EC80001F048FC217862686388247A41F6310001
:109ED800C0F60400009433F09BFD02B010BD0000F2
:109EE80070B504460188428841F69A00C0F604001D
:109EF80033F08EFD617B41F25740C0F6040033F029
:109F080087FD607B002808BF01F024FC607B0028E7
:109F180018BF70BD10A033F07BFD207B80B141F6E7
:109F280065150026C0F60405A0680178284633F0B8
:109F38006FFDA068217B013601308E42A060F3D30B
:109F480041F62C50C0F6040034F05CFA07A0BDE8D6
:109F5800704034F057BA00BF55706461746564206E
:109F68004170704B65792069733A200049742077F5
:109F7800696C6C206265207265706C616365642031
:109F88006279206F6C64206170704B65792061661E
:109F9800746572204B657920526566726573682016
:109FA8000D00000070B50188044618A033F030FD9C
:109FB800617B41F25740C0F6040033F029FD607B15
:109FC800002808BF01F0C6FB607B002818BF70BDE1
:109FD8001AA033F01DFD207B80B141F665150026DF
:109FE800C0F6040560680178284633F011FD606802
:109FF800217B013601308E426060F3D341F62C504C
:10A00800C0F60400BDE8704034F0FCB94E65742019
:10A018004B6579204164642072656365697665647F
:10A0280020666F72206E65744B6579496E64657839
:10A0380020252E3278200D0A000000004E65744B52
:10A0480065792069733A200010B50188044609A093
:10A0580033F0DEFC617B41F25740C0F6040033F078
:10A06800D7FC607B002818BF10BDBDE8104001F088
:10A0780071BB00BF4E6574204B65792044656C65E3
:10A08800746520726563656976656420666F722001
:10A098006E65744B6579496E646578202564200D7A
:10A0A8000A00000070B50446817941F25740C0F6B5
:10A0B800040033F0ADFCA079002808BF01F04AFB8A
:10A0C8000FA034F09FF9A08888B141F665150026E5
:10A0D800C0F6040520680188284633F099FC2068FA
:10A0E8000136A188F2B2023091422060F2D841F6DE
:10A0F8002C50C0F60400BDE8704034F083B900BFAE
:10A108004E65744B657920496E6465786573206186
:10A1180072653A200D00000070B5018804461AA047
:10A1280033F076FC617B41F25740C0F6040033F00F
:10A138006FFC607B002808BF01F00CFB607B0028E7
:10A1480018BF70BD1CA033F063FC207B80B141F6C2
:10A1580065150026C0F6040560680178284633F0C6
:10A1680057FC6068217B013601308E426060F3D372
:10A1780041F62C50C0F6040034F044F913A0BDE8B1
:10A18800704034F03FB900BF4E6574204B657920AC
:10A1980055706461746520726563656976656420CD
:10A1A800666F72206E65744B6579496E64657820B8
:10A1B8002564200D0A0000005570646174656420F0
:10A1C8004E65744B65792069733A000049742077AD
:10A1D800696C6C206265207265706C6163656420CF
:10A1E8006279206F6C64206E65744B6579206166B6
:10A1F800746572204B6579205265667265736820B4
:10A208000D000000B0B586B00446417C41F25740CD
:10A21800C0F6040033F0FCFB607C002808BF01F0A6
:10A2280099FA6089217B2278636894F80EC094F8C3
:10A238000FE0257C647B8DE8015041F26B40C0F64D
:10A2480004000395049433F0E3FB06B0B0BD0000AE
:10A2580010B504464168027841F28670C0F60400E1
:10A2680033F0D6FB6168B1F5885F18BF10BD204692
:10A27800BDE810402EF076BD10B50446817A41F253
:10A288005740C0F6040033F0C3FBA07A002808BF8B
:10A2980001F060FA94F80BC041F26C5021786268C2
:10A2A800238941F2C654C0F60400C0F60404BCF188
:10A2B800000F08BF2046BDE8104033F0A9BB0000DE
:10A2C80010B50446817A41F25740C0F6040033F0D5
:10A2D8009FFBA07A002808BF01F03CFAE07A50B151
:10A2E80021786268238941F21860C0F60400BDE84D
:10A2F800104033F08DBB207B2178626838B141F67D
:10A308001E10C0F60400BDE8104033F081BB23895D
:10A3180041F27960C0F60400BDE8104033F078BB24
:10A3280010B50446817A41F25740C0F6040033F074
:10A338006FFBA07A002808BF01F00CFA94F80BC054
:10A3480041F2CE6021786268238941F22E74C0F60A
:10A358000400C0F60404BCF1000F08BF2046BDE8A5
:10A36800104033F055BB000045F6CC61C2F2000145
:10A378000A6802700A68120A42704A888270CA78AB
:10A38800C27000200860704710B54BF6AD02C0F6E9
:10A3980003020820002131F057F947F28014C2F275
:10A3A80000044BF6B503C0F6030300202146002243
:10A3B80010F02CFE20784CF25821C0F2120110F057
:10A3C8007BFF2FF0A3F949F28912C0F60002802022
:10A3D8000021BDE8104031F037B90000B0B540F2B7
:10A3E800AA14C2F20004012020700020002503F006
:10A3F800A7FB4FF4FA700CF071FF0020257003F0F2
:10A408008FFB4FF4FA700CF069FF0020B0BD00001C
:10A4180040F2AA10C2F20000007810B1002003F048
:10A428008FBB002003F07CBB002070472DE9F04F64
:10A4380081B041F21747C0F604070C460546384676
:10A4480000211E4630F052FA24A0314633F0E0FADB
:10A458003846002130F04AFA2FA033F0D3FF002C01
:10A4680038D041F2174B41F267280027C0F6040B99
:10A47800C0F604080FF2C0090FF2A40A002605E08E
:10A488000A4633F0C5FA0136B44223D0052EFAD86D
:10A49800DFE806F00C030C170C0E5846002130F0CC
:10A4A80025FA687847EA00214046E9E7AF5DEAE720
:10A4B8005846002130F01AFA687947EA00215046D8
:10A4C800DEE75846002130F011FAE87847EA002123
:10A4D8004846D5E7002001B0BDE8F08F4C696768B1
:10A4E800745F43746C5F44656661756C7453746122
:10A4F8007475732063616C6C6261636B2072656351
:10A50800656976656420666F7220656C656D656E39
:10A5180074202564200D0A002338323638210D00B6
:10A5280044656C74612055563A2030782578202887
:10A538002564290A0D00000054656D706572617408
:10A548007572653A203078257820282564290A0D07
:10A5580000000000002070472DE9F04F81B041F263
:10A56800A127C0F604070C460546384600211E46BA
:10A5780030F0BCF940F6DD70C0F60400314633F027
:10A5880047FA3846002130F0B1F923A033F03AFFFA
:10A59800002C3DD041F2A12B41F20B1A41F20028C8
:10A5A80041F289190027C0F6040BC0F6040AC0F668
:10A5B8000408C0F60409002604E000BFAF5D0136B8
:10A5C800B44225D086B126F002000128F6D0042E28
:10A5D80011D0022EF3D15846002130F087F9A8781F
:10A5E80047EA002148460FE05846002130F07EF93E
:10A5F8002978504608E05846002130F077F9287944
:10A6080047EA0021404600BF0A4633F001FAD6E780
:10A61800002001B0BDE8F08F2338323633210D0019
:10A62800002070472DE9F04F81B041F20837C0F69D
:10A6380004070C460546384600211E4630F056F9F8
:10A6480034A0314633F0E4F93846002130F04EF9B1
:10A6580040A033F0D7FE002C57D041F2083641F223
:10A66800401A41F224174FF00008C0F60406C0F65D
:10A67800040A0FF2E80BC0F604074FF0000906E0E1
:10A688000A4633F0C5F909F101094C453DD0B9F145
:10A69800080FF8D8DFE809F00E2D0E110E1D0E0573
:10A6A80026003046002130F021F9E87948EA0021F7
:10A6B8005846E5E715F80980E5E73046002130F00F
:10A6C80015F9E87848EA002141F2E900C0F60400EB
:10A6D800D6E73046002130F009F9687948EA0021C8
:10A6E8005046CDE73046002130F000F9297A384647
:10A6F800C6E73046002130F0F9F8687848EA0021CA
:10A7080041F26410C0F60400BAE7002001B0BDE8C9
:10A71800F08F00BF4C696768745F43746C54656D53
:10A7280070657261747572655F53746174757320B6
:10A7380063616C6C6261636B2072656365697665E1
:10A748006420666F7220656C656D656E7420256483
:10A75800200D0A002338323636210D005461726705
:10A7680065742043544C2044656C74612055563AF6
:10A77800203078257820282564290D0A000000005B
:10A78800002070472DE9F04F81B041F25B37C0F6E9
:10A7980004070C460546384600211E4630F0A6F848
:10A7A80033A0314633F034F93846002130F09EF8B2
:10A7B8003DA033F027FE002C55D041F25B3641F224
:10A7C800401B4FF00008C0F604060FF2001AC0F64E
:10A7D800040B37A74FF0000907E000BF0A4633F023
:10A7E80017F909F101094C453DD0B9F1080FF8D81E
:10A7F800DFE809F00E2D0E110E1D0E05260030465D
:10A80800002130F073F8E87948EA00215846E5E776
:10A8180015F80980E5E73046002130F067F8E87858
:10A8280048EA002141F26410C0F60400D6E7304639
:10A83800002130F05BF8687948EA00215046CDE7FE
:10A848003046002130F052F8297A3846C6E73046BB
:10A85800002130F04BF8687848EA002141F2A01056
:10A86800C0F60400BAE7002001B0BDE8F08F00BFD1
:10A878004C696768745F43746C5F53746174757373
:10A888002063616C6C6261636B20726563656976D5
:10A89800656420666F7220656C656D656E74202531
:10A8A80064200D0A000000002338323630210D00E4
:10A8B80052656D61696E696E672054696D653A30DD
:10A8C80078257820282564290D0A000054617267CC
:10A8D80065742043544C204C696768746E657373C3
:10A8E8003A203078257820282564290D0A000000B0
:10A8F80000207047002070470020704700207047F4
:10A9080000207047002070470020704700207047E3
:10A9180000207047002070470020704700207047D3
:10A9280040F21001C2F200010B2312FB031213794B
:10A9380001460370527900204A70704740F21001B6
:10A94800C2F200010B2312FB031293780146037035
:10A95800D27800204A707047014640F25C20C2F26B
:10A96800000010F8123000EB42000B7040780B2307
:10A97800487040F21000C2F2000012FB0300827817
:10A988008A70C2780020CA707047000040F2100137
:10A99800C2F200010B2312FB0312937901460370E4
:10A9A800D0794870107A8870507AC870927A0020EE
:10A9B8000A71704740F2100C0B230146C2F2000CDA
:10A9C80002FB03F01CF8000012FB03C20870507869
:10A9D800487090788870D2780020CA70704700005C
:10A9E800002070472DE9F04F81B041F2F937C0F6E9
:10A9F80004070C460546384600211E462FF076FF10
:10AA080024A0314633F004F8384600212FF06EFFB9
:10AA18002FA033F0F7FC002C38D041F2F93B41F27B
:10AA280067280027C0F6040BC0F604080FF2C00917
:10AA38000FF2A40A002605E00A4632F0E9FF0136C3
:10AA4800B44223D0052EFAD8DFE806F00C030C1721
:10AA58000C0E584600212FF049FF687847EA00217C
:10AA68004046E9E7AF5DEAE7584600212FF03EFF90
:10AA7800687947EA00215046DEE7584600212FF062
:10AA880035FFE87847EA00214846D5E7002001B0BD
:10AA9800BDE8F08F4C696768745F48736C446566FD
:10AAA80061756C745F5374617475732063616C6C49
:10AAB8006261636B20726563656976656420666FA1
:10AAC8007220656C656D656E74202564200D0A0022
:10AAD8002338323743210D005361747572617469EC
:10AAE8006F6E3A203078257820282564290A0D00D1
:10AAF8004875653A203078257820282564290A0D7C
:10AB080000000000002070472DE9F04F81B041F2AD
:10AB18002A37C0F604070C460546384600211E466B
:10AB28002FF0E4FE28A0314632F072FF38460021AB
:10AB38002FF0DCFE32A033F065FC002C3FD041F250
:10AB48002A3B00276FF00206C0F6040B0FF2B80983
:10AB58000FF2CC0A4FF0000806E000BF15F80870A5
:10AB680008F1010844452AD018EA060FF6D0B8F1D2
:10AB7800040F17D0B8F1030F0BD0B8F1010FEFD1C4
:10AB8800584600212FF0B2FE687847EA0021504667
:10AB980011E0584600212FF0A9FEE87847EA002185
:10ABA800484608E0584600212FF0A0FE297941F2D6
:10ABB8003020C0F604000A4632F02AFFD0E7002011
:10ABC80001B0BDE8F08F00BF4C696768745F4873D7
:10ABD8006C4875655F5374617475732063616C6C40
:10ABE8006261636B20726563656976656420666F70
:10ABF8007220656C656D656E74202564200D0A00F1
:10AC08002338323731210D0054617267657420484A
:10AC180075653A203078257820282564290A0D00A2
:10AC280050726573656E74204875653A20307825D2
:10AC38007820282564290A0D0000000000207047AC
:10AC48002DE9F04F81B041F2EC27C0F604070C461D
:10AC58000546384600211E462FF048FE33A03146EF
:10AC680032F0D6FE384600212FF040FE3EA033F0E9
:10AC7800C9FB002C55D041F2EC2641F27E2A4FF058
:10AC88000008C0F60406C0F6040A0FF2081B38A72D
:10AC98004FF0000907E000BF0A4632F0B9FE09F19B
:10ACA80001094C453DD0B9F1080FF8D8DFE809F0A3
:10ACB8002F0E110E1D0E050E2600304600212FF016
:10ACC80015FEA87948EA00215846E5E715F80980F5
:10ACD800E5E7304600212FF009FEA87848EA002170
:10ACE80041F24C20C0F60400D6E7304600212FF090
:10ACF800FDFD287948EA00215046CDE7304600217D
:10AD08002FF0F4FD287A48EA00213846C4E7304697
:10AD180000212FF0EBFD297841F21720C0F604003E
:10AD2800BAE7002001B0BDE8F08F00BF4C69676842
:10AD3800745F48736C52616E67655F5374617475B4
:10AD4800732063616C6C6261636B20726563656913
:10AD580076656420666F7220656C656D656E74201B
:10AD68002564200D0A0000002338323745210D00E4
:10AD780053617475726174696F6E2052616E676594
:10AD8800204D61783A203078257820282564290AD2
:10AD98000D00000053617475726174696F6E205202
:10ADA800616E6765204D696E3A20307825782028D5
:10ADB8002564290A0D000000002070472DE9F04F96
:10ADC80081B041F27237C0F604070C460546384692
:10ADD80000211E462FF08AFD28A0314632F018FEC9
:10ADE800384600212FF082FD34A033F00BFB002CF5
:10ADF8003FD041F2723B00276FF00206C0F6040B09
:10AE08000FF2C0090FF2DC0A4FF0000806E000BF9D
:10AE180015F8087008F1010844452AD018EA060F09
:10AE2800F6D0B8F1040F17D0B8F1030F0BD0B8F172
:10AE3800010FEFD1584600212FF058FD687847EAF6
:10AE48000021504611E0584600212FF04FFDE878C8
:10AE580047EA0021484608E0584600212FF046FD01
:10AE6800297941F23020C0F604000A4632F0D0FDBC
:10AE7800D0E7002001B0BDE8F08F00BF4C696768DB
:10AE8800745F48736C53617475726174696F6E5F37
:10AE98005374617475732063616C6C6261636B20B9
:10AEA800726563656976656420666F7220656C6596
:10AEB8006D656E74202564200D0A00002338323732
:10AEC80035210D0054617267657420536174757281
:10AED8006174696F6E3A20307825782028256429B6
:10AEE8000A0D000050726573656E742053617475A5
:10AEF800726174696F6E3A2030782578202825644D
:10AF0800290A0D00002070472DE9F04F81B041F269
:10AF18004437C0F604070C460546384600211E464D
:10AF28002FF0E4FC2AA0314632F072FD38460021A9
:10AF38002FF0DCFC34A033F065FA002C44D041F249
:10AF4800443641F2302B0027C0F604060FF2DC0924
:10AF58000FF2BC0AC0F6040B4FF0000806E00A46E0
:10AF680032F056FD08F1010844452DD0B8F1060F1E
:10AF7800F8D8DFE808F00D040D200D101900304650
:10AF880000212FF0B3FC687847EA00212DA0E6E7FE
:10AF980015F80870E6E7304600212FF0A7FC68791D
:10AFA80047EA00215046DAE7304600212FF09EFCA0
:10AFB800A9795846D3E7304600212FF097FCE87866
:10AFC80047EA00214846CAE7002001B0BDE8F08FF3
:10AFD8004C696768745F48736C5F53746174757308
:10AFE8002063616C6C6261636B207265636569766E
:10AFF800656420666F7220656C656D656E742025CA
:10B0080064200D0A000000002338323738210D0073
:10B0180048534C2053617475726174696F6E3A209D
:10B028003078257820282564290A0D0048534C20BB
:10B038004875653A203078257820282564290A0D36
:10B048000000000048534C204C696768746E6573B3
:10B05800733A203078257820282564290A0D0000C5
:10B06800B0B5054600881C4600284FF0000002D005
:10B0780002F066FD01E002F053FD40F2100128885D
:10B08800C2F200010B2240F6D46514FB0211C0F68F
:10B0980004058880284600212FF028FC09A033F0F9
:10B0A800B1F9284600212FF021FC40F62E60C0F6A9
:10B0B8000400214632F0ACFC032021462BF0B0FD01
:10B0C8000020B0BD233832353921200D00000000A2
:10B0D8002DE9F04381B041F2D437C0F604070C469D
:10B0E8000546384600211E462FF000FC41F2A60016
:10B0F800C0F60400314632F08BFC384600212FF0B0
:10B10800F5FB41F29920C0F6040033F07BF9ECB16D
:10B1180041F2D4380026C0F604080FF23809002797
:10B128000EE000BF404600212FF0E0FB687846EAB9
:10B13800002148460A4632F06BFC0137BC4205D074
:10B14800012FEFD0002FF8D12E78F6E7002001B0BC
:10B15800BDE8F0834C696768746E65737320446555
:10B168006661756C743A2030782578202825642922
:10B178000D0A0000B0B540F21002B0F80700C2F2A4
:10B1880000020B2340F6F66411FB0325C0F6040405
:10B198006880204600212FF0A9FB06A032F038FC79
:10B1A800204600212FF0A2FB698805A032F030FC70
:10B1B8000020B0BD2338323539210A0D00000000C7
:10B1C8004170706C695F4C696768745F4C69676847
:10B1D800746E6573735F4C6173745F536574204C50
:10B1E80069676874204C6173742056616C756520BA
:10B1F8003078252E3278200D0A0000002DE9F04322
:10B2080081B041F23547C0F604070C46054638467A
:10B2180000211E462FF06AFB17A0314632F0F8FBDA
:10B22800384600212FF062FB41F29920C0F6040055
:10B2380033F0E8F8E4B141F235480026C0F60408D6
:10B248000FF2740900270DE0404600212FF04EFB55
:10B25800687846EA002148460A4632F0D9FB0137A9
:10B26800BC4205D0012FEFD0002FF8D12E78F6E799
:10B27800002001B0BDE8F0834C696768745F4C69D1
:10B288006768746E6573735F4C6173745F53746140
:10B298007475732063616C6C6261636B20726563A3
:10B2A800656976656420666F7220656C656D656E8C
:10B2B80074202564200D0A004C696768746E6573F4
:10B2C80073204C6173743A203078257820282564DF
:10B2D800290D0A00B0B5408840F25C2140F6996516
:10B2E800C2F20001C0F6040521F813002846002127
:10B2F8001C462FF0FBFA40F6EB50C0F6040021463E
:10B3080032F086FB284600212FF0F0FA02A032F036
:10B318007FFB0020B0BD00BF2338323530210A0D35
:10B32800000000002DE9F04F81B041F29337C0F6DC
:10B3380004070C460546384600211E462FF0D6FA6B
:10B3480041F26400C0F60400314632F061FB384631
:10B3580000212FF0CBFA26A033F054F8002C42D06D
:10B3680041F2933B41F2C31941F2E11A00276FF011
:10B378000206C0F6040BC0F60409C0F6040A4FF032
:10B38800000805E015F8087008F1010844452AD0BE
:10B3980018EA060FF6D0B8F1040F17D0B8F1030F6A
:10B3A8000BD0B8F1010FEFD1584600212FF09EFACB
:10B3B800687847EA0021504611E0584600212FF0EE
:10B3C80095FAE87847EA0021484608E058460021FF
:10B3D8002FF08CFA297941F22410C0F604000A46AD
:10B3E80032F016FBD0E7002001B0BDE8F08F00BFB7
:10B3F8002338323532210D00B0B540F210021C4618
:10B408000178C2F200020B2314FB03229171D0F8D9
:10B41800010040F67965C0F60405C2F80700284621
:10B4280000212FF063FA08A032F0F2FA2846002132
:10B438002FF05CFA40F6A250C0F60400214632F024
:10B44800E7FA0020B0BD00BF233832354221200A78
:10B458000D0000002DE9F04F81B041F2C927C0F678
:10B4680004070C460546384600211E462FF03EFAD2
:10B4780041F22300C0F60400314632F0C9FA3846DA
:10B4880000212FF033FA23A032F0BCFF002C3DD06E
:10B4980041F2C92B41F20B1A41F2002841F28919F5
:10B4A8000027C0F6040BC0F6040AC0F60408C0F66C
:10B4B8000409002604E000BFAF5D0136B44225D080
:10B4C80086B126F002000128F6D0042E11D0022EF3
:10B4D800F3D1584600212FF009FAA87847EA00214D
:10B4E80048460FE0584600212FF000FA29785046C8
:10B4F80008E0584600212FF0F9F9287947EA002199
:10B50800404600BF0A4632F083FAD6E7002001B071
:10B51800BDE8F08F2338323538210D00F0B581B001
:10B5280040F6BA66C0F604060546304600211C46B9
:10B5380000272FF0DBF927A032F06AFA3046002105
:10B548002FF0D4F92A88B5F8073025A0214632F023
:10B558005FFA40F210012888C2F200010B2214FBA6
:10B5680002136243885240F6421240F2B816B5F808
:10B578000710C2F20002C2F20006002818BF0146F6
:10B58800128835885980AA424FF0000147F6F543E2
:10B5980098BF01219A4288BF01273943002A328087
:10B5A80018BF0122114040F64012C2F20002117089
:10B5B8004FF6FF7100222CF0C1FA40F2AC11C2F232
:10B5C80000010880032021462BF02AFB002001B04F
:10B5D800F0BD00BF2338323443210A0D00000000BB
:10B5E800456C656D656E7420696E646578202564A8
:10B5F8002070726573656E74203078252E3278203D
:10B608006C617374203078252E32780D0A000000A2
:10B618002DE9F04F81B041F2B737C0F604070C4668
:10B628000546384600211E462FF060F92AA031460B
:10B6380032F0EEF9384600212FF058F935A032F0F3
:10B64800E1FE002C43D041F2B73B41F2C31941F26D
:10B65800E11A00276FF00206C0F6040BC0F60409D1
:10B66800C0F6040A4FF0000806E000BF15F808709D
:10B6780008F1010844452AD018EA060FF6D0B8F1B7
:10B68800040F17D0B8F1030F0BD0B8F1010FEFD1A9
:10B69800584600212FF02AF9687847EA00215046D9
:10B6A80011E0584600212FF021F9E87847EA0021F7
:10B6B800484608E0584600212FF018F9297941F248
:10B6C8002410C0F604000A4632F0A2F9D0E70020A0
:10B6D80001B0BDE8F08F00BF4C696768745F4C69C2
:10B6E8006768746E6573735F5374617475732063F0
:10B6F800616C6C6261636B20726563656976656411
:10B7080020666F7220656C656D656E7420256420F7
:10B718000D0A00002338323445210D0010B54AF6D1
:10B72800F840C2F20000006804212BF0C9FF04466B
:10B7380040B140F6D400C0F60400214632F068F962
:10B74800204610BD40F64920C0F6040032F05AFEEB
:10B75800204610BD80B510F0CDF850B101F04AF97F
:10B76800002818BF80BD41F62A50C2F2000001210E
:10B77800017080BD81B08DF803004AF6E440C2F242
:10B7880000000068406801B070470000B0B583B0A1
:10B7980094468E46044609980899079A02948DF8AB
:10B7A80007E08DF806C0ADF80430ADF802208DF83A
:10B7B80001108DF8000002990120087002990020FC
:10B7C8004870029988700299C8700299087103B08C
:10B7D800B0BD000081B08DF803004AF6E440C2F223
:10B7E80000000068006901B07047000080B541F6AC
:10B7F8003050C2F200000178012907D10021017000
:10B8080010F078F810B101202EF0F8F910F072F865
:10B81800B8B110F075F8A0B141F63150C2F200008D
:10B82800017871B9012101700BF03CFA012802D0AE
:10B83800032009F0A9FE40F61030C0F6040032F0EB
:10B84800E1FD40200021BDE8804030F011B8000043
:10B8580041F63650C2F200000078002818BF704741
:10B8680080B501F08DFC0A200BF038FDFDF702FFD2
:10B87800002009F089FE40F68F10C0F6040032F06F
:10B88800C1FD01F0B3FA30F0B7FA000080B582B01C
:10B898008DF807004AF6EC40C2F200000068016922
:10B8A8009DF80700884702B080BD00002DE9F041EF
:10B8B800054690F8008045F20820C2F200000C46C8
:10B8C80080F8008018A000212FF010F829781CA01B
:10B8D800224632F09DF85CB100201EA6002700BF6A
:10B8E800295C304632F094F80137B8B28442F7D870
:10B8F8004FF69E60C0F6030032F08AF8B8F1010FE7
:10B908001CBF0120BDE8F08145F20820C2F200000A
:10B9180029462246FBF711FD40F29030C2F20000A2
:10B9280004800020BDE8F0814170706C695F566545
:10B938006E646F725F446174615F777269746500E9
:10B948002330452D2530326878202530326C782117
:10B95800200A0D0025303268782000002DE9F04FCC
:10B9680083B00546067845F20820C2F2000006704A
:10B9780040F63440C0F60400002100242EF0B6FF43
:10B98800297853A032F044F8701E032800F29A80F8
:10B99800DFE800F002084C9940F29030C2F2000053
:10B9A80002218CE000F01AFF04783CB340F63448DA
:10B9B800471C00250DF102090FF23C1AC0F60408D5
:10B9C8000FF2481B13E000BFE0B201F02BF8044669
:10B9D80009F806005E46404600212EF087FF3046F3
:10B9E800214632F015F817F8014B013534B1EEB2A3
:10B9F8002E2C09F80640E7D15646ECE7BDF80200C0
:10BA080045F20822BDF80510C2F20002A2F80100B2
:10BA18009DF80800A2F80310BDF80910507140F213
:10BA28009030D180C2F20000082148E000F0D0FE3A
:10BA380004785CB340F6044B40F63449471C0025B3
:10BA48000DF1020AC0F6040BC0F604090FF29008C3
:10BA58000DE000BF5E46484600212EF047FF304605
:10BA6800214631F0D5FF17F8014B013574B1EEB21C
:10BA78002E2C0AF80640EDD0522CEBD0E0B200F0A4
:10BA8800D1FF04460AF806004646E4E7BDF802007E
:10BA980045F20827C2F20007A7F801009DF8050043
:10BAA8009DF807109DF809209DF80B30F87040F2BA
:10BAB800903039717A71BB71C2F2000007210180A0
:10BAC800002400E00124204603B0BDE8F08F00BF49
:10BAD8002330322D253032687821200A0D000000ED
:10BAE800537562204C69622076657273696F6E20A7
:10BAF80069732025780A0D004C6962207665727397
:10BB0800696F6E2069732025630A0D004C696220F5
:10BB180076657273696F6E2069732025780A0D0047
:10BB28002DE9F04381B0064690F8008040F61C40AD
:10BB3800C0F604000021154600272EF0D7FE317804
:10BB48007CA031F065FFA8F1010005284FF001093C
:10BB580000F2CE800024DFE800F003502ACC718D7B
:10BB680040F61C40C0F6040000214FF000092EF0FA
:10BB7800BDFE40F65930C0F60400294631F048FFB2
:10BB880040F2AC10C2F2000047F6F64101800168AD
:10BB980042688368042010F053FD002001F0D0FFB4
:10BBA80040F2AA10C2F20000012101709FE040F6A5
:10BBB8001C40C0F6040000214FF000092EF096FE4C
:10BBC80040F68F30C0F60400294631F021FF40F2DC
:10BBD800AA14C2F200042078012874D140F2AC10F3
:10BBE800C2F20000012101800168426883680420D4
:10BBF80010F026FD84F800901EE040F61C40C0F6C8
:10BC0800040000214FF000092EF070FE5DA02946C7
:10BC180031F0FEFE40F2AC10C2F2000001210180BA
:10BC2800016842688368042010F00AFD40F2AA10F7
:10BC3800C2F2000080F80090002018E040F61C4096
:10BC4800C0F6040000212EF051FE40F6C930C0F6BF
:10BC58000400294631F0DCFE707840F2AA11C2F2E5
:10BC68000001012808703DD000204FF0000901F0C4
:10BC780057FF3CE040F61C40C0F6040000212EF0BF
:10BC880035FE30A0294631F0C3FE7778B47847F600
:10BC9800FF7147EA042000222BF050FF054640F2CE
:10BCA800AC10C2F200000580016842688368042075
:10BCB80010F0C6FC00204FF00009B5F57A5F35D9C1
:10BCC80001F03EFF15E040F2AC10C2F2000047F66A
:10BCD800F6410180016842688368042010F0B0FCD6
:10BCE8000120207000204FF0000901F029FF0027F3
:10BCF800002445F20820C2F20000B8F1060F80F8CF
:10BD0800008003D144708770032106E040F2AA1135
:10BD1800C2F2000109784170022140F29032C2F269
:10BD280000024846118001B0BDE8F08301F0F8FE3A
:10BD3800DFE700BF2330332D2530326878210A0D24
:10BD4800000000004170706C695F4C45445F496EAB
:10BD580074656E736974792063616C6C6261636B7E
:10BD680020726563656976656420666F7220656C0C
:10BD7800656D656E74496E646578202564200D0ACA
:10BD8800000000004170706C695F4C45445F4F468D
:10BD9800462063616C6C6261636B207265636569E0
:10BDA80076656420666F7220656C656D656E744992
:10BDB8006E646578202564200D0A0000B0B584B053
:10BDC80001F0E6F928B1002001F0BAFE012004B024
:10BDD800B0BD0020002501F0A3FE40F20C22C2F203
:10BDE8000002136C108892F844100124CDE9003544
:10BDF800931C0E22029401F0B1F804B0B0BD00000B
:10BE0800F0B581B040F20C270E46C2F20007154685
:10BE18000146B81C32461C46FBF78FFA00203C80CE
:10BE28003E643C2E88BF032087F8445001B0F0BD23
:10BE38002DE9F0410446077845F2082840F64C40C1
:10BE48000D46C2F20008C0F60400002188F8007010
:10BE580000262EF04BFD217820A031F0D9FDF81EE8
:10BE6800032837D3022F19D0062F32D19DB14FF6B0
:10BE78009E6700210FF27408C0F60307002600BF72
:10BE8800625C404631F0C4FD384631F0C1FD0136F0
:10BE9800F1B28D42F4D80020BDE8F0813D2D0AD3DF
:10BEA80040F64C40C0F6040000212EF01FFD13A000
:10BEB80032F0A8FA3C25611C6A1E08F10100FBF764
:10BEC8003CFA40F29030C2F2000005800020BDE844
:10BED800F08101263046BDE8F08100BF2330312DC6
:10BEE800253032687821200A0D00000064617461F1
:10BEF8005B25645D3D202564000000004C656E678D
:10BF08007468207265636569766564206772656127
:10BF1800746572207468616E2073697A65206F6633
:10BF280020726573706F6E736520627566666572E0
:10BF3800200D000040F2FC12C1EBC101C2F2000268
:10BF480002EB4101002200BF31F81230984204BFD1
:10BF5800012070470132072A04BF00207047F3E729
:10BF680040F25422C2F2000202EBC101002200BFDB
:10BF780051F82230984204BF012070470132012A4B
:10BF88001CBF00207047F3E70020704710B540F24F
:10BF9800FC12C1EBC101C2F2000202EB4101002414
:10BFA8004FF6FF7231F81430934203D00134072C56
:10BFB800F8D107246200FBF7C0F9E0B210BD000019
:10BFC80010B540F25422C2F2000202EBC101002473
:10BFD8004FF6FF7251F82430934203D00134012CFC
:10BFE800F8D00224A200FBF7A8F9E0B210BD0000C7
:10BFF800B0B588B0DDF844C0DDF840C0DDF83CC01D
:10C00800DDF838C0DDF834C0DDF830C0079006919F
:10C01800059204930EF036FC06980EF083FC059802
:10C028000499109A119BDDF83CC00D9CEE46002542
:10C03800CEF80850CEF80440CEF800C00EF014FB3D
:10C048000E980F99079A0EF085FA0C980D990EF034
:10C058005DFA03900EF0EEFB039808B0B0BD000047
:10C06800B0B588B0DDF844C0DDF840C0DDF83CC0AC
:10C07800DDF838C0DDF834C0DDF830C0079006912F
:10C0880005920493002003900EF0FCFB04980EF038
:10C0980049FC0C980D99109A119BDDF83CC0059C41
:10C0A800EE460125CEF80850CEF80440CEF800C080
:10C0B8000EF0DAFA0E980F99079A0EF04BFA0698D6
:10C0C80005990EF0C1FA0EF0B5FB039808B0B0BDA3
:10C0D80080B592B0119010910F920E9340F26020AB
:10C0E800C2F200000D9000200B9010980290119859
:10C0F80020B1FFE7119800F0FFF8FFE70E9890B124
:10C10800FFE70F9800F00F000B900F9830B1FFE792
:10C118000B9818B9FFE710200B90FFE70B990F98C1
:10C12800401A0F90FFE7FFE70F9870B3FFE7029BF5
:10C13800186859689A68DB680A9309920891079009
:10C14800FFE7079800BA0D990968484007900898D2
:10C1580000BA0D99496848400890099800BA0D99A5
:10C168008968484009900A9800BA0D99C9684840FA
:10C178000A90FFE70D9907A800F0B4F8029810306C
:10C1880002900F9810380F90CEE70E98002800F014
:10C198008180FFE700200A900990089007900C9092
:10C1A800FFE70C980B99884213D2FFE702990C9885
:10C1B800095C03228243D20001FA02F320F0030251
:10C1C80007A9885818438850FFE70C9801300C904D
:10C1D800E7E70020069005900490039003A90191D9
:10C1E800084600F07FF8019800F056F80B980F28E1
:10C1F80011D8FFE70B9803218143CA00802101FA77
:10C2080002F320F0030207A988581843885003A8AE
:10C2180000F042F8FFE700200C90FFE70C98032895
:10C2280014D8FFE70D980C9A50F8220003A951F88A
:10C23800221080EA010307A951F82200584041F86A
:10C248002200FFE70C9801300C90E7E70D9907A84A
:10C2580000F048F80EF0EEFAFFE70D98006800BA13
:10C2680007900D98406800BA08900D98806800BA49
:10C2780009900D98C06800BA0A90FFE70E990798D0
:10C28800089A099BDDF828C0C1F80CC08B604A6089
:10C298000860FFE712B080BD82B001900198006885
:10C2A800C00F872148430090019908684A684000F8
:10C2B80040EAD2700860019948688A68400040EAFC
:10C2C800D270486001998868CA68400040EAD27014
:10C2D80088600199CA68009880EA4200C86002B084
:10C2E8007047000080B582B00190009101980099D4
:10C2F8000EF092FA02B080BD80B584B0039040F28F
:10C308006020C2F2000002900EF0BCFA03980EF012
:10C3180009FB002001900EF02FFB01980299C860DC
:10C3280002998860029948600299086004B080BD4B
:10C3380080B588B00790069105920EF0A3FA079889
:10C348000EF0F0FA04200EF017FB069B18685968E7
:10C358009A68DB68049303920291019001A9084648
:10C368000EF05AFA0EF066FA05990198029A039BA4
:10C37800DDF810C0C1F80CC08B604A60086008B0D6
:10C3880080BD000010B54CF2C5320446C0F600026C
:10C398004FF4806000212FF057F940F2F803C2F201
:10C3A80000034FF0640C03EB840242F61920214687
:10C3B80023F824C0BDE8104000F0A6B840F2F80207
:10C3C800C2F2000242F61920002100F09DB80000D8
:10C3D80040F2F801C2F20001CA780880012A18BFA9
:10C3E80070474FF4806003212FF042BA80B582B0C5
:10C3F8004178FF2902D0002002B080BDB0F80310B8
:10C4080040F61442914212D040F601429142F2D1D4
:10C4180040F22811C2F200014988B0F80720023121
:10C428009142E8D1407B012121EA00000EE040F270
:10C438002811C2F200014988B0F807200131914261
:10C44800D9D1B0F805002FF0B3FF02208DF806000F
:10C4580000208DF807000DF1060000F035F80120E6
:10C4680002B080BDF0B587B04CF2F530C0F60000E0
:10C478002CF0E2FA41F60F0040F228150DF11A04EB
:10C48800ADF81A00C2F2000501202146012204235A
:10C498000095012604272FF02BFF42F6192135F8C5
:10C4A800020BADF81A100A2100221223CDE900323E
:10C4B800CDE90271012122460123049605952FF04A
:10C4C800A7FE07B0F0BD00000078022812D00128AE
:10C4D80009D0002818BF704740F2F800C2F20000E7
:10C4E8000121C170704740F2F800C2F2000000213B
:10C4F800C170704740F2F802C2F2000242F61920F9
:10C50800002100F001B80000944642F6192290423A
:10C5180018BF704780B582B001EB410040F2281186
:10C52800C2F2000101EB400231F8100051880022EC
:10C538000123CDF800C030F033F802B080BD000010
:10C5480082B00090009820B9FFE703208DF807001B
:10C5580009E000984AF6C041C2F2000108600020D4
:10C568008DF80700FFE79DF8070002B0704700004C
:10C5780082B00090009820B9FFE703208DF80700EB
:10C5880009E000984AF6EC41C2F200010860002078
:10C598008DF80700FFE79DF8070002B0704700001C
:10C5A80080B582B001908DF80310019820B1FFE7A3
:10C5B8009DF8030020B9FFE702208DF802000CE087
:10C5C8004AF62850C2F20000006801999DF803203D
:10C5D80005F022F88DF80200FFE79DF8020002B08E
:10C5E80080BD000080B541F62A50C2F2000001214A
:10C5F80001700FF07FF9002808BF80BD41F6305068
:10C60800C2F20000017869B90121017040F6552095
:10C61800C0F6040031F0F6FE40200021BDE880405D
:10C628002FF026B980BD00000622028040F20012D9
:10C63800C0F20232C0F8022004228271072008707A
:10C648007047000083B0029001918DF803208DF8A7
:10C65800023003B07047000010B5044608A031F05E
:10C66800D7F9601EC0B2022899BF13A151F8200063
:10C6780040F63A10C0F60400BDE8104031F0C2BEE2
:10C68800467269656E647368697020636C6561726F
:10C6980065642E204C6F7720706F776572206E6FFF
:10C6A80064652061646472657373203078252E3464
:10C6B80058200D0A000000004C090408EB08040883
:10C6C8001A090408F0B581B00F46014640F69B00F0
:10C6D800069CC0F604001D46164631F099F90DA0D7
:10C6E800394631F095F9642006FB00F113A031F0CA
:10C6F8008FF91CA0294631F08BF94CB140F66A003D
:10C70800C0F60400214601B0BDE8F04031F080B920
:10C7180001B0F0BD4C6F7720706F776572206E6F37
:10C72800646520726563656976652064656C617906
:10C738002025646D73200D0A000000004C6F7720DF
:10C74800706F776572206E6F646520706F6C6C20F7
:10C7580074696D656F757420256C646D73200D0A9E
:10C76800000000004C6F7720706F776572206E6F45
:10C778006465206E756D626572206F6620656C65F4
:10C788006D656E7473202564200D0A0081B0002049
:10C79800ADF802004AF62850C2F20000006880B1E5
:10C7A800FFE74AF67040C2F200000078012808D17D
:10C7B800FFE74AF67040C2F200004088ADF8020078
:10C7C800FFE7BDF8020001B0704700000320704782
:10C7D80042F2DA20C0F604007047000042F2A220BC
:10C7E800C0F60400704700000320704780B582B08F
:10C7F8004AF62850C2F20000006828B1FFE713F09B
:10C808000BF98DF8070003E000208DF80700FFE71B
:10C818009DF8070002B080BD0520704783B08DF8F1
:10C828000B0001910020ADF802009DF80B000428D0
:10C838004ADCFFE74AF62850C2F2000000680028E8
:10C8480041D0FFE74AF67040C2F2000000780128A4
:10C8580039D1FFE700208DF80100FFE79DF80100BE
:10C868000A282FDCFFE79DF80B104AF67040C2F249
:10C87800000000EB8100406A9DF80110C1EBC10186
:10C8880000EBC100806F0199884214D1FFE79DF841
:10C898000B104AF67040C2F2000000EB8100406ABB
:10C8A8009DF80110C1EBC10100EBC100B0F87C009C
:10C8B800ADF8020006E0FFE79DF8010001308DF8B1
:10C8C8000100CBE7FFE703E00020ADF80200FFE737
:10C8D800BDF8020003B0704780B582B04AF6285010
:10C8E800C2F20000006828B1FFE713F0EBF88DF8FA
:10C8F800070003E000208DF80700FFE79DF8070018
:10C9080002B080BD0A20704780B582B04AF6285030
:10C91800C2F20000006828B1FFE713F0E7F88DF8CD
:10C92800070003E000208DF80700FFE79DF80700E7
:10C9380002B080BD0B20704780B582B0019001988D
:10C9480030F0FAFE019819F0A5F802B080BD000099
:10C9580080B582B04AF6E440C2F2000000688269FD
:10C96800036A4BF29570C0F60000694648604BF2C6
:10C97800DD70C0F6000008604BF27D71C0F6000162
:10C98800052019F083F902B080BD00002DE9F047B9
:10C998008AB04AF6E440C2F2000001680A784B689F
:10C9A800886891F80CC091F814E04C7D8D690E7F71
:10C9B8004F7FD1F8208091F80D90D1F810A06946EA
:10C9C800C1F824A0C1F82090C1F81C808F614E6185
:10C9D8000D61CC60C1F808E0C1F804C008604BF6EE
:10C9E8009500C0F60000002119F074F90AB0BDE8FE
:10C9F800F087000080B582B04AF62850C2F20000E5
:10CA0800006821F0CDFB012804D1FFE701208DF853
:10CA1800070003E000208DF80700FFE79DF80700F6
:10CA280002B080BD3038C0B27047000080B5FFF753
:10CA3800ADFEBDE8804009F0D7BF00002DE9F04306
:10CA480083B040F2BA16C2F20006154632781C4688
:10CA580088460746A2B1501CC1B2AB225143490ACD
:10CA680001EB4101411AD6F8050006F12602904271
:10CA7800317031D0717A1C30C6F80500481C30E09E
:10CA88000120307001A830F091F90AF023FFBDF8B9
:10CA9800041041F26F22C0F28302A1FB02234FF47B
:10CAA800FA7203FB1211084400F5FA70C6F8010087
:10CAB80006F10A00C6F805000020707216A00021D1
:10CAC8002DF014FFD6F801900AF004FFA9EB00013D
:10CAD80018A030F09DFF05E006F10A00C6F8050031
:10CAE800002070727868D6F80510086038784871A8
:10CAF800788981F80480C8808C6154B100210020B5
:10CB0800D6F8052001306B5C0A44C1B28C4213721E
:10CB1800F6D803B0BDE8F083424C454D6573685FB5
:10CB28004D6F64656C7344656C61795061636B65C6
:10CB38007400000052616E646F6D697A65642074D8
:10CB4800696D653A20256C640A0D000080B592B0C5
:10CB58000FF0A2FC4EF65820C0F60300022100F0A8
