:020000040800F2
:10700000A0D80020BD720008F95803084DA201085D
:10701000C9B801086539010845BC03080000000033
:10702000000000000000000000000000798B030851
:107030006541010800000000517A03088D9B030898
:10704000D7720008D7720008D77200082D7E030897
:10705000D7720008D7720008D7720008D7720008EC
:10706000D7720008D7720008D7720008D7720008DC
:10707000D7720008D7720008D7720008D7720008CC
:10708000D7720008D7720008D7720008D7720008BC
:10709000D7720008D7720008D7720008F9410108BA
:1070A000D7720008D7720008D7720008D77200089C
:1070B000D7720008D7720008D7720008D77200088C
:1070C000D7720008D7720008D7720008D77200087C
:1070D0002DB90308C9A60108D7720008D7720008A5
:1070E000D7720008D7720008D7720008D77200085C
:1070F00041A5010845A5010869910108D77200085A
:10710000D7720008D7720008D7720008D77200083B
:10711000D7720008D7720008D7720008D77200082B
:10712000D7720008D7720008C1400108D772000862
:10713000D7720008D7720008D7720008000000005C
:10714000240904080000000081C201120812484A04
:107150000C0412303B08051C1A041059041428189A
:107160000222B842201A270C5AD80C14FFFF031A27
:10717000034A12012C3F02E14712531420305514E8
:1071800020585714208059181320418303080D8577
:10719000030841840308B582030809041AC50C1EBC
:1071A00011880308FF01111B093D4414FFFF011A58
:1071B000024812041205120EB6090DFF018314DDF8
:1071C0002A021A149145052401083CDE2A08105AA7
:1071D0002110DADB20DADC201A010C029B100000FF
:1071E000000000000000000000000000000000009F
:1071F000000000000000000000000000000000008F
:10720000000000000000000000000000000000007E
:10721000000000000000000000000000000000006E
:10722000000000000000000000000000000000005E
:10723000000000000000000000000000000000004E
:10724000000000000000000000000000000000003E
:10725000000000000000000000000000000000002E
:10726000000000000000000000000000000000001E
:107270000000000001FF01FF01FF01FF01FF01FF0E
:0C72800001FF01FF01FF01FF014A0000B7
:020000040800F2
:1072A800DFF80CD000F002FD0048004749D403087D
:1072B800A0D800200648804706480047FEE7FEE7BA
:1072C800FEE7FEE7FEE7FEE7FEE7FEE7FEE7FEE78E
:1072D800359C0308A97200082DE9F05F05460020D7
:1072E80092469B4688460646814640241BE028462F
:1072F80041464746224600F096FB53465A46C01A76
:10730800914110D311461846224600F07DFB2D1AF4
:1073180067EB01084F4622460120002100F074FB6C
:1073280017EB00094E41201EA4F10104DFDC48469A
:1073380031462A464346BDE8F09F10B5431A9342AA
:1073480009D28318881803E010F8011D03F8011DFD
:10735800521EF9D210BD40EA01039B0703D009E091
:1073680008C9121F08C0042AFAD203E011F8013B29
:1073780000F8013B521EF9D210BDD2B201E000F86C
:10738800012B491EFBD270470022F6E710B51346C1
:107398000A4604461946FFF7F0FF204610BD10B50F
:1073A800044604E00B7800F8013B03B1491C521E67
:1073B800F8D2204610BD421C10F8011B0029FBD151
:1073C800801A7047CBB203E00178994203D0401C81
:1073D800521EF9D20020704730B5044600200346FB
:1073E80000E05B1C934203D2E05CCD5C401BF8D00C
:1073F80030BD30B505460020034600E05B1C9342D3
:1074080005D2EC5CC85C201A01D1002CF6D130BD45
:107418000FB400B58DB010A909900B9000914FF0F2
:10742800FF300A9000200C90054806900548079008
:107438006A4609A80F9900F02DFB0DB05DF814FB02
:10744800B97A0008D77A00082DE9FF5F1D464FF08A
:10745800FF3BD5E9014691465F464FF00008A96910
:107468007F1C01988847296A824688470028F6D1F8
:10747800BAF1FF3F0CD024F4C064002E19DD600679
:1074880014D5BAF12B0F09D0BAF12D0F0ED103E0A4
:10749800584604B0BDE8F09F44F48064A9697F1C95
:1074A80001988847761E8246002E02DDBAF1300F19
:1074B80003D0B9F1000F26D032E0A969761E44F452
:1074C80000747F1C019888478246002E05DDBAF1BA
:1074D800780F06D0BAF1580F03D0B9F1000F10D0C9
:1074E8001EE0B9F1000F02D0B9F1100F18D1A96947
:1074F800761E24F400747F1C019888478246102069
:1075080002E0082000E00A20814609E008FB09089B
:10751800A969761E44F400747F1C01988847824646
:10752800002E05DD4946504600F09FFA0028EDDAA6
:10753800E96901988847A00502D46FF00100A8E71F
:10754800E00725D1600613D5600502D5C8F1000013
:1075580000E0404629680A1D2A600968220501D50D
:10756800087015E0220701D5088011E008600FE0D7
:107578002868011D29600068210502D580F800806F
:1075880006E0210702D5A0F8008001E0C0F80080DD
:1075980038467EE72DE9FF5FD2E901A74FF00008E2
:1075A800916999461446DDF838B0464601988847EF
:1075B800054659EA0B0005D009E0A169761C019837
:1075C80088470546216A284688470028F5D1681C5F
:1075D80003D05FEACA7005D015E04FF0FF3004B061
:1075E800BDE8F09F2068011D2160D0F800800AE006
:1075F8005FEACA7001D108F8015BA169761C7F1E99
:10760800019888470546002F1ADD681C18D0B9F183
:10761800000F0DD0E81705EBD060421120F01F00D5
:1076280059F822102A1A012090400142E0D107E0BF
:10763800BBF1000FDCD1216A284688470028D7D043
:10764800E16901988847BBF1000F07D1002E05DDDD
:107658005FEACA7002D1002188F80010A068B84219
:1076680003DDBBF1000F03D017B16FF00100B6E7DF
:107678003046B4E72DE9FE4F804681EA0300C00F8B
:107688000C46009021F0004123F00045B8EB0200C1
:10769800A94105D24046214690461C460B46024663
:1076A80023F00040104347D0270DC7F30A00C3F367
:1076B8000A510290401A019040286BDAC3F3130074
:1076C80040F4801B0098924620B10023D2EB030AB5
:1076D80063EB0B0B01985946C0F14002504600F08D
:1076E80093F906460D4650465946019A00F0ABF903
:1076F80010EB08006141002487EA115284EAE7731D
:107708001A4340D0009A62B3019A012A4FEA0752FD
:1077180015DC001B61EB02014FF0004202EA075240
:10772800CDE90042001C41F5801132462B4600F09D
:10773800EEF903B0BDE8F08F40462146F9E7001B9B
:1077480061EB0201001C41F5801300185B41201811
:10775800A2F5001747EB030140EAD570B6196D4151
:1077680011E06D084FEA360645EAC0754FEA075240
:10777800001B61EB0201001C41F5801149084FEA2A
:1077880030000019514132462B4603B0BDE8F04F96
:1077980000F0AEB90098012240000023D0EB0202AD
:1077A80063EBE073009821464FEAE074B8EB000001
:1077B80061EB0401E9E783F000435BE781F00041F6
:1077C80058E72DE9FE4F81EA030404F0004421F054
:1077D800004100944FF0000B23F0004350EA0104ED
:1077E8005ED052EA03045BD0C3F30A54C1F30A55CE
:1077F8002C44A4F2F3340194A0FB0254C1F3130106
:1078080041F48011C3F3130343F4801301FB0244D2
:1078180000FB034E840A970A44EA815447EA8357D7
:10782800A4FB076802958D0A05FB07854FEA932C90
:1078380004FB0C542705029D4FEA065847EA163701
:10784800B5EB08056EEB070C870E920E47EA811719
:1078580042EA8312A7FB0201B6EB0B0164EB0004BA
:107868002B0D43EA0C335E1844EB1C50DA465146A4
:10787800E7FB0201C5F313044FEA0B3343EA145341
:107888004FEA0432019C43EA0603A4F10C04029473
:10789800009CCDE900B400F03AF903B0BDE8F08FE0
:1078A80000200146F9E72DE9F04D81EA030404F0D0
:1078B800004B21F0004514464FF0000A23F0004128
:1078C80050EA050220D054EA01021DD0C5F30A5738
:1078D8000246C5F31303C1F31300C1F30A5640F47B
:1078E800801543F48013A7EB0608101BD64608F250
:1078F800FD3873EB050002D308F1010801E0921886
:107908005B41B8F1000F03DA00200146BDE8F08DB5
:1079180000204FF48011064684460EE0171B73EBD7
:10792800050705D3121B63EB050306434CEA010C5C
:1079380049084FEA300092185B4150EA0107EDD13F
:1079480052EA030012D082EA040083EA05010843E0
:1079580005D0101BAB4106D20122002306E000220D
:107968004FF0004302E06FF0010253101AEB0600DB
:107978004CEB085110EB0A0041EB0B01BDE8F04D50
:1079880000F0B6B80EB540F2334102910021CDE9BE
:1079980000110A460B4600F0BAF803B000BD70B5F6
:1079A800C1F30A5201F000450024C1F3130140F26B
:1079B800FF3341F480119A4201DA002070BD40F291
:1079C80033439A42A2F2334203DC524200F02BF8CE
:1079D80000E090402C43F1D0404270BD30B50B46DA
:1079E800014600202022012409E021FA02F59D42E7
:1079F80005D303FA02F5491B04FA02F52844151EBB
:107A0800A2F10102F1DC30BD202A04DB203A00FAA1
:107A180002F1002070479140C2F1200320FA03F3DD
:107A2800194390407047202A04DB203A21FA02F0DB
:107A38000021704721FA02F3D040C2F120029140A0
:107A4800084319467047202A06DBCB17203A41FA2B
:107A580002F043EAE07306E041FA02F3D040C2F1D3
:107A6800200291400843194670473A2800D230381E
:107A780020F02002412A01D3A2F13700884201D325
:107A88004FF0FF307047000002681144137801601E
:107A980018467047D16004495161044911620021B8
:107AA8001161114600F020B9917A0008E57C0008C0
:107AB800426842B1016811F8013B23B1521EC0E986
:107AC8000012184670470121C160881E704742683D
:107AD8005AB1C368016843B983688B4205D0491E0F
:107AE800521CC0E90012002070474FF0FF30704769
:107AF80010B5141E73F1000408DA401C41F10001AE
:107B080092185B411A4301D120F0010010BD2DE904
:107B1800F04D92469B4611B1B1FA81F202E0B0FAFB
:107B280080F220329046FFF76FFF04460F4640EA86
:107B38000A0041EA0B0153465A46084313D011463E
:107B480053EA010019D0C8F140025046FFF76BFF15
:107B580005460E46504659464246FFF755FF08432C
:107B680005D0012004E020463946BDE8F08D00200C
:107B7800054346EAE0762C4337430A986305E40A4E
:107B8800A0EB08000022FD0A44EA47540A3002D557
:107B980000200146E9E7010510196941DDE90845BA
:107BA80000196941BDE8F04DA2E72DE9F04D002329
:107BB8001A461B1A8A4103DB00200146BDE8F08DF6
:107BC800C1F30A52C1F3130141F480154FF0000BC1
:107BD800D10702D100186D41521E0027044640F219
:107BE800FF11384601EB620A3E46804602460020F5
:107BF8004FF48011FFF717FFC2197141BB1846EB0C
:107C08000100B4EB030C75EB000C04D3E41A65EB2C
:107C1800000517460E46241908F101006D418046FB
:107C28003428E3DDF91946EB0600091BA84103D205
:107C38004FF0FF32134601E0002213461BEB07000A
:107C480046EB0A51BDE8F04DFFF752BFC1F30A52A7
:107C5800C1F3130140F2FF3341F480119A4202DA72
:107C680000200146704740F233439A42A2F2334261
:107C780002DC5242FFF7D7BEFFF7C6BE30B5041E7E
:107C880071F1000404DB4FF00044404264EB010151
:107C9800141E73F1000405DB1C464FF000435242EA
:107CA80063EB0403994208BF904230BD1CB50948F4
:107CB8000090094801900546009C06E0E06840F005
:107CC800010394E8070098471034AC42F6D3FFF755
:107CD800EBFA0000D408040824090408C0B24FF4E1
:107CE800F05100F097B900002DE9F34F8BB04FF039
:107CF800000801F10C000C464FF0010B46460DF14F
:107D0800080A01906269012101989047051E2DD04B
:107D1800252D2CD0216A8847C0B1626901210198BC
:107D28009047216A88470028F7D1411E6269019867
:107D3800904700E0761CA1690B988847216A88471C
:107D48000028F7D1E1690B988847DBE7A1690B9810
:107D580088470746A84201D1761CD3E7E1690B980A
:107D680088477F1C02D1B8F1000F6FD046E1002789
:107D780062693D463946019890472A2804D16269CC
:107D88000121019890470125DFF884926269012159
:107D980001989047A0F130010A290AD24F45E5DC45
:107DA80007EB870100EB4107303FDFD445F01005B2
:107DB800ECE7E90601D46FF000476C280AD04C289C
:107DC80014D0682815D06A280DD074281CD07A28B9
:107DD8001AD01DE062690121019890476C2802D0F1
:107DE80045F0040514E045F002050DE045F02005D6
:107DF8000AE06269012101989047682802D045F09D
:107E0800080505E045F4006562690121019890477D
:107E1800C4E9015765283DD019DC58287AD00CDC14
:107E2800452837D004DC252826D0412831D131E037
:107E380046282FD047282CD12CE05B2877D0612802
:107E480028D063287CD0642823D15AE0D0E06F285A
:107E580048D008DC66281DD067281BD0692821D0A7
:107E68006E2816D127E0702845D0732868D0752869
:107E780047D078280DD14DE0A1690B988847054671
:107E880025283FF469AFE1690B9888476D1C3FF4DA
:107E98006AAFB3E023466A466FF001000B99AFF36F
:107EA80000809EE045F040006060A80723464FF040
:107EB800000236D43EE0E8077FF447AF2068011D92
:107EC80021600068290501D506701BE7290701D53F
:107ED800068017E7A90703D5F117C0E9006111E784
:107EE80006600FE745F040006060A80723464FF0A2
:107EF800080216D41EE040F60E0125EA0100606073
:107F080016E045F040006060A80723464FF00A02DB
:107F180007D40FE045F040006060A80708D5234665
:107F280010226FF001000B99AFF3008059E007E0D1
:107F3800234610226FF001000B99FFF785FA50E0F5
:107F48004FF000094F464B46632802D05B2806D005
:107F580040E0E80601D40120A06001273AE0626908
:107F68000121019890475E2805D14FF00109626907
:107F7800494601989047216939B900210A46534674
:107F880043F82120491C0829FADBB0B3216969B9F3
:107F9800C11700EBD16253110AEB830122F01F02D3
:107FA800821A01200B68904003430B60626901212B
:107FB800019890475D28E8D1B9F1000F09D0002059
:107FC800514651F82020D24341F82020401C08286F
:107FD800F7DB02AB224600976FF001000B99FFF721
:107FE800D9FA00280CDA401C08D1BBF1000F05D0E3
:107FF8004FF0FF300DB0BDE8F08FFFE74046F9E7DE
:10800800E90701D108F1010806444FF0000B79E6B1
:10801800CCCCCC0C7F2801D9002208E0064A02EB20
:108028005002C007127800D1120902F00F02012095
:108038009040084070470000E4E4030870B58C18CD
:1080480010F8015B15F0070301D110F8013B2A1164
:1080580006D110F8012B03E010F8016B01F8016B51
:108068005B1EF9D12B0705D40023521E0DD401F84D
:10807800013BFAE710F8013BCB1A921C03E013F816
:10808800015B01F8015B521EF9D5A142D8D300204B
:1080980070BD000010B588B04EF22450C0F6030041
:1080A80090E80E5044690191018B807E02920393FF
:1080B800CDF810C0CDF814E00694ADF81C108DF87A
:1080C8001E0031F0BFFE01A830F01EF808B010BD48
:1080D8002DE9F04186B00DF023FD0DF02BFD40F6A3
:1080E8009000C5F60000016841F4803101600BF092
:1080F800F1FF4EF6FC2240F6000340F20047002153
:10810800C0F60302C4F60003C4F600074FF00008E7
:10811800002500200491CDE90211CDE9001104E009
:10812800A68835430131262914D002EBC104A6796B
:10813800002EF7D052F831609E4207D0BE42EFD0F1
:10814800B6F1904FEED1A6883043EBE7A68848EA0F
:108158000608E7E700214C2702910121C5F6000730
:10816800019103210204039121D084B2009438685C
:10817800694640F001003860386800F00100059059
:108188000598D7F8000140F00100C7F80001D7F8BA
:10819800000100F00100059005984FF090400EF0A6
:1081A800B7F84FF09040214600220EF081F940F2D6
:1081B80000442804C4F600041FD0ADB20095386806
:1081C800694640F002003860386800F00200059007
:1081D8000598D7F8000140F00200C7F80001D7F869
:1081E800000100F002000590059820460EF090F876
:1081F8002046294600220EF05BF95FEA084022D0AB
:108208001FFA88F50095386804F5806440F004008A
:1082180038603868694600F0040005900598D7F87A
:10822800000140F00400C7F80001D7F8000100F091
:1082380004000590059820460EF06AF82046294665
:1082480000220EF035F906B0BDE8F0817047000055
:108258007047000010B588B004464068B0F80B00BD
:10826800B0F5124F2DD168462FF07AFF00206168D3
:108278000790497B069001290590049020D001BB06
:10828800FFF708FF0F208DF810007F208DF81200EF
:1082980042F20000CEF204000168090CADF81C108F
:1082A80000686FF31F30ADF81E0004A82FF01EFF02
:1082B80000F058F80120002133F046FB08B010BD4B
:1082C800207008B010BD000080B54AF2BC40C2F270
:1082D80000000EF07DFEBDE880402CF09BBA000047
:1082E80040F2F820C2F2000090F8800070470000C9
:1082F800B0B504460EF0E2F840F25401C2F20001B3
:108308000A88A24240F67812C2F2000204D1136829
:10831800C31A642B38BFB0BD40F2F8251060C2F212
:10832800000500200C80E88285F8800012F012F920
:108338000DF064FA2CF0F8FC48B9012000F03CFA82
:1083480095F88000012802D0012000F035FA40F2AB
:108358007060C2F20000012101704480BDE8B040A5
:108368002DF070BD2DE9F04798B046F26800C2F2D2
:1083780000000921017040F208610024C2F20001E6
:108388000A5D1AB10134082CFAD1082440F20861B8
:108398000130C2F200012246FFF701F840F2A801BD
:1083A800601CC2F2000108700DF014FAFF281ED0FC
:1083B8000446D1A0214635F085FBA52C12D10BF03F
:1083C80017FD01F05FFA4FF29142DFA1C0F60302F8
:1083D800012888BF1146084636F06EF800200BF0D9
:1083E8001DFD04E0CEA036F067F80BF001FD0DF09E
:1083F80005FA044612F0A4F840F29409C5F60009FB
:10840800D9F80060804630462CF02AFA0CF0A2F920
:108418000CF09AFAC6F30070C6F34071C6F3807583
:108428008DE823004FF2E330C6F38062C6F3C063E1
:10843800F70FC0F603003146039735F043FBD9F830
:1084480000004FF2784140F40000C9F800004FF2F4
:108458006C40C0F60300C0F60301012C08BF0146BA
:108468004FF2A930C0F603002246434635F02AFBF6
:108478002CF086F904462CF07DFA05462CF054FCC5
:1084880003464FF27D30C0F6030021462A4635F0F8
:1084980019FB4EF24050C0F6030090E88E00D0E978
:1084A80004650DF1140ED0E906C48EE88E00CDE9FE
:1084B800096500F12007D0E90C65008F8ECFADF873
:1084C8004C0040F22800C2F2030014904BF62D50E5
:1084D800C0F600000DF1340E15904BF651508EE8A1
:1084E8008E00C0F6000014A9CDE90BC411961295B0
:1084F80034F0B6FC022001214FF0010A33F024FACF
:108508004DF2D922C0F6030202200021002533F0E3
:1085180051FA05A82FF0DCFD40B101464FF22E407C
:10852800C0F6030035F0CEFA0CF038F9CDE9145551
:10853800ADF84E500DF040F914900DF03DF915913D
:1085480034F02CFEBDF8540040F2A90400BA149986
:10855800C2F20004000C208108BAC4F80A0014AA68
:108568002E20062134F09CFB4EF63C42C0F6030256
:10857800182010214FF0100834F092FB4EF62C42D0
:10858800C0F60302082010214FF0080934F088FBD8
:1085980001201F2134F05CFB34F05AFA0DF15A0720
:1085A80017AE0DF15E03052000210722CDE9006713
:1085B80033F0E8FEBDF85E00BDF85C104FF264478A
:1085C800C0F6030700220723009734F069FABDF8C4
:1085D8005E00BDF85A100DF14E07002202230097E5
:1085E80034F05EFA00200221022234F003FD40F24A
:1085F800F827C2F20007012087F800A033F096FFA1
:108608004BF207200121C0F20100C1F20801B86055
:10861800C7F80210CDE902500120012101220023F0
:1086280087F801A0CDE90098CDF810A033F0F2FE4C
:10863800B878002818BF33F085FE30F009FA4FF6F5
:10864800FF7048F289720025F882C0F60002012006
:10865800002187F88050012633F0ACF92020A07162
:10866800062034F0CFFA0BF04BFC002002F050FB50
:108678002DF0B0FB4CF66952C0F603024FF480406F
:10868800002133F097F94CF66D54C0F603044FF40B
:1086980000400021224633F08DF907F183010020C4
:1086A8000022234611F0E0FA48F2B97307F181017C
:1086B800C0F600030020002211F0D6FA49F68933EB
:1086C80007F18201C0F603030020002211F0CCFA62
:1086D80040F29A10C2F20000067040F29810C2F2FE
:1086E80000003D8306702CF01FFB10B9012000F03C
:1086F80063F818B0BDE8F0873D3D3E3E204E464346
:1087080020626F6F74206F70636F64652064657496
:1087180065637465643A203078253032780A000041
:108728003D3D3E3E204E464320626F6F74206F7081
:10873800636F646520756E6B6E6F776E2C20636C4B
:10874800656172696E6700003D3D3E3E204E4643BE
:1087580020626F6F74207265736375653A206D656A
:1087680073682070726F766973696F6E696E6720BF
:1087780073746F7261676520657261736564000068
:1087880010B540F2F824C2F2000494F880000528DD
:1087980004D033F0EFFE002084F880002CF0C4FAF7
:1087A800002818BF10BD0220BDE8104000F004B832
:1087B8000120042133F012BA2DE9F04188B040F2CB
:1087C8009A11C2F20001044640F298100D78C2F2E4
:1087D80000000678002D40F2F82818BF8025002EEA
:1087E800C2F2000818BFA026012C18BF4FF4C865B4
:1087F80098F8810018BF4FF47A6611F06BFC022CD0
:1088080006D198F880000138012898BF33F0B2FEED
:1088180040F2A800C2F20000007898F8181046F25A
:108828006803002708F11902C2F20003CDE90070BD
:10883800CDE90231CDE9042700202946324601233B
:10884800069733F023FE88B1122801D00C2807D1EF
:108858002CF06AFA20B188F8804008B0BDE8F081B1
:10886800002088F8800008B0BDE8F08140F2A90136
:10887800C2F200010E2088F8804033F01DFF012C61
:1088880008BF002802D008B0BDE8F08198F8810040
:108898004EF24601C0F2010108B0BDE8F04111F006
:1088A80039BB000010B502F03DFC0446062817D974
:1088B80040F2042041F20001C2F20000C1F20201BC
:1088C80041F2060241F20033C1F20702C1F201335C
:1088D80080E80E004FF6FF718181072C0DD228E049
:1088E80002F020FC024640F2F730C0F604000721EF
:1088F800022335F0E7F8072C1BD302F013FC0446DB
:1089080006280CD940F25C203021C2F20000C0F2E7
:1089180001014FF6FF72C0E90012002006E040F2A4
:10892800B440C0F6040035F0CDF80120062C88BF0D
:1089380010BD40F26F40C0F6040035F0C3F80220C5
:1089480010BD000010B546F29804C2F20004207869
:1089580020B102F063FC0020207010BD002003F05D
:10896800B1FC0DF0ABFD0446002003F0ABFC002881
:10897800FAD00DF0A3FD001BB0F57A7F08D94AF6AE
:1089880004204F21C2F20000C0F2AD01016010BD09
:10899800152838BF10BDBDE8104002F03FBC0000EC
:1089A80041F6985040F63A21C2F20000C2F20001A6
:1089B80040F2B44200780978C2F200021278084303
:1089C800104300F001007047022070470022002089
:1089D8000A8070477047000080B5002003F062FCF1
:1089E800002080BD40F2CE40C2F2000000787047FF
:1089F80041F69150C2F200000121017041F69950F0
:108A0800C2F200000022027041F69E52C2F2000239
:108A18000120117003F036BC80B541F69150C2F2C6
:108A280000000021017041F69E50C2F20000017062
:108A3800012003F017FC11F08DFD10B102F0D2FBFC
:108A480010B302F0CFFBF0B940F2B440C2F200001C
:108A58000078002808BF80BD40F63A204AF6E111A8
:108A6800C2F200000122C2F20001097802704FF23E
:108A78000850C0F6030035F025F840200021BDE875
:108A8800804033F0ABB880BD41F69850C2F2000088
:108A980001780029F1D140F2B441C2F2000101226B
:108AA8000978027000A0E6E750726F766973696F03
:108AB8006E696E672073657373696F6E20636F6D7F
:108AC800706C657465642028646973636F6E6E6585
:108AD80063742C20636F6E6669675F7365656E3DAE
:108AE8002575290D0A000000002070477047000016
:108AF800B0B540F25A04C2F20004257802F0B2FA86
:108B0800854203D9BDE8B04002F0ACBA207801280C
:108B180098BF0120B0BD000001463020C0F202001D
:108B280008604FF4857200208A80704780B5012064
:108B38001F2134F08DF8002818BF0120400080BDA7
:108B480001464EF67D40888041F6F850CAF64F60DF
:108B5800086045F24B30C5F2A140C1F8060046F264
:108B68008000C2F20000828803680020CA81C1F830
:108B78000A30704700207047014601A034F0A2BFB8
:108B8800556E70726F766973696F6E6564204E6F8B
:108B98006465204964656E746966696572207265EA
:108BA8006365697665643A20253032780A0D0000DD
:108BB800B0B546F28005C2F20005E91D00202A463C
:108BC80033F0E0FF18B1014618A034F07BFF0CF039
:108BD800F3FD020A28704FEA112C6A70020C000E8D
:108BE8002971691EAA70E870EF2006220B4685F8E5
:108BF80005C000BF13F8014F013A04EB4000F9D15A
:108C08000322EA71EF230622A87100BF11F8014F71
:108C1800013A04EB4303F9D1C0B2D9B2081AB0FA49
:108C280080F040094CF0C0016971B0BD4661696CC3
:108C3800656420746F2072656164205075626C6988
:108C4800632041646472657373202564000000002A
:108C580080B54BF6CD02C0F601020420002132F0A7
:108C6800A9FE0420002132F0B9FF49F64122C0F6DE
:108C780000024020002132F09DFE40200021BDE886
:108C8800804032F0ABBF000010B54AF61C20C2F29B
:108C98000000006804212DF093FD04462EF0D8FA58
:108CA800010608BF2046002C18BF2046010608D040
:108CB800C1B24FF2C340C0F60300BDE8104034F023
:108CC80001BF4FF27250C0F60300BDE8104035F006
:108CD800F3BB0000002070470020704780B5B0F952
:108CE800000040F29C1203EB4301C2F2000232285A
:108CF80022F8210040F2B410C2F200000DDB47F662
:108D0800F6410180016842688368042012F084FA01
:108D1800002003F0B7FA002080BD0168426883682C
:108D2800022012F079FA002003F09CFA002080BD9E
:108D3800014640F29B10C2F20000825C00200A70DB
:108D480070470000014602EB420040F29C12C2F25A
:108D5800000212F8203002EB80000B7042784A7053
:108D680082788A70C2780020CA707047014602EB88
:108D7800820040F2A812C2F20002125C00200A70BF
:108D88007047000002EB820140F2A812C2F2000212
:108D98000A4453780146037090784870D0788870F8
:108DA80012790020CA707047014640F2AE10C2F234
:108DB800000010F8122000200A707047B0B5B0F912
:108DC80000101D4603EB430240F29C1340F2B01C16
:108DD800C2F2000321EAE170C2F2000C23F822007B
:108DE800BCF8003040F67212C2F2000298424FF00E
:108DF800000347F6F54410804FF0000298BF0123A6
:108E0800A1424FF00004C8BF012423430029C8BF72
:108E1800012202EA030140F67012C2F20002117048
:108E280047F6FF710022ACF800002EF06DFF40F20B
:108E3800B413C2F20003188019685A689B680420AA
:108E480012F0EAF9022029462CF09CFF0020B0BD60
:108E58000020704780B540F29C1C0168D0F804E0FF
:108E6800806803EB4303C2F2000C0CEB83029060B2
:108E780000204CF82310C2F804E080BD70B51C46F1
:108E8800002B47D1027840F2A816B0F8013001F063
:108E9800FE05C2F20006022D3270A6F8013015D187
:108EA80040F2B415C2F200052B8029686A68AB68E5
:108EB8000546042012F0B0F9B5F80310B6F8010021
:108EC800A6F80310884225D108BB0FE0012908BF86
:108ED800012A0FD040F2B410C2F200000121018033
:108EE800016842688368022012F096F9002003F0B6
:108EF800B9F90FE040F2B410C2F2000047F6F641AB
:108F08000180016842688368042012F085F9002016
:108F180003F0B8F9012021462CF034FF002070BD81
:108F2800002000BFC2B2914200F10100FAD800202F
:108F380070470000007840F2AE11C2F2000101282B
:108F480021F8130005D145F2B020C2F2000001213A
:108F5800017080B5FFF73EFD002080BD002000BFF6
:108F6800C2B2914200F10100FAD800207047000017
:108F780010B50188428804460CA034F0A3FD617B3B
:108F88004FF6A630C0F6030034F09CFD607B002845
:108F980008BF00F09DFC607B002818BF10BD217B36
:108FA80012A0BDE8104034F08DBD00BF4170704B79
:108FB800657920416464207265636569766564201B
:108FC800666F72206E65744B6579496E64657820AA
:108FD800252E32782C206170704B6579496E646556
:108FE8007820252E3278200D0A0000004170704B41
:108FF8006579206163636570746564202876616CA7
:1090080075652068696464656E2C2073697A653DAE
:109018002575290D0A00000010B582B00446007AB3
:10902800002808BF00F054FC217862686388247A1D
:109038004FF61970C0F60300009434F043FD02B0F7
:1090480010BD000010B504460188428840F22B008C
:10905800C0F6040034F036FD617B4FF6A630C0F64A
:10906800030034F02FFD607B002818BF10BDBDE859
:10907800104000F02DBC000070B50188044617A010
:1090880034F020FDA17A4FF6A630C0F6030034F084
:1090980019FDA07A002818BF70BD1AA035F00CFA87
:1090A800208990B140F2E6050026C0F6040500BF0D
:1090B80060680188284634F005FD6068013621891A
:1090C800F2B2023091426060F2D84FF26F50C0F6AF
:1090D8000300BDE8704035F0EFB900BF4170702063
:1090E8004B6579204C69737420666F72206E6574C5
:1090F8004B6579496E64657820252E32782069732E
:10910800200D0A004170704B657920496E646578BE
:109118006573206172653A200D00000010B582B0B9
:109128000446007A002808BF00F0D2FB2178626864
:109138006388247A4FF68070C0F60300009434F0F8
:10914800C1FC02B010BD000010B504460188428879
:109158004FF6E970C0F6030034F0B4FC617B4FF6BB
:10916800A630C0F6030034F0ADFC607B002808BFD1
:1091780000F0AEFB607B002818BF10BD217B04A067
:1091880034F0A0FC0FA0BDE8104035F095B900BF41
:1091980055706461746564204170704B6579206115
:1091A80063636570746564202876616C75652068F2
:1091B800696464656E2C2073697A653D2575290D8F
:1091C8000A00000049742077696C6C20626520727F
:1091D80065706C61636564206279206F6C642061DE
:1091E80070704B6579206166746572204B657920D3
:1091F80052656672657368200D00000010B501881D
:1092080004460CA034F05EFC617B4FF6A630C0F635
:10921800030034F057FC607B002808BF00F058FBBF
:10922800607B002818BF10BD217B0EA0BDE8104050
:1092380034F048BC4E6574204B6579204164642045
:10924800726563656976656420666F72206E657401
:109258004B6579496E64657820252E3278200D0A91
:10926800000000004E65744B65792061636365708A
:10927800746564202876616C756520686964646526
:109288006E2C2073697A653D2575290D0A0000004A
:1092980010B50188044609A034F014FC617B4FF630
:1092A800A630C0F6030034F00DFC607B002818BF20
:1092B80010BDBDE8104000F00BBB00BF4E65742028
:1092C8004B65792044656C657465207265636569D2
:1092D80076656420666F72206E65744B6579496E99
:1092E800646578202564200D0A00000070B50446E6
:1092F80081794FF6A630C0F6030034F0E3FB10A0E6
:1093080035F0DAF8A08890B140F2E6050026C0F6FC
:10931800040500BF20680188284634F0D3FB206884
:109328000136A188F2B2023091422060F2D84FF2A1
:109338006F50C0F60300BDE8704035F0BDB800BFFF
:109348004E65744B657920496E6465786573206154
:1093580072653A200D00000010B5018804460FA080
:1093680034F0B0FB617B4FF6A630C0F6030034F052
:10937800A9FB607B002808BF00F0AAFA607B0028E0
:1093880018BF10BD217B40F2B400C0F6040034F0D1
:1093980099FB0EA0BDE8104035F08EB84E657420DC
:1093A8004B657920557064617465207265636569E1
:1093B80076656420666F72206E65744B6579496EB8
:1093C800646578202564200D0A0000004974207720
:1093D800696C6C206265207265706C6163656420DD
:1093E8006279206F6C64206E65744B6579206166C4
:1093F800746572204B6579205265667265736820C2
:109408000D000000B0B586B00446417C4FF6A6308A
:10941800C0F6030034F056FB6089217B227863682C
:1094280094F80EC094F80FE0257C647B8DE8015019
:109438004FF6BA30C0F603000395049434F042FBAB
:1094480006B0B0BD10B50446407C002808BF00F047
:109458003FFA616822784FF6D560C0F6030034F011
:1094680031FB6068B0F5885F18BF10BD2046BDE8C5
:1094780010402FF0A1BB000010B50446817A4FF6CA
:10948800A630C0F6030034F01DFBA07A002808BF00
:1094980000F01EFA94F80BC04FF6BB4021786268C2
:1094A80023894FF61554C0F60300C0F60304BCF137
:1094B800000F08BF2046BDE8104034F003BB000091
:1094C80010B50446817A4FF6A630C0F6030034F092
:1094D800F9FAA07A002808BF00F0FAF9E07A50B14A
:1094E8002178626823894FF66750C0F60300BDE80B
:1094F800104034F0E7BA207B2178626838B140F236
:109508006D00C0F60400BDE8104034F0DBBA2389D2
:109518004FF6C850C0F60300BDE8104034F0D2BA88
:1095280010B50446817A4FF6A630C0F6030034F031
:10953800C9FAA07A002808BF00F0CAF994F80BC04D
:109548004FF61D602178626823894FF67D64C0F666
:109558000300C0F60304BCF1000F08BF2046BDE8B5
:10956800104034F0AFBA000045F63871C2F200017D
:109578000A6802700A68120A42704A888270CA78B9
:10958800C27000200860704710B54BF61942C0F64B
:1095980003020820002132F00DFA46F6FC64C2F2FC
:1095A80000044BF62143C0F60303002021460022A5
:1095B80010F05AFB20784CF25821C0F2120110F03A
:1095C800A9FC2FF0CDFF48F64D12C0F6000280200E
:1095D8000021BDE8104032F0EDB90000B0B540F20E
:1095E800B214C2F20004012020700020002502F00D
:1095F80049FE4FF4FA700CF065FC0020257002F06B
:1096080031FE4FF4FA700CF05DFC0020B0BD000094
:1096180040F2B210C2F20000007810B1002002F04F
:1096280031BE002002F01EBE0020704700207047A7
:1096380000207047002070470020704700207047C6
:1096480000207047002070470020704700207047B6
:1096580000207047002070470020704700207047A6
:109668000020704700207047002070470020704796
:10967800002070470020704740F21001C2F200013C
:109688000B2312FB03121379014603705279002051
:109698004A70704740F21001C2F200010B2312FB1E
:1096A8000312937801460370D27800204A707047FD
:1096B800014640F26420C2F2000010F8123000EBBC
:1096C80042000B7040780B23487040F21000C2F241
:1096D800000012FB030082788A70C2780020CA70EA
:1096E8007047000040F21001C2F200010B2312FB88
:1096F8000312937901460370D0794870107A887004
:10970800507AC870927A00200A71704740F2100CA3
:109718000B230146C2F2000C02FB03F01CF8000008
:1097280012FB03C208705078487090788870D2781D
:109738000020CA7070470000002070470020704762
:1097480000207047002070470020704700207047B5
:1097580000207047002070470020704700207047A5
:10976800B0B5054600881C4600284FF0000002D01E
:1097780002F088FD01E002F075FD40F21001288832
:10978800C2F200010B2214FB02118880032021463B
:109798002CF0F8FA0020B0BD00207047B0F8072080
:1097A80040F21000C2F200000B2311FB030100205D
:1097B8004A80704700207047418840F26422C2F214
:1097C8000002002022F813107047000000207047A4
:1097D80040F2100C0178C2F2000C0B2213FB02C2FB
:1097E8009171D0F801100020C2F8071070470000EE
:1097F80000207047B0B540F2100C1D4601460088A5
:10980800C2F2000C0B2315FB03C26B43B1F807101F
:109818002CF80300002818BF0146518040F6721149
:1098280040F2C01CC2F20001C2F2000C0988BCF868
:109838000030002299424FF0000347F6F54498BFE4
:109848000123A14288BF01221A430029ACF8001065
:1098580018BF0121114040F67012C2F200021170C7
:109868004FF6FF7100222EF04FFA40F2B411C2F207
:1098780000010880032029462CF084FA0020B0BD9E
:1098880000207047B0B54AF61C20C2F200000068FC
:1098980004212CF095FF05462DF0DAFC044600065D
:1098A80008BF2C46002D18BF2C46200608D04FF2C2
:1098B800C340E1B2C0F6030034F004F9E0B2B0BD31
:1098C8004FF27250C0F6030034F0F6FDE0B2B0BDBE
:1098D80010B501F087FC002818BF10BD40F2B44451
:1098E800C2F20004207810B902A034F0E5FD01208E
:1098F800207010BD436F6E66696720536572766588
:1099080072206D75746174696F6E20616363657030
:109918007465643A2066756C6C20636F6D6D69744C
:109928002072657175697265640D000080B510F06C
:1099380011FE18B310F014FE00B341F69950C2F2AC
:1099480000000178002918BF80BD012101700BF0CB
:1099580055FF012802D003200AF060FA0AA034F06B
:10996800ABFD002000212BF059F840B94FF2C4504C
:10997800C0F60300BDE8804034F09EBD80BD642081
:109988000CF0A0FA32F094FC50726F766973696F2C
:109998006E696E672073657373696F6E2074696D85
:1099A800656F75743A2072657475726E20746F20D5
:1099B8006C656761637920474154540D00000000CD
:1099C80081B08DF803004AF60820C2F20000006852
:1099D800406801B070470000B0B583B094468E4629
:1099E800044609980899079A02948DF807E08DF8BB
:1099F80006C0ADF80430ADF802208DF801108DF8DE
:109A0800000002990120087002990020487002990C
:109A180088700299C8700299087103B0B0BD00003F
:109A280081B08DF803004AF60820C2F200000068F1
:109A3800006901B0704700002DE9F04141F69858DF
:109A480040F63A25C2F20008C2F2000598F8000074
:109A580029784AF6E11440EA0106F707C2F2000441
:109A680009D1207838B9FFF761FF40200021BDE80F
:109A7800F04132F0B3B82CF04FFF2178024608438A
:109A8800000608D097B34FF2DA40C9B2C0F6030017
:109A980034F018F8E9E7AFB110F05CFD90B10020A0
:109AA80088F800002870012030F05EF802200021BC
:109AB8002AF0B4FFF8B94FF27E50C0F6030034F034
:109AC800FBFCD0E728783040C007CCD040F2B44146
:109AD8000020C2F20001287088F8000008700AA06F
:109AE80034F0EAFCBDE8F0412BF0C8B84020002172
:109AF80032F074F8B7E712A034F0DEFCFA200CF06C
:109B0800E1F932F0D5FB00BF4D65736820636F6ED5
:109B180066696775726174696F6E20636F6D6D69D0
:109B2800747465643A20636F6E74726F6C6C6564EC
:109B38002050726F787920726573746172740D00A9
:109B480050726F766973696F6E696E6720636F6DA7
:109B58006D69747465643A207265626F6F742074FD
:109B68006F204D657368206F7065726174696F6EE0
:109B7800616C0D0041F69E50C2F20000007800288A
:109B880018BF704780B501F09DFE0A200CF09AF9C5
:109B9800FFF77AF800200AF041F94FF24950C0F671
:109BA800030034F089FC01F0B5FC32F081FB0000C1
:109BB80080B582B08DF807004AF61020C2F2000086
:109BC800006801699DF80700884702B080BD000061
:109BD8002DE9F04F91B0834600284FF0030000F0C4
:109BE8008A800D46002900F0868040F298389BF85C
:109BF80000A045F27429C2F200080120C2F200094F
:109C0800A8F800000FF2FC30002189F800A0002617
:109C180031F018F89BF800100FF200402A4633F094
:109C280051FF0FF20C4700241BF80610384633F09A
:109C380049FF0134A6B2B542F6D84FF26140C0F6EA
:109C4800030033F03FFFAAF1010133294FF001006F
:109C580000F25180DFE811F0F9004F004F004F008B
:109C68004F004F004F004F004F004F004F004F0074
:109C78004F004F004F000701B70043014F004F004E
:109C88004F004F004901BC00170129017D017001F7
:109C980078004F004F00E70093006A003801400148
:109CA800A3018D015200A3003400340034003400B5
:109CB80034003400340034003400340034003400FC
:109CC80000208DF80800681E0BF1010202AF09F1AF
:109CD8000206C3B202205146CDE9006730F0D4F83D
:109CE8009DF808200146002089F80110911C89F888
:109CF80000A0A8F8001011B0BDE8F08F052D40F0C5
:109D08006681DBF8011003202AF088FE002800F0A5
:109D18006781002089F80100DBF80100C9F802001A
:109D28000620A8F800002AF0A9FF34E1022DC0F0AF
:109D380053819BF80100042800F05C81032840F05F
:109D48004B810BF077FDCCE0012D40F0458144F6C6
:109D58004F60A9F80D0044F64310C4F65310C9F833
:109D6800090045F22000C4F25250C9F8050044F633
:109D78004B10C4F65710C9F801000F2009E1032D54
:109D8800C0F02A819BF80100042800F036810328DE
:109D980040F022819BF802002FF008FEFBE0012D25
:109DA80040F01A8102A82AF0F3FC012089F801008A
:109DB800BDF80800DDF80A10049AA9F80200C9E9FC
:109DC80001120C20E5E002A83B210BF0DDFC4EE07F
:109DD800052D40F00181DBF8010002A93B220BF0C0
:109DE8003BFD002800F002819BF801009BF802105F
:109DF8009BF8032089F801009DF814009BF80430B3
:109E080089F8021089F8032089F811000499DDE91E
:109E1800020289F80430C9F80D10C9F80920C9F8F8
:109E280005001220B5E0022DC0F0D6809BF8010095
:109E380002A98DF808004AF20060C2F2000001226F
:109E48004FF47A730EF072FEA5E03C2D00F2C48048
:109E580045F27420C2F2000059462A46FDF76DFA11
:109E6800A8F8005097E002A83B210BF075FC0028E9
:109E780000F0BC80044609F1010002A92246FDF762
:109E88005CFA601C85E0012D40F0A68002A83B2109
:109E98002BF0F6FF142840F0A98009F1010002A96F
:109EA8001422FDF74AFA152073E0012D40F0948042
:109EB80040F2C844C2F200042046FDF77CFA054689
:109EC8003B2828BF3B255DE0022DC0F085809BF82C
:109ED80001002FF0C9FC5EE00BF076FC01E00BF00E
:109EE80035FC89F80100022053E00BF0E1FC06463E
:109EF8000BF0EEFC04460BF0E3FC012D6CD1310AAB
:109F080089F80210210A89F80410210C89F8051033
:109F1800210E89F80610010A89F8070089F8081047
:109F2800010C000E89F8016089F8034089F80910CE
:109F380089F80A000B202CE0012D4DD145F22D3077
:109F4800C3F22E00C9F8040044F64240C2F6455058
:109F58000BE0012D40D143F22E00C3F22E00C9F8C8
:109F6800040042F63060C2F63260C9F801000820E9
:109F78000FE00BF06BFC0446FDF71DFAC5B2102D7F
:109F880028BF102509F1010021462A46FDF7D5F919
:109F9800681CA8F80000002011B0BDE8F08FA5F1FA
:109FA800120010F1100F17D3681E002102AC8DF8B3
:109FB8001810CDE90411CDE902110BF10101C2B26B
:109FC8002046FDF7BAF920462FF058FDE3E789F857
:109FD80001000220A8F80000032011B0BDE8F08FAE
:109FE800042089F801000220A8F80000012011B01F
:109FF800BDE8F08F0BF024FC73E79BF802002FF00C
:10A0080009FDC8E74170706C695F56656E646F72D0
:10A018005F446174615F7772697465002330452D10
:10A028002530326878202530326C7821200A0D00DE
:10A0380025303268782000002DE9F04F83B00446BF
:10A04800057845F274284FF22270C2F20008C0F673
:10A058000300002188F8005030F0F4FD217855A065
:10A0680033F030FD691E032900F29F800220DFE8EB
:10A0780001F09302307300F0EFFF0478002C78D0E1
:10A088004FF22279471C00250DF1020A0FF24C1BF2
:10A09800C0F603090FF2581814E000BFE0B201F04F
:10A0A800B9F804460AF8060046464846002130F04A
:10A0B800C9FD3046214633F005FD17F8014B01353F
:10A0C800002C56D0EEB22E2C0AF80640E6D15E4699
:10A0D800EBE700F0BBFF047844B34FF2F26B4FF2AA
:10A0E8002279471C00250DF1020AC0F6030BC0F6C1
:10A0F80003090CE05E464846002130F0A3FD3046D7
:10A10800214633F0DFFC17F8014B013574B1EEB28C
:10A118002E2C0AF80640EDD0522CEBD0E0B201F01C
:10A1280079F804460AF8060026A6E4E7BDF8020016
:10A138009DF80710A8F801009DF805009DF8092072
:10A148009DF80B3088F8030088F8041088F805207B
:10A1580088F8063007201FE043F22E00C3F22E00D5
:10A16800C8F8040042F63060C2F63260C8F8010050
:10A1780011E0BDF80200BDF8051045F27422C2F2E4
:10A188000002A2F80100A2F803109DF80800BDF82B
:10A1980009105071D180082040F29831C2F20001B4
:10A1A8000880002003B0BDE8F08F012003B0BDE8AF
:10A1B800F08F00BF2330322D253032687821200AF5
:10A1C8000D000000537562204C6962207665727339
:10A1D800696F6E2069732025780A0D004C6962202A
:10A1E80076657273696F6E2069732025630A0D00A6
:10A1F8004C69622076657273696F6E2069732025D9
:10A20800780A0D002DE9F04381B0064690F80080E9
:10A218004FF20A70C0F6030000211546002730F0FF
:10A2280011FD31787CA033F04DFCA8F10100052820
:10A238004FF0010900F2CE800024DFE800F003505F
:10A248002ACC718D4FF20A70C0F6030000214FF03E
:10A25800000930F0F7FC4FF24760C0F603002946CA
:10A2680033F030FC40F2B410C2F2000047F6F64179
:10A278000180016842688368042010F0CDFF002047
:10A2880002F000F840F2B210C2F2000001210170A1
:10A298009FE04FF20A70C0F6030000214FF000095A
:10A2A80030F0D0FC4FF27D60C0F60300294633F051
:10A2B80009FC40F2B214C2F200042078012874D1DB
:10A2C80040F2B410C2F20000012101800168426826
:10A2D8008368042010F0A0FF84F800901EE04FF27D
:10A2E8000A70C0F6030000214FF0000930F0AAFC04
:10A2F8005DA0294633F0E6FB40F2B410C2F200003C
:10A3080001210180016842688368042010F084FFFD
:10A3180040F2B210C2F2000080F80090002018E06D
:10A328004FF20A70C0F60300002130F08BFC4FF2A8
:10A33800B760C0F60300294633F0C4FB707840F2DA
:10A34800B211C2F20001012808703DD000204FF080
:10A35800000901F087FF3CE04FF20A70C0F60300E5
:10A36800002130F06FFC30A0294633F0ABFB777842
:10A37800B47847F6FF7147EA042000222DF0C4FCA8
:10A38800054640F2B410C2F2000005800168426838
:10A398008368042010F040FF00204FF00009B5F555
:10A3A8007A5F35D901F06EFF15E040F2B410C2F2C1
:10A3B800000047F6F641018001684268836804207E
:10A3C80010F02AFF0120207000204FF0000901F052
:10A3D80059FF0027002445F27420C2F20000B8F1AA
:10A3E800060F80F8008003D144708770032106E0CF
:10A3F80040F2B211C2F2000109784170022140F224
:10A408009832C2F200024846118001B0BDE8F083DC
:10A4180001F028FFDFE700BF2330332D25303268F5
:10A4280078210A0D000000004170706C695F4C458E
:10A43800445F496E74656E736974792063616C6CEE
:10A448006261636B20726563656976656420666F17
:10A458007220656C656D656E74496E64657820253B
:10A4680064200D0A000000004170706C695F4C4563
:10A47800445F4F46462063616C6C6261636B207277
:10A488006563656976656420666F7220656C656DC5
:10A49800656E74496E646578202564200D0A000095
:10A4A8002DE9F04188B003A82AF072F99DF80C0054
:10A4B800022810D10BF0A2F901280CD10BF0FEFFF5
:10A4C80045F6A075C2F2000529680446401A02D470
:10A4D80001F000FA10B108B0BDE8F08145F6AC769D
:10A4E800C2F200063078012828D10BF0F1F945F6C0
:10A4F800A877C2F20007396845F6A478814238BFC8
:10A508003860C2F200083868D8F8001088426BD268
:10A5180003A90D220BF0A0F9002865D0396803AA19
:10A5280013200D2300F004F900284CD13868D8F81E
:10A538000010013088423860CDD355E045F6B0763A
:10A54800C2F20006307801282ED145F6B470C2F266
:10A558000000006814218DF80C10010A8DF80E1007
:10A56800010C8DF80F1045F6B871C2F200010968A8
:10A578008DF80D00000E8DF81000CDF8111000F0C8
:10A5880045FD014601200922029030200027009253
:10A59800C0F2010003AB0E22019701F0CDF890B98B
:10A5A800377008B0BDE8F08145F68C76C2F2000637
:10A5B800307800288FD0716806F108021620012330
:10A5C80000F0B6F880B145F69C70C2F20000016850
:10A5D80004F16402611A2A605EBF41F288312144A5
:10A5E800016008B0BDE8F0810020307008B0BDE817
:10A5F800F081000010B584B0044601A82AF0C8F81C
:10A608009DF80400022812D10BF0F8F801280ED1A9
:10A6180045F69870C2F2000001684A1C026045F6CF
:10A628008C70C2F20000416001210472017004B014
:10A6380010BD000058B30D2918BF704710B584B07D
:10A6480001A814462AF0A4F89DF8040002281BD19A
:10A658000BF0D4F8012817D145F6AC71C2F200010D
:10A668000A782046002A45F6A872C2F2000202BF04
:10A67800106001230B701168884205D345F6A47158
:10A688000130C2F20001086004B0BDE81040704714
:10A6980058B3042918BF704710B584B0044601A800
:10A6A8002AF076F89DF8040002281BD10BF0A6F8D2
:10A6B800012817D145F6BC70C2F2000001684A1C97
:10A6C800026045F6B470C2F200000160206845F6E9
:10A6D800B871C2F20001086045F6B070C2F200001D
:10A6E8000121017004B0BDE810407047B0B584B0D6
:10A6F80001F0F0F828B1002001F0C4FD012004B0F9
:10A70800B0BD0020002501F0ADFD40F21422C2F2D8
:10A718000002136C108892F844100124CDE900352A
:10A72800931C0E22029400F0BBFF04B0B0BD0000E1
:10A73800002A04BF03207047B0B588B08DF80E001A
:10A74800080A8DF81000080C8DF81100080E0DF19C
:10A758000E048DF80F108DF81200601D11461A4670
:10A768001D46FCF7EAFD00F051FC0146681D002279
:10A77800CDE9000230200125C0F201000E22234657
:10A78800029500F0D9FF08B0B0BD0000F0B581B067
:10A7980040F214270E46C2F2000715460146B81CBF
:10A7A80032461C46FCF7C9FD00203C803E643C2E26
:10A7B80088BF032087F8445001B0F0BD2DE9F0416F
:10A7C8000446077845F274284FF23A700D46C2F2F3
:10A7D8000008C0F60300002188F80070002630F059
:10A7E80031FA217820A033F06DF9F81E032837D309
:10A7F800022F19D0062F32D19DB14FF261470021A7
:10A808000FF27408C0F60307002600BF625C4046DA
:10A8180033F058F9384633F055F90136F1B28D4224
:10A82800F4D80020BDE8F0813D2D0AD34FF23A70EC
:10A83800C0F60300002130F005FA13A033F03CFE07
:10A848003C25611C6A1E08F10100FCF776FD40F208
:10A858009830C2F2000005800020BDE8F081012692
:10A868003046BDE8F08100BF2330312D25303268F5
:10A878007821200A0D000000646174615B25645D25
:10A888003D202564000000004C656E6774682072E6
:10A8980065636569766564206772656174657220B1
:10A8A8007468616E2073697A65206F6620726573BB
:10A8B800706F6E736520627566666572200D0000A4
:10A8C80040F20422C1EBC101C2F2000202EB4101D5
:10A8D800002200BF31F81230984204BF01207047AF
:10A8E8000132072A04BF00207047F3E740F25C22D8
:10A8F800C2F2000202EBC101002200BF51F822306F
:10A90800984204BF012070470132012A1CBF002071
:10A918007047F3E70020704710B540F20422C1EBFE
:10A92800C101C2F2000202EB410100244FF6FF729E
:10A9380031F81430934203D00134072CF8D107249E
:10A948006200FCF7FAFCE0B210BD000010B540F25E
:10A958005C22C2F2000202EBC10100244FF6FF7232
:10A9680051F82430934203D00134012CF8D002244A
:10A97800A200FCF7E2FCE0B210BD0000B0B588B060
:10A98800DDF844C0DDF840C0DDF83CC0DDF838C073
:10A99800DDF834C0DDF830C00790069105920493C5
:10A9A8000EF09EFD06980EF0EBFD05980499109A9E
:10A9B800119BDDF83CC00D9CEE460025CEF80850F2
:10A9C800CEF80440CEF800C00EF07CFC0E980F992B
:10A9D800079A0EF0EDFB0C980D990EF0C5FB03904D
:10A9E8000EF056FD039808B0B0BD0000B0B588B0B1
:10A9F800DDF844C0DDF840C0DDF83CC0DDF838C003
:10AA0800DDF834C0DDF830C0079006910592049354
:10AA1800002003900EF064FD04980EF0B1FD0C9830
:10AA28000D99109A119BDDF83CC0059CEE46012556
:10AA3800CEF80850CEF80440CEF800C00EF042FC24
:10AA48000E980F99079A0EF0B3FB069805990EF029
:10AA580029FC0EF01DFD039808B0B0BD80B592B07A
:10AA6800119010910F920E9340F26820C2F20000EC
:10AA78000D9000200B9010980290119820B1FFE7DC
:10AA8800119800F0FFF8FFE70E9890B1FFE70F98D4
:10AA980000F00F000B900F9830B1FFE70B9818B932
:10AAA800FFE710200B90FFE70B990F98401A0F90C3
:10AAB800FFE7FFE70F9870B3FFE7029B1868596834
:10AAC8009A68DB680A93099208910790FFE707984C
:10AAD80000BA0D99096848400790089800BA0D997E
:10AAE800496848400890099800BA0D998968484013
:10AAF80009900A9800BA0D99C96848400A90FFE77A
:10AB08000D9907A800F0B4F80298103002900F9839
:10AB180010380F90CEE70E98002800F08180FFE7EC
:10AB280000200A900990089007900C90FFE70C9875
:10AB38000B99884213D2FFE702990C98095C03220B
:10AB48008243D20001FA02F320F0030207A98858D1
:10AB580018438850FFE70C9801300C90E7E7002075
:10AB6800069005900490039003A90191084600F00F
:10AB78007FF8019800F056F80B980F2811D8FFE7D6
:10AB88000B9803218143CA00802101FA02F320F0C7
:10AB9800030207A988581843885003A800F042F810
:10ABA800FFE700200C90FFE70C98032814D8FFE774
:10ABB8000D980C9A50F8220003A951F8221080EA47
:10ABC800010307A951F82200584041F82200FFE785
:10ABD8000C9801300C90E7E70D9907A800F048F8A9
:10ABE8000EF056FCFFE70D98006800BA07900D9824
:10ABF800406800BA08900D98806800BA09900D98CE
:10AC0800C06800BA0A90FFE70E990798089A099B4E
:10AC1800DDF828C0C1F80CC08B604A600860FFE707
:10AC280012B080BD82B0019001980068C00F8721E2
:10AC380048430090019908684A68400040EAD27089
:10AC48000860019948688A68400040EAD270486004
:10AC580001998868CA68400040EAD2708860019902
:10AC6800CA68009880EA4200C86002B070470000D5
:10AC780080B582B001900091019800990EF0FAFB1E
:10AC880002B080BD80B584B0039040F26820C2F263
:10AC9800000002900EF024FC03980EF071FC0020D6
:10ACA80001900EF097FC01980299C860029988609B
:10ACB800029948600299086004B080BD80B588B0E8
:10ACC8000790069105920EF00BFC07980EF058FCC1
:10ACD80004200EF07FFC069B186859689A68DB68A8
:10ACE800049303920291019001A908460EF0C2FB59
:10ACF8000EF0CEFB05990198029A039BDDF810C06F
:10AD0800C1F80CC08B604A60086008B080BD0000C4
:10AD180010B54AF651520446C0F600024FF480605E
:10AD2800002130F047FE40F20013C2F200034FF05A
:10AD3800640C03EB840242F61920214623F824C050
:10AD4800BDE8104000F0A6B840F20012C2F20002BE
:10AD580042F61920002100F09DB8000040F20011D1
:10AD6800C2F20001CA780880012A18BF70474FF460
:10AD78008060032130F032BF80B582B04178FF296E
:10AD880002D0002002B080BDB0F8031040F6144293
:10AD9800914212D040F601429142F2D140F2301174
:10ADA800C2F200014988B0F8072002319142E8D187
:10ADB800407B012121EA00000EE040F23011C2F28E
:10ADC80000014988B0F8072001319142D9D1B0F883
:10ADD800050031F06DFD02208DF8060000208DF889
:10ADE80007000DF1060000F035F8012002B080BD23
:10ADF800F0B587B04AF68150C0F600002DF038FE55
:10AE080041F60F0040F230150DF11A04ADF81A00A2
:10AE1800C2F20005012021460122042300950126E3
:10AE2800042731F0E5FC42F6192135F8020BADF89C
:10AE38001A100A2100221223CDE90032CDE902714D
:10AE48000121224601230496059531F061FC07B0E3
:10AE5800F0BD00000078022812D0012809D000288F
:10AE680018BF704740F20010C2F200000121C17003
:10AE7800704740F20010C2F200000021C170704714
:10AE880040F20012C2F2000242F61920002100F03E
:10AE980001B80000944642F61922904218BF704744
:10AEA80080B582B001EB410040F23011C2F20001DE
:10AEB80001EB400231F81000518800220123CDF83F
:10AEC80000C031F0EDFD02B080BD000082B00090FE
:10AED800009820B9FFE703208DF8070009E00098E3
:10AEE8004AF6E411C2F20001086000208DF807005C
:10AEF800FFE79DF8070002B07047000082B000909D
:10AF0800009820B9FFE703208DF8070009E00098B2
:10AF18004AF61021C2F20001086000208DF80700EF
:10AF2800FFE79DF8070002B07047000080B582B0C7
:10AF380001908DF80310019820B1FFE79DF80300F8
:10AF480020B9FFE702208DF802000CE04BF65420F0
:10AF5800C2F20000006801999DF8032004F0FEFE8B
:10AF68008DF80200FFE79DF8020002B080BD0000E6
:10AF780080B50FF0EFFA002808BF80BD41F6985160
:10AF8800C2F20001087830B9012203A00A70BDE8B6
:10AF9800804033F091BA80BD50726F766973696FE3
:10AFA8006E696E6720636F6E666967757265643A6D
:10AFB8002077616974696E6720646973636F6E6E68
:10AFC80065637420666F72204E564D20636F6D6DF9
:10AFD80069740D000622028040F20012C0F20232AB
:10AFE800C0F8022004228271072008707047000010
:10AFF80083B0029001918DF803208DF8023003B0E0
:10B0080070470000704700007047000081B00020C2
:10B01800ADF802004BF65420C2F20000006880B17F
:10B02800FFE74AF69010C2F200000078012808D124
:10B03800FFE74AF69010C2F200004088ADF802001F
:10B04800FFE7BDF8020001B07047000040F2B160B0
:10B05800C0F604007047000040F27960C0F60400B2
:10B06800704700000520704783B08DF80B000191F0
:10B078000020ADF802009DF80B0004284ADCFFE729
:10B088004BF65420C2F200000068002841D0FFE7C8
:10B098004AF69010C2F200000078012839D1FFE783
:10B0A80000208DF80100FFE79DF801000A282FDC39
:10B0B800FFE79DF80B104AF69010C2F2000000EB73
:10B0C8008100406A9DF80110C1EBC10100EBC1008D
:10B0D800806F0199884214D1FFE79DF80B104AF65A
:10B0E8009010C2F2000000EB8100406A9DF8011048
:10B0F800C1EBC10100EBC100B0F87C00ADF8020063
:10B1080006E0FFE79DF8010001308DF80100CBE76C
:10B11800FFE703E00020ADF80200FFE7BDF80200FA
:10B1280003B070470B20704780B582B0019001983A
:10B1380032F05CFB019819F037FB02B080BD0000CB
:10B1480080B582B04AF60820C2F200000068826921
:10B15800036A49F6E110C0F600006946486049F6FE
:10B168002920C0F60000086049F6C911C0F60001A0
:10B17800052019F015FC02B080BD00002DE9F0474C
:10B188008AB04AF60820C2F2000001680A784B68C3
:10B19800886891F80CC091F814E04C7D8D690E7F99
:10B1A8004F7FD1F8208091F80D90D1F810A0694612
:10B1B800C1F824A0C1F82090C1F81C808F614E61AD
:10B1C8000D61CC60C1F808E0C1F804C0086049F618
:10B1D800B930C0F60000002119F006FC0AB0BDE83D
:10B1E800F087000080B582B04BF65420C2F2000010
:10B1F800006821F05FFE012804D1FFE701208DF8E7
:10B20800070003E000208DF80700FFE79DF807001E
:10B2180002B080BD3038C0B27047000080B5FFF77B
:10B22800F5FEBDE880400AF055B900002DE9F0416F
:10B2380082B040F2C216C2F20006154632781C46A9
:10B2480088460746A2B1501CC1B2AB225143490AF5
:10B2580001EB4101411AD6F8050006F12602904299
:10B2680031701DD0717A1C30C6F80500481C1CE0EE
:10B2780001203070684631F029FE0BF01FF9BDF847
:10B28800001041F26F22C0F28302A1FB02234FF4A7
:10B29800FA7203FB1211084400F5FA70C6F80100AF
:10B2A80006F10A00C6F80500002070727868D6F822
:10B2B8000510086038784871788981F80480C8805A
:10B2C8008C6154B100210020D6F8052001306B5C58
:10B2D8000A44C1B28C421372F6D802B0BDE8F081BC
:10B2E80080B592B00FF0C4FE4EF6E010C0F6030031
:10B2F800022100F06BFA0DF106000DF14601FDF791
:10B3080065FBBDF8460020B1C1B20DF1060029F079
:10B3180027FF12B080BD000080B50AF031F80FF0A9
:10B328007DFFBDE8804030F00DBD00002DE9F04301
:10B3380085B040F2C219C2F2000999F8000090B332
:10B34800D9F801400BF0BAF884422CD899F800607B
:10B3580036B3C6F1030700240DF1080899F809006F
:10B368008DF80840384400EBD07101F0FE01401A16
:10B37800C0B2C0EBC00009EB8000D0F80A10827B95
:10B38800D0F82250039100F1120330204146049472
:10B39800009530F0A7FC013E300607F10107DDD12A
:10B3A800002089F8000005B0BDE8F0837047000070
:10B3B8007047000070B587B09C4696460C46054617
:10B3C8000E980D990C9A0B9B0595ADF81240CDF887
:10B3D8000CE08DF80BC08DF80A308DF809208DF837
:10B3E80008108DF80700059800909DF80B000128BB
:10B3F8004EDBFFE79DF80B00192849D8FFE70098B6
:10B40800F0B1FFE70398D8B1FFE7BDF812009DF847
:10B418000B10B0EB411F13D3FFE79DF80A0078B17A
:10B42800FFE79DF8090001280ADCFFE79DF80800FE
:10B43800012805DCFFE79DF80700032804DBFFE788
:10B4480003208DF81B0027E09DF80B00009981F878
:10B45800580103980099C1F850019DF80A004FF46B
:10B468007A7148430099C1F854019DF80900009980
:10B4780081F859019DF80800009981F85A019DF852
:10B488000700009981F85B0100208DF81B0003E09C
:10B4980000208DF81B00FFE79DF81B0007B070BD6A
:10B4A80080B541F69150C2F200000021017004A05D
:10B4B80032F008FB0220BDE8804000F0E3BE00BF88
:10B4C80050422D414456204C696E6B206F70656E5A
:10B4D8006564207375636365737366756C6C792036
:10B4E8000A0D000069B170B50C46461E06A500BFDE
:10B4F80016F8011F284632F0E5FA013CF8D1BDE8FC
:10B50800704003A032F0DEBA253032580000000047
:10B518000A0D000080B519F0CBFA80BD80B541F660
:10B528009150C2F200000121017040F2B440C2F211
:10B5380000000021017041F69950C2F2000001702C
:10B548000CA032F0B9FF0FF005F8002808BF80BD45
:10B5580041F69851C2F20001087848B901224FF229
:10B568000560C0F603000A70BDE8804032F0A4BF51
:10B5780080BD00BF44657669636520697320707279
:10B588006F766973696F6E65642062792070726F77
:10B59800766973696F6E6572200D000083B0029042
:10B5A80001918DF80320002003B0704780B586B064
:10B5B8000590ADF812100392029301208DF8070050
:10B5C80005989DF80710BDF81220039BDDF808C008
:10B5D800EE46CEF800C019F083FA06B080BD000030
:10B5E80082B000904BF65420C2F20000006820B9E7
:10B5F800FFE702208DF807000BE000984BF6542176
:10B60800C2F200010968C1F8F40100208DF80700B2
:10B61800FFE79DF8070002B07047000080B584B0CE
:10B6280002908DF80710029848B1FFE79DF80700CF
:10B6380028B1FFE79DF80700092804DBFFE703208E
:10B648008DF80F0027E000208DF80600FFE79DF831
:10B658000600072812DCFFE702989DF80610405CF8
:10B66800332804DBFFE703208DF80F0013E0FFE722
:10B678009DF8060001308DF80600E8E74BF65420E7
:10B68800C2F20000006802999DF8072004F0E2FD6C
:10B698008DF80F00FFE79DF80F0004B080BD000093
:10B6A800B0B588B08C4686460E980D990C9CADF8BE
:10B6B8001CE08DF81BC0ADF8182005938DF8131009
:10B6C8008DF812009DF81200012815D1FFE7BDF88A
:10B6D8001C009DF81B109DF81820059BDDF830C054
:10B6E8009DF81340EE46CEF80440CEF800C019F09D
:10B6F80055FA8DF81F001BE04BF65420C2F20000EB
:10B708000068BDF81C109DF81B20BDF81830DDF846
:10B7180014C00C9C9DF81350EE46CEF80850CEF895
:10B728000440CEF800C018F03BFF8DF81F00FFE77B
:10B738009DF81F0008B0B0BDB0B588B08C468646ED
:10B748000E980D990C9CCDF818E0ADF816C0ADF820
:10B75800142004938DF80F108DF80E009DF80E003C
:10B76800012814D1FFE70698BDF816109DF814209B
:10B77800049BDDF830C09DF80F40EE46CEF804403B
:10B78800CEF800C019F078FA8DF81F001AE04BF6D1
:10B798005420C2F2000000680699BDF81620BDF8D2
:10B7A8001430DDF810C00C9C9DF80F50EE46CEF812
:10B7B8000850CEF80440CEF800C018F059FF8DF8B4
:10B7C8001F00FFE79DF81F0008B0B0BD83B00290CE
:10B7D800019100208DF80300029820B9FFE70320AB
:10B7E8008DF80300FFE702984AF60021C2F2000133
:10B7F8000860019845F20431C2F2000108609DF822
:10B80800030003B07047000080B582B0ADF80400B3
:10B81800BDF8040048B1FFE7BDF80400632804DC64
:10B82800FFE702208DF803003AE04BF65420C2F2FD
:10B838000000006820B9FFE702208DF803002EE021
:10B848004AF69010C2F200000078012804D1FFE700
:10B8580002208DF8030021E0BDF8040060B9FFE77D
:10B868004BF65420C2F200000068D0F8D80107F067
:10B87800A9F88DF8030010E0BDF804104BF6542029
:10B88800C2F200000268A2F8DC110068D0F8D80102
:10B8980007F064F88DF80300FFE7FFE7FFE7FFE72D
:10B8A8009DF80300012804DCFFE700208DF807005D
:10B8B80003E002208DF80700FFE79DF8070002B0BB
:10B8C80080BD000080B5022007F09CF8032007F037
:10B8D80099F880BD80B54BF65420C2F2000000688C
:10B8E80028F0B4FA80BD000080B582B04BF6542031
:10B8F800C2F20000006820B9FFE702208DF80700B7
:10B908000FE024F023FE8DF806009DF8060018B914
:10B91800FFE71BF09FFFFFE79DF806008DF8070083
:10B92800FFE79DF8070002B080BD000041F6915086
:10B93800C2F2000000210170FFF7ECFD64200AF05C
:10B94800C1FA6420FFF760FFFFF7BCFF64200AF02C
:10B95800B9FA4FF24950C0F6030032F0ADFDFDF7D9
:10B9680093F9002008F05AFA03A032F0A5FD6420EC
:10B978000AF0A8FA30F09CFC52657365742044659F
:10B98800766963650D00000010B58EB08C4686465A
:10B9980012981199109CCDF834E08DF833C00B92B1
:10B9A8008DF82B308DF82A10ADF828000D980990E5
:10B9B8000998D0F850010890002003908DF81D00D8
:10B9C800FF208DF81C00099890F858018DF81B008D
:10B9D80020F076FE0146039805918DF813008DF846
:10B9E8001200089838B1FFE79DF81B0018B1FFE76F
:10B9F8000B9808B9FFE787E19DF8330001460291EB
:10BA0800032830D80299DFE801F0020D18230998BD
:10BA180090F85901012804D1FFE701208DF81200A0
:10BA2800FFE721E0099890F85A01012804D1FFE7BF
:10BA380001208DF81200FFE716E0099890F85B01E5
:10BA4800012804D1FFE701208DF81200FFE70BE081
:10BA5800099890F85B01022804D1FFE701208DF8CE
:10BA68001200FFE700E0FFE79DF8120008B9FFE7C2
:10BA78004AE10020ADF81E00FFE7BDF81E009DF862
:10BA88001B10884280F2CC80FFE79DF81D0010BB98
:10BA9800FFE70898BDF81E1000EB4110807F0128D1
:10BAA80019D1FFE705980899BDF81E2001EB42114E
:10BAB8008969401A0999D1F8541188420BD9FFE7CE
:10BAC80001208DF81D000898BDF81E1000EB4111EB
:10BAD80000208877FFE79DF91C00B0F1FF3F0DDCDF
:10BAE800FFE70898BDF81E1000EB4110807F28B9C9
:10BAF800FFE79DF81E008DF81C00FFE79DF8130076
:10BB0800002840F08680FFE70898BDF81E1000EB7B
:10BB18004110807F01287CD1FFE70B980899BDF878
:10BB28001E2001EB42110622FBF756FC002870D1BB
:10BB3800FFE701208DF8130005980899BDF81E202D
:10BB480001EB421188619DF82B000899BDF81E2071
:10BB580001EB421148779DF82A000899BDF81E208C
:10BB680001EB421108771098C0B1FFE70898BDF8BB
:10BB78001E1000EB4111DDF840C0DCF80000DCF8D5
:10BB88000420DCF80830DCF80CC0C1F812C0C1F899
:10BB98000E30C1F80A20C1F806000EE00898BDF87A
:10BBA8001E1000EB41110020C1F81200C1F80E0070
:10BBB800C1F80A00C1F80600FFE7BDF9280001280E
:10BBC8000FDBFFE7BDF82800B0F5004F09DAFFE703
:10BBD800BDF828000899BDF81E2001EB4211C88263
:10BBE80007E00898BDF81E1000EB41110020C8823C
:10BBF800FFE70898BDF81E1000EB4110417F821D39
:10BC0800C38A90F91CC0EE46CEF800C005F038F89B
:10BC1800FFE7FFE7BDF81E000130ADF81E002CE776
:10BC28009DF8130000286FD1FFE79DF91C0000283C
:10BC38006AD4FFE708989DF91C1000EB4111012018
:10BC48008877059808999DF91C2001EB42118861B5
:10BC5800089B9DF91C0003EB40114FEA401C0B9A0E
:10BC68009088126843F80C2088809DF82B0008996A
:10BC78009DF91C2001EB421148771098C0B1FFE7ED
:10BC880008989DF91C1000EB4111DDF840C0DCF864
:10BC98000000DCF80420DCF80830DCF80CC0C1F83F
:10BCA80012C0C1F80E30C1F80A20C1F80600FFE73B
:10BCB800BDF9280001280FDBFFE7BDF82800B0F523
:10BCC800004F09DAFFE7BDF828000899BDF81E20E3
:10BCD80001EB4211C882FFE79DF82A0008999DF9F7
:10BCE8001C2001EB4211087708989DF91C1000EB05
:10BCF8004110417F821DC38A90F91CC0EE46CEF8E0
:10BD080000C004F0A1FFFFE70EB010BD80B582B0FF
:10BD18008DF8070000919DF80700009928F018FC9D
:10BD280002B080BD012808D0002818BF70474FF620
:10BD3800FF70C0F203002FF029BE4FF6FF70C0F26B
:10BD480003002FF063BE000010B5044640680830B9
:10BD58002CF0E0FE002818BF0120207010BD000064
:10BD68007047000080B586B0049040F2F420C2F21B
:10BD78000000007888B1FFE7049902914FF0FF3086
:10BD88000390C861886148610861C860886048603C
:10BD980008606FF0020005900EE040F29420C2F2B5
:10BDA8000000019000F022F8019904982022FBF786
:10BDB800C4FA00200590FFE7059806B080BD000092
:10BDC80080B582B0019040F29420C2F20000009049
:10BDD80000F00CF80098203000F008F8009901985D
:10BDE8004022FBF7AAFA02B080BD000082B00190A1
:10BDF8000198006800900199C86900BA0860009825
:10BE080000BA0199C8610198406800900199886951
:10BE180000BA4860009800BA019988610198806862
:10BE280000900199486900BA8860009800BA0199A1
:10BE380048610198C06800900199086900BAC86013
:10BE4800009800BA0199086102B0704780B586B0C1
:10BE5800049003910DF07CFD20B9FFE76FF001001D
:10BE680005902BE0049940F29420C2F20000019062
:10BE78002022FBF762FA01980399203002904022B1
:10BE8800FBF75BFA0198FFF7B1FF0298FFF7AEFFE7
:10BE980001984030FFF7AAFF02980DF055FE40F2D6
:10BEA800F521C2F200010220087040F2F421C2F22A
:10BEB80000010120087000200590FFE7059806B0F2
:10BEC80080BD000080B58CB00A900DF041FD20B90E
:10BED800FFE76FF001000B9017E00A9902A80090A5
:10BEE8002022FBF72AFA0098FFF780FF009800222B
:10BEF800019211460DF098FD019840F2F522C2F228
:10BF08000002012111700B90FFE70B980CB080BD67
:10BF180080B584B00DF056FD20B9FFE76FF0010041
:10BF280003907BE040F2F520C2F200000078014661
:10BF38000291052805D80299DFE801F004071026C8
:10BF48003E57FFE70020039068E040F29420C2F2D9
:10BF5800000000F120010DF04FFD55E00DF042FD0D
:10BF680008B9FFE750E040F29420C2F200004030E8
:10BF78000DF0EAFD40F2F521C2F20001032008703D
:10BF88006FF00100039049E00DF02CFD08B9FFE7C0
:10BF98003AE040F29421C2F2000101F12000403160
:10BFA8000DF09CFD40F2F521C2F20001042008705A
:10BFB8006FF00100039031E00DF00CFD08B9FFE7C8
:10BFC80022E040F29420C2F2000000F1200100F1CA
:10BFD80040020DF029FD40F2F521C2F200010520D2
:10BFE80008706FF00100039018E040F29420C2F24C
:10BFF8000000002101910DF0FFFC019840F2F421AE
:10C00800C2F200010870FFE70DF070FC40F2F52164
:10C01800C2F20001002008700390FFE7039804B003
:10C0280080BD000040F27C60C2F20000016811B1DE
:10C038000139016001D00020704710B55820C5F6BD
:10C048000000016840F2004421F40011C4F6000425
:10C05800016020464FF480710AF0C4F820464FF47E
:10C0680000710AF0BFF81E200BF034F81F200BF007
:10C0780031F84AF27050C2F200000AF089FA00283A
:10C0880018BF6FF0070010BD40F27C62C2F20002D8
:10C098004AF2705045F200411368C2F20000C4F23F
:10C0A80000010160581C002B10601CBF0020704765
:10C0B8002DE9F0439BB04AF27050C2F200000AF03A
:10C0C80083FA00284FF0000002D01BB0BDE8F083CF
:10C0D80001AC204650210026FBF756F94FF44030BA
:10C0E8004FF0040809902046CDF804800BF07AF848
:10C0F8004C27C5F60007386840F2004440F00200BB
:10C1080038603868C4F6000400F0020015901598ED
:10C118004FF4807015AD15904FF01209204629464E
:10C12800CDE91696CDE918680AF0F2F84FF40070D8
:10C13800CDE9150920462946CDE91766CDF8648072
:10C148000AF0E6F8F868002140F40010F860F86892
:10C15800002200F400101A901A981E200AF0F4FF2A
:10C168001E200AF0CDFF1F20002100220AF0ECFF5C
:10C178001F200AF0C5FF4AF27050C2F200000FF00B
:10C1880077FB20B16FF007001BB0BDE8F0834AF2DF
:10C198007050C2F2000000210AF0B0F9002818BF60
:10C1A8006FF007001BB0BDE8F083000080B50A46B9
:10C1B80001464AF27050C2F200004FF480530AF070
:10C1C8005BFA002818BF6FF0020080BD80B584B00C
:10C1D8009C460B4601464FF4805002904AF270503C
:10C1E8000092C2F200001A460223CDF804C00AF0F9
:10C1F800EBFA70B14AF27050C2F200000AF0E2F9AC
:10C2080001466FF06500042908BF6FF0030004B011
:10C2180080BD002004B080BD80B584B09C460B462C
:10C2280001464FF4805002904AF270500092C2F2D8
:10C2380000001A460223CDF804C00AF04FFC70B182
:10C248004AF27050C2F200000AF0BCF901466FF0E1
:10C258000300042908BF6FF0650004B080BD00200A
:10C2680004B080BD40F23001C2F2000151F8202034
:10C278004EF2DE61C0F6030131F8101010460022BC
:10C288000AF016B940F23001C2F2000151F820203C
:10C298004EF2DE61C0F6030131F81010104601229B
:10C2A8000AF006B940F23001C2F2000151F820202C
:10C2B8004EF2DE61C0F6030131F8101010460AF0A4
:10C2C800EFB8000080B540F21C01C2F2000151F83D
:10C2D80020204EF2B061C0F6030131F8101010466C
:10C2E8000AF0D8F880BD000070470000002818BF89
:10C2F80070470EF0EBBB000080B582B04FF0000C29
:10C3080000220023CDF800C0CDF804C00EF0DCFBFD
:10C31800002002B080BD000081B000208DF803002D
:10C328009DF8031049F21C63C2F200034FF43972FE
:10C3380011FB0231C86301B07047000081B00020D2
:10C348008DF803009DF8030049F21C62C2F2000256
:10C358004FF4397110FB0120807C01B07047000058
:10C3680082B000208DF807009DF8070049F21C6292
:10C37800C2F200024FF4397110FB0120C06B00902B
:10C38800009844F6D351C1F26201A0FB0110800964
:10C3980002B0704781B000208DF803009DF80300BB
:10C3A80049F21C62C2F200024FF4397110FB0120FD
:10C3B800C08E01B07047000081B000208DF80300E6
:10C3C8009DF8030049F21C62C2F200024FF4397171
:10C3D80010FB0120C07C01B07047000080B584B01C
:10C3E800039002910298019000208DF803000398B1
:10C3F80008B9FFE759E09DF8030049F21C62C2F250
:10C4080000024FF4397110FB0120406A002848D01F
:10C41800FFE79DF8030049F21C62C2F200024FF4E4
:10C42800397110FB0120008DD8B3FFE7019800F0A7
:10C4380005F9F8B9FFE79DF8030049F21C62C2F25A
:10C4480000024FF4397110FB0120406A4FF6FF716A
:10C4580088420ED0FFE79DF8030049F21C62C2F241
:10C4680000024FF4397110FB0121486A0138486213
:10C47800FFE7FFE703989DF8031049F21C63C2F237
:10C4880000034FF4397211FB0231098D4FF47A72AF
:10C49800514389B220F07CFA022801DBFFE7FFE76D
:10C4A80003E0039820F082FAFFE704B080BD0000A3
:10C4B80080B584B00390029100208DF807009DF8A4
:10C4C800070049F21C62C2F200024FF4397110FBF6
:10C4D80001203430009000988068B0F57A7F06D348
:10C4E800FFE700998868A0F57A70886003E00099F2
:10C4F80000208860FFE70098806820B9FFE703986C
:10C5080020F054FAFFE704B080BD000082B08DF837
:10C5180007009DF80700202803DBFFE700200090B4
:10C5280005E09DF80710012088400090FFE700987B
:10C5380002B0704780B585B084460798ADF810C042
:10C54800ADF80E108DF80D208DF80C30ADF80A00FE
:10C5580000208DF809009DF8090049F21C62C2F21A
:10C5680000024FF4397110FB01203430019001981A
:10C57800806830B1FFE701988068B0F17A7F04D90C
:10C58800FFE702208DF8130054E09DF80C009DF899
:10C598000D10884209DCFFE79DF80D009DF80C108E
:10C5A800401A01308DF8030003E002208DF81300D3
:10C5B80040E0BDF8100001990988884236D1FFE7AC
:10C5C800BDF80E0001994880019880884FF6FF71E8
:10C5D800884205D0FFE70199888801308880FFE705
:10C5E8000198807968B1FFE79DF80300019989797E
:10C5F800884205DAFFE79DF8030001998871FFE793
:10C6080004E09DF8030001998871FFE79DF8030095
:10C618000199C979884205DDFFE79DF80300019972
:10C62800C871FFE700208DF8130003E002208DF8A1
:10C638001300FFE79DF8130005B080BD80B594B0E6
:10C64800129003208DF8440000200390ADF84200BA
:10C6580005A82821FAF798FE03988DF813009DF88D
:10C66800130049F21C62C2F200024FF4397110FB48
:10C678000120C08BADF84000BDF8400020B9FFE7AD
:10C6880001208DF84F00EEE09DF8130049F21C627E
:10C69800C2F200024FF4397110FB0120407C0128DE
:10C6A8000DD0FFE79DF8130049F21C62C2F20002A8
:10C6B8004FF4397110FB0120407C88B9FFE79DF8E1
:10C6C800130049F21C62C2F200024FF4397110FBE8
:10C6D8000120417CBDF842000843ADF84200FFE765
:10C6E8009DF8130049F21C62C2F200024FF439713E
:10C6F80010FB0120007C01280DD0FFE79DF81300F6
:10C7080049F21C62C2F200024FF4397110FB012099
:10C71800007C90B9FFE79DF8130049F21C62C2F251
:10C7280000024FF4397110FB0120017CBDF8420072
:10C7380040EA4100ADF84200FFE79DF8130049F2D6
:10C748001C62C2F200024FF4397110FB0120807C98
:10C7580001280DD0FFE79DF8130049F21C62C2F2D0
:10C7680000024FF4397110FB0120807C90B9FFE77B
:10C778009DF8130049F21C62C2F200024FF43971AD
:10C7880010FB0120817CBDF8420040EA8100ADF831
:10C798004200FFE79DF8130049F21C62C2F2000252
:10C7A8004FF4397110FB0120C07C01280DD0FFE740
:10C7B8009DF8130049F21C62C2F200024FF439716D
:10C7C80010FB0120C07C90B9FFE79DF8130049F2E7
:10C7D8001C62C2F200024FF4397110FB0120C17CC7
:10C7E800BDF8420040EAC100ADF84200FFE79DF8FD
:10C7F800130049F21C62C2F200024FF4397110FBB7
:10C808000120007F8DF83F009DF83F008DF845001E
:10C818000DF1450001900130BDF84210022202924C
:10C8280019F012FD019A0298BDF84010ADF82A10CF
:10C838009DF83F108DF823108DF8370012989DF859
:10C84800443005A927F056FE20B9FFE700208DF8EF
:10C858003E0003E002208DF83E00FFE79DF83E0011
:10C868008DF84F00FFE79DF84F0014B080BD000021
:10C8780080B584B0ADF80E000291019200208DF8C9
:10C888000200BDF80E00C00730B1FFE7BDF80E008A
:10C898000007002818D4FFE7BDF80E00800700281D
:10C8A80006D5FFE7BDF80E00000700280CD4FFE707
:10C8B800BDF80E00400700280AD5FFE7BDF80E00B6
:10C8C8000007002804D5FFE703208DF8030020E1C6
:10C8D800BDF80E00C00778B3FFE79DF8020049F2E3
:10C8E8001C62C2F200024FF4397110FB0120407C37
:10C8F80001280DD0FFE79DF8020049F21C62C2F240
:10C9080000024FF4397110FB0120407C08B9FFE7A1
:10C9180011E09DF8020049F21C63C2F200034FF4D3
:10C92800397210FB0231012048749DF8021011FB86
:10C9380002318873FFE70CE09DF8020049F21C629F
:10C94800C2F200024FF4397110FB01210220487431
:10C95800FFE7BDF80E008007002836D5FFE79DF8F1
:10C96800020049F21C62C2F200024FF4397110FB56
:10C978000120007C01280DD0FFE79DF8020049F254
:10C988001C62C2F200024FF4397110FB0120007CD6
:10C9980008B9FFE718E09DF8020049F21C63C2F2EB
:10C9A80000034FF4397210FB0231012008749DF81E
:10C9B800021011FB023C00218CF80F109DF80210A8
:10C9C80011FB02318873FFE711E09DF8020049F27C
:10C9D8001C63C2F200034FF4397210FB02310220CB
:10C9E80008749DF8021011FB0231C873FFE7BDF807
:10C9F8000E004007002834D5FFE79DF8020049F2F1
:10CA08001C62C2F200024FF4397110FB0120807CD5
:10CA180001280DD0FFE79DF8020049F21C62C2F21E
:10CA280000024FF4397110FB0120807C08B9FFE740
:10CA380016E09DF8020049F21C63C2F200034FF4AD
:10CA4800397210FB0231012088749DF8021011FB25
:10CA580002318873029802F029FE8DF80300FFE77F
:10CA68000CE09DF8020049F21C62C2F200024FF489
:10CA7800397110FB012102208874FFE7BDF80E0010
:10CA88000007002834D5FFE79DF8020049F21C6230
:10CA9800C2F200024FF4397110FB0120C07C01285A
:10CAA8000DD0FFE79DF8020049F21C62C2F20002B5
:10CAB8004FF4397110FB0120C07C08B9FFE716E07C
:10CAC8009DF8020049F21C63C2F200034FF4397268
:10CAD80010FB02310020C8749DF8021011FB0231CE
:10CAE8008873019802F060FE8DF80300FFE70CE000
