:020000040800F2
:1070000008620020BD72000839D90008F9CC0008D8
:1070100041D1000865880008310A0108000000001D
:10702000000000000000000000000000C5F400089F
:10703000918E000800000000FDE40008D5F600086D
:10704000D7720008D7720008D772000815E7000849
:10705000D7720008D7720008D7720008D7720008EC
:10706000D7720008D7720008D7720008D7720008DC
:10707000D7720008D7720008D7720008D7720008CC
:10708000D7720008D7720008D7720008D7720008BC
:10709000D7720008D7720008D7720008258F000841
:1070A000D7720008D7720008D7720008D77200089C
:1070B000D7720008D7720008D7720008D77200088C
:1070C000D7720008D7720008D7720008D77200087C
:1070D000B906010841CF0008D7720008D77200082E
:1070E000D7720008D7720008D7720008D77200085C
:1070F00035CF000839CF000879C40008D7720008DE
:10710000D7720008D7720008D7720008D77200083B
:10711000D7720008D7720008D7720008D77200082B
:10712000D7720008D7720008ED8D0008D7720008EA
:10713000D7720008D7720008D7720008000000005C
:10714000843F01080000000000000000050100006D
:10715000FC490020244C00204C4E0020745000209C
:1071600045EB000811ED000845EC0008B9EA0008FD
:107170000DEA0008C9EC000815F00008FFFFFFFF4A
:1071800000093D00FFFFFFFF090DFF018300000024
:1071900000000000000000011000000000000000DE
:1071A00000000000000000000000000000000000DF
:1071B00000000000000000000000000000000000CF
:1071C00000000000000000000000000000000000BF
:1071D00000000000000000000000000000000000AF
:1071E000000000000000000000000000000000009F
:1071F000000000000000000000000000000000008F
:10720000000000000000000000000000000000007E
:10721000000000000000000000000000000000006E
:10722000000000000000000000000000000000005E
:10723000000000000000000000000000000000004E
:10724000000000000000000000000000000000003E
:10725000000000000000000001FF01FF01FF01FF2E
:1072600001FF01FF01FF01FF01FF01FF01550000C8
:020000040800F2
:1072A800DFF80CD000F014FB00480047151D01085A
:1072B800086200200648804706480047FEE7FEE7C8
:1072C800FEE7FEE7FEE7FEE7FEE7FEE7FEE7FEE78E
:1072D8007DF70008A97200082DE9F05F0546002037
:1072E80092469B4688460646814640241BE028462F
:1072F80041464746224600F03BFA53465A46C01AD2
:10730800914110D311461846224600F022FA2D1A50
:1073180067EB01084F4622460120002100F019FAC8
:1073280017EB00094E41201EA4F10104DFDC48469A
:1073380031462A464346BDE8F09F10B5431A9342AA
:1073480009D28318881803E010F8011D03F8011DFD
:10735800521EF9D210BD40EA01039B0703D009E091
:1073680008C9121F08C0042AFAD203E011F8013B29
:1073780000F8013B521EF9D210BDD2B201E000F86C
:10738800012B491EFBD270470022F6E710B51346C1
:107398000A4604461946FFF7F0FF204610BD10B50F
:1073A800044604E00B7800F8013B03B1491C521E67
:1073B800F8D2204610BD421C10F8011B0029FBD151
:1073C800801A704730B504460020034600E05B1C75
:1073D800934203D2E05CCD5C401BF8D030BD30B5A1
:1073E80005460020034600E05B1C934205D2EC5C96
:1073F800C85C201A01D1002CF6D130BD2DE9FE4F12
:10740800804681EA0300C00F0C46009021F000413D
:1074180023F00045B8EB0200A94105D240462146B9
:1074280090461C460B46024623F00040104347D0C6
:10743800270DC7F30A00C3F30A510290401A0190BE
:1074480040286BDAC3F3130040F4801B009892467F
:1074580020B10023D2EB030A63EB0B0B01985946CA
:10746800C0F14002504600F074F906460D465046F9
:107478005946019A00F08CF910EB0800614100248C
:1074880087EA115284EAE7731A4340D0009A62B33C
:10749800019A012A4FEA075215DC001B61EB020131
:1074A8004FF0004202EA0752CDE90042001C41F5C4
:1074B800801132462B4600F08CF903B0BDE8F08FFE
:1074C80040462146F9E7001B61EB0201001C41F52B
:1074D800801300185B412018A2F5001747EB030141
:1074E80040EAD570B6196D4111E06D084FEA3606CD
:1074F80045EAC0754FEA0752001B61EB0201001C08
:1075080041F5801149084FEA3000001951413246CF
:107518002B4603B0BDE8F04F00F04CB900980122AB
:1075280040000023D0EB020263EBE0730098214691
:107538004FEAE074B8EB000061EB0401E9E783F07F
:1075480000435BE781F0004158E72DE9FE4F81EAEF
:10755800030404F0004421F0004100944FF0000BB4
:1075680023F0004350EA01045ED052EA03045BD0E2
:10757800C3F30A54C1F30A552C44A4F2F33401941A
:10758800A0FB0254C1F3130141F48011C3F31303A8
:1075980043F4801301FB024400FB034E840A970A5C
:1075A80044EA815447EA8357A4FB076802958D0A89
:1075B80005FB07854FEA932C04FB0C542705029D15
:1075C8004FEA065847EA1637B5EB08056EEB070C85
:1075D800870E920E47EA811742EA8312A7FB02013F
:1075E800B6EB0B0164EB00042B0D43EA0C335E1879
:1075F80044EB1C50DA465146E7FB0201C5F313047D
:107608004FEA0B3343EA14534FEA0432019C43EA2E
:107618000603A4F10C040294009CCDE900B400F028
:10762800D8F803B0BDE8F08F00200146F9E72DE94E
:10763800F04D81EA030404F0004B21F000451446A4
:107648004FF0000A23F0004150EA050220D054EA26
:1076580001021DD0C5F30A570246C5F31303C1F34F
:107668001300C1F30A5640F4801543F48013A7EBC6
:107678000608101BD64608F2FD3873EB050002D346
:1076880008F1010801E092185B41B8F1000F03DA34
:1076980000200146BDE8F08D00204FF48011064619
:1076A80084460EE0171B73EB050705D3121B63EB2B
:1076B800050306434CEA010C49084FEA30009218CA
:1076C8005B4150EA0107EDD152EA030012D082EA89
:1076D800040083EA0501084305D0101BAB4106D21C
:1076E8000122002306E000224FF0004302E06FF081
:1076F800010253101AEB06004CEB085110EB0A007C
:1077080041EB0B01BDE8F04D00F054B80EB540F266
:10771800334102910021CDE900110A460B4600F0E1
:1077280058F803B000BD30B50B46014600202022B2
:10773800012409E021FA02F59D4205D303FA02F576
:10774800491B04FA02F52844151EA2F10102F1DCD6
:1077580030BD202A04DB203A00FA02F100207047ED
:107768009140C2F1200320FA03F319439040704777
:10777800202A04DB203A21FA02F00021704721FA7E
:1077880002F3D040C2F120029140084319467047E5
:10779800202A06DBCB17203A41FA02F043EAE073CD
:1077A80006E041FA02F3D040C2F1200291400843BA
:1077B8001946704710B5141E73F1000408DA401C0E
:1077C80041F1000192185B411A4301D120F00100F8
:1077D80010BD2DE9F04D92469B4611B1B1FA81F2E8
:1077E80002E0B0FA80F220329046FFF7B2FF04467A
:1077F8000F4640EA0A0041EA0B0153465A4608433D
:1078080013D0114653EA010019D0C8F1400250467E
:10781800FFF7AEFF05460E46504659464246FFF76B
:1078280098FF084305D0012004E020463946BDE80A
:10783800F08D0020054346EAE0762C4337430A984A
:107848006305E40AA0EB08000022FD0A44EA475455
:107858000A3002D500200146E9E7010510196941FF
:10786800DDE9084500196941BDE8F04DA2E7C1F31B
:107878000A52C1F3130140F2FF3341F480119A42D6
:1078880002DA00200146704740F233439A42A2F2DE
:10789800334202DC5242FFF76BBFFFF75ABF0000CA
:1078A80030B5041E71F1000404DB4FF0004440427F
:1078B80064EB0101141E73F1000405DB1C464FF054
:1078C8000043524263EB0403994208BF904230BD23
:1078D8001CB509480090094801900546009C06E03F
:1078E800E06840F0010394E8070098471034AC4280
:1078F800F6D3FFF7D9FC0000443F0108843F010894
:1079080030B58C1810F8012B12F00F0301D110F8C4
:10791800013B120906D110F8012B03E010F8015BB6
:1079280001F8015B5B1EF9D101E001F8013B521E31
:10793800FBD1A142E6D3002030BD000010B588B0CD
:1079480042F69450C0F6010090E80E504469019147
:10795800018B807E02920393CDF810C0CDF814E01D
:107968000694ADF81C108DF81E0008F00FF801A859
:1079780006F0EAFF08B010BD2DE9F04186B001F02D
:107988005BFE01F063FE40F69000C5F6000001685A
:1079980041F48031016001F033FA42F6C46240F6E6
:1079A800000340F200470021C0F60102C4F60003BC
:1079B800C4F600074FF00008002500200491CDE927
:1079C8000211CDE9001104E0A688354301312629CA
:1079D80014D002EBC104A679002EF7D052F831601A
:1079E8009E4207D0BE42EFD0B6F1904FEED1A688A6
:1079F8003043EBE7A68848EA0608E7E700214C276A
:107A080002910121C5F600070191032102040391A7
:107A180021D084B200943868694640F0010038608B
:107A2800386800F0010005900598D7F8000140F08B
:107A38000100C7F80001D7F8000100F00100059027
:107A480005984FF0904002F05FF84FF090402146C3
:107A5800002202F021F940F200442804C4F6000490
:107A68001FD0ADB200953868694640F00200386012
:107A7800386800F0020005900598D7F8000140F03A
:107A88000200C7F80001D7F8000100F002000590D5
:107A98000598204602F038F820462946002202F0D0
:107AA800FBF85FEA084022D01FFA88F5009538688D
:107AB80004F5806440F0040038603868694600F0D6
:107AC800040005900598D7F8000140F00400C7F8B5
:107AD8000001D7F8000100F0040005900598204641
:107AE80002F012F820462946002202F0D5F806B026
:107AF800BDE8F08170470000B0B588B04468B4F8BC
:107B08000B10A1F51241072900F2C580DFE801F04A
:107B1800047597C3AAB5719569460446084606F0E8
:107B280021FF9DF800109DF801209DF8023043F2D6
:107B3800BF00C0F601000AF0CBFB9DF8041043F229
:107B48008D00C0F601000AF0C3FB9DF80A109DF8ED
:107B58000B209DF80C3043F2A900C0F601000AF092
:107B6800B7FB43F23520C0F601000AF0B1FB21460D
:107B7800002448680794407B0694012805940494DF
:107B880000F08180002840F0888043F2A220C0F6EF
:107B980001000BF055F8FFF7D1FE0F208DF810000B
:107BA8007F2042F200058DF81200CEF20405286805
:107BB800040C43F2E410C0F6010021460AF088FBE9
:107BC800ADF81C402C6843F2C5106FF31F34C0F6A3
:107BD800010021460AF07CFB04A8ADF81E4006F01F
:107BE800A5FE00F0A5F80120002108F073FD08B0FB
:107BF800B0BDD4F80D1036A03AE043F27311C0F6C8
:107C08000101044608460AF063FB646843F2052054
:107C1800617BC0F601000AF05BFB607B002807BFB0
:107C280043F2F320C0F6010043F2BC20C0F6010085
:107C380008B0BDE8B0400BF003B81CA01EE043F24A
:107C48005420C0F601000AF0FBFFD4F80D10D4F858
:107C5800112043F2E300C0F6010008B0BDE8B040CF
:107C68000AF036BBD4F80D1043F20910C0F6010033
:107C780008B0BDE8B0400AF02BBB24A008B0BDE8AE
:107C8800B0400AF025BB43F29410C0F601000D463F
:107C98000AF01EFB2C7008B0B0BD43F24110C0F6CC
:107CA80001000AF015FB08B0B0BD00BF3E3E3D3DE7
:107CB80020534843495F5355425F4556545F4E56DB
:107CC8004D5F454E445F45524153450A0D00000043
:107CD8003D3D3E3E534843495F5355425F455654E8
:107CE8005F4E564D5F53544152545F455241534580
:107CF800203A204E756D6265724F66536563746FE6
:107D08007273203D2025750A000000003E3E3D3D6F
:107D180020534843495F5355425F4556545F4E567A
:107D28004D5F454E445F57524954450A0D000000C7
:107D380070B598B045F25870C2F200000921017080
:107D480040F2C8210024C2F2000100BF0A5D1AB146
:107D58000134082CFAD1082440F2C8210130C2F2BB
:107D680000012246FFF71BFB40F24801601CC2F2EB
:107D78000001087042F6B050C0F6010090E84E00CD
:107D8800D0E90454D0E906CE089600F12006008F09
:107D98000591ADF84C0040F22800C2F2030014909F
:107DA80048F2E95006920793CDE909547ECEC0F611
:107DB8000000CDE90BCE0DF1340C159048F20560AA
:107DC8008CE83E00C0F6000014A9129609F0A8FD40
:107DD8000220012108F07EFC41F6B532C0F601020E
:107DE8000220002108F0A6FC05A806F091FD30B19C
:107DF8000146DDA00AF06CFA01F0BAFA02E0E8A048
:107E08000AF066FA0020CDE91400ADF84E0001F042
:107E1800E7FA149001F0E4FA43F69840C0F601003E
:107E280015910AF00DFF09F027FE38B1014643F21B
:107E38000350C0F601000AF04BFA02E0E2A00AF093
:107E4800FFFEBDF8540040F2490400BA1499C2F28A
:107E58000004000C208108BAC4F80A0014AA2E20D5
:107E6800062109F0D5F938B1014643F26440C0F65D
:107E780001000AF02DFA19E043F61830C0F60100A7
:107E88000AF0DEFEDDE91460C0F30721C2B2C6F3D2
:107E98000740C6F30725CDE9000543F2D860330E45
:107EA800F6B2C0F6010002960AF012FA43F2040292
:107EB800C0F601021820102109F0AAF938B10146CC
:107EC80043F20F40C0F601000AF002FA05E043F65B
:107ED800D320C0F601000AF0B3FE42F6F472C0F6F1
:107EE80001020820102109F093F938B1014643F244
:107EF800BA30C0F601000AF0EBF905E043F68E202F
:107F0800C0F601000AF09CFE01201F2109F058F973
:107F180038B1014643F2C540C0F601000AF0D8F96D
:107F280005E043F66930C0F601000AF089FE09F061
:107F3800CDF838B1014643F26050C0F601000AF0AE
:107F4800C7F905E043F6B730C0F601000AF078FE3D
:107F58000DF15A0617AD0DF15E0305200021072229
:107F6800CDE9005608F052FE38B1014643F23050D0
:107F7800C0F601000AF0ACF905E043F69730C0F608
:107F880001000AF05DFEBDF85E00BDF85C1096A623
:107F980000220723009609F0B9F8BDF85E00BDF885
:107FA8005A100DF14E0600220223009609F0AEF891
:107FB80000200221022209F025FD38B1014643F2D2
:107FC8001A60C0F601000AF083F905E043F6414063
:107FD800C0F601000AF034FE40F21015C2F20005A6
:107FE8000120287008F0E6FE38B1014643F25460DB
:107FF800C0F601000AF06CF905E043F66B40C0F6E4
:1080080001000AF01DFE40F20110C0F600004BF21C
:108018000721C5F801001020C0F201010022082341
:108028006871A9600126CDE90030CDE9022101205F
:10803800012101220023049608F030FE38B10146E0
:1080480043F29150C0F601000AF042F905E043F608
:10805800D830C0F601000AF0F3FDA87880B108F026
:10806800B5FD38B1014643F2DB50C0F601000AF015
:108078002FF905E043F61240C0F601000AF0E0FDD2
:1080880043F69300C0F601000AF022F907F0A8F9B8
:10809800002085F880004FF6FF7048F2F912E88258
:1080A800C0F600020120002108F044FB2020A07146
:1080B800062009F05FF838B1014643F61A00C0F609
:1080C80001000AF005F905E043F65E00C0F601007C
:1080D8000AF0FEF800F0AAFD0020002600F0A2F940
:1080E80005F0D4FE41F27522C0F601024FF480403B
:1080F800002108F01FFB41F2BD34C0F601044FF423
:1081080000400021224608F015FB05F183010020FC
:108118000022234604F012FB48F2712305F1810185
:10812800C0F600030020002204F008FB4FF2D163E0
:1081380005F18201C0F600030020002204F0FEFAD7
:1081480040F2F200C2F200000121017040F2F0009A
:10815800C2F20000017001202E8300F089F809F0B6
:1081680085F818B070BD00BF20204661696C2020DA
:10817800203A20534843495F43325F424C455F49A8
:108188006E697420636F6D6D616E642C2072657307
:10819800756C743A203078253032780A0D0000006A
:1081A8002020537563636573733A20534843495FCE
:1081B80043325F424C455F496E697420636F6D6D51
:1081C800616E640A0D0000002020537563636573B7
:1081D800733A206863695F726573657420636F6DB5
:1081E8006D616E64000000005032505352563100E9
:1081F80010B540F21014C2F2000494F8800005286B
:108208000CD008F0FBFD002184F880100DA106A217
:10821800002808BF114608460AF05AF80220BDE8AF
:10822800104000F025B800BF2A2A2053544F502090
:108238004144564552544953494E47202A2A202042
:108248000D0A0D002A2A2053544F50204144564508
:1082580052544953494E47202A2A20204661696CC6
:108268006564200D0A0D00000120042108F07CBB84
:108278002DE9F04188B040F2F201C2F20001044653
:1082880040F2F0000D78C2F200000678002D40F2AE
:10829800101818BF8025002EC2F2000818BFA026AB
:1082A800012C18BF4FF4C86598F8810018BF4FF427
:1082B8007A6604F079FC022C15D198F88000013810
:1082C800012810D808F09AFD38B1014643F26F3002
:1082D800C0F6010009F0FCFF05E043F6CC10C0F63B
:1082E80001000AF0ADFC40F24800C2F2000000783C
:1082F80098F8181045F25873002708F11902C2F2CD
:108308000003CDE90070CDE90231CDE90427002052
:10831800294632460123069708F0FCFC40B1014685
:108328001EA009F0D5FF88F8807008B0BDE8F0817C
:1083380028A088F880400AF083FC40F24901C2F284
:1083480000010E2008F07AFD78B10146012C07BF24
:1083580043F29870C0F6010043F26070C0F6010065
:1083680008B0BDE8F04109F0B3BF012C0DD123A03E
:1083780009F0AEFF98F881004EF24601C0F2010103
:1083880008B0BDE8F04104F02FBB43F2ED70C0F631
:10839800010008B0BDE8F04109F09ABF3D3D3E3EFE
:1083A800206163695F6761705F7365745F64697397
:1083B800636F76657261626C65202D206661696CF9
:1083C8002C20726573756C743A2030782578200AF1
:1083D800000000003D3D3E3E206163695F676170BB
:1083E8005F7365745F646973636F76657261626CED
:1083F80065202D2053756363657373003D3D3E3ED4
:1084080020537563636573733A20537461727420E3
:1084180046617374204164766572746973696E6726
:10842800200A0D0010B548F265420446C0F6000265
:108438004FF48060002108F07DF940F25C03C2F23D
:1084480000034FF0640C03EB840242F61920214626
:1084580023F824C0BDE8104000F0A6B840F25C0242
:10846800C2F2000242F61920002100F09DB8000077
:1084780040F25C01C2F20001CA780880012A18BFE4
:1084880070474FF48060032108F06EBA80B582B05F
:108498004178FF2902D0002002B080BDB0F8031057
:1084A80040F61442914212D040F601429142F2D174
:1084B80040F28C01C2F200014988B0F8072002316D
:1084C8009142E8D1407B012121EA00000EE040F210
:1084D8008C01C2F200014988B0F8072001319142AD
:1084E800D9D1B0F8050008F0A5FD02208DF80600E6
:1084F80000208DF807000DF1060000F035F8012086
:1085080002B080BDF0B587B048F29540C0F60000D3
:1085180006F076FF41F60F0040F28C050DF11A04C3
:10852800ADF81A00C2F200050120214601220423F9
:1085380000950126042708F01DFD42F6192135F89B
:10854800020BADF81A100A2100221223CDE90032DD
:10855800CDE902710121224601230496059508F010
:1085680099FC07B0F0BD00000078022812D001285D
:1085780009D0002818BF704740F25C00C2F2000022
:108588000121C170704740F25C00C2F20000002176
:10859800C170704740F25C02C2F2000242F6192034
:1085A800002100F001B80000944642F619229042DA
:1085B80018BF704780B582B001EB410040F28C01D2
:1085C800C2F2000101EB400231F81000518800228C
:1085D8000123CDF800C008F099FD02B080BD00006D
:1085E800012806D0002818BF70474FF6FF7008F022
:1085F8008DB84FF6FF7008F0C9B8000010B50446F2
:108608004068083006F02CFF002818BF01202070B1
:1086180010BD00007047000040F2FC20C2F20000CC
:10862800016811B10139016001D00020704710B50F
:108638005820C5F60000016840F2004421F40011FA
:10864800C4F60004016020464FF4807101F0C6F9B9
:1086580020464FF4007101F0C1F91E2002F0EEF837
:108668001F2002F0EBF845F60800C2F2000001F006
:108678007DFB002818BF6FF0070010BD40F2FC22F8
:10868800C2F2000245F6080045F200411368C2F242
:108698000000C4F200010160581C002B10601CBFD0
:1086A800002070472DE9F0439BB045F60800C2F260
:1086B800000001F077FB00284FF0000002D01BB04B
:1086C800BDE8F08301AC204650210026FEF75CFE91
:1086D8004FF440304FF0040809902046CDF804804C
:1086E80002F034F94C27C5F60007386840F2004418
:1086F80040F0020038603868C4F6000400F0020058
:10870800159015984FF4807015AD15904FF012091B
:1087180020462946CDE91696CDE9186801F0F4F906
:108728004FF40070CDE9150920462946CDE91766B2
:10873800CDF8648001F0E8F9F868002140F40010F1
:10874800F860F868002200F400101A901A981E20A9
:1087580002F0AEF81E2002F087F81F200021002248
:1087680002F0A6F81F2002F07FF845F60800C2F2D2
:10877800000004F0B9FC20B16FF007001BB0BDE8A1
:10878800F08345F60800C2F20000002101F0A4FAC7
:10879800002818BF6FF007001BB0BDE8F083000089
:1087A80080B50A46014645F60800C2F200004FF4BB
:1087B800805301F04FFB002818BF6FF0020080BD06
:1087C80080B584B09C460B4601464FF48050029019
:1087D80045F608000092C2F200001A460223CDF8BE
:1087E80004C001F0DFFB70B145F60800C2F20000DA
:1087F80001F0D6FA01466FF06500042908BF6FF052
:10880800030004B080BD002004B080BD80B584B0F2
:108818009C460B4601464FF48050029045F60800EE
:108828000092C2F200001A460223CDF804C001F0FB
:1088380043FD70B145F60800C2F2000001F0B0FA3D
:1088480001466FF00300042908BF6FF0650004B00B
:1088580080BD002004B080BD70470000FEE7000026
:10886800704700002DE9F04F83B0044640690F4679
:108878002189994690460028834618BF8B460DD01B
:1088880061B9D4E900232669955D0136F31A38BF2A
:108898003346D25C45EA022202F1020BD4E90332E4
:1088A800002918BF88469A4201D2002203E0636873
:1088B80012FA8BF29A1AB1FA81F14B0908EB4305C7
:1088C80005FB09F191424FEA43060AD20022B2425F
:1088D8000ED80023B24212D81A46B8F1000F16D1AA
:1088E8001AE0B2FBF5F303FB1522D2B2B242F0D97B
:1088F800237FDB07134608BF0023B242ECD9227F4F
:108908009207324658BF1A46B8F1000F04D00844FF
:1089180061681044884203D9002003B0BDE8F08F95
:10892800B9F1000F0295009600F0A5804FEA1820D3
:108938004FF0000A019008E0A069B9F1010900F1BF
:1089480001004744A06100F096802069616810FA30
:108958008BF2501A218938BF1046206199B92168D5
:1089680001F80080D4E900120130821A38BF0246AB
:108978000198531C885460686169181A01F1020152
:1089880038BF1846616161680D1A454528BF4546DC
:1089980006D2227F22B181421ED100268EB9CBE7B2
:1089A80021682A4608443946FEF7C7FC6069DDF8A5
:1089B80008B028446061A8EB05060020AA46002EEE
:1089C800BAD021683246084407EB0A01FEF7B5FC25
:1089D800606930446061AFE7217FCA071FD189070A
:1089E80040D52189002997D121682A0A014401F834
:1089F800025C2168014401F8012C21682A460844D8
:108A08003946FEF79AFCD4E9050223682844A8EB06
:108A180005010132C4E90502080A19701AE0218922
:108A280041B92168FF22014401F8022C2168084459
:108A380000F8012C606921892844606121B1002077
:108A480045464FF0000A0DE02068002580F80080B8
:108A5800019841462268AA46507060690D46023066
:108A68006061022000992E4605EB010B002121616F
:108A7800002EA6D160E72069009BD4E900121844B3
:108A8800821A38BF0246881803B0BDE8F08F00008C
:108A980080B5DDF808E084460020CCE90300CCE985
:108AA80005000EF00200CCE90012ACF80830002BEB
:108AB80018BF012303EA500040428CF81CE080BD37
:108AC8002DE9F041D0F814C0BCF1000F56D002894E
:108AD80096465AB9D0E9003EC4681E5D0134B4EB2D
:108AE8000E0538BF25465B5D46EA032E037F03F07B
:108AF8000303012B22D14FF6FF739E4508BF002ABE
:108B080008D0D0E90334A34218D9BAB14468E31AAB
:108B1800934213D24368C668ACEB03052E44466102
:108B280000269646C6604AB90668C3F1010435783E
:108B3800012B88BF0124335D45EA032EB2FA82F285
:108B48005409C268D0E9006802EB44034569B3EBF5
:108B5800080738BF1F460EEB440306EB070CEB1A59
:108B6800436107D0630073441A44B2EB080338BF6B
:108B78001346C3608269013A826103E04FF0000C3A
:108B88004FF0000E6046002918BFA1F800E0BDE8CC
:108B9800F081000042694AB370B50389C2689C46F7
:108BA80063B9D0E900CE551CB5EB0E041CF8026081
:108BB80038BF2C461CF8045046EA052C067F06F000
:108BC8000306012E22D11FFA8CF64FF6FF75AE422E
:108BD80008BF002B0ED00669B24217D9B3B1466858
:108BE800B61A9E423CBF9C4600220FE000204FF080
:108BF800000C16E0D0E90026C6F101041578012E14
:108C080088BF0124125D45EA022C0022002BD0E91E
:108C1800000308BF0232D31A38BF13461844BDE810
:108C28007040002918BFA1F800C07047B0B582B0E5
:108C380016A000900F206C468DF8040042F62920FB
:108C4800214600F09FF815A00090082542F6242040
:108C580021468DF8045000F095F840F2AC10C2F2AD
:108C68000000009006208DF8040042F627202146D7
:108C780000F088F80BA0009042F6262021468DF8D7
:108C8800045000F07FF802B0B0BD00BF4B4957490F
:108C980020505245434953494F4E0000424C452D00
:108CA800532E3000302E322E302E30002DE9F04F6A
:108CB80087B040F29205C2F2000541F60A000DF1B4
:108CC8001A0900262C462F46ADF81A0001204946FD
:108CD800012209232E6024F8086F47F8046F0095D5
:108CE8004FF0010808F046F942F629212888ADF826
:108CF8001A10A91C4FF00A0A4FF0020B0591012126
:108D08004A462023CDE900B6CDE9026ACDF81080A5
:108D180008F0C0F842F624212888ADF81A1001217D
:108D28004A462023CDE900B6CDE9026A0597CDF879
:108D3800108008F0AFF842F627212888ADF81A10FD
:108D4800A91D059101214A462023CDE900B6CDE9A8
:108D5800026ACDF8108008F09DF842F6262128888E
:108D6800ADF81A1001214A462023CDE900B6CDE915
:108D7800026ACDF81080059408F08CF807B0BDE8B9
:108D8800F08F000042F62422821A90B205281BD8E0
:108D9800D2B22D2323FA02F2D20715D080B582B0C1
:108DA8000AA252F8202040F29200C2F20000128873
:108DB80000880B79D1F800C011460022CDF800C018
:108DC80008F0A4F902B080BD9720704796000020F3
:108DD800940000209A0000209800002094000020B1
:108DE8009400002045F2A870C2F2000000F0ACBC6C
:108DF8007047000013460A460146002003F05CBF96
:108E080080B582B0FFF7F4FF40F2143040F23431FD
:108E18004FF0020CC2F20000C2F200014FF480527F
:108E28000023CDF800C0FFF733FE02B080BD00007C
:108E380070B582B040F21434EFF31086EFF310806F
:108E480072B6C2F200040DF1060520462946FFF766
:108E580037FE20462946FFF79DFE58B186F3108855
:108E6800BDF8061048F63962C0F60002FFF7C2FFE7
:108E780002B070BD40F20D00C2F200000121017085
:108E880086F3108802B070BD7047000010B5044624
:108E980000F008FF41F28451C2F200018861207895
:108EA80062780870A088A37894F803C08880207A34
:108EB8004A70E288C872A07A8B700872002081F824
:108EC80003C0CA80A27A0B18C240013002F0010226
:108ED8000528DA74F6D1A07AC0F340104874A07A55
:108EE800C0F380108874E27A237B94F80DC0A07BCD
:108EF8004A724A7B8B72824281F80CC01EBF48734B
:108F080001208873E07B227CA37CC87343F21C4059
:108F18000A740B5410BD000070470000202000F0B8
:108F2800E7BD00002DE9F047ADF51C7D47F2805004
:108F3800C1F6FF70006840F20838C2F200084FF42A
:108F4800404140F2C824C8E900010020C2F20004F0
:108F5800CDE90A00CDE90800CDE906000020214648
:108F6800E022182304F09AFC0028F7D145F2847017
:108F7800C2F200002146142200F0A0FA616941F211
:108F880078578142C2F2000702D1207C012834D0F0
:108F98000020CDE90A00CDE9080045F24340C5F2BA
:108FA8004F20069043F23100C0F25700079001208D
:108FB8008DF828004FF0FF30ADF829008DF82B0010
:108FC80045F28470C2F2000006A9142200F076FA75
:108FD8000B9000BFD7E90012002004F059FC0028CC
:108FE800F8D106AD00202946E022182304F07AFCC7
:108FF8000028F7D106AE6FCE6FC440F2B41400203B
:10900800C2F200040C90CDE90A00CDE90800CDE9D0
:10901800060000BF002021464FF480721C2304F094
:109028003DFC0028F6D145F28470C2F200002146CA
:10903800182200F043FAA169814203D1207801285F
:109048003DD000BFD7E90012002004F021FC002821
:10905800F8D10020CDE90700CDE90900CDE90B00E2
:109068000120C0F20020069001208DF81C004FF06E
:10907800FF30CDF81D00CDF82100CDF82500CDF842
:1090880029000B9045F2847006ADC2F20000294613
:10909800182200F013FA06AF8ECFDDE90A6C0C90A7
:1090A80084E88E00C4E9046CA06100BF0020294652
:1090B8004FF480721C2304F015FC0028F6D108F048
:1090C800B9FD002840F07F8040F2941044F2E1019D
:1090D800C2F20000C0F24051016000BF04F00CFE73
:1090E8000028FBD145F2543442F63A7147F26842FF
:1090F800C2F2000447F27770C7F22F71C7F2740208
:10910800C0F22E00C4E9002131A1A0604A6AD1E969
:109118000730DFF8BCC0C4E91C02088DD1E9019A08
:10912800D1E90376D1E9055EA4F878000020C4E906
:1091380014C9C4E916A7C4E91865C4F868E0E36669
:1091480084F8E001204604F031FB0028FAD1D8E980
:1091580000010DF25E24C1F30723C9B2020EC0F369
:1091680007478DE8860043F24402C0F30726C5B2DC
:10917800C0F60102204612210396049509F0B8F8BA
:1091880043F2620240F2C82390ADC0F60102C2F277
:10919800000328461E21009409F0AAF840F2111095
:1091A800ADF8180054208DF8210028468995FEF75F
:1091B80002F90790082006AC8DF82802204603F033
:1091C800BDFF0028FAD10DF51C7DBDE8F08700BF72
:1091D8006B697769707265636973696F6E2E667201
:1091E8002F362D62696174686C6F6E2D6C617365C2
:1091F800722D6E6F2D7269736B000000F0B581B02F
:10920800002004F0FDFA0028FAD10020002404F020
:1092180063FB002004F0B6FB41F27855C2F200056A
:10922800C5E900440DF1030400200021224604F0A2
:1092380047FB9DF8036000200121224604F040FB13
:109248009DF8037000200221224604F039FB9DF8A6
:1092580003000F2808BF072F17D0D5E900120020F8
:1092680004F016FB002004F00DFB0020002106226C
:1092780004F04AFB00200121072204F045FB0020EE
:1092880002210F2204F040FB01E0062EE5D1FFF792
:1092980049FE00F027F80DF10201002004F016FB4A
:1092A8009DF8020008B101B0F0BDD5E90012002018
:1092B80004F0EEFA0020002140F2011204F030FB25
:1092C800002001214FF4817204F02AFB00200221C2
:1092D80040F2031204F024FB0020012104F01AFBE1
:1092E80001B0F0BD10B5BEB06846F821FEF74CF8E5
:1092F80040F2D014C2F20004002021464FF4A072BC
:10930800F82304F0CBFA45F28470C2F2000021463B
:10931800F42200F0D3F8D4F8F410814225D06C463A
:109328002046F421FEF730F841F27850C2F20000EE
:10933800D0E90012002004F0ABFA45F28470C2F2C2
:1093480000002146F42200F0B9F83D9000202146A3
:109358004FF4A072F82304F0C5FA40F2D010C2F21C
:1093680000002146F822FDF7E8FF3EB010BD0000DE
:10937800EFF3108072B600BFFEE7000070B582B050
:1093880040F60044C4F60004A4F500604FF4005110
:1093980000F07CFC0138B0FA80F045092046022133
:1093A80000F074FC0138B0FA80F04609204601212B
:1093B80000F06CFC0138B0FA80F0440940F2AC10BF
:1093C800C2F2000003A12A463346009408F0AAFF1F
:1093D80002B070BD25642E25642E256400000000AF
:1093E80040F20830C2F20000D0E9000170470000E6
:1093F80040F2B410C2F200000079704740F2B41095
:10940800C2F200004078704740F2B410C2F2000087
:109418008078704740F2C820C2F200007047000010
:10942800B0B5CB070FD14FF0010C4FF0000EBEF1D5
:10943800000F06D000684161816821F018011143CE
:1094480081606046B0BD1F233BB1013B03F01F04A0
:1094580021FA04F4E407F7D001E04FF0FF334FEAB4
:10946800F205032DDFD84FF0000C4FF0010EDFE8B6
:1094780005F002030E19DAE7102B4FF0000E38BF83
:109488004FF0010E0F2B88BF4FF0010CCFE7082BD0
:109498004FF0000E38BF4FF0010E072B88BF4FF07A
:1094A800010CC4E7072B4FF0000E38BF4FF0010E38
:1094B800062B88BF4FF0010CB9E70000B0B5844611
:1094C80002208CF81D00DCF800E0DCF82000DEF853
:1094D8000830012843F00103CEF8083021D00228D3
:1094E8000BD003282DD1002A4AD0081F50F8041F9A
:1094F800013ACEF80010F9D142E0002350080AD012
:10950800CC18CD5A6488013844EA054403F10403B1
:10951800CEF80040F4D1D0071CBFC85AAEF80000FE
:109528002EE093080FD0CC1E002000BFD4F80350C3
:1095380004342DBA0438013BCEF80050F6D140422D
:1095480002E000201EE0002002F00302DFE802F043
:109558001602040C085C0FE00A18085C517841EA0E
:109568000020AEF8000009E00A18085C517841EACA
:109578000020AEF8000090788EF80000DCF800E0DB
:10958800DEF8000001218CF81D10B0BD002804BFD2
:109598000120704710B50446407F20B9002020778D
:1095A800204600F031F802206077207948B1D4E9EC
:1095B80002122046FFF734FF00281CBF012010BD0F
:1095C80009E0206841F6B751C0F2C14141618168A4
:1095D80021F0180181606079002814BF20694FF0DC
:1095E800FF302168D4E905230861886820F060000D
:1095F80010438860886820F0800018438860012044
:109608006077002010BD0000006843F20001C4F23A
:109618000201884218BF704781B04820C5F6000093
:10962800016841F480510160006800F480500090A6
:10963800009801B07047000042F20400CEF2040026
:10964800016841F0010101607047000042F2040026
:10965800CEF20400016841F0020101607047000089
:10966800002804BF0120704790F82510022929D14D
:1096780080B50168D0E910CE826C0B6823F00E0328
:109688000B60136823F4807313600A6822F00102E8
:109698000A600EF01C02012101FA02F2CCF8042043
:1096A800D0E913325A60426D32B1136823F48073E3
:1096B8001360D0E91623536080F825100021BDE817
:1096C800804002E00421C1630121002280F82420A7
:1096D8000846704790F8251002292ED180B50168F8
:1096E800D0E910CE826C0B6823F00E030B600B6878
:1096F80023F001030B60116821F4807111600EF0F2
:109708001C02012101FA02F2CCF80420D0E913323C
:109718005A60426D32B1136823F480731360D0E944
:109728001623536080F82510816B0022002980F8E9
:10973800242018BF8847002080BD0421C163012070
:1097480070470000C06B7047B0B5D0E910C302681D
:10975800DCF8001003F01C030424D2F800E09C405D
:109768000C4218BF1EF004051BD102249C400C4279
:1097780018BF1EF0020520D1D94009071CD51EF0DC
:10978800080108BFB0BD116821F00E011160012168
:1097980001FA03F2CCF80420C16380F82510416B6C
:1097A80018E01168890603D4116821F004011160DA
:1097B800CCF80440016B91B9B0BD1168890606D494
:1097C800116821F00A011160012180F82510CCF8F8
:1097D8000440C16A0022002980F82420ECD0BDE8AA
:1097E800B040084700284FF0010100F083802DE9C0
:1097F800F04740F2000CC4F2020C02684FF6F8334E
:109808000CF5816ECBF6FD73724538BF03F58063A6
:1098180003EB02044CF6CD43CCF6CC43A4FB03582F
:1098280002F0FC05A5F10805A5FB03390CF58064D9
:109838006FF00305D0E902A607693CBF0024C4F213
:10984800020405EA9805C0E91045022480F825407D
:10985800146847F6F07324EA0303334344693B432F
:1098680086692343C4693343066A2343334343EA7F
:109878000A031360724540F61C02C4F20202134642
:1098880038BF0CF500632B44836402F16403C3649E
:10989800C9F304139940BAF5804F016504BF00234A
:1098A80043604768866C07F03F03013F032F33602E
:1098B800916612D8591E02EB8103002701F00301BB
:1098C800012643F8E47F02F5927706FA01F1C0E930
:1098D8001537C165C2F8281103E00021C0E9151148
:1098E800C16500210122C16380F8252080F8241079
:1098F800BDE8F0470846704790F824C0BCF1010F56
:1099080043D04FF0010C80F824C090F825C0BCF17A
:10991800010F37D12DE9F0414FF0020C80F825C036
:109928004FF0000CC0F83CC0D0F800C000F14C0E5D
:109938009EE83040DCF80060BEF1000F26F001061A
:10994800CCF8006065601CBFD0E916456560D0E9B9
:109958001056846806F01C060127D0F8308007FAF4
:1099680006F66E60CCF80430102C0B4604BF134684
:109978000A46B8F1000FCCF80830CCF80C2006D015
:109988000E210BE0002180F8241002207047DCF83B
:10999800001021F00401CCF800100A21DCF80020A6
:1099A8001143CCF80010806C0168C90303D5016825
:1099B80041F480710160BEF1000F05D0DEF80000AF
:1099C80040F48070CEF80000DCF8000040F00100A0
:1099D800CCF800000020BDE8F0810000002908BF95
:1099E80070472DE9F04F81B041F2000300F1384291
:1099F800C4F6000307274FEAB224984208BF042799
:109A080040F6000E042C38BF4FEAB227C5F6000E08
:109A180000F1200A009700220027002427E000BF59
:109A28000368032505FA02F6334303606FF0030366
:109A380003EA540507F01C085AF805900F2303FAA7
:109A480008F329EA03034AF80530C368B343C3603F
:109A5800436823EA0C0343608368B343836001349B
:109A680031FA04F307F1040702F102023AD00123A4
:109A780003FA04FC1CEA0108F1D0082324F00306C9
:109A8800C4F20103F65807F00C0B0F2303FA0BF985
:109A9800009B06EA090603FA0BF39E42C0D1DEF8E2
:109AA8008030082523EA0803CEF88030DEF88430B9
:109AB800A60823EA0803CEF88430DEF80030C4F2A2
:109AC800010523EA0803CEF80030DEF8043023EA63
:109AD8000803CEF8043055F8263023EA090345F880
:109AE80026309DE701B0BDE8F04F70477047000091
:109AF80040F60C01C5F600010A68024214BF08606E
:109B08007047FFF7F3BF00002DE9F04F82B00E68F1
:109B1800002E00F0B78000F1200241F2000500920B
:109B280000F13843C4F6000507224FEAB327A842DC
:109B380008BF0422042F38BF4FEAB32200230027AE
:109B4800002501920AE000BF0E68013536FA05F2D9
:109B580007F1020703F1040300F09480012202FADE
:109B680005FC16EA0C0EEFD0D1F804A003220AF087
:109B78000309A9F10104012C02FA07F810D8846836
:109B8800D1F80CB024EA08040BFA07F222438260E9
:109B98004268CAF3001422EA0C02AC402243426035
:109BA800B9F1030F1FD0C2688C6822EA0802BC40D2
:109BB8002243B9F1020FC26015D16FF00302009E73
:109BC80002EA550B56F80BC003F01C040F22D1F81B
:109BD80010A002FA04F92CEA090C0AFA04F444EA7F
:109BE8000C0446F80B4002684C6822EA080204F0AC
:109BF8000306BE40324314F4403F0260A4D040F252
:109C0800080825F00302C4F2010852F808C003F05E
:109C18000C040F26A6402CEA060C019E06FA04F452
:109C280044EA0C0642F8086040F60008C5F6000849
:109C3800D8F800C04E684CEA0E04F20258BF2CEA6D
:109C48000E04C8F80040D8F804C0B2024CEA0E046A
:109C580058BF2CEA0E04C8F80440D8F880C0F203B4
:109C68004CEA0E0458BF2CEA0E04C8F88040D8F815
:109C78008420B60342EA0E0458BF22EA0E04C8F84C
:109C8800844061E702B0BDE8F08F00000069084039
:109C980018BF0120704700001823002A08BF282396
:109CA800C150704745F60420C2F2000000687047B2
:109CB80040F25800C2F20000006870477047000088
:109CC80041F20051C5F60001C8680A6882430A607B
:109CD8004860FFF7F3BF000090F84120202A03D125
:109CE80090F84020012A01D102207047242280F8F0
:109CF80041200268136823F001031360136823F4FA
:109D080080531360136819431160116841F0010111
:109D18001160202180F84110002180F840100020B7
:109D28007047000090F84120202A03D190F8402085
:109D3800012A01D102207047242280F841200268BC
:109D4800136823F001031360136823F4706343EA74
:109D580001211160116841F001011160202180F892
:109D68004110002180F8401000207047002804BFEF
:109D78000120704710B5242180F84110016804467D
:109D88000A6822F001020A6000F022FC00206064E8
:109D980084F84100206384F8420084F8400010BD34
:109DA800406C704790F8410070470000002804BFDD
:109DB8000120704710B590F8411031B9002180F8A2
:109DC8004010044600F024FC2046242180F841106D
:109DD80090E80610C4680B6822F0706223F0010353
:109DE8000B600A618A68012C22F400428A604FF4F1
:109DF800044208BF4FF4004242EA0C028A604A68F3
:109E0800022C22F4006208BF02F500624A604A6828
:109E180000F1100442F0007242F400424A60CA683D
:109E280022F40042CA601CCC1A4342EA0422CA60E7
:109E3800D0E907231A430A600A6842F001020A605F
:109E480000212022416480F84120016380F84210FB
:109E5800002010BD2DE9F04F83B004460020029089
:109E680094F84100202807D120688069000403D4B1
:109E780094F84000012803D1022003B0BDE8F08F18
:109E8800012084F84000242084F841000020606408
:109E980048F208001D4660F39F215F1C4FF0100830
:109EA8004FF020090CE020685246C0F81C80C0F82A
:109EB8001C9002985946013002900298504545D2AC
:109EC800E06892462268012808468B4618BF40F48D
:109ED80000605060FFF7E6FE216806468A698969D6
:109EE80002F0200201F0100189180ED02068816963
:109EF800C90618D443E000BF20688169806901F071
:109F0800200100F010004018F0D1002FF4D0FFF726
:109F1800C9FEDDB1801BA842EED917E02068806930
:109F2800800621D5206880698006BCD42046294651
:109F3800324602F0DFFE58BB002FF3D0FFF7B2FE27
:109F4800002DEBD0801BA842ECD9E7E7202084F84D
:109F58004100606C40F0200060640120002184F81A
:109F6800401003B0BDE8F08F606C40F020006064E2
:109F7800202084F84100002084F84200EDE72046C4
:109F8800202100222B460096202502F04DFF18B113
:109F9800012003B0BDE8F08F2068C56184F8415006
:109FA8000020DBE72DE9F04F81B0044690F841002E
:109FB800202807D10A9E4EB10B9F3FB194F840006C
:109FC800012807D1022001B0BDE8F08F4FF40070DE
:109FD80060646DE101209B469146884684F8400004
:109FE800FFF760FE216805468969090428D4222004
:109FF80084F84100402084F84200002060646662D2
:10A0080067852168606349F6000A40464B68CFF6C9
:10A01800004A6FF39F205FFA8BF2804640EA0240C5
:10A0280003EA0A02104400F50050486088690C9E53
:10A0380080073CD4771C28E0206880690004D6D5C6
:10A04800204619212A4602F055FE002840F03081AA
:10A05800FFF728FE401B1A28EED320688069000409
:10A06800EAD5606C40F020006064202084F841004C
:10A07800002084F8420019E120688069800740F1D7
:10A08800088120688069800711D4204631462A4615
:10A0980002F030FE002840F00881002FF1D0FFF7D1
:10A0A80001FE002EE8D0401BB042EAD9E4E7206860
:10A0B800BBF1010F23D04FEA192181628069800723
:10A0C8001CD4771C08E020688069800740F1E18093
:10A0D80020688069800711D4204631462A4602F05C
:10A0E80009FE002840F0E180002FF1D0FFF7DAFDEB
:10A0F800002EE8D0401BB042EAD9E4E720685FFAB6
:10A1080089F181622068806940061CD4771C08E0C8
:10A1180020688069400640F1BC802068806940065C
:10A1280011D4204631462A4602F0E4FD002840F0CA
:10A13800BC80002FF1D0FFF7B5FD002EE8D0401B02
:10A14800B042EAD9E4E7608D40F20009B0F5807FBB
:10A15800C0F2FF19404609D3FF222168228551F831
:10A16800042F09F5105302EA0A020BE0628D2168F8
:10A17800228551F8043FD2B203EA0A0343EA0242B5
:10A1880009F592331A43024300F1007B771C0AF564
:10A19800806A0A6004E02068806940077FF561AF43
:10A1A80020688069400710D4204631462A4602F0CC
:10A1B800A1FD00287CD1002FF2D0FFF773FD002EFF
:10A1C800E9D0401BB042EBD9E5E72068616A406AF4
:10A1D8000870606A218D01306062481E2085618D9B
:10A1E80001396185618DB9B3000405D034E0206878
:10A1F800806900067FF535AF20688069000610D4B5
:10A20800204631462A4602F075FD002850D1002F1D
:10A21800F2D0FFF747FD002EE9D0401BB042EBD942
:10A22800E5E7608DB0F5807F0BD32068FF2121859D
:10A23800416801EA0A0141EA080141EA090141606D
:10A248000AE0608D216820854A68C0B24BEA004068
:10A2580002EA0A0210434860608D0028A0D1204617
:10A2680031462A4602F02EFE10BB20682021C1612B
:10A2780042684EF60003CFF600631A4042600020A1
:10A2880084F8411084F8420084F8400001B0BDE829
:10A29800F08F606C40F020006064202084F841005A
:10A2A800002084F8420084F84000002084F8400030
:10A2B800012001B0BDE8F08F2DE9F04F81B00446D0
:10A2C80090F84100202807D10A9E4EB10B9F3FB15C
:10A2D80094F84000012807D1022001B0BDE8F08FB2
:10A2E8004FF4007060646FE101209B4692468946F6
:10A2F80084F84000FFF7D6FC2168054689690904FF
:10A308002CD4212084F84100402084F84200002009
:10A3180060646662678560634846226849F600485B
:10A328006FF39F205FFA8BF1CFF60048814640EA31
:10A3380001405168A8F580631940084440F08070D6
:10A3480040F40050506090690C9E80073DD4771C03
:10A3580029E000BF206880690004D2D52046192171
:10A368002A4602F0C7FC002840F02E81FFF79AFC2D
:10A37800401B1A28EED3206880690004EAD5606C77
:10A3880040F020006064202084F84100002084F818
:10A39800420017E120688069800740F10681206843
:10A3A8008069800711D4204631462A4602F0A2FC73
:10A3B800002840F00681002FF1D0FFF773FC002E33
:10A3C800E8D0401BB042EAD9E4E72068BBF1010FAE
:10A3D80023D04FEA1A218162806980071CD4771C38
:10A3E80008E020688069800740F1DF802068806984
:10A3F800800711D4204631462A4602F07BFC00280B
:10A4080040F0DF80002FF1D0FFF74CFC002EE8D0A1
:10A41800401BB042EAD9E4E720685FFA8AF181621A
:10A428002068806900061CD4771C08E020688069D1
:10A43800000640F1BA8020688069000611D42046E1
:10A4480031462A4602F056FC002840F0BA80002F18
:10A45800F1D0FFF727FC002EE8D0401BB042EAD924
:10A46800E4E7608DB0F5807F48460AD3FF22216873
:10A47800228551F8042F0023C0F2FF1302EA0802D4
:10A488000BE0628D2168228551F8043FD2B203EABD
:10A49800080343EA02424FF000731A4340F2000BEC
:10A4A800024300F1007A771CC0F2FF1B0A6004E047
:10A4B8002068806980077FF562AF2068806980071F
:10A4C80010D4204631462A4602F014FC00287BD1DD
:10A4D800002FF2D0FFF7E6FB002EE9D0401BB04278
:10A4E800EBD9E5E7616A206811F8012B82626162A5
:10A4F800618D01396185218D01392185628DBAB35C
:10A50800090406D034E02068806900067FF537AF7B
:10A5180020688069000610D4204631462A4602F099
:10A52800E9FB002850D1002FF2D0FFF7BBFB002E2B
:10A53800E9D0401BB042EBD9E5E7608DB0F5807FEC
:10A548000BD32068FF212185416801EA080141EA0F
:10A55800090141EA0B0141600AE0608D216820850C
:10A568004A68C0B24AEA004002EA0802104348605A
:10A57800608D0028A1D1204631462A4602F0A2FC6F
:10A5880010BB20682021C16142684EF60003CFF657
:10A5980000631A404260002084F8411084F84200A9
:10A5A80084F8400001B0BDE8F08F606C40F02000F6
:10A5B8006064202084F84100002084F8420084F878
:10A5C8004000002084F84000012001B0BDE8F08F71
:10A5D800006845F20041C4F20001884218BF704784
:10A5E80010B55820C5F60000016840F2004421F477
:10A5F8000011C4F60004016020464FF40071FFF713
:10A60800EDF920464FF48071BDE81040FFF7E6B938
:10A61800B0B59AB0044600201890CDE91600CDE9EF
:10A62800140068465021FCF7AFFE206845F200414F
:10A63800C4F20001884201D01AB0B0BD4FF44030D6
:10A64800042408906846009400F080F9002818BF98
:10A65800FEF78EFE4C25C5F60005286814A940F0C3
:10A6680002002860286800F00200199019984FF439
:10A6780040701490122015900020CDE9160040F289
:10A688000040C4F600001894FFF73EFAE86840F46A
:10A698000010E860E86800F40010199019981AB0E2
:10A6A800B0BD0000002804BF0120704710B590F825
:10A6B800381019B9044600F02BF8204640F600413E
:10A6C800C5F6000100220A604FF03F124A603F229F
:10A6D8008A600A684AF2457342F001124AF24974E4
:10A6E8000A6000F118010622C0F60003C0F6000453
:10A6F80041F8044F013A41F8183CF9D100210122F0
:10A70800416380F83820BDE81040084670470000D3
:10A718005021C5F60001006801F53B62904218BF60
:10A72800704781B0086840F480100860086800F439
:10A7380080100090009801B070470000704700003A
:10A748007047000040F2570045F60421C2F20000AD
:10A75800C2F2000100780A681044086070470000DF
:10A7680080B544F20000C5F60000016841F480712C
:10A778000160032000F0C8F80F2000F009F8002855
:10A788001CBF012080BD00F02DF8002080BD000016
:10A79800B0B540F25705C2F20005297801B3044666
:10A7A80000F014FC29784FF47A72B2FBF1F1B0FB97
:10A7B800F1F001F0D1F801460F2C4FF001000ED84E
:10A7C800002918BFB0BD4FF0FF302146002200F02D
:10A7D8006FF840F258010020C2F200010C60B0BDD1
:10A7E8000120B0BD80B582B05020C5F600000168D8
:10A7F800002241F4002101600068002100F40020DB
:10A80800019001982E2000F053F82E2002B0BDE8E8
:10A81800804000F029B80000002848BF704700F0C9
:10A828001F01012202FA01F11C2202EAD0004EF2B5
:10A838008022CEF20002815070470000002848BFF5
:10A84800704700F01F01012202FA01F11C2202EAFE
:10A85800D0004EF28012CEF200028150BFF34F8F2B
:10A86800BFF36F8F70470000002848BF704700F0A3
:10A878001F01012202FA01F11C2202EAD0004EF265
:10A888000012CEF20002815070470000002848BF35
:10A89800704700F01F01012202FA01F11C2202EAAE
:10A8A800D0004EF20022CEF2000281507047000024
:10A8B80010B54EF60C5CCEF2000CDCF80030C3F399
:10A8C800022E8EF00704042C28BF0424BEF10303D3
:10A8D8004FF0FF3E0EFA04F438BF0023A14399401D
:10A8E8000EFA03F39A43114300F1604200F00F039C
:10A8F800090102F56442043B6344002848BF03F1A0
:10A908000C02117010BD00004EF60C51CEF2000181
:10A918000A684FF6FF031A4060F30A2242F080608B
:10A9280040F0FD700860704740F20040C5F6000036
:10A93800006800F4C060704740F20040C5F60000AF
:10A94800016841F480710160704700002DE9F0470B
:10A958000446007840F2880A4006C5F6000A03D487
:10A9680000204FF0000870E0206B6FF0010101EB50
:10A97800B05102290DD34FEAB05068B1012822D155
:10A988005AF87C0C4FF0000840F480304AF87C0CF0
:10A998004DE04FF000084AE04FF0B046306820F034
:10A9A80080603060FFF77EF9054600BF3068070118
:10A9B8000CD5FFF777F9401B0328F7D34FF00308AE
:10A9C800002F07D533E04FF0010830E04FF00008C2
:10A9D800002F2CD45AF8780CD4E9011220F4FE4048
:10A9E80040EA01204AF8780C5AF8780C4FF0B04643
:10A9F80020F4781010434AF8780C306840F08060F2
:10AA08003060FFF74FF905463068000106D4FFF7BC
:10AA180049F9401B0328F7D34FF00308B8F1000F9A
:10AA280005D160695AF8781C08434AF8780CB8F1DF
:10AA3800000F01D0404608E0206BDAF8001021F43E
:10AA480040010843CAF800000020617809073BD597
:10AA5800DAF80800216C00F440758D4233D0FFF716
:10AA68006BFF45B3DAF80800DAF8081020F44070F4
:10AA780041F48031CAF80810DAF8081021F480315E
:10AA8800CAF80810216C0843CAF80800DAF8080068
:10AA9800C00718D0FFF706F9054641F2893600BF0E
:10AAA800DAF8080080070ED4FFF7FCF8401BB04224
:10AAB800F6D3032008E0206CDAF8081021F440717E
:10AAC8000843CAF8080040462168CA070CD18A071B
:10AAD80014D4CA061CD48A0628D44A0734D40A07D0
:10AAE80042D4C90550D4B3E0A269DAF8003023F0A3
:10AAF80003031A43CAF800208A07EAD5E269DAF89C
:10AB0800003023F440631A43CAF80020CA06E2D58D
:10AB1800A26ADAF800304FF6FF7767EA02073B408F
:10AB280043EA0242CAF800208A06D6D5E26ADAF871
:10AB380000304FF6FF7767EA02073B4043EA0242DC
:10AB4800CAF800204A07CAD5226ADAF800306FF43A
:10AB58007F2767EA12173B4002F47F4243EA02125A
:10AB6800CAF800200A07BCD5626ADAF800306FF428
:10AB78007F2767EA12173B4002F47F4243EA02123A
:10AB8800CAF80020C90563D5616BDAF80020B1F175
:10AB9800806F22F0406242EA0102CAF8002009D020
:10ABA800B1F1006F54D15AF87C1C41F080714AF819
:10ABB8007C1C4DE04FF0B0468046306820F0806045
:10ABC8003060FFF76FF80546306807010AD5FFF7D0
:10ABD80069F8401B0328F7D34FF00309002F05D568
:10ABE800404631E04FF00009002FF9D45AF8780CAC
:10ABF800616820F4FE4040EA0120E2684AF8780CD7
:10AC08005AF8780C4FF0B04620F0606010434AF8CC
:10AC1800780C306840F080603060FFF743F80546F4
:10AC28003068000106D4FFF73DF8401B0328F7D32E
:10AC38004FF00309B9F1000F404605D161695AF890
:10AC4800782C11434AF8781CB9F1000F18BF484610
:10AC580021688A0527D5A26B6FF04043B2F1004FF7
:10AC68000FD072B1B2F1804F17460BD0DAF800302E
:10AC780022F0805723F04043CAF800306FF0406359
:10AC880000E01746DAF80060B2F1C05F03EA060395
:10AC980043EA0703CAF8003005D15AF87C2C42F081
:10ACA80080724AF87C2C490564D5E16BDAF80020FB
:10ACB800B1F1805F22F0405242EA0102CAF8002056
:10ACC80009D0B1F1005F55D15AF87C1C41F48031AC
:10ACD8004AF87C1C4EE04FF0B0468046306820F0C1
:10ACE80080603060FEF7DEFF054600BF3068070170
:10ACF8000AD5FEF7D7FF401B0328F7D34FF0030907
:10AD0800002F05D5404631E04FF00009002FF9D457
:10AD18005AF8780C616820F4FE4040EA0120226964
:10AD28004AF8780C5AF8780C4FF0B04620F060409A
:10AD380010434AF8780C306840F080603060FEF7C5
:10AD4800B1FF05463068000106D4FEF7ABFF401B93
:10AD58000328F7D34FF00309B9F1000F404605D196
:10AD680061695AF8782C11434AF8781CB9F1000F38
:10AD780018BF48462168CA0407D5626CDAF80C3057
:10AD880023F440431A43CAF80C20890458BFBDE88D
:10AD9800F087D4E912125AF8643C23F030031A43BE
:10ADA8004AF8642C5AF8642C22F0030211434AF83A
:10ADB800641CBDE8F08700002DE9F04381B000284D
:10ADC80000F0DD8044F20008C5F600080546D8F812
:10ADD80000000C4600F00700814215D9D8F80000A1
:10ADE80020F007002043C8F80000FEF75BFF064686
:10ADF800D8F8000000F00700A04205D0FEF752FF87
:10AE0800801B0228F4D99AE0287808278007C5F61D
:10AE1800000730D4287880063FD42878400651D4DB
:10AE28002878400764D42878000775D42878C007A4
:10AE380040F08980D8F8000000F00700844280F0D4
:10AE48008E80D8F8000020F007002043C8F80000E2
:10AE5800FEF728FF054600BFD8F8000000F00700FD
:10AE6800A04200F07C80FEF71DFF401B02284FF037
:10AE78000300F1D9A3E0A868396821F0F00108437C
:10AE88003860FEF70FFF06463868C003C2D4FEF7E5
:10AE980009FF801B0228F7D951E06869D7F800112B
:10AEA80021F0F0010843C7F80001FEF7FBFE064653
:10AEB800D7F800018003B0D4FEF7F4FE801B022807
:10AEC800F6D93CE0A869D7F8001121F00F0141EA52
:10AED8001010C7F80001FEF7E5FE0646D7F8000196
:10AEE800C0039DD4FEF7DEFE801B0228F6D926E0BB
:10AEF800E868396821F4E06108433860FEF7D2FE5B
:10AF0800064600BF386880033FF58DAFFEF7CAFEDE
:10AF1800801B0228F6D912E02869396821F46051AB
:10AF280041EAC0003860FEF7BDFE064638684003B7
:10AF38003FF57CAFFEF7B6FE801B0228F6D903204A
:10AF480001B0BDE8F08368684FF0B0410968D0B13E
:10AF5800032812D0022835D1890310D515E000F056
:10AF680035F840F24001C2F200010860FEF7A0FE89
:10AF780001B0BDE8F043FFF70BBC890105D40120FF
:10AF880001B0BDE8F0838907F9D5396821F00301DC
:10AF980008433860FEF786FE064641F2883900BF4E
:10AFA8003868696800F00C00B0EB810F3FF442AFDD
:10AFB800FEF778FE801B48454FF00300F0D901B03A
:10AFC800BDE8F0834905DAD5DFE700000C20C5F6B7
:10AFD800000050F8042CC2F3810242F20041C0F292
:10AFE800F401DFE802F0024A111B4FF0B041096892
:10AFF80042F65C6201F0F001B02928BFB02189084F
:10B00800C0F60102515838E04FF0B0421268D2023F
:10B018005CBF44F60001C0F2E8112EE0026802F0BD
:10B028000302022A19D0032A09D14FF0B04212684C
:10B03800D2025CBF44F60001C0F2E8110DE04FF007
:10B04800B041096842F65C6201F0F001B02928BFFE
:10B05800B0218908C0F60102515802680368C2F39A
:10B0680006225143C3F302120132B1FBF2F1026826
:10B07800012303EB5272B1FBF2F150F8040C3C22AD
:10B0880002EA900042F6EC52C0F601021058B1FBF9
:10B09800F0F0704780B5FFF799FF0821C5F6000169
:10B0A800096842F62C62C1F30221C0F6010252F887
:10B0B800211001F01F01C84080BD000080B5FFF7D6
:10B0C80085FF0821C5F60001096842F62C62C1F324
:10B0D800C221C0F6010252F8211001F01F01C84038
:10B0E80080BD00000C21C5F6000151F8042CC2F304
:10B0F800810242F20040C0F2F400DFE802F0024AA6
:10B10800111B4FF0B040006842F65C6100F0F0009F
:10B11800B02828BFB0208008C0F601010858704741
:10B128004FF0B0410968C9025CBF44F60000C0F2A4
:10B13800E81070470A6802F00302022A19D0032AAD
:10B1480009D14FF0B0421268D2025CBF44F6000049
:10B15800C0F2E8100DE04FF0B040006842F65C62C3
:10B1680000F0F000B02828BFB0208008C0F6010227
:10B1780010580A680B68C2F306225043C3F3021240
:10B1880001320968B0FBF2F0012202EB5171B0FB09
:10B19800F1F07047D8B32DE9F0470446007840F243
:10B1A80094098006C5F6000940F1968059F88C0C80
:10B1B80010F00C0159F8880C05D00C292AD100F0A0
:10B1C8000300012826D1E069002859D04FF0B0418A
:10B1D800606A0A6802F0F002B02A28BFB0229042E2
:10B1E8002DD903F021FA00284AD14FF0B042D4E912
:10B1F8000801136823F0F0031943116059F8901CF3
:10B2080021F47F4141EA002049F8900C28E0012010
:10B21800C0B27047E1694FF0B0473868A1B340F059
:10B2280001003860FEF73EFD054600BF386880071C
:10B238003CD4FEF737FD401B0228F7D932E00A68F4
:10B2480022F0F00202430A60216A59F8902C22F495
:10B258007F4242EA012149F8901C03F0E5F978B9E8
:10B26800FFF7B4FE40F25801C2F2000140F240027A
:10B278000968C2F2000210600846FFF789FA30B385
:10B288004FF00108002023E020F001003860FEF7AD
:10B2980009FD05463868800719D5FEF703FD401BF0
:10B2A8000228F7D94FF00308002011E04FF0B04210
:10B2B800D4E90801136823F0F0031943116059F821
:10B2C800901C21F47F4141EA002049F8900C0120AC
:10B2D8000028404600F050822078C00735D059F841
:10B2E8008C0C00F00C0159F8880C082905D00C29A1
:10B2F8000AD100F00300032806D1606808B10120D4
:10B308001FE04FF001081BE04FF0B0476568386850
:10B31800B5F5803F20F4803008BF00F580303860F4
:10B32800FEF7C0FC002D054633D000BF3868800307
:10B33800E5D4FEF7B7FC401B6428F7D94FF00308A3
:10B3480000200028404600F017822078800758D552
:10B3580059F88C0C00F00C0159F8880C042905D018
:10B368000C291ED100F0030002281AD1E068A0B110
:10B37800206959F8901C012621F0FE4141EA00603D
:10B3880049F8900C39E000BFFEF78CFC401B64289C
:10B39800D4D838688003F7D4B1E74FF00108002605
:10B3A8002BE0E1684FF0B047386889B140F480700D
:10B3B8003860FEF777FC054638684005D8D4FEF7B4
:10B3C80071FC401B0228F7D94FF00308002614E04F
:10B3D80020F480703860FEF765FC05464FF0010ADE
:10B3E800386810F480608AEA902606D0FEF75AFC86
:10B3F800401B0228F4D94FF00308002E404600F005
:10B40800BB81216811F0180F00F0A0806269D9F89B
:10B418000000AAB1C90626D440F00100C9F800000E
:10B42800FEF740FC054600BFD9F8000080075DD450
:10B43800FEF738FC401B02284FF00300F4D99BE1CB
:10B4480020F00400C9F80000FEF72CFC054600BFF8
:10B45800D9F80000000733D5FEF724FC401B032869
:10B46800F6D9032088E1800714D4D9F8000040F009
:10B478000100C9F80000FEF715FC0546D9F80000E0
:10B48800800707D4FEF70EFC401B02284FF003008C
:10B49800F4D971E1D9F8000040F00400C9F80000BF
:10B4A800FEF700FC054600BFD9F8000000072FD4BE
:10B4B800FEF7F8FB401B03284FF00300F4D95BE1CB
:10B4C800D9F8000020F00100C9F80000FEF7EAFBF7
:10B4D800054600BFD9F80000800737D5FEF7E2FB24
:10B4E800401B02284FF00300F4D945E1D9F80000C9
:10B4F80020F00400C9F80000D9F80000000725D59D
:10B50800FEF7D0FB401B03284FF00300F4D933E1CA
:10B51800A069D9F8001021F4706141EA0020C9F847
:10B528000000D9F8000020F00100C9F80000FEF77B
:10B53800B9FB0546D9F80000800707D5FEF7B2FB2E
:10B54800401B02284FF00300F4D915E1207840078A
:10B5580051D4207840066DD4E06A002800F083803A
:10B5680059F88C2C59F8881C022802F00C007CD160
:10B57800226B01F00303934240F08B80626B01F071
:10B588007003934240F08580A26BC1F30623934277
:10B5980040F07F80E26B01F47813934279D1226CFA
:10B5A80001F06063934274D1626C01F06041914292
:10B5B8006FD14FF0B0463068800100F1D880306814
:10B5C80040F08070306059F8880C40F0805049F89D
:10B5D800880CFEF767FB0446306810F0007FC0F364
:10B5E800406540F0C580FEF75DFB001B02284FF068
:10B5F8000300F1D9BDE0D9F86C03C00510D4FFF7FA
:10B608009BF9FEF74FFB0546D9F86C03C00507D434
:10B61800FEF748FB401B02284FF00300F4D9ABE0CB
:10B62800A56859F8040C052D63D0012D6AD140F0A6
:10B6380001006FE0A16AD9F80400002945D040F064
:10B648000100C9F80400FEF72DFB0546D9F80400EF
:10B6580080073FF581AFFEF725FB401B02284FF01E
:10B668000300F3D988E0002086E00C282AD04FF0A8
:10B67800B045286820F080702860FEF713FB044668
:10B68800286880016AD5FEF70DFB001B0228F7D950
:10B6980015E00C2816D04FF0B0463068400111D4A0
:10B6A800306820F080703060FEF7FCFA054630689C
:10B6B800800165D5FEF7F6FA401B0228F7D903206A
:10B6C800002556E00120002553E020F00100C9F8CC
:10B6D8000400FEF7E7FA0546D9F8040080077FF56D
:10B6E8003BAFFEF7DFFA401B02284FF00300F3D907
:10B6F80042E040F0040049F8040C59F8040C40F00A
:10B70800010007E020F0010049F8040C59F8040C86
:10B7180020F0040049F8040CFEF7C4FA002D054691
:10B7280041F2883615D000BF59F8040C80073FF560
:10B7380010AFFEF7B7FA401BB0424FF00300F3D941
:10B748001AE000BFFEF7AEFA401BB0424FF003000C
:10B7580012D859F8040C8007F4D4FAE659F8880C82
:10B768004FF6FC71CEF6FE61084049F8880C0125B9
:10B778004046002D18BF0020BDE8F047C0B2704712
:10B7880059F8880C48F28C01C1F2C11104F1300754
:10B7980008408ECFD4E910650843104340EA0320DF
:10B7A80038433043284349F8880C4FF0B046306896
:10B7B80040F08070306059F8880C40F0805049F8AB
:10B7C800880CFEF76FFA0446306810F0007FC0F36B
:10B7D8004065CDD1FEF766FA001B0228F4D9032094
:10B7E800C7E70000002804BF0120704770B5044671
:10B7F80090F8210028B9002084F82000204600F0A5
:10B808007BF8022084F8210042F60C00C4F2000004
:10B818000068C00668D42068CA2141625321416289
:10B82800C168490619D44FF0FF31C160FEF73AFAF2
:10B83800054600BF2068C06840060ED4FEF732FAFD
:10B84800401BB0F57A7FF5D92068FF2141620420BA
:10B8580084F821000120002148E094E80F004FF609
:10B86800BF758668CFF68F752E408660266931438E
:10B87800A66985683143294381600361016941EA0A
:10B8880002410161C16821F08001C160C16C21F0F1
:10B898000301C164E1696269C36C11431943C1645E
:10B8A800816889061DD4C16821F0A001C160FEF736
:10B8B800F9F905462068C068860612D4FEF7F2F941
:10B8C800401BB0F57A7FF5D9002E0AD42068FF21F5
:10B8D8004162042084F82100002084F8200001201F
:10B8E80070BD2068FF2141620020012100291CBF92
:10B8F800012184F8211070BD10B596B0044601A846
:10B908005021FBF741FD206842F60001C4F2000116
:10B91800884201D016B010BD4FF4006001904FF47A
:10B928008070119001A8FFF711F8002818BFFDF7E3
:10B938001FFD5820C5F60000816B41F4004181636A
:10B94800016841F480610160006800F4806015902E
:10B95800159816B010BD0000411E0020B0EB116F05
:10B968001CBF012070474EF21002CEF20002516057
:10B978004EF62351CEF20001F0230B7007219060A0
:10B988001160704790F88410012904BF02207047A5
:10B998002421C0F8881001680A680B6822F0005258
:10B9A80023F001030B60002343660A602021C0F8DE
:10B9B800881080F8843000207047000090F88410C8
:10B9C800012904BF0220704780B52421C0F88810DF
:10B9D800016843F2140C0A680B6842F0005223F025
:10B9E80001030B604FF0005343660A608A68896858
:10B9F800C0F6010C490F43F21C0E1CF80130C0F6CA
:10BA0800010E1EF80110DB00B3FBF1F1C2F3426234
:10BA1800A0F86A101CF802101EF80220C900B1FB39
:10BA2800F2F1A0F868102021C0F88810002180F8F1
:10BA38008410002080BD000070470000704700009F
:10BA480090F88420012A04BF02207047B0B5012372
:10BA5800242280F88430C0F888200268D0F864E096
:10BA6800D2F800C01468BEF1000F24F0010414607D
:10BA7800946824F0606441EA040191601BD09168E5
:10BA8800936843F2140E5B0FC0F6010E43F21C05D7
:10BA98001EF80340C0F60105EB5CE400B4FBF3F3C9
:10BAA800C1F34261A0F86A301EF80130695CDB001E
:10BAB800B3FBF1F301E0A0F86A302021A0F8683068
:10BAC800C2F800C0C0F88810002180F88410002057
:10BAD800B0BD000090F88420012A04BF02207047FE
:10BAE800B0B50123242280F88430C0F88820026889
:10BAF800D0F864E0D2F800C01468BEF1000F24F05A
:10BB080001041460946824F0604441EA04019160DF
:10BB18001BD09168936843F2140E5B0FC0F6010EB8
:10BB280043F21C051EF80340C0F60105EB5CE40077
:10BB3800B4FBF3F3C1F34261A0F86A301EF8013098
:10BB4800695CDB00B3FBF1F301E0A0F86A30202167
:10BB5800A0F86830C2F800C0C0F88810002180F84A
:10BB680084100020B0BD000070470000704700003E
:10BB780010B50446206850E8000F216820F4F070E2
:10BB880041E80002002AF5D14FF6FE70CEF67F702C
:10BB9800216851E8021F2268014042E80213002B85
:10BBA800F6D1E06E012809D1206850E8000F21681D
:10BBB80020F0100041E80002002AF5D120688068D2
:10BBC800000615D5206850E8020F216820F0800093
:10BBD80041E80202002AF5D1E06F48B100218163F3
:10BBE800FDF73EFD20B1E06FFDF7ACFD20281BD02E
:10BBF8002068806840061CD5206850E8020F21683C
:10BC080020F0400041E80202002AF5D1D4F8800073
:10BC180078B100218163FDF723FD50B1D4F880008D
:10BC2800FDF790FD202804D103201021C4F89010BE
:10BC380010BD0021A4F85610A4F85E10626E2068AA
:10BC48000F23B2F1005F036203D1826942F0100250
:10BC58008261826942F0080282612020C4F888006B
:10BC6800C4F88C000020E166C4F8901010BD0000F4
:10BC780010B50446FFF77CFF44F6A911C2F2000193
:10BC880020461422BDE8104000F0C0BA70B5046820
:10BC980040F62F03E2692168A6681340202B05D1DE
:10BCA80001F0200306F080555B1938D140F60F03E8
:10BCB80013400CD00123C1F2000306EA030C40F242
:10BCC8002013C0F200430B4013EB0C032DD1C36EBD
:10BCD800D50616D5012B14D111F0100311D010215F
:10BCE8002162A168490600F1FC80B0F85C10B0F848
:10BCF8005E20B0F85E30002B18BF914240F05B81A7
:10BD080070BDD30240F1CB8016F4800300F0C780E9
:10BD18004FF480112162BDE87040FFF727BF416FE3
:10BD28000029EDD0BDE870400847D30718BF11F4CB
:10BD3800807307D001232362D0F8903043F00103C9
:10BD4800C0F89030930706F0010E0AD5BEF1000F37
:10BD580007D002232362D0F8903043F00403C0F8E0
:10BD6800903053070AD5BEF1000F07D00423236291
:10BD7800D0F8903043F00203C0F8903013070CD588
:10BD880001F0200353EA0C0307D008232362D0F8FC
:10BD9800903043F00803C0F8903013050BD511F02C
:10BDA800806308D04FF400632362D0F8903043F0EA
:10BDB8002003C0F89030D0F89030002BA0D0920625
:10BDC8000AD501F0200106F08052891804D0416F8D
:10BDD80011B10446884720460168D0F89020896848
:10BDE80002F0280201F04001891807D10446FFF744
:10BDF8003FFF0020C4F8900070BD00BF016851E803
:10BE0800001F026821F4907142E80013002BF5D15D
:10BE18004FF6FE71CEF6FF71026852E8022F0368F2
:10BE28000A4043E80226002EF6D1C16E012909D145
:10BE3800016851E8001F026821F0100142E8001370
:10BE4800002BF5D12021C0F88C100021C1660268B2
:10BE580041679168490640F1A18000BF016851E837
:10BE6800021F026821F0400142E80213002BF5D1BD
:10BE7800D0F88010002900F091804FF6C532C0F646
:10BE88000002044608468A63FDF724FC00283FF4B4
:10BE980037AFD4F88000816BBDE8704008471306BF
:10BEA80006D501F0800306F400069B1940F0B38024
:10BEB800530677D511F0400374D000BF016851E8EC
:10BEC800001F026821F0400142E80013002BF5D161
:10BED8002021C0F8881000218167BDE8704000F07B
:10BEE800B1BAD0F880100A6851688BB2002B4AD0DA
:10BEF800B0F85C60B34246D2A0F85E1011688906BB
:10BF080035D400BF016851E8001F026821F4807130
:10BF180042E80013002BF5D1016851E8021F0268BE
:10BF280021F0010142E80213002BF5D1016851E824
:10BF3800021F026821F0400142E80213002BF5D1EC
:10BF48002021C0F88C100021C16600BF016851E8AB
:10BF5800001F026821F0100142E80013002BF5D100
:10BF6800D0F8801004460846FDF77AFB20460221E7
:10BF78000167B0F85C10B0F85E20891A89B2BDE894
:10BF88007040FFF759BDB0F85C1099427FF4B8AE25
:10BF9800126892067FF5B4AE022237E0BDE8704021
:10BFA800FFF766BE13023DD511F080433AD0BDE8D5
:10BFB8007040FFF7D9BD891A026852E8002F03685C
:10BFC80022F4907243E80026002EF5D14FF6FE7257
:10BFD800CEF6FF72036853E8023F0668134046E84E
:10BFE8000235002DF6D12022C0F88C200022C2662E
:10BFF800426700BF026852E8002F036822F010026F
:10C0080043E80026002EF5D1022289B20267BDE876
:10C018007040FFF711BD816F00293FF471AEBDE894
:10C0280070400847D2017FF56BAEB1F1FF3FC8BF42
:10C0380070BDBDE87040FFF701BD000010B5D0B17C
:10C048000446D0F8880028B9002084F884002046E7
:10C0580000F026F82420C4F888002068A16A026845
:10C0680022F00102026011B1204603F0D3FC204601
:10C0780004F0CEF808B1012010BD2168486820F40A
:10C0880090404860886820F02A008860086840F07E
:10C09800010220460A60BDE8104003F02FBD0000F1
:10C0A800F0B59BB00446002501A850211995CDE9AB
:10C0B8001755CDE91555FBF767F9206843F60001D8
:10C0C800C4F2010188424BD048F20001C4F20001D9
:10C0D800884240F098800225002601A8019508961C
:10C0E800FEF734FC002818BFFDF742F94C20C5F6CE
:10C0F8000000016915AC41F00101016101690827DF
:10C1080001F001011A911A99016841F001010160D9
:10C11800016801F001011A911A99016841F00401BE
:10C128000160006815A900F004001A901A9804200C
:10C1380061C14FF09040214618961997FDF7E4FC2D
:10C14800012015A961C140F20040C4F6000000F5C5
:10C1580080602146CDE91867FDF7D6FC25244AE022
:10C168000120019001A80795FEF7F0FB002818BFF1
:10C17800FDF7FEF84C20C5F600004169002641F4A1
:10C1880080414161416901F480411A911A9901681D
:10C1980041F002010160006815A900F002001A9040
:10C1A8001A98C0201590022016900720199040F286
:10C1B8000040C4F60000CDE91766FDF7A5FC45F27E
:10C1C800A87540F24440C2F20005C4F202000F21F3
:10C1D8001022802385E847002846C5E90436C5E9CA
:10C1E80006662E62FDF7FEFA002818BFFDF7C0F8B4
:10C1F800E567AC622424204600210022FEF758FBA4
:10C208002046FEF731FB1BB0F0BD0000D0F88C30A3
:10C21800202B1CBF0220704700294FF0010318BFD4
:10C22800002A01D11846704780B50023C366D0F8AC
:10C2380000C048F20003C4F200039C4510D0DCF8AB
:10C2480004301B020CD500BF036853E800CFD0F8B8
:10C2580000E04CF080634EE8003CBCF1000FF3D1E5
:10C2680004F0F8F80023BDE8804018467047000045
:10C27800B0B544F6A915C2F20005044628461421B3
:10C2880005F0EAF8204629461422BDE8B040FFF739
:10C29800BDBF00002DE9F04381B00446D0F8880006
:10C2A800202809D1884600294FF0010018BF002A2C
:10C2B80006D101B0BDE8F083022001B0BDE8F083EB
:10C2C8000020C4F8900021201D46C4F888001646B6
:10C2D800FDF7E8FCA4F85460A4F85660A168064687
:10C2E800B1F5805F02D12069002852D0C1464FF0D5
:10C2F8000008B4F8560060B36F1C0FE0B9F1000FE6
:10C308001ED019F8010B21688862B4F8560001386C
:10C31800A4F85600B4F85600D8B100BF2068C06928
:10C328000006EBD4002FF9D0FDF7BCFC01464FF016
:10C33800030045B3891BA94225D820680068EDE7AA
:10C3480038F8020B21686FF35F2088624FF000090C
:10C35800DBE72068C069400614D46F1C04E000BF06
:10C368002068C06940060DD4002FF9D0FDF79AFC6B
:10C3780001464FF0030035B1891BA94203D8206854
:10C388000068EDE700202021C4F8881001B0BDE85E
:10C39800F0834FF00009ACE7D0F88830202B09D1A2
:10C3A800944600294FF0010218BFBCF1000F04D1D8
:10C3B80010467047022210467047B0B5002221236C
:10C3C8000165A0F854C0A0F856C0C0F89020C0F885
:10C3D8008830C36F13B34FF6D535C0F600054FF656
:10C3E8009D444FF6DD4E5D630568C0F60004C0F657
:10C3F800000EC3E90B4E9A6305F12802044618465D
:10C408006346FDF779FA0146204639B11021C0F894
:10C4180090102021C0F8881001220EE00168402207
:10C428000A6200BF016851E8021F026841F08001FA
:10C4380042E80213002BF5D10022BDE8B0401046B7
:10C4480070470000006843F60001C4F20101884209
:10C4580018BF704740F2EC20C2F20000006800B13B
:10C4680000477047704700007047000070470000A1
:10C47800FDF726BC7047000040F20810C2F2000029
:10C488000068004740F60440C5F60000016821F046
:10C49800010101607047000070B582B040F2C4101D
:10C4A800C2F2030000F06EFDA0B940F2C41440F2DD
:10C4B8000C16C2F2030401ADC2F20006204629465A
:10C4C80000F06EFD019831688847204600F05AFD5B
:10C4D8000028F3D002B070BD40F60840C5F6000051
:10C4E8004FF480310160704781B040F25010C5F6BA
:10C4F8000000016841F480110160016801F48011B5
:10C5080000910099D0F8D01641F40071C0F8D01607
:10C5180040F6D401C5F600010A6842F400720A60C8
:10C5280040BF20BFD0F8BC1241F40041C0F8BC1293
:10C5380001B0704780B582B04FF2504040F60041DC
:10C54800CFF6FF70C5F600010A5842F480120A506F
:10C55800085800F4801001900198086840F0010024
:10C568000860086840F4803008602C20FEF77CF9E9
:10C578002D2002B0BDE88040FEF776B910B540F630
:10C588000444C5F60004A168090704D480474FF4A1
:10C598000020606010BD40F2E821C2F2000108608E
:10C5A800206820F40020206010BD000010B540F67F
:10C5B8000444C5F60004A069800706D520688007F2
:10C5C80003D400F027F8022013E0A069C00706D0C2
:10C5D8002068C00703D1FFF75FFF012009E0A069C9
:10C5E800000707D52068000748BF10BD00F048F8CD
:10C5F8000820606010BD000040F20000C2F2030095
:10C60800C16845F2A021C2F200010968C06800684B
:10C618000847000070B582B040F2CC10C2F20300A7
:10C6280000F0B0FCA0B940F2CC1445F2A426C2F246
:10C63800030401ADC2F200062046294600F0B0FC12
:10C64800316801988847204600F09CFC0028F3D008
:10C6580002B070BD40F60440C5F60000016821F044
:10C66800020101607047000040F60440C5F6000072
:10C678004FF400314160016821F4003101607047D6
:10C68800B0B582B040F2DC10C2F2030000F07AFCD0
:10C6980080B940F2DC14C2F2030401AD20462946F9
:10C6A80000F07EFC019803F06FF9204600F06AFC68
:10C6B8000028F3D002B0B0BD40F60440C5F6000033
:10C6C800016821F0080101607047000010B540F6CC
:10C6D8000444C5F60004A06880075CBF20685FEAD0
:10C6E800803015D5A06800075CBF20685FEA00307D
:10C6F80016D5A06880065ABF20685FEA802010BD62
:10C70800206840F400102060BDE81040FFF7B4BE78
:10C71800206840F400302060BDE81040FFF76CBF8F
:10C72800206840F40020206040F2E820C2F20000B7
:10C73800006880474FF40020606010BDF0B545F2F6
:10C74800C86EEFF3108CEFF3108572B6C2F2000ECC
:10C758000EF10C05002400BF15F8186BAEB10134BA
:10C76800062CF9D106250624062D11D004EB440425
:10C778000EEBC406012737738CF310883061002054
:10C7880072734EF834300D70F0BDE5B2062DEDD160
:10C798008CF310880120F0BD2DE9F04145F62C18E6
:10C7A800C2F20008D8F80010CA224A6253224A622C
:10C7B80042F60802C4F20002136845F2C46443F06A
:10C7C800200313601368C2F2000403F00703C3F1E7
:10C7D80004032370946840F2F305C4F3064401345B
:10C7E800C2F200052C70956845F2B4276FF3DF3567
:10C7F8006E1CC2F200073E804FF6C067CFF6FF7787
:10C8080015FB0477DBB227FA03F34FF6FE77BB423A
:10C8180040F2103740F60002C2F20007C5F60002E7
:10C8280088BF4FF0FF333B80136843F40023136045
:10C83800D2F8803043F40023C2F8803030B1C868A1
:10C84800400539D50320FEF721F835E045F2C560EB
:10C85800C2F200000123037045F29C20C2F20000DE
:10C868004FF0FF33036045F2C8636FF01700C2F260
:10C87800000300241F181830782887F82440F9D1BD
:10C8880040F2A610C2F2000006230370886820F464
:10C8980080608860C86860F4906020F48060C86038
:10C8A8004FF40020D0600320FDF7B6FFD8F8000051
:10C8B800816841F480418160D8F80000FF2141621D
:10C8C800032003210022FDF7F3FF0320BDE8F04118
:10C8D800FDF7CABF104700002DE9F04145F62C17B7
:10C8E800C2F20007EFF31085EFF3108072B63B68D1
:10C8F800CA20586253205862986845F2C86220F4EA
:10C908008060986040F2A610C2F200000478C2F27B
:10C91800000204EB440102EBC1010E7B022E17D189
:10C9280045F2C563C2F20003D1F800800E691B7896
:10C938000BB34B7B012B23D103789C4226D1027881
:10C9480041F28053C2F200031A704A7D027033E04C
:10C95800D8684007FCD5D8684FF4002160F490608F
:10C9680020F48060D86040F60C00C5F60000016035
:10C9780085F3108833E001F0D9FE85F310882EE0A6
:10C9880085F31088204600F00FF91EE00B7D91F822
:10C9980015C091F815E003EB430302EBC303BCF1A8
:10C9A800060F83F815E007D091F814E00CEB4C0360
:10C9B80002EBC30282F814E001220A73007885F3BF
:10C9C80010884968204600F00FF83868CA2141628B
:10C9D80053214162304621464246FFF77BFF3868C3
:10C9E800FF214162BDE8F0812DE9F04381B045F2B5
:10C9F800C866044600EB4000C2F2000606EBC0071A
:10CA0800387B0D46022802D1204600F0CDF8EFF31E
:10CA18001089EFF3108072B60320FDF70FFF45F67B
:10CA28002C18C2F20008D8F80000CA21416253212C
:10CA38004162022040F2A61E3873BD607D60C2F2DA
:10CA4800000E9EF8000041F2805C0628C2F2000C3D
:10CA580010D19EF800004FF0FF318CF8000006203E
:10CA68008EF80040787545F29C20C2F20000016003
:10CA780000227FE045F29C22C2F2000210680130D9
:10CA880017D042F62803C4F20003186885B200BF25
:10CA9800186881B28D420D46FAD1106888420AD2D0
:10CAA80045F2B420C2F2000000881268401A8118CA
:10CAB80003E000220EE01068411A40F2F300C2F2CF
:10CAC800000045F2C4620078C2F2000212784843BE
:10CAD80020FA02F2B86810FA82F0B860BD689EF8D1
:10CAE800000000EB400006EBC0008068A8420DD9AA
:10CAF8009EF800109EF80000814227D101EB41000A
