:020000040800F2
:1070000070CB0020BD720008456A030865B801080E
:10701000F9CE01089952010875C10308000000006B
:10702000000000000000000000000000DD950308E3
:10703000D959010800000000B1810308F1A4030838
:10704000D7720008D7720008D7720008F9840308C5
:10705000D7720008D7720008D7720008D7720008EC
:10706000D7720008D7720008D7720008D7720008DC
:10707000D7720008D7720008D7720008D7720008CC
:10708000D7720008D7720008D7720008D7720008BC
:10709000D7720008D7720008D77200086D5A01082D
:1070A000D7720008D7720008D7720008D77200089C
:1070B000D7720008D7720008D7720008D77200088C
:1070C000D7720008D7720008D7720008D77200087C
:1070D00071BE0308DDBC0108D7720008D772000832
:1070E000D7720008D7720008D7720008D77200085C
:1070F00055BB010859BB010881A70108D7720008D8
:10710000D7720008D7720008D7720008D77200083B
:10711000D7720008D7720008D7720008D77200082B
:10712000D7720008D772000835590108D7720008D5
:10713000D7720008D7720008D7720008000000005C
:10714000483304080000000081C201120812484AB6
:107150000C0412303B08051C1A041059041428189A
:107160000222B042201A270C5AD00C14FFFF031A37
:10717000034A139C521420C4541420EC56142014B7
:107180005918132065890308318B0308658A0308A1
:10719000D98803082D041AE90C1E358E0308FF0157
:1071A000111B093D3C14FFFF011A02401204120595
:1071B000120EB6090DFF018314DD2A021A14894547
:1071C000813E01083CDE2A08105A9D10DADB20DAE5
:1071D000DC201A010C029B100000000000000000DF
:1071E000000000000000000000000000000000009F
:1071F000000000000000000000000000000000008F
:1072000001FF01FF01FF01FF01FF01FF01FF01FF7E
:0872100001FF01FF014A00002B
:020000040800F2
:1072A800DFF80CD000F002FD0048004709DD0308B4
:1072B80070CB00200648804706480047FEE7FEE7F7
:1072C800FEE7FEE7FEE7FEE7FEE7FEE7FEE7FEE78E
:1072D80099A50308A97200082DE9F05F054600206A
:1072E80092469B4688460646814640241BE028462F
:1072F80041464746224600F096FB53465A46C01A76
:10730800914110D311461846224600F07DFB2D1AF4
:1073180067EB01084F4622460120002100F074FB6C
:1073280017EB00094E41201EA4F10104DFDC48469A
:1073380031462A464346BDE8F09F10B5431A9342AA
:1073480009D28318881803E010F8011D03F8011DFD
:10735800521EF9D210BD40EA01039B0703D009E091
:1073680008C9121F08C0042AFAD203E011F8013B29
:1073780000F8013B521EF9D210BDD2B201E000F86C
:10738800012B491EFBD270470022F6E710B51346C1
:107398000A4604461946FFF7F0FF204610BD10B50F
:1073A800044604E00B7800F8013B03B1491C521E67
:1073B800F8D2204610BD421C10F8011B0029FBD151
:1073C800801A7047CBB203E00178994203D0401C81
:1073D800521EF9D20020704730B5044600200346FB
:1073E80000E05B1C934203D2E05CCD5C401BF8D00C
:1073F80030BD30B505460020034600E05B1C9342D3
:1074080005D2EC5CC85C201A01D1002CF6D130BD45
:107418000FB400B58DB010A909900B9000914FF0F2
:10742800FF300A9000200C90054806900548079008
:107438006A4609A80F9900F02DFB0DB05DF814FB02
:10744800B97A0008D77A00082DE9FF5F1D464FF08A
:10745800FF3BD5E9014691465F464FF00008A96910
:107468007F1C01988847296A824688470028F6D1F8
:10747800BAF1FF3F0CD024F4C064002E19DD600679
:1074880014D5BAF12B0F09D0BAF12D0F0ED103E0A4
:10749800584604B0BDE8F09F44F48064A9697F1C95
:1074A80001988847761E8246002E02DDBAF1300F19
:1074B80003D0B9F1000F26D032E0A969761E44F452
:1074C80000747F1C019888478246002E05DDBAF1BA
:1074D800780F06D0BAF1580F03D0B9F1000F10D0C9
:1074E8001EE0B9F1000F02D0B9F1100F18D1A96947
:1074F800761E24F400747F1C019888478246102069
:1075080002E0082000E00A20814609E008FB09089B
:10751800A969761E44F400747F1C01988847824646
:10752800002E05DD4946504600F09FFA0028EDDAA6
:10753800E96901988847A00502D46FF00100A8E71F
:10754800E00725D1600613D5600502D5C8F1000013
:1075580000E0404629680A1D2A600968220501D50D
:10756800087015E0220701D5088011E008600FE0D7
:107578002868011D29600068210502D580F800806F
:1075880006E0210702D5A0F8008001E0C0F80080DD
:1075980038467EE72DE9FF5FD2E901A74FF00008E2
:1075A800916999461446DDF838B0464601988847EF
:1075B800054659EA0B0005D009E0A169761C019837
:1075C80088470546216A284688470028F5D1681C5F
:1075D80003D05FEACA7005D015E04FF0FF3004B061
:1075E800BDE8F09F2068011D2160D0F800800AE006
:1075F8005FEACA7001D108F8015BA169761C7F1E99
:10760800019888470546002F1ADD681C18D0B9F183
:10761800000F0DD0E81705EBD060421120F01F00D5
:1076280059F822102A1A012090400142E0D107E0BF
:10763800BBF1000FDCD1216A284688470028D7D043
:10764800E16901988847BBF1000F07D1002E05DDDD
:107658005FEACA7002D1002188F80010A068B84219
:1076680003DDBBF1000F03D017B16FF00100B6E7DF
:107678003046B4E72DE9FE4F804681EA0300C00F8B
:107688000C46009021F0004123F00045B8EB0200C1
:10769800A94105D24046214690461C460B46024663
:1076A80023F00040104347D0270DC7F30A00C3F367
:1076B8000A510290401A019040286BDAC3F3130074
:1076C80040F4801B0098924620B10023D2EB030AB5
:1076D80063EB0B0B01985946C0F14002504600F08D
:1076E80093F906460D4650465946019A00F0ABF903
:1076F80010EB08006141002487EA115284EAE7731D
:107708001A4340D0009A62B3019A012A4FEA0752FD
:1077180015DC001B61EB02014FF0004202EA075240
:10772800CDE90042001C41F5801132462B4600F09D
:10773800EEF903B0BDE8F08F40462146F9E7001B9B
:1077480061EB0201001C41F5801300185B41201811
:10775800A2F5001747EB030140EAD570B6196D4151
:1077680011E06D084FEA360645EAC0754FEA075240
:10777800001B61EB0201001C41F5801149084FEA2A
:1077880030000019514132462B4603B0BDE8F04F96
:1077980000F0AEB90098012240000023D0EB0202AD
:1077A80063EBE073009821464FEAE074B8EB000001
:1077B80061EB0401E9E783F000435BE781F00041F6
:1077C80058E72DE9FE4F81EA030404F0004421F054
:1077D800004100944FF0000B23F0004350EA0104ED
:1077E8005ED052EA03045BD0C3F30A54C1F30A55CE
:1077F8002C44A4F2F3340194A0FB0254C1F3130106
:1078080041F48011C3F3130343F4801301FB0244D2
:1078180000FB034E840A970A44EA815447EA8357D7
:10782800A4FB076802958D0A05FB07854FEA932C90
:1078380004FB0C542705029D4FEA065847EA163701
:10784800B5EB08056EEB070C870E920E47EA811719
:1078580042EA8312A7FB0201B6EB0B0164EB0004BA
:107868002B0D43EA0C335E1844EB1C50DA465146A4
:10787800E7FB0201C5F313044FEA0B3343EA145341
:107888004FEA0432019C43EA0603A4F10C04029473
:10789800009CCDE900B400F03AF903B0BDE8F08FE0
:1078A80000200146F9E72DE9F04D81EA030404F0D0
:1078B800004B21F0004514464FF0000A23F0004128
:1078C80050EA050220D054EA01021DD0C5F30A5738
:1078D8000246C5F31303C1F31300C1F30A5640F47B
:1078E800801543F48013A7EB0608101BD64608F250
:1078F800FD3873EB050002D308F1010801E0921886
:107908005B41B8F1000F03DA00200146BDE8F08DB5
:1079180000204FF48011064684460EE0171B73EBD7
:10792800050705D3121B63EB050306434CEA010C5C
:1079380049084FEA300092185B4150EA0107EDD13F
:1079480052EA030012D082EA040083EA05010843E0
:1079580005D0101BAB4106D20122002306E000220D
:107968004FF0004302E06FF0010253101AEB0600DB
:107978004CEB085110EB0A0041EB0B01BDE8F04D50
:1079880000F0B6B80EB540F2334102910021CDE9BE
:1079980000110A460B4600F0BAF803B000BD70B5F6
:1079A800C1F30A5201F000450024C1F3130140F26B
:1079B800FF3341F480119A4201DA002070BD40F291
:1079C80033439A42A2F2334203DC524200F02BF8CE
:1079D80000E090402C43F1D0404270BD30B50B46DA
:1079E800014600202022012409E021FA02F59D42E7
:1079F80005D303FA02F5491B04FA02F52844151EBB
:107A0800A2F10102F1DC30BD202A04DB203A00FAA1
:107A180002F1002070479140C2F1200320FA03F3DD
:107A2800194390407047202A04DB203A21FA02F0DB
:107A38000021704721FA02F3D040C2F120029140A0
:107A4800084319467047202A06DBCB17203A41FA2B
:107A580002F043EAE07306E041FA02F3D040C2F1D3
:107A6800200291400843194670473A2800D230381E
:107A780020F02002412A01D3A2F13700884201D325
:107A88004FF0FF307047000002681144137801601E
:107A980018467047D16004495161044911620021B8
:107AA8001161114600F020B9917A0008E57C0008C0
:107AB800426842B1016811F8013B23B1521EC0E986
:107AC8000012184670470121C160881E704742683D
:107AD8005AB1C368016843B983688B4205D0491E0F
:107AE800521CC0E90012002070474FF0FF30704769
:107AF80010B5141E73F1000408DA401C41F10001AE
:107B080092185B411A4301D120F0010010BD2DE904
:107B1800F04D92469B4611B1B1FA81F202E0B0FAFB
:107B280080F220329046FFF76FFF04460F4640EA86
:107B38000A0041EA0B0153465A46084313D011463E
:107B480053EA010019D0C8F140025046FFF76BFF15
:107B580005460E46504659464246FFF755FF08432C
:107B680005D0012004E020463946BDE8F08D00200C
:107B7800054346EAE0762C4337430A986305E40A4E
:107B8800A0EB08000022FD0A44EA47540A3002D557
:107B980000200146E9E7010510196941DDE90845BA
:107BA80000196941BDE8F04DA2E72DE9F04D002329
:107BB8001A461B1A8A4103DB00200146BDE8F08DF6
:107BC800C1F30A52C1F3130141F480154FF0000BC1
:107BD800D10702D100186D41521E0027044640F219
:107BE800FF11384601EB620A3E46804602460020F5
:107BF8004FF48011FFF717FFC2197141BB1846EB0C
:107C08000100B4EB030C75EB000C04D3E41A65EB2C
:107C1800000517460E46241908F101006D418046FB
:107C28003428E3DDF91946EB0600091BA84103D205
:107C38004FF0FF32134601E0002213461BEB07000A
:107C480046EB0A51BDE8F04DFFF752BFC1F30A52A7
:107C5800C1F3130140F2FF3341F480119A4202DA72
:107C680000200146704740F233439A42A2F2334261
:107C780002DC5242FFF7D7BEFFF7C6BE30B5041E7E
:107C880071F1000404DB4FF00044404264EB010151
:107C9800141E73F1000405DB1C464FF000435242EA
:107CA80063EB0403994208BF904230BD1CB50948F4
:107CB8000090094801900546009C06E0E06840F005
:107CC800010394E8070098471034AC42F6D3FFF755
:107CD800EBFA00000833040848330408C0B24FF434
:107CE800F05100F097B900002DE9F34F8BB04FF039
:107CF800000801F10C000C464FF0010B46460DF14F
:107D0800080A01906269012101989047051E2DD04B
:107D1800252D2CD0216A8847C0B1626901210198BC
:107D28009047216A88470028F7D1411E6269019867
:107D3800904700E0761CA1690B988847216A88471C
:107D48000028F7D1E1690B988847DBE7A1690B9810
:107D580088470746A84201D1761CD3E7E1690B980A
:107D680088477F1C02D1B8F1000F6FD046E1002789
:107D780062693D463946019890472A2804D16269CC
:107D88000121019890470125DFF884926269012159
:107D980001989047A0F130010A290AD24F45E5DC45
:107DA80007EB870100EB4107303FDFD445F01005B2
:107DB800ECE7E90601D46FF000476C280AD04C289C
:107DC80014D0682815D06A280DD074281CD07A28B9
:107DD8001AD01DE062690121019890476C2802D0F1
:107DE80045F0040514E045F002050DE045F02005D6
:107DF8000AE06269012101989047682802D045F09D
:107E0800080505E045F4006562690121019890477D
:107E1800C4E9015765283DD019DC58287AD00CDC14
:107E2800452837D004DC252826D0412831D131E037
:107E380046282FD047282CD12CE05B2877D0612802
:107E480028D063287CD0642823D15AE0D0E06F285A
:107E580048D008DC66281DD067281BD0692821D0A7
:107E68006E2816D127E0702845D0732868D0752869
:107E780047D078280DD14DE0A1690B988847054671
:107E880025283FF469AFE1690B9888476D1C3FF4DA
:107E98006AAFB3E023466A466FF001000B99AFF36F
:107EA80000809EE045F040006060A80723464FF040
:107EB800000236D43EE0E8077FF447AF2068011D92
:107EC80021600068290501D506701BE7290701D53F
:107ED800068017E7A90703D5F117C0E9006111E784
:107EE80006600FE745F040006060A80723464FF0A2
:107EF800080216D41EE040F60E0125EA0100606073
:107F080016E045F040006060A80723464FF00A02DB
:107F180007D40FE045F040006060A80708D5234665
:107F280010226FF001000B99AFF3008059E007E0D1
:107F3800234610226FF001000B99FFF785FA50E0F5
:107F48004FF000094F464B46632802D05B2806D005
:107F580040E0E80601D40120A06001273AE0626908
:107F68000121019890475E2805D14FF00109626907
:107F7800494601989047216939B900210A46534674
:107F880043F82120491C0829FADBB0B3216969B9F3
:107F9800C11700EBD16253110AEB830122F01F02D3
:107FA800821A01200B68904003430B60626901212B
:107FB800019890475D28E8D1B9F1000F09D0002059
:107FC800514651F82020D24341F82020401C08286F
:107FD800F7DB02AB224600976FF001000B99FFF721
:107FE800D9FA00280CDA401C08D1BBF1000F05D0E3
:107FF8004FF0FF300DB0BDE8F08FFFE74046F9E7DE
:10800800E90701D108F1010806444FF0000B79E6B1
:10801800CCCCCC0C7F2801D9002208E0064A02EB20
:108028005002C007127800D1120902F00F02012095
:108038009040084070470000B8ED030870B58C18F0
:1080480010F8015B15F0070301D110F8013B2A1164
:1080580006D110F8012B03E010F8016B01F8016B51
:108068005B1EF9D12B0705D40023521E0DD401F84D
:10807800013BFAE710F8013BCB1A921C03E013F816
:10808800015B01F8015B521EF9D5A142D8D300204B
:1080980070BD000010B588B04EF62070C0F6030021
:1080A80090E80E5044690191018B807E02920393FF
:1080B800CDF810C0CDF814E00694ADF81C108DF87A
:1080C8001E0032F071FB01A830F030FB08B010BD83
:1080D8002DE9F04186B00FF069F80FF071F840F61D
:1080E8009000C5F60000016841F4803101600DF090
:1080F8002BFC4FF2F84240F6000340F20047002103
:10810800C0F60302C4F60003C4F600074FF00008E7
:10811800002500200491CDE90211CDE9001104E009
:10812800A68835430131262914D002EBC104A6796B
:10813800002EF7D052F831609E4207D0BE42EFD0F1
:10814800B6F1904FEED1A6883043EBE7A68848EA0F
:108158000608E7E700214C2702910121C5F6000730
:10816800019103210204039121D084B2009438685C
:10817800694640F001003860386800F00100059059
:108188000598D7F8000140F00100C7F80001D7F8BA
:10819800000100F00100059005984FF090400FF0A5
:1081A800FDFB4FF09040214600220FF0C7FC40F243
:1081B80000442804C4F600041FD0ADB20095386806
:1081C800694640F002003860386800F00200059007
:1081D8000598D7F8000140F00200C7F80001D7F869
:1081E800000100F002000590059820460FF0D6FB2C
:1081F8002046294600220FF0A1FC5FEA084022D061
:108208001FFA88F50095386804F5806440F004008A
:1082180038603868694600F0040005900598D7F87A
:10822800000140F00400C7F80001D7F8000100F091
:1082380004000590059820460FF0B0FB204629461B
:1082480000220FF07BFC06B0BDE8F081704700000B
:10825800B0B588B04468B4F80B10A1F512410729ED
:1082680000F2AC81DFE811F00800C200E400AA01C6
:10827800F7000201BE00E2000446684630F082FAC8
:108288009DF800109DF801209DF802304FF64D60D2
:10829800C0F6030036F080F89DF804104FF61B6016
:1082A800C0F6030036F078F89DF80910481E8F28AC
:1082B80000F2008140F27412C0F60402DFE810F008
:1082C80021019000EB000E011301F000FF00FA00FD
:1082D800FA00FA00FA00FA00FA00FA00FA00FA00C6
:1082E800FA00FA00FA00FA00FA00FA00FA00FA00B6
:1082F800FA00FA00FA00FA00FA00FA00FA00FA00A6
:10830800FA00FA00FA00FA00FA00FA00FA00FA0095
:10831800FA00FA00FA00FA00FA00FA00FA00FA0085
:10832800FA00FA00FA00FA00FA00FA00FA00FA0075
:10833800FA00FA00FA00FA00FA00FA00FA00FA0065
:10834800FA00FA00FA00FA00FA00FA00FA00FA0055
:10835800FA00FA00FA00FA00FA00FA00FA0004013A
:108368001D011801FA00FA00FA00FA00FA00FA00F2
:10837800FA00FA00FA00FA00FA00FA00FA00FA0025
:10838800FA00FA00FA00FA00FA00FA00FA00FA0015
:10839800FA00FA00FA00FA00FA00FA00FA00E1001E
:1083A800F500FA00FA00FA00FA00FA00FA00E6000E
:1083B800DC00FA00FA00FA00FA00FA00FA00FA0003
:1083C800FA00FA00FA00FA00FA00FA00FA00FA00D5
:1083D800FA00FA00FA00FA00FA00FA00FA000901B5
:1083E8009CA28EE0D4F80D1082A03AE04FF60171FD
:1083F800C0F603010446084635F0CEFF64684FF620
:108408009370617BC0F6030035F0C6FF607B0028DF
:1084180007BF40F28100C0F6040040F24A00C0F6EF
:10842800040008B0BDE8B04036F0B0BC68A01EE05B
:108438004FF6E270C0F6030036F0A8FCD4F80D1031
:10844800D4F811204FF67160C0F6030008B0BDE8FB
:10845800B04035F0A1BFD4F80D104FF69760C0F6C4
:10846800030008B0BDE8B04035F096BF70A008B072
:10847800BDE8B04035F090BF40F2D202C0F6040229
:108488003FE040F23212C0F604023AE040F2BB028A
:10849800C0F6040235E040F28812C0F6040230E06B
:1084A80040F2A212C0F604022BE040F24812C0F6D5
:1084B800040226E040F62642C0F6040221E040F21B
:1084C8009212C0F604021CE040F25E12C0F60402EA
:1084D80017E040F22312C0F6040212E040F27D12C7
:1084E800C0F604020DE040F21912C0F6040208E0DA
:1084F80040F20012C0F6040203E040F2E902C0F6BE
:1085080004024FF6FA50C0F6030035F045FF9DF817
:108518000A109DF80B209DF80C304FF63760C0F616
:10852800030035F039FF4FF6C370C0F6030035F08D
:1085380033FF002560680795407B0695012805955F
:10854800049534D0E0BB40F23000C0F6040036F0A9
:108558001DFCFFF79FFD0F208DF810007F2042F2D1
:1085680000058DF81200CEF204052868040C4FF6B9
:108578007270C0F60300214635F00EFFADF81C40BE
:108588002C684FF653706FF31F34C0F60300214672
:1085980035F002FF04A8ADF81E4030F0B9F800F03D
:1085A8003DF90120002133F071FC08B0B0BD4FF651
:1085B8002270C0F6030035F0EFFE257008B0B0BD9C
:1085C8004FF6CF60C0F6030035F0E6FE08B0B0BD48
:1085D8003E3E3D3D20534843495F5355425F455613
:1085E800545F4E564D5F454E445F45524153450AD0
:1085F8000D0000003D3D3E3E534843495F53554200
:108608005F4556545F4E564D5F53544152545F4533
:1086180052415345203A204E756D6265724F66533C
:108628006563746F7273203D2025750A0000000091
:108638003E3E3D3D20534843495F5355425F4556B2
:10864800545F4E564D5F454E445F57524954450A54
:108658000D000000424C455F4843490040F2F020BD
:10866800C2F2000090F88000704700002DE9F04148
:1086780016460D4604460FF067FA40F25401C2F25E
:1086880000010A8840F64813A242C2F200030DD145
:108698001A68821A632A09D840F2C250C0F6040048
:1086A80021463246BDE8F04135F076BE40F2F0286A
:1086B800C2F20008B8F816200C80002A186018BF0B
:1086C800944203D039A0214635F066FE0020A8F870
:1086D800160088F8800040F20060C0F604003146B9
:1086E80035F05AFE3EA021462A4635F055FE0FF0D9
:1086F8002BFA014640F21270C0F6040035F04CFE29
:1087080013F032FA05460EF007FC064613F02CFA71
:1087180007460EF001FC57B9012823D104F04AFAA4
:1087280028B140F66530C0F6040036F02FFB98F803
:10873800803040F27370C0F604002946324635F0A6
:108748002BFE40F60770C0F6040036F01FFB40F21F
:108758004060C2F20000012101704480BDE8F04190
:108768002EF052BC98F8803040F27370C0F60400C6
:108778002946324635F010FE012000F0B7FB98F884
:108788008000012808D040F6D460C0F6040036F016
:10879800FDFA012000F0AAFB98F880000128D6D045
:1087A80040F6ED70C0F60400CFE700BF3E3E3D3D09
:1087B80020446973636F6E6E6563742068616E64CC
:1087C8006C65206D69736D617463683A20657674B1
:1087D8003D30782578206374783D307825780A0014
:1087E80020202020202D20436F6E6E656374696FF2
:1087F8006E2048616E646C653A20202030782578B8
:108808000A20202020202D20526561736F6E3A20A7
:10881800202020307825780A0D0000002DE9F0434B
:1088280099B046F2EC20C2F200000921017040F232
:10883800D8510024C2F200010A5D1AB10134082C93
:10884800FAD1082440F2D8510130C2F20001224680
:10885800FEF7A5FD40F2A001601CC2F200010870FD
:108868000EF046FBFF2821D004460FF20C5021469B
:1088780035F092FDA52C13D10CF054FF02F07EFFC9
:1088880040F6BB720FF24051C0F60402012888BFBF
:108898001146084636F07AFA00200CF055FF05E03C
:1088A8000FF2FC4036F072FA0CF03CFF0EF034FB8D
:1088B800044613F04FF940F29409C5F60009D9F8B7
:1088C80000108046C1F30070C1F34075C1F3807792
:1088D8008DE8A10040F22870C1F38062C1F3C06343
:1088E800CE0FC0F60400039635F056FDD9F8000007
:1088F80040F6154140F40000C9F8000040F6D630B3
:10890800C0F60400C0F60401012C08BF014640F27D
:108918003360C0F604002246434635F03DFD4EF66E
:108928003C70C0F6030090E88E00D0E904650DF1B4
:10893800140ED0E906C48EE88E00CDE9096500F171
:108948002007D0E90C65008F8ECFADF84C0040F2BF
:108958002800C2F2030014904DF2A970C0F600007E
:108968000DF1340E15904DF2CD708EE88E00C0F6E4
:10897800000014A9CDE90BC41196129534F0A4FE99
:108988000220012133F082FA4DF64132C0F603028B
:108998000220002133F0A6FA05A82FF0ABFE48B15B
:1089A800014640F64C20C0F6040035F0F5FC0DF009
:1089B800ADFA05E040F67310C0F6040035F0ECFCA3
:1089C8000020CDE91400ADF84E000EF083FA1490A3
:1089D8000EF080FA40F69170C0F60400159136F05A
:1089E800D5F935F00FF838B1014640F2FF30C0F63E
:1089F800040035F0D1FC05E040F6B650C0F604009E
:108A080036F0C4F9BDF8540040F2A10400BA149934
:108A1800C2F20004000C208108BAC4F80A0014AAA3
:108A28002E20062134F080FB38B1014640F2603038
:108A3800C0F6040035F0B0FC19E040F6B840C0F6C6
:108A4800040036F0A3F9DDE91470C0F30721C2B2BF
:108A5800C7F30740C7F30726CDE9000640F2F070D8
:108A68003B0EFFB2C0F60400029735F095FC4FF2BA
:108A78003862C0F603021820102134F055FB38B1D3
:108A8800014640F20B30C0F6040035F085FC05E0E5
:108A980040F67340C0F6040036F078F94FF22862C9
:108AA800C0F603020820102134F03EFB38B101461D
:108AB80040F2B620C0F6040035F06EFC05E040F642
:108AC8002E40C0F6040036F061F901201F2134F071
:108AD80003FB38B1014640F2C130C0F6040035F05E
:108AE8005BFC05E040F68850C0F6040036F04EF90D
:108AF80034F0F2F938B1014640F25C40C0F60400A7
:108B080035F04AFC05E040F6F350C0F6040036F0B4
:108B18003DF90DF15E0718AE0DF162030520002145
:108B28000722CDE9006733F071FE38B1014640F203
:108B38002C40C0F6040035F02FFC05E040F6D35079
:108B4800C0F6040036F022F9BDF86200BDF86010E6
:108B580040F6CE37C0F6040700220723009734F00A
:108B6800E3F9BDF86200BDF85E100DF14E07002272
:108B78000223009734F0D8F900200221022234F0B1
:108B88006DFE38B1014640F21650C0F6040035F0CB
:108B980003FC05E040F67D60C0F6040036F0F6F808
:108BA80040F2F025C2F200050120287033F002FFE0
:108BB80038B1014640F25050C0F6040035F0ECFBE5
:108BC80005E040F6A760C0F6040036F0DFF840F292
:108BD8000110C0F600004BF20721C5F80100102073
:108BE800C0F20101002208236871A9600127CDE9BC
:108BF8000030CDE902210120012101220023049740
:108C080033F04CFE38B1014640F28D40C0F6040006
:108C180035F0C2FB05E040F61460C0F6040036F0FB
:108C2800B5F8A87880B133F0D1FD38B1014640F2EB
:108C3800D740C0F6040035F0AFFB05E040F64E60C3
:108C4800C0F6040036F0A2F840F6B710C0F60400EB
:108C580035F0A2FB40F60950C0F6040036F096F84D
:108C680030F036FB002085F880004FF6FF7048F69C
:108C78000962E882C0F600020120002133F032F9CF
:108C88002020A071062034F001FA38B1014640F6E0
:108C9800FA00C0F6040035F07FFB05E040F63E1010
:108CA800C0F6040035F078FB0CF064FD00200026C7
:108CB80003F048FC2EF072F94DF2F112C0F60302EF
:108CC8004FF48040002133F00DF94DF2F514C0F651
:108CD80003044FF400400021224633F003F905F164
:108CE800830100200022234612F0CAFA48F6ED63F9
:108CF80005F18101C0F600030020002212F0C0FA3D
:108D08004AF2ED4305F18201C0F603030020002278
:108D180012F0B6FA40F29210C2F20000012101707E
:108D280040F29010C2F200002E83017012F01CFF76
:108D380004460EF0F1F854B9012811D103F03AFFB6
:108D480028B140F66530C0F6040036F01FF840F64A
:108D58004C50C0F6040036F019F819B0BDE8F0839D
:108D6800012000F0C3F895F880000128F5D040F6FE
:108D78004370C0F60400EEE73D3D3E3E204E4643BC
:108D880020626F6F74206F70636F64652064657410
:108D980065637465643A203078253032780A0000BB
:108DA8003D3D3E3E204E464320626F6F74206F70FB
:108DB800636F646520756E6B6E6F776E2C20636CC5
:108DC800656172696E6700003D3D3E3E204E464338
:108DD80020626F6F74207265736375653A206D65E4
:108DE80073682070726F766973696F6E696E672039
:108DF80073746F72616765206572617365640000E2
:108E080010B540F2F024C2F2000494F8800005285E
:108E18000CD033F0F3FD002184F8801018A111A2C2
:108E2800002808BF1146084635F0B6FA12F09CFE35
:108E380004460EF071F854B901280DD103F0BAFEBA
:108E480028B140F66530C0F6040035F09FFF15A044
:108E5800BDE8104035F09ABF0220BDE8104000F090
:108E680045B800BF2A2A2053544F50204144564544
:108E780052544953494E47202A2A20200D0A0D00F2
:108E88002A2A2053544F502041445645525449539E
:108E9800494E47202A2A20204661696C6564200DC6
:108EA8000A0D00003D3D3E3E20536B6970206C6FFB
:108EB800772D706F77657220616476657274697357
:108EC800696E6720726573746172743A204D6573B8
:108ED80068206F776E732061647665727469736950
:108EE8006E6700000120042133F010B92DE9F0412C
:108EF80088B040F29211C2F20001044640F290108C
:108F08000D78C2F200000678002D40F2F02818BF54
:108F18008025002EC2F2000818BFA026012C18BF19
:108F28004FF4C86598F8810018BF4FF47A6612F0BC
:108F3800DDFB022C15D198F880000138012810D8E3
:108F480033F05CFD38B1014640F26B20C0F60400F6
:108F580035F022FA05E040F6FF20C0F6040035F0AF
:108F680015FF40F2A000C2F20000007898F818102F
:108F780046F2EC23002708F11902C2F20003CDE9FA
:108F88000070CDE90231CDE9042700202946324698
:108F98000123069733F0BEFC08B30546122801D01A
:108FA8000C2D36D112F0E0FD06460DF0B5FF56B98E
:108FB800012833D103F0FEFD28B140F66530C0F634
:108FC800040035F0E3FE40F2C060C0F60400294614
:108FD80035F0E2F988F8804008B0BDE8F08122A0B9
:108FE80088F8804035F0D2FE40F2A101C2F20001BB
:108FF8000E2033F0A5FDF0B10146012C12BF24A0CC
:1090080040F67800C0F6040008B0BDE8F04135F03D
:10901800C3B940F28D50C0F6040003E040F26D6021
:10902800C0F60400294635F0B7F9002088F880001A
:1090380008B0BDE8F081012C0DD123A035F0ACF9C2
:1090480098F881004EF24601C0F2010108B0BDE86F
:10905800F04112F06BBA40F6CD00C0F6040008B03B
:10906800BDE8F04135F098B93D3D3E3E2061636969
:109078005F6761705F7365745F646973636F76655A
:109088007261626C65202D2053756363657373008C
:109098003D3D3E3E205374617274204C6F772050E2
:1090A8006F776572204164766572746973696E675B
:1090B800204661696C6564202C20726573756C7438
:1090C8003A202564200A0D003D3D3E3E205375633D
:1090D800636573733A2053746172742046617374C4
:1090E800204164766572746973696E67200A0D00A1
:1090F80010B503F0FFFC0446062817D940F2FC100F
:1091080041F20001C2F20000C1F2020141F206027E
:1091180041F20033C1F20702C1F2013380E80E00C8
:109128004FF6FF718181072C0DD228E003F0E2FC95
:10913800024642F65450C0F604000721022335F0D7
:109148002BF9072C1BD303F0D5FC044606280CD9B1
:1091580040F254203021C2F20000C0F201014FF663
:10916800FF72C0E90012002006E042F61160C0F666
:10917800040035F011F90120062C88BF10BD42F615
:10918800CC50C0F6040035F007F9022010BD0000ED
:1091980010B546F21C34C2F20004207820B103F066
:1091A80025FD0020207010BD002004F0C9FD0EF040
:1091B800CBFC0446002004F0C3FD0028FAD00EF0D2
:1091C800C3FC001BB0F57A7F08D94AF6E0404F216E
:1091D800C2F20000C0F2AD01016010BD152838BF11
:1091E80010BDBDE8104003F001BD0000022070472B
:1091F800002200200A8070477047000080B50020D8
:1092080004F08EFD002080BD40F2C240C2F2000092
:109218000078704741F62950C2F200000121017020
:1092280041F63150C2F200000022027041F6365277
:10923800C2F200020120117004F062BD80B541F64F
:109248002950C2F200000021017041F63650C2F2E6
:1092580000000170012004F043FD12F085FCD0B13C
:1092680003F0A8FC002818BF80BD41F63050C2F2B8
:109278000000017879B941F62A51C2F200010122B1
:109288000978027004A035F087F840200021BDE875
:10929800804032F03BBF80BD50726F766973696F52
:1092A8006E696E672073657373696F6E20636F6D87
:1092B800706C657465642028646973636F6E6E658D
:1092C80063742C20636F6E6669675F7365656E3DB6
:1092D8002575290D0A00000000207047704700001E
:1092E800B0B540F25A04C2F20004257803F074FBCA
:1092F800854209D941F2FA50C0F6040035F046FD1E
:10930800BDE8B04003F068BB2078002818BFB0BDA6
:1093180002A035F03BFD0120B0BD00BF4E756D6267
:109328006572204F6620456C656D656E7473206D9F
:109338007573742062652031206F722067726561D1
:10934800746572207468616E2031210D0000000080
:1093580001463020C0F2020008604FF485720020F8
:109368008A80704780B501201F2133F0B5FE0028A0
:1093780018BF0120400080BD01464EF67D40888020
:1093880041F6F850CAF64F60086045F24B30C5F216
:10939800A140C1F8060046F20430C2F200008288FB
:1093A80003680020CA81C1F80A307047002070475E
:1093B800014601A034F0F0BF556E70726F76697384
:1093C800696F6E6564204E6F6465204964656E74CC
:1093D80069666965722072656365697665643A20B5
:1093E800253032780A0D0000B0B546F20435C2F2D5
:1093F8000005E91D00202A4633F008FE18B1014691
:1094080018A034F0C9FF0DF065FD020A28704FEA74
:10941800112C6A70020C000E2971691EAA70E8707E
:10942800EF2006220B4685F805C000BF13F8014F50
:10943800013A04EB4000F9D10322EA71EF23062236
:10944800A87100BF11F8014F013A04EB4303F9D1A9
:10945800C0B2D9B2081AB0FA80F040094CF0C00185
:109468006971B0BD4661696C656420746F2072656E
:109478006164205075626C6963204164647265732D
:10948800732025640000000080B54CF6FD62C0F62C
:1094980001020420002132F025FD0420002132F0D1
:1094A80035FE4BF65502C0F600024020002132F08E
:1094B80019FD40200021BDE8804032F027BE0000A1
:1094C80080B542F67430C0F6040035F05FFC42F611
:1094D800D110C0F6040035F059FC42F65D20C0F604
:1094E800040035F053FC42F66F20C0F6040035F056
:1094F8004DFC42F64A20C0F6040035F047FC42F61F
:109508001620C0F6040035F041FC42F63720C0F6BC
:10951800040035F03BFC42F62320C0F6040035F089
:1095280035FC42F6E810C0F6040035F02FFC03F0D5
:109538003BFA014642F6E100C0F6040034F02CFF85
:1095480003F024FA014642F6D000C0F6040034F0D5
:1095580023FF03F041FA014642F66600C0F6040014
:1095680034F01AFF03F0C6FA014642F6F200C0F6DC
:10957800040034F011FF03F0A5FA014642F680001A
:10958800C0F6040034F008FF03F09EFA014642F6E4
:109598005200C0F6040034F0FFFE03F007FA01465B
:1095A80042F60D10C0F6040034F0F6FE03F074FA2B
:1095B800014642F63410C0F6040034F0EDFE42F6DF
:1095C8000220C0F6040035F0E1FB42F69F00C0F629
:1095D80004000021012234F0DFFE42F61130C0F60B
:1095E800040035F0D3FB42F68120C0F6040035F0C4
:1095F800CDFB42F6B720C0F6040035F0C7FB42F6B3
:109608009920C0F6040035F0C1FB42F6CE20C0F622
:10961800040035F0BBFB42F62130C0F6040035F0FB
:10962800B5FB42F6F220C0F6040035F0AFFB07A008
:1096380035F0ACFB0CA0012134F0AEFE17A035F0DC
:10964800A5FB1EA0BDE8804035F0A0BB0A5B496DB4
:10965800706F7274616E7420496E666F726D61749A
:10966800696F6E5D200D00004E756D626572206F2A
:109678006620456C656D656E747320656E61626CFD
:10968800656420696E204170706C69636174696FEC
:109698006E3A202564200D0A000000004E656967B7
:1096A80068626F7572205461626C65206973206509
:1096B8006E61626C6564200D000000002A2A2A2A67
:1096C8002A2A2A2A2A2A2A2A2A2A2A2A2A2A2A2AF2
:1096D8000D0A0D0080B54AF6F840C2F20000006895
:1096E80004212EF023FA40B1014641F21650C0F68B
:1096F8000400BDE8804034F04FBE41F28B60C0F6F4
:109708000400BDE8804035F041BB000000207047F0
:10971800B0B541F68255C0F60405284600211C461E
:1097280031F032FD41F62050C0F60400214634F0F5
:1097380033FE2846002131F027FD02A035F026FB34
:109748000020B0BD2338323130210D00B0B5B0F95A
:10975800000040F2941203EB4301C2F200023228E7
:1097680022F8210040F2AC101C46C2F200000CDBCB
:1097780047F6F6410180016842688368042013F0C7
:109788009BF8002004F0BCFA08E00168426883688E
:10979800022013F091F8002004F0A2FA41F63135C6
:1097A800C0F604052846002131F0EEFC06A021464B
:1097B80034F0F2FD2846002131F0E6FC11A035F026
:1097C800E5FA0020B0BD00BF47656E657269635F4A
:1097D8004C6576656C44656C74615F536574206391
:1097E800616C6C6261636B20726563656976656440
:1097F80020666F7220656C656D656E742025642027
:109808000D0A00002338323039210D00014640F29C
:109818009310C2F20000825C00200A7070470000BA
:10982800014602EB420040F29412C2F2000212F822
:10983800203002EB80000B7042784A7082788A7080
:10984800C2780020CA707047014602EB820040F2DD
:10985800A012C2F20002125C00200A7070470000D9
:1098680002EB820140F2A012C2F200020A445378CD
:109878000146037090784870D0788870127900207B
:10988800CA707047014640F2A610C2F2000010F8F4
:10989800122000200A707047B0B5B0F900101C46BD
:1098A80003EB430240F2941340F2A81CC2F20003F7
:1098B80021EAE170C2F2000C23F8220040F64212BD
:1098C800BCF80030C2F20002108098424FF000034A
:1098D80047F6F54298BF012391424FF00002C8BFF6
:1098E800012200251A430029C8BF012505EA020103
:1098F80040F64012C2F20002117047F6FF710022D2
:10990800ACF800002EF066FD40F2AC13C2F2000382
:10991800188019685A689B68042012F0CDFF41F638
:109928009535C0F604052846002131F02DFC41F696
:10993800F020C0F60400214634F02EFD2846002110
:1099480031F022FC04A0214634F026FD02202146F5
:109958002DF0FCFA0020B0BD233832303621666F76
:109968007220656C656D656E74496E646578202536
:1099780064200D0A0000000000207047B0B540F2D6
:10998800941C1C4601684268806803EB4303C2F2DA
:10999800000C0CEB8305A8606A6041F64935C0F6F7
:1099A80004054CF823102846002131F0EDFB06A0F1
:1099B800214634F0F1FC2846002131F0E5FB11A0E6
:1099C80035F0E4F90020B0BD47656E657269635FE4
:1099D8004C6576656C4D6F76655F53657420636181
:1099E8006C6C6261636B207265636569766564207F
:1099F800666F7220656C656D656E74202564200D38
:109A08000A000000233832304221200D00000000F7
:109A180070B51C46002B47D1027840F2A016B0F86A
:109A2800013001F0FE05C2F20006022D3270A6F8E0
:109A3800013015D140F2AC15C2F200052B8029681F
:109A48006A68AB680546042012F036FFB5F80310C3
:109A5800B6F80100A6F80310884225D108BB0FE02C
:109A6800012908BF012A0FD040F2AC10C2F2000051
:109A780001210180016842688368022012F01CFFFE
:109A8800002004F02DF90FE040F2AC10C2F2000003
:109A980047F6F6410180016842688368042012F0A5
:109AA8000BFF002004F02CF941F66035C0F60405E0
:109AB8002846002131F068FB41F66920C0F6040011
:109AC800214634F069FC2846002131F05DFB05A0F1
:109AD800214634F061FC012021462DF037FA0020A0
:109AE80070BD00BF233832303221666F7220656C3A
:109AF800656D656E74496E646578202564200D0A6D
:109B0800000000002DE9F04F81B041F6AD57C0F6D6
:109B180004070C468046384600211E4631F034FBC7
:109B28001CA0314634F038FC3846002131F02CFBBB
:109B380027A035F02BF944B341F6AD5608F1020BD6
:109B480008F1010A0025C0F604060EE0D94629A747
:109B58003046002131F018FB99F80010384634F0EF
:109B68001BFC0135E8B284420FD9E8B250B1022893
:109B7800ECD00128F5D141F66957D146C0F6040763
:109B8800E6E700BFC14614A7E2E7002001B0BDE840
:109B9800F08F00BF47656E657269635F4F6E4F66F1
:109BA800665F5374617475732063616C6C62616382
:109BB8006B20726563656976656420666F722065DF
:109BC8006C656D656E74202564200D0A0000000028
:109BD8002338323034210D0050726573656E74205D
:109BE8004F6E4F66662076616C75653A2025640A6B
:109BF8000D00000052656D61696E696E67205469D9
:109C08006D652076616C75653A2025640A0D000043
:109C180070B5007840F2A61641F67835C2F2000613
:109C2800C0F6040526F81300284600211C4631F02A
:109C3800ABFA0EA0214634F0AFFB2846002131F0E4
:109C4800A3FA41F6AA20C0F60400214634F0A4FB8A
:109C580036F81400012805D145F24420C2F200006C
:109C680001210170FFF7C8FA002070BD2338323196
:109C7800332120666F7220656C656D656E74496E60
:109C8800646578202564200D0A0000002DE9F04164
:109C980041F6C857C0F604070C4605463846002169
:109CA8001E4631F071FA12A0314634F075FB384681
:109CB800002131F069FA1EA035F068F8ACB141F620
:109CC800C8580026C0F604081BA703E00136F0B206
:109CD80084420AD93006F9D14046002131F054FABD
:109CE8002978384634F058FBF0E70020BDE8F081C9
:109CF80047656E657269635F506F7765724F6E4F27
:109D080066665F5374617475732063616C6C62611D
:109D1800636B20726563656976656420666F72207F
:109D2800656C656D656E74202564200D0A00000061
:109D38002338323132210D004F6E20506F77657213
:109D48002075702076616C75653A2025640A0D00CF
:109D580070B501884288044618A034F01DFB617B69
:109D680042F26220C0F6040034F016FB607B002843
:109D780008BF01F01FFD607B002818BF70BD1FA041
:109D880034F00AFB207B88B142F270750026C0F6D9
:109D9800040500BFA0680178284634F0FDFAA068E1
:109DA800217B013601308E42A060F3D342F6373072
:109DB800C0F60400BDE8704034F0E8BF4170704B55
:109DC80065792041646420726563656976656420FD
:109DD800666F72206E65744B6579496E646578208C
:109DE800252E32782C206170704B6579496E646538
:109DF8007820252E3278200D0A0000004170704B23
:109E080065792069733A200010B582B00446007A5B
:109E1800002808BF01F0CEFC217862686388247AA4
:109E280042F2D550C0F60400009434F0B5FA02B0FE
:109E380010BD000010B504460188428842F2E76070
:109E4800C0F6040034F0A8FA617B42F26220C0F642
:109E5800040034F0A1FA607B002818BF10BDBDE8EB
:109E6800104001F0A7BC000070B50188044619A095
:109E780034F092FAA17A42F26220C0F6040034F07B
:109E88008BFAA07A002808BF01F094FCA07A002879
:109E980018BF70BD19A034F079FF208988B142F24B
:109EA80070750026C0F6040560680188284634F0FD
:109EB80073FA606801362189F2B20230914260601B
:109EC800F2D842F63730C0F60400BDE8704034F0EE
:109ED8005DBF00BF417070204B6579204C69737479
:109EE80020666F72206E65744B6579496E6465787B
:109EF80020252E3278206973200D0A004170704B9E
:109F0800657920496E6465786573206172653A20C9
:109F18000D00000010B582B00446007A002808BF82
:109F280001F048FC217862686388247A42F23C6038
:109F3800C0F60400009434F02FFA02B010BD0000FF
:109F480070B504460188428842F2A560C0F6040054
:109F580034F022FA617B42F26220C0F6040034F049
:109F68001BFA607B002808BF01F024FC607B0028F6
:109F780018BF70BD10A034F00FFA207B80B142F2F8
:109F880070750026C0F60405A0680178284634F0EC
:109F980003FAA068217B013601308E42A060F3D31A
:109FA80042F63730C0F6040034F0F0FE07A0BDE8F2
:109FB800704034F0EBBE00BF557064617465642076
:109FC8004170704B65792069733A20004974207795
:109FD800696C6C206265207265706C6163656420D1
:109FE8006279206F6C64206170704B6579206166BE
:109FF800746572204B6579205265667265736820B6
:10A008000D00000070B50188044618A034F0C4F9AA
:10A01800617B42F26220C0F6040034F0BDF9607B37
:10A02800002808BF01F0C6FB607B002818BF70BD80
:10A038001AA034F0B1F9207B80B142F27075002685
:10A04800C0F6040560680178284634F0A5F9606810
:10A05800217B013601308E426060F3D342F63730FF
:10A06800C0F60400BDE8704034F090BE4E65742020
:10A078004B6579204164642072656365697665641F
:10A0880020666F72206E65744B6579496E646578D9
:10A0980020252E3278200D0A000000004E65744BF2
:10A0A80065792069733A200010B50188044609A033
:10A0B80034F072F9617B42F26220C0F6040034F099
:10A0C8006BF9607B002818BF10BDBDE8104001F097
:10A0D80071BB00BF4E6574204B65792044656C6583
:10A0E800746520726563656976656420666F7220A1
:10A0F8006E65744B6579496E646578202564200D1A
:10A108000A00000070B50446817942F26220C0F668
:10A11800040034F041F9A079002808BF01F04AFB97
:10A128000FA034F033FEA08888B142F27075002683
:10A13800C0F6040520680188284634F02DF9206807
:10A148000136A188F2B2023091422060F2D842F67C
:10A158003730C0F60400BDE8704034F017BE00BFC9
:10A168004E65744B657920496E6465786573206126
:10A1780072653A200D00000070B5018804461AA0E7
:10A1880034F00AF9617B42F26220C0F6040034F030
:10A1980003F9607B002808BF01F00CFB607B0028F6
:10A1A80018BF70BD1CA034F0F7F8207B80B142F2D4
:10A1B80070750026C0F6040560680178284634F0FA
:10A1C800EBF86068217B013601308E426060F3D382
:10A1D80042F63730C0F6040034F0D8FD13A0BDE8CD
:10A1E800704034F0D3BD00BF4E6574204B657920B4
:10A1F800557064617465207265636569766564206D
:10A20800666F72206E65744B6579496E6465782057
:10A218002564200D0A00000055706461746564208F
:10A228004E65744B65792069733A0000497420774C
:10A23800696C6C206265207265706C61636564206E
:10A248006279206F6C64206E65744B657920616655
:10A25800746572204B657920526566726573682053
:10A268000D000000B0B586B00446417C42F2622081
:10A27800C0F6040034F090F8607C002808BF01F0B4
:10A2880099FA6089217B2278636894F80EC094F863
:10A298000FE0257C647B8DE8015042F27620C0F601
:10A2A80004000395049434F077F806B0B0BD0000BC
:10A2B80010B504464168027842F29150C0F6040095
:10A2C80034F06AF86168B1F5885F18BF10BD2046A0
:10A2D800BDE810402FF0A2B910B50446817A42F2C9
:10A2E8006220C0F6040034F057F8A07A002808BFAE
:10A2F80001F060FA94F80BC042F277302178626876
:10A30800238942F2D134C0F60400C0F60404BCF13B
:10A31800000F08BF2046BDE8104034F03DB80000EB
:10A3280010B50446817A42F26220C0F6040034F087
:10A3380033F8A07A002808BF01F03CFAE07A50B15F
:10A3480021786268238942F22340C0F60400BDE800
:10A35800104034F021B8207B2178626838B142F28D
:10A368002970C0F60400BDE8104034F015B8238900
:10A3780042F28440C0F60400BDE8104034F00CB846
:10A3880010B50446817A42F26220C0F6040034F027
:10A3980003F8A07A002808BF01F00CFA94F80BC063
:10A3A80042F2D94021786268238942F23954C0F6D2
:10A3B8000400C0F60404BCF1000F08BF2046BDE845
:10A3C800104033F0E9BF000045F6CC61C2F200014D
:10A3D8000A6802700A68120A42704A888270CA784B
:10A3E800C27000200860704710B54CF24912C0F6E0
:10A3F80003020820002131F075FD47F28014C2F2F3
:10A4080000044CF25113C0F6030300202146002239
:10A4180010F036FF20784CF25821C0F2120111F0EA
:10A4280085F82FF0CFFD49F29912C0F6000280207E
:10A438000021BDE8104031F055BD0000B0B540F234
:10A44800AA14C2F20004012020700020002503F0A5
:10A4580057FC4FF4FA700DF07BF80020257003F0DC
:10A468003FFC4FF4FA700DF073F80020B0BD000007
:10A4780040F2AA10C2F20000007810B1002003F0E8
:10A488003FBC002003F02CBC002070472DE9F04FA2
:10A4980081B042F22227C0F604070C46054638462A
:10A4A80000211E4630F070FE24A0314633F074FFC0
:10A4B8003846002130F068FE2FA034F067FC002CED
:10A4C80038D042F2222B42F272080027C0F6040B61
:10A4D800C0F604080FF2C0090FF2A40A002605E02E
:10A4E8000A4633F059FF0136B44223D0052EFAD874
:10A4F800DFE806F00C030C170C0E5846002130F06C
:10A5080043FE687847EA00214046E9E7AF5DEAE79D
:10A518005846002130F038FE687947EA0021504655
:10A52800DEE75846002130F02FFEE87847EA0021A0
:10A538004846D5E7002001B0BDE8F08F4C69676850
:10A54800745F43746C5F44656661756C74537461C1
:10A558007475732063616C6C6261636B20726563F0
:10A56800656976656420666F7220656C656D656ED9
:10A5780074202564200D0A002338323638210D0056
:10A5880044656C74612055563A2030782578202827
:10A598002564290A0D00000054656D7065726174A8
:10A5A8007572653A203078257820282564290A0DA7
:10A5B80000000000002070472DE9F04F81B042F202
:10A5C800AC07C0F604070C460546384600211E466F
:10A5D80030F0DAFD41F6E850C0F60400314633F0B9
:10A5E800DBFE3846002130F0CFFD23A034F0CEFB4F
:10A5F800002C3DD042F2AC0B41F6167A42F20B0821
:10A6080041F694790027C0F6040BC0F6040AC0F698
:10A618000408C0F60409002604E000BFAF5D013657
:10A62800B44225D086B126F002000128F6D0042EC7
:10A6380011D0022EF3D15846002130F0A5FDA8789C
:10A6480047EA002148460FE05846002130F09CFDBB
:10A658002978504608E05846002130F095FD2879C1
:10A6680047EA0021404600BF0A4633F095FED6E788
:10A67800002001B0BDE8F08F2338323633210D00B9
:10A68800002070472DE9F04F81B042F21317C0F651
:10A6980004070C460546384600211E4630F074FD76
:10A6A80034A0314633F078FE3846002130F06CFD96
:10A6B80040A034F06BFB002C57D042F2131641F641
:10A6C8004B7A41F62F774FF00008C0F60406C0F623
:10A6D800040A0FF2E80BC0F604074FF0000906E081
:10A6E8000A4633F059FE09F101094C453DD0B9F14C
:10A6F800080FF8D8DFE809F00E2D0E110E1D0E0513
:10A7080026003046002130F03FFDE87948EA002174
:10A718005846E5E715F80980E5E73046002130F0AE
:10A7280033FDE87848EA002141F6F460C0F60400F9
:10A73800D6E73046002130F027FD687948EA002145
:10A748005046CDE73046002130F01EFD297A3846C4
:10A75800C6E73046002130F017FD687848EA002146
:10A7680041F66F70C0F60400BAE7002001B0BDE8FA
:10A77800F08F00BF4C696768745F43746C54656DF3
:10A7880070657261747572655F5374617475732056
:10A7980063616C6C6261636B207265636569766581
:10A7A8006420666F7220656C656D656E7420256423
:10A7B800200D0A002338323636210D0054617267A5
:10A7C80065742043544C2044656C74612055563A96
:10A7D800203078257820282564290D0A00000000FB
:10A7E800002070472DE9F04F81B042F26617C0F69D
:10A7F80004070C460546384600211E4630F0C4FCC6
:10A8080033A0314633F0C8FD3846002130F0BCFC97
:10A818003DA034F0BBFA002C55D042F2661641F642
:10A828004B7B4FF00008C0F604060FF2001AC0F682
:10A83800040B37A74FF0000907E000BF0A4633F0C2
:10A84800ABFD09F101094C453DD0B9F1080FF8D825
:10A85800DFE809F00E2D0E110E1D0E0526003046FC
:10A86800002130F091FCE87948EA00215846E5E7F4
:10A8780015F80980E5E73046002130F085FCE878D6
:10A8880048EA002141F66F70C0F60400D6E730466A
:10A89800002130F079FC687948EA00215046CDE77C
:10A8A8003046002130F070FC297A3846C6E7304639
:10A8B800002130F069FC687848EA002141F6AB7065
:10A8C800C0F60400BAE7002001B0BDE8F08F00BF71
:10A8D8004C696768745F43746C5F53746174757313
:10A8E8002063616C6C6261636B2072656365697675
:10A8F800656420666F7220656C656D656E742025D1
:10A9080064200D0A000000002338323630210D0083
:10A9180052656D61696E696E672054696D653A307C
:10A9280078257820282564290D0A0000546172676B
:10A9380065742043544C204C696768746E65737362
:10A948003A203078257820282564290D0A0000004F
:10A958000020704700207047002070470020704793
:10A968000020704700207047002070470020704783
:10A978000020704700207047002070470020704773
:10A9880040F21001C2F200010B2312FB03121379EB
:10A9980001460370527900204A70704740F2100156
:10A9A800C2F200010B2312FB0312937801460370D5
:10A9B800D27800204A707047014640F25C20C2F20B
:10A9C800000010F8123000EB42000B7040780B23A7
:10A9D800487040F21000C2F2000012FB03008278B7
:10A9E8008A70C2780020CA707047000040F21001D7
:10A9F800C2F200010B2312FB031293790146037084
:10AA0800D0794870107A8870507AC870927A00208D
:10AA18000A71704740F2100C0B230146C2F2000C79
:10AA280002FB03F01CF8000012FB03C20870507808
:10AA3800487090788870D2780020CA7070470000FB
:10AA4800002070472DE9F04F81B042F20427C0F68C
:10AA580004070C460546384600211E4630F094FB94
:10AA680024A0314633F098FC3846002130F08CFBA6
:10AA78002FA034F08BF9002C38D042F2042B42F28C
:10AA880072080027C0F6040BC0F604080FF2C009CC
:10AA98000FF2A40A002605E00A4633F07DFC0136D1
:10AAA800B44223D0052EFAD8DFE806F00C030C17C1
:10AAB8000C0E5846002130F067FB687847EA002101
:10AAC8004046E9E7AF5DEAE75846002130F05CFB15
:10AAD800687947EA00215046DEE75846002130F001
:10AAE80053FBE87847EA00214846D5E7002001B043
:10AAF800BDE8F08F4C696768745F48736C4465669D
:10AB080061756C745F5374617475732063616C6CE8
:10AB18006261636B20726563656976656420666F40
:10AB28007220656C656D656E74202564200D0A00C1
:10AB38002338323743210D0053617475726174698B
:10AB48006F6E3A203078257820282564290A0D0070
:10AB58004875653A203078257820282564290A0D1B
:10AB680000000000002070472DE9F04F81B042F24C
:10AB78003517C0F604070C460546384600211E4620
:10AB880030F002FB28A0314633F006FC384600219D
:10AB980030F0FAFA32A034F0F9F8002C3FD042F243
:10ABA800351B00276FF00206C0F6040B0FF2B80938
:10ABB8000FF2CC0A4FF0000806E000BF15F8087045
:10ABC80008F1010844452AD018EA060FF6D0B8F172
:10ABD800040F17D0B8F1030F0BD0B8F1010FEFD164
:10ABE8005846002130F0D0FA687847EA00215046EC
:10ABF80011E05846002130F0C7FAE87847EA00210A
:10AC0800484608E05846002130F0BEFA297942F259
:10AC18003B00C0F604000A4633F0BEFBD0E7002034
:10AC280001B0BDE8F08F00BF4C696768745F487376
:10AC38006C4875655F5374617475732063616C6CDF
:10AC48006261636B20726563656976656420666F0F
:10AC58007220656C656D656E74202564200D0A0090
:10AC68002338323731210D005461726765742048EA
:10AC780075653A203078257820282564290A0D0042
:10AC880050726573656E74204875653A2030782572
:10AC98007820282564290A0D00000000002070474C
:10ACA8002DE9F04F81B042F2F707C0F604070C46D1
:10ACB8000546384600211E4630F066FA33A0314674
:10ACC80033F06AFB3846002130F05EFA3EA034F0DB
:10ACD8005DF8002C55D042F2F70642F2890A4FF08F
:10ACE8000008C0F60406C0F6040A0FF2081B38A7CD
:10ACF8004FF0000907E000BF0A4633F04DFB09F1A9
:10AD080001094C453DD0B9F1080FF8D8DFE809F042
:10AD18002F0E110E1D0E050E26003046002130F0B4
:10AD280033FAA87948EA00215846E5E715F809807A
:10AD3800E5E73046002130F027FAA87848EA0021F4
:10AD480042F25700C0F60400D6E73046002130F042
:10AD58001BFA287948EA00215046CDE73046002101
:10AD680030F012FA287A48EA00213846C4E730461B
:10AD7800002130F009FA297842F22200C0F60400D6
:10AD8800BAE7002001B0BDE8F08F00BF4C696768E2
:10AD9800745F48736C52616E67655F537461747554
:10ADA800732063616C6C6261636B207265636569B3
:10ADB80076656420666F7220656C656D656E7420BB
:10ADC8002564200D0A0000002338323745210D0084
:10ADD80053617475726174696F6E2052616E676534
:10ADE800204D61783A203078257820282564290A72
:10ADF8000D00000053617475726174696F6E2052A2
:10AE0800616E6765204D696E3A2030782578202874
:10AE18002564290A0D000000002070472DE9F04F35
:10AE280081B042F27D17C0F604070C460546384645
:10AE380000211E4630F0A8F928A0314633F0ACFABC
:10AE48003846002130F0A0F934A033F09FFF002CE1
:10AE58003FD042F27D1B00276FF00206C0F6040BBC
:10AE68000FF2C0090FF2DC0A4FF0000806E000BF3D
:10AE780015F8087008F1010844452AD018EA060FA9
:10AE8800F6D0B8F1040F17D0B8F1030F0BD0B8F112
:10AE9800010FEFD15846002130F076F9687847EA7B
:10AEA8000021504611E05846002130F06DF9E8784D
:10AEB80047EA0021484608E05846002130F064F986
:10AEC800297942F23B00C0F604000A4633F064FADE
:10AED800D0E7002001B0BDE8F08F00BF4C6967687B
:10AEE800745F48736C53617475726174696F6E5FD7
:10AEF8005374617475732063616C6C6261636B2059
:10AF0800726563656976656420666F7220656C6535
:10AF18006D656E74202564200D0A000023383237D1
:10AF280035210D0054617267657420536174757220
:10AF38006174696F6E3A2030782578202825642955
:10AF48000A0D000050726573656E74205361747544
:10AF5800726174696F6E3A203078257820282564EC
:10AF6800290A0D00002070472DE9F04F81B042F208
:10AF78004F17C0F604070C460546384600211E4602
:10AF880030F002F92AA0314633F006FA384600219B
:10AF980030F0FAF834A033F0F9FE002C44D042F235
:10AFA8004F1642F23B0B0027C0F604060FF2DC09ED
:10AFB8000FF2BC0AC0F6040B4FF0000806E00A4680
:10AFC80033F0EAF908F1010844452DD0B8F1060F2D
:10AFD800F8D8DFE808F00D040D200D1019003046F0
:10AFE800002130F0D1F8687847EA00212DA0E6E783
:10AFF80015F80870E6E73046002130F0C5F86879A2
:10B0080047EA00215046DAE73046002130F0BCF824
:10B01800A9795846D3E73046002130F0B5F8E878EA
:10B0280047EA00214846CAE7002001B0BDE8F08F92
:10B038004C696768745F48736C5F537461747573A7
:10B048002063616C6C6261636B207265636569760D
:10B05800656420666F7220656C656D656E74202569
:10B0680064200D0A000000002338323738210D0013
:10B0780048534C2053617475726174696F6E3A203D
:10B088003078257820282564290A0D0048534C205B
:10B098004875653A203078257820282564290A0DD6
:10B0A8000000000048534C204C696768746E657353
:10B0B800733A203078257820282564290A0D000065
:10B0C800B0B5054600881C4600284FF0000002D0A5
:10B0D80002F016FE01E002F003FE40F2100128889B
:10B0E800C2F200010B2241F6DF4514FB0211C0F643
:10B0F800040588802846002130F046F809A033F07E
:10B1080045FE2846002130F03FF841F63940C0F6A8
:10B118000400214633F040F9032021462BF016FFA6
:10B128000020B0BD233832353921200D0000000041
:10B138002DE9F04381B042F2DF17C0F604070C4650
:10B148000546384600211E4630F01EF841F6B1602B
:10B15800C0F60400314633F01FF93846002130F0BC
:10B1680013F842F2A400C0F6040033F00FFEECB16D
:10B1780042F2DF180026C0F604080FF2380900274B
:10B188000EE000BF404600212FF0FEFF687846EA37
:10B19800002148460A4633F0FFF80137BC4205D083
:10B1A800012FEFD0002FF8D12E78F6E7002001B05C
:10B1B800BDE8F0834C696768746E657373204465F5
:10B1C8006661756C743A20307825782028256429C2
:10B1D8000D0A0000B0B540F21002B0F80700C2F244
:10B1E80000020B2341F6015411FB0325C0F60404A9
:10B1F8006880204600212FF0C7FF06A033F0CCF866
:10B20800204600212FF0C0FF698805A033F0C4F85C
:10B218000020B0BD2338323539210A0D0000000066
:10B228004170706C695F4C696768745F4C696768E6
:10B23800746E6573735F4C6173745F536574204CEF
:10B2480069676874204C6173742056616C75652059
:10B258003078252E3278200D0A0000002DE9F043C1
:10B2680081B042F24027C0F604070C46054638462E
:10B2780000211E462FF088FF17A0314633F08CF8C6
:10B28800384600212FF080FF42F2A400C0F60400E7
:10B2980033F07CFDE4B142F240280026C0F60408F1
:10B2A8000FF2740900270DE0404600212FF06CFFD3
:10B2B800687846EA002148460A4633F06DF80137B7
:10B2C800BC4205D0012FEFD0002FF8D12E78F6E739
:10B2D800002001B0BDE8F0834C696768745F4C6971
:10B2E8006768746E6573735F4C6173745F537461E0
:10B2F8007475732063616C6C6261636B2072656343
:10B30800656976656420666F7220656C656D656E2B
:10B3180074202564200D0A004C696768746E657393
:10B3280073204C6173743A2030782578202825647E
:10B33800290D0A00B0B5408840F25C2141F6A445C9
:10B34800C2F20001C0F6040521F8130028460021C6
:10B358001C462FF019FF41F6F630C0F604002146CE
:10B3680033F01AF8284600212FF00EFF02A033F020
:10B3780013F80020B0BD00BF2338323530210A0D44
:10B38800000000002DE9F04F81B042F29E17C0F690
:10B3980004070C460546384600211E462FF0F4FEE9
:10B3A80041F66F60C0F60400314632F0F5FF3846CA
:10B3B80000212FF0E9FE26A033F0E8FC002C42D053
:10B3C80042F29E1B41F6CE7941F6EC7A00276FF0E7
:10B3D8000206C0F6040BC0F60409C0F6040A4FF0D2
:10B3E800000805E015F8087008F1010844452AD05E
:10B3F80018EA060FF6D0B8F1040F17D0B8F1030F0A
:10B408000BD0B8F1010FEFD1584600212FF0BCFE48
:10B41800687847EA0021504611E0584600212FF08D
:10B42800B3FEE87847EA0021484608E0584600217C
:10B438002FF0AAFE297941F62F70C0F604000A46BB
:10B4480032F0AAFFD0E7002001B0BDE8F08F00BFBE
:10B458002338323532210D00B0B540F210021C46B7
:10B468000178C2F200020B2314FB03229171D0F879
:10B47800010041F68445C0F60405C2F807002846D5
:10B4880000212FF081FE08A032F086FF2846002117
:10B498002FF07AFE41F6AD30C0F60400214632F0B6
:10B4A8007BFF0020B0BD00BF233832354221200A7F
:10B4B8000D0000002DE9F04F81B042F2D407C0F62C
:10B4C80004070C460546384600211E462FF05CFE50
:10B4D80041F62E60C0F60400314632F05DFF384672
:10B4E80000212FF051FE23A033F050FC002C3DD05A
:10B4F80042F2D40B41F6167A42F20B0841F69479DF
:10B508000027C0F6040BC0F6040AC0F60408C0F60B
:10B518000409002604E000BFAF5D0136B44225D01F
:10B5280086B126F002000128F6D0042E11D0022E92
:10B53800F3D1584600212FF027FEA87847EA0021CA
:10B5480048460FE0584600212FF01EFE2978504645
:10B5580008E0584600212FF017FE287947EA002115
:10B56800404600BF0A4632F017FFD6E7002001B078
:10B57800BDE8F08F2338323538210D00F0B581B0A1
:10B5880041F6C546C0F604060546304600211C466D
:10B5980000272FF0F9FD27A032F0FEFE30460021EB
:10B5A8002FF0F2FD2A88B5F8073025A0214632F0A1
:10B5B800F3FE40F210012888C2F200010B2214FBAE
:10B5C80002136243885240F6421240F2B816B5F8A8
:10B5D8000710C2F20002C2F20006002818BF014696
:10B5E800128835885980AA424FF0000147F6F54382
:10B5F80098BF01219A4288BF01273943002A328027
:10B6080018BF0122114040F64012C2F20002117028
:10B618004FF6FF7100222CF0DDFE40F2AC11C2F2B1
:10B6280000010880032021462BF090FC002001B087
:10B63800F0BD00BF2338323443210A0D000000005A
:10B64800456C656D656E7420696E64657820256447
:10B658002070726573656E74203078252E327820DC
:10B668006C617374203078252E32780D0A00000042
:10B678002DE9F04F81B042F2C217C0F604070C461C
:10B688000546384600211E462FF07EFD2AA0314689
:10B6980032F082FE384600212FF076FD35A033F0D7
:10B6A80075FB002C43D042F2C21B41F6CE7941F61D
:10B6B800EC7A00276FF00206C0F6040BC0F6040906
:10B6C800C0F6040A4FF0000806E000BF15F808703D
:10B6D80008F1010844452AD018EA060FF6D0B8F157
:10B6E800040F17D0B8F1030F0BD0B8F1010FEFD149
:10B6F800584600212FF048FD687847EA0021504657
:10B7080011E0584600212FF03FFDE87847EA002174
:10B71800484608E0584600212FF036FD297941F6C1
:10B728002F70C0F604000A4632F036FED0E700203B
:10B7380001B0BDE8F08F00BF4C696768745F4C6961
:10B748006768746E6573735F53746174757320638F
:10B75800616C6C6261636B207265636569766564B0
:10B7680020666F7220656C656D656E742025642097
:10B778000D0A00002338323445210D0010B54AF671
:10B78800F840C2F20000006804212CF0CFF904460A
:10B7980040B141F21650C0F60400214632F0FCFDDB
:10B7A800204610BD41F28B60C0F6040033F0EEFA7B
:10B7B800204610BD80B510F0D7F950B101F0FAF964
:10B7C800002818BF80BD41F62A50C2F200000121AE
:10B7D800017080BD81B08DF803004AF6E440C2F2E2
:10B7E80000000068406801B070470000B0B583B041
:10B7F80094468E46044609980899079A02948DF84B
:10B8080007E08DF806C0ADF80430ADF802208DF8D9
:10B8180001108DF80000029901200870029900209B
:10B828004870029988700299C8700299087103B02B
:10B83800B0BD000081B08DF803004AF6E440C2F2C2
:10B8480000000068006901B07047000080B541F64B
:10B858003050C2F200000178012907D1002101709F
:10B8680010F082F910B101202EF01EFE10F07CF9C4
:10B87800B8B110F07FF9A0B141F63150C2F2000022
:10B88800017871B9012101700BF046FB012802D043
:10B89800032009F059FF41F2EF60C0F6040033F0CD
:10B8A80075FA40200021BDE8804030F02FBC000030
:10B8B80041F63650C2F200000078002818BF7047E1
:10B8C80080B501F03DFD0A200BF042FEFDF702FFB6
:10B8D800002009F039FF41F2D150C0F6040033F0DE
:10B8E80055FA01F063FB30F04BFF000080B582B0E1
:10B8F8008DF807004AF6EC40C2F2000000680169C2
:10B908009DF80700884702B080BD00002DE9F04F80
:10B918008FB0834600284FF0030000F0C6800D4624
:10B92800002900F0C28040F290389BF800A045F250
:10B938000829C2F200080120C2F20009A8F8000094
:10B9480069A0002189F800A000272FF01DFC9BF8B2
:10B9580000106BA02A4632F01FFD6EA6002400BF1F
:10B968001BF80710304632F017FD0134A7B2BD426C
:10B97800F6D840F67F20C0F6040032F00DFDAAF19B
:10B98800010125294FF0010000F28F80DFE801F066
:10B99800138D8D8D8D8D8D8D8D8D8D8D8D8D8D6076
:10B9A800524F8D8D8D8D8D8D8D8D8D8D8D8D8D3194
:10B9B800426A75857C203C2D6BD845F20820C2F27E
:10B9C800000059462A46FBF7B8FCA8F800506BE07F
:10B9D8000BF0CAFA0446FBF7EEFCC5B2102D28BFDF
:10B9E800102509F1010021462A46FBF7A6FC681C30
:10B9F80058E0022D4DD39BF8010069468DF80000F0
:10BA08004AF6E000C2F2000001224FF47A730EF009
:10BA180099FB49E0032D3CD39BF8010004285AD038
:10BA2800032836D19BF802002EF0B8FC3CE00BF05E
:10BA38001BFA34E068463B210BF034FA70B1044637
:10BA480009F1010069462246FBF777FC601C29E0F2
:10BA580068463B210BF00EFA0028F0D101200FB008
:10BA6800BDE8F08F022D14D39BF80100042837D0CD
:10BA780003280ED10BF06CFA11E0022D09D39BF8C4
:10BA880001002EF023FC0FE0A5F1120010F1100FB9
:10BA98000ED203200FB0BDE8F08F0BF023FA89F81F
:10BAA80001000220A8F8000000200FB0BDE8F08FC8
:10BAB800681E00216C468DF81010CDE90211CDE901
:10BAC80000110BF10101C2B22046FBF736FC2046FB
:10BAD8002EF0A4FCE8E79BF802002EF07FFCE3E7D9
:10BAE8000BF03CFADBE700BF4170706C695F56658C
:10BAF8006E646F725F446174615F77726974650028
:10BB08002330452D2530326878202530326C782155
:10BB1800200A0D0025303268782000002DE9F04F0A
:10BB280083B00546067845F20820C2F20000067088
:10BB380041F61300C0F60400002100242FF024FB76
:10BB4800297853A032F028FC701E032800F29A804E
:10BB5800DFE800F002084C9940F29030C2F2000091
:10BB680002218CE000F01AFF04783CB341F6130878
:10BB7800471C00250DF102090FF23C1AC0F6040813
:10BB88000FF2481B13E000BFE0B201F02BF80446A7
:10BB980009F806005E46404600212FF0F5FA3046C7
:10BBA800214632F0F9FB17F8014B013534B1EEB2FA
:10BBB8002E2C09F80640E7D15646ECE7BDF80200FE
:10BBC80045F20822BDF80510C2F20002A2F80100F1
:10BBD8009DF80800A2F80310BDF80910507140F252
:10BBE8009030D180C2F20000082148E000F0D0FE79
:10BBF80004785CB341F2E37B41F61309471C002546
:10BC08000DF1020AC0F6040BC0F604090FF2900801
:10BC18000DE000BF5E46484600212FF0B5FA3046D9
:10BC2800214632F0B9FB17F8014B013574B1EEB279
:10BC38002E2C0AF80640EDD0522CEBD0E0B200F0E2
:10BC4800D1FF04460AF806004646E4E7BDF80200BC
:10BC580045F20827C2F20007A7F801009DF8050081
:10BC68009DF807109DF809209DF80B30F87040F2F8
:10BC7800903039717A71BB71C2F2000007210180DE
:10BC8800002400E00124204603B0BDE8F08F00BF87
:10BC98002330322D253032687821200A0D0000002B
:10BCA800537562204C69622076657273696F6E20E5
:10BCB80069732025780A0D004C69622076657273D5
:10BCC800696F6E2069732025630A0D004C69622034
:10BCD80076657273696F6E2069732025780A0D0086
:10BCE8002DE9F04381B0064690F8008041F2FB70E0
:10BCF800C0F604000021154600272FF045FA3178D8
:10BD08007CA032F049FBA8F1010005284FF0010999
:10BD180000F2CE800024DFE800F003502ACC718DB9
:10BD280041F2FB70C0F6040000214FF000092FF02B
:10BD38002BFA41F23870C0F60400294632F02CFB89
:10BD480040F2AC10C2F2000047F6F64101800168EB
:10BD580042688368042010F0AFFD002001F0D0FF96
:10BD680040F2AA10C2F20000012101709FE041F2E6
:10BD7800FB70C0F6040000214FF000092FF004FA10
:10BD880041F26E70C0F60400294632F005FB40F21D
:10BD9800AA14C2F200042078012874D140F2AC1031
:10BDA800C2F2000001210180016842688368042012
:10BDB80010F082FD84F800901EE041F2FB70C0F69E
:10BDC800040000214FF000092FF0DEF95DA029469C
:10BDD80032F0E2FA40F2AC10C2F200000121018018
:10BDE800016842688368042010F066FD40F2AA10DA
:10BDF800C2F2000080F80090002018E041F2FB70C9
:10BE0800C0F6040000212FF0BFF941F2A870C0F677
:10BE18000400294632F0C0FA707840F2AA11C2F242
:10BE28000001012808703DD000204FF0000901F002
:10BE380057FF3CE041F2FB70C0F6040000212FF0F0
:10BE4800A3F930A0294632F0A7FA7778B47847F6F4
:10BE5800FF7147EA042000222CF0BCFA054640F2A4
:10BE6800AC10C2F2000005800168426883680420B3
:10BE780010F022FD00204FF00009B5F57A5F35D9A2
:10BE880001F03EFF15E040F2AC10C2F2000047F6A8
:10BE9800F6410180016842688368042010F00CFDB7
:10BEA8000120207000204FF0000901F029FF002731
:10BEB800002445F20820C2F20000B8F1060F80F80D
:10BEC800008003D144708770032106E040F2AA1174
:10BED800C2F2000109784170022140F29032C2F2A8
:10BEE80000024846118001B0BDE8F08301F0F8FE79
:10BEF800DFE700BF2330332D2530326878210A0D63
:10BF0800000000004170706C695F4C45445F496EE9
:10BF180074656E736974792063616C6C6261636BBC
:10BF280020726563656976656420666F7220656C4A
:10BF3800656D656E74496E646578202564200D0A08
:10BF4800000000004170706C695F4C45445F4F46CB
:10BF5800462063616C6C6261636B2072656365691E
:10BF680076656420666F7220656C656D656E7449D0
:10BF78006E646578202564200D0A0000B0B584B091
:10BF880001F0E6F928B1002001F0BAFE012004B062
:10BF9800B0BD0020002501F0A3FE40F20C22C2F241
:10BFA8000002136C108892F844100124CDE9003582
:10BFB800931C0E22029401F0B1F804B0B0BD000049
:10BFC800F0B581B040F20C270E46C2F200071546C4
:10BFD8000146B81C32461C46FBF7AFF900203C80EE
:10BFE8003E643C2E88BF032087F8445001B0F0BD62
:10BFF8002DE9F0410446077845F2082841F62B0060
:10C008000D46C2F20008C0F60400002188F800704E
:10C0180000262FF0B9F8217820A032F0BDF9F81EDB
:10C02800032837D3022F19D0062F32D19DB140F6FD
:10C038007F2700210FF27408C0F60407002600BF0E
:10C04800625C404632F0A8F9384632F0A5F901366C
:10C05800F1B28D42F4D80020BDE8F0813D2D0AD31D
:10C0680041F62B00C0F6040000212FF08DF813A034
:10C0780032F08CFE3C25611C6A1E08F10100FBF7BA
:10C088005CF940F29030C2F2000005800020BDE863
:10C09800F08101263046BDE8F08100BF2330312D04
:10C0A800253032687821200A0D000000646174612F
:10C0B8005B25645D3D202564000000004C656E67CB
:10C0C8007468207265636569766564206772656166
:10C0D800746572207468616E2073697A65206F6672
:10C0E80020726573706F6E7365206275666665721F
:10C0F800200D000040F2FC12C1EBC101C2F20002A7
:10C1080002EB4101002200BF31F81230984204BF0F
:10C11800012070470132072A04BF00207047F3E767
:10C1280040F25422C2F2000202EBC101002200BF19
:10C1380051F82230984204BF012070470132012A89
:10C148001CBF00207047F3E70020704710B540F28D
:10C15800FC12C1EBC101C2F2000202EB4101002452
:10C168004FF6FF7231F81430934203D00134072C94
:10C17800F8D107246200FBF7E0F8E0B210BD000038
:10C1880010B540F25422C2F2000202EBC1010024B1
:10C198004FF6FF7251F82430934203D00134012C3A
:10C1A800F8D00224A200FBF7C8F8E0B210BD0000E6
:10C1B800B0B588B0DDF844C0DDF840C0DDF83CC05B
:10C1C800DDF838C0DDF834C0DDF830C007900691DE
:10C1D800059204930EF090FC06980EF0DDFC05988D
:10C1E8000499109A119BDDF83CC00D9CEE46002581
:10C1F800CEF80850CEF80440CEF800C00EF06EFB22
:10C208000E980F99079A0EF0DFFA0C980D990EF018
:10C21800B7FA03900EF048FC039808B0B0BD0000D0
:10C22800B0B588B0DDF844C0DDF840C0DDF83CC0EA
:10C23800DDF838C0DDF834C0DDF830C0079006916D
:10C2480005920493002003900EF056FC04980EF01B
:10C25800A3FC0C980D99109A119BDDF83CC0059C25
:10C26800EE460125CEF80850CEF80440CEF800C0BE
:10C278000EF034FB0E980F99079A0EF0A5FA06985F
:10C2880005990EF01BFB0EF00FFC039808B0B0BD2B
:10C2980080B592B0119010910F920E9340F26020E9
:10C2A800C2F200000D9000200B9010980290119897
:10C2B80020B1FFE7119800F0FFF8FFE70E9890B162
:10C2C800FFE70F9800F00F000B900F9830B1FFE7D1
:10C2D8000B9818B9FFE710200B90FFE70B990F9800
:10C2E800401A0F90FFE7FFE70F9870B3FFE7029B34
:10C2F800186859689A68DB680A9309920891079048
:10C30800FFE7079800BA0D99096848400790089810
:10C3180000BA0D99496848400890099800BA0D99E3
:10C328008968484009900A9800BA0D99C968484038
:10C338000A90FFE70D9907A800F0B4F802981030AA
:10C3480002900F9810380F90CEE70E98002800F052
:10C358008180FFE700200A900990089007900C90D0
:10C36800FFE70C980B99884213D2FFE702990C98C3
:10C37800095C03228243D20001FA02F320F003028F
:10C3880007A9885818438850FFE70C9801300C908B
:10C39800E7E70020069005900490039003A9019117
:10C3A800084600F07FF8019800F056F80B980F281F
:10C3B80011D8FFE70B9803218143CA00802101FAB5
:10C3C80002F320F0030207A988581843885003A8ED
:10C3D80000F042F8FFE700200C90FFE70C980328D4
:10C3E80014D8FFE70D980C9A50F8220003A951F8C9
:10C3F800221080EA010307A951F82200584041F8A9
:10C408002200FFE70C9801300C90E7E70D9907A888
:10C4180000F048F80EF048FBFFE70D98006800BAF6
:10C4280007900D98406800BA08900D98806800BA87
:10C4380009900D98C06800BA0A90FFE70E9907980E
:10C44800089A099BDDF828C0C1F80CC08B604A60C7
:10C458000860FFE712B080BD82B0019001980068C3
:10C46800C00F872148430090019908684A68400036
:10C4780040EAD2700860019948688A68400040EA3A
:10C48800D270486001998868CA68400040EAD27052
:10C4980088600199CA68009880EA4200C86002B0C2
:10C4A8007047000080B582B0019000910198009912
:10C4B8000EF0ECFA02B080BD80B584B0039040F273
:10C4C8006020C2F2000002900EF016FB03980EF0F6
:10C4D80063FB002001900EF089FB01980299C86067
:10C4E80002998860029948600299086004B080BD8A
:10C4F80080B588B00790069105920EF0FDFA07986E
:10C508000EF04AFB04200EF071FB069B1868596870
:10C518009A68DB68049303920291019001A9084686
:10C528000EF0B4FA0EF0C0FA05990198029A039B2E
:10C53800DDF810C0C1F80CC08B604A60086008B014
:10C5480080BD000010B54CF285520446C0F60002CA
:10C558004FF4806000212FF0C5FC40F2F803C2F2CE
:10C5680000034FF0640C03EB840242F619202146C5
:10C5780023F824C0BDE8104000F0A6B840F2F80245
:10C58800C2F2000242F61920002100F09DB8000016
:10C5980040F2F801C2F20001CA780880012A18BFE7
:10C5A80070474FF4806003212FF0B0BD80B582B092
:10C5B8004178FF2902D0002002B080BDB0F80310F6
:10C5C80040F61442914212D040F601429142F2D113
:10C5D80040F22811C2F200014988B0F80720023160
:10C5E8009142E8D1407B012121EA00000EE040F2AF
:10C5F8002811C2F200014988B0F8072001319142A0
:10C60800D9D1B0F8050030F097FB02208DF806006C
:10C6180000208DF807000DF1060000F035F8012024
:10C6280002B080BDF0B587B04CF2B550C0F600003E
:10C638002CF05EFE41F60F0040F228150DF11A04A9
:10C64800ADF81A00C2F20005012021460122042398
:10C6580000950126042730F00FFB42F6192135F822
:10C66800020BADF81A100A2100221223CDE900327C
:10C67800CDE902710121224601230496059530F087
:10C688008BFA07B0F0BD00000078022812D001280C
:10C6980009D0002818BF704740F2F800C2F2000025
:10C6A8000121C170704740F2F800C2F20000002179
:10C6B800C170704740F2F802C2F2000242F6192037
:10C6C800002100F001B80000944642F61922904279
:10C6D80018BF704780B582B001EB410040F22811C5
:10C6E800C2F2000101EB400231F81000518800222B
:10C6F8000123CDF800C030F017FC02B080BD000067
:10C7080082B00090009820B9FFE703208DF8070059
:10C7180009E000984AF6C041C2F200010860002012
:10C728008DF80700FFE79DF8070002B0704700008A
:10C7380082B00090009820B9FFE703208DF8070029
:10C7480009E000984AF6EC41C2F2000108600020B6
:10C758008DF80700FFE79DF8070002B0704700005A
:10C7680080B582B001908DF80310019820B1FFE7E1
:10C778009DF8030020B9FFE702208DF802000CE0C5
:10C788004AF62850C2F20000006801999DF803207B
:10C7980005F022F88DF80200FFE79DF8020002B0CC
:10C7A80080BD000080B541F62A50C2F20000012188
:10C7B80001700FF0D9F9002808BF80BD41F630504C
:10C7C800C2F20000017869B90121017041F2976055
:10C7D800C0F6040032F0DAFA40200021BDE88040BB
:10C7E8002FF094BC80BD00000622028040F20012A7
:10C7F800C0F20232C0F802200422827107200870B9
:10C808007047000083B0029001918DF803208DF8E5
:10C81800023003B07047000010B5044608A031F09C
:10C82800BBFD601EC0B2022899BF13A151F82000B9
:10C8380041F27C50C0F60400BDE8104032F0A6BAC0
:10C84800467269656E647368697020636C656172AD
:10C8580065642E204C6F7720706F776572206E6F3D
:10C8680064652061646472657373203078252E34A2
:10C8780058200D0A000000008E1504082D15040824
:10C888005C150408F0B581B00F46014641F2DD4061
:10C89800069CC0F604001D46164631F07DFD0DA02D
:10C8A800394631F079FD642006FB00F113A031F020
:10C8B80073FD1CA0294631F06FFD4CB141F2AC402C
:10C8C800C0F60400214601B0BDE8F04031F064BD77
:10C8D80001B0F0BD4C6F7720706F776572206E6F76
:10C8E800646520726563656976652064656C617945
:10C8F8002025646D73200D0A000000004C6F77201E
:10C90800706F776572206E6F646520706F6C6C2035
:10C9180074696D656F757420256C646D73200D0ADC
:10C92800000000004C6F7720706F776572206E6F83
:10C938006465206E756D626572206F6620656C6532
:10C948006D656E7473202564200D0A0081B0002087
:10C95800ADF802004AF62850C2F20000006880B123
:10C96800FFE74AF67040C2F200000078012808D1BB
:10C97800FFE74AF67040C2F200004088ADF80200B6
:10C98800FFE7BDF8020001B07047000003207047C0
:10C9980043F2E500C0F604007047000043F2AD0022
:10C9A800C0F60400704700000320704780B582B0CD
:10C9B8004AF62850C2F20000006828B1FFE713F0D9
:10C9C800C1F98DF8070003E000208DF80700FFE7A4
:10C9D8009DF8070002B080BD0520704783B08DF830
:10C9E8000B0001910020ADF802009DF80B0004280F
:10C9F8004ADCFFE74AF62850C2F200000068002827
:10CA080041D0FFE74AF67040C2F2000000780128E2
:10CA180039D1FFE700208DF80100FFE79DF80100FC
:10CA28000A282FDCFFE79DF80B104AF67040C2F287
:10CA3800000000EB8100406A9DF80110C1EBC101C4
:10CA480000EBC100806F0199884214D1FFE79DF87F
:10CA58000B104AF67040C2F2000000EB8100406AF9
:10CA68009DF80110C1EBC10100EBC100B0F87C00DA
:10CA7800ADF8020006E0FFE79DF8010001308DF8EF
:10CA88000100CBE7FFE703E00020ADF80200FFE775
:10CA9800BDF8020003B0704780B582B04AF628504E
:10CAA800C2F20000006828B1FFE713F0A1F98DF881
:10CAB800070003E000208DF80700FFE79DF8070056
:10CAC80002B080BD0A20704780B582B04AF628506F
:10CAD800C2F20000006828B1FFE713F09DF98DF855
:10CAE800070003E000208DF80700FFE79DF8070026
:10CAF80002B080BD0B20704780B582B001900198CC
:10CB080031F0DEFA019819F05BF902B080BD00003F
:10CB180080B582B04AF6E440C2F20000006882693B
:10CB2800036A4BF2F570C0F60000694648604BF6A0
:10CB38003D00C0F6000008604BF2DD71C0F6000150
:10CB4800052019F039FA02B080BD00002DE9F04740
:10CB58008AB04AF6E440C2F2000001680A784B68DD
