:020000040800F2
:1070000050CB0020BD72000875750308D9BB01087C
:1070100045D30108E9540108BDCE03080000000073
:1070200000000000000000000000000011A30308A1
:10703000295C010800000000E18E030825B2030866
:10704000D7720008D7720008D77200082992030887
:10705000D7720008D7720008D7720008D7720008EC
:10706000D7720008D7720008D7720008D7720008DC
:10707000D7720008D7720008D7720008D7720008CC
:10708000D7720008D7720008D7720008D7720008BC
:10709000D7720008D7720008D7720008BD5C0108DB
:1070A000D7720008D7720008D7720008D77200089C
:1070B000D7720008D7720008D7720008D77200088C
:1070C000D7720008D7720008D7720008D77200087C
:1070D000A5CB030855C00108D7720008D772000875
:1070E000D7720008D7720008D7720008D77200085C
:1070F000CDBE0108D1BE0108F5AA0108D77200086B
:10710000D7720008D7720008D7720008D77200083B
:10711000D7720008D7720008D7720008D77200082B
:10712000D7720008D7720008855B0108D772000883
:10713000D7720008D7720008D7720008000000005C
:10714000C84204080000000081C201120812484A27
:107150000C0412303B08051C1A041059041428189A
:107160000222B042201A270C5AD00C14FFFF031A37
:10717000034A13D4521420FC541420245714204CD6
:1071800059180F20959603086198030895970308EE
:10719000090C1E5D95030819101E659B0308FF016D
:1071A000111B093D3C14FFFF011A02401204120595
:1071B000120EB6090DFF018314DD2A021A14894547
:1071C000D14001083CDE2A08105AED10DADB20DA43
:1071D000DC201A010C029B100000000000000000DF
:1071E000000000000000000000000000000000009F
:1071F000000000000000000000000000000000008F
:10720000000000000000000000000000000000007E
:10721000000000000000000000000000000000006E
:10722000000000000000000000000000000000005E
:10723000000000000000000000000000000000004E
:10724000000000000000000000000000000000003E
:10725000000000000000000000000000000000002E
:1072600000000000000000000000000001FF01FF1E
:1072700001FF01FF01FF01FF01FF01FF01FF01FF0E
:04728000014A0000BF
:020000040800F2
:1072A800DFF80CD000F002FD00480047E1EA0308CF
:1072B80050CB00200648804706480047FEE7FEE717
:1072C800FEE7FEE7FEE7FEE7FEE7FEE7FEE7FEE78E
:1072D800CDB20308A97200082DE9F05F0546002029
:1072E80092469B4688460646814640241BE028462F
:1072F80041464746224600F096FB53465A46C01A76
:10730800914110D311461846224600F07DFB2D1AF4
:1073180067EB01084F4622460120002100F074FB6C
:1073280017EB00094E41201EA4F10104DFDC48469A
:1073380031462A464346BDE8F09F10B5431A9342AA
:1073480009D28318881803E010F8011D03F8011DFD
:10735800521EF9D210BD40EA01039B0703D009E091
:1073680008C9121F08C0042AFAD203E011F8013B29
:1073780000F8013B521EF9D210BDD2B201E000F86C
:10738800012B491EFBD270470022F6E710B51346C1
:107398000A4604461946FFF7F0FF204610BD10B50F
:1073A800044604E00B7800F8013B03B1491C521E67
:1073B800F8D2204610BD421C10F8011B0029FBD151
:1073C800801A7047CBB203E00178994203D0401C81
:1073D800521EF9D20020704730B5044600200346FB
:1073E80000E05B1C934203D2E05CCD5C401BF8D00C
:1073F80030BD30B505460020034600E05B1C9342D3
:1074080005D2EC5CC85C201A01D1002CF6D130BD45
:107418000FB400B58DB010A909900B9000914FF0F2
:10742800FF300A9000200C90054806900548079008
:107438006A4609A80F9900F02DFB0DB05DF814FB02
:10744800B97A0008D77A00082DE9FF5F1D464FF08A
:10745800FF3BD5E9014691465F464FF00008A96910
:107468007F1C01988847296A824688470028F6D1F8
:10747800BAF1FF3F0CD024F4C064002E19DD600679
:1074880014D5BAF12B0F09D0BAF12D0F0ED103E0A4
:10749800584604B0BDE8F09F44F48064A9697F1C95
:1074A80001988847761E8246002E02DDBAF1300F19
:1074B80003D0B9F1000F26D032E0A969761E44F452
:1074C80000747F1C019888478246002E05DDBAF1BA
:1074D800780F06D0BAF1580F03D0B9F1000F10D0C9
:1074E8001EE0B9F1000F02D0B9F1100F18D1A96947
:1074F800761E24F400747F1C019888478246102069
:1075080002E0082000E00A20814609E008FB09089B
:10751800A969761E44F400747F1C01988847824646
:10752800002E05DD4946504600F09FFA0028EDDAA6
:10753800E96901988847A00502D46FF00100A8E71F
:10754800E00725D1600613D5600502D5C8F1000013
:1075580000E0404629680A1D2A600968220501D50D
:10756800087015E0220701D5088011E008600FE0D7
:107578002868011D29600068210502D580F800806F
:1075880006E0210702D5A0F8008001E0C0F80080DD
:1075980038467EE72DE9FF5FD2E901A74FF00008E2
:1075A800916999461446DDF838B0464601988847EF
:1075B800054659EA0B0005D009E0A169761C019837
:1075C80088470546216A284688470028F5D1681C5F
:1075D80003D05FEACA7005D015E04FF0FF3004B061
:1075E800BDE8F09F2068011D2160D0F800800AE006
:1075F8005FEACA7001D108F8015BA169761C7F1E99
:10760800019888470546002F1ADD681C18D0B9F183
:10761800000F0DD0E81705EBD060421120F01F00D5
:1076280059F822102A1A012090400142E0D107E0BF
:10763800BBF1000FDCD1216A284688470028D7D043
:10764800E16901988847BBF1000F07D1002E05DDDD
:107658005FEACA7002D1002188F80010A068B84219
:1076680003DDBBF1000F03D017B16FF00100B6E7DF
:107678003046B4E72DE9FE4F804681EA0300C00F8B
:107688000C46009021F0004123F00045B8EB0200C1
:10769800A94105D24046214690461C460B46024663
:1076A80023F00040104347D0270DC7F30A00C3F367
:1076B8000A510290401A019040286BDAC3F3130074
:1076C80040F4801B0098924620B10023D2EB030AB5
:1076D80063EB0B0B01985946C0F14002504600F08D
:1076E80093F906460D4650465946019A00F0ABF903
:1076F80010EB08006141002487EA115284EAE7731D
:107708001A4340D0009A62B3019A012A4FEA0752FD
:1077180015DC001B61EB02014FF0004202EA075240
:10772800CDE90042001C41F5801132462B4600F09D
:10773800EEF903B0BDE8F08F40462146F9E7001B9B
:1077480061EB0201001C41F5801300185B41201811
:10775800A2F5001747EB030140EAD570B6196D4151
:1077680011E06D084FEA360645EAC0754FEA075240
:10777800001B61EB0201001C41F5801149084FEA2A
:1077880030000019514132462B4603B0BDE8F04F96
:1077980000F0AEB90098012240000023D0EB0202AD
:1077A80063EBE073009821464FEAE074B8EB000001
:1077B80061EB0401E9E783F000435BE781F00041F6
:1077C80058E72DE9FE4F81EA030404F0004421F054
:1077D800004100944FF0000B23F0004350EA0104ED
:1077E8005ED052EA03045BD0C3F30A54C1F30A55CE
:1077F8002C44A4F2F3340194A0FB0254C1F3130106
:1078080041F48011C3F3130343F4801301FB0244D2
:1078180000FB034E840A970A44EA815447EA8357D7
:10782800A4FB076802958D0A05FB07854FEA932C90
:1078380004FB0C542705029D4FEA065847EA163701
:10784800B5EB08056EEB070C870E920E47EA811719
:1078580042EA8312A7FB0201B6EB0B0164EB0004BA
:107868002B0D43EA0C335E1844EB1C50DA465146A4
:10787800E7FB0201C5F313044FEA0B3343EA145341
:107888004FEA0432019C43EA0603A4F10C04029473
:10789800009CCDE900B400F03AF903B0BDE8F08FE0
:1078A80000200146F9E72DE9F04D81EA030404F0D0
:1078B800004B21F0004514464FF0000A23F0004128
:1078C80050EA050220D054EA01021DD0C5F30A5738
:1078D8000246C5F31303C1F31300C1F30A5640F47B
:1078E800801543F48013A7EB0608101BD64608F250
:1078F800FD3873EB050002D308F1010801E0921886
:107908005B41B8F1000F03DA00200146BDE8F08DB5
:1079180000204FF48011064684460EE0171B73EBD7
:10792800050705D3121B63EB050306434CEA010C5C
:1079380049084FEA300092185B4150EA0107EDD13F
:1079480052EA030012D082EA040083EA05010843E0
:1079580005D0101BAB4106D20122002306E000220D
:107968004FF0004302E06FF0010253101AEB0600DB
:107978004CEB085110EB0A0041EB0B01BDE8F04D50
:1079880000F0B6B80EB540F2334102910021CDE9BE
:1079980000110A460B4600F0BAF803B000BD70B5F6
:1079A800C1F30A5201F000450024C1F3130140F26B
:1079B800FF3341F480119A4201DA002070BD40F291
:1079C80033439A42A2F2334203DC524200F02BF8CE
:1079D80000E090402C43F1D0404270BD30B50B46DA
:1079E800014600202022012409E021FA02F59D42E7
:1079F80005D303FA02F5491B04FA02F52844151EBB
:107A0800A2F10102F1DC30BD202A04DB203A00FAA1
:107A180002F1002070479140C2F1200320FA03F3DD
:107A2800194390407047202A04DB203A21FA02F0DB
:107A38000021704721FA02F3D040C2F120029140A0
:107A4800084319467047202A06DBCB17203A41FA2B
:107A580002F043EAE07306E041FA02F3D040C2F1D3
:107A6800200291400843194670473A2800D230381E
:107A780020F02002412A01D3A2F13700884201D325
:107A88004FF0FF307047000002681144137801601E
:107A980018467047D16004495161044911620021B8
:107AA8001161114600F020B9917A0008E57C0008C0
:107AB800426842B1016811F8013B23B1521EC0E986
:107AC8000012184670470121C160881E704742683D
:107AD8005AB1C368016843B983688B4205D0491E0F
:107AE800521CC0E90012002070474FF0FF30704769
:107AF80010B5141E73F1000408DA401C41F10001AE
:107B080092185B411A4301D120F0010010BD2DE904
:107B1800F04D92469B4611B1B1FA81F202E0B0FAFB
:107B280080F220329046FFF76FFF04460F4640EA86
:107B38000A0041EA0B0153465A46084313D011463E
:107B480053EA010019D0C8F140025046FFF76BFF15
:107B580005460E46504659464246FFF755FF08432C
:107B680005D0012004E020463946BDE8F08D00200C
:107B7800054346EAE0762C4337430A986305E40A4E
:107B8800A0EB08000022FD0A44EA47540A3002D557
:107B980000200146E9E7010510196941DDE90845BA
:107BA80000196941BDE8F04DA2E72DE9F04D002329
:107BB8001A461B1A8A4103DB00200146BDE8F08DF6
:107BC800C1F30A52C1F3130141F480154FF0000BC1
:107BD800D10702D100186D41521E0027044640F219
:107BE800FF11384601EB620A3E46804602460020F5
:107BF8004FF48011FFF717FFC2197141BB1846EB0C
:107C08000100B4EB030C75EB000C04D3E41A65EB2C
:107C1800000517460E46241908F101006D418046FB
:107C28003428E3DDF91946EB0600091BA84103D205
:107C38004FF0FF32134601E0002213461BEB07000A
:107C480046EB0A51BDE8F04DFFF752BFC1F30A52A7
:107C5800C1F3130140F2FF3341F480119A4202DA72
:107C680000200146704740F233439A42A2F2334261
:107C780002DC5242FFF7D7BEFFF7C6BE30B5041E7E
:107C880071F1000404DB4FF00044404264EB010151
:107C9800141E73F1000405DB1C464FF000435242EA
:107CA80063EB0403994208BF904230BD1CB50948F4
:107CB8000090094801900546009C06E0E06840F005
:107CC800010394E8070098471034AC42F6D3FFF755
:107CD800EBFA000078420408C8420408C0B24FF426
:107CE800F05100F097B900002DE9F34F8BB04FF039
:107CF800000801F10C000C464FF0010B46460DF14F
:107D0800080A01906269012101989047051E2DD04B
:107D1800252D2CD0216A8847C0B1626901210198BC
:107D28009047216A88470028F7D1411E6269019867
:107D3800904700E0761CA1690B988847216A88471C
:107D48000028F7D1E1690B988847DBE7A1690B9810
:107D580088470746A84201D1761CD3E7E1690B980A
:107D680088477F1C02D1B8F1000F6FD046E1002789
:107D780062693D463946019890472A2804D16269CC
:107D88000121019890470125DFF884926269012159
:107D980001989047A0F130010A290AD24F45E5DC45
:107DA80007EB870100EB4107303FDFD445F01005B2
:107DB800ECE7E90601D46FF000476C280AD04C289C
:107DC80014D0682815D06A280DD074281CD07A28B9
:107DD8001AD01DE062690121019890476C2802D0F1
:107DE80045F0040514E045F002050DE045F02005D6
:107DF8000AE06269012101989047682802D045F09D
:107E0800080505E045F4006562690121019890477D
:107E1800C4E9015765283DD019DC58287AD00CDC14
:107E2800452837D004DC252826D0412831D131E037
:107E380046282FD047282CD12CE05B2877D0612802
:107E480028D063287CD0642823D15AE0D0E06F285A
:107E580048D008DC66281DD067281BD0692821D0A7
:107E68006E2816D127E0702845D0732868D0752869
:107E780047D078280DD14DE0A1690B988847054671
:107E880025283FF469AFE1690B9888476D1C3FF4DA
:107E98006AAFB3E023466A466FF001000B99AFF36F
:107EA80000809EE045F040006060A80723464FF040
:107EB800000236D43EE0E8077FF447AF2068011D92
:107EC80021600068290501D506701BE7290701D53F
:107ED800068017E7A90703D5F117C0E9006111E784
:107EE80006600FE745F040006060A80723464FF0A2
:107EF800080216D41EE040F60E0125EA0100606073
:107F080016E045F040006060A80723464FF00A02DB
:107F180007D40FE045F040006060A80708D5234665
:107F280010226FF001000B99AFF3008059E007E0D1
:107F3800234610226FF001000B99FFF785FA50E0F5
:107F48004FF000094F464B46632802D05B2806D005
:107F580040E0E80601D40120A06001273AE0626908
:107F68000121019890475E2805D14FF00109626907
:107F7800494601989047216939B900210A46534674
:107F880043F82120491C0829FADBB0B3216969B9F3
:107F9800C11700EBD16253110AEB830122F01F02D3
:107FA800821A01200B68904003430B60626901212B
:107FB800019890475D28E8D1B9F1000F09D0002059
:107FC800514651F82020D24341F82020401C08286F
:107FD800F7DB02AB224600976FF001000B99FFF721
:107FE800D9FA00280CDA401C08D1BBF1000F05D0E3
:107FF8004FF0FF300DB0BDE8F08FFFE74046F9E7DE
:10800800E90701D108F1010806444FF0000B79E6B1
:10801800CCCCCC0C7F2801D9002208E0064A02EB20
:108028005002C007127800D1120902F00F02012095
:10803800904008407047000090FB030870B58C180A
:1080480010F8015B15F0070301D110F8013B2A1164
:1080580006D110F8012B03E010F8016B01F8016B51
:108068005B1EF9D12B0705D40023521E0DD401F84D
:10807800013BFAE710F8013BCB1A921C03E013F816
:10808800015B01F8015B521EF9D5A142D8D300204B
:1080980070BD000010B588B04FF6F840C0F6030078
:1080A80090E80E5044690191018B807E02920393FF
:1080B800CDF810C0CDF814E00694ADF81C108DF87A
:1080C8001E0033F00BFA01A831F0C8F908B010BD52
:1080D8002DE9F04186B00FF0E9F90FF0F1F940F61B
:1080E8009000C5F60000016841F4803101600DF090
:1080F80053FD40F2D02240F6000340F20047002131
:10810800C0F60402C4F60003C4F600074FF00008E6
:10811800002500200491CDE90211CDE9001104E009
:10812800A68835430131262914D002EBC104A6796B
:10813800002EF7D052F831609E4207D0BE42EFD0F1
:10814800B6F1904FEED1A6883043EBE7A68848EA0F
:108158000608E7E700214C2702910121C5F6000730
:10816800019103210204039121D084B2009438685C
:10817800694640F001003860386800F00100059059
:108188000598D7F8000140F00100C7F80001D7F8BA
:10819800000100F00100059005984FF090400FF0A5
:1081A8007DFD4FF09040214600220FF047FE40F23F
:1081B80000442804C4F600041FD0ADB20095386806
:1081C800694640F002003860386800F00200059007
:1081D8000598D7F8000140F00200C7F80001D7F869
:1081E800000100F002000590059820460FF056FDAA
:1081F8002046294600220FF021FE5FEA084022D0DF
:108208001FFA88F50095386804F5806440F004008A
:1082180038603868694600F0040005900598D7F87A
:10822800000140F00400C7F80001D7F8000100F091
:1082380004000590059820460FF030FD2046294699
:1082480000220FF0FBFD06B0BDE8F081704700008A
:1082580070470000B0B588B04468B4F80B10A1F5B9
:108268001241072900F2AC81DFE811F00800C200D2
:10827800E400AA01F7000201BE00E20004466846D5
:1082880031F018F99DF800109DF801209DF8023092
:1082980040F62540C0F6040036F06AFF9DF8041049
:1082A80040F6F330C0F6040036F062FF9DF809107E
:1082B800481E8F2800F2008140F64C72C0F6040276
:1082C800DFE810F021019000EB000E011301F0002F
:1082D800FF00FA00FA00FA00FA00FA00FA00FA00C1
:1082E800FA00FA00FA00FA00FA00FA00FA00FA00B6
:1082F800FA00FA00FA00FA00FA00FA00FA00FA00A6
:10830800FA00FA00FA00FA00FA00FA00FA00FA0095
:10831800FA00FA00FA00FA00FA00FA00FA00FA0085
:10832800FA00FA00FA00FA00FA00FA00FA00FA0075
:10833800FA00FA00FA00FA00FA00FA00FA00FA0065
:10834800FA00FA00FA00FA00FA00FA00FA00FA0055
:10835800FA00FA00FA00FA00FA00FA00FA00FA0045
:10836800FA0004011D011801FA00FA00FA00FA00E7
:10837800FA00FA00FA00FA00FA00FA00FA00FA0025
:10838800FA00FA00FA00FA00FA00FA00FA00FA0015
:10839800FA00FA00FA00FA00FA00FA00FA00FA0005
:1083A800FA00E100F500FA00FA00FA00FA00FA0013
:1083B800FA00E600DC00FA00FA00FA00FA00FA0017
:1083C800FA00FA00FA00FA00FA00FA00FA00FA00D5
:1083D800FA00FA00FA00FA00FA00FA00FA00FA00C5
:1083E800FA0009019CA28EE0D4F80D1082A03AE0B0
:1083F80040F6D941C0F604010446084636F0B8FEF6
:10840800646840F66B50617BC0F6040036F0B0FE3D
:10841800607B002807BF40F65960C0F6040040F6AC
:108428002260C0F6040008B0BDE8B04037F09ABB3F
:1084380068A01EE040F6BA50C0F6040037F092FB80
:10844800D4F80D10D4F8112040F64940C0F60400C5
:1084580008B0BDE8B04036F08BBED4F80D1040F639
:108468006F40C0F6040008B0BDE8B04036F080BEEA
:1084780070A008B0BDE8B04036F07ABE40F6AA62F7
:10848800C0F604023FE040F60A72C0F604023AE081
:1084980040F69362C0F6040235E040F66072C0F61A
:1084A800040230E040F67A72C0F604022BE040F68F
:1084B8002072C0F6040226E041F63D22C0F604020E
:1084C80021E040F66A72C0F604021CE040F63672FB
:1084D800C0F6040217E040F6FB62C0F6040212E0A0
:1084E80040F65572C0F604020DE040F6F162C0F69F
:1084F800040208E040F6D862C0F6040203E040F641
:10850800C162C0F6040240F6D230C0F6040036F06C
:108518002FFE9DF80A109DF80B209DF80C3040F6B0
:108528000F40C0F6040036F023FE40F69B50C0F61C
:10853800040036F01DFE002560680795407B06950F
:1085480001280595049534D0E0BB40F60860C0F6D4
:10855800040037F007FBFFF79DFD0F208DF8100092
:108568007F2042F200058DF81200CEF2040528683B
:10857800040C40F64A50C0F60400214636F0F8FDD7
:10858800ADF81C402C6840F62B506FF31F34C0F632
:108598000400214636F0ECFD04A8ADF81E4030F08A
:1085A8004FFF00F031F90120002134F009FB08B039
:1085B800B0BD40F6FA40C0F6040036F0D9FD25708B
:1085C80008B0B0BD40F6A740C0F6040036F0D0FDB4
:1085D80008B0B0BD3E3E3D3D20534843495F53552A
:1085E800425F4556545F4E564D5F454E445F455277
:1085F8004153450A0D0000003D3D3E3E5348434966
:108608005F5355425F4556545F4E564D5F53544134
:1086180052545F4552415345203A204E756D62656C
:10862800724F66536563746F7273203D2025750A17
:10863800000000003E3E3D3D20534843495F5355EE
:10864800425F4556545F4E564D5F454E445F575204
:108658004954450A0D000000424C455F4843490013
:1086680080B54AF27870C2F2000010F077F9BDE8E0
:1086780080402DF003BE000040F2F020C2F200005E
:1086880090F88000704700002DE9F04116460D462D
:1086980004460FF0D9FB40F25401C2F200010A88E7
:1086A80040F64813A242C2F200030DD11A68821A9A
:1086B800632A09D841F2DC30C0F60400214632466C
:1086C800BDE8F04136F054BD40F2F028C2F200088F
:1086D800B8F816200C80002A186018BF944203D0FE
:1086E8002DA0214636F044FD0020A8F8160088F891
:1086F800800041F21A40C0F60400314636F038FDD9
:1087080041F69200C0F6040021462A4636F030FDB4
:108718000FF09AFB014641F25850C0F6040036F0BB
:1087280027FD13F0DDFB05460EF076FD06462EF01C
:108738002FF898F88030074641F2B950C0F6040087
:108748002946324636F014FD0FB120A017E001206B
:1087580000F0BEFB98F88000012808D041F6EB40F5
:10876800C0F6040037F0FEF9012000F0B1FB98F8DC
:108778008000012805D041F6C850C0F6040037F043
:10878800F1F940F24060C2F200000121017044801A
:10879800BDE8F0412FF0D2B93E3E3D3D204469731B
:1087A800636F6E6E6563742068616E646C65206DBE
:1087B80069736D617463683A206576743D30782515
:1087C80078206374783D307825780A003D3D3E3E38
:1087D80020536B6970206C656761637920616476EA
:1087E8006572746973696E672072657374617274F7
:1087F8003A204D657368206F776E732061647665E3
:1088080072746973696E67002DE9F04399B046F296
:108818002430C2F200000921017040F2D85100242E
:10882800C2F200010A5D1AB10134082CFAD10824F9
:1088380040F2D8510130C2F200012246FEF7AFFDE6
:1088480040F2A001601CC2F2000108700EF0D0FCDA
:10885800FF2821D004460FF22050214636F088FC2C
:10886800A52C13D10DF086F802F09AFF41F6965226
:108878000FF25451C0F60402012888BF1146084679
:1088880037F070F900200DF087F805E00FF210506E
:1088980037F068F90DF06EF80EF0BEFC044613F0E0
:1088A80015FB40F29409C5F60009D9F80060804626
:1088B80030462DF009FD0DF027FDC6F30070C6F314
:1088C8004071C6F380758DE8230041F26E50C6F3FF
:1088D8008062C6F3C063F70FC0F604003146039701
:1088E80036F046FCD9F8000041F62C2140F400008F
:1088F800C9F8000041F6ED10C0F60400C0F6040106
:10890800012C08BF014641F27940C0F60400224616
:10891800434636F02DFC2DF067FC04462DF05EFD35
:1089280005462DF035FF034641F24D40C0F60400E0
:1089380021462A4636F01CFC4FF61450C0F60300B8
:1089480090E88E00D0E904650DF1140ED0E906C454
:108958008EE88E00CDE9096500F12007D0E90C65A5
:10896800008F8ECFADF84C0040F22800C2F2030011
:1089780014904DF6F910C0F600000DF1340E159064
:108988004DF61D208EE88E00C0F6000014A9CDE932
:108998000BC41196129535F083FD0220012134F0A5
:1089A8000FF94EF61912C0F603020220002134F026
:1089B8003DF905A830F036FD48B1014641F6CC0036
:1089C800C0F6040036F0D4FB0DF0C8FB05E041F218
:1089D800B970C0F6040036F0CBFB0020CDE91400D6
:1089E800ADF84E000EF0F6FB14900EF0F3FB41F6D6
:1089F8006C50C0F60400159137F0B4F835F0EEFE6F
:108A080038B1014641F21920C0F6040036F0B0FB37
:108A180005E041F6CD30C0F6040037F0A3F8BDF804
:108A2800540040F2A10400BA1499C2F20004000CE8
:108A3800208108BAC4F80A0014AA2E20062135F0AD
:108A48005FFA38B1014641F27A10C0F6040036F0F8
:108A58008FFB19E041F6CF20C0F6040037F082F80A
:108A6800DDE91470C0F30721C2B2C7F30740C7F3AA
:108A78000726CDE9000641F236603B0EFFB2C0F68C
:108A88000400029736F074FB40F21042C0F604026C
:108A98001820102135F034FA38B1014641F225107A
:108AA800C0F6040036F064FB05E041F68A20C0F603
:108AB800040037F057F840F20042C0F604020820DC
:108AC800102135F01DFA38B1014641F2D000C0F648
:108AD800040036F04DFB05E041F64520C0F60400E1
:108AE80037F040F801201F2135F0E2F938B101468E
:108AF80041F2DB10C0F6040036F03AFB05E041F61F
:108B08009F30C0F6040037F02DF835F0D1F838B1B1
:108B1800014641F27620C0F6040036F029FB05E054
:108B280041F60A40C0F6040037F01CF80DF15E0764
:108B380018AE0DF16203052000210722CDE9006778
:108B480034F050FD38B1014641F24620C0F6040029
:108B580036F00EFB05E041F6EA30C0F6040037F0C7
:108B680001F8BDF86200BDF8601041F6E517C0F6DF
:108B7800040700220723009735F0C2F8BDF8620009
:108B8800BDF85E100DF14E0700220223009735F064
:108B9800B7F800200221022235F04CFD38B1014619
:108BA80041F23030C0F6040036F0E2FA05E041F652
:108BB8009440C0F6040036F0D5FF40F2F025C2F22A
:108BC80000050120287034F0E1FD38B1014641F27A
:108BD8006A30C0F6040036F0CBFA05E041F6BE4034
:108BE800C0F6040036F0BEFF40F20110C0F60000E7
:108BF8004BF20721C5F801001020C0F20101002244
:108C080008236871A9600127CDE90030CDE9022168
:108C18000120012101220023049734F02BFD38B1F3
:108C2800014641F2A720C0F6040036F0A1FA05E09B
:108C380041F62B40C0F6040036F094FFA87880B1C6
:108C480034F0B0FC38B1014641F2F120C0F604001E
:108C580036F08EFA05E041F66540C0F6040036F0BD
:108C680081FF41F2FD70C0F6040036F081FA41F64A
:108C78002030C0F6040036F075FF31F0BDF9002051
:108C880085F880004FF6FF7048F60962E882C0F662
:108C980000020120002133F0C9FF2020A071062026
:108CA80035F0E0F838B1014641F24070C0F60400F2
:108CB80036F05EFA05E041F28470C0F6040036F042
:108CC80057FA0CF07FFE0020002603F03FFD2EF03F
:108CD800FDFE4DF6C972C0F603024FF48040002134
:108CE80033F0A4FF4DF6CD74C0F603044FF40040F2
:108CF8000021224633F09AFF05F18301002000226B
:108D0800234612F077FC48F6D16305F18101C0F6DD
:108D180000030020002212F06DFC4BF2212305F124
:108D28008201C0F603030020002212F063FC40F227
:108D38009210C2F200000121017040F29010C2F2BC
:108D480000002E8301702DF023FD20B141F6633021
:108D5800C0F604000AE0012000F0BAF895F8800097
:108D6800012805D041F61E50C0F6040036F0FAFE80
:108D780019B0BDE8F08300BF3D3D3E3E204E46435E
:108D880020626F6F74206F70636F64652064657410
:108D980065637465643A203078253032780A0000BB
:108DA8003D3D3E3E204E464320626F6F74206F70FB
:108DB800636F646520756E6B6E6F776E2C20636CC5
:108DC800656172696E6700003D3D3E3E204E464338
:108DD80020626F6F74207265736375653A206D65E4
:108DE80073682070726F766973696F6E696E672039
:108DF80073746F72616765206572617365640000E2
:108E080010B540F2F024C2F2000494F8800005285E
:108E18000CD034F0DFFC002184F8801011A10AA2E4
:108E2800002808BF1146084636F0A2F92DF0B0FC1C
:108E380020B115A0BDE8104036F094BE0220BDE870
:108E4800104000F045B800BF2A2A2053544F502044
:108E58004144564552544953494E47202A2A202016
:108E68000D0A0D002A2A2053544F502041445645DC
:108E780052544953494E47202A2A20204661696C9A
:108E88006564200D0A0D00003D3D3E3E20536B6990
:108E980070206C6F772D706F7765722061647665CE
:108EA80072746973696E6720726573746172743A5B
:108EB800204D657368206F776E73206164766572E4
:108EC800746973696E6700000120042133F0C2BF22
:108ED8002DE9F04188B040F29211C2F20001044637
:108EE80040F290100D78C2F200000678002D40F292
:108EF800F02818BF8025002EC2F2000818BFA0264F
:108F0800012C18BF4FF4C86598F8810018BF4FF4BA
:108F18007A6612F0A5FD022C15D198F88000013868
:108F2800012810D834F056FC38B1014641F28500CA
:108F3800C0F6040036F01CF905E041F67F10C0F6D3
:108F4800040036F00FFE40F2A000C2F200000078E4
:108F580098F8181046F22433002708F11902C2F2D3
:108F68000003CDE90070CDE90231CDE904270020E6
:108F7800294632460123069734F0B8FBC0B10546AE
:108F8800122801D00C2D2DD12DF002FC58B141F240
:108F98000650C0F60400294636F0EAF888F8804002
:108FA80008B0BDE8F08141F2B340C0F604001DE00E
:108FB8001FA088F8804036F0D5FD40F2A101C2F22A
:108FC80000010E2034F0A8FCC8B10146012C12BFE4
:108FD80021A041F2BE60C0F6040008B0BDE8F0412F
:108FE80036F0C6B841F2A730C0F60400294636F07C
:108FF800BFF8002088F8800008B0BDE8F081012C97
:109008000DD123A036F0B4F898F881004EF246014D
:10901800C0F2010108B0BDE8F04112F041BC41F2D4
:109028001370C0F6040008B0BDE8F04136F0A0B8EF
:109038003D3D3E3E206163695F6761705F736574A3
:109048005F646973636F76657261626C65202D2059
:1090580053756363657373003D3D3E3E20537461F1
:109068007274204C6F7720506F7765722041647658
:109078006572746973696E67204661696C656420FE
:109088002C20726573756C743A202564200A0D00D3
:109098003D3D3E3E20537563636573733A205374B8
:1090A80061727420466173742041647665727469D4
:1090B80073696E67200A0D0010B503F035FE04468B
:1090C800062817D940F2FC1041F20001C2F2000054
:1090D800C1F2020141F2060241F20033C1F2070275
:1090E800C1F2013380E80E004FF6FF718181072C31
:1090F8000DD228E003F018FE024643F6C440C0F63D
:1091080004000721022336F033F8072C1BD303F0A1
:109118000BFE044606280CD940F254203021C2F236
:109128000000C0F201014FF6FF72C0E900120020F2
:1091380006E043F68150C0F6040036F019F8012025
:10914800062C88BF10BD43F63C50C0F6040036F02C
:109158000FF8022010BD000010B546F25434C2F2D8
:109168000004207820B103F05BFE0020207010BDC1
:10917800002004F00DFF0EF067FE0446002004F006
:1091880007FF0028FAD00EF05FFE001BB0F57A7FCB
:1091980008D94AF6C0404F21C2F20000C0F2AD0122
:1091A800016010BD152838BF10BDBDE8104003F0A0
:1091B80037BE000041F6685040F60A21C2F20000AE
:1091C800C2F2000141F6625200780978C2F2000248
:1091D80012780843104300F00100704702207047DE
:1091E800002200200A8070477047000080B50020E8
:1091F80004F0BEFE002080BD40F2C240C2F2000072
:109208000078704741F66150C2F2000001210170F8
:1092180041F66950C2F200000022027041F66E5217
:10922800C2F200020120117004F092BE80B541F62E
:109238006150C2F200000021017041F66E50C2F286
:1092480000000170012004F073FE12F049FE10B115
:1092580003F0CAFD10B303F0C7FDF0B941F6625040
:10926800C2F200000078002808BF80BD40F60A203E
:109278004AF69D41C2F200000122C2F200010978BB
:10928800027042F27130C0F6040035F071FF4020E0
:109298000021BDE8804033F0DDBD80BD41F6685057
:1092A800C2F2000001780029F1D141F66251C2F200
:1092B800000101220978027000A0E6E750726F767B
:1092C8006973696F6E696E672073657373696F6E12
:1092D80020636F6D706C65746564202864697363BE
:1092E8006F6E6E6563742C20636F6E6669675F735B
:1092F80065656E3D2575290D0A0000000020704740
:1093080070470000B0B540F25A04C2F20004257854
:1093180003F07CFC854209D942F27F40C0F6040084
:1093280036F020FCBDE8B04003F070BC207800287F
:1093380018BFB0BD02A036F015FC0120B0BD00BFBB
:109348004E756D626572204F6620456C656D656E61
:109358007473206D7573742062652031206F7220DC
:1093680067726561746572207468616E2031210DC1
:109378000000000001463020C0F2020008604FF4EF
:10938800857200208A80704780B501201F2134F043
:109398008FFD002818BF0120400080BD01464EF611
:1093A8007D40888041F6F850CAF64F60086045F263
:1093B8004B30C5F2A140C1F8060046F23C30C2F27B
:1093C8000000828803680020CA81C1F80A3070470B
:1093D80000207047014601A035F0CABE556E707274
:1093E8006F766973696F6E6564204E6F6465204996
:1093F80064656E746966696572207265636569760D
:1094080065643A20253032780A0D0000B0B546F27E
:109418003C35C2F20005E91D00202A4634F0E2FC82
:1094280018B1014618A035F0A3FE0DF0D3FE020ACC
:1094380028704FEA112C6A70020C000E2971691EFF
:10944800AA70E870EF2006220B4685F805C000BF19
:1094580013F8014F013A04EB4000F9D10322EA71F5
:10946800EF230622A87100BF11F8014F013A04EB5F
:109478004303F9D1C0B2D9B2081AB0FA80F0400952
:109488004CF0C0016971B0BD4661696C65642074B7
:109498006F2072656164205075626C696320416455
:1094A80064726573732025640000000080B54DF276
:1094B8004932C0F601020420002133F0B7FB042032
:1094C800002133F0C7FC4BF60D12C0F60002402015
:1094D800002133F0ABFB40200021BDE8804033F091
:1094E800B9BC000080B543F65020C0F6040036F041
:1094F80039FB43F6AD00C0F6040036F033FB43F603
:109508003910C0F6040036F02DFB43F64B10C0F6B8
:10951800040036F027FB43F62610C0F6040036F0A8
:1095280021FB43F6F200C0F6040036F01BFB43F6BD
:109538001310C0F6040036F015FB43F6FF00C0F622
:10954800040036F00FFB43F6C400C0F6040036F002
:1095580009FB03F043FB014643F2BD70C0F604006B
:1095680035F006FE03F02CFB014643F2AC70C0F662
:10957800040035F0FDFD03F049FB014643F242705B
:10958800C0F6040035F0F4FD03F0CEFB014643F2CB
:10959800CE70C0F6040035F0EBFD03F0ADFB0146DC
:1095A80043F25C70C0F6040035F0E2FD03F0A6FB60
:1095B800014643F22E70C0F6040035F0D9FD03F0E1
:1095C8000FFB014643F2E970C0F6040035F0D0FD08
:1095D80003F07CFB014643F61000C0F6040035F0AA
:1095E800C7FD43F6DE00C0F6040036F0BBFA43F2CE
:1095F8007B70C0F604000021012235F0B9FD43F666
:10960800ED10C0F6040036F0ADFA43F65D10C0F672
:10961800040036F0A7FA43F69310C0F6040036F0BB
:10962800A1FA43F67510C0F6040036F09BFA43F62B
:10963800AA10C0F6040036F095FA43F6FD10C0F6FD
:10964800040036F08FFA43F6CE10C0F6040036F068
:1096580089FA07A036F086FA0CA0012135F088FDBA
:1096680017A036F07FFA1EA0BDE8804036F07ABA1F
:109678000A5B496D706F7274616E7420496E666F13
:10968800726D6174696F6E5D200D00004E756D62BC
:109698006572206F6620456C656D656E7473206514
:1096A8006E61626C656420696E204170706C6963DC
:1096B8006174696F6E3A202564200D0A000000006D
:1096C8004E65696768626F7572205461626C6520C7
:1096D800697320656E61626C6564200D000000008E
:1096E8002A2A2A2A2A2A2A2A2A2A2A2A2A2A2A2AD2
:1096F8002A2A2A2A0D0A0D0080B54AF6D840C2F255
:109708000000006804212FF053F840B1014642F2EE
:109718002C30C0F60400BDE8804035F029BD42F287
:10972800CD40C0F60400BDE8804036F01BBA00000A
:1097380000207047B0B542F62E45C0F6040528460D
:1097480000211C4632F0BAFB42F6CC30C0F60400C9
:10975800214635F00DFD2846002132F0AFFB02A06E
:1097680036F000FA0020B0BD2338323130210D0028
:10977800B0B5B0F9000040F2941203EB4301C2F215
:109788000002322822F8210040F2AC101C46C2F236
:1097980000000CDB47F6F6410180016842688368E7
:1097A800042013F045FA002004F0D2FB08E0016819
:1097B80042688368022013F03BFA002004F0B8FBEB
:1097C80042F6DD15C0F604052846002132F076FB86
:1097D80006A0214635F0CCFC2846002132F06EFB6D
:1097E80011A036F0BFF90020B0BD00BF47656E6517
:1097F8007269635F4C6576656C44656C74615F5330
:1098080065742063616C6C6261636B20726563656B
:109818006976656420666F7220656C656D656E7427
:10982800202564200D0A00002338323039210D002C
:10983800014640F29310C2F20000825C00200A70D8
:1098480070470000014602EB420040F29412C2F257
:10985800000212F8203002EB80000B7042784A7048
:1098680082788A70C2780020CA707047014602EB7D
:10987800820040F2A012C2F20002125C00200A70BC
:109888007047000002EB820140F2A012C2F200020F
:109898000A4453780146037090784870D0788870ED
:1098A80012790020CA707047014640F2A610C2F231
:1098B800000010F8122000200A707047B0B5B0F907
:1098C80000101C4603EB430240F2941340F2A81C1C
:1098D800C2F2000321EAE170C2F2000C23F8220070
:1098E80040F64212BCF80030C2F2000210809842E2
:1098F8004FF0000347F6F54298BF012391424FF01D
:109908000002C8BF012200251A430029C8BF01254B
:1099180005EA020140F64012C2F20002117047F651
:10992800FF710022ACF800002FF0ECFB40F2AC1302
:10993800C2F20003188019685A689B68042013F063
:1099480077F942F64125C0F604052846002132F091
:10995800B5FA42F69C10C0F60400214635F008FC22
:109968002846002132F0AAFA04A0214635F000FC6E
:10997800022021462EF082F80020B0BD2338323074
:109988003621666F7220656C656D656E74496E640C
:109998006578202564200D0A00000000002070472B
:1099A800B0B540F2941C1C4601684268806803EB1D
:1099B8004303C2F2000C0CEB8305A8606A6042F610
:1099C800F515C0F604054CF823102846002132F09E
:1099D80075FA06A0214635F0CBFB2846002132F067
:1099E8006DFA11A036F0BEF80020B0BD47656E656F
:1099F8007269635F4C6576656C4D6F76655F53651C
:109A0800742063616C6C6261636B20726563656965
:109A180076656420666F7220656C656D656E74206E
:109A28002564200D0A000000233832304221200D21
:109A38000000000070B51C46002B47D1027840F2A8
:109A4800A016B0F8013001F0FE05C2F20006022DA2
:109A58003270A6F8013015D140F2AC15C2F20005FB
:109A68002B8029686A68AB680546042013F0E0F883
:109A7800B5F80310B6F80100A6F80310884225D1FE
:109A880008BB0FE0012908BF012A0FD040F2AC1033
:109A9800C2F2000001210180016842688368022047
:109AA80013F0C6F8002004F043FA0FE040F2AC10BF
:109AB800C2F2000047F6F6410180016842688368F7
:109AC800042013F0B5F8002004F042FA42F60C2501
:109AD800C0F604052846002132F0F0F942F61510C8
:109AE800C0F60400214635F043FB2846002132F039
:109AF800E5F905A0214635F03BFB012021462DF074
:109B0800BDFF002070BD00BF233832303221666FA0
:109B18007220656C656D656E74496E646578202584
:109B280064200D0A000000002DE9F04F81B042F6D4
:109B38005947C0F604070C468046384600211E46A1
:109B480032F0BCF91CA0314635F012FB3846002132
:109B580032F0B4F927A036F005F844B342F6594676
:109B680008F1020B08F1010A0025C0F604060EE010
:109B7800D94629A73046002132F0A0F999F80010FB
:109B8800384635F0F5FA0135E8B284420FD9E8B223
:109B980050B10228ECD00128F5D142F61547D1463C
:109BA800C0F60407E6E700BFC14614A7E2E70020B5
:109BB80001B0BDE8F08F00BF47656E657269635FED
:109BC8004F6E4F66665F5374617475732063616C82
:109BD8006C6261636B207265636569766564206693
:109BE8006F7220656C656D656E74202564200D0AA2
:109BF800000000002338323034210D0050726573A4
:109C0800656E74204F6E4F66662076616C75653A96
:109C18002025640A0D00000052656D61696E696E49
:109C2800672054696D652076616C75653A202564F6
:109C38000A0D000070B5007840F2A61642F62425F9
:109C4800C2F20006C0F6040526F8130028460021D3
:109C58001C4632F033F90EA0214635F089FA284621
:109C6800002132F02BF942F65610C0F604002146C6
:109C780035F07EFA36F81400012805D145F27C202B
:109C8800C2F2000001210170FFF7AEFA002070BD9A
:109C980023383231332120666F7220656C656D651B
:109CA8006E74496E646578202564200D0A000000F2
:109CB8002DE9F04142F67447C0F604070C46054604
:109CC800384600211E4632F0F9F812A0314635F028
:109CD8004FFA3846002132F0F1F81EA035F042FF65
:109CE800ACB142F674480026C0F604081BA703E08E
:109CF8000136F0B284420AD93006F9D14046002133
:109D080032F0DCF82978384635F032FAF0E70020EE
:109D1800BDE8F08147656E657269635F506F77656E
:109D2800724F6E4F66665F5374617475732063611A
:109D38006C6C6261636B207265636569766564202B
:109D4800666F7220656C656D656E74202564200DE4
:109D58000A0000002338323132210D004F6E2050A6
:109D68006F7765722075702076616C75653A20256D
:109D7800640A0D0070B501884288044618A035F0C1
:109D8800F7F9617B43F20E10C0F6040035F0F0F9E4
:109D9800607B002808BF01F01FFD607B002818BF0A
:109DA80070BD1FA035F0E4F9207B88B143F21C6533
:109DB8000026C0F6040500BFA0680178284635F0E3
:109DC800D7F9A068217B013601308E42A060F3D319
:109DD80043F61320C0F60400BDE8704035F0C2BE5B
:109DE8004170704B657920416464207265636569D0
:109DF80076656420666F72206E65744B6579496E6E
:109E080064657820252E32782C206170704B657936
:109E1800496E64657820252E3278200D0A000000EE
:109E28004170704B65792069733A200010B582B093
:109E38000446007A002808BF01F0CEFC2178626849
:109E48006388247A43F28140C0F60400009435F018
:109E58008FF902B010BD000010B504460188428891
:109E680043F29350C0F6040035F082F9617B43F267
:109E78000E10C0F6040035F07BF9607B002818BF8F
:109E880010BDBDE8104001F0A7BC000070B5018806
:109E9800044619A035F06CF9A17A43F20E10C0F609
:109EA800040035F065F9A07A002808BF01F094FC99
:109EB800A07A002818BF70BD19A035F053FE20897C
:109EC80088B143F21C650026C0F604056068018865
:109ED800284635F04DF9606801362189F2B2023022
:109EE80091426060F2D843F61320C0F60400BDE842
:109EF800704035F037BE00BF417070204B65792047
:109F08004C69737420666F72206E65744B6579496D
:109F18006E64657820252E3278206973200D0A003A
:109F28004170704B657920496E646578657320616E
:109F380072653A200D00000010B582B00446007A20
:109F4800002808BF01F048FC217862686388247AF9
:109F580043F2E840C0F60400009435F009F902B075
:109F680010BD000070B504460188428843F2515084
:109F7800C0F6040035F0FCF8617B43F20E10C0F621
:109F8800040035F0F5F8607B002808BF01F024FCD8
:109F9800607B002818BF70BD10A035F0E9F8207B61
:109FA80080B143F21C650026C0F60405A06801785C
:109FB800284635F0DDF8A068217B013601308E4255
:109FC800A060F3D343F61320C0F6040035F0CAFDB1
:109FD80007A0BDE8704035F0C5BD00BF557064618D
:109FE800746564204170704B65792069733A20006C
:109FF80049742077696C6C206265207265706C61A9
:10A00800636564206279206F6C64206170704B65B1
:10A0180079206166746572204B6579205265667295
:10A02800657368200D00000070B50188044618A00B
:10A0380035F09EF8617B43F20E10C0F6040035F04F
:10A0480097F8607B002808BF01F0C6FB607B0028FA
:10A0580018BF70BD1AA035F08BF8207B80B143F291
:10A068001C650026C0F6040560680178284635F0AE
:10A078007FF86068217B013601308E426060F3D33F
:10A0880043F61320C0F60400BDE8704035F06ABD01
:10A098004E6574204B657920416464207265636560
:10A0A8006976656420666F72206E65744B657949C0
:10A0B8006E64657820252E3278200D0A0000000095
:10A0C8004E65744B65792069733A200010B5018894
:10A0D800044609A035F04CF8617B43F20E10C0F637
:10A0E800040035F045F8607B002818BF10BDBDE8B6
:10A0F800104001F071BB00BF4E6574204B6579209C
:10A1080044656C657465207265636569766564206D
:10A11800666F72206E65744B6579496E6465782048
:10A128002564200D0A00000070B50446817943F2C9
:10A138000E10C0F6040035F01BF8A079002808BFFF
:10A1480001F04AFB0FA035F00DFDA08888B143F25D
:10A158001C650026C0F6040520680188284635F0ED
:10A1680007F820680136A188F2B2023091422060D7
:10A17800F2D843F61320C0F60400BDE8704035F06D
:10A18800F1BC00BF4E65744B657920496E646578F3
:10A198006573206172653A200D00000070B5018872
:10A1A80004461AA034F0E4FF617B43F20E10C0F6B7
:10A1B800040034F0DDFF607B002808BF01F00CFBD1
:10A1C800607B002818BF70BD1CA034F0D1FF207B35
:10A1D80080B143F21C650026C0F60405606801786A
:10A1E800284634F0C5FF6068217B013601308E4275
:10A1F8006060F3D343F61320C0F6040035F0B2FCD8
:10A2080013A0BDE8704035F0ADBC00BF4E657420AA
:10A218004B65792055706461746520726563656962
:10A2280076656420666F72206E65744B6579496E39
:10A23800646578202564200D0A000000557064616B
:10A24800746564204E65744B65792069733A000023
:10A2580049742077696C6C206265207265706C6146
:10A26800636564206279206F6C64206E65744B6549
:10A2780079206166746572204B6579205265667233
:10A28800657368200D000000B0B586B00446417CB7
:10A2980043F20E10C0F6040034F06AFF607C002818
:10A2A80008BF01F099FA6089217B2278636894F8E5
:10A2B8000EC094F80FE0257C647B8DE8015043F2D2
:10A2C8002210C0F604000395049434F051FF06B040
:10A2D800B0BD000010B504464168027843F23D4025
:10A2E800C0F6040034F044FF6168B1F5885F18BF18
:10A2F80010BD2046BDE8104030F02AB810B504461D
:10A30800817A43F20E10C0F6040034F031FFA07ACF
:10A31800002808BF01F060FA94F80BC043F223202C
:10A3280021786268238943F27D24C0F60400C0F6D0
:10A338000404BCF1000F08BF2046BDE8104034F00B
:10A3480017BF000010B50446817A43F20E10C0F61C
:10A35800040034F00DFFA07A002808BF01F03CFA91
:10A36800E07A50B121786268238943F2CF20C0F6A1
:10A378000400BDE8104034F0FBBE207B2178626801
:10A3880038B143F2D550C0F60400BDE8104034F0AF
:10A39800EFBE238943F23030C0F60400BDE8104018
:10A3A80034F0E6BE10B50446817A43F20E10C0F6CA
:10A3B800040034F0DDFEA07A002808BF01F00CFA92
:10A3C80094F80BC043F2853021786268238943F200
:10A3D800E534C0F60400C0F60404BCF1000F08BF61
:10A3E8002046BDE8104034F0C3BE000045F60471B5
:10A3F800C2F200010A6802700A68120A42704A88AA
:10A408008270CA78C27000200860704710B54CF698
:10A418009162C0F603020820002132F007FC47F2DF
:10A42800B814C2F200044CF69963C0F60303002086
:10A438002146002211F0DEF820784CF25821C0F2B3
:10A44800120111F02DFA30F057FC49F26112C0F6F2
:10A45800000280200021BDE8104032F0E7BB000078
:10A46800B0B540F2AA14C2F2000401202070002006
:10A47800002503F06DFD4FF4FA700DF0E9F90020A6
:10A48800257003F055FD4FF4FA700DF0E1F9002046
:10A49800B0BD000040F2AA10C2F20000007810B16E
:10A4A800002003F055BD002003F042BD0020704796
:10A4B8002DE9F04F81B043F2CE07C0F604070C46F1
:10A4C8000546384600211E4631F0F8FC24A03146E6
:10A4D80034F04EFE3846002131F0F0FC2FA035F064
:10A4E80041FB002C38D043F2CE0B42F61E780027F1
:10A4F800C0F6040BC0F604080FF2C0090FF2A40A54
:10A50800002605E00A4634F033FE0136B44223D073
:10A51800052EFAD8DFE806F00C030C170C0E584687
:10A52800002131F0CBFC687847EA00214046E9E792
:10A53800AF5DEAE75846002131F0C0FC687947EA88
:10A5480000215046DEE75846002131F0B7FCE87894
:10A5580047EA00214846D5E7002001B0BDE8F08F62
:10A568004C696768745F43746C5F44656661756CB9
:10A57800745374617475732063616C6C6261636B8E
:10A5880020726563656976656420666F7220656C04
:10A59800656D656E74202564200D0A0023383236F7
:10A5A80038210D0044656C74612055563A20307886
:10A5B800257820282564290A0D00000054656D704F
:10A5C800657261747572653A20307825782028257F
:10A5D80064290A0D00000000002070472DE9F04FA3
:10A5E80081B042F65877C0F604070C46054638464F
:10A5F80000211E4631F062FC42F69440C0F6040089
:10A60800314634F0B5FD3846002131F057FC23A01F
:10A6180035F0A8FA002C3DD042F6587B42F6C25AD3
:10A6280042F6B76842F640690027C0F6040BC0F648
:10A63800040AC0F60408C0F60409002604E000BFB6
:10A64800AF5D0136B44225D086B126F0020001285C
:10A65800F6D0042E11D0022EF3D15846002131F045
:10A668002DFCA87847EA002148460FE0584600210B
:10A6780031F024FC2978504608E05846002131F092
:10A688001DFC287947EA0021404600BF0A4634F0FD
:10A698006FFDD6E7002001B0BDE8F08F23383236D1
:10A6A80033210D00002070472DE9F04F81B042F6AC
:10A6B800BF77C0F604070C460546384600211E46FB
:10A6C80031F0FCFB34A0314634F052FD384600210D
:10A6D80031F0F4FB40A035F045FA002C57D042F693
:10A6E800BF7642F6F75A42F6DB574FF00008C0F63D
:10A6F8000406C0F6040A0FF2E80BC0F604074FF090
:10A70800000906E00A4634F033FD09F101094C4519
:10A718003DD0B9F1080FF8D8DFE809F00E2D0E1179
:10A728000E1D0E0526003046002131F0C7FBE879E2
:10A7380048EA00215846E5E715F80980E5E730467C
:10A74800002131F0BBFBE87848EA002142F6A0502E
:10A75800C0F60400D6E73046002131F0AFFB687937
:10A7680048EA00215046CDE73046002131F0A6FBEB
:10A77800297A3846C6E73046002131F09FFB6878D1
:10A7880048EA002142F61B60C0F60400BAE7002040
:10A7980001B0BDE8F08F00BF4C696768745F43740F
:10A7A8006C54656D70657261747572655F53746120
:10A7B8007475732063616C6C6261636B207265638E
:10A7C800656976656420666F7220656C656D656E77
:10A7D80074202564200D0A002338323636210D00F6
:10A7E8005461726765742043544C2044656C7461ED
:10A7F8002055563A203078257820282564290D0AD6
:10A8080000000000002070472DE9F04F81B043F2AE
:10A818001207C0F604070C460546384600211E46B6
:10A8280031F04CFB33A0314634F0A2FC384600210D
:10A8380031F044FB3DA035F095F9002C55D043F29A
:10A84800120642F6F75B4FF00008C0F604060FF256
:10A85800001AC0F6040B37A74FF0000907E000BF45
:10A868000A4634F085FC09F101094C453DD0B9F19F
:10A87800080FF8D8DFE809F00E2D0E110E1D0E0591
:10A8880026003046002131F019FBE87948EA00211A
:10A898005846E5E715F80980E5E73046002131F02C
:10A8A8000DFBE87848EA002142F61B60C0F6040078
:10A8B800D6E73046002131F001FB687948EA0021EB
:10A8C8005046CDE73046002131F0F8FA297A38466B
:10A8D800C6E73046002131F0F1FA687848EA0021ED
:10A8E80042F65760C0F60400BAE7002001B0BDE8A0
:10A8F800F08F00BF4C696768745F43746C5F537472
:10A90800617475732063616C6C6261636B2072653E
:10A9180063656976656420666F7220656C656D6530
:10A928006E74202564200D0A00000000233832369A
:10A9380030210D0052656D61696E696E672054693A
:10A948006D653A3078257820282564290D0A00009D
:10A958005461726765742043544C204C696768746D
:10A968006E6573733A203078257820282564290D80
:10A978000A00000000207047002070470020704740
:10A988000020704700207047002070470020704763
:10A998000020704700207047002070470020704753
:10A9A8000020704740F21001C2F200010B2312FB95
:10A9B8000312137901460370527900204A707047D8
:10A9C80040F21001C2F200010B2312FB031293782C
:10A9D80001460370D27800204A707047014640F261
:10A9E8005C20C2F2000010F8123000EB42000B703D
:10A9F80040780B23487040F21000C2F2000012FBAE
:10AA0800030082788A70C2780020CA7070470000FC
:10AA180040F21001C2F200010B2312FB03129379DA
:10AA280001460370D0794870107A8870507AC870DF
:10AA3800927A00200A71704740F2100C0B230146ED
:10AA4800C2F2000C02FB03F01CF8000012FB03C268
:10AA580008705078487090788870D2780020CA7052
:10AA680070470000002070472DE9F04F81B043F295
:10AA7800B007C0F604070C460546384600211E46B6
:10AA880031F01CFA24A0314634F072FB384600211C
:10AA980031F014FA2FA035F065F8002C38D043F2C5
:10AAA800B00B42F61E780027C0F6040BC0F6040867
:10AAB8000FF2C0090FF2A40A002605E00A4634F096
:10AAC80057FB0136B44223D0052EFAD8DFE806F04A
:10AAD8000C030C170C0E5846002131F0EFF968787A
:10AAE80047EA00214046E9E7AF5DEAE7584600211A
:10AAF80031F0E4F9687947EA00215046DEE7584624
:10AB0800002131F0DBF9E87847EA00214846D5E72B
:10AB1800002001B0BDE8F08F4C696768745F487326
:10AB28006C44656661756C745F53746174757320E9
:10AB380063616C6C6261636B2072656365697665DD
:10AB48006420666F7220656C656D656E742025647F
:10AB5800200D0A002338323743210D0053617475E4
:10AB6800726174696F6E3A203078257820282564E0
:10AB7800290A0D004875653A20307825782028255F
:10AB880064290A0D00000000002070472DE9F04FED
:10AB980081B042F6E177C0F604070C460546384610
:10ABA80000211E4631F08AF928A0314634F0E0FA37
:10ABB8003846002131F082F932A034F0D3FF002C5E
:10ABC8003FD042F6E17B00276FF00206C0F6040B87
:10ABD8000FF2B8090FF2CC0A4FF0000806E000BFE8
:10ABE80015F8087008F1010844452AD018EA060F3C
:10ABF800F6D0B8F1040F17D0B8F1030F0BD0B8F1A5
:10AC0800010FEFD15846002131F058F9687847EA2A
:10AC18000021504611E05846002131F04FF9E878FC
:10AC280047EA0021484608E05846002131F046F935
:10AC3800297942F6E760C0F604000A4634F098FA2B
:10AC4800D0E7002001B0BDE8F08F00BF4C6967680D
:10AC5800745F48736C4875655F53746174757320CD
:10AC680063616C6C6261636B2072656365697665AC
:10AC78006420666F7220656C656D656E742025644E
:10AC8800200D0A002338323731210D0054617267D4
:10AC98006574204875653A20307825782028256421
:10ACA800290A0D0050726573656E74204875653AFF
:10ACB800203078257820282564290A0D0000000016
:10ACC800002070472DE9F04F81B042F6A377C0F617
:10ACD80004070C460546384600211E4631F0EEF8BA
:10ACE80033A0314634F044FA3846002131F0E6F812
:10ACF8003EA034F037FF002C55D042F6A37642F63A
:10AD0800357A4FF00008C0F60406C0F6040A0FF2C0
:10AD1800081B38A74FF0000907E000BF0A4634F0C7
:10AD280027FA09F101094C453DD0B9F1080FF8D8C7
:10AD3800DFE809F02F0E110E1D0E050E2600304615
:10AD4800002131F0BBF8A87948EA00215846E5E728
:10AD580015F80980E5E73046002131F0AFF8A8780A
:10AD680048EA002142F60370C0F60400D6E73046F0
:10AD7800002131F0A3F8287948EA00215046CDE7B0
:10AD88003046002131F09AF8287A48EA00213846FE
:10AD9800C4E73046002131F091F8297842F6CE60B8
:10ADA800C0F60400BAE7002001B0BDE8F08F00BF8C
:10ADB8004C696768745F48736C52616E67655F536E
:10ADC80074617475732063616C6C6261636B20726B
:10ADD8006563656976656420666F7220656C656D6C
:10ADE800656E74202564200D0A0000002338323770
:10ADF80045210D0053617475726174696F6E20523C
:10AE0800616E6765204D61783A2030782578202872
:10AE18002564290A0D000000536174757261746914
:10AE28006F6E2052616E6765204D696E3A203078EA
:10AE3800257820282564290A0D0000000020704785
:10AE48002DE9F04F81B043F22907C0F604070C46FC
:10AE58000546384600211E4631F030F828A0314614
:10AE680034F086F93846002131F028F834A034F05F
:10AE780079FE002C3FD043F2290B00276FF0020621
:10AE8800C0F6040B0FF2C0090FF2DC0A4FF00008FD
:10AE980006E000BF15F8087008F1010844452AD0FB
:10AEA80018EA060FF6D0B8F1040F17D0B8F1030F5F
:10AEB8000BD0B8F1010FEFD15846002130F0FEFF5A
:10AEC800687847EA0021504611E05846002130F0E2
:10AED800F5FFE87847EA0021484608E0584600218F
:10AEE80030F0ECFF297942F6E760C0F604000A4624
:10AEF80034F03EF9D0E7002001B0BDE8F08F00BF84
:10AF08004C696768745F48736C53617475726174D7
:10AF1800696F6E5F5374617475732063616C6C62E2
:10AF280061636B20726563656976656420666F721C
:10AF380020656C656D656E74202564200D0A00001F
:10AF48002338323735210D005461726765742053F8
:10AF5800617475726174696F6E3A20307825782053
:10AF6800282564290A0D000050726573656E7420E7
:10AF780053617475726174696F6E3A203078257800
:10AF880020282564290A0D00002070472DE9F04F7C
:10AF980081B042F6FB77C0F604070C4605463846F2
:10AFA80000211E4630F08AFF2AA0314634F0E0F82E
:10AFB8003846002130F082FF34A034F0D3FD002C55
:10AFC80044D042F6FB7642F6E76B0027C0F604064B
:10AFD8000FF2DC090FF2BC0AC0F6040B4FF00008B0
:10AFE80006E00A4634F0C4F808F1010844452DD0BB
:10AFF800B8F1060FF8D8DFE808F00D040D200D10A1
:10B0080019003046002130F059FF687847EA0021DE
:10B018002DA0E6E715F80870E6E73046002130F085
:10B028004DFF687947EA00215046DAE730460021AB
:10B0380030F044FFA9795846D3E73046002130F074
:10B048003DFFE87847EA00214846CAE7002001B0FA
:10B05800BDE8F08F4C696768745F48736C5F537420
:10B06800617475732063616C6C6261636B207265D7
:10B0780063656976656420666F7220656C656D65C9
:10B088006E74202564200D0A000000002338323732
:10B0980038210D0048534C205361747572617469EE
:10B0A8006F6E3A203078257820282564290A0D000B
:10B0B80048534C204875653A203078257820282553
:10B0C80064290A0D0000000048534C204C69676849
:10B0D800746E6573733A20307825782028256429A2
:10B0E8000A0D0000B0B5054600881C4600284FF040
:10B0F800000002D002F02CFF01E002F019FF40F23C
:10B1080010012888C2F200010B2242F68B3514FB8D
:10B118000211C0F6040588802846002130F0CEFED2
:10B1280009A034F01FFD2846002130F0C7FE42F682
:10B13800E520C0F60400214634F01AF80320214621
:10B148002CF09CFC0020B0BD233832353921200D6D
:10B15800000000002DE9F04381B043F28B07C0F6F0
:10B1680004070C460546384600211E4630F0A6FE68
:10B1780042F65D50C0F60400314633F0F9FF384618
:10B18800002130F09BFE42F65070C0F6040034F007
:10B19800E9FCECB143F28B080026C0F604080FF274
:10B1A800380900270EE000BF4046002130F086FE37
:10B1B800687846EA002148460A4633F0D9FF013745
:10B1C800BC4205D0012FEFD0002FF8D12E78F6E73A
:10B1D800002001B0BDE8F0834C696768746E657340
:10B1E800732044656661756C743A20307825782040
:10B1F800282564290D0A0000B0B540F21002B0F805
:10B208000700C2F200020B2342F6AD3411FB0325FE
:10B21800C0F6040468802046002130F04FFE06A0E6
:10B2280033F0A6FF2046002130F048FE698805A0CB
:10B2380033F09EFF0020B0BD2338323539210A0D86
:10B24800000000004170706C695F4C696768745F4A
:10B258004C696768746E6573735F4C6173745F5390
:10B268006574204C69676874204C6173742056615A
:10B278006C7565203078252E3278200D0A00000084
:10B288002DE9F04381B043F2EC07C0F604070C4601
:10B298000546384600211E4630F010FE17A03146FC
:10B2A80033F066FF3846002130F008FE42F6507051
:10B2B800C0F6040034F056FCE4B143F2EC08002672
:10B2C800C0F604080FF2740900270DE0404600217B
:10B2D80030F0F4FD687846EA002148460A4633F023
:10B2E80047FF0137BC4205D0012FEFD0002FF8D11E
:10B2F8002E78F6E7002001B0BDE8F0834C69676856
:10B30800745F4C696768746E6573735F4C617374BE
:10B318005F5374617475732063616C6C6261636BF5
:10B3280020726563656976656420666F7220656C56
:10B33800656D656E74202564200D0A004C69676888
:10B34800746E657373204C6173743A203078257875
:10B3580020282564290D0A00B0B5408840F25C21F8
:10B3680042F65035C2F20001C0F6040521F8130078
:10B37800284600211C4630F0A1FD42F6A220C0F666
:10B388000400214633F0F4FE2846002130F096FDF3
:10B3980002A033F0EDFE0020B0BD00BF23383235E7
:10B3A80030210A0D000000002DE9F04F81B043F272
:10B3B8004A07C0F604070C460546384600211E46D3
:10B3C80030F07CFD42F61B50C0F60400314633F0E5
:10B3D800CFFE3846002130F071FD26A034F0C2FBC4
:10B3E800002C42D043F24A0B42F67A6942F6986A38
:10B3F80000276FF00206C0F6040BC0F60409C0F679
:10B40800040A4FF0000805E015F8087008F1010873
:10B4180044452AD018EA060FF6D0B8F1040F17D021
:10B42800B8F1030F0BD0B8F1010FEFD15846002146
:10B4380030F044FD687847EA0021504611E058464C
:10B44800002130F03BFDE87847EA0021484608E053
:10B458005846002130F032FD297942F6DB50C0F61B
:10B4680004000A4633F084FED0E7002001B0BDE8AE
:10B47800F08F00BF2338323532210D00B0B540F2CD
:10B4880010021C460178C2F200020B2314FB0322AF
:10B498009171D0F8010042F63035C0F60405C2F8C3
:10B4A80007002846002130F009FD08A033F060FEAF
:10B4B8002846002130F002FD42F65920C0F604006B
:10B4C800214633F055FE0020B0BD00BF2338323589
:10B4D8004221200A0D0000002DE9F04F81B042F60C
:10B4E8008077C0F604070C460546384600211E46FC
:10B4F80030F0E4FC42F6DA40C0F60400314633F09E
:10B5080037FE3846002130F0D9FC23A034F02AFB5E
:10B51800002C3DD042F6807B42F6C25A42F6B7680C
:10B5280042F640690027C0F6040BC0F6040AC0F6CC
:10B538000408C0F60409002604E000BFAF5D013628
:10B54800B44225D086B126F002000128F6D0042E98
:10B5580011D0022EF3D15846002130F0AFFCA87864
:10B5680047EA002148460FE05846002130F0A6FC83
:10B578002978504608E05846002130F09FFC287989
:10B5880047EA0021404600BF0A4633F0F1FDD6E7FE
:10B59800002001B0BDE8F08F2338323538210D0086
:10B5A800F0B581B042F67136C0F60406054630465D
:10B5B80000211C46002730F081FC27A033F0D8FD7D
:10B5C8003046002130F07AFC2A88B5F8073025A0EB
:10B5D800214633F0CDFD40F210012888C2F2000167
:10B5E8000B2214FB02136243885240F6421240F2C7
:10B5F800B816B5F80710C2F20002C2F20006002819
:10B6080018BF0146128835885980AA424FF00001B8
:10B6180047F6F54398BF01219A4288BF012739436D
:10B62800002A328018BF0122114040F64012C2F2AF
:10B63800000211704FF6FF7100222DF063FD40F2F9
:10B64800AC11C2F200010880032021462CF016FA42
:10B65800002001B0F0BD00BF2338323443210A0D69
:10B6680000000000456C656D656E7420696E646548
:10B67800782025642070726573656E742030782593
:10B688002E3278206C617374203078252E32780D34
:10B698000A0000002DE9F04F81B043F26E07C0F6B2
:10B6A80004070C460546384600211E4630F006FCC5
:10B6B8002AA0314633F05CFD3846002130F0FEFB0D
:10B6C80035A034F04FFA002C43D043F26E0B42F60B
:10B6D8007A6942F6986A00276FF00206C0F6040BF2
:10B6E800C0F60409C0F6040A4FF0000806E000BFDF
:10B6F80015F8087008F1010844452AD018EA060F21
:10B70800F6D0B8F1040F17D0B8F1030F0BD0B8F189
:10B71800010FEFD15846002130F0D0FB687847EA96
:10B728000021504611E05846002130F0C7FBE87868
:10B7380047EA0021484608E05846002130F0BEFBA1
:10B74800297942F6DB50C0F604000A4633F010FDB2
:10B75800D0E7002001B0BDE8F08F00BF4C696768F2
:10B76800745F4C696768746E6573735F5374617452
:10B7780075732063616C6C6261636B2072656365CD
:10B788006976656420666F7220656C656D656E7498
:10B79800202564200D0A00002338323445210D008D
:10B7A80010B54AF6D840C2F20000006804212CF017
:10B7B800FFFF044640B142F22C30C0F60400214697
:10B7C80033F0D6FC204610BD42F2CD40C0F604004E
:10B7D80034F0C8F9204610BD80B510F081FB50B197
:10B7E80001F002FB002818BF80BD41F66250C2F28A
:10B7F80000000121017080BD80B510F071FB18B305
:10B8080010F074FB00B341F66950C2F200000178F1
:10B81800002918BF80BD012101700BF0FDFC012833
:10B8280002D003200AF0B8F80AA034F09BF90020EF
:10B8380000212AF027FE40B942F21F50C0F604004A
:10B84800BDE8804034F08EB980BD64200CF000F86B
:10B8580031F05EFE50726F766973696F6E696E675C
:10B868002073657373696F6E2074696D656F757485
:10B878003A2072657475726E20746F206C6567610A
:10B88800637920474154540D0000000081B08DF8C1
:10B8980003004AF6C440C2F200000068406801B0E4
:10B8A80070470000B0B583B094468E4604460998A8
:10B8B8000899079A02948DF807E08DF806C0ADF84C
:10B8C8000430ADF802208DF801108DF800000299BF
:10B8D8000120087002990020487002998870029926
:10B8E800C8700299087103B0B0BD000081B08DF82E
:10B8F80003004AF6C440C2F200000068006901B0C3
:10B9080070470000B0B541F66854C2F200042078D0
:10B9180040F60A25C2F2000520B9287810B9FFF7C9
:10B928006BFF11E02CF0F0FF4AF69D41C2F20001D6
:10B9380009780246084300060CD042F24330C9B2E7
:10B94800C0F6040033F014FC40200021BDE8B040EC
:10B9580031F080BA10F0C4FA88B100202070287045
:10B9680001202FF03BFC022000212AF08BFDC0B9FA
:10B9780042F2D940C0F6040034F0F4F8CFE7287852
:10B988000128CCD141F662510020C2F20001287092
:10B998002070087007A034F0E5F8BDE8B0402AF040
:10B9A800A1BE12A034F0DEF8FA200BF051FF31F0FE
:10B9B800AFFD00BF4D65736820636F6E666967757C
:10B9C800726174696F6E20636F6D6D6974746564FC
:10B9D8003A20636F6E74726F6C6C65642050726F7E
:10B9E800787920726573746172740D0050726F7685
:10B9F8006973696F6E696E6720636F6D6D697474C2
:10BA080065643A207265626F6F7420746F204D65AB
:10BA18007368206F7065726174696F6E616C0D0078
:10BA280041F66E50C2F200000078002818BF704737
:10BA380080B501F0ADFD0A200BF00AFFFDF75CFEB2
:10BA4800002009F0A9FF42F25640C0F6040034F085
:10BA580089F801F0C5FB31F05BFD000080B582B0CC
:10BA68008DF807004AF6CC40C2F200000068016970
:10BA78009DF80700884702B080BD00002DE9F04F0F
:10BA88008FB0834600284FF0030000F013810D4665
:10BA9800002900F00F8140F290389BF800A045F291
:10BAA8004029C2F200080120C2F20009A8F80000EB
:10BAB8008FA0002189F800A0002730F0FFF99BF83B
:10BAC800001091A02A4633F053FB94A6002400BF2F
:10BAD8001BF80710304633F04BFB0134A7B2BD42C8
:10BAE800F6D841F6FF00C0F6040033F041FBAAF196
:10BAF800010127294FF0010000F2DC80DFE811F096
:10BB08002800DA00DA00DA00DA00DA00DA00DA000F
:10BB1800DA00DA00DA00DA00DA00DA00DA0099008E
:10BB280093009000DA00DA00DA00DA00DA00DA00CE
:10BB3800DA00DA00DA00DA00DA00DA00DA004700C0
:10BB48006D00A800B300D200BA0036007A00590090
:10BB58003C2D00F2B78045F24020C2F20000594661
:10BB68002A46FBF7EAFBA8F80050A2E00BF07CFBA2
:10BB78000446FBF720FCC5B2102D28BF102509F19B
:10BB8800010021462A46FBF7D8FB681C8FE0022DEE
:10BB9800C0F098809BF8010069468DF800004AF6CD
:10BBA800BC00C2F2000001224FF47A730EF084FC4C
:10BBB8007FE0012D40F0868068462AF01DFB0120B9
:10BBC80089F80100BDF80000DDF80210029AA9F812
:10BBD80002000C20C9E9011269E0032D72D39BF819
:10BBE800010004287CD003286CD19BF802002FF0B8
:10BBF8006FFA5EE0052D60D1DBF8011003202AF012
:10BC080041FC002862D0002089F80100DBF801001F
:10BC1800C9F802000620A8F800002AF063FD48E0F1
:10BC28000BF0A2FA40E068463B210BF0BBFA30B9B2
:10BC380052E068463B210BF09DFA00284CD00446A0
:10BC480009F1010069462246FBF777FB601C2EE0EC
:10BC5800022D37D39BF80100042846D0032831D1A0
:10BC68000BF0F6FA20E0022D2CD39BF801002FF000
:10BC7800C7F91EE0A5F1120010F1100F22D3681EBB
:10BC880000216C468DF81010CDE90211CDE90011A4
:10BC98000BF10101C2B22046FBF74FFB20462FF003
:10BCA80057FA06E00BF09EFA89F801000220A8F87E
:10BCB800000000200FB0BDE8F08F89F801000220D5
:10BCC800A8F8000003200FB0BDE8F08F042089F821
:10BCD80001000220A8F8000001200FB0BDE8F08F95
:10BCE8009BF802002FF014FAE3E70BF0B7FADBE752
:10BCF8004170706C695F56656E646F725F44617401
:10BD0800615F7772697465002330452D253032688C
:10BD180078202530326C7821200A0D0025303268D1
:10BD2800782000002DE9F04F83B00546067845F2EB
:10BD38004020C2F20000067042F27D60C0F60400A6
:10BD48000021002430F0BAF8297853A033F010FA13
:10BD5800701E032800F29A80DFE800F002084C9970
:10BD680040F29030C2F2000002218CE000F030FF77
:10BD780004783CB342F27D68471C00250DF10209A6
:10BD88000FF23C1AC0F604080FF2481B13E000BF7C
:10BD9800E0B201F041F8044609F806005E46404664
:10BDA800002130F08BF83046214633F0E1F917F8DE
:10BDB800014B013534B1EEB22E2C09F80640E7D11B
:10BDC8005646ECE7BDF8020045F24022BDF80510E2
:10BDD800C2F20002A2F801009DF80800A2F80310C0
:10BDE800BDF80910507140F29030D180C2F20000C5
:10BDF800082148E000F0E6FE04785CB342F24D6B9F
:10BE080042F27D69471C00250DF1020AC0F6040BB9
:10BE1800C0F604090FF290080DE000BF5E464846E0
:10BE2800002130F04BF83046214633F0A1F917F8DD
:10BE3800014B013574B1EEB22E2C0AF80640EDD054
:10BE4800522CEBD0E0B200F0E7FF04460AF80600F7
:10BE58004646E4E7BDF8020045F24027C2F2000773
:10BE6800A7F801009DF805009DF807109DF8092026
:10BE78009DF80B30F87040F2903039717A71BB71CF
:10BE8800C2F2000007210180002400E001242046BE
:10BE980003B0BDE8F08F00BF2330322D2530326863
:10BEA8007821200A0D000000537562204C69622039
:10BEB80076657273696F6E2069732025780A0D00A4
:10BEC8004C69622076657273696F6E2069732025EC
:10BED800630A0D004C69622076657273696F6E2083
:10BEE80069732025780A0D002DE9F04381B00646D4
:10BEF80090F8008042F26560C0F604000021154603
:10BF080000272FF0DBFF31787CA033F031F9A8F15E
:10BF1800010005284FF0010900F2CE800024DFE877
:10BF280000F003502ACC718D42F26560C0F604001F
:10BF380000214FF000092FF0C1FF42F2A250C0F6D5
:10BF48000400294633F014F940F2AC10C2F20000A4
:10BF580047F6F6410180016842688368042010F0C2
:10BF680067FE002001F0F4FF40F2AA10C2F20000C0
:10BF7800012101709FE042F26560C0F604000021D3
:10BF88004FF000092FF09AFF42F2D850C0F6040093
:10BF9800294633F0EDF840F2AA14C2F200042078E2
:10BFA800012874D140F2AC10C2F2000001210180D6
:10BFB800016842688368042010F03AFE84F8009013
:10BFC8001EE042F26560C0F6040000214FF000094F
:10BFD8002FF074FF5DA0294633F0CAF840F2AC1088
:10BFE800C2F20000012101800168426883680420D0
:10BFF80010F01EFE40F2AA10C2F2000080F8009075
:10C00800002018E042F26560C0F6040000212FF01D
:10C0180055FF42F21260C0F60400294633F0A8F832
:10C02800707840F2AA11C2F20001012808703DD0D0
:10C0380000204FF0000901F07BFF3CE042F2656010
:10C04800C0F6040000212FF039FF30A0294633F054
:10C058008FF87778B47847F6FF7147EA0420002212
:10C068002DF050F8054640F2AC10C2F200000580F1
:10C07800016842688368042010F0DAFD00204FF060
:10C088000009B5F57A5F35D901F062FF15E040F295
:10C09800AC10C2F2000047F6F64101800168426820
:10C0A8008368042010F0C4FD0120207000204FF0A8
:10C0B800000901F04DFF0027002445F24020C2F29C
:10C0C8000000B8F1060F80F8008003D14470877033
:10C0D800032106E040F2AA11C2F20001097841707A
:10C0E800022140F29032C2F200024846118001B0AB
:10C0F800BDE8F08301F01CFFDFE700BF2330332DDC
:10C108002530326878210A0D000000004170706CFB
:10C11800695F4C45445F496E74656E736974792034
:10C1280063616C6C6261636B2072656365697665D7
:10C138006420666F7220656C656D656E74496E6407
:10C148006578202564200D0A000000004170706C9D
:10C15800695F4C45445F4F46462063616C6C626181
:10C16800636B20726563656976656420666F72200B
:10C17800656C656D656E74496E646578202564200C
:10C188000D0A0000B0B584B001F00AFA28B1002009
:10C1980001F0DEFE012004B0B0BD0020002501F052
:10C1A800C7FE40F20C22C2F20002136C108892F80B
:10C1B80044100124CDE90035931C0E22029401F0AD
:10C1C800D5F804B0B0BD0000F0B581B040F20C273E
:10C1D8000E46C2F2000715460146B81C32461C46F8
:10C1E800FBF7ABF800203C803E643C2E88BF032060
:10C1F80087F8445001B0F0BD2DE9F04104460778B6
:10C2080045F2402842F295600D46C2F20008C0F699
:10C218000400002188F8007000262FF04FFE2178D6
:10C2280020A032F0A5FFF81E032837D3022F19D01B
:10C23800062F32D19DB141F6FF0700210FF2740895
:10C24800C0F60407002600BF625C404632F090FF4B
:10C25800384632F08DFF0136F1B28D42F4D8002015
:10C26800BDE8F0813D2D0AD342F29560C0F6040086
:10C2780000212FF023FE13A033F074FC3C25611C31
:10C288006A1E08F10100FBF758F840F29030C2F23C
:10C29800000005800020BDE8F08101263046BDE899
:10C2A800F08100BF2330312D253032687821200AF3
:10C2B8000D000000646174615B25645D3D202564A8
:10C2C800000000004C656E677468207265636569DC
:10C2D8007665642067726561746572207468616E42
:10C2E8002073697A65206F6620726573706F6E734C
:10C2F8006520627566666572200D000040F2FC12CA
:10C30800C1EBC101C2F2000202EB4101002200BFF1
:10C3180031F81230984204BF012070470132072AD1
:10C3280004BF00207047F3E740F25422C2F2000233
:10C3380002EBC101002200BF51F82230984204BF2D
:10C34800012070470132012A1CBF00207047F3E723
:10C358000020704710B540F2FC12C1EBC101C2F2D7
:10C36800000202EB410100244FF6FF7231F814304D
:10C37800934203D00134072CF8D107246200FAF75E
:10C38800DCFFE0B210BD000010B540F25422C2F24A
:10C39800000202EBC10100244FF6FF7251F824306D
:10C3A800934203D00134012CF8D00224A200FAF7FA
:10C3B800C4FFE0B210BD0000B0B588B0DDF844C0DD
:10C3C800DDF840C0DDF83CC0DDF838C0DDF834C029
:10C3D800DDF830C007900691059204930EF046FDF3
:10C3E80006980EF093FD05980499109A119BDDF8B4
:10C3F8003CC00D9CEE460025CEF80850CEF804400F
:10C40800CEF800C00EF024FC0E980F99079A0EF093
:10C4180095FB0C980D990EF06DFB03900EF0FEFC49
:10C42800039808B0B0BD0000B0B588B0DDF844C0CE
:10C43800DDF840C0DDF83CC0DDF838C0DDF834C0B8
:10C44800DDF830C007900691059204930020039010
:10C458000EF00CFD04980EF059FD0C980D99109AE9
:10C46800119BDDF83CC0059CEE460125CEF808502E
:10C47800CEF80440CEF800C00EF0EAFB0E980F99F3
:10C48800079A0EF05BFB069805990EF0D1FB0EF0AB
:10C49800C5FC039808B0B0BD80B592B0119010915A
:10C4A8000F920E9340F26020C2F200000D9000201F
:10C4B8000B9010980290119820B1FFE7119800F0A6
:10C4C800FFF8FFE70E9890B1FFE70F9800F00F0014
:10C4D8000B900F9830B1FFE70B9818B9FFE71020C1
:10C4E8000B90FFE70B990F98401A0F90FFE7FFE7B3
:10C4F8000F9870B3FFE7029B186859689A68DB6861
:10C508000A93099208910790FFE7079800BA0D99D6
:10C51800096848400790089800BA0D99496848404A
:10C528000890099800BA0D998968484009900A98B6
:10C5380000BA0D99C96848400A90FFE70D9907A805
:10C5480000F0B4F80298103002900F9810380F904D
:10C55800CEE70E98002800F08180FFE700200A90BF
:10C568000990089007900C90FFE70C980B99884267
:10C5780013D2FFE702990C98095C03228243D20088
:10C5880001FA02F320F0030207A9885818438850DB
:10C59800FFE70C9801300C90E7E700200690059023
:10C5A8000490039003A90191084600F07FF80198D0
:10C5B80000F056F80B980F2811D8FFE70B980321C5
:10C5C8008143CA00802101FA02F320F0030207A97F
:10C5D80088581843885003A800F042F8FFE7002065
:10C5E8000C90FFE70C98032814D8FFE70D980C9AD5
:10C5F80050F8220003A951F8221080EA010307A984
:10C6080051F82200584041F82200FFE70C98013009
:10C618000C90E7E70D9907A800F048F80EF0FEFB2C
:10C62800FFE70D98006800BA07900D98406800BAB7
:10C6380008900D98806800BA09900D98C06800BAF3
:10C648000A90FFE70E990798089A099BDDF828C019
:10C65800C1F80CC08B604A600860FFE712B080BD6B
:10C6680082B0019001980068C00F8721484300906C
:10C67800019908684A68400040EAD2700860019948
:10C6880048688A68400040EAD27048600199886822
:10C69800CA68400040EAD27088600199CA68009868
:10C6A80080EA4200C86002B07047000080B582B0DE
:10C6B80001900091019800990EF0A2FB02B080BD94
:10C6C80080B584B0039040F26020C2F2000002906E
:10C6D8000EF0CCFB03980EF019FC002001900EF030
:10C6E8003FFC01980299C8600299886002994860E5
:10C6F8000299086004B080BD80B588B007900691A3
:10C7080005920EF0B3FB07980EF000FC04200EF023
:10C7180027FC069B186859689A68DB68049303929B
:10C728000291019001A908460EF06AFB0EF076FB13
:10C7380005990198029A039BDDF810C0C1F80CC056
:10C748008B604A60086008B080BD000010B54CF2EC
:10C758008D720446C0F600024FF48060002130F06C
:10C7680065FA40F2F803C2F200034FF0640C03EBE1
:10C77800840242F61920214623F824C0BDE810405F
:10C7880000F0A6B840F2F802C2F2000242F6192000
:10C79800002100F09DB8000040F2F801C2F200014B
:10C7A800CA780880012A18BF70474FF480600321B7
:10C7B80030F050BB80B582B04178FF2902D000200C
:10C7C80002B080BDB0F8031040F61442914212D076
:10C7D80040F601429142F2D140F22811C2F2000122
:10C7E8004988B0F8072002319142E8D1407B012105
:10C7F80021EA00000EE040F22811C2F20001498847
:10C80800B0F8072001319142D9D1B0F8050031F0D4
:10C818007FF902208DF8060000208DF807000DF141
:10C82800060000F035F8012002B080BDF0B587B0F1
:10C838004CF2BD70C0F600002DF0EEFB41F60F0083
:10C8480040F228150DF11A04ADF81A00C2F20005DD
:10C85800012021460122042300950126042731F0F6
:10C86800F7F842F6192135F8020BADF81A100A212B
:10C8780000221223CDE90032CDE9027101212246BE
:10C8880001230496059531F073F807B0F0BD000058
:10C898000078022812D0012809D0002818BF704754
:10C8A80040F2F800C2F200000121C170704740F266
:10C8B800F800C2F200000021C170704740F2F8028F
:10C8C800C2F2000242F61920002100F001B800006F
:10C8D800944642F61922904218BF704780B582B03C
:10C8E80001EB410040F22811C2F2000101EB4002C5
:10C8F80031F81000518800220123CDF800C031F032
:10C90800FFF902B080BD000082B00090009820B905
:10C91800FFE703208DF8070009E000984AF6A041D8
:10C92800C2F20001086000208DF80700FFE79DF8BB
:10C93800070002B07047000082B00090009820B94C
:10C94800FFE703208DF8070009E000984AF6CC417C
:10C95800C2F20001086000208DF80700FFE79DF88B
:10C96800070002B07047000080B582B001908DF8D2
:10C978000310019820B1FFE79DF8030020B9FFE7F5
:10C9880002208DF802000CE04AF60850C2F20000BE
:10C99800006801999DF8032005F046F88DF802001B
:10C9A800FFE79DF8020002B080BD000080B541F6A7
:10C9B8006250C2F20000012101700FF091FA0028C4
:10C9C80008BF80BD41F66851C2F20001087830B94D
:10C9D800012203A00A70BDE8804033F0C3B880BDCF
:10C9E80050726F766973696F6E696E6720636F6ED8
:10C9F800666967757265643A2077616974696E67FC
:10CA080020646973636F6E6E65637420666F72204D
:10CA18004E564D20636F6D6D69740D0006220280BD
:10CA280040F20012C0F20232C0F8022004228271E1
:10CA3800072008707047000083B0029001918DF8BC
:10CA480003208DF8023003B07047000010B504468B
:10CA580008A032F08DFB601EC0B2022899BF13A156
:10CA680051F8200042F20140C0F60400BDE8104031
:10CA780033F078B8467269656E64736869702063CC
:10CA88006C65617265642E204C6F7720706F7765D6
:10CA980072206E6F64652061646472657373203000
:10CAA80078252E3458200D0A0000000013240408AD
:10CAB800B2230408E1230408F0B581B00F4601460B
:10CAC80042F2F320069CC0F604001D46164632F0DA
:10CAD8004FFB0DA0394632F04BFB642006FB00F1FA
:10CAE80013A032F045FB1CA0294632F041FB4CB1A3
