:020000040800F2
:1070000058DB0020BD7200088975030801BC010827
:1070100045D30108115501083DD6030800000000C2
:1070200000000000000000000000000091AA03081A
:10703000515C01080000000065960308A5B903082B
:10704000D7720008D7720008D7720008AD990308FC
:10705000D7720008D7720008D7720008D7720008EC
:10706000D7720008D7720008D7720008D7720008DC
:10707000D7720008D7720008D7720008D7720008CC
:10708000D7720008D7720008D7720008D7720008BC
:10709000D7720008D7720008D7720008E55C0108B3
:1070A000D7720008D7720008D7720008D77200089C
:1070B000D7720008D7720008D7720008D77200088C
:1070C000D7720008D7720008D7720008D77200087C
:1070D00025D303087DC00108D7720008D7720008C5
:1070E000D7720008D7720008D7720008D77200085C
:1070F000F5BE0108F9BE01081DAB0108D7720008F2
:10710000D7720008D7720008D7720008D77200083B
:10711000D7720008D7720008D7720008D77200082B
:10712000D7720008D7720008AD5B0108D77200085B
:10713000D7720008D7720008D7720008000000005C
:107140002C4B04080000000081C201120812484ABA
:107150000C0412303B08051C1A041059041428189A
:107160000222B042201A270C5AD00C14FFFF031A37
:10717000034A13D4521420FC541420245714204CD6
:1071800059180B20199E0308E59F03081904180AD3
:107190008D9D0308E19C03089D0C1EE9A20308FFD6
:1071A00001111B093D3C14FFFF011A024012041299
:1071B00005120EB6090DFF018314DD2A021A148987
:1071C00045F94001083CDE2A08104B154110DADB76
:1071D00020DADC201A010C029B10000000000000E5
:1071E000000000000000000000000000000000009F
:1071F000000000000000000000000000000000008F
:10720000000000000000000000000000000000007E
:10721000000000000000000000000000000000006E
:10722000000000000000000000000000000000005E
:10723000000000000000000000000000000000004E
:10724000000000000000000000000000000000003E
:10725000000000000000000000000000000000002E
:10726000000000000000000000000000000000001E
:107270000000000001FF01FF01FF01FF01FF01FF0E
:0C72800001FF01FF01FF01FF014A0000B7
:020000040800F2
:1072A800DFF80CD000F002FD0048004761F2030847
:1072B80058DB00200648804706480047FEE7FEE7FF
:1072C800FEE7FEE7FEE7FEE7FEE7FEE7FEE7FEE78E
:1072D8004DBA0308A97200082DE9F05F05460020A1
:1072E80092469B4688460646814640241BE028462F
:1072F80041464746224600F096FB53465A46C01A76
:10730800914110D311461846224600F07DFB2D1AF4
:1073180067EB01084F4622460120002100F074FB6C
:1073280017EB00094E41201EA4F10104DFDC48469A
:1073380031462A464346BDE8F09F10B5431A9342AA
:1073480009D28318881803E010F8011D03F8011DFD
:10735800521EF9D210BD40EA01039B0703D009E091
:1073680008C9121F08C0042AFAD203E011F8013B29
:1073780000F8013B521EF9D210BDD2B201E000F86C
:10738800012B491EFBD270470022F6E710B51346C1
:107398000A4604461946FFF7F0FF204610BD10B50F
:1073A800044604E00B7800F8013B03B1491C521E67
:1073B800F8D2204610BD421C10F8011B0029FBD151
:1073C800801A7047CBB203E00178994203D0401C81
:1073D800521EF9D20020704730B5044600200346FB
:1073E80000E05B1C934203D2E05CCD5C401BF8D00C
:1073F80030BD30B505460020034600E05B1C9342D3
:1074080005D2EC5CC85C201A01D1002CF6D130BD45
:107418000FB400B58DB010A909900B9000914FF0F2
:10742800FF300A9000200C90054806900548079008
:107438006A4609A80F9900F02DFB0DB05DF814FB02
:10744800B97A0008D77A00082DE9FF5F1D464FF08A
:10745800FF3BD5E9014691465F464FF00008A96910
:107468007F1C01988847296A824688470028F6D1F8
:10747800BAF1FF3F0CD024F4C064002E19DD600679
:1074880014D5BAF12B0F09D0BAF12D0F0ED103E0A4
:10749800584604B0BDE8F09F44F48064A9697F1C95
:1074A80001988847761E8246002E02DDBAF1300F19
:1074B80003D0B9F1000F26D032E0A969761E44F452
:1074C80000747F1C019888478246002E05DDBAF1BA
:1074D800780F06D0BAF1580F03D0B9F1000F10D0C9
:1074E8001EE0B9F1000F02D0B9F1100F18D1A96947
:1074F800761E24F400747F1C019888478246102069
:1075080002E0082000E00A20814609E008FB09089B
:10751800A969761E44F400747F1C01988847824646
:10752800002E05DD4946504600F09FFA0028EDDAA6
:10753800E96901988847A00502D46FF00100A8E71F
:10754800E00725D1600613D5600502D5C8F1000013
:1075580000E0404629680A1D2A600968220501D50D
:10756800087015E0220701D5088011E008600FE0D7
:107578002868011D29600068210502D580F800806F
:1075880006E0210702D5A0F8008001E0C0F80080DD
:1075980038467EE72DE9FF5FD2E901A74FF00008E2
:1075A800916999461446DDF838B0464601988847EF
:1075B800054659EA0B0005D009E0A169761C019837
:1075C80088470546216A284688470028F5D1681C5F
:1075D80003D05FEACA7005D015E04FF0FF3004B061
:1075E800BDE8F09F2068011D2160D0F800800AE006
:1075F8005FEACA7001D108F8015BA169761C7F1E99
:10760800019888470546002F1ADD681C18D0B9F183
:10761800000F0DD0E81705EBD060421120F01F00D5
:1076280059F822102A1A012090400142E0D107E0BF
:10763800BBF1000FDCD1216A284688470028D7D043
:10764800E16901988847BBF1000F07D1002E05DDDD
:107658005FEACA7002D1002188F80010A068B84219
:1076680003DDBBF1000F03D017B16FF00100B6E7DF
:107678003046B4E72DE9FE4F804681EA0300C00F8B
:107688000C46009021F0004123F00045B8EB0200C1
:10769800A94105D24046214690461C460B46024663
:1076A80023F00040104347D0270DC7F30A00C3F367
:1076B8000A510290401A019040286BDAC3F3130074
:1076C80040F4801B0098924620B10023D2EB030AB5
:1076D80063EB0B0B01985946C0F14002504600F08D
:1076E80093F906460D4650465946019A00F0ABF903
:1076F80010EB08006141002487EA115284EAE7731D
:107708001A4340D0009A62B3019A012A4FEA0752FD
:1077180015DC001B61EB02014FF0004202EA075240
:10772800CDE90042001C41F5801132462B4600F09D
:10773800EEF903B0BDE8F08F40462146F9E7001B9B
:1077480061EB0201001C41F5801300185B41201811
:10775800A2F5001747EB030140EAD570B6196D4151
:1077680011E06D084FEA360645EAC0754FEA075240
:10777800001B61EB0201001C41F5801149084FEA2A
:1077880030000019514132462B4603B0BDE8F04F96
:1077980000F0AEB90098012240000023D0EB0202AD
:1077A80063EBE073009821464FEAE074B8EB000001
:1077B80061EB0401E9E783F000435BE781F00041F6
:1077C80058E72DE9FE4F81EA030404F0004421F054
:1077D800004100944FF0000B23F0004350EA0104ED
:1077E8005ED052EA03045BD0C3F30A54C1F30A55CE
:1077F8002C44A4F2F3340194A0FB0254C1F3130106
:1078080041F48011C3F3130343F4801301FB0244D2
:1078180000FB034E840A970A44EA815447EA8357D7
:10782800A4FB076802958D0A05FB07854FEA932C90
:1078380004FB0C542705029D4FEA065847EA163701
:10784800B5EB08056EEB070C870E920E47EA811719
:1078580042EA8312A7FB0201B6EB0B0164EB0004BA
:107868002B0D43EA0C335E1844EB1C50DA465146A4
:10787800E7FB0201C5F313044FEA0B3343EA145341
:107888004FEA0432019C43EA0603A4F10C04029473
:10789800009CCDE900B400F03AF903B0BDE8F08FE0
:1078A80000200146F9E72DE9F04D81EA030404F0D0
:1078B800004B21F0004514464FF0000A23F0004128
:1078C80050EA050220D054EA01021DD0C5F30A5738
:1078D8000246C5F31303C1F31300C1F30A5640F47B
:1078E800801543F48013A7EB0608101BD64608F250
:1078F800FD3873EB050002D308F1010801E0921886
:107908005B41B8F1000F03DA00200146BDE8F08DB5
:1079180000204FF48011064684460EE0171B73EBD7
:10792800050705D3121B63EB050306434CEA010C5C
:1079380049084FEA300092185B4150EA0107EDD13F
:1079480052EA030012D082EA040083EA05010843E0
:1079580005D0101BAB4106D20122002306E000220D
:107968004FF0004302E06FF0010253101AEB0600DB
:107978004CEB085110EB0A0041EB0B01BDE8F04D50
:1079880000F0B6B80EB540F2334102910021CDE9BE
:1079980000110A460B4600F0BAF803B000BD70B5F6
:1079A800C1F30A5201F000450024C1F3130140F26B
:1079B800FF3341F480119A4201DA002070BD40F291
:1079C80033439A42A2F2334203DC524200F02BF8CE
:1079D80000E090402C43F1D0404270BD30B50B46DA
:1079E800014600202022012409E021FA02F59D42E7
:1079F80005D303FA02F5491B04FA02F52844151EBB
:107A0800A2F10102F1DC30BD202A04DB203A00FAA1
:107A180002F1002070479140C2F1200320FA03F3DD
:107A2800194390407047202A04DB203A21FA02F0DB
:107A38000021704721FA02F3D040C2F120029140A0
:107A4800084319467047202A06DBCB17203A41FA2B
:107A580002F043EAE07306E041FA02F3D040C2F1D3
:107A6800200291400843194670473A2800D230381E
:107A780020F02002412A01D3A2F13700884201D325
:107A88004FF0FF307047000002681144137801601E
:107A980018467047D16004495161044911620021B8
:107AA8001161114600F020B9917A0008E57C0008C0
:107AB800426842B1016811F8013B23B1521EC0E986
:107AC8000012184670470121C160881E704742683D
:107AD8005AB1C368016843B983688B4205D0491E0F
:107AE800521CC0E90012002070474FF0FF30704769
:107AF80010B5141E73F1000408DA401C41F10001AE
:107B080092185B411A4301D120F0010010BD2DE904
:107B1800F04D92469B4611B1B1FA81F202E0B0FAFB
:107B280080F220329046FFF76FFF04460F4640EA86
:107B38000A0041EA0B0153465A46084313D011463E
:107B480053EA010019D0C8F140025046FFF76BFF15
:107B580005460E46504659464246FFF755FF08432C
:107B680005D0012004E020463946BDE8F08D00200C
:107B7800054346EAE0762C4337430A986305E40A4E
:107B8800A0EB08000022FD0A44EA47540A3002D557
:107B980000200146E9E7010510196941DDE90845BA
:107BA80000196941BDE8F04DA2E72DE9F04D002329
:107BB8001A461B1A8A4103DB00200146BDE8F08DF6
:107BC800C1F30A52C1F3130141F480154FF0000BC1
:107BD800D10702D100186D41521E0027044640F219
:107BE800FF11384601EB620A3E46804602460020F5
:107BF8004FF48011FFF717FFC2197141BB1846EB0C
:107C08000100B4EB030C75EB000C04D3E41A65EB2C
:107C1800000517460E46241908F101006D418046FB
:107C28003428E3DDF91946EB0600091BA84103D205
:107C38004FF0FF32134601E0002213461BEB07000A
:107C480046EB0A51BDE8F04DFFF752BFC1F30A52A7
:107C5800C1F3130140F2FF3341F480119A4202DA72
:107C680000200146704740F233439A42A2F2334261
:107C780002DC5242FFF7D7BEFFF7C6BE30B5041E7E
:107C880071F1000404DB4FF00044404264EB010151
:107C9800141E73F1000405DB1C464FF000435242EA
:107CA80063EB0403994208BF904230BD1CB50948F4
:107CB8000090094801900546009C06E0E06840F005
:107CC800010394E8070098471034AC42F6D3FFF755
:107CD800EBFA0000DC4A04082C4B0408C0B24FF44D
:107CE800F05100F097B900002DE9F34F8BB04FF039
:107CF800000801F10C000C464FF0010B46460DF14F
:107D0800080A01906269012101989047051E2DD04B
:107D1800252D2CD0216A8847C0B1626901210198BC
:107D28009047216A88470028F7D1411E6269019867
:107D3800904700E0761CA1690B988847216A88471C
:107D48000028F7D1E1690B988847DBE7A1690B9810
:107D580088470746A84201D1761CD3E7E1690B980A
:107D680088477F1C02D1B8F1000F6FD046E1002789
:107D780062693D463946019890472A2804D16269CC
:107D88000121019890470125DFF884926269012159
:107D980001989047A0F130010A290AD24F45E5DC45
:107DA80007EB870100EB4107303FDFD445F01005B2
:107DB800ECE7E90601D46FF000476C280AD04C289C
:107DC80014D0682815D06A280DD074281CD07A28B9
:107DD8001AD01DE062690121019890476C2802D0F1
:107DE80045F0040514E045F002050DE045F02005D6
:107DF8000AE06269012101989047682802D045F09D
:107E0800080505E045F4006562690121019890477D
:107E1800C4E9015765283DD019DC58287AD00CDC14
:107E2800452837D004DC252826D0412831D131E037
:107E380046282FD047282CD12CE05B2877D0612802
:107E480028D063287CD0642823D15AE0D0E06F285A
:107E580048D008DC66281DD067281BD0692821D0A7
:107E68006E2816D127E0702845D0732868D0752869
:107E780047D078280DD14DE0A1690B988847054671
:107E880025283FF469AFE1690B9888476D1C3FF4DA
:107E98006AAFB3E023466A466FF001000B99AFF36F
:107EA80000809EE045F040006060A80723464FF040
:107EB800000236D43EE0E8077FF447AF2068011D92
:107EC80021600068290501D506701BE7290701D53F
:107ED800068017E7A90703D5F117C0E9006111E784
:107EE80006600FE745F040006060A80723464FF0A2
:107EF800080216D41EE040F60E0125EA0100606073
:107F080016E045F040006060A80723464FF00A02DB
:107F180007D40FE045F040006060A80708D5234665
:107F280010226FF001000B99AFF3008059E007E0D1
:107F3800234610226FF001000B99FFF785FA50E0F5
:107F48004FF000094F464B46632802D05B2806D005
:107F580040E0E80601D40120A06001273AE0626908
:107F68000121019890475E2805D14FF00109626907
:107F7800494601989047216939B900210A46534674
:107F880043F82120491C0829FADBB0B3216969B9F3
:107F9800C11700EBD16253110AEB830122F01F02D3
:107FA800821A01200B68904003430B60626901212B
:107FB800019890475D28E8D1B9F1000F09D0002059
:107FC800514651F82020D24341F82020401C08286F
:107FD800F7DB02AB224600976FF001000B99FFF721
:107FE800D9FA00280CDA401C08D1BBF1000F05D0E3
:107FF8004FF0FF300DB0BDE8F08FFFE74046F9E7DE
:10800800E90701D108F1010806444FF0000B79E6B1
:10801800CCCCCC0C7F2801D9002208E0064A02EB20
:108028005002C007127800D1120902F00F02012095
:1080380090400840704700001003040870B58C1881
:1080480010F8015B15F0070301D110F8013B2A1164
:1080580006D110F8012B03E010F8016B01F8016B51
:108068005B1EF9D12B0705D40023521E0DD401F84D
:10807800013BFAE710F8013BCB1A921C03E013F816
:10808800015B01F8015B521EF9D5A142D8D300204B
:1080980070BD000010B588B040F27840C0F604000A
:1080A80090E80E5044690191018B807E02920393FF
:1080B800CDF810C0CDF814E00694ADF81C108DF87A
:1080C8001E0033F0CBFD01A831F08AFD08B010BDC9
:1080D8002DE9F04186B00FF0FDF90FF005FA40F6F2
:1080E8009000C5F60000016841F4803101600DF090
:1080F80067FD40F6502240F6000340F20047002199
:10810800C0F60402C4F60003C4F600074FF00008E6
:10811800002500200491CDE90211CDE9001104E009
:10812800A68835430131262914D002EBC104A6796B
:10813800002EF7D052F831609E4207D0BE42EFD0F1
:10814800B6F1904FEED1A6883043EBE7A68848EA0F
:108158000608E7E700214C2702910121C5F6000730
:10816800019103210204039121D084B2009438685C
:10817800694640F001003860386800F00100059059
:108188000598D7F8000140F00100C7F80001D7F8BA
:10819800000100F00100059005984FF090400FF0A5
:1081A80091FD4FF09040214600220FF05BFE40F217
:1081B80000442804C4F600041FD0ADB20095386806
:1081C800694640F002003860386800F00200059007
:1081D8000598D7F8000140F00200C7F80001D7F869
:1081E800000100F002000590059820460FF06AFD96
:1081F8002046294600220FF035FE5FEA084022D0CB
:108208001FFA88F50095386804F5806440F004008A
:1082180038603868694600F0040005900598D7F87A
:10822800000140F00400C7F80001D7F8000100F091
:1082380004000590059820460FF044FD2046294685
:1082480000220FF00FFE06B0BDE8F0817047000075
:1082580070470000B0B588B04468B4F80B10A1F5B9
:108268001241072900F2AC81DFE811F00800C200D2
:10827800E400AA01F7000201BE00E20004466846D5
:1082880031F0DAFC9DF800109DF801209DF80230CD
:1082980041F2F430C0F6040037F02AFB9DF80410D0
:1082A80041F2C230C0F6040037F022FB9DF80910F5
:1082B800481E8F2800F2008141F21B72C0F60402AA
:1082C800DFE810F021019000EB000E011301F0002F
:1082D800FF00FA00FA00FA00FA00FA00FA00FA00C1
:1082E800FA00FA00FA00FA00FA00FA00FA00FA00B6
:1082F800FA00FA00FA00FA00FA00FA00FA00FA00A6
:10830800FA00FA00FA00FA00FA00FA00FA00FA0095
:10831800FA00FA00FA00FA00FA00FA00FA00FA0085
:10832800FA00FA00FA00FA00FA00FA00FA00FA0075
:10833800FA00FA00FA00FA00FA00FA00FA00FA0065
:10834800FA00FA00FA00FA00FA00FA00FA00FA0055
:10835800FA00FA00FA00FA00FA00FA00FA00FA0045
:10836800FA0004011D011801FA00FA00FA00FA00E7
:10837800FA00FA00FA00FA00FA00FA00FA00FA0025
:10838800FA00FA00FA00FA00FA00FA00FA00FA0015
:10839800FA00FA00FA00FA00FA00FA00FA00FA0005
:1083A800FA00E100F500FA00FA00FA00FA00FA0013
:1083B800FA00E600DC00FA00FA00FA00FA00FA0017
:1083C800FA00FA00FA00FA00FA00FA00FA00FA00D5
:1083D800FA00FA00FA00FA00FA00FA00FA00FA00C5
:1083E800FA0009019CA28EE0D4F80D1082A03AE0B0
:1083F80041F2A841C0F604010446084637F078FA6D
:10840800646841F23A50617BC0F6040037F070FAB4
:10841800607B002807BF41F22860C0F6040041F2E3
:10842800F150C0F6040008B0BDE8B04037F05ABFBC
:1084380068A01EE041F28950C0F6040037F052FFF0
:10844800D4F80D10D4F8112041F21840C0F60400F9
:1084580008B0BDE8B04037F04BBAD4F80D1041F27F
:108468003E40C0F6040008B0BDE8B04037F040BA5E
:1084780070A008B0BDE8B04037F03ABA41F279626E
:10848800C0F604023FE041F2D962C0F604023AE0C5
:1084980041F26262C0F6040235E041F22F72C0F682
:1084A800040230E041F24972C0F604022BE041F2C6
:1084B800EF62C0F6040226E042F20C22C0F6040283
:1084C80021E041F23972C0F604021CE041F2057263
:1084D800C0F6040217E041F2CA62C0F6040212E0D4
:1084E80041F22472C0F604020DE041F2C062C0F607
:1084F800040208E041F2A762C0F6040203E041F278
:108508009062C0F6040241F2A130C0F6040037F0D0
:10851800EFF99DF80A109DF80B209DF80C3041F2F8
:10852800DE30C0F6040037F0E3F941F26A50C0F6D5
:10853800040037F0DDF9002560680795407B069553
:1085480001280595049534D0E0BB41F2D750C0F618
:10855800040037F0C7FEFFF79DFD0F208DF81000CF
:108568007F2042F200058DF81200CEF2040528683B
:10857800040C41F21950C0F60400214637F0B8F94E
:10858800ADF81C402C6841F2FA406FF31F34C0F676
:108598000400214637F0ACF904A8ADF81E4031F0CC
:1085A80011FB00F031F90120002134F0C9FE08B0B8
:1085B800B0BD41F2C940C0F6040037F099F9257002
:1085C80008B0B0BD41F27640C0F6040037F090F92B
:1085D80008B0B0BD3E3E3D3D20534843495F53552A
:1085E800425F4556545F4E564D5F454E445F455277
:1085F8004153450A0D0000003D3D3E3E5348434966
:108608005F5355425F4556545F4E564D5F53544134
:1086180052545F4552415345203A204E756D62656C
:10862800724F66536563746F7273203D2025750A17
:10863800000000003E3E3D3D20534843495F5355EE
:10864800425F4556545F4E564D5F454E445F575204
:108658004954450A0D000000424C455F4843490013
:1086680080B54AF27870C2F2000010F08BF9BDE8CC
:1086780080402DF00DBE000040F2F020C2F2000054
:1086880090F88000704700002DE9F04116460D462D
:1086980004460FF0EDFB40F25401C2F200010A88D3
:1086A80040F64813A242C2F200030DD11A68821A9A
:1086B800632A09D841F6AB30C0F604002146324699
:1086C800BDE8F04137F014B940F2F028C2F20008D2
:1086D800B8F816200C80002A186018BF944203D0FE
:1086E8002DA0214637F004F90020A8F8160088F8D4
:1086F800800041F6E930C0F60400314637F0F8F85A
:1087080042F26100C0F6040021462A4637F0F0F82C
:108718000FF0AEFB014641F62750C0F6040037F0D3
:10872800E7F813F0F1FB05460EF08AFD06462EF039
:1087380039F898F88030074641F68850C0F60400AA
:108748002946324637F0D4F80FB120A017E00120AF
:1087580000F0BEFB98F88000012808D042F2BA4029
:10876800C0F6040037F0BEFD012000F0B1FB98F818
:108778008000012805D042F29750C0F6040037F077
:10878800B1FD40F24060C2F2000001210170448056
:10879800BDE8F0412FF0DCB93E3E3D3D2044697311
:1087A800636F6E6E6563742068616E646C65206DBE
:1087B80069736D617463683A206576743D30782515
:1087C80078206374783D307825780A003D3D3E3E38
:1087D80020536B6970206C656761637920616476EA
:1087E8006572746973696E672072657374617274F7
:1087F8003A204D657368206F776E732061647665E3
:1088080072746973696E67002DE9F04399B046F296
:108818002430C2F200000921017040F2D85100242E
:10882800C2F200010A5D1AB10134082CFAD10824F9
:1088380040F2D8510130C2F200012246FEF7AFFDE6
:1088480040F2A001601CC2F2000108700EF0E4FCC6
:10885800FF2821D004460FF22050214637F048F86F
:10886800A52C13D10DF09AF802F0A4FF42F265523C
:108878000FF25451C0F60402012888BF1146084679
:1088880037F030FD00200DF09BF805E00FF2105096
:1088980037F028FD0DF082F80EF0D2FC044613F0F4
:1088A80029FB40F29409C5F60009D9F80060804612
:1088B80030462DF013FD0DF03BFDC6F30070C6F3F6
:1088C8004071C6F380758DE8230041F63D50C6F32C
:1088D8008062C6F3C063F70FC0F604003146039701
:1088E80037F006F8D9F8000042F2FB1140F4000016
:1088F800C9F8000042F2BC10C0F60400C0F604013A
:10890800012C08BF014641F64840C0F60400224643
:10891800434636F0EDFF2DF071FC04462DF068FD5E
:1089280005462DF03FFF034641F61C40C0F6040003
:1089380021462A4636F0DCFF40F29440C0F6040097
:1089480090E88E00D0E904650DF1140ED0E906C454
:108958008EE88E00CDE9096500F12007D0E90C65A5
:10896800008F8ECFADF84C0040F22800C2F2030011
:1089780014904DF62120C0F600000DF1340E15902C
:108988004DF645208EE88E00C0F6000014A9CDE90A
:108998000BC41196129536F043F90220012134F0E8
:1089A800CFFC4FF29902C0F603020220002134F0F6
:1089B800FDFC05A831F0F8F848B1014642F29B00E9
:1089C800C0F6040036F094FF0DF0DCFB05E041F63C
:1089D8008870C0F6040036F08BFF0020CDE9140043
:1089E800ADF84E000EF00AFC14900EF007FC42F2AF
:1089F8003B50C0F60400159137F074FC36F0AEFA1F
:108A080038B1014641F6E810C0F6040036F070FFB0
:108A180005E042F29C30C0F6040037F063FCBDF874
:108A2800540040F2A10400BA1499C2F20004000CE8
:108A3800208108BAC4F80A0014AA2E20062135F0AD
:108A48001FFE38B1014641F64910C0F6040036F061
:108A58004FFF19E042F29E20C0F6040037F042FCB6
:108A6800DDE91470C0F30721C2B2C7F30740C7F3AA
:108A78000726CDE9000641F605603B0EFFB2C0F6B9
:108A88000400029736F034FF40F69032C0F6040234
:108A98001820102135F0F4FD38B1014641F6F400F4
:108AA800C0F6040036F024FF05E042F25920C0F673
:108AB800040037F017FC40F68032C0F604020820A4
:108AC800102135F0DDFD38B1014641F69F00C0F6B2
:108AD800040036F00DFF05E042F21420C0F6040051
:108AE80037F000FC01201F2135F0A2FD38B1014606
:108AF80041F6AA10C0F6040036F0FAFE05E042F28C
:108B08006E30C0F6040037F0EDFB35F091FC38B15B
:108B1800014641F64520C0F6040036F0E9FE05E0BE
:108B280042F2D930C0F6040037F0DCFB0DF15E07E5
:108B380018AE0DF16203052000210722CDE9006778
:108B480035F010F938B1014641F61520C0F6040099
:108B580036F0CEFE05E042F2B930C0F6040037F038
:108B6800C1FBBDF86200BDF8601042F2B417C0F650
:108B7800040700220723009735F082FCBDF8620045
:108B8800BDF85E100DF14E0700220223009735F064
:108B980077FC00200221022236F00CF938B1014698
:108BA80041F6FF20C0F6040036F0A2FE05E042F2CE
:108BB8006340C0F6040037F095FB40F2F025C2F29E
:108BC80000050120287035F0A1F938B1014641F6B9
:108BD8003930C0F6040036F08BFE05E042F28D40D5
:108BE800C0F6040037F07EFB40F20110C0F600002A
:108BF8004BF20721C5F801001020C0F20101002244
:108C080008236871A9600127CDE90030CDE9022168
:108C18000120012101220023049735F0EBF838B137
:108C2800014641F67620C0F6040036F061FE05E004
:108C380042F2FA30C0F6040037F054FBA87880B14D
:108C480035F070F838B1014641F6C020C0F604008E
:108C580036F04EFE05E042F23440C0F6040037F02C
:108C680041FB41F6CC70C0F6040036F041FE42F2FA
:108C7800EF20C0F6040037F035FB31F07DFD002011
:108C880085F880004FF6FF7048F60962E882C0F662
:108C980000020120002134F089FB2020A071062069
:108CA80035F0A0FC38B1014641F60F70C0F604005B
:108CB80036F01EFE05E041F65370C0F6040036F0AB
:108CC80017FE0CF093FE0020002603F053FD2EF053
:108CD80007FF4EF24972C0F603024FF480400021AC
:108CE80034F064FB4EF24D74C0F603044FF40040B8
:108CF8000021224634F05AFB05F1830100200022AE
:108D0800234612F08BFC48F6D16305F18101C0F6C9
:108D180000030020002212F081FC4BF6A11305F19C
:108D28008201C0F603030020002212F077FC40F213
:108D38009210C2F200000121017040F29010C2F2BC
:108D480000002E8301702DF02DFD20B142F232304B
:108D5800C0F604000AE0012000F0BAF895F8800097
:108D6800012805D042F2ED40C0F6040037F0BAFA07
:108D780019B0BDE8F08300BF3D3D3E3E204E46435E
:108D880020626F6F74206F70636F64652064657410
:108D980065637465643A203078253032780A0000BB
:108DA8003D3D3E3E204E464320626F6F74206F70FB
:108DB800636F646520756E6B6E6F776E2C20636CC5
:108DC800656172696E6700003D3D3E3E204E464338
:108DD80020626F6F74207265736375653A206D65E4
:108DE80073682070726F766973696F6E696E672039
:108DF80073746F72616765206572617365640000E2
:108E080010B540F2F024C2F2000494F8800005285E
:108E18000CD035F09FF8002184F8801011A10AA227
:108E2800002808BF1146084636F062FD2DF0BAFC4E
:108E380020B115A0BDE8104037F054BA0220BDE8B3
:108E4800104000F045B800BF2A2A2053544F502044
:108E58004144564552544953494E47202A2A202016
:108E68000D0A0D002A2A2053544F502041445645DC
:108E780052544953494E47202A2A20204661696C9A
:108E88006564200D0A0D00003D3D3E3E20536B6990
:108E980070206C6F772D706F7765722061647665CE
:108EA80072746973696E6720726573746172743A5B
:108EB800204D657368206F776E73206164766572E4
:108EC800746973696E6700000120042134F082BB65
:108ED8002DE9F04188B040F29211C2F20001044637
:108EE80040F290100D78C2F200000678002D40F292
:108EF800F02818BF8025002EC2F2000818BFA0264F
:108F0800012C18BF4FF4C86598F8810018BF4FF4BA
:108F18007A6612F0B9FD022C15D198F88000013854
:108F2800012810D835F016F838B1014641F654003A
:108F3800C0F6040036F0DCFC05E042F24E10C0F644
:108F4800040037F0CFF940F2A000C2F20000007828
:108F580098F8181046F22433002708F11902C2F2D3
:108F68000003CDE90070CDE90231CDE904270020E6
:108F7800294632460123069734F078FFC0B10546EA
:108F8800122801D00C2D2DD12DF00CFC58B141F632
:108F9800D540C0F60400294636F0AAFC88F880407F
:108FA80008B0BDE8F08141F68240C0F604001DE03B
:108FB8001FA088F8804037F095F940F2A101C2F26D
:108FC80000010E2035F068F8C8B10146012C12BF27
:108FD80021A041F68D60C0F6040008B0BDE8F0415C
:108FE80036F086BC41F67630C0F60400294636F0E5
:108FF8007FFC002088F8800008B0BDE8F081012CD3
:109008000DD123A036F074FC98F881004EF2460189
:10901800C0F2010108B0BDE8F04112F055BC41F6BC
:10902800E260C0F6040008B0BDE8F04136F060BC6C
:109038003D3D3E3E206163695F6761705F736574A3
:109048005F646973636F76657261626C65202D2059
:1090580053756363657373003D3D3E3E20537461F1
:109068007274204C6F7720506F7765722041647658
:109078006572746973696E67204661696C656420FE
:109088002C20726573756C743A202564200A0D00D3
:109098003D3D3E3E20537563636573733A205374B8
:1090A80061727420466173742041647665727469D4
:1090B80073696E67200A0D0010B503F049FE044677
:1090C800062817D940F2FC1041F20001C2F2000054
:1090D800C1F2020141F2060241F20033C1F2070275
:1090E800C1F2013380E80E004FF6FF718181072C31
:1090F8000DD228E003F02CFE024644F22850C0F6B8
:1091080004000721022336F0F3FB072C1BD303F0DE
:109118001FFE044606280CD940F254203021C2F222
:109128000000C0F201014FF6FF72C0E900120020F2
:1091380006E044F2E550C0F6040036F0D9FB012001
:10914800062C88BF10BD44F2A050C0F6040036F0CB
:10915800CFFB022010BD000010B546F25434C2F215
:109168000004207820B103F06FFE0020207010BDAD
:10917800002004F021FF0EF07BFE0446002004F0DE
:109188001BFF0028FAD00EF073FE001BB0F57A7FA3
:1091980008D94AF6C0404F21C2F20000C0F2AD0122
:1091A800016010BD152838BF10BDBDE8104003F0A0
:1091B8004BBE000041F6685040F60A21C2F200009A
:1091C800C2F2000141F6625200780978C2F2000248
:1091D80012780843104300F00100704702207047DE
:1091E800002200200A8070477047000080B50020E8
:1091F80004F0D2FE002080BD40F2C240C2F200005E
:109208000078704741F66150C2F2000001210170F8
:1092180041F66950C2F200000022027041F66E5217
:10922800C2F200020120117004F0A6BE80B541F61A
:109238006150C2F200000021017041F66E50C2F286
:1092480000000170012004F087FE12F05DFE10B1ED
:1092580003F0DEFD10B303F0DBFDF0B941F6625018
:10926800C2F200000078002808BF80BD40F60A203E
:109278004AF69D41C2F200000122C2F200010978BB
:10928800027042F64030C0F6040036F031FB402050
:109298000021BDE8804034F09DB980BD41F668509A
:1092A800C2F2000001780029F1D141F66251C2F200
:1092B800000101220978027000A0E6E750726F767B
:1092C8006973696F6E696E672073657373696F6E12
:1092D80020636F6D706C65746564202864697363BE
:1092E8006F6E6E6563742C20636F6E6669675F735B
:1092F80065656E3D2575290D0A0000000020704740
:1093080070470000B0B540F25A04C2F20004257854
:1093180003F090FC854209D942F64E40C0F604009D
:1093280036F0E0FFBDE8B04003F084BC20780028A8
:1093380018BFB0BD02A036F0D5FF0120B0BD00BFF8
:109348004E756D626572204F6620456C656D656E61
:109358007473206D7573742062652031206F7220DC
:1093680067726561746572207468616E2031210DC1
:109378000000000001463020C0F2020008604FF4EF
:10938800857200208A80704780B501201F2135F042
:109398004FF9002818BF0120400080BD01464EF655
:1093A8007D40888041F6F850CAF64F60086045F263
:1093B8004B30C5F2A140C1F8060046F23C30C2F27B
:1093C8000000828803680020CA81C1F80A3070470B
:1093D80000207047014601A036F08ABA556E7072B7
:1093E8006F766973696F6E6564204E6F6465204996
:1093F80064656E746966696572207265636569760D
:1094080065643A20253032780A0D0000B0B546F27E
:109418003C35C2F20005E91D00202A4635F0A2F8C5
:1094280018B1014618A036F063FA0DF0E7FE020AFB
:1094380028704FEA112C6A70020C000E2971691EFF
:10944800AA70E870EF2006220B4685F805C000BF19
:1094580013F8014F013A04EB4000F9D10322EA71F5
:10946800EF230622A87100BF11F8014F013A04EB5F
:109478004303F9D1C0B2D9B2081AB0FA80F0400952
:109488004CF0C0016971B0BD4661696C65642074B7
:109498006F2072656164205075626C696320416455
:1094A80064726573732025640000000080B54DF276
:1094B8004932C0F601020420002133F077FF04206E
:1094C800002134F087F84BF63512C0F60002402030
:1094D800002133F06BFF40200021BDE8804034F0CC
:1094E80079B8000080B544F2B420C0F6040036F024
:1094F800F9FE44F21110C0F6040036F0F3FE44F20F
:109508009D10C0F6040036F0EDFE44F2AF10C0F630
:10951800040036F0E7FE44F28A10C0F6040036F084
:10952800E1FE44F25610C0F6040036F0DBFE44F2C9
:109538007710C0F6040036F0D5FE44F26310C0F68A
:10954800040036F0CFFE44F22810C0F6040036F0CE
:10955800C9FE03F057FB014644F22100C0F604009F
:1095680036F0C6F903F040FB014644F21000C0F69D
:10957800040036F0BDF903F05DFB014643F6A67022
:10958800C0F6040036F0B4F903F0E2FB014644F2F9
:109598003200C0F6040036F0ABF903F0C1FB014617
:1095A80043F6C070C0F6040036F0A2F903F0BAFB27
:1095B800014643F69270C0F6040036F099F903F0BC
:1095C80023FB014644F24D00C0F6040036F090F942
:1095D80003F090FB014644F27400C0F6040036F034
:1095E80087F944F24210C0F6040036F07BFE43F6D9
:1095F800DF70C0F604000021012236F079F944F248
:109608005120C0F6040036F06DFE44F2C110C0F6D9
:10961800040036F067FE44F2F710C0F6040036F096
:1096280061FE44F2D910C0F6040036F05BFE44F245
:109638000E20C0F6040036F055FE44F26120C0F654
:10964800040036F04FFE44F23220C0F6040036F033
:1096580049FE07A036F046FE0CA0012136F048F975
:1096680017A036F03FFE1EA0BDE8804036F03ABE97
:109678000A5B496D706F7274616E7420496E666F13
:10968800726D6174696F6E5D200D00004E756D62BC
:109698006572206F6620456C656D656E7473206514
:1096A8006E61626C656420696E204170706C6963DC
:1096B8006174696F6E3A202564200D0A000000006D
:1096C8004E65696768626F7572205461626C6520C7
:1096D800697320656E61626C6564200D000000008E
:1096E8002A2A2A2A2A2A2A2A2A2A2A2A2A2A2A2AD2
:1096F8002A2A2A2A0D0A0D0010B54AF6D840C2F2C5
:109708000000006804212FF06FF804462FF0CCFC0D
:10971800010608BF2046002C18BF2046010608D0C5
:10972800C1B242F6FB20C0F60400BDE8104036F096
:10973800DFB842F69C40C0F60400BDE8104036F0A1
:10974800D1BD000000207047B0B543F29245C0F685
:109758000405284600211C4632F070FF43F23040D1
:10976800C0F60400214636F0C3F82846002132F03E
:1097780065FF02A036F0B6FD0020B0BD23383231B7
:1097880030210D00B0B5B0F9000040F2941203EB9F
:109798004301C2F20002322822F8210040F2AC1044
:1097A8001C46C2F200000CDB47F6F6410180016856
:1097B80042688368042013F04FFA002004F0DCFBB1
:1097C80008E0016842688368022013F045FA002027
:1097D80004F0C2FB43F24125C0F6040528460021E7
:1097E80032F02CFF06A0214636F082F828460021E8
:1097F80032F024FF11A036F075FD0020B0BD00BF87
:1098080047656E657269635F4C6576656C44656C27
:1098180074615F5365742063616C6C6261636B2073
:10982800726563656976656420666F7220656C652C
:109838006D656E74202564200D0A000023383230CF
:1098480039210D00014640F29310C2F20000825CFB
:1098580000200A7070470000014602EB420040F207
:109868009412C2F2000212F8203002EB80000B7052
:1098780042784A7082788A70C2780020CA7070472D
:10988800014602EB820040F2A012C2F20002125C12
:1098980000200A707047000002EB820140F2A0121B
:1098A800C2F200020A445378014603709078487067
:1098B800D078887012790020CA707047014640F24B
:1098C800A610C2F2000010F8122000200A7070479B
:1098D800B0B5B0F900101C4603EB430240F29413F4
:1098E80040F2A81CC2F2000321EAE170C2F2000CA7
:1098F80023F8220040F64212BCF80030C2F20002FF
:10990800108098424FF0000347F6F54298BF0123B4
:1099180091424FF00002C8BF012200251A430029D6
:10992800C8BF012505EA020140F64012C2F2000252
:10993800117047F6FF710022ACF800002FF0A4FF69
:1099480040F2AC13C2F20003188019685A689B6889
:10995800042013F081F943F2A525C0F60405284632
:10996800002132F06BFE43F20020C0F604002146CD
:1099780035F0BEFF2846002132F060FE04A02146E3
:1099880035F0B6FF022021462EF082F80020B0BD47
:10999800233832303621666F7220656C656D656ECE
:1099A80074496E646578202564200D0A0000000063
:1099B80000207047B0B540F2941C1C46016842680C
:1099C800806803EB4303C2F2000C0CEB8305A8602C
:1099D8006A6043F25925C0F604054CF8231028465E
:1099E800002132F02BFE06A0214635F081FF2846E3
:1099F800002132F023FE11A036F074FC0020B0BD27
:109A080047656E657269635F4C6576656C4D6F7608
:109A1800655F5365742063616C6C6261636B20726F
:109A28006563656976656420666F7220656C656D2F
:109A3800656E74202564200D0A000000233832303A
:109A48004221200D0000000070B51C46002B47D1B4
:109A5800027840F2A016B0F8013001F0FE05C2F21B
:109A68000006022D3270A6F8013015D140F2AC156F
:109A7800C2F200052B8029686A68AB680546042095
:109A880013F0EAF8B5F80310B6F80100A6F80310C9
:109A9800884225D108BB0FE0012908BF012A0FD051
:109AA80040F2AC10C2F20000012101800168426856
:109AB8008368022013F0D0F8002004F04DFA0FE07C
:109AC80040F2AC10C2F2000047F6F641018001688E
:109AD80042688368042013F0BFF8002004F04CFAB1
:109AE80043F27025C0F604052846002132F0A6FD91
:109AF80043F27910C0F60400214635F0F9FE2846F5
:109B0800002132F09BFD05A0214635F0F1FE012031
:109B180021462DF0BDFF002070BD00BF2338323034
:109B28003221666F7220656C656D656E74496E646E
:109B38006578202564200D0A000000002DE9F04F0B
:109B480081B043F2BD47C0F604070C46804638464C
:109B580000211E4632F072FD1CA0314635F0C8FEC9
:109B68003846002132F06AFD27A036F0BBFB44B32B
:109B780043F2BD4608F1020B08F1010A0025C0F6C0
:109B880004060EE0D94629A73046002132F056FDDA
:109B980099F80010384635F0ABFE0135E8B284423A
:109BA8000FD9E8B250B10228ECD00128F5D143F220
:109BB8007947D146C0F60407E6E700BFC14614A7B7
:109BC800E2E7002001B0BDE8F08F00BF47656E6591
:109BD8007269635F4F6E4F66665F53746174757325
:109BE8002063616C6C6261636B2072656365697682
:109BF800656420666F7220656C656D656E742025DE
:109C080064200D0A000000002338323034210D0092
:109C180050726573656E74204F6E4F66662076616C
:109C28006C75653A2025640A0D00000052656D6167
:109C3800696E696E672054696D652076616C75651B
:109C48003A2025640A0D000070B5007840F2A61687
:109C580043F28825C2F20006C0F6040526F8130070
:109C6800284600211C4632F0E9FC0EA0214635F0BA
:109C78003FFE2846002132F0E1FC43F2BA10C0F65C
:109C88000400214635F034FE36F81400012805D1C9
:109C980045F27C20C2F2000001210170FFF7A4FA0E
:109CA800002070BD23383231332120666F72206561
:109CB8006C656D656E74496E646578202564200D49
:109CC8000A0000002DE9F04143F2D847C0F6040726
:109CD8000C460546384600211E4632F0AFFC12A05D
:109CE800314635F005FE3846002132F0A7FC1EA0AB
:109CF80036F0F8FAACB143F2D8480026C0F60408AA
:109D08001BA703E00136F0B284420AD93006F9D124
:109D18004046002132F092FC2978384635F0E8FDBB
:109D2800F0E70020BDE8F08147656E657269635F02
:109D3800506F7765724F6E4F66665F5374617475C6
:109D4800732063616C6C6261636B20726563656923
:109D580076656420666F7220656C656D656E74202B
:109D68002564200D0A0000002338323132210D000D
:109D78004F6E20506F7765722075702076616C7514
:109D8800653A2025640A0D0070B5018842880446AA
:109D980018A035F0ADFD617B43F67210C0F60400E3
:109DA80035F0A6FD607B002808BF01F029FD607B27
:109DB800002818BF70BD1FA035F09AFD207B88B120
:109DC80043F680650026C0F6040500BFA068017848
:109DD800284635F08DFDA068217B013601308E4282
:109DE800A060F3D344F27720C0F60400BDE87040C9
:109DF80036F078BA4170704B6579204164642072FE
:109E08006563656976656420666F72206E65744B5C
:109E18006579496E64657820252E32782C2061702A
:109E2800704B6579496E64657820252E3278200D4F
:109E38000A0000004170704B65792069733A200070
:109E480010B582B00446007A002808BF01F0D8FC9B
:109E5800217862686388247A43F6E540C0F60400F6
:109E6800009435F045FD02B010BD000010B5044661
:109E78000188428843F6F750C0F6040035F038FDF3
:109E8800617B43F67210C0F6040035F031FD607B4B
:109E9800002818BF10BDBDE8104001F0B1BC00009B
:109EA80070B50188044619A035F022FDA17A43F661
:109EB8007210C0F6040035F01BFDA07A002808BF18
:109EC80001F09EFCA07A002818BF70BD19A036F0DA
:109ED80009FA208988B143F680650026C0F6040592
:109EE80060680188284635F003FD606801362189DD
:109EF800F2B2023091426060F2D844F27720C0F6A4
:109F08000400BDE8704036F0EDB900BF4170702024
:109F18004B6579204C69737420666F72206E657486
:109F28004B6579496E64657820252E3278206973EF
:109F3800200D0A004170704B657920496E64657880
:109F48006573206172653A200D00000010B582B07B
:109F58000446007A002808BF01F052FC21786268A4
:109F68006388247A43F64C50C0F60400009435F018
:109F7800BFFC02B010BD000070B5044601884288DD
:109F880043F6B550C0F6040035F0B2FC617B43F6E9
:109F98007210C0F6040035F0ABFC607B002808BFE7
:109FA80001F02EFC607B002818BF70BD10A035F0B2
:109FB8009FFC207B80B143F680650026C0F604052F
:109FC800A0680178284635F093FCA068217B01360B
:109FD80001308E42A060F3D344F27720C0F604002B
:109FE80036F080F907A0BDE8704036F07BB900BFB5
:109FF80055706461746564204170704B657920699F
:10A00800733A200049742077696C6C20626520726D
:10A0180065706C61636564206279206F6C6420618F
:10A0280070704B6579206166746572204B65792084
:10A0380052656672657368200D00000070B501886E
:10A04800044618A035F054FC617B43F67210C0F644
:10A05800040035F04DFC607B002808BF01F0D0FB00
:10A06800607B002818BF70BD1AA035F041FC207B2A
:10A0780080B143F680650026C0F604056068017863
:10A08800284635F035FC6068217B013601308E4268
:10A098006060F3D344F27720C0F60400BDE8704056
:10A0A80036F020B94E6574204B65792041646420F0
:10A0B800726563656976656420666F72206E657483
:10A0C8004B6579496E64657820252E3278200D0A13
:10A0D800000000004E65744B65792069733A2000D2
:10A0E80010B50188044609A035F002FC617B43F6EF
:10A0F8007210C0F6040035F0FBFB607B002818BF27
:10A1080010BDBDE8104001F07BBB00BF4E65742058
:10A118004B65792044656C65746520726563656973
:10A1280076656420666F72206E65744B6579496E3A
:10A13800646578202564200D0A00000070B5044687
:10A14800817943F67210C0F6040035F0D1FBA0798E
:10A15800002808BF01F054FB0FA036F0C3F8A08810
:10A1680088B143F680650026C0F60405206801889A
:10A17800284635F0BDFB20680136A188F2B20230CE
:10A1880091422060F2D844F27720C0F60400BDE87E
:10A19800704036F0A7B800BF4E65744B657920490A
:10A1A8006E6465786573206172653A200D00000061
:10A1B80070B5018804461AA035F09AFB617B43F616
:10A1C8007210C0F6040035F093FB607B002808BFCE
:10A1D80001F016FB607B002818BF70BD1CA035F08D
:10A1E80087FB207B80B143F680650026C0F6040516
:10A1F80060680178284635F07BFB6068217B013672
:10A2080001308E426060F3D344F27720C0F6040038
:10A2180036F068F813A0BDE8704036F063B800BFA8
:10A228004E6574204B6579205570646174652072A1
:10A238006563656976656420666F72206E65744B28
:10A248006579496E646578202564200D0A00000050
:10A2580055706461746564204E65744B6579206936
:10A26800733A000049742077696C6C20626520722B
:10A2780065706C61636564206279206F6C64206E20
:10A2880065744B6579206166746572204B65792029
:10A2980052656672657368200D000000B0B586B01F
:10A2A8000446417C43F67210C0F6040035F020FBEA
:10A2B800607C002808BF01F0A3FA6089217B22781E
:10A2C800636894F80EC094F80FE0257C647B8DE8F1
:10A2D800015043F68610C0F604000395049435F047
:10A2E80007FB06B0B0BD000010B50446416802780F
:10A2F80043F6A140C0F6040035F0FAFA6168B1F5FA
:10A30800885F18BF10BD2046BDE8104030F0E0BBA4
:10A3180010B50446817A43F67210C0F6040035F091
:10A32800E7FAA07A002808BF01F06AFA94F80BC08F
:10A3380043F6872021786268238943F6E124C0F632
:10A348000400C0F60404BCF1000F08BF2046BDE8B5
:10A35800104035F0CDBA000010B50446817A43F6B6
:10A368007210C0F6040035F0C3FAA07A002808BFBE
:10A3780001F046FAE07A50B121786268238943F601
:10A388003330C0F60400BDE8104035F0B1BA207B88
:10A398002178626838B143F63960C0F60400BDE838
:10A3A800104035F0A5BA238943F69430C0F604006E
:10A3B800BDE8104035F09CBA10B50446817A43F6E2
:10A3C8007210C0F6040035F093FAA07A002808BF8E
:10A3D80001F016FA94F80BC043F6E9302178626868
:10A3E800238943F64944C0F60400C0F60404BCF1CE
:10A3F800000F08BF2046BDE8104035F079BA0000CC
:10A4080045F60471C2F200010A6802700A68120A6D
:10A4180042704A888270CA78C2700020086070470B
:10A4280010B54DF21162C0F603020820002132F087
:10A43800BDFF47F2B814C2F200044DF21963C0F62A
:10A44800030300202146002211F0E8F820784CF29E
:10A458005821C0F2120111F037FA31F00DF849F223
:10A468006112C0F6000280200021BDE8104032F0E1
:10A478009DBF0000B0B540F2AA14C2F2000401204A
:10A4880020700020002503F077FD4FF4FA700DF0DE
:10A49800F3F90020257003F05FFD4FF4FA700DF01A
:10A4A800EBF90020B0BD000040F2AA10C2F2000093
:10A4B800007810B1002003F05FBD002003F04CBD10
:10A4C800002070472DE9F04F81B043F63217C0F6EF
:10A4D80004070C460546384600211E4632F0AEF801
:10A4E80024A0314635F004FA3846002132F0A6F8A7
:10A4F8002FA035F0F7FE002C38D043F6321B43F27C
:10A5080082780027C0F6040BC0F604080FF2C009D1
:10A518000FF2A40A002605E00A4635F0E9F90136EB
:10A52800B44223D0052EFAD8DFE806F00C030C1746
:10A538000C0E5846002132F081F8687847EA00216D
:10A548004046E9E7AF5DEAE75846002132F076F881
:10A55800687947EA00215046DEE75846002132F084
:10A568006DF8E87847EA00214846D5E7002001B0B1
:10A57800BDE8F08F4C696768745F43746C5F44652D
:10A588006661756C745374617475732063616C6C67
:10A598006261636B20726563656976656420666FC6
:10A5A8007220656C656D656E74202564200D0A0047
:10A5B8002338323638210D0044656C7461205556B5
:10A5C8003A203078257820282564290A0D000000D3
:10A5D80054656D70657261747572653A20307825BE
:10A5E8007820282564290A0D000000000020704703
:10A5F8002DE9F04F81B043F2BC77C0F604070C4652
:10A608000546384600211E4632F018F843F2F84055
:10A61800C0F60400314635F06BF93846002132F0B7
:10A628000DF823A035F05EFE002C3DD043F2BC7B34
:10A6380043F2266A43F21B7843F2A4690027C0F666
:10A64800040BC0F6040AC0F60408C0F60409002684
:10A6580004E000BFAF5D0136B44225D086B126F0D4
:10A6680002000128F6D0042E11D0022EF3D158464C
:10A67800002131F0E3FFA87847EA002148460FE0BF
:10A688005846002131F0DAFF2978504608E058464C
:10A69800002131F0D3FF287947EA0021404600BF66
:10A6A8000A4635F025F9D6E7002001B0BDE8F08F5D
:10A6B8002338323633210D00002070472DE9F04F42
:10A6C80081B043F62307C0F604070C460546384612
:10A6D80000211E4631F0B2FF34A0314635F008F9AA
:10A6E8003846002131F0AAFF40A035F0FBFD002CD0
:10A6F80057D043F6230643F25B6A43F23F674FF0B5
:10A708000008C0F60406C0F6040A0FF2E80BC0F60B
:10A7180004074FF0000906E00A4635F0E9F809F1A8
:10A7280001094C453DD0B9F1080FF8D8DFE809F028
:10A738000E2D0E110E1D0E0526003046002131F09B
:10A748007DFFE87948EA00215846E5E715F80980D1
:10A75800E5E73046002131F071FFE87848EA00214A
:10A7680043F20460C0F60400D6E73046002131F019
:10A7780065FF687948EA00215046CDE73046002158
:10A7880031F05CFF297A3846C6E73046002131F0BF
:10A7980055FF687848EA002143F27F60C0F604005C
:10A7A800BAE7002001B0BDE8F08F00BF4C696768C8
:10A7B800745F43746C54656D70657261747572650D
:10A7C8005F5374617475732063616C6C6261636B51
:10A7D80020726563656976656420666F7220656CB2
:10A7E800656D656E74202564200D0A0023383236A5
:10A7F80036210D005461726765742043544C20441F
:10A80800656C74612055563A2030782578202825C3
:10A8180064290D0A00000000002070472DE9F04F60
:10A8280081B043F67607C0F604070C46054638465D
:10A8380000211E4631F002FF33A0314635F058F8AA
:10A848003846002131F0FAFE3DA035F04BFD002CD2
:10A8580055D043F6760643F25B6B4FF00008C0F61E
:10A8680004060FF2001AC0F6040B37A74FF00009D0
:10A8780007E000BF0A4635F03BF809F101094C45ED
:10A888003DD0B9F1080FF8D8DFE809F00E2D0E1108
:10A898000E1D0E0526003046002131F0CFFEE87966
:10A8A80048EA00215846E5E715F80980E5E730460B
:10A8B800002131F0C3FEE87848EA002143F27F60C6
:10A8C800C0F60400D6E73046002131F0B7FE6879BB
:10A8D80048EA00215046CDE73046002131F0AEFE6F
:10A8E800297A3846C6E73046002131F0A7FE687855
:10A8F80048EA002143F2BB60C0F60400BAE7002032
:10A9080001B0BDE8F08F00BF4C696768745F43749D
:10A918006C5F5374617475732063616C6C626163FE
:10A928006B20726563656976656420666F72206561
:10A938006C656D656E74202564200D0A00000000AA
:10A948002338323630210D0052656D61696E696EAB
:10A95800672054696D653A30782578202825642960
:10A968000D0A00005461726765742043544C204CF2
:10A97800696768746E6573733A2030782578202883
:10A988002564290D0A000000002070470020704748
:10A998000020704700207047002070470020704753
:10A9A8000020704700207047002070470020704743
:10A9B800002070470020704740F21001C2F20001E9
:10A9C8000B2312FB031213790146037052790020FE
:10A9D8004A70704740F21001C2F200010B2312FBCB
:10A9E8000312937801460370D27800204A707047AA
:10A9F800014640F25C20C2F2000010F8123000EB71
:10AA080042000B7040780B23487040F21000C2F2ED
:10AA1800000012FB030082788A70C2780020CA7096
:10AA28007047000040F21001C2F200010B2312FB34
:10AA38000312937901460370D0794870107A8870B0
:10AA4800507AC870927A00200A71704740F2100C50
:10AA58000B230146C2F2000C02FB03F01CF80000B5
:10AA680012FB03C208705078487090788870D278CA
:10AA78000020CA7070470000002070472DE9F04F91
:10AA880081B043F61417C0F604070C46054638464D
:10AA980000211E4631F0D2FD24A0314634F028FFB3
:10AAA8003846002131F0CAFD2FA035F01BFC002CE0
:10AAB80038D043F6141B43F282780027C0F6040B03
:10AAC800C0F604080FF2C0090FF2A40A002605E038
:10AAD8000A4634F00DFF0136B44223D0052EFAD8C9
:10AAE800DFE806F00C030C170C0E5846002131F075
:10AAF800A5FD687847EA00214046E9E7AF5DEAE747
:10AB08005846002131F09AFD687947EA00215046FD
:10AB1800DEE75846002131F091FDE87847EA002148
:10AB28004846D5E7002001B0BDE8F08F4C6967685A
:10AB3800745F48736C44656661756C745F537461C7
:10AB48007475732063616C6C6261636B20726563FA
:10AB5800656976656420666F7220656C656D656EE3
:10AB680074202564200D0A002338323743210D0054
:10AB780053617475726174696F6E3A203078257804
:10AB880020282564290A0D004875653A2030782563
:10AB98007820282564290A0D00000000002070474D
:10ABA8002DE9F04F81B043F64507C0F604070C467F
:10ABB8000546384600211E4631F040FD28A03146A2
:10ABC80034F096FE3846002131F038FD32A035F0D9
:10ABD80089FB002C3FD043F6450B00276FF0020697
:10ABE800C0F6040B0FF2B8090FF2CC0A4FF00008B8
:10ABF80006E000BF15F8087008F1010844452AD09E
:10AC080018EA060FF6D0B8F1040F17D0B8F1030F01
:10AC18000BD0B8F1010FEFD15846002131F00EFDED
:10AC2800687847EA0021504611E05846002131F083
:10AC380005FDE87847EA0021484608E05846002123
:10AC480031F0FCFC297943F24B70C0F604000A4647
:10AC580034F04EFED0E7002001B0BDE8F08F00BF11
:10AC68004C696768745F48736C4875655F537461B5
:10AC78007475732063616C6C6261636B20726563C9
:10AC8800656976656420666F7220656C656D656EB2
:10AC980074202564200D0A002338323731210D0035
:10ACA800546172676574204875653A203078257854
:10ACB80020282564290A0D0050726573656E74207A
:10ACC8004875653A203078257820282564290A0DAA
:10ACD80000000000002070472DE9F04F81B043F6D6
:10ACE8000707C0F604070C460546384600211E46ED
:10ACF80031F0A4FC33A0314634F0FAFD3846002187
:10AD080031F09CFC3EA035F0EDFA002C55D043F60E
:10AD1800070643F2997A4FF00008C0F60406C0F619
:10AD2800040A0FF2081B38A74FF0000907E000BF1C
:10AD38000A4634F0DDFD09F101094C453DD0B9F171
:10AD4800080FF8D8DFE809F02F0E110E1D0E050EBA
:10AD580026003046002131F071FCA87948EA00212C
:10AD68005846E5E715F80980E5E73046002131F057
:10AD780065FCA87848EA002143F26770C0F6040031
:10AD8800D6E73046002131F059FC287948EA0021FD
:10AD98005046CDE73046002131F050FC287A48EA89
:10ADA80000213846C4E73046002131F047FC2978B5
:10ADB80043F23270C0F60400BAE7002001B0BDE8E3
:10ADC800F08F00BF4C696768745F48736C52616E9E
:10ADD80067655F5374617475732063616C6C62613D
:10ADE800636B20726563656976656420666F72209F
:10ADF800656C656D656E74202564200D0A00000081
:10AE08002338323745210D005361747572617469B6
:10AE18006F6E2052616E6765204D61783A203078F8
:10AE2800257820282564290A0D00000053617475CF
:10AE3800726174696F6E2052616E6765204D696E2C
:10AE48003A203078257820282564290A0D0000004A
:10AE5800002070472DE9F04F81B043F68D07C0F60A
:10AE680004070C460546384600211E4631F0E6FB2D
:10AE780028A0314634F03CFD3846002131F0DEFB95
:10AE880034A035F02FFA002C3FD043F68D0B002765
:10AE98006FF00206C0F6040B0FF2C0090FF2DC0ACD
:10AEA8004FF0000806E000BF15F8087008F1010827
:10AEB80044452AD018EA060FF6D0B8F1040F17D087
:10AEC800B8F1030F0BD0B8F1010FEFD158460021AC
:10AED80031F0B4FB687847EA0021504611E0584643
:10AEE800002131F0ABFBE87847EA0021484608E04A
:10AEF8005846002131F0A2FB297943F24B70C0F685
:10AF080004000A4634F0F4FCD0E7002001B0BDE8A4
:10AF1800F08F00BF4C696768745F48736C53617445
:10AF280075726174696F6E5F5374617475732063B1
:10AF3800616C6C6261636B207265636569766564D8
:10AF480020666F7220656C656D656E7420256420BF
:10AF58000D0A00002338323735210D00546172671D
:10AF680065742053617475726174696F6E3A20302C
:10AF780078257820282564290A0D00005072657309
:10AF8800656E742053617475726174696F6E3A20CE
:10AF98003078257820282564290A0D00002070477C
:10AFA8002DE9F04F81B043F65F07C0F604070C4661
:10AFB8000546384600211E4631F040FB2AA031469E
:10AFC80034F096FC3846002131F038FB34A035F0D7
:10AFD80089F9002C44D043F65F0643F24B7B0027E7
:10AFE800C0F604060FF2DC090FF2BC0AC0F6040B27
:10AFF8004FF0000806E00A4634F07AFC08F1010830
:10B0080044452DD0B8F1060FF8D8DFE808F00D0454
:10B018000D200D1019003046002131F00FFB687823
:10B0280047EA00212DA0E6E715F80870E6E7304664
:10B03800002131F003FB687947EA00215046DAE73E
:10B048003046002131F0FAFAA9795846D3E730465C
:10B05800002131F0F3FAE87847EA00214846CAE7C8
:10B06800002001B0BDE8F08F4C696768745F4873D1
:10B078006C5F5374617475732063616C6C62616397
:10B088006B20726563656976656420666F722065FA
:10B098006C656D656E74202564200D0A0000000043
:10B0A8002338323738210D0048534C2053617475CA
:10B0B800726174696F6E3A2030782578202825648B
:10B0C800290A0D0048534C204875653A20307825E8
:10B0D8007820282564290A0D0000000048534C20D8
:10B0E8004C696768746E6573733A203078257820E8
:10B0F800282564290A0D0000B0B5054600881C46BD
:10B1080000284FF0000002D002F036FF01E002F004
:10B1180023FF40F210012888C2F200010B2243F2FB
:10B12800EF3514FB0211C0F604058880284600217B
:10B1380031F084FA09A035F0D5F82846002131F01D
:10B148007DFA43F24930C0F60400214634F0D0FBC2
:10B15800032021462CF09CFC0020B0BD233832355A
:10B168003921200D000000002DE9F04381B043F69D
:10B17800EF07C0F604070C460546384600211E4670
:10B1880031F05CFA43F2C150C0F60400314634F0A5
:10B19800AFFB3846002131F051FA43F2B470C0F6E3
:10B1A800040035F09FF8ECB143F6EF080026C0F62E
:10B1B80004080FF2380900270EE000BF40460021BE
:10B1C80031F03CFA687846EA002148460A4634F0ED
:10B1D8008FFB0137BC4205D0012FEFD0002FF8D1EB
:10B1E8002E78F6E7002001B0BDE8F0834C69676867
:10B1F800746E6573732044656661756C743A2030AB
:10B2080078257820282564290D0A0000B0B540F279
:10B218001002B0F80700C2F200020B2343F21144F7
:10B2280011FB0325C0F6040468802046002131F094
:10B2380005FA06A034F05CFB2046002131F0FEF947
:10B24800698805A034F054FB0020B0BD233832359E
:10B2580039210A0D000000004170706C695F4C696B
:10B268006768745F4C696768746E6573735F4C6177
:10B2780073745F536574204C69676874204C6173FC
:10B28800742056616C7565203078252E3278200D33
:10B298000A0000002DE9F04381B043F65017C0F6CC
:10B2A80004070C460546384600211E4631F0C6F90B
:10B2B80017A0314634F01CFB3846002131F0BEF9A6
:10B2C80043F2B470C0F6040035F00CF8E4B143F66C
:10B2D80050180026C0F604080FF2740900270DE084
:10B2E8004046002131F0AAF9687846EA002148462C
:10B2F8000A4634F0FDFA0137BC4205D0012FEFD0E1
:10B30800002FF8D12E78F6E7002001B0BDE8F083D1
:10B318004C696768745F4C696768746E6573735FBE
:10B328004C6173745F5374617475732063616C6CE2
:10B338006261636B20726563656976656420666F18
:10B348007220656C656D656E74202564200D0A0099
:10B358004C696768746E657373204C6173743A2026
:10B368003078257820282564290D0A00B0B5408852
:10B3780040F25C2143F2B435C2F20001C0F6040584
:10B3880021F81300284600211C4631F057F943F2F2
:10B398000630C0F60400214634F0AAFA28460021F7
:10B3A80031F04CF902A034F0A3FA0020B0BD00BF80
:10B3B8002338323530210A0D000000002DE9F04F06
:10B3C80081B043F6AE07C0F604070C46054638467A
:10B3D80000211E4631F032F943F27F50C0F60400D6
:10B3E800314634F085FA3846002131F027F926A095
:10B3F80034F078FF002C42D043F6AE0B43F2DE69FE
:10B4080043F2FC6A00276FF00206C0F6040BC0F690
:10B418000409C0F6040A4FF0000805E015F80870A2
:10B4280008F1010844452AD018EA060FF6D0B8F109
:10B43800040F17D0B8F1030F0BD0B8F1010FEFD1FB
:10B448005846002131F0FAF8687847EA002150465A
:10B4580011E05846002131F0F1F8E87847EA002178
:10B46800484608E05846002131F0E8F8297943F2C7
:10B478003F60C0F604000A4634F03AFAD0E70020EC
:10B4880001B0BDE8F08F00BF2338323532210D00FE
:10B49800B0B540F210021C460178C2F200020B233C
:10B4A80014FB03229171D0F8010043F29435C0F6E1
:10B4B8000405C2F807002846002131F0BFF808A0AB
:10B4C80034F016FA2846002131F0B8F843F2BD20CE
:10B4D800C0F60400214634F00BFA0020B0BD00BFCE
:10B4E800233832354221200A0D0000002DE9F04FA3
:10B4F80081B043F2E477C0F604070C4605463846A7
:10B5080000211E4631F09AF843F23E50C0F604007E
:10B51800314634F0EDF93846002131F08FF823A098
:10B5280034F0E0FE002C3DD043F2E47B43F2266A7F
:10B5380043F21B7843F2A4690027C0F6040BC0F657
:10B54800040AC0F60408C0F60409002604E000BF97
:10B55800AF5D0136B44225D086B126F0020001283D
:10B56800F6D0042E11D0022EF3D15846002131F026
:10B5780065F8A87847EA002148460FE058460021B8
:10B5880031F05CF82978504608E05846002131F03F
:10B5980055F8287947EA0021404600BF0A4634F0AA
:10B5A800A7F9D6E7002001B0BDE8F08F233832357F
:10B5B80038210D00F0B581B043F2D536C0F6040647
:10B5C8000546304600211C46002731F037F827A0F1
:10B5D80034F08EF93046002131F030F82A88B5F879
:10B5E800073025A0214634F083F940F2100128885D
:10B5F800C2F200010B2214FB02136243885240F688
:10B60800421240F2B816B5F80710C2F20002C2F2B0
:10B618000006002818BF0146128835885980AA42BA
:10B628004FF0000147F6F54398BF01219A4288BFC1
:10B6380001273943002A328018BF0122114040F601
:10B648004012C2F2000211704FF6FF7100222EF074
:10B658001BF940F2AC11C2F2000108800320214618
:10B668002CF016FA002001B0F0BD00BF23383234A8
:10B6780043210A0D00000000456C656D656E74205D
:10B68800696E6465782025642070726573656E74D0
:10B69800203078252E3278206C617374203078251C
:10B6A8002E32780D0A0000002DE9F04F81B043F6E4
:10B6B800D207C0F604070C460546384600211E4648
:10B6C80030F0BCFF2AA0314634F012F93846002188
:10B6D80030F0B4FF35A034F005FE002C43D043F61B
:10B6E800D20B43F2DE6943F2FC6A00276FF00206D0
:10B6F800C0F6040BC0F60409C0F6040A4FF00008AF
:10B7080006E000BF15F8087008F1010844452AD082
:10B7180018EA060FF6D0B8F1040F17D0B8F1030FE6
:10B728000BD0B8F1010FEFD15846002130F086FF59
:10B73800687847EA0021504611E05846002130F069
:10B748007DFFE87847EA0021484608E0584600218E
:10B7580030F074FF297943F23F60C0F604000A46CE
:10B7680034F0C6F8D0E7002001B0BDE8F08F00BF84
:10B778004C696768745F4C696768746E6573735F5A
:10B788005374617475732063616C6C6261636B20C0
:10B79800726563656976656420666F7220656C659D
:10B7A8006D656E74202564200D0A0000233832343C
:10B7B80045210D00B0B54AF6D840C2F20000006835
:10B7C80004212DF011F805462DF06EFC0446000604
:10B7D80008BF2C46002D18BF2C46200608D042F67C
:10B7E800FB20E1B2C0F6040034F082F8E0B2B0BD4C
:10B7F80042F69C40C0F6040034F074FDE0B2B0BDDF
:10B8080080B510F081FB50B101F002FB002818BF91
:10B8180080BD41F66250C2F200000121017080BD76
:10B8280080B510F071FB18B310F074FB00B341F64B
:10B838006950C2F200000178002918BF80BD0121BB
:10B8480001700BF0FDFC012802D003200AF0B8F8C3
:10B858000AA034F047FD002000212AF01DFE40B95F
:10B8680042F6EE40C0F60400BDE8804034F03ABD30
:10B8780080BD64200CF000F832F00AFA50726F763E
:10B888006973696F6E696E672073657373696F6E2C
:10B898002074696D656F75743A2072657475726E7F
:10B8A80020746F206C656761637920474154540D9B
:10B8B8000000000081B08DF803004AF6C440C2F2CF
:10B8C80000000068406801B070470000B0B583B060
:10B8D80094468E46044609980899079A02948DF86A
:10B8E80007E08DF806C0ADF80430ADF802208DF8F9
:10B8F80001108DF8000002990120087002990020BB
:10B908004870029988700299C8700299087103B04A
:10B91800B0BD000081B08DF803004AF6C440C2F201
:10B9280000000068006901B070470000B0B541F63A
:10B938006854C2F20004207840F60A25C2F20005D5
:10B9480020B9287810B9FFF76BFF11E02CF0F8FF49
:10B958004AF69D41C2F200010978024608430006F2
:10B968000CD042F61230C9B2C0F6040033F0C0FF62
:10B9780040200021BDE8B04031F02CBE10F0C4FAE0
:10B9880088B100202070287001202FF0E7FF0220E6
:10B9980000212AF081FDC0B942F6A840C0F6040093
:10B9A80034F0A0FCCFE728780128CCD141F66251C9
:10B9B8000020C2F2000128702070087007A034F03F
:10B9C80091FCBDE8B0402AF097BE12A034F08AFC82
:10B9D800FA200BF051FF32F05BF900BF4D65736838
:10B9E80020636F6E66696775726174696F6E206334
:10B9F8006F6D6D69747465643A20636F6E74726FED
:10BA08006C6C65642050726F78792072657374610C
:10BA180072740D0050726F766973696F6E696E6724
:10BA280020636F6D6D69747465643A207265626F26
:10BA38006F7420746F204D657368206F7065726134
:10BA480074696F6E616C0D0041F66E50C2F20000B1
:10BA58000078002818BF704780B501F0ADFD0A20B6
:10BA68000BF00AFFFDF748FE002009F0A9FF42F697
:10BA78002540C0F6040034F035FC01F0C5FB32F077
:10BA880007F9000080B582B08DF807004AF6CC406F
:10BA9800C2F20000006801699DF80700884702B0FB
:10BAA80080BD00002DE9F04F8FB0834600284FF08D
:10BAB800030000F013810D46002900F00F8140F2C9
:10BAC80090389BF800A045F24029C2F200080120F6
:10BAD800C2F20009A8F800008FA0002189F800A090
:10BAE800002730F0ABFD9BF8001091A02A4633F0F8
:10BAF800FFFE94A6002400BF1BF80710304633F061
:10BB0800F7FE0134A7B2BD42F6D842F2CE00C0F625
:10BB1800040033F0EDFEAAF1010127294FF00100DE
:10BB280000F2DC80DFE811F02800DA00DA00DA0041
:10BB3800DA00DA00DA00DA00DA00DA00DA00DA002D
:10BB4800DA00DA00DA00990093009000DA00DA00EF
:10BB5800DA00DA00DA00DA00DA00DA00DA00DA000D
:10BB6800DA00DA00DA0047006D00A800B300D2005E
:10BB7800BA0036007A0059003C2D00F2B78045F231
:10BB88004020C2F2000059462A46FBF7D6FBA8F827
:10BB98000050A2E00BF07CFB0446FBF70CFCC5B29E
:10BBA800102D28BF102509F1010021462A46FBF770
:10BBB800C4FB681C8FE0022DC0F098809BF8010040
:10BBC80069468DF800004AF6BC00C2F20000012266
:10BBD8004FF47A730EF084FC7FE0012D40F08680EC
:10BBE80068462AF013FB012089F80100BDF800001F
:10BBF800DDF80210029AA9F802000C20C9E9011226
:10BC080069E0032D72D39BF8010004287CD0032837
:10BC18006CD19BF802002FF01BFE5EE0052D60D171
:10BC2800DBF8011003202AF037FC002862D000203E
:10BC380089F80100DBF80100C9F802000620A8F81D
:10BC480000002AF059FD48E00BF0A2FA40E06846EF
:10BC58003B210BF0BBFA30B952E068463B210BF0B0
:10BC68009DFA00284CD0044609F101006946224695
:10BC7800FBF763FB601C2EE0022D37D39BF8010015
:10BC8800042846D0032831D10BF0F6FA20E0022D23
:10BC98002CD39BF801002FF073FD1EE0A5F11200D4
:10BCA80010F1100F22D3681E00216C468DF8101079
:10BCB800CDE90211CDE900110BF10101C2B2204614
:10BCC800FBF73BFB20462FF003FE06E00BF09EFA45
:10BCD80089F801000220A8F8000000200FB0BDE894
:10BCE800F08F89F801000220A8F8000003200FB0A7
:10BCF800BDE8F08F042089F801000220A8F80000B0
:10BD080001200FB0BDE8F08F9BF802002FF0C0FDB6
:10BD1800E3E70BF0B7FADBE74170706C695F5665D3
:10BD28006E646F725F446174615F777269746500F5
:10BD38002330452D2530326878202530326C782123
:10BD4800200A0D0025303268782000002DE9F04FD8
:10BD580083B00546067845F24020C2F2000006701E
:10BD680042F64C60C0F604000021002430F066FC66
:10BD7800297853A033F0BCFD701E032800F29A8086
:10BD8800DFE800F002084C9940F29030C2F200005F
:10BD980002218CE000F030FF04783CB342F64C6896
:10BDA800471C00250DF102090FF23C1AC0F60408E1
:10BDB8000FF2481B13E000BFE0B201F041F804465F
:10BDC80009F806005E464046002130F037FC304650
:10BDD800214633F08DFD17F8014B013534B1EEB231
:10BDE8002E2C09F80640E7D15646ECE7BDF80200CC
:10BDF80045F24022BDF80510C2F20002A2F8010087
:10BE08009DF80800A2F80310BDF80910507140F21F
:10BE18009030D180C2F20000082148E000F0E6FE30
:10BE280004785CB342F61C6B42F64C69471C00254B
:10BE38000DF1020AC0F6040BC0F604090FF29008CF
:10BE48000DE000BF5E464846002130F0F7FB304663
:10BE5800214633F04DFD17F8014B013574B1EEB2B0
:10BE68002E2C0AF80640EDD0522CEBD0E0B200F0B0
:10BE7800E7FF04460AF806004646E4E7BDF8020074
:10BE880045F24027C2F20007A7F801009DF8050017
:10BE98009DF807109DF809209DF80B30F87040F2C6
:10BEA800903039717A71BB71C2F2000007210180AC
:10BEB800002400E00124204603B0BDE8F08F00BF55
:10BEC8002330322D253032687821200A0D000000F9
:10BED800537562204C69622076657273696F6E20B3
:10BEE80069732025780A0D004C69622076657273A3
:10BEF800696F6E2069732025630A0D004C69622002
:10BF080076657273696F6E2069732025780A0D0053
:10BF18002DE9F04381B0064690F8008042F634607F
:10BF2800C0F6040000211546002730F087FB317861
:10BF38007CA033F0DDFCA8F1010005284FF00109D1
:10BF480000F2CE800024DFE800F003502ACC718D87
:10BF580042F63460C0F6040000214FF0000930F0CA
:10BF68006DFB42F67150C0F60400294633F0C0FC60
:10BF780040F2AC10C2F2000047F6F64101800168B9
:10BF880042688368042010F067FE002001F0F4FF87
:10BF980040F2AA10C2F20000012101709FE042F6AF
:10BFA8003460C0F6040000214FF0000930F046FB71
:10BFB80042F6A750C0F60400294633F099FC40F237
:10BFC800AA14C2F200042078012874D140F2AC10FF
:10BFD800C2F20000012101800168426883680420E0
:10BFE80010F03AFE84F800901EE042F63460C0F685
:10BFF800040000214FF0000930F020FB5DA0294625
:10C0080033F076FC40F2AC10C2F20000012101804E
:10C01800016842688368042010F01EFE40F2AA10EE
:10C02800C2F2000080F80090002018E042F6346068
:10C03800C0F60400002130F001FB42F6E150C0F6E2
:10C048000400294633F054FC707840F2AA11C2F279
:10C058000001012808703DD000204FF0000901F0D0
:10C068007BFF3CE042F63460C0F60400002130F06B
:10C07800E5FA30A0294633F03BFC7778B47847F6E8
:10C08800FF7147EA042000222DF0FEFB054640F22E
:10C09800AC10C2F200000580016842688368042081
:10C0A80010F0DAFD00204FF00009B5F57A5F35D9B8
:10C0B80001F062FF15E040F2AC10C2F2000047F652
:10C0C800F6410180016842688368042010F0C4FDCD
:10C0D8000120207000204FF0000901F04DFF0027DB
:10C0E800002445F24020C2F20000B8F1060F80F8A3
:10C0F800008003D144708770032106E040F2AA1142
:10C10800C2F2000109784170022140F29032C2F275
:10C1180000024846118001B0BDE8F08301F01CFF21
:10C12800DFE700BF2330332D2530326878210A0D30
:10C13800000000004170706C695F4C45445F496EB7
:10C1480074656E736974792063616C6C6261636B8A
:10C1580020726563656976656420666F7220656C18
:10C16800656D656E74496E646578202564200D0AD6
:10C17800000000004170706C695F4C45445F4F4699
:10C18800462063616C6C6261636B207265636569EC
:10C1980076656420666F7220656C656D656E74499E
:10C1A8006E646578202564200D0A0000B0B584B05F
:10C1B80001F00AFA28B1002001F0DEFE012004B0E7
:10C1C800B0BD0020002501F0C7FE40F20C22C2F2EB
:10C1D8000002136C108892F844100124CDE9003550
:10C1E800931C0E22029401F0D5F804B0B0BD0000F3
:10C1F800F0B581B040F20C270E46C2F20007154692
:10C208000146B81C32461C46FBF797F800203C80D4
:10C218003E643C2E88BF032087F8445001B0F0BD2F
:10C228002DE9F0410446077845F2402842F664605B
:10C238000D46C2F20008C0F60400002188F800701C
:10C24800002630F0FBF9217820A033F051FBF81ECE
:10C25800032837D3022F19D0062F32D19DB142F2CD
:10C26800CE0700210FF27408C0F60407002600BFAD
:10C27800625C404633F03CFB384633F039FB01360C
:10C28800F1B28D42F4D80020BDE8F0813D2D0AD3EB
:10C2980042F66460C0F60400002130F0CFF913A024
:10C2A80034F020F83C25611C6A1E08F10100FBF7F8
:10C2B80044F840F29030C2F2000005800020BDE84A
:10C2C800F08101263046BDE8F08100BF2330312DD2
:10C2D800253032687821200A0D00000064617461FD
:10C2E8005B25645D3D202564000000004C656E6799
:10C2F8007468207265636569766564206772656134
:10C30800746572207468616E2073697A65206F663F
:10C3180020726573706F6E736520627566666572EC
:10C32800200D000040F2FC12C1EBC101C2F2000274
:10C3380002EB4101002200BF31F81230984204BFDD
:10C34800012070470132072A04BF00207047F3E735
:10C3580040F25422C2F2000202EBC101002200BFE7
:10C3680051F82230984204BF012070470132012A57
:10C378001CBF00207047F3E70020704710B540F25B
:10C38800FC12C1EBC101C2F2000202EB4101002420
:10C398004FF6FF7231F81430934203D00134072C62
:10C3A800F8D107246200FAF7C8FFE0B210BD000018
:10C3B80010B540F25422C2F2000202EBC10100247F
:10C3C8004FF6FF7251F82430934203D00134012C08
:10C3D800F8D00224A200FAF7B0FFE0B210BD0000C6
:10C3E800B0B588B0DDF844C0DDF840C0DDF83CC029
:10C3F800DDF838C0DDF834C0DDF830C007900691AC
:10C40800059204930EF046FD06980EF093FD0598EC
:10C418000499109A119BDDF83CC00D9CEE4600254E
:10C42800CEF80850CEF80440CEF800C00EF024FC38
:10C438000E980F99079A0EF095FB0C980D990EF02F
:10C448006DFB03900EF0FEFC039808B0B0BD000031
:10C45800B0B588B0DDF844C0DDF840C0DDF83CC0B8
:10C46800DDF838C0DDF834C0DDF830C0079006913B
:10C4780005920493002003900EF00CFD04980EF032
:10C4880059FD0C980D99109A119BDDF83CC0059C3C
:10C49800EE460125CEF80850CEF80440CEF800C08C
:10C4A8000EF0EAFB0E980F99079A0EF05BFB0698C0
:10C4B80005990EF0D1FB0EF0C5FC039808B0B0BD8D
:10C4C80080B592B0119010910F920E9340F26020B7
:10C4D800C2F200000D9000200B9010980290119865
:10C4E80020B1FFE7119800F0FFF8FFE70E9890B130
:10C4F800FFE70F9800F00F000B900F9830B1FFE79F
:10C508000B9818B9FFE710200B90FFE70B990F98CD
:10C51800401A0F90FFE7FFE70F9870B3FFE7029B01
:10C52800186859689A68DB680A9309920891079015
:10C53800FFE7079800BA0D990968484007900898DE
:10C5480000BA0D99496848400890099800BA0D99B1
:10C558008968484009900A9800BA0D99C968484006
:10C568000A90FFE70D9907A800F0B4F80298103078
:10C5780002900F9810380F90CEE70E98002800F020
:10C588008180FFE700200A900990089007900C909E
:10C59800FFE70C980B99884213D2FFE702990C9891
:10C5A800095C03228243D20001FA02F320F003025D
:10C5B80007A9885818438850FFE70C9801300C9059
:10C5C800E7E70020069005900490039003A90191E5
:10C5D800084600F07FF8019800F056F80B980F28ED
:10C5E80011D8FFE70B9803218143CA00802101FA83
:10C5F80002F320F0030207A988581843885003A8BB
:10C6080000F042F8FFE700200C90FFE70C980328A1
:10C6180014D8FFE70D980C9A50F8220003A951F896
:10C62800221080EA010307A951F82200584041F876
:10C638002200FFE70C9801300C90E7E70D9907A856
:10C6480000F048F80EF0FEFBFFE70D98006800BA0E
:10C6580007900D98406800BA08900D98806800BA55
:10C6680009900D98C06800BA0A90FFE70E990798DC
:10C67800089A099BDDF828C0C1F80CC08B604A6095
:10C688000860FFE712B080BD82B001900198006891
:10C69800C00F872148430090019908684A68400004
:10C6A80040EAD2700860019948688A68400040EA08
:10C6B800D270486001998868CA68400040EAD27020
:10C6C80088600199CA68009880EA4200C86002B090
:10C6D8007047000080B582B00190009101980099E0
:10C6E8000EF0A2FB02B080BD80B584B0039040F28A
:10C6F8006020C2F2000002900EF0CCFB03980EF00E
:10C7080019FC002001900EF03FFC01980299C860C6
:10C7180002998860029948600299086004B080BD57
:10C7280080B588B00790069105920EF0B3FB079884
:10C738000EF000FC04200EF027FC069B18685968D0
:10C748009A68DB68049303920291019001A9084654
:10C758000EF06AFB0EF076FB05990198029A039B8E
:10C76800DDF810C0C1F80CC08B604A60086008B0E2
:10C7780080BD000010B54CF2B5720446C0F6000248
:10C788004FF48060002130F011FE40F2F803C2F24D
:10C7980000034FF0640C03EB840242F61920214693
:10C7A80023F824C0BDE8104000F0A6B840F2F80213
:10C7B800C2F2000242F61920002100F09DB80000E4
:10C7C80040F2F801C2F20001CA780880012A18BFB5
:10C7D80070474FF48060032130F0FCBE80B582B012
:10C7E8004178FF2902D0002002B080BDB0F80310C4
:10C7F80040F61442914212D040F601429142F2D1E1
:10C8080040F22811C2F200014988B0F8072002312D
:10C818009142E8D1407B012121EA00000EE040F27C
:10C828002811C2F200014988B0F80720013191426D
:10C83800D9D1B0F8050031F02BFD02208DF80600A3
:10C8480000208DF807000DF1060000F035F80120F2
:10C8580002B080BDF0B587B04CF2E570C0F60000BC
:10C868002DF09AFF41F60F0040F228150DF11A0439
:10C87800ADF81A00C2F20005012021460122042366
:10C8880000950126042731F0A3FC42F6192135F85A
:10C89800020BADF81A100A2100221223CDE900324A
:10C8A800CDE902710121224601230496059531F054
:10C8B8001FFC07B0F0BD00000078022812D0012844
:10C8C80009D0002818BF704740F2F800C2F20000F3
:10C8D8000121C170704740F2F800C2F20000002147
:10C8E800C170704740F2F802C2F2000242F6192005
:10C8F800002100F001B80000944642F61922904247
:10C9080018BF704780B582B001EB410040F2281192
:10C91800C2F2000101EB400231F8100051880022F8
:10C928000123CDF800C031F0ABFD02B080BD00009E
:10C9380082B00090009820B9FFE703208DF8070027
:10C9480009E000984AF6A041C2F200010860002000
:10C958008DF80700FFE79DF8070002B07047000058
:10C9680082B00090009820B9FFE703208DF80700F7
:10C9780009E000984AF6CC41C2F2000108600020A4
:10C988008DF80700FFE79DF8070002B07047000028
:10C9980080B582B001908DF80310019820B1FFE7AF
:10C9A8009DF8030020B9FFE702208DF802000CE093
:10C9B8004BF60C50C2F20000006801999DF8032064
:10C9C80005F046F88DF80200FFE79DF8020002B076
:10C9D80080BD000080B541F66250C2F2000001211E
:10C9E80001700FF091FA002808BF80BD41F6685128
:10C9F800C2F20001087830B9012203A00A70BDE82C
:10CA0800804033F06FBC80BD50726F766973696F78
:10CA18006E696E6720636F6E666967757265643AE2
:10CA28002077616974696E6720646973636F6E6EDD
:10CA380065637420666F72204E564D20636F6D6D6E
:10CA480069740D000622028040F20012C0F2023220
:10CA5800C0F8022004228271072008707047000085
:10CA680083B0029001918DF803208DF8023003B055
:10CA78007047000010B5044608A032F039FF601E68
:10CA8800C0B2022899BF13A151F8200042F6D03055
:10CA9800C0F60400BDE8104033F024BC4672696556
:10CAA8006E647368697020636C65617265642E20BA
:10CAB8004C6F7720706F776572206E6F64652061A8
:10CAC800646472657373203078252E3458200D0AFB
:10CAD80000000000E22B0408812B0408B02B040896
:10CAE800F0B581B00F46014642F6C220069CC0F65A
