:020000040800F2
:1070000050CB0020BD7200084D750308B1BB0108CC
:107010001DD30108C1540108E5CD0308000000009C
:1070200000000000000000000000000039A203087A
:10703000015C0108000000000D8E03084DB103083B
:10704000D7720008D7720008D7720008559103085C
:10705000D7720008D7720008D7720008D7720008EC
:10706000D7720008D7720008D7720008D7720008DC
:10707000D7720008D7720008D7720008D7720008CC
:10708000D7720008D7720008D7720008D7720008BC
:10709000D7720008D7720008D7720008955C010803
:1070A000D7720008D7720008D7720008D77200089C
:1070B000D7720008D7720008D7720008D77200088C
:1070C000D7720008D7720008D7720008D77200087C
:1070D000CDCA03082DC00108D7720008D772000876
:1070E000D7720008D7720008D7720008D77200085C
:1070F000A5BE0108A9BE0108CDAA0108D7720008E3
:10710000D7720008D7720008D7720008D77200083B
:10711000D7720008D7720008D7720008D77200082B
:10712000D7720008D77200085D5B0108D7720008AB
:10713000D7720008D7720008D7720008000000005C
:10714000B04104080000000081C201120812484A40
:107150000C0412303B08051C1A041059041428189A
:107160000222B042201A270C5AD00C14FFFF031A37
:10717000034A13D0521420F85414202057142048E6
:1071800059180F20C19503088D970308C19603086D
:10719000350C1E8994030845101E919A0308FF01BF
:1071A000111B093D3C14FFFF011A02401204120595
:1071B000120EB6090DFF018314DD2A021A14894547
:1071C000A94001083CDE2A08105AC510DADB20DA93
:1071D000DC201A010C029B100000000000000000DF
:1071E000000000000000000000000000000000009F
:1071F000000000000000000000000000000000008F
:10720000000000000000000000000000000000007E
:10721000000000000000000000000000000000006E
:10722000000000000000000000000000000000005E
:10723000000000000000000000000000000000004E
:10724000000000000000000000000000000000003E
:10725000000000000000000000000000000000002E
:1072600000000000000000000000000001FF01FF1E
:1072700001FF01FF01FF01FF01FF01FF01FF01FF0E
:04728000014A0000BF
:020000040800F2
:1072A800DFF80CD000F002FD0048004709EA0308A7
:1072B80050CB00200648804706480047FEE7FEE717
:1072C800FEE7FEE7FEE7FEE7FEE7FEE7FEE7FEE78E
:1072D800F5B10308A97200082DE9F05F0546002002
:1072E80092469B4688460646814640241BE028462F
:1072F80041464746224600F096FB53465A46C01A76
:10730800914110D311461846224600F07DFB2D1AF4
:1073180067EB01084F4622460120002100F074FB6C
:1073280017EB00094E41201EA4F10104DFDC48469A
:1073380031462A464346BDE8F09F10B5431A9342AA
:1073480009D28318881803E010F8011D03F8011DFD
:10735800521EF9D210BD40EA01039B0703D009E091
:1073680008C9121F08C0042AFAD203E011F8013B29
:1073780000F8013B521EF9D210BDD2B201E000F86C
:10738800012B491EFBD270470022F6E710B51346C1
:107398000A4604461946FFF7F0FF204610BD10B50F
:1073A800044604E00B7800F8013B03B1491C521E67
:1073B800F8D2204610BD421C10F8011B0029FBD151
:1073C800801A7047CBB203E00178994203D0401C81
:1073D800521EF9D20020704730B5044600200346FB
:1073E80000E05B1C934203D2E05CCD5C401BF8D00C
:1073F80030BD30B505460020034600E05B1C9342D3
:1074080005D2EC5CC85C201A01D1002CF6D130BD45
:107418000FB400B58DB010A909900B9000914FF0F2
:10742800FF300A9000200C90054806900548079008
:107438006A4609A80F9900F02DFB0DB05DF814FB02
:10744800B97A0008D77A00082DE9FF5F1D464FF08A
:10745800FF3BD5E9014691465F464FF00008A96910
:107468007F1C01988847296A824688470028F6D1F8
:10747800BAF1FF3F0CD024F4C064002E19DD600679
:1074880014D5BAF12B0F09D0BAF12D0F0ED103E0A4
:10749800584604B0BDE8F09F44F48064A9697F1C95
:1074A80001988847761E8246002E02DDBAF1300F19
:1074B80003D0B9F1000F26D032E0A969761E44F452
:1074C80000747F1C019888478246002E05DDBAF1BA
:1074D800780F06D0BAF1580F03D0B9F1000F10D0C9
:1074E8001EE0B9F1000F02D0B9F1100F18D1A96947
:1074F800761E24F400747F1C019888478246102069
:1075080002E0082000E00A20814609E008FB09089B
:10751800A969761E44F400747F1C01988847824646
:10752800002E05DD4946504600F09FFA0028EDDAA6
:10753800E96901988847A00502D46FF00100A8E71F
:10754800E00725D1600613D5600502D5C8F1000013
:1075580000E0404629680A1D2A600968220501D50D
:10756800087015E0220701D5088011E008600FE0D7
:107578002868011D29600068210502D580F800806F
:1075880006E0210702D5A0F8008001E0C0F80080DD
:1075980038467EE72DE9FF5FD2E901A74FF00008E2
:1075A800916999461446DDF838B0464601988847EF
:1075B800054659EA0B0005D009E0A169761C019837
:1075C80088470546216A284688470028F5D1681C5F
:1075D80003D05FEACA7005D015E04FF0FF3004B061
:1075E800BDE8F09F2068011D2160D0F800800AE006
:1075F8005FEACA7001D108F8015BA169761C7F1E99
:10760800019888470546002F1ADD681C18D0B9F183
:10761800000F0DD0E81705EBD060421120F01F00D5
:1076280059F822102A1A012090400142E0D107E0BF
:10763800BBF1000FDCD1216A284688470028D7D043
:10764800E16901988847BBF1000F07D1002E05DDDD
:107658005FEACA7002D1002188F80010A068B84219
:1076680003DDBBF1000F03D017B16FF00100B6E7DF
:107678003046B4E72DE9FE4F804681EA0300C00F8B
:107688000C46009021F0004123F00045B8EB0200C1
:10769800A94105D24046214690461C460B46024663
:1076A80023F00040104347D0270DC7F30A00C3F367
:1076B8000A510290401A019040286BDAC3F3130074
:1076C80040F4801B0098924620B10023D2EB030AB5
:1076D80063EB0B0B01985946C0F14002504600F08D
:1076E80093F906460D4650465946019A00F0ABF903
:1076F80010EB08006141002487EA115284EAE7731D
:107708001A4340D0009A62B3019A012A4FEA0752FD
:1077180015DC001B61EB02014FF0004202EA075240
:10772800CDE90042001C41F5801132462B4600F09D
:10773800EEF903B0BDE8F08F40462146F9E7001B9B
:1077480061EB0201001C41F5801300185B41201811
:10775800A2F5001747EB030140EAD570B6196D4151
:1077680011E06D084FEA360645EAC0754FEA075240
:10777800001B61EB0201001C41F5801149084FEA2A
:1077880030000019514132462B4603B0BDE8F04F96
:1077980000F0AEB90098012240000023D0EB0202AD
:1077A80063EBE073009821464FEAE074B8EB000001
:1077B80061EB0401E9E783F000435BE781F00041F6
:1077C80058E72DE9FE4F81EA030404F0004421F054
:1077D800004100944FF0000B23F0004350EA0104ED
:1077E8005ED052EA03045BD0C3F30A54C1F30A55CE
:1077F8002C44A4F2F3340194A0FB0254C1F3130106
:1078080041F48011C3F3130343F4801301FB0244D2
:1078180000FB034E840A970A44EA815447EA8357D7
:10782800A4FB076802958D0A05FB07854FEA932C90
:1078380004FB0C542705029D4FEA065847EA163701
:10784800B5EB08056EEB070C870E920E47EA811719
:1078580042EA8312A7FB0201B6EB0B0164EB0004BA
:107868002B0D43EA0C335E1844EB1C50DA465146A4
:10787800E7FB0201C5F313044FEA0B3343EA145341
:107888004FEA0432019C43EA0603A4F10C04029473
:10789800009CCDE900B400F03AF903B0BDE8F08FE0
:1078A80000200146F9E72DE9F04D81EA030404F0D0
:1078B800004B21F0004514464FF0000A23F0004128
:1078C80050EA050220D054EA01021DD0C5F30A5738
:1078D8000246C5F31303C1F31300C1F30A5640F47B
:1078E800801543F48013A7EB0608101BD64608F250
:1078F800FD3873EB050002D308F1010801E0921886
:107908005B41B8F1000F03DA00200146BDE8F08DB5
:1079180000204FF48011064684460EE0171B73EBD7
:10792800050705D3121B63EB050306434CEA010C5C
:1079380049084FEA300092185B4150EA0107EDD13F
:1079480052EA030012D082EA040083EA05010843E0
:1079580005D0101BAB4106D20122002306E000220D
:107968004FF0004302E06FF0010253101AEB0600DB
:107978004CEB085110EB0A0041EB0B01BDE8F04D50
:1079880000F0B6B80EB540F2334102910021CDE9BE
:1079980000110A460B4600F0BAF803B000BD70B5F6
:1079A800C1F30A5201F000450024C1F3130140F26B
:1079B800FF3341F480119A4201DA002070BD40F291
:1079C80033439A42A2F2334203DC524200F02BF8CE
:1079D80000E090402C43F1D0404270BD30B50B46DA
:1079E800014600202022012409E021FA02F59D42E7
:1079F80005D303FA02F5491B04FA02F52844151EBB
:107A0800A2F10102F1DC30BD202A04DB203A00FAA1
:107A180002F1002070479140C2F1200320FA03F3DD
:107A2800194390407047202A04DB203A21FA02F0DB
:107A38000021704721FA02F3D040C2F120029140A0
:107A4800084319467047202A06DBCB17203A41FA2B
:107A580002F043EAE07306E041FA02F3D040C2F1D3
:107A6800200291400843194670473A2800D230381E
:107A780020F02002412A01D3A2F13700884201D325
:107A88004FF0FF307047000002681144137801601E
:107A980018467047D16004495161044911620021B8
:107AA8001161114600F020B9917A0008E57C0008C0
:107AB800426842B1016811F8013B23B1521EC0E986
:107AC8000012184670470121C160881E704742683D
:107AD8005AB1C368016843B983688B4205D0491E0F
:107AE800521CC0E90012002070474FF0FF30704769
:107AF80010B5141E73F1000408DA401C41F10001AE
:107B080092185B411A4301D120F0010010BD2DE904
:107B1800F04D92469B4611B1B1FA81F202E0B0FAFB
:107B280080F220329046FFF76FFF04460F4640EA86
:107B38000A0041EA0B0153465A46084313D011463E
:107B480053EA010019D0C8F140025046FFF76BFF15
:107B580005460E46504659464246FFF755FF08432C
:107B680005D0012004E020463946BDE8F08D00200C
:107B7800054346EAE0762C4337430A986305E40A4E
:107B8800A0EB08000022FD0A44EA47540A3002D557
:107B980000200146E9E7010510196941DDE90845BA
:107BA80000196941BDE8F04DA2E72DE9F04D002329
:107BB8001A461B1A8A4103DB00200146BDE8F08DF6
:107BC800C1F30A52C1F3130141F480154FF0000BC1
:107BD800D10702D100186D41521E0027044640F219
:107BE800FF11384601EB620A3E46804602460020F5
:107BF8004FF48011FFF717FFC2197141BB1846EB0C
:107C08000100B4EB030C75EB000C04D3E41A65EB2C
:107C1800000517460E46241908F101006D418046FB
:107C28003428E3DDF91946EB0600091BA84103D205
:107C38004FF0FF32134601E0002213461BEB07000A
:107C480046EB0A51BDE8F04DFFF752BFC1F30A52A7
:107C5800C1F3130140F2FF3341F480119A4202DA72
:107C680000200146704740F233439A42A2F2334261
:107C780002DC5242FFF7D7BEFFF7C6BE30B5041E7E
:107C880071F1000404DB4FF00044404264EB010151
:107C9800141E73F1000405DB1C464FF000435242EA
:107CA80063EB0403994208BF904230BD1CB50948F4
:107CB8000090094801900546009C06E0E06840F005
:107CC800010394E8070098471034AC42F6D3FFF755
:107CD800EBFA000060410408B0410408C0B24FF458
:107CE800F05100F097B900002DE9F34F8BB04FF039
:107CF800000801F10C000C464FF0010B46460DF14F
:107D0800080A01906269012101989047051E2DD04B
:107D1800252D2CD0216A8847C0B1626901210198BC
:107D28009047216A88470028F7D1411E6269019867
:107D3800904700E0761CA1690B988847216A88471C
:107D48000028F7D1E1690B988847DBE7A1690B9810
:107D580088470746A84201D1761CD3E7E1690B980A
:107D680088477F1C02D1B8F1000F6FD046E1002789
:107D780062693D463946019890472A2804D16269CC
:107D88000121019890470125DFF884926269012159
:107D980001989047A0F130010A290AD24F45E5DC45
:107DA80007EB870100EB4107303FDFD445F01005B2
:107DB800ECE7E90601D46FF000476C280AD04C289C
:107DC80014D0682815D06A280DD074281CD07A28B9
:107DD8001AD01DE062690121019890476C2802D0F1
:107DE80045F0040514E045F002050DE045F02005D6
:107DF8000AE06269012101989047682802D045F09D
:107E0800080505E045F4006562690121019890477D
:107E1800C4E9015765283DD019DC58287AD00CDC14
:107E2800452837D004DC252826D0412831D131E037
:107E380046282FD047282CD12CE05B2877D0612802
:107E480028D063287CD0642823D15AE0D0E06F285A
:107E580048D008DC66281DD067281BD0692821D0A7
:107E68006E2816D127E0702845D0732868D0752869
:107E780047D078280DD14DE0A1690B988847054671
:107E880025283FF469AFE1690B9888476D1C3FF4DA
:107E98006AAFB3E023466A466FF001000B99AFF36F
:107EA80000809EE045F040006060A80723464FF040
:107EB800000236D43EE0E8077FF447AF2068011D92
:107EC80021600068290501D506701BE7290701D53F
:107ED800068017E7A90703D5F117C0E9006111E784
:107EE80006600FE745F040006060A80723464FF0A2
:107EF800080216D41EE040F60E0125EA0100606073
:107F080016E045F040006060A80723464FF00A02DB
:107F180007D40FE045F040006060A80708D5234665
:107F280010226FF001000B99AFF3008059E007E0D1
:107F3800234610226FF001000B99FFF785FA50E0F5
:107F48004FF000094F464B46632802D05B2806D005
:107F580040E0E80601D40120A06001273AE0626908
:107F68000121019890475E2805D14FF00109626907
:107F7800494601989047216939B900210A46534674
:107F880043F82120491C0829FADBB0B3216969B9F3
:107F9800C11700EBD16253110AEB830122F01F02D3
:107FA800821A01200B68904003430B60626901212B
:107FB800019890475D28E8D1B9F1000F09D0002059
:107FC800514651F82020D24341F82020401C08286F
:107FD800F7DB02AB224600976FF001000B99FFF721
:107FE800D9FA00280CDA401C08D1BBF1000F05D0E3
:107FF8004FF0FF300DB0BDE8F08FFFE74046F9E7DE
:10800800E90701D108F1010806444FF0000B79E6B1
:10801800CCCCCC0C7F2801D9002208E0064A02EB20
:108028005002C007127800D1120902F00F02012095
:108038009040084070470000B8FA030870B58C18E3
:1080480010F8015B15F0070301D110F8013B2A1164
:1080580006D110F8012B03E010F8016B01F8016B51
:108068005B1EF9D12B0705D40023521E0DD401F84D
:10807800013BFAE710F8013BCB1A921C03E013F816
:10808800015B01F8015B521EF9D5A142D8D300204B
:1080980070BD000010B588B04FF62040C0F6030050
:1080A80090E80E5044690191018B807E02920393FF
:1080B800CDF810C0CDF814E00694ADF81C108DF87A
:1080C8001E0033F09FF901A831F05EF908B010BD29
:1080D8002DE9F04186B00FF0D5F90FF0DDF940F643
:1080E8009000C5F60000016841F4803101600DF090
:1080F8003FFD40F2F81240F6000340F2004700212D
:10810800C0F60402C4F60003C4F600074FF00008E6
:10811800002500200491CDE90211CDE9001104E009
:10812800A68835430131262914D002EBC104A6796B
:10813800002EF7D052F831609E4207D0BE42EFD0F1
:10814800B6F1904FEED1A6883043EBE7A68848EA0F
:108158000608E7E700214C2702910121C5F6000730
:10816800019103210204039121D084B2009438685C
:10817800694640F001003860386800F00100059059
:108188000598D7F8000140F00100C7F80001D7F8BA
:10819800000100F00100059005984FF090400FF0A5
:1081A80069FD4FF09040214600220FF033FE40F267
:1081B80000442804C4F600041FD0ADB20095386806
:1081C800694640F002003860386800F00200059007
:1081D8000598D7F8000140F00200C7F80001D7F869
:1081E800000100F002000590059820460FF042FDBE
:1081F8002046294600220FF00DFE5FEA084022D0F3
:108208001FFA88F50095386804F5806440F004008A
:1082180038603868694600F0040005900598D7F87A
:10822800000140F00400C7F80001D7F8000100F091
:1082380004000590059820460FF01CFD20462946AD
:1082480000220FF0E7FD06B0BDE8F081704700009E
:1082580070470000B0B588B04468B4F80B10A1F5B9
:108268001241072900F2AC81DFE811F00800C200D2
:10827800E400AA01F7000201BE00E20004466846D5
:1082880031F0AEF89DF800109DF801209DF80230FD
:1082980040F64D30C0F6040036F0FEFE9DF804109E
:1082A80040F61B30C0F6040036F0F6FE9DF80910C3
:1082B800481E8F2800F2008140F67462C0F604025E
:1082C800DFE810F021019000EB000E011301F0002F
:1082D800FF00FA00FA00FA00FA00FA00FA00FA00C1
:1082E800FA00FA00FA00FA00FA00FA00FA00FA00B6
:1082F800FA00FA00FA00FA00FA00FA00FA00FA00A6
:10830800FA00FA00FA00FA00FA00FA00FA00FA0095
:10831800FA00FA00FA00FA00FA00FA00FA00FA0085
:10832800FA00FA00FA00FA00FA00FA00FA00FA0075
:10833800FA00FA00FA00FA00FA00FA00FA00FA0065
:10834800FA00FA00FA00FA00FA00FA00FA00FA0055
:10835800FA00FA00FA00FA00FA00FA00FA00FA0045
:10836800FA0004011D011801FA00FA00FA00FA00E7
:10837800FA00FA00FA00FA00FA00FA00FA00FA0025
:10838800FA00FA00FA00FA00FA00FA00FA00FA0015
:10839800FA00FA00FA00FA00FA00FA00FA00FA0005
:1083A800FA00E100F500FA00FA00FA00FA00FA0013
:1083B800FA00E600DC00FA00FA00FA00FA00FA0017
:1083C800FA00FA00FA00FA00FA00FA00FA00FA00D5
:1083D800FA00FA00FA00FA00FA00FA00FA00FA00C5
:1083E800FA0009019CA28EE0D4F80D1082A03AE0B0
:1083F80040F60141C0F604010446084636F04CFE3A
:10840800646840F69340617BC0F6040036F044FE91
:10841800607B002807BF40F68150C0F6040040F694
:108428004A50C0F6040008B0BDE8B04037F02EBB93
:1084380068A01EE040F6E240C0F6040037F026FBD4
:10844800D4F80D10D4F8112040F67130C0F60400AD
:1084580008B0BDE8B04036F01FBED4F80D1040F6A5
:108468009730C0F6040008B0BDE8B04036F014BE3E
:1084780070A008B0BDE8B04036F00EBE40F6D2524B
:10848800C0F604023FE040F63262C0F604023AE069
:1084980040F6BB52C0F6040235E040F68862C0F6EA
:1084A800040230E040F6A262C0F604022BE040F677
:1084B8004862C0F6040226E041F66512C0F60402DE
:1084C80021E040F69262C0F604021CE040F65E62CB
:1084D800C0F6040217E040F62362C0F6040212E078
:1084E80040F67D62C0F604020DE040F61962C0F65F
:1084F800040208E040F60062C0F6040203E040F619
:10850800E952C0F6040240F6FA20C0F6040036F03C
:10851800C3FD9DF80A109DF80B209DF80C3040F61D
:108528003730C0F6040036F0B7FD40F6C340C0F659
:10853800040036F0B1FD002560680795407B06957C
:1085480001280595049534D0E0BB40F63050C0F6BC
:10855800040037F09BFAFFF79DFD0F208DF81000FF
:108568007F2042F200058DF81200CEF2040528683B
:10857800040C40F67240C0F60400214636F08CFD2B
:10858800ADF81C402C6840F653406FF31F34C0F61A
:108598000400214636F080FD04A8ADF81E4030F0F6
:1085A800E5FE00F031F90120002134F09DFA08B011
:1085B800B0BD40F62240C0F6040036F06DFD2570CF
:1085C80008B0B0BD40F6CF30C0F6040036F064FD08
:1085D80008B0B0BD3E3E3D3D20534843495F53552A
:1085E800425F4556545F4E564D5F454E445F455277
:1085F8004153450A0D0000003D3D3E3E5348434966
:108608005F5355425F4556545F4E564D5F53544134
:1086180052545F4552415345203A204E756D62656C
:10862800724F66536563746F7273203D2025750A17
:10863800000000003E3E3D3D20534843495F5355EE
:10864800425F4556545F4E564D5F454E445F575204
:108658004954450A0D000000424C455F4843490013
:1086680080B54AF27470C2F2000010F063F9BDE8F8
:1086780080402DF0EFBD000040F2F020C2F2000073
:1086880090F88000704700002DE9F04116460D462D
:1086980004460FF0C5FB40F25401C2F200010A88FB
:1086A80040F64813A242C2F200030DD11A68821A9A
:1086B800632A09D841F20430C0F604002146324644
:1086C800BDE8F04136F0E8BC40F2F028C2F20008FC
:1086D800B8F816200C80002A186018BF944203D0FE
:1086E8002DA0214636F0D8FC0020A8F8160088F8FE
:1086F800800041F24230C0F60400314636F0CCFC2E
:1087080041F2BA70C0F6040021462A4636F0C4FC8D
:108718000FF086FB014641F28040C0F6040036F0B7
:10872800BBFC13F0C9FB05460EF062FD06462EF0B1
:108738001BF898F88030074641F2E140C0F6040083
:108748002946324636F0A8FC0FB120A017E00120D8
:1087580000F0BEFB98F88000012808D041F61340CD
:10876800C0F6040037F092F9012000F0B1FB98F848
:108778008000012805D041F6F040C0F6040037F02B
:1087880085F940F24060C2F2000001210170448086
:10879800BDE8F0412FF0BEB93E3E3D3D204469732F
:1087A800636F6E6E6563742068616E646C65206DBE
:1087B80069736D617463683A206576743D30782515
:1087C80078206374783D307825780A003D3D3E3E38
:1087D80020536B6970206C656761637920616476EA
:1087E8006572746973696E672072657374617274F7
:1087F8003A204D657368206F776E732061647665E3
:1088080072746973696E67002DE9F04399B046F296
:108818002030C2F200000921017040F2D851002432
:10882800C2F200010A5D1AB10134082CFAD10824F9
:1088380040F2D8510130C2F200012246FEF7AFFDE6
:1088480040F2A001601CC2F2000108700EF0BCFCEE
:10885800FF2821D004460FF22050214636F01CFC98
:10886800A52C13D10DF072F802F086FF41F6BE4236
:108878000FF25451C0F60402012888BF1146084679
:1088880037F004F900200DF073F805E00FF21050EE
:1088980037F0FCF80DF05AF80EF0AAFC044613F075
:1088A80001FB40F29409C5F60009D9F8006080463A
:1088B80030462DF0F5FC0DF013FDC6F30070C6F33D
:1088C8004071C6F380758DE8230041F29640C6F3E7
:1088D8008062C6F3C063F70FC0F604003146039701
:1088E80036F0DAFBD9F8000041F6541140F40000E4
:1088F800C9F8000041F61510C0F60400C0F60401DE
:10890800012C08BF014641F2A130C0F604002246FE
:10891800434636F0C1FB2DF053FC04462DF04AFDCA
:1089280005462DF021FF034641F27530C0F60400DC
:1089380021462A4636F0B0FB4FF63C40C0F603000D
:1089480090E88E00D0E904650DF1140ED0E906C454
:108958008EE88E00CDE9096500F12007D0E90C65A5
:10896800008F8ECFADF84C0040F22800C2F2030011
:1089780014904DF6D110C0F600000DF1340E15908C
:108988004DF6F5108EE88E00C0F6000014A9CDE96A
:108998000BC41196129535F017FD0220012134F011
:1089A800A3F84EF64102C0F603020220002134F07B
:1089B800D1F805A830F0CCFC48B1014641F2F4707A
:1089C800C0F6040036F068FB0DF0B4FB05E041F298
:1089D800E160C0F6040036F05FFB0020CDE914002A
:1089E800ADF84E000EF0E2FB14900EF0DFFB41F6FE
:1089F8009440C0F60400159137F048F835F082FE2F
:108A080038B1014641F24110C0F6040036F044FB8B
:108A180005E041F6F520C0F6040037F037F8BDF858
:108A2800540040F2A10400BA1499C2F20004000CE8
:108A3800208108BAC4F80A0014AA2E20062135F0AD
:108A4800F3F938B1014641F2A200C0F6040036F04D
:108A580023FB19E041F6F710C0F6040037F016F8CA
:108A6800DDE91470C0F30721C2B2C7F30740C7F3AA
:108A78000726CDE9000641F25E503B0EFFB2C0F674
:108A88000400029736F008FB40F23832C0F60402C0
:108A98001820102135F0C8F938B1014641F24D00CF
:108AA800C0F6040036F0F8FA05E041F6B210C0F658
:108AB800040036F0EBFF40F22832C0F6040208202A
:108AC800102135F0B1F938B1014640F6F870C0F61A
:108AD800040036F0E1FA05E041F66D10C0F6040036
:108AE80036F0D4FF01201F2135F076F938B1014660
:108AF80041F20310C0F6040036F0CEFA05E041F664
:108B0800C720C0F6040036F0C1FF35F065F838B16B
:108B1800014641F29E10C0F6040036F0BDFA05E0A9
:108B280041F63230C0F6040036F0B0FF0DF15E07B2
:108B380018AE0DF16203052000210722CDE9006778
:108B480034F0E4FC38B1014641F26E10C0F604007E
:108B580036F0A2FA05E041F61230C0F6040036F00D
:108B680095FFBDF86200BDF8601041F60D17C0F61C
:108B7800040700220723009735F056F8BDF8620075
:108B8800BDF85E100DF14E0700220223009735F064
:108B98004BF800200221022235F0E0FC38B10146F2
:108BA80041F25820C0F6040036F076FA05E041F6A6
:108BB800BC30C0F6040036F069FF40F2F025C2F27E
:108BC80000050120287034F075FD38B1014641F2E6
:108BD8009220C0F6040036F05FFA05E041F6E63070
:108BE800C0F6040036F052FF40F20110C0F6000053
:108BF8004BF20721C5F801001020C0F20101002244
:108C080008236871A9600127CDE90030CDE9022168
:108C18000120012101220023049734F0BFFC38B160
:108C2800014641F2CF10C0F6040036F035FA05E0EF
:108C380041F65330C0F6040036F028FFA87880B11A
:108C480034F044FC38B1014641F21920C0F6040062
:108C580036F022FA05E041F68D30C0F6040036F011
:108C680015FF41F22570C0F6040036F015FA41F6FA
:108C78004820C0F6040036F009FF31F051F9002011
:108C880085F880004FF6FF7048F60962E882C0F662
:108C980000020120002133F05DFF2020A071062092
:108CA80035F074F838B1014641F26860C0F6040046
:108CB80036F0F2F905E041F2AC60C0F6040036F097
:108CC800EBF90CF06BFE0020002603F02BFD2EF0D4
:108CD800E9FE4DF6F162C0F603024FF48040002130
:108CE80033F038FF4DF6F564C0F603044FF4004046
:108CF8000021224633F02EFF05F1830100200022D7
:108D0800234612F063FC48F6D16305F18101C0F6F1
:108D180000030020002212F059FC4BF2491305F120
:108D28008201C0F603030020002212F04FFC40F23B
:108D38009210C2F200000121017040F29010C2F2BC
:108D480000002E8301702DF00FFD20B141F68B201D
:108D5800C0F604000AE0012000F0BAF895F8800097
:108D6800012805D041F64640C0F6040036F08EFED4
:108D780019B0BDE8F08300BF3D3D3E3E204E46435E
:108D880020626F6F74206F70636F64652064657410
:108D980065637465643A203078253032780A0000BB
:108DA8003D3D3E3E204E464320626F6F74206F70FB
:108DB800636F646520756E6B6E6F776E2C20636CC5
:108DC800656172696E6700003D3D3E3E204E464338
:108DD80020626F6F74207265736375653A206D65E4
:108DE80073682070726F766973696F6E696E672039
:108DF80073746F72616765206572617365640000E2
:108E080010B540F2F024C2F2000494F8800005285E
:108E18000CD034F073FC002184F8801011A10AA250
:108E2800002808BF1146084636F036F92DF09CFC9C
:108E380020B115A0BDE8104036F028BE0220BDE8DC
:108E4800104000F045B800BF2A2A2053544F502044
:108E58004144564552544953494E47202A2A202016
:108E68000D0A0D002A2A2053544F502041445645DC
:108E780052544953494E47202A2A20204661696C9A
:108E88006564200D0A0D00003D3D3E3E20536B6990
:108E980070206C6F772D706F7765722061647665CE
:108EA80072746973696E6720726573746172743A5B
:108EB800204D657368206F776E73206164766572E4
:108EC800746973696E6700000120042133F056BF8E
:108ED8002DE9F04188B040F29211C2F20001044637
:108EE80040F290100D78C2F200000678002D40F292
:108EF800F02818BF8025002EC2F2000818BFA0264F
:108F0800012C18BF4FF4C86598F8810018BF4FF4BA
:108F18007A6612F091FD022C15D198F8800001387C
:108F2800012810D834F0EAFB38B1014640F6AD709C
:108F3800C0F6040036F0B0F805E041F6A700C0F628
:108F4800040036F0A3FD40F2A000C2F20000007851
:108F580098F8181046F22033002708F11902C2F2D7
:108F68000003CDE90070CDE90231CDE904270020E6
:108F7800294632460123069734F04CFBC0B105461A
:108F8800122801D00C2D2DD12DF0EEFB58B141F255
:108F98002E40C0F60400294636F07EF888F8804056
:108FA80008B0BDE8F08141F2DB30C0F604001DE0F6
:108FB8001FA088F8804036F069FD40F2A101C2F296
:108FC80000010E2034F03CFCC8B10146012C12BF50
:108FD80021A041F2E650C0F6040008B0BDE8F04117
:108FE80036F05AB841F2CF20C0F60400294636F0D0
:108FF80053F8002088F8800008B0BDE8F081012C03
:109008000DD123A036F048F898F881004EF24601B9
:10901800C0F2010108B0BDE8F04112F02DBC41F2E8
:109028003B60C0F6040008B0BDE8F04136F034B843
:109038003D3D3E3E206163695F6761705F736574A3
:109048005F646973636F76657261626C65202D2059
:1090580053756363657373003D3D3E3E20537461F1
:109068007274204C6F7720506F7765722041647658
:109078006572746973696E67204661696C656420FE
:109088002C20726573756C743A202564200A0D00D3
:109098003D3D3E3E20537563636573733A205374B8
:1090A80061727420466173742041647665727469D4
:1090B80073696E67200A0D0010B503F021FE04469F
:1090C800062817D940F2FC1041F20001C2F2000054
:1090D800C1F2020141F2060241F20033C1F2070275
:1090E800C1F2013380E80E004FF6FF718181072C31
:1090F8000DD228E003F004FE024643F6AA30C0F67B
:1091080004000721022335F0C7FF072C1BD303F007
:10911800F7FD044606280CD940F254203021C2F24B
:109128000000C0F201014FF6FF72C0E900120020F2
:1091380006E043F66740C0F6040035F0ADFF0120B5
:10914800062C88BF10BD43F62240C0F6040035F057
:10915800A3FF022010BD000010B546F25034C2F241
:109168000004207820B103F047FE0020207010BDD5
:10917800002004F0F9FE0EF053FE0446002004F02F
:10918800F3FE0028FAD00EF04BFE001BB0F57A7FF4
:1091980008D94AF6BC404F21C2F20000C0F2AD0126
:1091A800016010BD152838BF10BDBDE8104003F0A0
:1091B80023BE000002207047002200200A8070476A
:1091C8007047000080B5002004F0BEFE002080BD7E
:1091D80040F2C240C2F200000078704741F65D508C
:1091E800C2F200000121017041F66550C2F2000090
:1091F8000022027041F66A52C2F200020120117088
:1092080004F092BE80B541F65D50C2F20000002124
:10921800017041F66A50C2F200000170012004F0AA
:1092280073FE12F049FE10B103F0CAFDE0B103F07D
:10923800C7FD00B180BD41F65E50C2F200004AF69B
:1092480099410078C2F200010978002804BF00297A
:1092580080BD40F60A20C2F200000122027042F2EC
:109268009920C0F604000DE041F66450C2F20000F7
:10927800017849B941F65E51C2F20001012209782C
:10928800027004A035F008FF40200021BDE88040AE
:1092980033F074BD50726F766973696F6E696E676B
:1092A8002073657373696F6E20636F6D706C65747E
:1092B80065642028646973636F6E6E6563742C201F
:1092C800636F6E6669675F7365656E3D2575290D09
:1092D8000A0000000020704770470000B0B540F257
:1092E8005A04C2F20004257803F07CFC854209D9AF
:1092F80042F2A730C0F6040036F0C8FBBDE8B04023
:1093080003F070BC2078002818BFB0BD02A036F06A
:10931800BDFB0120B0BD00BF4E756D626572204F68
:109328006620456C656D656E7473206D7573742069
:1093380062652031206F72206772656174657220E2
:109348007468616E2031210D000000000146302054
:10935800C0F2020008604FF4857200208A807047CE
:1093680080B501201F2134F037FD002818BF0120E7
:10937800400080BD01464EF67D40888041F6F85099
:10938800CAF64F60086045F24B30C5F2A140C1F8FB
:10939800060046F23830C2F20000828803680020D6
:1093A800CA81C1F80A30704700207047014601A001
:1093B80035F072BE556E70726F766973696F6E653F
:1093C80064204E6F6465204964656E7469666965DA
:1093D800722072656365697665643A202530327853
:1093E8000A0D0000B0B546F23835C2F20005E91D95
:1093F80000202A4634F08AFC18B1014618A035F03E
:109408004BFE0DF0D3FE020A28704FEA112C6A7049
:10941800020C000E2971691EAA70E870EF2006225E
:109428000B4685F805C000BF13F8014F013A04EB5D
:109438004000F9D10322EA71EF230622A87100BF88
:1094480011F8014F013A04EB4303F9D1C0B2D9B284
:10945800081AB0FA80F040094CF0C0016971B0BD3B
:109468004661696C656420746F2072656164205080
:1094780075626C6963204164647265737320256446
:109488000000000080B54DF22132C0F60102042030
:10949800002133F05FFB0420002133F06FFC4BF612
:1094A800E502C0F600024020002133F053FB4020C3
:1094B8000021BDE8804033F061BC000080B543F670
:1094C8003610C0F6040036F0E1FA43F29370C0F6A5
:1094D800040036F0DBFA43F61F00C0F6040036F04D
:1094E800D5FA43F63100C0F6040036F0CFFA43F659
:1094F8000C00C0F6040036F0C9FA43F2D870C0F682
:10950800040036F0C3FA43F2F970C0F6040036F0EE
:10951800BDFA43F2E570C0F6040036F0B7FA43F23C
:10952800AA70C0F6040036F0B1FA03F043FB014616
:1095380043F2A360C0F6040035F0AEFD03F02CFB47
:10954800014643F29260C0F6040035F0A5FD03F031
:1095580049FB014643F22860C0F6040035F09CFD43
:1095680003F0CEFB014643F2B460C0F6040035F0C8
:1095780093FD03F0ADFB014643F24260C0F60400E0
:1095880035F08AFD03F0A6FB014643F21460C0F6ED
:10959800040035F081FD03F00FFB014643F2CF6074
:1095A800C0F6040035F078FD03F07CFB014643F279
:1095B800F660C0F6040035F06FFD43F2C470C0F6E3
:1095C800040036F063FA43F26160C0F6040000213B
:1095D800012235F061FD43F6D300C0F6040036F0F1
:1095E80055FA43F64300C0F6040036F04FFA43F646
:1095F8007900C0F6040036F049FA43F65B00C0F67D
:10960800040036F043FA43F69000C0F6040036F042
:109618003DFA43F6E300C0F6040036F037FA43F6A5
:10962800B400C0F6040036F031FA07A036F02EFA7E
:109638000CA0012135F030FD17A036F027FA1EA046
:10964800BDE8804036F022BA0A5B496D706F7274CB
:10965800616E7420496E666F726D6174696F6E5DBC
:10966800200D00004E756D626572206F6620456C96
:10967800656D656E747320656E61626C65642069E2
:109688006E204170706C69636174696F6E3A202551
:1096980064200D0A000000004E65696768626F75F6
:1096A80072205461626C6520697320656E61626C1A
:1096B8006564200D000000002A2A2A2A2A2A2A2A5C
:1096C8002A2A2A2A2A2A2A2A2A2A2A2A0D0A0D0076
:1096D80080B54AF6D440C2F20000006804212FF099
:1096E80053F840B1014642F25420C0F60400BDE8E8
:1096F800804035F0D1BC42F2F530C0F60400BDE838
:10970800804036F0C3B9000000207047B0B542F67B
:109718001435C0F60405284600211C4632F062FBC9
:1097280042F6B220C0F60400214635F0B5FC2846C2
:10973800002132F057FB02A036F0A8F90020B0BD96
:109748002338323130210D00B0B5B0F9000040F2B5
:10975800941203EB4301C2F20002322822F82100DE
:1097680040F2AC101C46C2F200000CDB47F6F64192
:109778000180016842688368042013F045FA0020DC
:1097880004F0D2FB08E0016842688368022013F005
:109798003BFA002004F0B8FB42F6C305C0F6040506
:1097A8002846002132F01EFB06A0214635F074FC45
:1097B8002846002132F016FB11A036F067F9002088
:1097C800B0BD00BF47656E657269635F4C657665BD
:1097D8006C44656C74615F5365742063616C6C6282
:1097E80061636B20726563656976656420666F7274
:1097F80020656C656D656E74202564200D0A000077
:109808002338323039210D00014640F29310C2F25C
:109818000000825C00200A7070470000014602EBDD
:10982800420040F29412C2F2000212F8203002EB19
:1098380080000B7042784A7082788A70C278002063
:10984800CA707047014602EB820040F2A012C2F2D1
:109858000002125C00200A707047000002EB8201CF
:1098680040F2A012C2F200020A4453780146037083
:1098780090784870D078887012790020CA70704744
:10988800014640F2A610C2F2000010F81220002093
:109898000A707047B0B5B0F900101C4603EB4302DC
:1098A80040F2941340F2A81CC2F2000321EAE170CE
:1098B800C2F2000C23F8220040F64212BCF8003035
:1098C800C2F20002108098424FF0000347F6F542BA
:1098D80098BF012391424FF00002C8BF0122002522
:1098E8001A430029C8BF012505EA020140F64012C3
:1098F800C2F20002117047F6FF710022ACF80000B6
:109908002FF096FB40F2AC13C2F2000318801968DE
:109918005A689B68042013F077F942F62715C0F6B9
:1099280004052846002132F05DFA42F68200C0F6AE
:109938000400214635F0B0FB2846002132F052FAE7
:1099480004A0214635F0A8FB022021462EF082F81B
:109958000020B0BD233832303621666F7220656C26
:10996800656D656E74496E646578202564200D0AFE
:109978000000000000207047B0B540F2941C1C465F
:1099880001684268806803EB4303C2F2000C0CEBE9
:109998008305A8606A6042F6DB05C0F604054CF84A
:1099A80023102846002132F01DFA06A0214635F082
:1099B80073FB2846002132F015FA11A036F066F83C
:1099C8000020B0BD47656E657269635F4C6576655A
:1099D8006C4D6F76655F5365742063616C6C626172
:1099E800636B20726563656976656420666F7220B3
:1099F800656C656D656E74202564200D0A00000095
:109A0800233832304221200D0000000070B51C467A
:109A1800002B47D1027840F2A016B0F8013001F0CF
:109A2800FE05C2F20006022D3270A6F8013015D1EB
:109A380040F2AC15C2F200052B8029686A68AB6851
:109A48000546042013F0E0F8B5F80310B6F8010055
:109A5800A6F80310884225D108BB0FE0012908BFEA
:109A6800012A0FD040F2AC10C2F20000012101809F
:109A7800016842688368022013F0C6F8002004F0E9
:109A880043FA0FE040F2AC10C2F2000047F6F6418C
:109A98000180016842688368042013F0B5F800204B
:109AA80004F042FA42F6F205C0F604052846002101
:109AB80032F098F942F2FB70C0F60400214635F006
:109AC800EBFA2846002132F08DF905A0214635F041
:109AD800E3FA012021462DF0BDFF002070BD00BF34
:109AE800233832303221666F7220656C656D656E81
:109AF80074496E646578202564200D0A0000000012
:109B08002DE9F04F81B042F63F37C0F604070C4606
:109B18008046384600211E4632F064F91CA03146C2
:109B280035F0BAFA3846002132F05CF927A035F052
:109B3800ADFF44B342F63F3608F1020B08F1010AC3
:109B48000025C0F604060EE0D94629A730460021B4
:109B580032F048F999F80010384635F09DFA013589
:109B6800E8B284420FD9E8B250B10228ECD00128FB
:109B7800F5D142F6FB27D146C0F60407E6E700BF59
:109B8800C14614A7E2E7002001B0BDE8F08F00BF8E
:109B980047656E657269635F4F6E4F66665F5374A3
:109BA800617475732063616C6C6261636B207265AC
:109BB80063656976656420666F7220656C656D659E
:109BC8006E74202564200D0A00000000233832300E
:109BD80034210D0050726573656E74204F6E4F66A8
:109BE800662076616C75653A2025640A0D000000D0
:109BF80052656D61696E696E672054696D6520767E
:109C0800616C75653A2025640A0D000070B500780E
:109C180040F2A61642F60A15C2F20006C0F604057E
:109C280026F81300284600211C4632F0DBF80EA067
:109C3800214635F031FA2846002132F0D3F842F6B1
:109C48003C00C0F60400214635F026FA36F8140028
:109C5800012805D145F27820C2F2000001210170E7
:109C6800FFF7AEFA002070BD233832313321206669
:109C78006F7220656C656D656E74496E64657820D9
:109C88002564200D0A0000002DE9F04142F65A37FC
:109C9800C0F604070C460546384600211E4632F039
:109CA800A1F812A0314635F0F7F93846002132F014
:109CB80099F81EA035F0EAFEACB142F65A380026F3
:109CC800C0F604081BA703E00136F0B284420AD9A3
:109CD8003006F9D14046002132F084F82978384618
:109CE80035F0DAF9F0E70020BDE8F08147656E65E8
:109CF8007269635F506F7765724F6E4F66665F5328
:109D080074617475732063616C6C6261636B20723B
:109D18006563656976656420666F7220656C656D3C
:109D2800656E74202564200D0A0000002338323146
:109D380032210D004F6E20506F77657220757020AC
:109D480076616C75653A2025640A0D0070B5018846
:109D58004288044618A035F09FF9617B42F6F470FA
:109D6800C0F6040035F098F9607B002808BF01F0C0
:109D78001FFD607B002818BF70BD1FA035F08CF94F
:109D8800207B88B143F202550026C0F6040500BFC7
:109D9800A0680178284635F07FF9A068217B013654
:109DA80001308E42A060F3D343F6F900C0F60400F8
:109DB800BDE8704035F06ABE4170704B657920414E
:109DC800646420726563656976656420666F7220D5
:109DD8006E65744B6579496E64657820252E3278F6
:109DE8002C206170704B6579496E64657820252E4A
:109DF8003278200D0A0000004170704B65792069A7
:109E0800733A200010B582B00446007A002808BFD3
:109E180001F0CEFC217862686388247A43F26730C7
:109E2800C0F60400009435F037F902B010BD000008
:109E380010B504460188428843F27940C0F6040010
:109E480035F02AF9617B42F6F470C0F6040035F06B
:109E580023F9607B002818BF10BDBDE8104001F051
:109E6800A7BC000070B50188044619A035F014F9A4
:109E7800A17A42F6F470C0F6040035F00DF9A07A24
:109E8800002808BF01F094FCA07A002818BF70BD14
:109E980019A035F0FBFD208988B143F20255002650
:109EA800C0F6040560680188284635F0F5F8606852
:109EB80001362189F2B2023091426060F2D843F64D
:109EC800F900C0F60400BDE8704035F0DFBD00BF02
:109ED800417070204B6579204C69737420666F72ED
:109EE800206E65744B6579496E64657820252E323D
:109EF80078206973200D0A004170704B65792049FC
:109F08006E6465786573206172653A200D00000003
:109F180010B582B00446007A002808BF01F048FC5A
:109F2800217862686388247A43F2CE30C0F6040050
:109F3800009435F0B1F802B010BD000070B50446C9
:109F48000188428843F23740C0F6040035F0A4F88F
:109F5800617B42F6F470C0F6040035F09DF8607B32
:109F6800002808BF01F024FC607B002818BF70BDE2
:109F780010A035F091F8207B80B143F202550026FD
:109F8800C0F60405A0680178284635F085F8A06871
:109F9800217B013601308E42A060F3D343F6F900ED
:109FA800C0F6040035F072FD07A0BDE8704035F03A
:109FB8006DBD00BF55706461746564204170704B5D
:109FC80065792069733A200049742077696C6C20A0
:109FD8006265207265706C61636564206279206FC8
:109FE8006C64206170704B657920616674657220BD
:109FF8004B65792052656672657368200D00000014
:10A0080070B50188044618A035F046F8617B42F621
:10A01800F470C0F6040035F03FF8607B002808BFF4
:10A0280001F0C6FB607B002818BF70BD1AA035F090
:10A0380033F8207B80B143F202550026C0F60405B0
:10A0480060680178284635F027F86068217B01367A
:10A0580001308E426060F3D343F6F900C0F6040085
:10A06800BDE8704035F012BD4E6574204B6579200F
:10A0780041646420726563656976656420666F7201
:10A08800206E65744B6579496E64657820252E329B
:10A0980078200D0A000000004E65744B6579206930
:10A0A800733A200010B50188044609A034F0F4FF83
:10A0B800617B42F6F470C0F6040034F0EDFF607B7B
:10A0C800002818BF10BDBDE8104001F071BB00BFEB
:10A0D8004E6574204B65792044656C657465207203
:10A0E8006563656976656420666F72206E65744B7A
:10A0F8006579496E646578202564200D0A000000A2
:10A1080070B50446817942F6F470C0F6040034F064
:10A11800C3FFA079002808BF01F04AFB0FA035F063
:10A12800B5FCA08888B143F202550026C0F60405A4
:10A1380020680188284634F0AFFF20680136A188DE
:10A14800F2B2023091422060F2D843F6F900C0F62C
:10A158000400BDE8704035F099BC00BF4E65744BF3
:10A16800657920496E6465786573206172653A2067
:10A178000D00000070B5018804461AA034F08CFF69
:10A18800617B42F6F470C0F6040034F085FF607B12
:10A19800002808BF01F00CFB607B002818BF70BDC9
:10A1A8001CA034F079FF207B80B143F202550026D1
:10A1B800C0F6040560680178284634F06DFF6068D1
:10A1C800217B013601308E426060F3D343F6F900FB
:10A1D800C0F6040035F05AFC13A0BDE8704035F015
:10A1E80055BC00BF4E6574204B657920557064617D
:10A1F800746520726563656976656420666F722090
:10A208006E65744B6579496E646578202564200D08
:10A218000A00000055706461746564204E65744BD3
:10A2280065792069733A000049742077696C6C205D
:10A238006265207265706C61636564206279206F65
:10A248006C64206E65744B65792061667465722054
:10A258004B65792052656672657368200D000000B1
:10A26800B0B586B00446417C42F6F470C0F60400EE
:10A2780034F012FF607C002808BF01F099FA608969
:10A28800217B2278636894F80EC094F80FE0257C4F
:10A29800647B8DE8015043F20800C0F60400039582
:10A2A800049434F0F9FE06B0B0BD000010B50446C1
:10A2B8004168027843F22330C0F6040034F0ECFE23
:10A2C8006168B1F5885F18BF10BD2046BDE8104031
:10A2D8002FF0D2BF10B50446817A42F6F470C0F66A
:10A2E800040034F0D9FEA07A002808BF01F060FA13
:10A2F80094F80BC043F2091021786268238943F26D
:10A308006314C0F60400C0F60404BCF1000F08BFD3
:10A318002046BDE8104034F0BFBE000010B504462A
:10A32800817A42F6F470C0F6040034F0B5FEA07AE3
:10A33800002808BF01F03CFAE07A50B12178626841
:10A34800238943F2B510C0F60400BDE8104034F08C
:10A35800A3BE207B2178626838B143F2BB40C0F6C7
:10A368000400BDE8104034F097BE238943F216205C
:10A37800C0F60400BDE8104034F08EBE10B50446A7
:10A38800817A42F6F470C0F6040034F085FEA07AB3
:10A39800002808BF01F00CFA94F80BC043F26B20B8
:10A3A80021786268238943F2CB24C0F60400C0F602
:10A3B8000404BCF1000F08BF2046BDE8104034F08B
:10A3C8006BBE000045F60071C2F200010A68027017
:10A3D8000A68120A42704A888270CA78C2700020DD
:10A3E8000860704710B54CF6B952C0F60302082051
:10A3F800002132F0AFFB47F2B414C2F200044CF66D
:10A40800C153C0F6030300202146002211F0DEF8F4
:10A4180020784CF25821C0F2120111F02DFA30F0D8
:10A42800FFFB49F26112C0F6000280200021BDE85E
:10A43800104032F08FBB0000B0B540F2AA14C2F24F
:10A448000004012020700020002503F06DFD4FF46A
:10A45800FA700DF0E9F90020257003F055FD4FF46E
:10A46800FA700DF0E1F90020B0BD000040F2AA102A
:10A47800C2F20000007810B1002003F055BD0020A2
:10A4880003F042BD002070472DE9F04F81B042F63D
:10A49800B477C0F604070C460546384600211E4628
:10A4A80031F0A0FC24A0314634F0F6FD38460021F6
:10A4B80031F098FC2FA035F0E9FA002C38D042F69C
:10A4C800B47B42F604680027C0F6040BC0F6040803
:10A4D8000FF2C0090FF2A40A002605E00A4634F07C
:10A4E800DBFD0136B44223D0052EFAD8DFE806F0AA
:10A4F8000C030C170C0E5846002131F073FC6878D9
:10A5080047EA00214046E9E7AF5DEAE758460021FF
:10A5180031F068FC687947EA00215046DEE7584682
:10A52800002131F05FFCE87847EA00214846D5E78A
:10A53800002001B0BDE8F08F4C696768745F437410
:10A548006C5F44656661756C7453746174757320CF
:10A5580063616C6C6261636B2072656365697665C3
:10A568006420666F7220656C656D656E7420256465
:10A57800200D0A002338323638210D0044656C74EA
:10A58800612055563A203078257820282564290AF4
:10A598000D00000054656D70657261747572653ADE
:10A5A800203078257820282564290A0D000000002D
:10A5B800002070472DE9F04F81B042F63E67C0F6A3
:10A5C80004070C460546384600211E4631F00AFCB1
:10A5D80042F67A30C0F60400314634F05DFD384664
:10A5E800002131F0FFFB23A035F050FA002C3DD0BC
:10A5F80042F63E6B42F6A84A42F69D5842F6265964
:10A608000027C0F6040BC0F6040AC0F60408C0F61A
:10A618000409002604E000BFAF5D0136B44225D02E
:10A6280086B126F002000128F6D0042E11D0022EA1
:10A63800F3D15846002131F0D5FBA87847EA00212C
:10A6480048460FE05846002131F0CCFB29785046A7
:10A6580008E05846002131F0C5FB287947EA002177
:10A66800404600BF0A4634F017FDD6E7002001B087
:10A67800BDE8F08F2338323633210D0000207047B3
:10A688002DE9F04F81B042F6A567C0F604070C46E5
:10A698000546384600211E4631F0A4FB34A0314659
:10A6A80034F0FAFC3846002131F09CFB40A035F02C
:10A6B800EDF9002C57D042F6A56642F6DD4A42F67F
:10A6C800C1474FF00008C0F60406C0F6040A0FF2AE
:10A6D800E80BC0F604074FF0000906E00A4634F01C
:10A6E800DBFC09F101094C453DD0B9F1080FF8D858
:10A6F800DFE809F00E2D0E110E1D0E05260030465E
:10A70800002131F06FFBE87948EA00215846E5E777
:10A7180015F80980E5E73046002131F063FBE87859
:10A7280048EA002142F68640C0F60400D6E73046E3
:10A73800002131F057FB687948EA00215046CDE7FF
:10A748003046002131F04EFB297A3846C6E73046BC
:10A75800002131F047FB687848EA002142F60150B1
:10A76800C0F60400BAE7002001B0BDE8F08F00BFD2
:10A778004C696768745F43746C54656D7065726189
:10A78800747572655F5374617475732063616C6C62
:10A798006261636B20726563656976656420666FC4
:10A7A8007220656C656D656E74202564200D0A0045
:10A7B8002338323636210D005461726765742043A0
:10A7C800544C2044656C74612055563A20307825E5
:10A7D8007820282564290D0A000000000020704711
:10A7E8002DE9F04F81B042F6F867C0F604070C4631
:10A7F8000546384600211E4631F0F4FA33A03146AA
:10A8080034F04AFC3846002131F0ECFA3DA035F02E
:10A818003DF9002C55D042F6F86642F6DD4B4FF074
:10A828000008C0F604060FF2001AC0F6040B37A79A
:10A838004FF0000907E000BF0A4634F02DFC09F18B
:10A8480001094C453DD0B9F1080FF8D8DFE809F007
:10A858000E2D0E110E1D0E0526003046002131F07A
:10A86800C1FAE87948EA00215846E5E715F8098071
:10A87800E5E73046002131F0B5FAE87848EA0021EA
:10A8880042F60150C0F60400D6E73046002131F008
:10A89800A9FA687948EA00215046CDE730460021F8
:10A8A80031F0A0FA297A3846C6E73046002131F05F
:10A8B80099FA687848EA002142F63D50C0F604004B
:10A8C800BAE7002001B0BDE8F08F00BF4C696768A7
:10A8D800745F43746C5F5374617475732063616C47
:10A8E8006C6261636B207265636569766564206676
:10A8F8006F7220656C656D656E74202564200D0A85
:10A90800000000002338323630210D0052656D6199
:10A91800696E696E672054696D653A3078257820CC
:10A92800282564290D0A0000546172676574204364
:10A93800544C204C696768746E6573733A2030789C
:10A94800257820282564290D0A000000002070477A
:10A958000020704700207047002070470020704793
:10A968000020704700207047002070470020704783
:10A9780000207047002070470020704740F2100107
:10A98800C2F200010B2312FB031213790146037074
:10A99800527900204A70704740F21001C2F200015B
:10A9A8000B2312FB0312937801460370D278002020
:10A9B8004A707047014640F25C20C2F2000010F86D
:10A9C800123000EB42000B7040780B23487040F2C5
:10A9D8001000C2F2000012FB030082788A70C2786D
:10A9E8000020CA707047000040F21001C2F2000156
:10A9F8000B2312FB0312937901460370D079487038
:10AA0800107A8870507AC870927A00200A7170475C
:10AA180040F2100C0B230146C2F2000C02FB03F0BB
:10AA28001CF8000012FB03C2087050784870907838
:10AA38008870D2780020CA707047000000207047E4
:10AA48002DE9F04F81B042F69677C0F604070C4620
:10AA58000546384600211E4631F0C4F924A0314687
:10AA680034F01AFB3846002131F0BCF92FA035F03C
:10AA78000DF8002C38D042F6967B42F60468002781
:10AA8800C0F6040BC0F604080FF2C0090FF2A40ABE
:10AA9800002605E00A4634F0FFFA0136B44223D016
:10AAA800052EFAD8DFE806F00C030C170C0E5846F2
:10AAB800002131F097F9687847EA00214046E9E734
:10AAC800AF5DEAE75846002131F08CF9687947EA2A
:10AAD80000215046DEE75846002131F083F9E87836
:10AAE80047EA00214846D5E7002001B0BDE8F08FCD
:10AAF8004C696768745F48736C44656661756C740B
:10AB08005F5374617475732063616C6C6261636B0D
:10AB180020726563656976656420666F7220656C6E
:10AB2800656D656E74202564200D0A002338323760
:10AB380043210D0053617475726174696F6E3A2018
:10AB48003078257820282564290A0D004875653A4B
:10AB5800203078257820282564290A0D0000000077
:10AB6800002070472DE9F04F81B042F6C767C0F664
:10AB780004070C460546384600211E4631F032F9D6
:10AB880028A0314634F088FA3846002131F02AF9F5
:10AB980032A034F07BFF002C3FD042F6C76B002771
:10ABA8006FF00206C0F6040B0FF2B8090FF2CC0AD8
:10ABB8004FF0000806E000BF15F8087008F101081A
:10ABC80044452AD018EA060FF6D0B8F1040F17D07A
:10ABD800B8F1030F0BD0B8F1010FEFD1584600219F
:10ABE80031F000F9687847EA0021504611E05846EC
:10ABF800002131F0F7F8E87847EA0021484608E0F4
:10AC08005846002131F0EEF8297942F6CD50C0F6C9
:10AC180004000A4634F040FAD0E7002001B0BDE84D
:10AC2800F08F00BF4C696768745F48736C4875653E
:10AC38005F5374617475732063616C6C6261636BDC
:10AC480020726563656976656420666F7220656C3D
:10AC5800656D656E74202564200D0A00233832372F
:10AC680031210D00546172676574204875653A207A
:10AC78003078257820282564290A0D0050726573DC
:10AC8800656E74204875653A203078257820282527
:10AC980064290A0D00000000002070472DE9F04FDC
:10ACA80081B042F68967C0F604070C460546384667
:10ACB80000211E4631F096F833A0314634F0ECF905
:10ACC8003846002131F08EF83EA034F0DFFE002C2B
:10ACD80055D042F6896642F61B6A4FF00008C0F666
:10ACE8000406C0F6040A0FF2081B38A74FF0000943
:10ACF80007E000BF0A4634F0CFF909F101094C45D5
:10AD08003DD0B9F1080FF8D8DFE809F02F0E110E81
:10AD18001D0E050E26003046002131F063F8A87993
:10AD280048EA00215846E5E715F80980E5E7304686
:10AD3800002131F057F8A87848EA002142F6E95096
:10AD4800C0F60400D6E73046002131F04BF82879E8
:10AD580048EA00215046CDE73046002131F042F85C
:10AD6800287A48EA00213846C4E73046002131F005
:10AD780039F8297842F6B450C0F60400BAE7002042
:10AD880001B0BDE8F08F00BF4C696768745F487315
:10AD98006C52616E67655F5374617475732063618B
:10ADA8006C6C6261636B20726563656976656420AB
:10ADB800666F7220656C656D656E74202564200D64
:10ADC8000A0000002338323745210D00536174759D
:10ADD800726174696F6E2052616E6765204D61788B
:10ADE8003A203078257820282564290A0D000000AB
:10ADF80053617475726174696F6E2052616E676514
:10AE0800204D696E3A203078257820282564290A53
:10AE18000D000000002070472DE9F04F81B042F688
:10AE28000F77C0F604070C460546384600211E4633
:10AE380030F0D8FF28A0314634F02EF938460021EA
:10AE480030F0D0FF34A034F021FE002C3FD042F681
:10AE58000F7B00276FF00206C0F6040B0FF2C00943
:10AE68000FF2DC0A4FF0000806E000BF15F8087082
:10AE780008F1010844452AD018EA060FF6D0B8F1BF
:10AE8800040F17D0B8F1030F0BD0B8F1010FEFD1B1
:10AE98005846002130F0A6FF687847EA002150465E
:10AEA80011E05846002130F09DFFE87847EA00217C
:10AEB800484608E05846002130F094FF297942F6C8
:10AEC800CD50C0F604000A4634F0E6F8D0E700207A
:10AED80001B0BDE8F08F00BF4C696768745F4873C4
:10AEE8006C53617475726174696F6E5F53746174C9
:10AEF80075732063616C6C6261636B207265636556
:10AF08006976656420666F7220656C656D656E7420
:10AF1800202564200D0A00002338323735210D0022
:10AF28005461726765742053617475726174696FD6
:10AF38006E3A203078257820282564290A0D0000EB
:10AF480050726573656E74205361747572617469AB
:10AF58006F6E3A203078257820282564290A0D005C
:10AF6800002070472DE9F04F81B042F6E167C0F646
:10AF780004070C460546384600211E4630F032FFCD
:10AF88002AA0314634F088F83846002130F02AFFEC
:10AF980034A034F07BFD002C44D042F6E16642F642
:10AFA800CD5B0027C0F604060FF2DC090FF2BC0ADD
:10AFB800C0F6040B4FF0000806E00A4634F06CF8BF
:10AFC80008F1010844452DD0B8F1060FF8D8DFE89C
:10AFD80008F00D040D200D1019003046002130F046
:10AFE80001FF687847EA00212DA0E6E715F8087008
:10AFF800E6E73046002130F0F5FE687947EA00219F
:10B008005046DAE73046002130F0ECFEA979584680
:10B01800D3E73046002130F0E5FEE87847EA002122
:10B028004846CAE7002001B0BDE8F08F4C69676860
:10B03800745F48736C5F5374617475732063616CDB
:10B048006C6261636B20726563656976656420660E
:10B058006F7220656C656D656E74202564200D0A1D
:10B06800000000002338323738210D0048534C20A7
:10B0780053617475726174696F6E3A2030782578FF
:10B0880020282564290A0D0048534C204875653A44
:10B09800203078257820282564290A0D0000000032
:10B0A80048534C204C696768746E6573733A203056
:10B0B80078257820282564290A0D0000B0B50546B2
:10B0C80000881C4600284FF0000002D002F02CFF38
:10B0D80001E002F019FF40F210012888C2F20001D5
:10B0E8000B2242F6712514FB0211C0F60405888074
:10B0F8002846002130F076FE09A034F0C7FC284627
:10B10800002130F06FFE42F6CB10C0F60400214655
:10B1180033F0C2FF032021462CF09CFC0020B0BD78
:10B12800233832353921200D000000002DE9F04385
:10B1380081B042F67177C0F604070C4605463846DA
:10B1480000211E4630F04EFE42F64340C0F6040091
:10B15800314633F0A1FF3846002130F043FE42F675
:10B168003660C0F6040034F091FCECB142F6717818
:10B178000026C0F604080FF2380900270EE000BFC9
:10B188004046002130F02EFE687846EA0021484605
:10B198000A4633F081FF0137BC4205D0012FEFD0BA
:10B1A800002FF8D12E78F6E7002001B0BDE8F08333
:10B1B8004C696768746E6573732044656661756C65
:10B1C800743A203078257820282564290D0A000053
:10B1D800B0B540F21002B0F80700C2F200020B232B
:10B1E80042F6932411FB0325C0F604046880204628
:10B1F800002130F0F7FD06A033F04EFF2046002175
:10B2080030F0F0FD698805A033F046FF0020B0BD9E
:10B218002338323539210A0D000000004170706C66
:10B22800695F4C696768745F4C696768746E6573B9
:10B23800735F4C6173745F536574204C69676874FD
:10B24800204C6173742056616C7565203078252E0A
:10B258003278200D0A0000002DE9F04381B042F653
:10B26800D277C0F604070C460546384600211E462C
:10B2780030F0B8FD17A0314633F00EFF38460021F4
:10B2880030F0B0FD42F63660C0F6040034F0FEFB44
:10B29800E4B142F6D2780026C0F604080FF2740929
:10B2A80000270DE04046002130F09CFD687846EA12
:10B2B800002148460A4633F0EFFE0137BC4205D06C
:10B2C800012FEFD0002FF8D12E78F6E7002001B03B
:10B2D800BDE8F0834C696768745F4C696768746E91
:10B2E8006573735F4C6173745F5374617475732015
:10B2F80063616C6C6261636B207265636569766516
:10B308006420666F7220656C656D656E74202564B7
:10B31800200D0A004C696768746E657373204C6170
:10B3280073743A203078257820282564290D0A007E
:10B33800B0B5408840F25C2142F63625C2F20001E1
:10B34800C0F6040521F81300284600211C4630F0F9
:10B3580049FD42F68810C0F60400214633F09CFEF1
:10B368002846002130F03EFD02A033F095FE002073
:10B37800B0BD00BF2338323530210A0D000000006F
:10B388002DE9F04F81B042F63077C0F604070C463D
:10B398000546384600211E4630F024FD42F601409D
:10B3A800C0F60400314633F077FE3846002130F00D
:10B3B80019FD26A034F06AFB002C42D042F6307BFF
:10B3C80042F6605942F67E5A00276FF00206C0F630
:10B3D800040BC0F60409C0F6040A4FF0000805E0A3
:10B3E80015F8087008F1010844452AD018EA060F34
:10B3F800F6D0B8F1040F17D0B8F1030F0BD0B8F19D
:10B40800010FEFD15846002130F0ECFC687847EA8C
:10B418000021504611E05846002130F0E3FCE8785E
:10B4280047EA0021484608E05846002130F0DAFC97
:10B43800297942F6C140C0F604000A4633F02CFED2
:10B44800D0E7002001B0BDE8F08F00BF23383235C7
:10B4580032210D00B0B540F210021C460178C2F24C
:10B4680000020B2314FB03229171D0F8010042F66D
:10B478001625C0F60405C2F807002846002130F05A
:10B48800B1FC08A033F008FE2846002130F0AAFCE1
:10B4980042F63F10C0F60400214633F0FDFD0020BF
:10B4A800B0BD00BF233832354221200A0D0000000C
:10B4B8002DE9F04F81B042F66667C0F604070C46E6
:10B4C8000546384600211E4630F08CFC42F6C03056
:10B4D800C0F60400314633F0DFFD3846002130F075
:10B4E80081FC23A034F0D2FA002C3DD042F6666BE2
:10B4F80042F6A84A42F69D5842F626590027C0F659
:10B50800040BC0F6040AC0F60408C0F604090026B5
:10B5180004E000BFAF5D0136B44225D086B126F005
:10B5280002000128F6D0042E11D0022EF3D158467D
:10B53800002130F057FCA87847EA002148460FE080
:10B548005846002130F04EFC2978504608E058460D
:10B55800002130F047FC287947EA0021404600BF27
:10B568000A4633F099FDD6E7002001B0BDE8F08F18
:10B578002338323538210D00F0B581B042F6572610
:10B58800C0F604060546304600211C46002730F068
:10B5980029FC27A033F080FD3046002130F022FC42
:10B5A8002A88B5F8073025A0214633F075FD40F20A
:10B5B80010012888C2F200010B2214FB0213624317
:10B5C800885240F6421240F2B816B5F80710C2F297
:10B5D8000002C2F20006002818BF0146128835880A
:10B5E8005980AA424FF0000147F6F54398BF012160
:10B5F8009A4288BF01273943002A328018BF0122A6
:10B60800114040F64012C2F2000211704FF6FF716D
:10B6180000222DF00DFD40F2AC11C2F200010880AD
:10B62800032021462CF016FA002001B0F0BD00BF1F
:10B638002338323443210A0D00000000456C656D43
:10B64800656E7420696E6465782025642070726563
:10B6580073656E74203078252E3278206C6173748F
:10B66800203078252E32780D0A0000002DE9F04FA1
:10B6780081B042F65477C0F604070C4605463846B2
:10B6880000211E4630F0AEFB2AA0314633F004FDFF
:10B698003846002130F0A6FB35A034F0F7F9002C2D
:10B6A80043D042F6547B42F6605942F67E5A002750
:10B6B8006FF00206C0F6040BC0F60409C0F6040ACF
:10B6C8004FF0000806E000BF15F8087008F10108FF
:10B6D80044452AD018EA060FF6D0B8F1040F17D05F
:10B6E800B8F1030F0BD0B8F1010FEFD15846002184
:10B6F80030F078FB687847EA0021504611E0584658
:10B70800002130F06FFBE87847EA0021484608E05E
:10B718005846002130F066FB297942F6C140C0F650
:10B7280004000A4633F0B8FCD0E7002001B0BDE8B9
:10B73800F08F00BF4C696768745F4C696768746E06
:10B748006573735F5374617475732063616C6C62A5
:10B7580061636B20726563656976656420666F72E4
:10B7680020656C656D656E74202564200D0A0000E7
:10B778002338323445210D0010B54AF6D440C2F2C0
:10B788000000006804212CF0FFFF044640B142F29B
:10B798005420C0F60400214633F07EFC204610BD3C
:10B7A80042F2F530C0F6040034F070F9204610BDBE
:10B7B80080B510F081FB50B101F002FB002818BFE2
:10B7C80080BD41F65E50C2F200000121017080BDCB
:10B7D80080B510F071FB18B310F074FB00B341F69C
:10B7E8006550C2F200000178002918BF80BD012110
:10B7F80001700BF0FDFC012802D003200AF0B8F814
:10B808000AA034F043F9002000212AF027FE40B9AD
:10B8180042F24740C0F60400BDE8804034F036B933
:10B8280080BD64200CF000F831F006FE50726F768F
:10B838006973696F6E696E672073657373696F6E7C
:10B848002074696D656F75743A2072657475726ECF
:10B8580020746F206C656761637920474154540DEB
:10B868000000000081B08DF803004AF6C040C2F223
:10B8780000000068406801B070470000B0B583B0B0
:10B8880094468E46044609980899079A02948DF8BA
:10B8980007E08DF806C0ADF80430ADF802208DF849
:10B8A80001108DF80000029901200870029900200B
:10B8B8004870029988700299C8700299087103B09B
:10B8C800B0BD000081B08DF803004AF6C040C2F256
:10B8D80000000068006901B070470000B0B541F68B
:10B8E8006454C2F20004207840F60A25C2F200052A
:10B8F80020B9287810B9FFF76BFF11E02CF0F0FFA2
:10B908004AF69941C2F20001097802460843000646
:10B918000CD042F26B20C9B2C0F6040033F0BCFB75
:10B9280040200021BDE8B04031F028BA10F0C4FA38
:10B9380088B100202070287001202FF0E3FB02203E
:10B9480000212AF08BFDC0B942F20140C0F6040084
:10B9580034F09CF8CFE728780128CCD141F65E5125
:10B968000020C2F2000128702070087007A034F08F
:10B978008DF8BDE8B0402AF0A1BE12A034F086F8D8
:10B98800FA200BF051FF31F057FD00BF4D65736889
:10B9980020636F6E66696775726174696F6E206384
:10B9A8006F6D6D69747465643A20636F6E74726F3D
:10B9B8006C6C65642050726F78792072657374615D
:10B9C80072740D0050726F766973696F6E696E6775
:10B9D80020636F6D6D69747465643A207265626F77
:10B9E8006F7420746F204D657368206F7065726185
:10B9F80074696F6E616C0D0041F66A50C2F2000006
:10BA08000078002818BF704780B501F0ADFD0A2006
:10BA18000BF00AFFFDF75CFE002009F0A9FF42F2D7
:10BA28007E30C0F6040034F031F801F0C5FB31F087
:10BA380003FD000080B582B08DF807004AF6C840C3
:10BA4800C2F20000006801699DF80700884702B04B
:10BA580080BD00002DE9F04F8FB0834600284FF0DD
:10BA6800030000F013810D46002900F00F8140F219
:10BA780090389BF800A045F23C29C2F2000801204A
:10BA8800C2F20009A8F800008FA0002189F800A0E0
:10BA9800002730F0A7F99BF8001091A02A4633F050
:10BAA800FBFA94A6002400BF1BF80710304633F0B9
:10BAB800F3FA0134A7B2BD42F6D841F62700C0F622
:10BAC800040033F0E9FAAAF1010127294FF0010037
:10BAD80000F2DC80DFE811F02800DA00DA00DA0092
:10BAE800DA00DA00DA00DA00DA00DA00DA00DA007E
:10BAF800DA00DA00DA00990093009000DA00DA0040
:10BB0800DA00DA00DA00DA00DA00DA00DA00DA005D
:10BB1800DA00DA00DA0047006D00A800B300D200AE
:10BB2800BA0036007A0059003C2D00F2B78045F281
:10BB38003C20C2F2000059462A46FBF7FEFBA8F853
:10BB48000050A2E00BF07CFB0446FBF734FCC5B2C6
:10BB5800102D28BF102509F1010021462A46FBF7C0
:10BB6800ECFB681C8FE0022DC0F098809BF8010068
:10BB780069468DF800004AF6B800C2F200000122BA
:10BB88004FF47A730EF084FC7FE0012D40F086803C
:10BB980068462AF01DFB012089F80100BDF8000065
:10BBA800DDF80210029AA9F802000C20C9E9011276
:10BBB80069E0032D72D39BF8010004287CD0032888
:10BBC8006CD19BF802002FF017FA5EE0052D60D1CA
:10BBD800DBF8011003202AF041FC002862D0002085
:10BBE80089F80100DBF80100C9F802000620A8F86E
:10BBF80000002AF063FD48E00BF0A2FA40E0684636
:10BC08003B210BF0BBFA30B952E068463B210BF000
:10BC18009DFA00284CD0044609F1010069462246E5
:10BC2800FBF78BFB601C2EE0022D37D39BF801003D
:10BC3800042846D0032831D10BF0F6FA20E0022D73
:10BC48002CD39BF801002FF06FF91EE0A5F112002C
:10BC580010F1100F22D3681E00216C468DF81010C9
:10BC6800CDE90211CDE900110BF10101C2B2204664
:10BC7800FBF763FB20462FF0FFF906E00BF09EFA76
:10BC880089F801000220A8F8000000200FB0BDE8E4
:10BC9800F08F89F801000220A8F8000003200FB0F7
:10BCA800BDE8F08F042089F801000220A8F8000000
:10BCB80001200FB0BDE8F08F9BF802002FF0BCF90F
:10BCC800E3E70BF0B7FADBE74170706C695F566524
:10BCD8006E646F725F446174615F77726974650046
:10BCE8002330452D2530326878202530326C782174
:10BCF800200A0D0025303268782000002DE9F04F29
:10BD080083B00546067845F23C20C2F20000067072
:10BD180042F2A550C0F604000021002430F062F879
:10BD2800297853A033F0B8F9701E032800F29A80DE
:10BD3800DFE800F002084C9940F29030C2F20000AF
:10BD480002218CE000F030FF04783CB342F2A558A1
:10BD5800471C00250DF102090FF23C1AC0F6040831
:10BD68000FF2481B13E000BFE0B201F041F80446AF
:10BD780009F806005E464046002130F033F83046A8
:10BD8800214633F089F917F8014B013534B1EEB289
:10BD98002E2C09F80640E7D15646ECE7BDF802001C
:10BDA80045F23C22BDF80510C2F20002A2F80100DB
:10BDB8009DF80800A2F80310BDF80910507140F270
:10BDC8009030D180C2F20000082148E000F0E6FE81
:10BDD80004785CB342F2755B42F2A559471C002512
:10BDE8000DF1020AC0F6040BC0F604090FF2900820
:10BDF8000DE000BF5E46484600212FF0F3FF3046B5
:10BE0800214633F049F917F8014B013574B1EEB208
:10BE18002E2C0AF80640EDD0522CEBD0E0B200F000
:10BE2800E7FF04460AF806004646E4E7BDF80200C4
:10BE380045F23C27C2F20007A7F801009DF805006B
:10BE48009DF807109DF809209DF80B30F87040F216
:10BE5800903039717A71BB71C2F2000007210180FC
:10BE6800002400E00124204603B0BDE8F08F00BFA5
:10BE78002330322D253032687821200A0D00000049
:10BE8800537562204C69622076657273696F6E2003
:10BE980069732025780A0D004C69622076657273F3
:10BEA800696F6E2069732025630A0D004C69622052
:10BEB80076657273696F6E2069732025780A0D00A4
:10BEC8002DE9F04381B0064690F8008042F28D508B
:10BED800C0F604000021154600272FF083FF3178B3
:10BEE8007CA033F0D9F8A8F1010005284FF001092A
:10BEF80000F2CE800024DFE800F003502ACC718DD8
:10BF080042F28D50C0F6040000214FF000092FF0D6
:10BF180069FF42F2CA40C0F60400294633F0BCF873
:10BF280040F2AC10C2F2000047F6F6410180016809
:10BF380042688368042010F067FE002001F0F4FFD7
:10BF480040F2AA10C2F20000012101709FE042F203
:10BF58008D50C0F6040000214FF000092FF042FF79
:10BF680042F20050C0F60400294633F095F840F23A
:10BF7800AA14C2F200042078012874D140F2AC104F
:10BF8800C2F2000001210180016842688368042030
:10BF980010F03AFE84F800901EE042F28D50C0F690
:10BFA800040000214FF000092FF01CFF5DA0294676
:10BFB80033F072F840F2AC10C2F2000001210180A7
:10BFC800016842688368042010F01EFE40F2AA103F
:10BFD800C2F2000080F80090002018E042F28D5074
:10BFE800C0F6040000212FF0FDFE42F23A50C0F6E0
:10BFF8000400294633F050F8707840F2AA11C2F2D2
:10C008000001012808703DD000204FF0000901F020
:10C018007BFF3CE042F28D50C0F6040000212FF077
:10C02800E1FE30A0294633F037F87778B47847F640
:10C03800FF7147EA042000222CF0FAFF054640F27F
:10C04800AC10C2F2000005800168426883680420D1
:10C0580010F0DAFD00204FF00009B5F57A5F35D908
:10C0680001F062FF15E040F2AC10C2F2000047F6A2
:10C07800F6410180016842688368042010F0C4FD1D
:10C088000120207000204FF0000901F04DFF00272B
:10C09800002445F23C20C2F20000B8F1060F80F8F7
:10C0A800008003D144708770032106E040F2AA1192
:10C0B800C2F2000109784170022140F29032C2F2C6
:10C0C80000024846118001B0BDE8F08301F01CFF72
:10C0D800DFE700BF2330332D2530326878210A0D81
:10C0E800000000004170706C695F4C45445F496E08
:10C0F80074656E736974792063616C6C6261636BDB
:10C1080020726563656976656420666F7220656C68
:10C11800656D656E74496E646578202564200D0A26
:10C12800000000004170706C695F4C45445F4F46E9
:10C13800462063616C6C6261636B2072656365693C
:10C1480076656420666F7220656C656D656E7449EE
:10C158006E646578202564200D0A0000B0B584B0AF
:10C1680001F00AFA28B1002001F0DEFE012004B037
:10C17800B0BD0020002501F0C7FE40F20C22C2F23B
:10C188000002136C108892F844100124CDE90035A0
:10C19800931C0E22029401F0D5F804B0B0BD000043
:10C1A800F0B581B040F20C270E46C2F200071546E2
:10C1B8000146B81C32461C46FBF7BFF800203C80FD
:10C1C8003E643C2E88BF032087F8445001B0F0BD80
:10C1D8002DE9F0410446077845F23C2842F2BD506B
:10C1E8000D46C2F20008C0F60400002188F800706D
:10C1F80000262FF0F7FD217820A032F04DFFF81E21
:10C20800032837D3022F19D0062F32D19DB141F61A
:10C21800270700210FF27408C0F60407002600BFA4
:10C22800625C404632F038FF384632F035FF01365E
:10C23800F1B28D42F4D80020BDE8F0813D2D0AD33B
:10C2480042F2BD50C0F6040000212FF0CBFD13A030
:10C2580033F01CFC3C25611C6A1E08F10100FBF749
:10C268006CF840F29030C2F2000005800020BDE872
:10C27800F08101263046BDE8F08100BF2330312D22
:10C28800253032687821200A0D000000646174614D
:10C298005B25645D3D202564000000004C656E67E9
:10C2A8007468207265636569766564206772656184
:10C2B800746572207468616E2073697A65206F6690
:10C2C80020726573706F6E7365206275666665723D
:10C2D800200D000040F2FC12C1EBC101C2F20002C5
:10C2E80002EB4101002200BF31F81230984204BF2E
:10C2F800012070470132072A04BF00207047F3E786
:10C3080040F25422C2F2000202EBC101002200BF37
:10C3180051F82230984204BF012070470132012AA7
:10C328001CBF00207047F3E70020704710B540F2AB
:10C33800FC12C1EBC101C2F2000202EB4101002470
:10C348004FF6FF7231F81430934203D00134072CB2
:10C35800F8D107246200FAF7F0FFE0B210BD000040
:10C3680010B540F25422C2F2000202EBC1010024CF
:10C378004FF6FF7251F82430934203D00134012C58
:10C38800F8D00224A200FAF7D8FFE0B210BD0000EE
:10C39800B0B588B0DDF844C0DDF840C0DDF83CC079
:10C3A800DDF838C0DDF834C0DDF830C007900691FC
:10C3B800059204930EF046FD06980EF093FD05983D
:10C3C8000499109A119BDDF83CC00D9CEE4600259F
:10C3D800CEF80850CEF80440CEF800C00EF024FC89
:10C3E8000E980F99079A0EF095FB0C980D990EF080
:10C3F8006DFB03900EF0FEFC039808B0B0BD000082
:10C40800B0B588B0DDF844C0DDF840C0DDF83CC008
:10C41800DDF838C0DDF834C0DDF830C0079006918B
:10C4280005920493002003900EF00CFD04980EF082
:10C4380059FD0C980D99109A119BDDF83CC0059C8C
:10C44800EE460125CEF80850CEF80440CEF800C0DC
:10C458000EF0EAFB0E980F99079A0EF05BFB069810
:10C4680005990EF0D1FB0EF0C5FC039808B0B0BDDD
:10C4780080B592B0119010910F920E9340F2602007
:10C48800C2F200000D9000200B90109802901198B5
:10C4980020B1FFE7119800F0FFF8FFE70E9890B180
:10C4A800FFE70F9800F00F000B900F9830B1FFE7EF
:10C4B8000B9818B9FFE710200B90FFE70B990F981E
:10C4C800401A0F90FFE7FFE70F9870B3FFE7029B52
:10C4D800186859689A68DB680A9309920891079066
:10C4E800FFE7079800BA0D9909684840079008982F
:10C4F80000BA0D99496848400890099800BA0D9902
:10C508008968484009900A9800BA0D99C968484056
:10C518000A90FFE70D9907A800F0B4F802981030C8
:10C5280002900F9810380F90CEE70E98002800F070
:10C538008180FFE700200A900990089007900C90EE
:10C54800FFE70C980B99884213D2FFE702990C98E1
:10C55800095C03228243D20001FA02F320F00302AD
:10C5680007A9885818438850FFE70C9801300C90A9
:10C57800E7E70020069005900490039003A9019135
:10C58800084600F07FF8019800F056F80B980F283D
:10C5980011D8FFE70B9803218143CA00802101FAD3
:10C5A80002F320F0030207A988581843885003A80B
:10C5B80000F042F8FFE700200C90FFE70C980328F2
:10C5C80014D8FFE70D980C9A50F8220003A951F8E7
:10C5D800221080EA010307A951F82200584041F8C7
:10C5E8002200FFE70C9801300C90E7E70D9907A8A7
:10C5F80000F048F80EF0FEFBFFE70D98006800BA5F
:10C6080007900D98406800BA08900D98806800BAA5
:10C6180009900D98C06800BA0A90FFE70E9907982C
:10C62800089A099BDDF828C0C1F80CC08B604A60E5
:10C638000860FFE712B080BD82B0019001980068E1
:10C64800C00F872148430090019908684A68400054
:10C6580040EAD2700860019948688A68400040EA58
:10C66800D270486001998868CA68400040EAD27070
:10C6780088600199CA68009880EA4200C86002B0E0
:10C688007047000080B582B0019000910198009930
:10C698000EF0A2FB02B080BD80B584B0039040F2DA
:10C6A8006020C2F2000002900EF0CCFB03980EF05E
:10C6B80019FC002001900EF03FFC01980299C86017
:10C6C80002998860029948600299086004B080BDA8
:10C6D80080B588B00790069105920EF0B3FB0798D5
:10C6E8000EF000FC04200EF027FC069B1868596821
:10C6F8009A68DB68049303920291019001A90846A5
:10C708000EF06AFB0EF076FB05990198029A039BDE
:10C71800DDF810C0C1F80CC08B604A60086008B032
:10C7280080BD000010B54CF265720446C0F60002E8
:10C738004FF48060002130F00DFA40F2F803C2F2A5
:10C7480000034FF0640C03EB840242F619202146E3
:10C7580023F824C0BDE8104000F0A6B840F2F80263
:10C76800C2F2000242F61920002100F09DB8000034
:10C7780040F2F801C2F20001CA780880012A18BF05
:10C7880070474FF48060032130F0F8BA80B582B06A
:10C798004178FF2902D0002002B080BDB0F8031014
:10C7A80040F61442914212D040F601429142F2D131
:10C7B80040F22811C2F200014988B0F8072002317E
:10C7C8009142E8D1407B012121EA00000EE040F2CD
:10C7D8002811C2F200014988B0F8072001319142BE
:10C7E800D9D1B0F8050031F027F902208DF80600FC
:10C7F80000208DF807000DF1060000F035F8012043
:10C8080002B080BDF0B587B04CF29570C0F600005C
:10C818002DF096FB41F60F0040F228150DF11A0491
:10C82800ADF81A00C2F200050120214601220423B6
:10C8380000950126042731F09FF842F6192135F8B2
:10C84800020BADF81A100A2100221223CDE900329A
:10C85800CDE902710121224601230496059531F0A4
:10C868001BF807B0F0BD00000078022812D001289C
:10C8780009D0002818BF704740F2F800C2F2000043
:10C888000121C170704740F2F800C2F20000002197
:10C89800C170704740F2F802C2F2000242F6192055
:10C8A800002100F001B80000944642F61922904297
:10C8B80018BF704780B582B001EB410040F22811E3
:10C8C800C2F2000101EB400231F810005188002249
:10C8D8000123CDF800C031F0A7F902B080BD0000F7
:10C8E80082B00090009820B9FFE703208DF8070078
:10C8F80009E000984AF69C41C2F200010860002055
:10C908008DF80700FFE79DF8070002B070470000A8
:10C9180082B00090009820B9FFE703208DF8070047
:10C9280009E000984AF6C841C2F2000108600020F8
:10C938008DF80700FFE79DF8070002B07047000078
:10C9480080B582B001908DF80310019820B1FFE7FF
:10C958009DF8030020B9FFE702208DF802000CE0E3
:10C968004AF60450C2F20000006801999DF80320BD
:10C9780005F046F88DF80200FFE79DF8020002B0C6
:10C9880080BD000080B541F65E50C2F20000012172
:10C9980001700FF091FA002808BF80BD41F664517C
:10C9A800C2F20001087830B9012203A00A70BDE87C
:10C9B800804033F06BB880BD50726F766973696FD1
:10C9C8006E696E6720636F6E666967757265643A33
:10C9D8002077616974696E6720646973636F6E6E2E
:10C9E80065637420666F72204E564D20636F6D6DBF
:10C9F80069740D000622028040F20012C0F2023271
:10CA0800C0F80220042282710720087070470000D5
:10CA180083B0029001918DF803208DF8023003B0A5
:10CA28007047000010B5044608A032F035FB601EC0
:10CA3800C0B2022899BF13A151F8200042F2293050
:10CA4800C0F60400BDE8104033F020B846726965AE
:10CA58006E647368697020636C65617265642E200A
:10CA68004C6F7720706F776572206E6F64652061F8
:10CA7800646472657373203078252E3458200D0A4B
:10CA8800000000003B230408DA22040809230408F4
:10CA9800F0B581B00F46014642F21B20069CC0F655
:10CAA80004001D46164632F0F7FA0DA0394632F05A
:10CAB800F3FA642006FB00F113A032F0EDFA1CA093
:10CAC800294632F0E9FA4CB142F2EA10C0F6040005
:10CAD800214601B0BDE8F04032F0DEBA01B0F0BD49
:10CAE8004C6F7720706F776572206E6F6465207267
