:020000040800F2
:1070000098DB0020BD720008757A0308E9C001080A
:1070100031D801086D59010805E00308000000009F
:1070200000000000000000000000000059B4030848
:10703000AD60010800000000959F03086DC30308C0
:10704000D7720008D7720008D772000871A303082E
:10705000D7720008D7720008D7720008D7720008EC
:10706000D7720008D7720008D7720008D7720008DC
:10707000D7720008D7720008D7720008D7720008CC
:10708000D7720008D7720008D7720008D7720008BC
:10709000D7720008D7720008D77200084161010852
:1070A000D7720008D7720008D7720008D77200089C
:1070B000D7720008D7720008D7720008D77200088C
:1070C000D7720008D7720008D7720008D77200087C
:1070D000EDDC030865C50108D7720008D772000807
:1070E000D7720008D7720008D7720008D77200085C
:1070F000DDC30108E1C3010805B00108D77200082B
:10710000D7720008D7720008D7720008D77200083B
:10711000D7720008D7720008D7720008D77200082B
:10712000D7720008D772000809600108D7720008FA
:10713000D7720008D7720008D7720008000000005C
:10714000F45504080000000081C201120812484AE8
:107150000C0412303B08051C1A041059041428189A
:107160000222B042201A270C5AD00C14FFFF031A37
:10717000034A13DC521420045514202C57142054B5
:1071800059180F20DDA70308A9A90308DDA80308E3
:10719000510C1EA5A6030861101EADAC0308FF012B
:1071A000111B093D3C14FFFF011A02401204120595
:1071B000120EB6090DFF018314DD2A021A14894547
:1071C000554501083CDE2A08105A7110DADB20DA36
:1071D000DC201A010C029B100000000000000000DF
:1071E000000000000000000000000000000000009F
:1071F000000000000000000000000000000000008F
:10720000000000000000000000000000000000007E
:10721000000000000000000000000000000000006E
:10722000000000000000000000000000000000005E
:10723000000000000000000000000000000000004E
:10724000000000000000000000000000000000003E
:10725000000000000000000000000000000000002E
:1072600000000000000000000000000001FF01FF1E
:1072700001FF01FF01FF01FF01FF01FF01FF01FF0E
:04728000014A0000BF
:020000040800F2
:1072A800DFF80CD000F002FD00480047D1FB0308CE
:1072B80098DB00200648804706480047FEE7FEE7BF
:1072C800FEE7FEE7FEE7FEE7FEE7FEE7FEE7FEE78E
:1072D80015C40308A97200082DE9F05F05460020CF
:1072E80092469B4688460646814640241BE028462F
:1072F80041464746224600F096FB53465A46C01A76
:10730800914110D311461846224600F07DFB2D1AF4
:1073180067EB01084F4622460120002100F074FB6C
:1073280017EB00094E41201EA4F10104DFDC48469A
:1073380031462A464346BDE8F09F10B5431A9342AA
:1073480009D28318881803E010F8011D03F8011DFD
:10735800521EF9D210BD40EA01039B0703D009E091
:1073680008C9121F08C0042AFAD203E011F8013B29
:1073780000F8013B521EF9D210BDD2B201E000F86C
:10738800012B491EFBD270470022F6E710B51346C1
:107398000A4604461946FFF7F0FF204610BD10B50F
:1073A800044604E00B7800F8013B03B1491C521E67
:1073B800F8D2204610BD421C10F8011B0029FBD151
:1073C800801A7047CBB203E00178994203D0401C81
:1073D800521EF9D20020704730B5044600200346FB
:1073E80000E05B1C934203D2E05CCD5C401BF8D00C
:1073F80030BD30B505460020034600E05B1C9342D3
:1074080005D2EC5CC85C201A01D1002CF6D130BD45
:107418000FB400B58DB010A909900B9000914FF0F2
:10742800FF300A9000200C90054806900548079008
:107438006A4609A80F9900F02DFB0DB05DF814FB02
:10744800B97A0008D77A00082DE9FF5F1D464FF08A
:10745800FF3BD5E9014691465F464FF00008A96910
:107468007F1C01988847296A824688470028F6D1F8
:10747800BAF1FF3F0CD024F4C064002E19DD600679
:1074880014D5BAF12B0F09D0BAF12D0F0ED103E0A4
:10749800584604B0BDE8F09F44F48064A9697F1C95
:1074A80001988847761E8246002E02DDBAF1300F19
:1074B80003D0B9F1000F26D032E0A969761E44F452
:1074C80000747F1C019888478246002E05DDBAF1BA
:1074D800780F06D0BAF1580F03D0B9F1000F10D0C9
:1074E8001EE0B9F1000F02D0B9F1100F18D1A96947
:1074F800761E24F400747F1C019888478246102069
:1075080002E0082000E00A20814609E008FB09089B
:10751800A969761E44F400747F1C01988847824646
:10752800002E05DD4946504600F09FFA0028EDDAA6
:10753800E96901988847A00502D46FF00100A8E71F
:10754800E00725D1600613D5600502D5C8F1000013
:1075580000E0404629680A1D2A600968220501D50D
:10756800087015E0220701D5088011E008600FE0D7
:107578002868011D29600068210502D580F800806F
:1075880006E0210702D5A0F8008001E0C0F80080DD
:1075980038467EE72DE9FF5FD2E901A74FF00008E2
:1075A800916999461446DDF838B0464601988847EF
:1075B800054659EA0B0005D009E0A169761C019837
:1075C80088470546216A284688470028F5D1681C5F
:1075D80003D05FEACA7005D015E04FF0FF3004B061
:1075E800BDE8F09F2068011D2160D0F800800AE006
:1075F8005FEACA7001D108F8015BA169761C7F1E99
:10760800019888470546002F1ADD681C18D0B9F183
:10761800000F0DD0E81705EBD060421120F01F00D5
:1076280059F822102A1A012090400142E0D107E0BF
:10763800BBF1000FDCD1216A284688470028D7D043
:10764800E16901988847BBF1000F07D1002E05DDDD
:107658005FEACA7002D1002188F80010A068B84219
:1076680003DDBBF1000F03D017B16FF00100B6E7DF
:107678003046B4E72DE9FE4F804681EA0300C00F8B
:107688000C46009021F0004123F00045B8EB0200C1
:10769800A94105D24046214690461C460B46024663
:1076A80023F00040104347D0270DC7F30A00C3F367
:1076B8000A510290401A019040286BDAC3F3130074
:1076C80040F4801B0098924620B10023D2EB030AB5
:1076D80063EB0B0B01985946C0F14002504600F08D
:1076E80093F906460D4650465946019A00F0ABF903
:1076F80010EB08006141002487EA115284EAE7731D
:107708001A4340D0009A62B3019A012A4FEA0752FD
:1077180015DC001B61EB02014FF0004202EA075240
:10772800CDE90042001C41F5801132462B4600F09D
:10773800EEF903B0BDE8F08F40462146F9E7001B9B
:1077480061EB0201001C41F5801300185B41201811
:10775800A2F5001747EB030140EAD570B6196D4151
:1077680011E06D084FEA360645EAC0754FEA075240
:10777800001B61EB0201001C41F5801149084FEA2A
:1077880030000019514132462B4603B0BDE8F04F96
:1077980000F0AEB90098012240000023D0EB0202AD
:1077A80063EBE073009821464FEAE074B8EB000001
:1077B80061EB0401E9E783F000435BE781F00041F6
:1077C80058E72DE9FE4F81EA030404F0004421F054
:1077D800004100944FF0000B23F0004350EA0104ED
:1077E8005ED052EA03045BD0C3F30A54C1F30A55CE
:1077F8002C44A4F2F3340194A0FB0254C1F3130106
:1078080041F48011C3F3130343F4801301FB0244D2
:1078180000FB034E840A970A44EA815447EA8357D7
:10782800A4FB076802958D0A05FB07854FEA932C90
:1078380004FB0C542705029D4FEA065847EA163701
:10784800B5EB08056EEB070C870E920E47EA811719
:1078580042EA8312A7FB0201B6EB0B0164EB0004BA
:107868002B0D43EA0C335E1844EB1C50DA465146A4
:10787800E7FB0201C5F313044FEA0B3343EA145341
:107888004FEA0432019C43EA0603A4F10C04029473
:10789800009CCDE900B400F03AF903B0BDE8F08FE0
:1078A80000200146F9E72DE9F04D81EA030404F0D0
:1078B800004B21F0004514464FF0000A23F0004128
:1078C80050EA050220D054EA01021DD0C5F30A5738
:1078D8000246C5F31303C1F31300C1F30A5640F47B
:1078E800801543F48013A7EB0608101BD64608F250
:1078F800FD3873EB050002D308F1010801E0921886
:107908005B41B8F1000F03DA00200146BDE8F08DB5
:1079180000204FF48011064684460EE0171B73EBD7
:10792800050705D3121B63EB050306434CEA010C5C
:1079380049084FEA300092185B4150EA0107EDD13F
:1079480052EA030012D082EA040083EA05010843E0
:1079580005D0101BAB4106D20122002306E000220D
:107968004FF0004302E06FF0010253101AEB0600DB
:107978004CEB085110EB0A0041EB0B01BDE8F04D50
:1079880000F0B6B80EB540F2334102910021CDE9BE
:1079980000110A460B4600F0BAF803B000BD70B5F6
:1079A800C1F30A5201F000450024C1F3130140F26B
:1079B800FF3341F480119A4201DA002070BD40F291
:1079C80033439A42A2F2334203DC524200F02BF8CE
:1079D80000E090402C43F1D0404270BD30B50B46DA
:1079E800014600202022012409E021FA02F59D42E7
:1079F80005D303FA02F5491B04FA02F52844151EBB
:107A0800A2F10102F1DC30BD202A04DB203A00FAA1
:107A180002F1002070479140C2F1200320FA03F3DD
:107A2800194390407047202A04DB203A21FA02F0DB
:107A38000021704721FA02F3D040C2F120029140A0
:107A4800084319467047202A06DBCB17203A41FA2B
:107A580002F043EAE07306E041FA02F3D040C2F1D3
:107A6800200291400843194670473A2800D230381E
:107A780020F02002412A01D3A2F13700884201D325
:107A88004FF0FF307047000002681144137801601E
:107A980018467047D16004495161044911620021B8
:107AA8001161114600F020B9917A0008E57C0008C0
:107AB800426842B1016811F8013B23B1521EC0E986
:107AC8000012184670470121C160881E704742683D
:107AD8005AB1C368016843B983688B4205D0491E0F
:107AE800521CC0E90012002070474FF0FF30704769
:107AF80010B5141E73F1000408DA401C41F10001AE
:107B080092185B411A4301D120F0010010BD2DE904
:107B1800F04D92469B4611B1B1FA81F202E0B0FAFB
:107B280080F220329046FFF76FFF04460F4640EA86
:107B38000A0041EA0B0153465A46084313D011463E
:107B480053EA010019D0C8F140025046FFF76BFF15
:107B580005460E46504659464246FFF755FF08432C
:107B680005D0012004E020463946BDE8F08D00200C
:107B7800054346EAE0762C4337430A986305E40A4E
:107B8800A0EB08000022FD0A44EA47540A3002D557
:107B980000200146E9E7010510196941DDE90845BA
:107BA80000196941BDE8F04DA2E72DE9F04D002329
:107BB8001A461B1A8A4103DB00200146BDE8F08DF6
:107BC800C1F30A52C1F3130141F480154FF0000BC1
:107BD800D10702D100186D41521E0027044640F219
:107BE800FF11384601EB620A3E46804602460020F5
:107BF8004FF48011FFF717FFC2197141BB1846EB0C
:107C08000100B4EB030C75EB000C04D3E41A65EB2C
:107C1800000517460E46241908F101006D418046FB
:107C28003428E3DDF91946EB0600091BA84103D205
:107C38004FF0FF32134601E0002213461BEB07000A
:107C480046EB0A51BDE8F04DFFF752BFC1F30A52A7
:107C5800C1F3130140F2FF3341F480119A4202DA72
:107C680000200146704740F233439A42A2F2334261
:107C780002DC5242FFF7D7BEFFF7C6BE30B5041E7E
:107C880071F1000404DB4FF00044404264EB010151
:107C9800141E73F1000405DB1C464FF000435242EA
:107CA80063EB0403994208BF904230BD1CB50948F4
:107CB8000090094801900546009C06E0E06840F005
:107CC800010394E8070098471034AC42F6D3FFF755
:107CD800EBFA0000A4550408F4550408C0B24FF4A8
:107CE800F05100F097B900002DE9F34F8BB04FF039
:107CF800000801F10C000C464FF0010B46460DF14F
:107D0800080A01906269012101989047051E2DD04B
:107D1800252D2CD0216A8847C0B1626901210198BC
:107D28009047216A88470028F7D1411E6269019867
:107D3800904700E0761CA1690B988847216A88471C
:107D48000028F7D1E1690B988847DBE7A1690B9810
:107D580088470746A84201D1761CD3E7E1690B980A
:107D680088477F1C02D1B8F1000F6FD046E1002789
:107D780062693D463946019890472A2804D16269CC
:107D88000121019890470125DFF884926269012159
:107D980001989047A0F130010A290AD24F45E5DC45
:107DA80007EB870100EB4107303FDFD445F01005B2
:107DB800ECE7E90601D46FF000476C280AD04C289C
:107DC80014D0682815D06A280DD074281CD07A28B9
:107DD8001AD01DE062690121019890476C2802D0F1
:107DE80045F0040514E045F002050DE045F02005D6
:107DF8000AE06269012101989047682802D045F09D
:107E0800080505E045F4006562690121019890477D
:107E1800C4E9015765283DD019DC58287AD00CDC14
:107E2800452837D004DC252826D0412831D131E037
:107E380046282FD047282CD12CE05B2877D0612802
:107E480028D063287CD0642823D15AE0D0E06F285A
:107E580048D008DC66281DD067281BD0692821D0A7
:107E68006E2816D127E0702845D0732868D0752869
:107E780047D078280DD14DE0A1690B988847054671
:107E880025283FF469AFE1690B9888476D1C3FF4DA
:107E98006AAFB3E023466A466FF001000B99AFF36F
:107EA80000809EE045F040006060A80723464FF040
:107EB800000236D43EE0E8077FF447AF2068011D92
:107EC80021600068290501D506701BE7290701D53F
:107ED800068017E7A90703D5F117C0E9006111E784
:107EE80006600FE745F040006060A80723464FF0A2
:107EF800080216D41EE040F60E0125EA0100606073
:107F080016E045F040006060A80723464FF00A02DB
:107F180007D40FE045F040006060A80708D5234665
:107F280010226FF001000B99AFF3008059E007E0D1
:107F3800234610226FF001000B99FFF785FA50E0F5
:107F48004FF000094F464B46632802D05B2806D005
:107F580040E0E80601D40120A06001273AE0626908
:107F68000121019890475E2805D14FF00109626907
:107F7800494601989047216939B900210A46534674
:107F880043F82120491C0829FADBB0B3216969B9F3
:107F9800C11700EBD16253110AEB830122F01F02D3
:107FA800821A01200B68904003430B60626901212B
:107FB800019890475D28E8D1B9F1000F09D0002059
:107FC800514651F82020D24341F82020401C08286F
:107FD800F7DB02AB224600976FF001000B99FFF721
:107FE800D9FA00280CDA401C08D1BBF1000F05D0E3
:107FF8004FF0FF300DB0BDE8F08FFFE74046F9E7DE
:10800800E90701D108F1010806444FF0000B79E6B1
:10801800CCCCCC0C7F2801D9002208E0064A02EB20
:108028005002C007127800D1120902F00F02012095
:108038009040084070470000800C040870B58C1808
:1080480010F8015B15F0070301D110F8013B2A1164
:1080580006D110F8012B03E010F8016B01F8016B51
:108068005B1EF9D12B0705D40023521E0DD401F84D
:10807800013BFAE710F8013BCB1A921C03E013F816
:10808800015B01F8015B521EF9D5A142D8D300204B
:1080980070BD000010B588B040F6E850C0F6040086
:1080A80090E80E5044690191018B807E02920393FF
:1080B800CDF810C0CDF814E00694ADF81C108DF87A
:1080C8001E0034F0AFFA01A832F06CFA08B010BD07
:1080D8002DE9F04186B00FF071FC0FF079FC40F605
:1080E8009000C5F60000016841F4803101600DF090
:1080F80095FF41F2C03240F6000340F200470021EC
:10810800C0F60402C4F60003C4F600074FF00008E6
:10811800002500200491CDE90211CDE9001104E009
:10812800A68835430131262914D002EBC104A6796B
:10813800002EF7D052F831609E4207D0BE42EFD0F1
:10814800B6F1904FEED1A6883043EBE7A68848EA0F
:108158000608E7E700214C2702910121C5F6000730
:10816800019103210204039121D084B2009438685C
:10817800694640F001003860386800F00100059059
:108188000598D7F8000140F00100C7F80001D7F8BA
:10819800000100F00100059005984FF0904010F0A4
:1081A80005F84FF090402146002210F0CFF840F239
:1081B80000442804C4F600041FD0ADB20095386806
:1081C800694640F002003860386800F00200059007
:1081D8000598D7F8000140F00200C7F80001D7F869
:1081E800000100F002000590059820460FF0DEFF20
:1081F80020462946002210F0A9F85FEA084022D05C
:108208001FFA88F50095386804F5806440F004008A
:1082180038603868694600F0040005900598D7F87A
:10822800000140F00400C7F80001D7F8000100F091
:1082380004000590059820460FF0B8FF204629460F
:10824800002210F083F806B0BDE8F0817047000006
:1082580070470000B0B588B04468B4F80B10A1F5B9
:108268001241072900F2AC81DFE811F00800C200D2
:10827800E400AA01F7000201BE00E20004466846D5
:1082880032F0BCF99DF800109DF801209DF80230ED
:1082980041F66450C0F6040037F0E2FF9DF8041080
:1082A80041F63250C0F6040037F0DAFF9DF80910A5
:1082B800481E8F2800F2008142F28B02C0F60402A9
:1082C800DFE810F021019000EB000E011301F0002F
:1082D800FF00FA00FA00FA00FA00FA00FA00FA00C1
:1082E800FA00FA00FA00FA00FA00FA00FA00FA00B6
:1082F800FA00FA00FA00FA00FA00FA00FA00FA00A6
:10830800FA00FA00FA00FA00FA00FA00FA00FA0095
:10831800FA00FA00FA00FA00FA00FA00FA00FA0085
:10832800FA00FA00FA00FA00FA00FA00FA00FA0075
:10833800FA00FA00FA00FA00FA00FA00FA00FA0065
:10834800FA00FA00FA00FA00FA00FA00FA00FA0055
:10835800FA00FA00FA00FA00FA00FA00FA00FA0045
:10836800FA0004011D011801FA00FA00FA00FA00E7
:10837800FA00FA00FA00FA00FA00FA00FA00FA0025
:10838800FA00FA00FA00FA00FA00FA00FA00FA0015
:10839800FA00FA00FA00FA00FA00FA00FA00FA0005
:1083A800FA00E100F500FA00FA00FA00FA00FA0013
:1083B800FA00E600DC00FA00FA00FA00FA00FA0017
:1083C800FA00FA00FA00FA00FA00FA00FA00FA00D5
:1083D800FA00FA00FA00FA00FA00FA00FA00FA00C5
:1083E800FA0009019CA28EE0D4F80D1082A03AE0B0
:1083F80041F61861C0F604010446084637F030FF1C
:10840800646841F6AA60617BC0F6040037F028FF73
:10841800607B002807BF41F69870C0F6040041F65B
:108428006170C0F6040008B0BDE8B04038F012BC76
:1084380068A01EE041F6F960C0F6040038F00AFCB6
:10844800D4F80D10D4F8112041F68850C0F6040075
:1084580008B0BDE8B04037F003BFD4F80D1041F6BE
:10846800AE50C0F6040008B0BDE8B04037F0F8BE22
:1084780070A008B0BDE8B04037F0F2BE41F6E9722E
:10848800C0F604023FE042F24902C0F604023AE0B4
:1084980041F6D272C0F6040235E042F29F02C0F6FD
:1084A800040230E042F2B902C0F604022BE042F2C4
:1084B8005F02C0F6040226E042F67C32C0F60402EF
:1084C80021E042F2A902C0F604021CE042F2750261
:1084D800C0F6040217E042F23A02C0F6040212E0C3
:1084E80042F29402C0F604020DE042F23002C0F6F5
:1084F800040208E042F21702C0F6040203E042F266
:108508000002C0F6040241F61150C0F6040037F02C
:10851800A7FE9DF80A109DF80B209DF80C3041F637
:108528004E50C0F6040037F09BFE41F6DA60C0F604
:10853800040037F095FE002560680795407B069596
:1085480001280595049534D0E0BB41F64770C0F684
:10855800040038F07FFBFFF79DFD0F208DF8100019
:108568007F2042F200058DF81200CEF2040528683B
:10857800040C41F68960C0F60400214637F070FE0D
:10858800ADF81C402C6841F66A606FF31F34C0F6E2
:108598000400214637F064FE04A8ADF81E4031F00F
:1085A800F3FF00F031F90120002135F0ADFB08B0F0
:1085B800B0BD41F63960C0F6040037F051FE2570B1
:1085C80008B0B0BD41F6E650C0F6040037F048FEEA
:1085D80008B0B0BD3E3E3D3D20534843495F53552A
:1085E800425F4556545F4E564D5F454E445F455277
:1085F8004153450A0D0000003D3D3E3E5348434966
:108608005F5355425F4556545F4E564D5F53544134
:1086180052545F4552415345203A204E756D62656C
:10862800724F66536563746F7273203D2025750A17
:10863800000000003E3E3D3D20534843495F5355EE
:10864800425F4556545F4E564D5F454E445F575204
:108658004954450A0D000000424C455F4843490013
:1086680080B54AF2B870C2F2000010F0FFFBBDE816
:1086780080402EF083B8000040F2F020C2F20000E3
:1086880090F88000704700002DE9F04116460D462D
:1086980004460FF061FE40F25401C2F200010A885C
:1086A80040F65013A242C2F200030DD11A68821A92
:1086B800632A09D842F21B50C0F60400214632460C
:1086C800BDE8F04137F0CCBD40F2F028C2F2000816
:1086D800B8F816200C80002A186018BF944203D0FE
:1086E8002DA0214637F0BCFD0020A8F8160088F818
:1086F800800042F25950C0F60400314637F0B0FD10
:1087080042F6D110C0F6040021462A4637F0A8FDEB
:108718000FF022FE014642F29760C0F6040037F0DF
:108728009FFD13F065FE05460EF0B6FF06462EF0D7
:10873800AFFA98F88030074642F2F860C0F60400B5
:108748002946324637F08CFD0FB120A017E00120F2
:1087580000F0BEFB98F88000012808D042F62A6095
:10876800C0F6040038F076FA012000F0B1FB98F862
:108778008000012805D042F60770C0F6040038F0E2
:1087880069FA40F24860C2F2000001210170448099
:10879800BDE8F0412FF052BC3E3E3D3D2044697398
:1087A800636F6E6E6563742068616E646C65206DBE
:1087B80069736D617463683A206576743D30782515
:1087C80078206374783D307825780A003D3D3E3E38
:1087D80020536B6970206C656761637920616476EA
:1087E8006572746973696E672072657374617274F7
:1087F8003A204D657368206F776E732061647665E3
:1088080072746973696E67002DE9F04399B046F296
:108818006430C2F200000921017040F2E0510024E6
:10882800C2F200010A5D1AB10134082CFAD10824F9
:1088380040F2E0510130C2F200012246FEF7AFFDDE
:1088480040F2A001601CC2F2000108700EF010FF97
:10885800FF2821D004460FF22050214637F000FDB2
:10886800A52C13D10DF0C8FA02F09CFF42F6D56290
:108878000FF25451C0F60402012888BF1146084679
:1088880038F0E8F900200DF0C9FA05E00FF21050B1
:1088980038F0E0F90DF0B0FA0EF0FEFE044613F0E1
:1088A8009DFD40F29409C5F60009D9F8006080469C
:1088B80030462DF089FF0DF069FFC6F30070C6F34E
:1088C8004071C6F380758DE8230042F2AD60C6F3AF
:1088D8008062C6F3C063F70FC0F604003146039701
:1088E80037F0BEFCD9F8000042F66B3140F40000C6
:1088F800C9F8000042F62C30C0F60400C0F60401A6
:10890800012C08BF014642F2B850C0F604002246C6
:10891800434637F0A5FC2DF0E7FE04462DF0DEFFB8
:1089280005462EF0B5F9034642F28C50C0F6040015
:1089380021462A4637F094FC40F60460C0F604004D
:1089480090E88E00D0E904650DF1140ED0E906C454
:108958008EE88E00CDE9096500F12007D0E90C65A5
:10896800008F8ECFADF84C0040F22800C2F2030011
:1089780014904DF67D60C0F600000DF1340E159090
:108988004DF6A1608EE88E00C0F6000014A9CDE96E
:108998000BC41196129536F0FBFD0220012135F02B
:1089A800B3F94FF60922C0F603020220002135F080
:1089B800E1F905A831F0DAFD48B1014642F60B208D
:1089C800C0F6040037F04CFC0DF00AFE05E042F654
:1089D800F800C0F6040037F043FC0020CDE914008D
:1089E800ADF84E000EF036FE14900EF033FE42F64F
:1089F800AB60C0F60400159138F02CF936F066FF2C
:108A080038B1014642F25830C0F6040037F028FC6D
:108A180005E042F60C50C0F6040038F01BF9BDF82A
:108A2800540040F2A10400BA1499C2F20004000CE8
:108A3800208108BAC4F80A0014AA2E20062136F0AC
:108A480005FB38B1014642F2B920C0F6040037F000
:108A580007FC19E042F60E40C0F6040038F0FAF8B8
:108A6800DDE91470C0F30721C2B2C7F30740C7F3AA
:108A78000726CDE9000642F275703B0EFFB2C0F63C
:108A88000400029737F0ECFB41F20052C0F60402F2
:108A98001820102136F0DAFA38B1014642F2642083
:108AA800C0F6040037F0DCFB05E042F6C930C0F63A
:108AB800040038F0CFF841F2F042C0F60402082072
:108AC800102136F0C3FA38B1014642F20F20C0F641
:108AD800040037F0C5FB05E042F68430C0F6040018
:108AE80038F0B8F801201F2136F088FA38B101466D
:108AF80042F21A30C0F6040037F0B2FB05E042F645
:108B0800DE40C0F6040038F0A5F836F077F938B141
:108B1800014642F2B530C0F6040037F0A1FB05E08B
:108B280042F64950C0F6040038F094F80DF15E079B
:108B380018AE0DF16203052000210722CDE9006778
:108B480035F0F6FD38B1014642F28530C0F6040032
:108B580037F086FB05E042F62950C0F6040038F0ED
:108B680079F8BDF86200BDF8601042F62437C0F607
:108B7800040700220723009736F068F9BDF8620061
:108B8800BDF85E100DF14E0700220223009736F063
:108B98005DF900200221022236F0C4FD38B10146F9
:108BA80042F26F40C0F6040037F05AFB05E042F687
:108BB800D350C0F6040038F04DF840F2F025C2F268
:108BC80000050120287035F087FE38B1014642F2D1
:108BD800A940C0F6040037F043FB05E042F6FD501B
:108BE800C0F6040038F036F840F20110C0F6000074
:108BF8004BF20721C5F801001020C0F20101002244
:108C080008236871A9600127CDE90030CDE9022168
:108C18000120012101220023049735F0D1FD38B14C
:108C2800014642F2E630C0F6040037F019FB05E0D1
:108C380042F66A50C0F6040038F00CF8A87880B103
:108C480035F056FD38B1014642F23040C0F6040016
:108C580037F006FB05E042F6A450C0F6040037F0F2
:108C6800F9FF42F63C10C0F6040037F0F9FA42F674
:108C78005F40C0F6040037F0EDFF32F061FA0020E3
:108C880085F880004FF6FF7048F60962E882C0F662
:108C980000020120002135F06DF82020A071062087
:108CA80036F086F938B1014642F67F00C0F6040076
:108CB80037F0D6FA05E042F6C300C0F6040037F0F4
:108CC800CFFA0DF0C1F80020002603F087FF2FF03F
:108CD8007DF94FF21512C0F603024FF480400021CF
:108CE80035F048F84FF21914C0F603044FF4004069
:108CF8000021224635F03EF805F1830100200022CC
:108D0800234612F0FFFE48F6D16305F18101C0F653
:108D180000030020002212F0F5FE4CF2693305F141
:108D28008201C0F603030020002212F0EBFE40F29D
:108D38009210C2F200000121017040F29010C2F2BC
:108D480000002E8301702DF0A3FF20B142F6A2404F
:108D5800C0F604000AE0012000F0BAF895F8800097
:108D6800012805D042F65D60C0F6040037F072FFB6
:108D780019B0BDE8F08300BF3D3D3E3E204E46435E
:108D880020626F6F74206F70636F64652064657410
:108D980065637465643A203078253032780A0000BB
:108DA8003D3D3E3E204E464320626F6F74206F70FB
:108DB800636F646520756E6B6E6F776E2C20636CC5
:108DC800656172696E6700003D3D3E3E204E464338
:108DD80020626F6F74207265736375653A206D65E4
:108DE80073682070726F766973696F6E696E672039
:108DF80073746F72616765206572617365640000E2
:108E080010B540F2F024C2F2000494F8800005285E
:108E18000CD035F085FD002184F8801011A10AA23C
:108E2800002808BF1146084637F01AFA2DF030FF1F
:108E380020B115A0BDE8104037F00CBF0220BDE8F6
:108E4800104000F045B800BF2A2A2053544F502044
:108E58004144564552544953494E47202A2A202016
:108E68000D0A0D002A2A2053544F502041445645DC
:108E780052544953494E47202A2A20204661696C9A
:108E88006564200D0A0D00003D3D3E3E20536B6990
:108E980070206C6F772D706F7765722061647665CE
:108EA80072746973696E6720726573746172743A5B
:108EB800204D657368206F776E73206164766572E4
:108EC800746973696E6700000120042135F066B883
:108ED8002DE9F04188B040F29211C2F20001044637
:108EE80040F290100D78C2F200000678002D40F292
:108EF800F02818BF8025002EC2F2000818BFA0264F
:108F0800012C18BF4FF4C86598F8810018BF4FF4BA
:108F18007A6613F02DF8022C15D198F880000138E4
:108F2800012810D835F0FCFC38B1014642F2C410D3
:108F3800C0F6040037F094F905E042F6BE20C0F60A
:108F4800040037F087FE40F2A000C2F2000000786B
:108F580098F8181046F26433002708F11902C2F293
:108F68000003CDE90070CDE90231CDE904270020E6
:108F7800294632460123069735F05EFCC0B1054606
:108F8800122801D00C2D2DD12DF082FE58B142F2BD
:108F98004560C0F60400294637F062F988F8804039
:108FA80008B0BDE8F08142F2F250C0F604001DE0BE
:108FB8001FA088F8804037F04DFE40F2A101C2F2B0
:108FC80000010E2035F04EFDC8B10146012C12BF3C
:108FD80021A042F2FD70C0F6040008B0BDE8F041DF
:108FE80037F03EB942F2E640C0F60400294637F0B1
:108FF80037F9002088F8800008B0BDE8F081012C1E
:109008000DD123A037F02CF998F881004EF24601D3
:10901800C0F2010108B0BDE8F04112F0C9BE42F645
:109028005200C0F6040008B0BDE8F04137F018B9A6
:109038003D3D3E3E206163695F6761705F736574A3
:109048005F646973636F76657261626C65202D2059
:1090580053756363657373003D3D3E3E20537461F1
:109068007274204C6F7720506F7765722041647658
:109078006572746973696E67204661696C656420FE
:109088002C20726573756C743A202564200A0D00D3
:109098003D3D3E3E20537563636573733A205374B8
:1090A80061727420466173742041647665727469D4
:1090B80073696E67200A0D0010B504F077F804464E
:1090C800062817D940F2FC1041F20001C2F2000054
:1090D800C1F2020141F2060241F20033C1F2070275
:1090E800C1F2013380E80E004FF6FF718181072C31
:1090F8000DD228E004F05AF8024644F6EF70C0F6A4
:1091080004000721022337F0ABF8072C1BD304F027
:109118004DF8044606280CD940F254203021C2F2FA
:109128000000C0F201014FF6FF72C0E900120020F2
:1091380006E045F2AC00C0F6040037F091F80120D3
:10914800062C88BF10BD45F26700C0F6040037F052
:1091580087F8022010BD000010B546F29434C2F220
:109168000004207820B104F09DF80020207010BD84
:10917800002005F04FF90FF0EFF80446002005F045
:1091880049F90028FAD00FF0E7F8001BB0F57A7F0C
:1091980008D94AF600504F21C2F20000C0F2AD01D2
:1091A800016010BD152838BF10BDBDE8104004F09F
:1091B80079B8000041F66C5040F61221C2F2000066
:1091C800C2F2000140F2AC4200780978C2F2000213
:1091D80012780843104300F00100704702207047DE
:1091E800002200200A8070477047000080B50020E8
:1091F80005F000F9002080BD40F2C640C2F2000030
:109208000078704741F66550C2F2000001210170F4
:1092180041F66D50C2F200000022027041F672520F
:10922800C2F200020120117005F0D4B880B541F6F1
:109238006550C2F200000021017041F67250C2F27E
:1092480000000170012005F0B5F813F0D1F810B155
:1092580004F00CF810B304F009F8F0B940F2AC408F
:10926800C2F200000078002808BF80BD40F6122036
:109278004AF6DD41C2F200000122C2F2000109787B
:10928800027043F2B040C0F6040036F0E9FF402017
:109298000021BDE8804034F081BE80BD41F66C50AD
:1092A800C2F2000001780029F1D140F2AC41C2F2CB
:1092B800000101220978027000A0E6E750726F767B
:1092C8006973696F6E696E672073657373696F6E12
:1092D80020636F6D706C65746564202864697363BE
:1092E8006F6E6E6563742C20636F6E6669675F735B
:1092F80065656E3D2575290D0A0000000020704740
:1093080070470000B0B540F25A04C2F20004257854
:1093180003F0BEFE854209D943F2BE50C0F60400F0
:1093280037F098FCBDE8B04003F0B2BE20780028C2
:1093380018BFB0BD02A037F08DFC0120B0BD00BF42
:109348004E756D626572204F6620456C656D656E61
:109358007473206D7573742062652031206F7220DC
:1093680067726561746572207468616E2031210DC1
:109378000000000001463020C0F2020008604FF4EF
:10938800857200208A80704780B501201F2135F042
:1093980035FE002818BF0120400080BD01464EF66A
:1093A8007D40888041F6F850CAF64F60086045F263
:1093B8004B30C5F2A140C1F8060046F27C30C2F23B
:1093C8000000828803680020CA81C1F80A3070470B
:1093D80000207047014601A036F042BF556E7072FA
:1093E8006F766973696F6E6564204E6F6465204996
:1093F80064656E746966696572207265636569760D
:1094080065643A20253032780A0D0000B0B546F27E
:109418007C35C2F20005E91D00202A4635F088FD9A
:1094280018B1014618A036F01BFF0EF013F9020A16
:1094380028704FEA112C6A70020C000E2971691EFF
:10944800AA70E870EF2006220B4685F805C000BF19
:1094580013F8014F013A04EB4000F9D10322EA71F5
:10946800EF230622A87100BF11F8014F013A04EB5F
:109478004303F9D1C0B2D9B2081AB0FA80F0400952
:109488004CF0C0016971B0BD4661696C65642074B7
:109498006F2072656164205075626C696320416455
:1094A80064726573732025640000000080B54DF672
:1094B8003502C0F601020420002134F05BFC0420D0
:1094C800002134F06BFD4BF66112C0F6000240201B
:1094D800002134F04FFC40200021BDE8804034F0EA
:1094E8005DBD000080B544F67B50C0F6040037F03F
:1094F800B1FB44F6D830C0F6040037F0ABFB44F6B5
:109508006440C0F6040037F0A5FB44F67640C0F688
:10951800040037F09FFB44F65140C0F6040037F0D2
:1095280099FB44F61D40C0F6040037F093FB44F65F
:109538003E40C0F6040037F08DFB44F62A40C0F6E2
:10954800040037F087FB44F6EF30C0F6040037F02C
:1095580081FB03F085FD014644F6E820C0F60400CF
:1095680036F07EFE03F06EFD014644F6D720C0F6C5
:10957800040036F075FE03F08BFD014644F66D20BD
:10958800C0F6040036F06CFE03F010FE014644F607
:10959800F920C0F6040036F063FE03F0EFFD014643
:1095A80044F68720C0F6040036F05AFE03F0E8FDC2
:1095B800014644F65920C0F6040036F051FE03F087
:1095C80051FD014644F61430C0F6040036F048FE5A
:1095D80003F0BEFD014644F63B30C0F6040036F009
:1095E8003FFE44F60940C0F6040037F033FB44F66A
:1095F800A620C0F604000021012236F031FE44F610
:109608001850C0F6040037F025FB44F68840C0F631
:10961800040037F01FFB44F6BE40C0F6040037F0E4
:1096280019FB44F6A040C0F6040037F013FB44F6DB
:10963800D540C0F6040037F00DFB44F62850C0F6BC
:10964800040037F007FB44F6F940C0F6040037F091
:1096580001FB07A037F0FEFA0CA0012136F000FE4E
:1096680017A037F0F7FA1EA0BDE8804037F0F2BA2D
:109678000A5B496D706F7274616E7420496E666F13
:10968800726D6174696F6E5D200D00004E756D62BC
:109698006572206F6620456C656D656E7473206514
:1096A8006E61626C656420696E204170706C6963DC
:1096B8006174696F6E3A202564200D0A000000006D
:1096C8004E65696768626F7572205461626C6520C7
:1096D800697320656E61626C6564200D000000008E
:1096E8002A2A2A2A2A2A2A2A2A2A2A2A2A2A2A2AD2
:1096F8002A2A2A2A0D0A0D0010B54AF61850C2F275
:109708000000006804212FF0FDFA044630F042F80A
:10971800010608BF2046002C18BF2046010608D0C5
:10972800C1B243F26B40C0F60400BDE8104036F009
:1097380097BD43F20C60C0F60400BDE8104037F056
:1097480089BA000000207047B0B543F65975C0F6D5
:109758000405284600211C4633F054FC43F6F76004
:10976800C0F60400214636F07BFD2846002133F080
:1097780049FC02A037F06EFA0020B0BD2338323120
:1097880030210D00B0B5B0F9000040F2941203EB9F
:109798004301C2F20002322822F8210040F2AC1044
:1097A8001C46C2F200000CDB47F6F6410180016856
:1097B80042688368042013F0C3FC002004F00AFE0A
:1097C80008E0016842688368022013F0B9FC0020B1
:1097D80004F0F0FD43F60855C0F6040528460021BC
:1097E80033F010FC06A0214636F03AFD2846002149
:1097F80033F008FC11A037F02DFA0020B0BD00BFEF
:1098080047656E657269635F4C6576656C44656C27
:1098180074615F5365742063616C6C6261636B2073
:10982800726563656976656420666F7220656C652C
:109838006D656E74202564200D0A000023383230CF
:1098480039210D00014640F29310C2F20000825CFB
:1098580000200A7070470000014602EB420040F207
:109868009412C2F2000212F8203002EB80000B7052
:1098780042784A7082788A70C2780020CA7070472D
:10988800014602EB820040F2A012C2F20002125C12
:1098980000200A707047000002EB820140F2A0121B
:1098A800C2F200020A445378014603709078487067
:1098B800D078887012790020CA707047014640F24B
:1098C800A610C2F2000010F8122000200A7070479B
:1098D800B0B5B0F900101C4603EB430240F29413F4
:1098E80040F2A81CC2F2000321EAE170C2F2000CA7
:1098F80023F8220040F64A12BCF80030C2F20002F7
:10990800108098424FF0000347F6F54298BF0123B4
:1099180091424FF00002C8BF012200251A430029D6
:10992800C8BF012505EA020140F64812C2F200024A
:10993800117047F6FF710022ACF8000030F086FC89
:1099480040F2AC13C2F20003188019685A689B6889
:10995800042013F0F5FB43F66C55C0F604052846C1
:10996800002133F04FFB43F6C740C0F60400214600
:1099780036F076FC2846002133F044FB04A021464B
:1099880036F06EFC022021462EF0F8FA0020B0BD19
:10999800233832303621666F7220656C656D656ECE
:1099A80074496E646578202564200D0A0000000063
:1099B80000207047B0B540F2941C1C46016842680C
:1099C800806803EB4303C2F2000C0CEB8305A8602C
:1099D8006A6043F62055C0F604054CF82310284663
:1099E800002133F00FFB06A0214636F039FC28464B
:1099F800002133F007FB11A037F02CF90020B0BD8F
:109A080047656E657269635F4C6576656C4D6F7608
:109A1800655F5365742063616C6C6261636B20726F
:109A28006563656976656420666F7220656C656D2F
:109A3800656E74202564200D0A000000233832303A
:109A48004221200D0000000070B51C46002B47D1B4
:109A5800027840F2A016B0F8013001F0FE05C2F21B
:109A68000006022D3270A6F8013015D140F2AC156F
:109A7800C2F200052B8029686A68AB680546042095
:109A880013F05EFBB5F80310B6F80100A6F8031052
:109A9800884225D108BB0FE0012908BF012A0FD051
:109AA80040F2AC10C2F20000012101800168426856
:109AB8008368022013F044FB002004F07BFC0FE0D5
:109AC80040F2AC10C2F2000047F6F641018001688E
:109AD80042688368042013F033FB002004F07AFC0A
:109AE80043F63755C0F604052846002133F08AFAB4
:109AF80043F64040C0F60400214636F0B1FB284644
:109B0800002133F07FFA05A0214636F0A9FB012099
:109B180021462EF033FA002070BD00BF23383230C2
:109B28003221666F7220656C656D656E74496E646E
:109B38006578202564200D0A000000002DE9F04F0B
:109B480081B043F68477C0F604070C468046384651
:109B580000211E4633F056FA1CA0314636F080FB31
:109B68003846002133F04EFA27A037F073F844B393
:109B780043F6847608F1020B08F1010A0025C0F6C5
:109B880004060EE0D94629A73046002133F03AFAF8
:109B980099F80010384636F063FB0135E8B2844284
:109BA8000FD9E8B250B10228ECD00128F5D143F61C
:109BB8004077D146C0F60407E6E700BFC14614A7C0
:109BC800E2E7002001B0BDE8F08F00BF47656E6591
:109BD8007269635F4F6E4F66665F53746174757325
:109BE8002063616C6C6261636B2072656365697682
:109BF800656420666F7220656C656D656E742025DE
:109C080064200D0A000000002338323034210D0092
:109C180050726573656E74204F6E4F66662076616C
:109C28006C75653A2025640A0D00000052656D6167
:109C3800696E696E672054696D652076616C75651B
:109C48003A2025640A0D000070B5007840F2A61687
:109C580043F64F55C2F20006C0F6040526F8130075
:109C6800284600211C4633F0CDF90EA0214636F0D7
:109C7800F7FA2846002133F0C5F943F68140C0F6CB
:109C88000400214636F0ECFA36F81400012805D114
:109C980045F28420C2F2000001210170FFF7A4FA06
:109CA800002070BD23383231332120666F72206561
:109CB8006C656D656E74496E646578202564200D49
:109CC8000A0000002DE9F04143F69F77C0F604072B
:109CD8000C460546384600211E4633F093F912A07B
:109CE800314636F0BDFA3846002133F08BF91EA014
:109CF80036F0B0FFACB143F69F780026C0F60408F2
:109D08001BA703E00136F0B284420AD93006F9D124
:109D18004046002133F076F92978384636F0A0FA23
:109D2800F0E70020BDE8F08147656E657269635F02
:109D3800506F7765724F6E4F66665F5374617475C6
:109D4800732063616C6C6261636B20726563656923
:109D580076656420666F7220656C656D656E74202B
:109D68002564200D0A0000002338323132210D000D
:109D78004F6E20506F7765722075702076616C7514
:109D8800653A2025640A0D0070B5018842880446AA
:109D980018A036F065FA617B44F23940C0F6040039
:109DA80036F05EFA607B002808BF01F021FD607B79
:109DB800002818BF70BD1FA036F052FA207B88B16A
:109DC80044F647150026C0F6040500BFA0680178D0
:109DD800284636F045FAA068217B013601308E42CC
:109DE800A060F3D344F63E50C0F60400BDE87040CE
:109DF80036F030BF4170704B657920416464207241
:109E08006563656976656420666F72206E65744B5C
:109E18006579496E64657820252E32782C2061702A
:109E2800704B6579496E64657820252E3278200D4F
:109E38000A0000004170704B65792069733A200070
:109E480010B582B00446007A002808BF01F0D0FCA3
:109E5800217862686388247A44F2AC70C0F6040002
:109E6800009436F0FDF902B010BD000010B50446AC
:109E78000188428844F6BE00C0F6040036F0F0F9C6
:109E8800617B44F23940C0F6040036F0E9F9607BA2
:109E9800002818BF10BDBDE8104001F0A9BC0000A3
:109EA80070B50188044617A036F0DAF9A17A44F2B1
:109EB8003940C0F6040036F0D3F9A07A002818BF5C
:109EC80070BD1AA036F0C6FE208990B144F6471539
:109ED8000026C0F6040500BF60680188284636F0F1
:109EE800BFF9606801362189F2B2023091426060A0
:109EF800F2D844F63E50C0F60400BDE8704036F093
:109F0800A9BE00BF417070204B6579204C697374FD
:109F180020666F72206E65744B6579496E6465784A
:109F280020252E3278206973200D0A004170704B6D
:109F3800657920496E6465786573206172653A2099
:109F48000D00000010B582B00446007A002808BF52
:109F580001F04EFC217862686388247A44F6130085
:109F6800C0F60400009436F07BF902B010BD000082
:109F780070B504460188428844F67C00C0F60400A7
:109F880036F06EF9617B44F23940C0F6040036F0D1
:109F980067F9607B002808BF01F02AFC607B002875
:109FA80018BF70BD10A036F05BF9207B80B144F675
:109FB80047150026C0F60405A0680178284636F043
:109FC8004FF9A068217B013601308E42A060F3D39F
:109FD80044F63E50C0F6040036F03CFE07A0BDE84B
:109FE800704036F037BE00BF5570646174656420F8
:109FF8004170704B65792069733A20004974207765
:10A00800696C6C206265207265706C6163656420A0
:10A018006279206F6C64206170704B65792061668D
:10A02800746572204B657920526566726573682085
:10A038000D00000070B50188044618A036F010F92C
:10A04800617B44F23940C0F6040036F009F9607BC0
:10A05800002808BF01F0CCFB607B002818BF70BD4A
:10A068001AA036F0FDF8207B80B144F6471500268B
:10A07800C0F6040560680178284636F0F1F8606893
:10A08800217B013601308E426060F3D344F63E50A6
:10A09800C0F60400BDE8704036F0DCBD4E657420A3
:10A0A8004B657920416464207265636569766564EF
:10A0B80020666F72206E65744B6579496E646578A9
:10A0C80020252E3278200D0A000000004E65744BC2
:10A0D80065792069733A200010B50188044609A003
:10A0E80036F0BEF8617B44F23940C0F6040036F021
:10A0F800B7F8607B002818BF10BDBDE8104001F01C
:10A1080077BB00BF4E6574204B65792044656C654C
:10A11800746520726563656976656420666F722070
:10A128006E65744B6579496E646578202564200DE9
:10A138000A00000070B50446817944F23940C0F63F
:10A14800040036F08DF810A036F084FDA08890B198
:10A1580044F647150026C0F6040500BF20680188AC
:10A16800284636F07DF820680136A188F2B2023020
:10A1780091422060F2D844F63E50C0F60400BDE893
:10A18800704036F067BD00BF4E65744B6579204955
:10A198006E6465786573206172653A200D00000071
:10A1A80070B5018804461AA036F05AF8617B44F26B
:10A1B8003940C0F6040036F053F8607B002808BF29
:10A1C80001F016FB607B002818BF70BD1CA036F09C
:10A1D80047F8207B80B144F647150026C0F60405F1
:10A1E80060680178284636F03BF86068217B0136C4
:10A1F80001308E426060F3D344F63E50C0F604004E
:10A2080036F028FD13A0BDE8704036F023BD00BF2E
:10A218004E6574204B6579205570646174652072B1
:10A228006563656976656420666F72206E65744B38
:10A238006579496E646578202564200D0A00000060
:10A2480055706461746564204E65744B6579206946
:10A25800733A000049742077696C6C20626520723B
:10A2680065706C61636564206279206F6C64206E30
:10A2780065744B6579206166746572204B65792039
:10A2880052656672657368200D000000B0B586B02F
:10A298000446417C44F23940C0F6040035F0E0FF42
:10A2A8006089217B2278636894F80EC094F80FE0E7
:10A2B800257C647B8DE8015044F24D40C0F60400D3
:10A2C8000395049435F0CCFF06B0B0BD10B5044634
:10A2D800407C002808BF01F08BFA6168227844F2BC
:10A2E8006870C0F6040035F0BBFF6068B0F5885FA1
:10A2F80018BF10BD2046BDE8104031F0CDB80000B1
:10A3080010B50446817A44F23940C0F6040035F0AD
:10A31800A7FFA07A002808BF01F06AFA94F80BC0DA
:10A3280044F24E5021786268238944F2A854C0F65A
:10A338000400C0F60404BCF1000F08BF2046BDE8C5
:10A34800104035F08DBF000010B50446817A44F204
:10A358003940C0F6040035F083FFA07A002808BF12
:10A3680001F046FAE07A50B121786268238944F214
:10A37800FA50C0F60400BDE8104035F071BF207BEC
:10A388002178626838B144F60010C0F60400BDE8D0
:10A39800104035F065BF238944F25B60C0F60400C5
:10A3A800BDE8104035F05CBF10B50446817A44F230
:10A3B8003940C0F6040035F053FFA07A002808BFE2
:10A3C80001F016FA94F80BC044F2B0602178626884
:10A3D800238944F21074C0F60400C0F60404BCF1EA
:10A3E800000F08BF2046BDE8104035F039BF000017
:10A3F80045F60C71C2F200010A6802700A68120A76
:10A4080042704A888270CA78C2700020086070471B
:10A4180010B54DF6D972C0F603020820002133F0BA
:10A42800A9FC47F2F814C2F200044DF6E173C0F635
:10A43800030300202146002211F064FB20784CF22F
:10A448005821C0F2120111F0B3FC31F0F9FC49F2C5
:10A458006112C0F6000280200021BDE8104033F0F0
:10A4680089BC0000B0B540F2AA14C2F20004012071
:10A4780020700020002503F0ADFF4FF4FA700DF0B6
:10A488006FFC0020257003F095FF4FF4FA700DF073
:10A4980067FC0020B0BD000040F2AA10C2F2000024
:10A4A800007810B1002003F095BF002003F082BFB0
:10A4B800002070472DE9F04F81B044F2F937C0F61B
:10A4C80004070C460546384600211E4632F09AFD20
:10A4D80024A0314635F0C4FE3846002132F092FD02
:10A4E8002FA036F0B7FB002C38D044F2F93B44F2E9
:10A4F80049280027C0F6040BC0F604080FF2C0096B
:10A508000FF2A40A002605E00A4635F0A9FE013636
:10A51800B44223D0052EFAD8DFE806F00C030C1756
:10A528000C0E5846002132F06DFD687847EA00218C
:10A538004046E9E7AF5DEAE75846002132F062FDA0
:10A54800687947EA00215046DEE75846002132F094
:10A5580059FDE87847EA00214846D5E7002001B0D0
:10A56800BDE8F08F4C696768745F43746C5F44653D
:10A578006661756C745374617475732063616C6C77
:10A588006261636B20726563656976656420666FD6
:10A598007220656C656D656E74202564200D0A0057
:10A5A8002338323638210D0044656C7461205556C5
:10A5B8003A203078257820282564290A0D000000E3
:10A5C80054656D70657261747572653A20307825CE
:10A5D8007820282564290A0D000000000020704713
:10A5E8002DE9F04F81B044F28327C0F604070C46EA
:10A5F8000546384600211E4632F004FD43F6BF707A
:10A60800C0F60400314635F02BFE3846002132F002
:10A61800F9FC23A036F01EFB002C3DD044F2832B1E
:10A6280044F2ED0A44F2E21844F26B190027C0F62E
:10A63800040BC0F6040AC0F60408C0F60409002694
:10A6480004E000BFAF5D0136B44225D086B126F0E4
:10A6580002000128F6D0042E11D0022EF3D158465C
:10A66800002132F0CFFCA87847EA002148460FE0E5
:10A678005846002132F0C6FC2978504608E0584672
:10A68800002132F0BFFC287947EA0021404600BF8C
:10A698000A4635F0E5FDD6E7002001B0BDE8F08FA9
:10A6A8002338323633210D00002070472DE9F04F52
:10A6B80081B044F2EA27C0F604070C46054638463E
:10A6C80000211E4632F09EFC34A0314635F0C8FD0C
:10A6D8003846002132F096FC40A036F0BBFA002C38
:10A6E80057D044F2EA2644F2221A44F206174FF0F1
:10A6F8000008C0F60406C0F6040A0FF2E80BC0F61C
:10A7080004074FF0000906E00A4635F0A9FD09F1F3
:10A7180001094C453DD0B9F1080FF8D8DFE809F038
:10A728000E2D0E110E1D0E0526003046002132F0AA
:10A7380069FCE87948EA00215846E5E715F80980F8
:10A74800E5E73046002132F05DFCE87848EA002170
:10A7580044F2CB00C0F60400D6E73046002132F0C0
:10A7680051FC687948EA00215046CDE7304600217F
:10A7780032F048FC297A3846C6E73046002132F0E4
:10A7880041FC687848EA002144F24610C0F604000B
:10A79800BAE7002001B0BDE8F08F00BF4C696768D8
:10A7A800745F43746C54656D70657261747572651D
:10A7B8005F5374617475732063616C6C6261636B61
:10A7C80020726563656976656420666F7220656CC2
:10A7D800656D656E74202564200D0A0023383236B5
:10A7E80036210D005461726765742043544C20442F
:10A7F800656C74612055563A2030782578202825D4
:10A8080064290D0A00000000002070472DE9F04F70
:10A8180081B044F23D37C0F604070C460546384679
:10A8280000211E4632F0EEFB33A0314635F018FD0C
:10A838003846002132F0E6FB3DA036F00BFA002C3A
:10A8480055D044F23D3644F2221B4FF00008C0F6C2
:10A8580004060FF2001AC0F6040B37A74FF00009E0
:10A8680007E000BF0A4635F0FBFC09F101094C4539
:10A878003DD0B9F1080FF8D8DFE809F00E2D0E1118
:10A888000E1D0E0526003046002132F0BBFBE8798C
:10A8980048EA00215846E5E715F80980E5E730461B
:10A8A800002132F0AFFBE87848EA002144F2461074
:10A8B800C0F60400D6E73046002132F0A3FB6879E1
:10A8C80048EA00215046CDE73046002132F09AFB95
:10A8D800297A3846C6E73046002132F093FB68787B
:10A8E80048EA002144F28210C0F60400BAE70020CA
:10A8F80001B0BDE8F08F00BF4C696768745F4374AE
:10A908006C5F5374617475732063616C6C6261630E
:10A918006B20726563656976656420666F72206571
:10A928006C656D656E74202564200D0A00000000BA
:10A938002338323630210D0052656D61696E696EBB
:10A94800672054696D653A30782578202825642970
:10A958000D0A00005461726765742043544C204C02
:10A96800696768746E6573733A2030782578202893
:10A978002564290D0A000000002070470020704758
:10A988000020704700207047002070470020704763
:10A998000020704700207047002070470020704753
:10A9A800002070470020704740F21001C2F20001F9
:10A9B8000B2312FB0312137901460370527900200E
:10A9C8004A70704740F21001C2F200010B2312FBDB
:10A9D8000312937801460370D27800204A707047BA
:10A9E800014640F25C20C2F2000010F8123000EB81
:10A9F80042000B7040780B23487040F21000C2F2FE
:10AA0800000012FB030082788A70C2780020CA70A6
:10AA18007047000040F21001C2F200010B2312FB44
:10AA28000312937901460370D0794870107A8870C0
:10AA3800507AC870927A00200A71704740F2100C60
:10AA48000B230146C2F2000C02FB03F01CF80000C5
:10AA580012FB03C208705078487090788870D278DA
:10AA68000020CA7070470000002070472DE9F04FA1
:10AA780081B044F2DB37C0F604070C460546384679
:10AA880000211E4632F0BEFA24A0314635F0E8FB1C
:10AA98003846002132F0B6FA2FA036F0DBF8002C49
:10AAA80038D044F2DB3B44F249280027C0F6040BB7
:10AAB800C0F604080FF2C0090FF2A40A002605E048
:10AAC8000A4635F0CDFB0136B44223D0052EFAD81C
:10AAD800DFE806F00C030C170C0E5846002132F084
:10AAE80091FA687847EA00214046E9E7AF5DEAE76E
:10AAF8005846002132F086FA687947EA0021504624
:10AB0800DEE75846002132F07DFAE87847EA00216E
:10AB18004846D5E7002001B0BDE8F08F4C6967686A
:10AB2800745F48736C44656661756C745F537461D7
:10AB38007475732063616C6C6261636B207265630A
:10AB4800656976656420666F7220656C656D656EF3
:10AB580074202564200D0A002338323743210D0064
:10AB680053617475726174696F6E3A203078257814
:10AB780020282564290A0D004875653A2030782573
:10AB88007820282564290A0D00000000002070475D
:10AB98002DE9F04F81B044F20C37C0F604070C469B
:10ABA8000546384600211E4632F02CFA28A03146C8
:10ABB80035F056FB3846002132F024FA32A036F040
:10ABC80049F8002C3FD044F20C3B00276FF00206F6
:10ABD800C0F6040B0FF2B8090FF2CC0A4FF00008C8
:10ABE80006E000BF15F8087008F1010844452AD0AE
:10ABF80018EA060FF6D0B8F1040F17D0B8F1030F12
:10AC08000BD0B8F1010FEFD15846002132F0FAF914
:10AC1800687847EA0021504611E05846002132F092
:10AC2800F1F9E87847EA0021484608E0584600214B
:10AC380032F0E8F9297944F21220C0F604000A46F5
:10AC480035F00EFBD0E7002001B0BDE8F08F00BF63
:10AC58004C696768745F48736C4875655F537461C5
:10AC68007475732063616C6C6261636B20726563D9
:10AC7800656976656420666F7220656C656D656EC2
:10AC880074202564200D0A002338323731210D0045
:10AC9800546172676574204875653A203078257864
:10ACA80020282564290A0D0050726573656E74208A
:10ACB8004875653A203078257820282564290A0DBA
:10ACC80000000000002070472DE9F04F81B044F2E9
:10ACD800CE27C0F604070C460546384600211E4616
:10ACE80032F090F933A0314635F0BAFA38460021EF
:10ACF80032F088F93EA035F0ADFF002C55D044F273
:10AD0800CE2644F2602A4FF00008C0F60406C0F6CA
:10AD1800040A0FF2081B38A74FF0000907E000BF2C
:10AD28000A4635F09DFA09F101094C453DD0B9F1C3
:10AD3800080FF8D8DFE809F02F0E110E1D0E050ECA
:10AD480026003046002132F05DF9A87948EA002152
:10AD58005846E5E715F80980E5E73046002132F066
:10AD680051F9A87848EA002144F22E20C0F60400E0
:10AD7800D6E73046002132F045F9287948EA002123
:10AD88005046CDE73046002132F03CF9287A48EAAF
:10AD980000213846C4E73046002132F033F92978DB
:10ADA80044F2F910C0F60400BAE7002001B0BDE88B
:10ADB800F08F00BF4C696768745F48736C52616EAE
:10ADC80067655F5374617475732063616C6C62614D
:10ADD800636B20726563656976656420666F7220AF
:10ADE800656C656D656E74202564200D0A00000091
:10ADF8002338323745210D005361747572617469C7
:10AE08006F6E2052616E6765204D61783A20307808
:10AE1800257820282564290A0D00000053617475DF
:10AE2800726174696F6E2052616E6765204D696E3C
:10AE38003A203078257820282564290A0D0000005A
:10AE4800002070472DE9F04F81B044F25437C0F626
:10AE580004070C460546384600211E4632F0D2F853
:10AE680028A0314635F0FCF93846002132F0CAF8FE
:10AE780034A035F0EFFE002C3FD044F2543B0027BD
:10AE88006FF00206C0F6040B0FF2C0090FF2DC0ADD
:10AE98004FF0000806E000BF15F8087008F1010837
:10AEA80044452AD018EA060FF6D0B8F1040F17D097
:10AEB800B8F1030F0BD0B8F1010FEFD158460021BC
:10AEC80032F0A0F8687847EA0021504611E0584669
:10AED800002132F097F8E87847EA0021484608E070
:10AEE8005846002132F08EF8297944F21220C0F633
:10AEF80004000A4635F0B4F9D0E7002001B0BDE8F7
:10AF0800F08F00BF4C696768745F48736C53617455
:10AF180075726174696F6E5F5374617475732063C1
:10AF2800616C6C6261636B207265636569766564E8
:10AF380020666F7220656C656D656E7420256420CF
:10AF48000D0A00002338323735210D00546172672D
:10AF580065742053617475726174696F6E3A20303C
:10AF680078257820282564290A0D00005072657319
:10AF7800656E742053617475726174696F6E3A20DE
:10AF88003078257820282564290A0D00002070478C
:10AF98002DE9F04F81B044F22637C0F604070C467D
:10AFA8000546384600211E4632F02CF82AA03146C4
:10AFB80035F056F93846002132F024F834A035F03F
:10AFC80049FE002C44D044F2263644F2122B0027C6
:10AFD800C0F604060FF2DC090FF2BC0AC0F6040B37
:10AFE8004FF0000806E00A4635F03AF908F1010882
:10AFF80044452DD0B8F1060FF8D8DFE808F00D0465
:10B008000D200D1019003046002131F0FBFF687843
:10B0180047EA00212DA0E6E715F80870E6E7304674
:10B02800002131F0EFFF687947EA00215046DAE75E
:10B038003046002131F0E6FFA9795846D3E730467B
:10B04800002131F0DFFFE87847EA00214846CAE7E7
:10B05800002001B0BDE8F08F4C696768745F4873E1
:10B068006C5F5374617475732063616C6C626163A7
:10B078006B20726563656976656420666F7220650A
:10B088006C656D656E74202564200D0A0000000053
:10B098002338323738210D0048534C2053617475DA
:10B0A800726174696F6E3A2030782578202825649B
:10B0B800290A0D0048534C204875653A20307825F8
:10B0C8007820282564290A0D0000000048534C20E8
:10B0D8004C696768746E6573733A203078257820F8
:10B0E800282564290A0D0000B0B5054600881C46CD
:10B0F80000284FF0000002D003F06CF901E003F0E3
:10B1080059F940F210012888C2F200010B2243F6D7
:10B11800B66514FB0211C0F6040588802846002194
:10B1280031F070FF09A035F095FD2846002131F077
:10B1380069FF43F61060C0F60400214635F090F828
:10B14800032021462CF01AFF0020B0BD23383235E9
:10B158003921200D000000002DE9F04381B044F2B0
:10B16800B637C0F604070C460546384600211E4689
:10B1780031F048FF44F28800C0F60400314635F04B
:10B188006FF83846002131F03DFF44F27B20C0F6CD
:10B19800040035F05FFDECB144F2B6380026C0F685
:10B1A80004080FF2380900270EE000BF40460021CE
:10B1B80031F028FF687846EA002148460A4635F00B
:10B1C8004FF80137BC4205D0012FEFD0002FF8D13E
:10B1D8002E78F6E7002001B0BDE8F0834C69676877
:10B1E800746E6573732044656661756C743A2030BB
:10B1F80078257820282564290D0A0000B0B540F28A
:10B208001002B0F80700C2F200020B2343F6D8641C
:10B2180011FB0325C0F6040468802046002131F0A4
:10B22800F1FE06A035F01CF82046002131F0EAFEB8
:10B23800698805A035F014F80020B0BD23383235F0
:10B2480039210A0D000000004170706C695F4C697B
:10B258006768745F4C696768746E6573735F4C6187
:10B2680073745F536574204C69676874204C61730C
:10B27800742056616C7565203078252E3278200D43
:10B288000A0000002DE9F04381B044F21747C0F6E8
:10B2980004070C460546384600211E4631F0B2FE2A
:10B2A80017A0314634F0DCFF3846002131F0AAFE01
:10B2B80044F27B20C0F6040035F0CCFCE4B144F243
:10B2C80017480026C0F604080FF2740900270DE09D
:10B2D8004046002131F096FE687846EA002148464B
:10B2E8000A4634F0BDFF0137BC4205D0012FEFD02C
:10B2F800002FF8D12E78F6E7002001B0BDE8F083E2
:10B308004C696768745F4C696768746E6573735FCE
:10B318004C6173745F5374617475732063616C6CF2
:10B328006261636B20726563656976656420666F28
:10B338007220656C656D656E74202564200D0A00A9
:10B348004C696768746E657373204C6173743A2036
:10B358003078257820282564290D0A00B0B5408862
:10B3680040F25C2143F67B65C2F20001C0F6040599
:10B3780021F81300284600211C4631F043FE43F60D
:10B38800CD50C0F60400214634F06AFF284600215B
:10B3980031F038FE02A034F063FF0020B0BD00BFDA
:10B3A8002338323530210A0D000000002DE9F04F16
:10B3B80081B044F27537C0F604070C460546384696
:10B3C80000211E4631F01EFE44F24600C0F604007D
:10B3D800314634F045FF3846002131F013FE26A0EF
:10B3E80035F038FC002C42D044F2753B44F2A519E4
:10B3F80044F2C31A00276FF00206C0F6040BC0F629
:10B408000409C0F6040A4FF0000805E015F80870B2
:10B4180008F1010844452AD018EA060FF6D0B8F119
:10B42800040F17D0B8F1030F0BD0B8F1010FEFD10B
:10B438005846002131F0E6FD687847EA0021504679
:10B4480011E05846002131F0DDFDE87847EA002197
:10B45800484608E05846002131F0D4FD297944F2E5
:10B468000610C0F604000A4634F0FAFED0E70020C1
:10B4780001B0BDE8F08F00BF2338323532210D000E
:10B48800B0B540F210021C460178C2F200020B234C
:10B4980014FB03229171D0F8010043F65B65C0F6F6
:10B4A8000405C2F807002846002131F0ABFD08A0CA
:10B4B80034F0D6FE2846002131F0A4FD43F684502E
:10B4C800C0F60400214634F0CBFE0020B0BD00BF1A
:10B4D800233832354221200A0D0000002DE9F04FB3
:10B4E80081B044F2AB27C0F604070C46054638463F
:10B4F80000211E4631F086FD44F20500C0F6040026
:10B50800314634F0ADFE3846002131F07BFD23A0F2
:10B5180035F0A0FB002C3DD044F2AB2B44F2ED0AF1
:10B5280044F2E21844F26B190027C0F6040BC0F687
:10B53800040AC0F60408C0F60409002604E000BFA7
:10B54800AF5D0136B44225D086B126F0020001284D
:10B55800F6D0042E11D0022EF3D15846002131F036
:10B5680051FDA87847EA002148460FE058460021D7
:10B5780031F048FD2978504608E05846002131F05E
:10B5880041FD287947EA0021404600BF0A4634F0C9
:10B5980067FED6E7002001B0BDE8F08F23383235CA
:10B5A80038210D00F0B581B043F69C66C0F604065C
:10B5B8000546304600211C46002731F023FD27A010
:10B5C80034F04EFE3046002131F01CFD2A88B5F8D3
:10B5D800073025A0214634F043FE40F210012888A8
:10B5E800C2F200010B2214FB02136243885240F698
:10B5F8004A1240F2B816B5F80710C2F20002C2F2B9
:10B608000006002818BF0146128835885980AA42CA
:10B618004FF0000147F6F54398BF01219A4288BFD1
:10B6280001273943002A328018BF0122114040F611
:10B638004812C2F2000211704FF6FF7100222EF07C
:10B6480005FE40F2AC11C2F2000108800320214639
:10B658002CF094FC002001B0F0BD00BF2338323438
:10B6680043210A0D00000000456C656D656E74206D
:10B67800696E6465782025642070726573656E74E0
:10B68800203078252E3278206C617374203078252C
:10B698002E32780D0A0000002DE9F04F81B044F2F7
:10B6A8009937C0F604070C460546384600211E4661
:10B6B80031F0A8FC2AA0314634F0D2FD38460021EA
:10B6C80031F0A0FC35A035F0C5FA002C43D044F287
:10B6D800993B44F2A51944F2C31A00276FF00206F9
:10B6E800C0F6040BC0F60409C0F6040A4FF00008BF
:10B6F80006E000BF15F8087008F1010844452AD093
:10B7080018EA060FF6D0B8F1040F17D0B8F1030FF6
:10B718000BD0B8F1010FEFD15846002131F072FC7F
:10B72800687847EA0021504611E05846002131F078
:10B7380069FCE87847EA0021484608E058460021B5
:10B7480031F060FC297944F20610C0F604000A467C
:10B7580034F086FDD0E7002001B0BDE8F08F00BFCF
:10B768004C696768745F4C696768746E6573735F6A
:10B778005374617475732063616C6C6261636B20D0
:10B78800726563656976656420666F7220656C65AD
:10B798006D656E74202564200D0A0000233832344C
:10B7A80045210D00B0B54AF61850C2F200000068F5
:10B7B80004212DF0A7FA05462DF0ECFF04460006FB
:10B7C80008BF2C46002D18BF2C46200608D043F28F
:10B7D8006B40E1B2C0F6040034F042FDE0B2B0BD07
:10B7E80043F20C60C0F6040035F034FAE0B2B0BDA4
:10B7F80010B501F03BFD002818BF10BD40F2AC4465
:10B80800C2F20004207810B902A035F023FA012012
:10B81800207010BD436F6E66696720536572766548
:10B8280072206D75746174696F6E206163636570F1
:10B838007465643A2066756C6C20636F6D6D69740D
:10B848002072657175697265640D000080B510F02D
:10B85800CFFD18B310F0D2FD00B341F66D50C2F21F
:10B8680000000178002918BF80BD012101700BF08C
:10B8780013FF012802D003200AF0D0FA0AA035F0FD
:10B88800E9F9002000212BF07DF840B943F25E6011
:10B89800C0F60400BDE8804035F0DCB980BD642006
:10B8A8000CF05EFA32F0DAFE50726F766973696FE7
:10B8B8006E696E672073657373696F6E2074696D46
:10B8C800656F75743A2072657475726E20746F2096
:10B8D8006C656761637920474154540D000000008E
:10B8E80081B08DF803004AF60450C2F200000068E7
:10B8F800406801B070470000B0B583B094468E46EA
:10B90800044609980899079A02948DF807E08DF87B
:10B9180006C0ADF80430ADF802208DF801108DF89E
:10B9280000000299012008700299002048700299CD
:10B9380088700299C8700299087103B0B0BD000000
:10B9480081B08DF803004AF60450C2F20000006886
:10B95800006901B0704700002DE9F04141F66C58CC
:10B9680040F61225C2F20008C2F2000598F800005D
:10B9780029784AF6DD4440EA0106F707C2F20004D6
:10B9880009D1207838B9FFF761FF40200021BDE8D0
:10B99800F04132F003BB2DF061FA217802460843EA
:10B9A800000608D097B343F28240C9B2C0F604003B
:10B9B80034F056FCE9E7AFB110F01AFD90B1002061
:10B9C80088F800002870012030F0ACFC022000212B
:10B9D8002AF0D8FFF8B943F21860C0F6040035F031
:10B9E80039F9D0E728783040C007CCD040F2AC41D4
:10B9F8000020C2F20001287088F8000008700AA030
:10BA080035F028F9BDE8F0412BF0ECB840200021D2
:10BA180032F0C4FAB7E712A035F01CF9FA200CF09E
:10BA28009FF932F01BFE00BF4D65736820636F6E8F
:10BA380066696775726174696F6E20636F6D6D6991
:10BA4800747465643A20636F6E74726F6C6C6564AD
:10BA58002050726F787920726573746172740D006A
:10BA680050726F766973696F6E696E6720636F6D68
:10BA78006D69747465643A207265626F6F742074BE
:10BA88006F204D657368206F7065726174696F6EA1
:10BA9800616C0D0041F67250C2F200000078002877
:10BAA80018BF704780B501F0B5FF0A200CF058F9AF
:10BAB800FDF722FE00200AF0B1F943F29550C0F6D6
:10BAC800040035F0C7F801F0CDFD32F0C7FD0000E5
:10BAD80080B582B08DF807004AF60C50C2F200001B
:10BAE800006801699DF80700884702B080BD000022
:10BAF8002DE9F04F8FB0834600284FF0030000F087
:10BB0800B1810D46002900F0AD8140F290389BF8D4
:10BB180000A045F24829C2F200080120C2F200093B
:10BB2800A8F800000FF2A830002189F800A000272B
:10BB380031F068FA9BF800100FF2AC302A4634F066
:10BB48008FFB0FF2B83600241BF80710304634F08C
:10BB580087FB0134A7B2BD42F6D842F63E20C0F6B4
:10BB6800040034F07DFBAAF1010127294FF0010000
:10BB780000F27881DFE811F028007601760176017D
:10BB880076017601760176017601760176017601F5
:10BB9800760176017601DD009B00190176017601B8
:10BBA800760176011F01A000ED00FF005301460158
:10BBB8005C0076017601CB0077004E000E0116017D
:10BBC80079016301360087003C2D00F26B8145F254
:10BBD8004820C2F2000059462A46FBF7AEFBA8F8F7
:10BBE80000503EE1052D40F05881DBF8011003209C
:10BBF8002AF0C8FE002800F05981002089F80100C9
:10BC0800DBF80100C9F802000620A8F800002AF0B5
:10BC1800E9FF26E1022DC0F045819BF801000428C8
:10BC280000F04E81032840F03D810BF051FDBEE04D
:10BC3800012D40F0378144F64F60A9F80D0044F615
:10BC48004310C4F65310C9F8090045F22000C4F2A5
:10BC58005250C9F8050044F64B10C4F65710C9F8FD
:10BC680001000F20FBE0032DC0F01C819BF80100B0
:10BC7800042800F02881032840F014819BF8020072
:10BC880030F0CAFAEDE0012D40F00C8168462AF048
:10BC980033FD012089F80100BDF80000DDF802102D
:10BCA800029AA9F802000C20C9E90112D7E06846F7
:10BCB8003B210BF0B7FC40E0052D40F0F380DBF8AA
:10BCC800010069463B220BF015FD002800F0F480C6
:10BCD8009BF801009BF802109BF8032089F80100EB
:10BCE8009DF80C009BF8043089F8021089F80320AD
:10BCF80089F811000299DDE9000289F80430C9F8D1
:10BD08000D10C9F80920C9F805001220A7E0022D76
:10BD1800C0F0C8809BF8010069468DF800004AF61B
:10BD2800FC00C2F2000001224FF47A730EF04CFEC0
:10BD380097E068463B210BF05DFC002800F0BC80D2
:10BD4800044609F1010069462246FBF7F6FA601C31
:10BD580085E0012D40F0A68068463B212CF08CF947
:10BD6800142840F0A98009F1010069461422FBF764
:10BD7800E4FA152073E0012D40F0948040F2C044AD
:10BD8800C2F200042046FBF716FB05463B2828BFF5
:10BD98003B255DE0022DC0F085809BF8010030F066
:10BDA800D3F95EE00BF05EFC01E00BF01DFC89F8B6
:10BDB8000100022053E00BF0C9FC06460BF0D6FC4C
:10BDC80004460BF0CBFC012D6CD1310A89F8021026
:10BDD800210A89F80410210C89F80510210E89F828
:10BDE8000610010A89F8070089F80810010C000EEE
:10BDF80089F8016089F8034089F8091089F80A0070
:10BE08000B202CE0012D4DD145F22D30C3F22E0030
:10BE1800C9F8040044F64240C2F645500BE0012D33
:10BE280040D143F22E00C3F22E00C9F8040042F6B6
:10BE38003060C2F63260C9F8010008200FE00BF04C
:10BE480053FC0446FBF7B7FAC5B2102D28BF1025DE
:10BE580009F1010021462A46FBF76FFA681CA8F889
:10BE6800000000200FB0BDE8F08FA5F1120010F11E
:10BE7800100F17D3681E00216C468DF81010CDE9FD
:10BE88000211CDE900110BF10101C2B22046FBF706
:10BE980054FA204630F000FAE3E789F8010002205E
:10BEA800A8F8000003200FB0BDE8F08F042089F83F
:10BEB80001000220A8F8000001200FB0BDE8F08FB3
:10BEC8000BF00CFC73E79BF8020030F0C5F9C8E7EB
:10BED8004170706C695F56656E646F725F4461741F
:10BEE800615F7772697465002330452D25303268AB
:10BEF80078202530326C7821200A0D0025303268F0
:10BF0800782000002DE9F04F83B00446057845F20B
:10BF1800482843F2BC70C2F20008C0F604000021B1
:10BF280088F8005031F06EF8217855A034F098F96F
:10BF3800691E032900F29F800220DFE801F09302C6
:10BF4800307301F087F80478002C78D043F2BC797C
:10BF5800471C00250DF1020A0FF24C1BC0F604091C
:10BF68000FF2581814E000BFE0B201F097F9044648
:10BF78000AF8060046464846002131F043F83046A4
:10BF8800214634F06DF917F8014B0135002C56D0D5
:10BF9800EEB22E2C0AF80640E6D15E46EBE701F039
:10BFA80053F8047844B343F28C7B43F2BC79471CC2
:10BFB80000250DF1020AC0F6040BC0F604090CE0D6
:10BFC8005E464846002131F01DF83046214634F0DF
:10BFD80047F917F8014B013574B1EEB22E2C0AF867
:10BFE8000640EDD0522CEBD0E0B201F057F90446F0
:10BFF8000AF8060026A6E4E7BDF802009DF8071037
:10C00800A8F801009DF805009DF809209DF80B305F
:10C0180088F8030088F8041088F8052088F80630A6
:10C0280007201FE043F22E00C3F22E00C8F80400D8
:10C0380042F63060C2F63260C8F8010011E0BDF87F
:10C048000200BDF8051045F24822C2F20002A2F82B
:10C058000100A2F803109DF80800BDF809105071FE
:10C06800D180082040F29031C2F2000108800020FF
:10C0780003B0BDE8F08F012003B0BDE8F08F00BF2A
:10C088002330322D253032687821200A0D00000037
:10C09800537562204C69622076657273696F6E20F1
:10C0A80069732025780A0D004C69622076657273E1
:10C0B800696F6E2069732025630A0D004C69622040
:10C0C80076657273696F6E2069732025780A0D0092
:10C0D8002DE9F04381B0064690F8008043F2A47041
:10C0E800C0F6040000211546002730F08BFF317898
:10C0F8007CA034F0B5F8A8F1010005284FF001093B
:10C1080000F2CE800024DFE800F003502ACC718DC5
:10C1180043F2A470C0F6040000214FF0000930F08B
:10C1280071FF43F2E160C0F60400294634F098F844
:10C1380040F2AC10C2F2000047F6F64101800168F7
:10C1480042688368042010F0FBFF002002F042F9E7
:10C1580040F2AA10C2F20000012101709FE043F2F0
:10C16800A470C0F6040000214FF0000930F04AFF27
:10C1780043F21770C0F60400294634F071F840F213
:10C18800AA14C2F200042078012874D140F2AC103D
:10C19800C2F200000121018001684268836804201E
:10C1A80010F0CEFF84F800901EE043F2A470C0F6B1
:10C1B800040000214FF0000930F024FF5DA029465B
:10C1C80034F04EF840F2AC10C2F2000001210180B8
:10C1D800016842688368042010F0B2FF40F2AA1098
:10C1E800C2F2000080F80090002018E043F2A4702A
:10C1F800C0F60400002130F005FF43F25170C0F68C
:10C208000400294634F02CF8707840F2AA11C2F2E2
:10C218000001012808703DD000204FF0000902F00D
:10C22800C9F83CE043F2A470C0F60400002130F0E5
:10C23800E9FE30A0294634F013F87778B47847F649
:10C24800FF7147EA042000222EF000F8054640F26C
:10C25800AC10C2F2000005800168426883680420BF
:10C2680010F06EFF00204FF00009B5F57A5F35D960
:10C2780002F0B0F815E040F2AC10C2F2000047F648
:10C28800F6410180016842688368042010F058FF75
:10C298000120207000204FF0000902F09BF80027D1
:10C2A800002445F24820C2F20000B8F1060F80F8D9
:10C2B800008003D144708770032106E040F2AA1180
:10C2C800C2F2000109784170022140F29032C2F2B4
:10C2D80000024846118001B0BDE8F08302F06AF818
:10C2E800DFE700BF2330332D2530326878210A0D6F
:10C2F800000000004170706C695F4C45445F496EF6
:10C3080074656E736974792063616C6C6261636BC8
:10C3180020726563656976656420666F7220656C56
:10C32800656D656E74496E646578202564200D0A14
:10C33800000000004170706C695F4C45445F4F46D7
:10C34800462063616C6C6261636B2072656365692A
:10C3580076656420666F7220656C656D656E7449DC
:10C368006E646578202564200D0A00002DE9F041EF
:10C3780088B003A82AF0C0F99DF80C00022810D153
:10C388000BF08AF901280CD10BF0E6FF46F29C2548
:10C39800C2F2000529680446401A02D401F042FBA3
:10C3A80010B108B0BDE8F08146F2A826C2F2000636
:10C3B8003078012828D10BF0D9F946F2A427C2F227
:10C3C8000007396846F2A028814238BF3860C2F2B7
:10C3D80000083868D8F8001088426BD203A90D22EB
:10C3E8000BF088F9002865D0396803AA13200D23BB
:10C3F80000F004F900284CD13868D8F80010013052
:10C4080088423860CDD355E046F2AC26C2F2000629
:10C41800307801282ED146F2B020C2F20000006820
:10C4280014218DF80C10010A8DF80E10010C8DF8EE
:10C438000F1046F2B421C2F2000109688DF80D0010
:10C44800000E8DF81000CDF8111000F0DBFD01464C
:10C45800012009220290302000270092C0F201003A
:10C4680003AB0E22019701F00FFA90B9377008B0AC
:10C47800BDE8F08146F28826C2F20006307800282E
:10C488008FD0716806F108021620012300F0B6F873
:10C4980080B146F29820C2F20000016804F16402FB
:10C4A800611A2A605EBF41F288312144016008B0F8
:10C4B800BDE8F0810020307008B0BDE8F0810000D0
:10C4C80010B584B0044601A82AF016F99DF80400B6
:10C4D800022812D10BF0E0F801280ED146F2942080
:10C4E800C2F2000001684A1C026046F28820C2F2CB
:10C4F8000000416001210472017004B010BD000009
:10C5080058B30D2918BF704710B584B001A8144658
:10C518002AF0F2F89DF8040002281BD10BF0BCF8B1
:10C52800012817D146F2A821C2F200010A78204654
:10C53800002A46F2A422C2F2000202BF10600123C0
:10C548000B701168884205D346F2A0210130C2F26F
:10C558000001086004B0BDE81040704758B30429D2
:10C5680018BF704710B584B0044601A82AF0C4F873
:10C578009DF8040002281BD10BF08EF8012817D172
:10C5880046F2B820C2F2000001684A1C026046F276
:10C59800B020C2F200000160206846F2B421C2F265
:10C5A8000001086046F2AC20C2F2000001210170CF
:10C5B80004B0BDE810407047B0B584B001F032FA5D
:10C5C80028B1002001F006FF012004B0B0BD002012
:10C5D800002501F0EFFE40F20C22C2F20002136CBB
:10C5E800108892F844100124CDE90035931C0E22DE
:10C5F800029401F0FDF804B0B0BD0000002A04BFA9
:10C6080003207047B0B588B08DF80E00080A8DF881
:10C618001000080C8DF81100080E0DF10E048DF8AD
:10C628000F108DF81200601D11461A461D46FAF7C4
:10C6380084FE00F0E7FC0146681D0022CDE90002F7
:10C6480030200125C0F201000E222346029501F098
:10C658001BF908B0B0BD0000F0B581B040F20C275E
:10C668000E46C2F2000715460146B81C32461C4663
:10C67800FAF763FE00203C803E643C2E88BF03200E
:10C6880087F8445001B0F0BD2DE9F0410446077821
:10C6980045F2482843F2D4700D46C2F20008C0F6AD
:10C6A8000400002188F80070002630F0ABFC2178E7
:10C6B80020A033F0D5FDF81E032837D3022F19D058
:10C6C800062F32D19DB142F63E2700210FF27408A1
:10C6D800C0F60407002600BF625C404633F0C0FD88
:10C6E800384633F0BDFD0136F1B28D42F4D8002052
:10C6F800BDE8F0813D2D0AD343F2D470C0F60400A2
:10C70800002130F07FFC13A034F0A4FA3C25611C12
:10C718006A1E08F10100FAF710FE40F29030C2F2EA
:10C72800000005800020BDE8F08101263046BDE804
:10C73800F08100BF2330312D253032687821200A5E
:10C748000D000000646174615B25645D3D20256413
:10C75800000000004C656E67746820726563656947
:10C768007665642067726561746572207468616EAD
:10C778002073697A65206F6620726573706F6E73B7
:10C788006520627566666572200D000040F2FC1235
:10C79800C1EBC101C2F2000202EB4101002200BF5D
:10C7A80031F81230984204BF012070470132072A3D
:10C7B80004BF00207047F3E740F25422C2F200029F
:10C7C80002EBC101002200BF51F82230984204BF99
:10C7D800012070470132012A1CBF00207047F3E78F
:10C7E8000020704710B540F2FC12C1EBC101C2F243
:10C7F800000202EB410100244FF6FF7231F81430B9
:10C80800934203D00134072CF8D107246200FAF7C9
:10C8180094FDE0B210BD000010B540F25422C2F2FF
:10C82800000202EBC10100244FF6FF7251F82430D8
:10C83800934203D00134012CF8D00224A200FAF765
:10C848007CFDE0B210BD0000B0B588B0DDF844C092
:10C85800DDF840C0DDF83CC0DDF838C0DDF834C094
:10C86800DDF830C007900691059204930EF086FD1E
:10C8780006980EF0D3FD05980499109A119BDDF8DF
:10C888003CC00D9CEE460025CEF80850CEF804407A
:10C89800CEF800C00EF064FC0E980F99079A0EF0BF
:10C8A800D5FB0C980D990EF0ADFB03900EF03EFDF4
:10C8B800039808B0B0BD0000B0B588B0DDF844C03A
:10C8C800DDF840C0DDF83CC0DDF838C0DDF834C024
:10C8D800DDF830C00790069105920493002003907C
:10C8E8000EF04CFD04980EF099FD0C980D99109AD5
:10C8F800119BDDF83CC0059CEE460125CEF808509A
:10C90800CEF80440CEF800C00EF02AFC0E980F991D
:10C91800079A0EF09BFB069805990EF011FC0EF095
:10C9280005FD039808B0B0BD80B592B01190109184
:10C938000F920E9340F26020C2F200000D9000208A
:10C948000B9010980290119820B1FFE7119800F011
:10C95800FFF8FFE70E9890B1FFE70F9800F00F007F
:10C968000B900F9830B1FFE70B9818B9FFE710202C
:10C978000B90FFE70B990F98401A0F90FFE7FFE71E
:10C988000F9870B3FFE7029B186859689A68DB68CC
:10C998000A93099208910790FFE7079800BA0D9942
:10C9A800096848400790089800BA0D9949684840B6
:10C9B8000890099800BA0D998968484009900A9822
:10C9C80000BA0D99C96848400A90FFE70D9907A871
:10C9D80000F0B4F80298103002900F9810380F90B9
:10C9E800CEE70E98002800F08180FFE700200A902B
:10C9F8000990089007900C90FFE70C980B998842D3
:10CA080013D2FFE702990C98095C03228243D200F3
:10CA180001FA02F320F0030207A988581843885046
:10CA2800FFE70C9801300C90E7E70020069005908E
:10CA38000490039003A90191084600F07FF801983B
:10CA480000F056F80B980F2811D8FFE70B98032130
:10CA58008143CA00802101FA02F320F0030207A9EA
:10CA680088581843885003A800F042F8FFE70020D0
:10CA78000C90FFE70C98032814D8FFE70D980C9A40
:10CA880050F8220003A951F8221080EA010307A9EF
:10CA980051F82200584041F82200FFE70C98013075
:10CAA8000C90E7E70D9907A800F048F80EF03EFC57
:10CAB800FFE70D98006800BA07900D98406800BA23
:10CAC80008900D98806800BA09900D98C06800BA5F
:10CAD8000A90FFE70E990798089A099BDDF828C085
:10CAE800C1F80CC08B604A600860FFE712B080BDD7
