:020000040800F2
:1070000060DB0020BD720008CD75030841BC01089B
:1070100089D3010851550108CDD8030800000000AC
:1070200000000000000000000000000021AD030887
:10703000915C010800000000F598030835BC0308C6
:10704000D7720008D7720008D77200083D9C030869
:10705000D7720008D7720008D7720008D7720008EC
:10706000D7720008D7720008D7720008D7720008DC
:10707000D7720008D7720008D7720008D7720008CC
:10708000D7720008D7720008D7720008D7720008BC
:10709000D7720008D7720008D7720008255D010872
:1070A000D7720008D7720008D7720008D77200089C
:1070B000D7720008D7720008D7720008D77200088C
:1070C000D7720008D7720008D7720008D77200087C
:1070D000B5D50308BDC00108D7720008D7720008F3
:1070E000D7720008D7720008D7720008D77200085C
:1070F00035BF010839BF01085DAB0108D772000830
:10710000D7720008D7720008D7720008D77200083B
:10711000D7720008D7720008D7720008D77200082B
:10712000D7720008D7720008ED5B0108D77200081B
:10713000D7720008D7720008D7720008000000005C
:10714000704E04080000000081C201120812484A73
:107150000C0412303B08051C1A041059041428189A
:107160000222B042201A270C5AD00C14FFFF031A37
:10717000034A1BD852101255142028571420505976
:10718000180F20A9A0030875A20308A9A103081DD0
:107190000C1E719F03082D101E79A50308FF011115
:1071A0001B093D3C14FFFF011A0240120412051294
:1071B0000EB6090DFF018314DD2A021A1489453920
:1071C0004101083CDE2A08105A5510DADB20DADCCF
:1071D000201A010C029B10000000000000000000BB
:1071E000000000000000000000000000000000009F
:1071F000000000000000000000000000000000008F
:10720000000000000000000000000000000000007E
:10721000000000000000000000000000000000006E
:10722000000000000000000000000000000000005E
:10723000000000000000000000000000000000004E
:10724000000000000000000000000000000000003E
:10725000000000000000000000000000000000002E
:1072600000000000000000000000000001FF01FF1E
:1072700001FF01FF01FF01FF01FF01FF01FF01FF0E
:04728000014A0000BF
:020000040800F2
:1072A800DFF80CD000F002FD00480047F1F40308B5
:1072B80060DB00200648804706480047FEE7FEE7F7
:1072C800FEE7FEE7FEE7FEE7FEE7FEE7FEE7FEE78E
:1072D800DDBC0308A97200082DE9F05F054600200F
:1072E80092469B4688460646814640241BE028462F
:1072F80041464746224600F096FB53465A46C01A76
:10730800914110D311461846224600F07DFB2D1AF4
:1073180067EB01084F4622460120002100F074FB6C
:1073280017EB00094E41201EA4F10104DFDC48469A
:1073380031462A464346BDE8F09F10B5431A9342AA
:1073480009D28318881803E010F8011D03F8011DFD
:10735800521EF9D210BD40EA01039B0703D009E091
:1073680008C9121F08C0042AFAD203E011F8013B29
:1073780000F8013B521EF9D210BDD2B201E000F86C
:10738800012B491EFBD270470022F6E710B51346C1
:107398000A4604461946FFF7F0FF204610BD10B50F
:1073A800044604E00B7800F8013B03B1491C521E67
:1073B800F8D2204610BD421C10F8011B0029FBD151
:1073C800801A7047CBB203E00178994203D0401C81
:1073D800521EF9D20020704730B5044600200346FB
:1073E80000E05B1C934203D2E05CCD5C401BF8D00C
:1073F80030BD30B505460020034600E05B1C9342D3
:1074080005D2EC5CC85C201A01D1002CF6D130BD45
:107418000FB400B58DB010A909900B9000914FF0F2
:10742800FF300A9000200C90054806900548079008
:107438006A4609A80F9900F02DFB0DB05DF814FB02
:10744800B97A0008D77A00082DE9FF5F1D464FF08A
:10745800FF3BD5E9014691465F464FF00008A96910
:107468007F1C01988847296A824688470028F6D1F8
:10747800BAF1FF3F0CD024F4C064002E19DD600679
:1074880014D5BAF12B0F09D0BAF12D0F0ED103E0A4
:10749800584604B0BDE8F09F44F48064A9697F1C95
:1074A80001988847761E8246002E02DDBAF1300F19
:1074B80003D0B9F1000F26D032E0A969761E44F452
:1074C80000747F1C019888478246002E05DDBAF1BA
:1074D800780F06D0BAF1580F03D0B9F1000F10D0C9
:1074E8001EE0B9F1000F02D0B9F1100F18D1A96947
:1074F800761E24F400747F1C019888478246102069
:1075080002E0082000E00A20814609E008FB09089B
:10751800A969761E44F400747F1C01988847824646
:10752800002E05DD4946504600F09FFA0028EDDAA6
:10753800E96901988847A00502D46FF00100A8E71F
:10754800E00725D1600613D5600502D5C8F1000013
:1075580000E0404629680A1D2A600968220501D50D
:10756800087015E0220701D5088011E008600FE0D7
:107578002868011D29600068210502D580F800806F
:1075880006E0210702D5A0F8008001E0C0F80080DD
:1075980038467EE72DE9FF5FD2E901A74FF00008E2
:1075A800916999461446DDF838B0464601988847EF
:1075B800054659EA0B0005D009E0A169761C019837
:1075C80088470546216A284688470028F5D1681C5F
:1075D80003D05FEACA7005D015E04FF0FF3004B061
:1075E800BDE8F09F2068011D2160D0F800800AE006
:1075F8005FEACA7001D108F8015BA169761C7F1E99
:10760800019888470546002F1ADD681C18D0B9F183
:10761800000F0DD0E81705EBD060421120F01F00D5
:1076280059F822102A1A012090400142E0D107E0BF
:10763800BBF1000FDCD1216A284688470028D7D043
:10764800E16901988847BBF1000F07D1002E05DDDD
:107658005FEACA7002D1002188F80010A068B84219
:1076680003DDBBF1000F03D017B16FF00100B6E7DF
:107678003046B4E72DE9FE4F804681EA0300C00F8B
:107688000C46009021F0004123F00045B8EB0200C1
:10769800A94105D24046214690461C460B46024663
:1076A80023F00040104347D0270DC7F30A00C3F367
:1076B8000A510290401A019040286BDAC3F3130074
:1076C80040F4801B0098924620B10023D2EB030AB5
:1076D80063EB0B0B01985946C0F14002504600F08D
:1076E80093F906460D4650465946019A00F0ABF903
:1076F80010EB08006141002487EA115284EAE7731D
:107708001A4340D0009A62B3019A012A4FEA0752FD
:1077180015DC001B61EB02014FF0004202EA075240
:10772800CDE90042001C41F5801132462B4600F09D
:10773800EEF903B0BDE8F08F40462146F9E7001B9B
:1077480061EB0201001C41F5801300185B41201811
:10775800A2F5001747EB030140EAD570B6196D4151
:1077680011E06D084FEA360645EAC0754FEA075240
:10777800001B61EB0201001C41F5801149084FEA2A
:1077880030000019514132462B4603B0BDE8F04F96
:1077980000F0AEB90098012240000023D0EB0202AD
:1077A80063EBE073009821464FEAE074B8EB000001
:1077B80061EB0401E9E783F000435BE781F00041F6
:1077C80058E72DE9FE4F81EA030404F0004421F054
:1077D800004100944FF0000B23F0004350EA0104ED
:1077E8005ED052EA03045BD0C3F30A54C1F30A55CE
:1077F8002C44A4F2F3340194A0FB0254C1F3130106
:1078080041F48011C3F3130343F4801301FB0244D2
:1078180000FB034E840A970A44EA815447EA8357D7
:10782800A4FB076802958D0A05FB07854FEA932C90
:1078380004FB0C542705029D4FEA065847EA163701
:10784800B5EB08056EEB070C870E920E47EA811719
:1078580042EA8312A7FB0201B6EB0B0164EB0004BA
:107868002B0D43EA0C335E1844EB1C50DA465146A4
:10787800E7FB0201C5F313044FEA0B3343EA145341
:107888004FEA0432019C43EA0603A4F10C04029473
:10789800009CCDE900B400F03AF903B0BDE8F08FE0
:1078A80000200146F9E72DE9F04D81EA030404F0D0
:1078B800004B21F0004514464FF0000A23F0004128
:1078C80050EA050220D054EA01021DD0C5F30A5738
:1078D8000246C5F31303C1F31300C1F30A5640F47B
:1078E800801543F48013A7EB0608101BD64608F250
:1078F800FD3873EB050002D308F1010801E0921886
:107908005B41B8F1000F03DA00200146BDE8F08DB5
:1079180000204FF48011064684460EE0171B73EBD7
:10792800050705D3121B63EB050306434CEA010C5C
:1079380049084FEA300092185B4150EA0107EDD13F
:1079480052EA030012D082EA040083EA05010843E0
:1079580005D0101BAB4106D20122002306E000220D
:107968004FF0004302E06FF0010253101AEB0600DB
:107978004CEB085110EB0A0041EB0B01BDE8F04D50
:1079880000F0B6B80EB540F2334102910021CDE9BE
:1079980000110A460B4600F0BAF803B000BD70B5F6
:1079A800C1F30A5201F000450024C1F3130140F26B
:1079B800FF3341F480119A4201DA002070BD40F291
:1079C80033439A42A2F2334203DC524200F02BF8CE
:1079D80000E090402C43F1D0404270BD30B50B46DA
:1079E800014600202022012409E021FA02F59D42E7
:1079F80005D303FA02F5491B04FA02F52844151EBB
:107A0800A2F10102F1DC30BD202A04DB203A00FAA1
:107A180002F1002070479140C2F1200320FA03F3DD
:107A2800194390407047202A04DB203A21FA02F0DB
:107A38000021704721FA02F3D040C2F120029140A0
:107A4800084319467047202A06DBCB17203A41FA2B
:107A580002F043EAE07306E041FA02F3D040C2F1D3
:107A6800200291400843194670473A2800D230381E
:107A780020F02002412A01D3A2F13700884201D325
:107A88004FF0FF307047000002681144137801601E
:107A980018467047D16004495161044911620021B8
:107AA8001161114600F020B9917A0008E57C0008C0
:107AB800426842B1016811F8013B23B1521EC0E986
:107AC8000012184670470121C160881E704742683D
:107AD8005AB1C368016843B983688B4205D0491E0F
:107AE800521CC0E90012002070474FF0FF30704769
:107AF80010B5141E73F1000408DA401C41F10001AE
:107B080092185B411A4301D120F0010010BD2DE904
:107B1800F04D92469B4611B1B1FA81F202E0B0FAFB
:107B280080F220329046FFF76FFF04460F4640EA86
:107B38000A0041EA0B0153465A46084313D011463E
:107B480053EA010019D0C8F140025046FFF76BFF15
:107B580005460E46504659464246FFF755FF08432C
:107B680005D0012004E020463946BDE8F08D00200C
:107B7800054346EAE0762C4337430A986305E40A4E
:107B8800A0EB08000022FD0A44EA47540A3002D557
:107B980000200146E9E7010510196941DDE90845BA
:107BA80000196941BDE8F04DA2E72DE9F04D002329
:107BB8001A461B1A8A4103DB00200146BDE8F08DF6
:107BC800C1F30A52C1F3130141F480154FF0000BC1
:107BD800D10702D100186D41521E0027044640F219
:107BE800FF11384601EB620A3E46804602460020F5
:107BF8004FF48011FFF717FFC2197141BB1846EB0C
:107C08000100B4EB030C75EB000C04D3E41A65EB2C
:107C1800000517460E46241908F101006D418046FB
:107C28003428E3DDF91946EB0600091BA84103D205
:107C38004FF0FF32134601E0002213461BEB07000A
:107C480046EB0A51BDE8F04DFFF752BFC1F30A52A7
:107C5800C1F3130140F2FF3341F480119A4202DA72
:107C680000200146704740F233439A42A2F2334261
:107C780002DC5242FFF7D7BEFFF7C6BE30B5041E7E
:107C880071F1000404DB4FF00044404264EB010151
:107C9800141E73F1000405DB1C464FF000435242EA
:107CA80063EB0403994208BF904230BD1CB50948F4
:107CB8000090094801900546009C06E0E06840F005
:107CC800010394E8070098471034AC42F6D3FFF755
:107CD800EBFA0000204E0408704E0408C0B24FF4BE
:107CE800F05100F097B900002DE9F34F8BB04FF039
:107CF800000801F10C000C464FF0010B46460DF14F
:107D0800080A01906269012101989047051E2DD04B
:107D1800252D2CD0216A8847C0B1626901210198BC
:107D28009047216A88470028F7D1411E6269019867
:107D3800904700E0761CA1690B988847216A88471C
:107D48000028F7D1E1690B988847DBE7A1690B9810
:107D580088470746A84201D1761CD3E7E1690B980A
:107D680088477F1C02D1B8F1000F6FD046E1002789
:107D780062693D463946019890472A2804D16269CC
:107D88000121019890470125DFF884926269012159
:107D980001989047A0F130010A290AD24F45E5DC45
:107DA80007EB870100EB4107303FDFD445F01005B2
:107DB800ECE7E90601D46FF000476C280AD04C289C
:107DC80014D0682815D06A280DD074281CD07A28B9
:107DD8001AD01DE062690121019890476C2802D0F1
:107DE80045F0040514E045F002050DE045F02005D6
:107DF8000AE06269012101989047682802D045F09D
:107E0800080505E045F4006562690121019890477D
:107E1800C4E9015765283DD019DC58287AD00CDC14
:107E2800452837D004DC252826D0412831D131E037
:107E380046282FD047282CD12CE05B2877D0612802
:107E480028D063287CD0642823D15AE0D0E06F285A
:107E580048D008DC66281DD067281BD0692821D0A7
:107E68006E2816D127E0702845D0732868D0752869
:107E780047D078280DD14DE0A1690B988847054671
:107E880025283FF469AFE1690B9888476D1C3FF4DA
:107E98006AAFB3E023466A466FF001000B99AFF36F
:107EA80000809EE045F040006060A80723464FF040
:107EB800000236D43EE0E8077FF447AF2068011D92
:107EC80021600068290501D506701BE7290701D53F
:107ED800068017E7A90703D5F117C0E9006111E784
:107EE80006600FE745F040006060A80723464FF0A2
:107EF800080216D41EE040F60E0125EA0100606073
:107F080016E045F040006060A80723464FF00A02DB
:107F180007D40FE045F040006060A80708D5234665
:107F280010226FF001000B99AFF3008059E007E0D1
:107F3800234610226FF001000B99FFF785FA50E0F5
:107F48004FF000094F464B46632802D05B2806D005
:107F580040E0E80601D40120A06001273AE0626908
:107F68000121019890475E2805D14FF00109626907
:107F7800494601989047216939B900210A46534674
:107F880043F82120491C0829FADBB0B3216969B9F3
:107F9800C11700EBD16253110AEB830122F01F02D3
:107FA800821A01200B68904003430B60626901212B
:107FB800019890475D28E8D1B9F1000F09D0002059
:107FC800514651F82020D24341F82020401C08286F
:107FD800F7DB02AB224600976FF001000B99FFF721
:107FE800D9FA00280CDA401C08D1BBF1000F05D0E3
:107FF8004FF0FF300DB0BDE8F08FFFE74046F9E7DE
:10800800E90701D108F1010806444FF0000B79E6B1
:10801800CCCCCC0C7F2801D9002208E0064A02EB20
:108028005002C007127800D1120902F00F02012095
:108038009040084070470000A005040870B58C18EF
:1080480010F8015B15F0070301D110F8013B2A1164
:1080580006D110F8012B03E010F8016B01F8016B51
:108068005B1EF9D12B0705D40023521E0DD401F84D
:10807800013BFAE710F8013BCB1A921C03E013F816
:10808800015B01F8015B521EF9D5A142D8D300204B
:1080980070BD000010B588B040F20870C0F604004A
:1080A80090E80E5044690191018B807E02920393FF
:1080B800CDF810C0CDF814E00694ADF81C108DF87A
:1080C8001E0033F013FF01A831F0D2FE08B010BD36
:1080D8002DE9F04186B00FF01DFA0FF025FA40F6B1
:1080E8009000C5F60000016841F4803101600DF090
:1080F80087FD40F6E04240F6000340F200470021C9
:10810800C0F60402C4F60003C4F600074FF00008E6
:10811800002500200491CDE90211CDE9001104E009
:10812800A68835430131262914D002EBC104A6796B
:10813800002EF7D052F831609E4207D0BE42EFD0F1
:10814800B6F1904FEED1A6883043EBE7A68848EA0F
:108158000608E7E700214C2702910121C5F6000730
:10816800019103210204039121D084B2009438685C
:10817800694640F001003860386800F00100059059
:108188000598D7F8000140F00100C7F80001D7F8BA
:10819800000100F00100059005984FF090400FF0A5
:1081A800B1FD4FF09040214600220FF07BFE40F2D7
:1081B80000442804C4F600041FD0ADB20095386806
:1081C800694640F002003860386800F00200059007
:1081D8000598D7F8000140F00200C7F80001D7F869
:1081E800000100F002000590059820460FF08AFD76
:1081F8002046294600220FF055FE5FEA084022D0AB
:108208001FFA88F50095386804F5806440F004008A
:1082180038603868694600F0040005900598D7F87A
:10822800000140F00400C7F80001D7F8000100F091
:1082380004000590059820460FF064FD2046294665
:1082480000220FF02FFE06B0BDE8F0817047000055
:1082580070470000B0B588B04468B4F80B10A1F5B9
:108268001241072900F2AC81DFE811F00800C200D2
:10827800E400AA01F7000201BE00E20004466846D5
:1082880031F022FE9DF800109DF801209DF8023083
:1082980041F28460C0F6040037F072FC9DF80410C7
:1082A80041F25260C0F6040037F06AFC9DF80910EC
:1082B800481E8F2800F2008141F6AB12C0F6040276
:1082C800DFE810F021019000EB000E011301F0002F
:1082D800FF00FA00FA00FA00FA00FA00FA00FA00C1
:1082E800FA00FA00FA00FA00FA00FA00FA00FA00B6
:1082F800FA00FA00FA00FA00FA00FA00FA00FA00A6
:10830800FA00FA00FA00FA00FA00FA00FA00FA0095
:10831800FA00FA00FA00FA00FA00FA00FA00FA0085
:10832800FA00FA00FA00FA00FA00FA00FA00FA0075
:10833800FA00FA00FA00FA00FA00FA00FA00FA0065
:10834800FA00FA00FA00FA00FA00FA00FA00FA0055
:10835800FA00FA00FA00FA00FA00FA00FA00FA0045
:10836800FA0004011D011801FA00FA00FA00FA00E7
:10837800FA00FA00FA00FA00FA00FA00FA00FA0025
:10838800FA00FA00FA00FA00FA00FA00FA00FA0015
:10839800FA00FA00FA00FA00FA00FA00FA00FA0005
:1083A800FA00E100F500FA00FA00FA00FA00FA0013
:1083B800FA00E600DC00FA00FA00FA00FA00FA0017
:1083C800FA00FA00FA00FA00FA00FA00FA00FA00D5
:1083D800FA00FA00FA00FA00FA00FA00FA00FA00C5
:1083E800FA0009019CA28EE0D4F80D1082A03AE0B0
:1083F80041F23871C0F604010446084637F0C0FB64
:10840800646841F2CA70617BC0F6040037F0B8FBBB
:10841800607B002807BF41F6B800C0F6040041F6AB
:108428008100C0F6040008B0BDE8B04038F0A2B83A
:1084380068A01EE041F61900C0F6040038F09AF86A
:10844800D4F80D10D4F8112041F2A860C0F6040049
:1084580008B0BDE8B04037F093BBD4F80D1041F236
:10846800CE60C0F6040008B0BDE8B04037F088BB65
:1084780070A008B0BDE8B04037F082BB41F60912E1
:10848800C0F604023FE041F66912C0F604023AE081
:1084980041F6F202C0F6040235E041F6BF12C0F61A
:1084A800040230E041F6D912C0F604022BE041F68E
:1084B8007F12C0F6040226E042F29C42C0F6040293
:1084C80021E041F6C912C0F604021CE041F69512FB
:1084D800C0F6040217E041F65A12C0F6040212E090
:1084E80041F6B412C0F604020DE041F65012C0F68F
:1084F800040208E041F63712C0F6040203E041F630
:108508002012C0F6040241F23160C0F6040037F0D0
:1085180037FB9DF80A109DF80B209DF80C3041F2AE
:108528006E60C0F6040037F02BFB41F2FA70C0F61B
:10853800040037F025FB002560680795407B069509
:1085480001280595049534D0E0BB41F66700C0F6D4
:10855800040038F00FF8FFF79DFD0F208DF810008C
:108568007F2042F200058DF81200CEF2040528683B
:10857800040C41F2A970C0F60400214637F000FB54
:10858800ADF81C402C6841F28A706FF31F34C0F6B6
:108598000400214637F0F4FA04A8ADF81E4031F083
:1085A80059FC00F031F90120002135F011F808B02C
:1085B800B0BD41F25970C0F6040037F0E1FA2570F9
:1085C80008B0B0BD41F20670C0F6040037F0D8FA22
:1085D80008B0B0BD3E3E3D3D20534843495F53552A
:1085E800425F4556545F4E564D5F454E445F455277
:1085F8004153450A0D0000003D3D3E3E5348434966
:108608005F5355425F4556545F4E564D5F53544134
:1086180052545F4552415345203A204E756D62656C
:10862800724F66536563746F7273203D2025750A17
:10863800000000003E3E3D3D20534843495F5355EE
:10864800425F4556545F4E564D5F454E445F575204
:108658004954450A0D000000424C455F4843490013
:1086680080B54AF27C70C2F2000010F0ABF9BDE8A8
:1086780080402DF02FBE000040F2F020C2F2000032
:1086880090F88000704700002DE9F04116460D462D
:1086980004460FF00DFC40F25401C2F200010A88B2
:1086A80040F65013A242C2F200030DD11A68821A92
:1086B800632A09D841F63B60C0F6040021463246D9
:1086C800BDE8F04137F05CBA40F2F028C2F2000889
:1086D800B8F816200C80002A186018BF944203D0FE
:1086E8002DA0214637F04CFA0020A8F8160088F88B
:1086F800800041F67960C0F60400314637F040FA50
:1087080042F2F120C0F6040021462A4637F038FA32
:108718000FF0CEFB014641F6B770C0F6040037F003
:108728002FFA13F011FC05460EF0AAFD06462EF0AE
:108738005BF898F88030074642F21800C0F604004B
:108748002946324637F01CFA0FB120A017E0012065
:1087580000F0BEFB98F88000012808D042F24A7069
:10876800C0F6040037F006FF012000F0B1FB98F8CE
:108778008000012805D042F62700C0F6040037F033
:10878800F9FE40F24860C2F2000001210170448005
:10879800BDE8F0412FF0FEB93E3E3D3D20446973EF
:1087A800636F6E6E6563742068616E646C65206DBE
:1087B80069736D617463683A206576743D30782515
:1087C80078206374783D307825780A003D3D3E3E38
:1087D80020536B6970206C656761637920616476EA
:1087E8006572746973696E672072657374617274F7
:1087F8003A204D657368206F776E732061647665E3
:1088080072746973696E67002DE9F04399B046F296
:108818002830C2F200000921017040F2E051002422
:10882800C2F200010A5D1AB10134082CFAD10824F9
:1088380040F2E0510130C2F200012246FEF7AFFDDE
:1088480040F2A001601CC2F2000108700EF004FDA5
:10885800FF2821D004460FF22050214637F090F926
:10886800A52C13D10DF0BAF802F09CFF42F2F57274
:108878000FF25451C0F60402012888BF1146084679
:1088880037F078FE00200DF0BBF805E00FF210502D
:1088980037F070FE0DF0A2F80EF0F2FC044613F06B
:1088A80049FB40F29409C5F60009D9F800608046F2
:1088B80030462DF035FD0DF05BFDC6F30070C6F3B4
:1088C8004071C6F380758DE8230041F6CD70C6F37C
:1088D8008062C6F3C063F70FC0F604003146039701
:1088E80037F04EF9D9F8000042F28B4140F400000D
:1088F800C9F8000042F24C40C0F60400C0F604017A
:10890800012C08BF014641F6D860C0F60400224693
:10891800434637F035F92DF093FC04462DF08AFDD7
:1089280005462DF061FF034641F6AC60C0F6040031
:1089380021462A4637F024F940F22470C0F6040094
:1089480090E88E00D0E904650DF1140ED0E906C454
:108958008EE88E00CDE9096500F12007D0E90C65A5
:10896800008F8ECFADF84C0040F22800C2F2030011
:1089780014904DF66120C0F600000DF1340E1590EC
:108988004DF685208EE88E00C0F6000014A9CDE9CA
:108998000BC41196129536F08BFA0220012134F09F
:1089A80017FE4FF22932C0F603020220002134F0EC
:1089B80045FE05A831F040FA48B1014642F22B3095
:1089C800C0F6040037F0DCF80DF0FCFB05E042F2DD
:1089D8001820C0F6040037F0D3F80020CDE91400C1
:1089E800ADF84E000EF02AFC14900EF027FC42F26F
:1089F800CB70C0F60400159137F0BCFD36F0F6FBDD
:108A080038B1014641F67840C0F6040037F0B8F8AE
:108A180005E042F22C60C0F6040037F0ABFDBDF86B
:108A2800540040F2A10400BA1499C2F20004000CE8
:108A3800208108BAC4F80A0014AA2E20062135F0AD
:108A480067FF38B1014641F6D930C0F6040037F067
:108A580097F819E042F22E50C0F6040037F08AFD6C
:108A6800DDE91470C0F30721C2B2C7F30740C7F3AA
:108A78000726CDE9000642F295003B0EFFB2C0F68C
:108A88000400029737F07CF840F62062C0F6040232
:108A98001820102135F03CFF38B1014641F68430EA
:108AA800C0F6040037F06CF805E042F2E940C0F681
:108AB800040037F05FFD40F61062C0F6040208209B
:108AC800102135F025FF38B1014641F62F30C0F6A8
:108AD800040037F055F805E042F2A440C0F604005F
:108AE80037F048FD01201F2135F0EAFE38B1014674
:108AF80041F63A40C0F6040037F042F805E042F289
:108B0800FE50C0F6040037F035FD35F0D9FD38B118
:108B1800014641F6D540C0F6040037F031F805E0CB
:108B280042F26960C0F6040037F024FD0DF15E07DB
:108B380018AE0DF16203052000210722CDE9006778
:108B480035F058FA38B1014641F6A540C0F60400A0
:108B580037F016F805E042F24960C0F6040037F035
:108B680009FDBDF86200BDF8601042F24447C0F646
:108B7800040700220723009735F0CAFDBDF86200FC
:108B8800BDF85E100DF14E0700220223009735F064
:108B9800BFFD00200221022236F054FA38B1014606
:108BA80041F68F50C0F6040036F0EAFF05E042F2C5
:108BB800F360C0F6040037F0DDFC40F2F025C2F2A5
:108BC80000050120287035F0E9FA38B1014641F670
:108BD800C950C0F6040036F0D3FF05E042F21D701C
:108BE800C0F6040037F0C6FC40F20110C0F60000E1
:108BF8004BF20721C5F801001020C0F20101002244
:108C080008236871A9600127CDE90030CDE9022168
:108C18000120012101220023049735F033FA38B1ED
:108C2800014641F60650C0F6040036F0A9FF05E0FB
:108C380042F28A60C0F6040037F09CFCA87880B144
:108C480035F0B8F938B1014641F65050C0F6040085
:108C580036F096FF05E042F2C460C0F6040037F033
:108C680089FC42F25C20C0F6040036F089FF42F22B
:108C78007F50C0F6040037F07DFC31F0C5FE0020BF
:108C880085F880004FF6FF7048F60962E882C0F662
:108C980000020120002134F0D1FC2020A071062020
:108CA80035F0E8FD38B1014642F29F10C0F60400E5
:108CB80036F066FF05E042F2E310C0F6040036F035
:108CC8005FFF0CF0B3FE0020002603F079FD2EF0C4
:108CD80029FF4EF6D912C0F603024FF48040002156
:108CE80034F0ACFC4EF6DD14C0F603044FF400403B
:108CF8000021224634F0A2FC05F183010020002265
:108D0800234612F0ABFC48F6D16305F18101C0F6A9
:108D180000030020002212F0A1FC4BF6314305F1BC
:108D28008201C0F603030020002212F097FC40F2F3
:108D38009210C2F200000121017040F29010C2F2BC
:108D480000002E8301702DF04FFD20B142F2C25079
:108D5800C0F604000AE0012000F0BAF895F8800097
:108D6800012805D042F27D70C0F6040037F002FCFD
:108D780019B0BDE8F08300BF3D3D3E3E204E46435E
:108D880020626F6F74206F70636F64652064657410
:108D980065637465643A203078253032780A0000BB
:108DA8003D3D3E3E204E464320626F6F74206F70FB
:108DB800636F646520756E6B6E6F776E2C20636CC5
:108DC800656172696E6700003D3D3E3E204E464338
:108DD80020626F6F74207265736375653A206D65E4
:108DE80073682070726F766973696F6E696E672039
:108DF80073746F72616765206572617365640000E2
:108E080010B540F2F024C2F2000494F8800005285E
:108E18000CD035F0E7F9002184F8801011A10AA2DE
:108E2800002808BF1146084636F0AAFE2DF0DCFCE3
:108E380020B115A0BDE8104037F09CBB0220BDE86A
:108E4800104000F045B800BF2A2A2053544F502044
:108E58004144564552544953494E47202A2A202016
:108E68000D0A0D002A2A2053544F502041445645DC
:108E780052544953494E47202A2A20204661696C9A
:108E88006564200D0A0D00003D3D3E3E20536B6990
:108E980070206C6F772D706F7765722061647665CE
:108EA80072746973696E6720726573746172743A5B
:108EB800204D657368206F776E73206164766572E4
:108EC800746973696E6700000120042134F0CABC1C
:108ED8002DE9F04188B040F29211C2F20001044637
:108EE80040F290100D78C2F200000678002D40F292
:108EF800F02818BF8025002EC2F2000818BFA0264F
:108F0800012C18BF4FF4C86598F8810018BF4FF4BA
:108F18007A6612F0D9FD022C15D198F88000013834
:108F2800012810D835F05EF938B1014641F6E42041
:108F3800C0F6040036F024FE05E042F2DE30C0F64A
:108F4800040037F017FB40F2A000C2F200000078DE
:108F580098F8181046F22833002708F11902C2F2CF
:108F68000003CDE90070CDE90231CDE904270020E6
:108F7800294632460123069735F0C0F8C0B10546A8
:108F8800122801D00C2D2DD12DF02EFC58B141F610
:108F98006570C0F60400294636F0F2FD88F8804076
:108FA80008B0BDE8F08141F61270C0F604001DE07B
:108FB8001FA088F8804037F0DDFA40F2A101C2F224
:108FC80000010E2035F0B0F9C8B10146012C12BFDE
:108FD80021A042F21D10C0F6040008B0BDE8F0411F
:108FE80036F0CEBD41F60660C0F60400294636F0DC
:108FF800C7FD002088F8800008B0BDE8F081012C8A
:109008000DD123A036F0BCFD98F881004EF2460140
:10901800C0F2010108B0BDE8F04112F075BC42F29F
:109028007210C0F6040008B0BDE8F04136F0A8BDE3
:109038003D3D3E3E206163695F6761705F736574A3
:109048005F646973636F76657261626C65202D2059
:1090580053756363657373003D3D3E3E20537461F1
:109068007274204C6F7720506F7765722041647658
:109078006572746973696E67204661696C656420FE
:109088002C20726573756C743A202564200A0D00D3
:109098003D3D3E3E20537563636573733A205374B8
:1090A80061727420466173742041647665727469D4
:1090B80073696E67200A0D0010B503F069FE044657
:1090C800062817D940F2FC1041F20001C2F2000054
:1090D800C1F2020141F2060241F20033C1F2070275
:1090E800C1F2013380E80E004FF6FF718181072C31
:1090F8000DD228E003F04CFE024644F66A00C0F6A2
:1091080004000721022336F03BFD072C1BD303F094
:109118003FFE044606280CD940F254203021C2F202
:109128000000C0F201014FF6FF72C0E900120020F2
:1091380006E044F62710C0F6040036F021FD0120B1
:10914800062C88BF10BD44F6E200C0F6040036F0D5
:1091580017FD022010BD000010B546F25834C2F2C7
:109168000004207820B103F08FFE0020207010BD8D
:10917800002004F041FF0EF09BFE0446002004F09E
:109188003BFF0028FAD00EF093FE001BB0F57A7F63
:1091980008D94AF6C4404F21C2F20000C0F2AD011E
:1091A800016010BD152838BF10BDBDE8104003F0A0
:1091B8006BBE000041F66C5040F61221C2F200006E
:1091C800C2F2000140F2AC4200780978C2F2000213
:1091D80012780843104300F00100704702207047DE
:1091E800002200200A8070477047000080B50020E8
:1091F80004F0F2FE002080BD40F2C640C2F200003A
:109208000078704741F66550C2F2000001210170F4
:1092180041F66D50C2F200000022027041F672520F
:10922800C2F200020120117004F0C6BE80B541F6FA
:109238006550C2F200000021017041F67250C2F27E
:1092480000000170012004F0A7FE12F07DFE10B1AD
:1092580003F0FEFD10B303F0FBFDF0B940F2AC40A3
:10926800C2F200000078002808BF80BD40F6122036
:109278004AF6A141C2F200000122C2F200010978B7
:10928800027042F6D050C0F6040036F079FC402057
:109298000021BDE8804034F0E5BA80BD41F66C504D
:1092A800C2F2000001780029F1D140F2AC41C2F2CB
:1092B800000101220978027000A0E6E750726F767B
:1092C8006973696F6E696E672073657373696F6E12
:1092D80020636F6D706C65746564202864697363BE
:1092E8006F6E6E6563742C20636F6E6669675F735B
:1092F80065656E3D2575290D0A0000000020704740
:1093080070470000B0B540F25A04C2F20004257854
:1093180003F0B0FC854209D942F6DE60C0F60400CD
:1093280037F028F9BDE8B04003F0A4BC2078002845
:1093380018BFB0BD02A037F01DF90120B0BD00BFB5
:109348004E756D626572204F6620456C656D656E61
:109358007473206D7573742062652031206F7220DC
:1093680067726561746572207468616E2031210DC1
:109378000000000001463020C0F2020008604FF4EF
:10938800857200208A80704780B501201F2135F042
:1093980097FA002818BF0120400080BD01464EF60C
:1093A8007D40888041F6F850CAF64F60086045F263
:1093B8004B30C5F2A140C1F8060046F24030C2F277
:1093C8000000828803680020CA81C1F80A3070470B
:1093D80000207047014601A036F0D2BB556E70726E
:1093E8006F766973696F6E6564204E6F6465204996
:1093F80064656E746966696572207265636569760D
:1094080065643A20253032780A0D0000B0B546F27E
:109418004035C2F20005E91D00202A4635F0EAF978
:1094280018B1014618A036F0ABFB0DF007FF020A91
:1094380028704FEA112C6A70020C000E2971691EFF
:10944800AA70E870EF2006220B4685F805C000BF19
:1094580013F8014F013A04EB4000F9D10322EA71F5
:10946800EF230622A87100BF11F8014F013A04EB5F
:109478004303F9D1C0B2D9B2081AB0FA80F0400952
:109488004CF0C0016971B0BD4661696C65642074B7
:109498006F2072656164205075626C696320416455
:1094A80064726573732025640000000080B54DF276
:1094B8008D32C0F601020420002134F0BFF80420E8
:1094C800002134F0CFF94BF66112C0F600024020BB
:1094D800002134F0B3F840200021BDE8804034F08A
:1094E800C1B9000080B544F2F650C0F6040037F068
:1094F80041F844F25340C0F6040037F03BF844F218
:10950800DF40C0F6040037F035F844F2F140C0F609
:10951800040037F02FF844F2CC40C0F6040037F0CE
:1095280029F844F29840C0F6040037F023F844F2D2
:10953800B940C0F6040037F01DF844F2A540C0F663
:10954800040037F017F844F26A40C0F6040037F018
:1095580011F803F077FB014644F26330C0F60400CB
:1095680036F00EFB03F060FB014644F25230C0F6C1
:10957800040036F005FB03F07DFB014644F2E820C9
:10958800C0F6040036F0FCFA03F002FC014644F28F
:109598007430C0F6040036F0F3FA03F0E1FB01463C
:1095A80044F20230C0F6040036F0EAFA03F0DAFBBF
:1095B800014644F2D420C0F6040036F0E1FA03F084
:1095C80043FB014644F28F30C0F6040036F0D8FA67
:1095D80003F0B0FB014644F2B630C0F6040036F0A2
:1095E800CFFA44F28440C0F6040036F0C3FF44F2D8
:1095F8002130C0F604000021012236F0C1FA44F2FD
:109608009350C0F6040036F0B5FF44F20350C0F69C
:10961800040036F0AFFF44F23950C0F6040036F0CB
:10962800A9FF44F21B50C0F6040036F0A3FF44F231
:109638005050C0F6040036F09DFF44F2A350C0F627
:10964800040036F097FF44F27450C0F6040036F078
:1096580091FF07A036F08EFF0CA0012136F090FA9A
:1096680017A036F087FF1EA0BDE8804036F082BF05
:109678000A5B496D706F7274616E7420496E666F13
:10968800726D6174696F6E5D200D00004E756D62BC
:109698006572206F6620456C656D656E7473206514
:1096A8006E61626C656420696E204170706C6963DC
:1096B8006174696F6E3A202564200D0A000000006D
:1096C8004E65696768626F7572205461626C6520C7
:1096D800697320656E61626C6564200D000000008E
:1096E8002A2A2A2A2A2A2A2A2A2A2A2A2A2A2A2AD2
:1096F8002A2A2A2A0D0A0D0010B54AF6DC40C2F2C1
:109708000000006804212FF091F804462FF0F2FCC5
:10971800010608BF2046002C18BF2046010608D0C5
:10972800C1B242F68B50C0F60400BDE8104036F0D6
:1097380027BA42F62C70C0F60400BDE8104036F097
:1097480019BF000000207047B0B543F2D475C0F6C9
:109758000405284600211C4633F0B8F843F272701D
:10976800C0F60400214636F00BFA2846002133F0F3
:10977800ADF802A036F0FEFE0020B0BD233832312D
:1097880030210D00B0B5B0F9000040F2941203EB9F
:109798004301C2F20002322822F8210040F2AC1044
:1097A8001C46C2F200000CDB47F6F6410180016856
:1097B80042688368042013F06FFA002004F0FCFB71
:1097C80008E0016842688368022013F065FA002007
:1097D80004F0E2FB43F28355C0F604052846002155
:1097E80033F074F806A0214636F0CAF9284600215D
:1097F80033F06CF811A036F0BDFE0020B0BD00BFFC
:1098080047656E657269635F4C6576656C44656C27
:1098180074615F5365742063616C6C6261636B2073
:10982800726563656976656420666F7220656C652C
:109838006D656E74202564200D0A000023383230CF
:1098480039210D00014640F29310C2F20000825CFB
:1098580000200A7070470000014602EB420040F207
:109868009412C2F2000212F8203002EB80000B7052
:1098780042784A7082788A70C2780020CA7070472D
:10988800014602EB820040F2A012C2F20002125C12
:1098980000200A707047000002EB820140F2A0121B
:1098A800C2F200020A445378014603709078487067
:1098B800D078887012790020CA707047014640F24B
:1098C800A610C2F2000010F8122000200A7070479B
:1098D800B0B5B0F900101C4603EB430240F29413F4
:1098E80040F2A81CC2F2000321EAE170C2F2000CA7
:1098F80023F8220040F64A12BCF80030C2F20002F7
:10990800108098424FF0000347F6F54298BF0123B4
:1099180091424FF00002C8BF012200251A430029D6
:10992800C8BF012505EA020140F64812C2F200024A
:10993800117047F6FF710022ACF8000030F0ECF827
:1099480040F2AC13C2F20003188019685A689B6889
:10995800042013F0A1F943F2E755C0F604052846A0
:10996800002132F0B3FF43F24250C0F60400214612
:1099780036F006F92846002132F0A8FF04A0214657
:1099880036F0FEF8022021462EF0A4F80020B0BDE3
:10999800233832303621666F7220656C656D656ECE
:1099A80074496E646578202564200D0A0000000063
:1099B80000207047B0B540F2941C1C46016842680C
:1099C800806803EB4303C2F2000C0CEB8305A8602C
:1099D8006A6043F29B55C0F604054CF823102846EC
:1099E800002132F073FF06A0214636F0C9F8284658
:1099F800002132F06BFF11A036F0BCFD0020B0BD95
:109A080047656E657269635F4C6576656C4D6F7608
:109A1800655F5365742063616C6C6261636B20726F
:109A28006563656976656420666F7220656C656D2F
:109A3800656E74202564200D0A000000233832303A
:109A48004221200D0000000070B51C46002B47D1B4
:109A5800027840F2A016B0F8013001F0FE05C2F21B
:109A68000006022D3270A6F8013015D140F2AC156F
:109A7800C2F200052B8029686A68AB680546042095
:109A880013F00AF9B5F80310B6F80100A6F80310A8
:109A9800884225D108BB0FE0012908BF012A0FD051
:109AA80040F2AC10C2F20000012101800168426856
:109AB8008368022013F0F0F8002004F06DFA0FE03C
:109AC80040F2AC10C2F2000047F6F641018001688E
:109AD80042688368042013F0DFF8002004F06CFA71
:109AE80043F2B255C0F604052846002132F0EEFED6
:109AF80043F2BB40C0F60400214636F041F8284640
:109B0800002132F0E3FE05A0214636F039F80120A5
:109B180021462DF0DFFF002070BD00BF2338323012
:109B28003221666F7220656C656D656E74496E646E
:109B38006578202564200D0A000000002DE9F04F0B
:109B480081B043F2FF77C0F604070C4680463846DA
:109B580000211E4632F0BAFE1CA0314636F010F83D
:109B68003846002132F0B2FE27A036F003FD44B398
:109B780043F2FF7608F1020B08F1010A0025C0F64E
:109B880004060EE0D94629A73046002132F09EFE91
:109B980099F80010384635F0F3FF0135E8B28442F1
:109BA8000FD9E8B250B10228ECD00128F5D143F220
:109BB800BB77D146C0F60407E6E700BFC14614A745
:109BC800E2E7002001B0BDE8F08F00BF47656E6591
:109BD8007269635F4F6E4F66665F53746174757325
:109BE8002063616C6C6261636B2072656365697682
:109BF800656420666F7220656C656D656E742025DE
:109C080064200D0A000000002338323034210D0092
:109C180050726573656E74204F6E4F66662076616C
:109C28006C75653A2025640A0D00000052656D6167
:109C3800696E696E672054696D652076616C75651B
:109C48003A2025640A0D000070B5007840F2A61687
:109C580043F2CA55C2F20006C0F6040526F81300FE
:109C6800284600211C4632F031FE0EA0214635F070
:109C780087FF2846002132F029FE43F2FC40C0F657
:109C88000400214635F07CFF36F81400012805D180
:109C980045F28020C2F2000001210170FFF7A4FA0A
:109CA800002070BD23383231332120666F72206561
:109CB8006C656D656E74496E646578202564200D49
:109CC8000A0000002DE9F04143F61A07C0F6040720
:109CD8000C460546384600211E4632F0F7FD12A014
:109CE800314635F04DFF3846002132F0EFFD1EA019
:109CF80036F040FCACB143F61A080026C0F604085A
:109D08001BA703E00136F0B284420AD93006F9D124
:109D18004046002132F0DAFD2978384635F030FF28
:109D2800F0E70020BDE8F08147656E657269635F02
:109D3800506F7765724F6E4F66665F5374617475C6
:109D4800732063616C6C6261636B20726563656923
:109D580076656420666F7220656C656D656E74202B
:109D68002564200D0A0000002338323132210D000D
:109D78004F6E20506F7765722075702076616C7514
:109D8800653A2025640A0D0070B5018842880446AA
:109D980018A035F0F5FE617B43F6B440C0F6040028
:109DA80035F0EEFE607B002808BF01F021FD607BE6
:109DB800002818BF70BD1FA035F0E2FE207B88B1D7
:109DC80044F2C2150026C0F6040500BFA068017859
:109DD800284635F0D5FEA068217B013601308E4239
:109DE800A060F3D344F2B950C0F60400BDE8704057
:109DF80036F0C0BB4170704B6579204164642072B5
:109E08006563656976656420666F72206E65744B5C
:109E18006579496E64657820252E32782C2061702A
:109E2800704B6579496E64657820252E3278200D4F
:109E38000A0000004170704B65792069733A200070
:109E480010B582B00446007A002808BF01F0D0FCA3
:109E5800217862686388247A44F22700C0F60400F7
:109E6800009435F08DFE02B010BD000010B5044618
:109E78000188428844F23910C0F6040035F080FEAB
:109E8800617B43F6B440C0F6040035F079FE607B90
:109E9800002818BF10BDBDE8104001F0A9BC0000A3
:109EA80070B50188044617A035F06AFEA17A43F61A
:109EB800B440C0F6040035F063FEA07A002818BF4D
:109EC80070BD1AA036F056FB208990B144F2C21535
:109ED8000026C0F6040500BF60680188284635F0F2
:109EE8004FFE606801362189F2B20230914260600B
:109EF800F2D844F2B950C0F60400BDE8704036F01C
:109F080039BB00BF417070204B6579204C69737470
:109F180020666F72206E65744B6579496E6465784A
:109F280020252E3278206973200D0A004170704B6D
:109F3800657920496E6465786573206172653A2099
:109F48000D00000010B582B00446007A002808BF52
:109F580001F04EFC217862686388247A44F28E000E
:109F6800C0F60400009435F00BFE02B010BD0000EE
:109F780070B504460188428844F2F700C0F6040030
:109F880035F0FEFD617B43F6B440C0F6040035F0C1
:109F9800F7FD607B002808BF01F02AFC607B0028E1
:109FA80018BF70BD10A035F0EBFD207B80B144F2E6
:109FB800C2150026C0F60405A0680178284635F0C9
:109FC800DFFDA068217B013601308E42A060F3D30B
:109FD80044F2B950C0F6040036F0CCFA07A0BDE848
:109FE800704036F0C7BA00BF55706461746564206C
:109FF8004170704B65792069733A20004974207765
:10A00800696C6C206265207265706C6163656420A0
:10A018006279206F6C64206170704B65792061668D
:10A02800746572204B657920526566726573682085
:10A038000D00000070B50188044618A035F0A0FD99
:10A04800617B43F6B440C0F6040035F099FD607BAF
:10A05800002808BF01F0CCFB607B002818BF70BD4A
:10A068001AA035F08DFD207B80B144F2C215002680
:10A07800C0F6040560680178284635F081FD6068FF
:10A08800217B013601308E426060F3D344F2B9502F
:10A09800C0F60400BDE8704036F06CBA4E65742016
:10A0A8004B657920416464207265636569766564EF
:10A0B80020666F72206E65744B6579496E646578A9
:10A0C80020252E3278200D0A000000004E65744BC2
:10A0D80065792069733A200010B50188044609A003
:10A0E80035F04EFD617B43F6B440C0F6040035F010
:10A0F80047FD607B002818BF10BDBDE8104001F087
:10A1080077BB00BF4E6574204B65792044656C654C
:10A11800746520726563656976656420666F722070
:10A128006E65744B6579496E646578202564200DE9
:10A138000A00000070B50446817943F6B440C0F6C1
:10A14800040035F01DFD10A036F014FAA08890B177
:10A1580044F2C2150026C0F6040500BF2068018835
:10A16800284635F00DFD20680136A188F2B202308C
:10A1780091422060F2D844F2B950C0F60400BDE81C
:10A18800704036F0F7B900BF4E65744B65792049C9
:10A198006E6465786573206172653A200D00000071
:10A1A80070B5018804461AA035F0EAFC617B43F6D5
:10A1B800B440C0F6040035F0E3FC607B002808BF1B
:10A1C80001F016FB607B002818BF70BD1CA035F09D
:10A1D800D7FC207B80B144F2C2150026C0F60405E6
:10A1E80060680178284635F0CBFC6068217B013631
:10A1F80001308E426060F3D344F2B950C0F60400D7
:10A2080036F0B8F913A0BDE8704036F0B3B900BF16
:10A218004E6574204B6579205570646174652072B1
:10A228006563656976656420666F72206E65744B38
:10A238006579496E646578202564200D0A00000060
:10A2480055706461746564204E65744B6579206946
:10A25800733A000049742077696C6C20626520723B
:10A2680065706C61636564206279206F6C64206E30
:10A2780065744B6579206166746572204B65792039
:10A2880052656672657368200D000000B0B586B02F
:10A298000446417C43F6B440C0F6040035F070FC37
:10A2A8006089217B2278636894F80EC094F80FE0E7
:10A2B800257C647B8DE8015043F6C840C0F6040055
:10A2C8000395049435F05CFC06B0B0BD10B50446A7
:10A2D800407C002808BF01F08BFA6168227843F6B9
:10A2E800E370C0F6040035F04BFC6068B0F5885F99
:10A2F80018BF10BD2046BDE8104030F031BD000049
:10A3080010B50446817A43F6B440C0F6040035F02F
:10A3180037FCA07A002808BF01F06AFA94F80BC04D
:10A3280043F6C95021786268238943F62364C0F64E
:10A338000400C0F60404BCF1000F08BF2046BDE8C5
:10A34800104035F01DBC000010B50446817A43F674
:10A35800B440C0F6040035F013FCA07A002808BF0A
:10A3680001F046FAE07A50B121786268238943F611
:10A378007560C0F60400BDE8104035F001BC207BD4
:10A388002178626838B144F27B10C0F60400BDE859
:10A39800104035F0F5BB238943F6D660C0F60400BB
:10A3A800BDE8104035F0ECBB10B50446817A43F6A1
:10A3B800B440C0F6040035F0E3FBA07A002808BFDB
:10A3C80001F016FA94F80BC043F62B7021786268F6
:10A3D800238943F68B74C0F60400C0F60404BCF16C
:10A3E800000F08BF2046BDE8104035F0C9BB00008B
:10A3F80045F60871C2F200010A6802700A68120A7A
:10A4080042704A888270CA78C2700020086070471B
:10A4180010B54DF6A102C0F603020820002133F062
:10A428000DF947F2BC14C2F200044DF6A903C0F6B8
:10A43800030300202146002211F010F920784CF285
:10A448005821C0F2120111F05FFA31F05DF949F2BA
:10A458006112C0F6000280200021BDE8104033F0F0
:10A46800EDB80000B0B540F2AA14C2F20004012011
:10A4780020700020002503F09FFD4FF4FA700DF0C6
:10A488001BFA0020257003F087FD4FF4FA700DF0D9
:10A4980013FA0020B0BD000040F2AA10C2F200007A
:10A4A800007810B1002003F087BD002003F074BDD0
:10A4B800002070472DE9F04F81B043F67447C0F68D
:10A4C80004070C460546384600211E4632F0FEF9C0
:10A4D80024A0314635F054FB3846002132F0F6F915
:10A4E8002FA036F047F8002C38D043F6744B43F6CB
:10A4F800C4280027C0F6040BC0F604080FF2C009F0
:10A508000FF2A40A002605E00A4635F039FB0136A9
:10A51800B44223D0052EFAD8DFE806F00C030C1756
:10A528000C0E5846002132F0D1F9687847EA00212C
:10A538004046E9E7AF5DEAE75846002132F0C6F940
:10A54800687947EA00215046DEE75846002132F094
:10A55800BDF9E87847EA00214846D5E7002001B070
:10A56800BDE8F08F4C696768745F43746C5F44653D
:10A578006661756C745374617475732063616C6C77
:10A588006261636B20726563656976656420666FD6
:10A598007220656C656D656E74202564200D0A0057
:10A5A8002338323638210D0044656C7461205556C5
:10A5B8003A203078257820282564290A0D000000E3
:10A5C80054656D70657261747572653A20307825CE
:10A5D8007820282564290A0D000000000020704713
:10A5E8002DE9F04F81B043F6FE27C0F604070C466C
:10A5F8000546384600211E4632F068F943F63A000F
:10A60800C0F60400314635F0BBFA3846002132F076
:10A618005DF923A035F0AEFF002C3DD043F6FE2BAC
:10A6280043F6681A43F65D2843F6E6190027C0F694
:10A63800040BC0F6040AC0F60408C0F60409002694
:10A6480004E000BFAF5D0136B44225D086B126F0E4
:10A6580002000128F6D0042E11D0022EF3D158465C
:10A66800002132F033F9A87847EA002148460FE084
:10A678005846002132F02AF92978504608E0584611
:10A68800002132F023F9287947EA0021404600BF2B
:10A698000A4635F075FAD6E7002001B0BDE8F08F1C
:10A6A8002338323633210D00002070472DE9F04F52
:10A6B80081B043F66537C0F604070C4605463846B0
:10A6C80000211E4632F002F934A0314635F058FA1E
:10A6D8003846002132F0FAF840A035F04BFF002C44
:10A6E80057D043F6653643F69D1A43F681174FF067
:10A6F8000008C0F60406C0F6040A0FF2E80BC0F61C
:10A7080004074FF0000906E00A4635F039FA09F166
:10A7180001094C453DD0B9F1080FF8D8DFE809F038
:10A728000E2D0E110E1D0E0526003046002132F0AA
:10A73800CDF8E87948EA00215846E5E715F8098098
:10A74800E5E73046002132F0C1F8E87848EA002110
:10A7580043F64610C0F60400D6E73046002132F032
:10A76800B5F8687948EA00215046CDE7304600211F
:10A7780032F0ACF8297A3846C6E73046002132F084
:10A78800A5F8687848EA002143F6C110C0F604002D
:10A79800BAE7002001B0BDE8F08F00BF4C696768D8
:10A7A800745F43746C54656D70657261747572651D
:10A7B8005F5374617475732063616C6C6261636B61
:10A7C80020726563656976656420666F7220656CC2
:10A7D800656D656E74202564200D0A0023383236B5
:10A7E80036210D005461726765742043544C20442F
:10A7F800656C74612055563A2030782578202825D4
:10A8080064290D0A00000000002070472DE9F04F70
:10A8180081B043F6B837C0F604070C4605463846FB
:10A8280000211E4632F052F833A0314635F0A8F91F
:10A838003846002132F04AF83DA035F09BFE002C46
:10A8480055D043F6B83643F69D1B4FF00008C0F6C6
:10A8580004060FF2001AC0F6040B37A74FF00009E0
:10A8680007E000BF0A4635F08BF909F101094C45AC
:10A878003DD0B9F1080FF8D8DFE809F00E2D0E1118
:10A888000E1D0E0526003046002132F01FF8E8792B
:10A8980048EA00215846E5E715F80980E5E730461B
:10A8A800002132F013F8E87848EA002143F6C11095
:10A8B800C0F60400D6E73046002132F007F8687980
:10A8C80048EA00215046CDE73046002131F0FEFF2E
:10A8D800297A3846C6E73046002131F0F7FF687814
:10A8E80048EA002143F6FD10C0F60400BAE700204C
:10A8F80001B0BDE8F08F00BF4C696768745F4374AE
:10A908006C5F5374617475732063616C6C6261630E
:10A918006B20726563656976656420666F72206571
:10A928006C656D656E74202564200D0A00000000BA
:10A938002338323630210D0052656D61696E696EBB
:10A94800672054696D653A30782578202825642970
:10A958000D0A00005461726765742043544C204C02
:10A96800696768746E6573733A2030782578202893
:10A978002564290D0A000000002070470020704758
:10A988000020704700207047002070470020704763
:10A998000020704700207047002070470020704753
:10A9A800002070470020704740F21001C2F20001F9
:10A9B8000B2312FB0312137901460370527900200E
:10A9C8004A70704740F21001C2F200010B2312FBDB
:10A9D8000312937801460370D27800204A707047BA
:10A9E800014640F25C20C2F2000010F8123000EB81
:10A9F80042000B7040780B23487040F21000C2F2FE
:10AA0800000012FB030082788A70C2780020CA70A6
:10AA18007047000040F21001C2F200010B2312FB44
:10AA28000312937901460370D0794870107A8870C0
:10AA3800507AC870927A00200A71704740F2100C60
:10AA48000B230146C2F2000C02FB03F01CF80000C5
:10AA580012FB03C208705078487090788870D278DA
:10AA68000020CA7070470000002070472DE9F04FA1
:10AA780081B043F65647C0F604070C4605463846EB
:10AA880000211E4631F022FF24A0314635F078F827
:10AA98003846002131F01AFF2FA035F06BFD002C4D
:10AAA80038D043F6564B43F6C4280027C0F6040BAB
:10AAB800C0F604080FF2C0090FF2A40A002605E048
:10AAC8000A4635F05DF80136B44223D0052EFAD88F
:10AAD800DFE806F00C030C170C0E5846002131F085
:10AAE800F5FE687847EA00214046E9E7AF5DEAE706
:10AAF8005846002131F0EAFE687947EA00215046BD
:10AB0800DEE75846002131F0E1FEE87847EA002107
:10AB18004846D5E7002001B0BDE8F08F4C6967686A
:10AB2800745F48736C44656661756C745F537461D7
:10AB38007475732063616C6C6261636B207265630A
:10AB4800656976656420666F7220656C656D656EF3
:10AB580074202564200D0A002338323743210D0064
:10AB680053617475726174696F6E3A203078257814
:10AB780020282564290A0D004875653A2030782573
:10AB88007820282564290A0D00000000002070475D
:10AB98002DE9F04F81B043F68737C0F604070C461D
:10ABA8000546384600211E4631F090FE28A0314661
:10ABB80034F0E6FF3846002131F088FE32A035F047
:10ABC800D9FC002C3FD043F6873B00276FF00206E4
:10ABD800C0F6040B0FF2B8090FF2CC0A4FF00008C8
:10ABE80006E000BF15F8087008F1010844452AD0AE
:10ABF80018EA060FF6D0B8F1040F17D0B8F1030F12
:10AC08000BD0B8F1010FEFD15846002131F05EFEAC
:10AC1800687847EA0021504611E05846002131F093
:10AC280055FEE87847EA0021484608E058460021E2
:10AC380031F04CFE297943F68D20C0F604000A460F
:10AC480034F09EFFD0E7002001B0BDE8F08F00BFD0
:10AC58004C696768745F48736C4875655F537461C5
:10AC68007475732063616C6C6261636B20726563D9
:10AC7800656976656420666F7220656C656D656EC2
:10AC880074202564200D0A002338323731210D0045
:10AC9800546172676574204875653A203078257864
:10ACA80020282564290A0D0050726573656E74208A
:10ACB8004875653A203078257820282564290A0DBA
:10ACC80000000000002070472DE9F04F81B043F6E6
:10ACD8004937C0F604070C460546384600211E468B
:10ACE80031F0F4FD33A0314634F04AFF38460021F4
:10ACF80031F0ECFD3EA035F03DFC002C55D043F67C
:10AD0800493643F6DB2A4FF00008C0F60406C0F6C1
:10AD1800040A0FF2081B38A74FF0000907E000BF2C
:10AD28000A4634F02DFF09F101094C453DD0B9F12F
:10AD3800080FF8D8DFE809F02F0E110E1D0E050ECA
:10AD480026003046002131F0C1FDA87948EA0021EB
:10AD58005846E5E715F80980E5E73046002131F067
:10AD6800B5FDA87848EA002143F6A920C0F60400FA
:10AD7800D6E73046002131F0A9FD287948EA0021BC
:10AD88005046CDE73046002131F0A0FD287A48EA48
:10AD980000213846C4E73046002131F097FD297874
:10ADA80043F67420C0F60400BAE7002001B0BDE8FD
:10ADB800F08F00BF4C696768745F48736C52616EAE
:10ADC80067655F5374617475732063616C6C62614D
:10ADD800636B20726563656976656420666F7220AF
:10ADE800656C656D656E74202564200D0A00000091
:10ADF8002338323745210D005361747572617469C7
:10AE08006F6E2052616E6765204D61783A20307808
:10AE1800257820282564290A0D00000053617475DF
:10AE2800726174696F6E2052616E6765204D696E3C
:10AE38003A203078257820282564290A0D0000005A
:10AE4800002070472DE9F04F81B043F6CF37C0F6A8
:10AE580004070C460546384600211E4631F036FDEB
:10AE680028A0314634F08CFE3846002131F02EFD02
:10AE780034A035F07FFB002C3FD043F6CF3B0027B2
:10AE88006FF00206C0F6040B0FF2C0090FF2DC0ADD
:10AE98004FF0000806E000BF15F8087008F1010837
:10AEA80044452AD018EA060FF6D0B8F1040F17D097
:10AEB800B8F1030F0BD0B8F1010FEFD158460021BC
:10AEC80031F004FD687847EA0021504611E0584601
:10AED800002131F0FBFCE87847EA0021484608E009
:10AEE8005846002131F0F2FC297943F68D20C0F64E
:10AEF80004000A4634F044FED0E7002001B0BDE863
:10AF0800F08F00BF4C696768745F48736C53617455
:10AF180075726174696F6E5F5374617475732063C1
:10AF2800616C6C6261636B207265636569766564E8
:10AF380020666F7220656C656D656E7420256420CF
:10AF48000D0A00002338323735210D00546172672D
:10AF580065742053617475726174696F6E3A20303C
:10AF680078257820282564290A0D00005072657319
:10AF7800656E742053617475726174696F6E3A20DE
:10AF88003078257820282564290A0D00002070478C
:10AF98002DE9F04F81B043F6A137C0F604070C46FF
:10AFA8000546384600211E4631F090FC2AA031465D
:10AFB80034F0E6FD3846002131F088FC34A035F045
:10AFC800D9FA002C44D043F6A13643F68D2B00273E
:10AFD800C0F604060FF2DC090FF2BC0AC0F6040B37
:10AFE8004FF0000806E00A4634F0CAFD08F10108EF
:10AFF80044452DD0B8F1060FF8D8DFE808F00D0465
:10B008000D200D1019003046002131F05FFC6878E2
:10B0180047EA00212DA0E6E715F80870E6E7304674
:10B02800002131F053FC687947EA00215046DAE7FD
:10B038003046002131F04AFCA9795846D3E730461A
:10B04800002131F043FCE87847EA00214846CAE786
:10B05800002001B0BDE8F08F4C696768745F4873E1
:10B068006C5F5374617475732063616C6C626163A7
:10B078006B20726563656976656420666F7220650A
:10B088006C656D656E74202564200D0A0000000053
:10B098002338323738210D0048534C2053617475DA
:10B0A800726174696F6E3A2030782578202825649B
:10B0B800290A0D0048534C204875653A20307825F8
:10B0C8007820282564290A0D0000000048534C20E8
:10B0D8004C696768746E6573733A203078257820F8
:10B0E800282564290A0D0000B0B5054600881C46CD
:10B0F80000284FF0000002D002F05EFF01E002F0ED
:10B108004BFF40F210012888C2F200010B2243F2E3
:10B11800317514FB0211C0F6040588802846002109
:10B1280031F0D4FB09A035F025FA2846002131F08A
:10B13800CDFB43F28B60C0F60400214634F020FDBD
:10B14800032021462CF0C6FC0020B0BD2338323540
:10B158003921200D000000002DE9F04381B043F6AD
:10B168003147C0F604070C460546384600211E46FE
:10B1780031F0ACFB43F60310C0F60400314634F05E
:10B18800FFFC3846002131F0A1FB43F6F620C0F65B
:10B19800040035F0EFF9ECB143F631480026C0F66B
:10B1A80004080FF2380900270EE000BF40460021CE
:10B1B80031F08CFB687846EA002148460A4634F0AC
:10B1C800DFFC0137BC4205D0012FEFD0002FF8D1AA
:10B1D8002E78F6E7002001B0BDE8F0834C69676877
:10B1E800746E6573732044656661756C743A2030BB
:10B1F80078257820282564290D0A0000B0B540F28A
:10B208001002B0F80700C2F200020B2343F2537495
:10B2180011FB0325C0F6040468802046002131F0A4
:10B2280055FB06A034F0ACFC2046002131F04EFB63
:10B23800698805A034F0A4FC0020B0BD233832355D
:10B2480039210A0D000000004170706C695F4C697B
:10B258006768745F4C696768746E6573735F4C6187
:10B2680073745F536574204C69676874204C61730C
:10B27800742056616C7565203078252E3278200D43
:10B288000A0000002DE9F04381B043F69247C0F66A
:10B2980004070C460546384600211E4631F016FBC9
:10B2A80017A0314634F06CFC3846002131F00EFB13
:10B2B80043F6F620C0F6040035F05CF9E4B143F635
:10B2C80092480026C0F604080FF2740900270DE022
:10B2D8004046002131F0FAFA687846EA00214846EB
:10B2E8000A4634F04DFC0137BC4205D0012FEFD09F
:10B2F800002FF8D12E78F6E7002001B0BDE8F083E2
:10B308004C696768745F4C696768746E6573735FCE
:10B318004C6173745F5374617475732063616C6CF2
:10B328006261636B20726563656976656420666F28
:10B338007220656C656D656E74202564200D0A00A9
:10B348004C696768746E657373204C6173743A2036
:10B358003078257820282564290D0A00B0B5408862
:10B3680040F25C2143F2F665C2F20001C0F6040522
:10B3780021F81300284600211C4631F0A7FA43F2B1
:10B388004860C0F60400214634F0FAFB2846002144
:10B3980031F09CFA02A034F0F3FB0020B0BD00BFEE
:10B3A8002338323530210A0D000000002DE9F04F16
:10B3B80081B043F6F037C0F604070C460546384618
:10B3C80000211E4631F082FA43F6C100C0F604009F
:10B3D800314634F0D5FB3846002131F077FA26A003
:10B3E80035F0C8F8002C42D043F6F03B43F620294C
:10B3F80043F63E2A00276FF00206C0F6040BC0F69B
:10B408000409C0F6040A4FF0000805E015F80870B2
:10B4180008F1010844452AD018EA060FF6D0B8F119
:10B42800040F17D0B8F1030F0BD0B8F1010FEFD10B
:10B438005846002131F04AFA687847EA0021504618
:10B4480011E05846002131F041FAE87847EA002136
:10B45800484608E05846002131F038FA297943F681
:10B468008110C0F604000A4634F08AFBD0E70020B9
:10B4780001B0BDE8F08F00BF2338323532210D000E
:10B48800B0B540F210021C460178C2F200020B234C
:10B4980014FB03229171D0F8010043F2D665C0F67F
:10B4A8000405C2F807002846002131F00FFA08A069
:10B4B80034F066FB2846002131F008FA43F2FF50C9
:10B4C800C0F60400214634F05BFB0020B0BD00BF8D
:10B4D800233832354221200A0D0000002DE9F04FB3
:10B4E80081B043F62637C0F604070C4605463846B1
:10B4F80000211E4631F0EAF943F68000C0F6040048
:10B50800314634F03DFB3846002131F0DFF923A005
:10B5180035F030F8002C3DD043F6263B43F6681A48
:10B5280043F65D2843F6E6190027C0F6040BC0F67B
:10B53800040AC0F60408C0F60409002604E000BFA7
:10B54800AF5D0136B44225D086B126F0020001284D
:10B55800F6D0042E11D0022EF3D15846002131F036
:10B56800B5F9A87847EA002148460FE05846002177
:10B5780031F0ACF92978504608E05846002131F0FE
:10B58800A5F9287947EA0021404600BF0A4634F069
:10B59800F7FAD6E7002001B0BDE8F08F233832353E
:10B5A80038210D00F0B581B043F21776C0F60406D5
:10B5B8000546304600211C46002731F087F927A0B0
:10B5C80034F0DEFA3046002131F080F92A88B5F8E7
:10B5D800073025A0214634F0D3FA40F2100128881C
:10B5E800C2F200010B2214FB02136243885240F698
:10B5F8004A1240F2B816B5F80710C2F20002C2F2B9
:10B608000006002818BF0146128835885980AA42CA
:10B618004FF0000147F6F54398BF01219A4288BFD1
:10B6280001273943002A328018BF0122114040F611
:10B638004812C2F2000211704FF6FF7100222EF07C
:10B648006BFA40F2AC11C2F20001088003202146D7
:10B658002CF040FA002001B0F0BD00BF233832348E
:10B6680043210A0D00000000456C656D656E74206D
:10B67800696E6465782025642070726573656E74E0
:10B68800203078252E3278206C617374203078252C
:10B698002E32780D0A0000002DE9F04F81B043F6F4
:10B6A8001447C0F604070C460546384600211E46D6
:10B6B80031F00CF92AA0314634F062FA38460021FC
:10B6C80031F004F935A034F055FF002C43D043F68F
:10B6D800144B43F6202943F63E2A00276FF0020652
:10B6E800C0F6040BC0F60409C0F6040A4FF00008BF
:10B6F80006E000BF15F8087008F1010844452AD093
:10B7080018EA060FF6D0B8F1040F17D0B8F1030FF6
:10B718000BD0B8F1010FEFD15846002131F0D6F81F
:10B72800687847EA0021504611E05846002131F078
:10B73800CDF8E87847EA0021484608E05846002155
:10B7480031F0C4F8297943F68110C0F604000A469E
:10B7580034F016FAD0E7002001B0BDE8F08F00BF42
:10B768004C696768745F4C696768746E6573735F6A
:10B778005374617475732063616C6C6261636B20D0
:10B78800726563656976656420666F7220656C65AD
:10B798006D656E74202564200D0A0000233832344C
:10B7A80045210D00B0B54AF6DC40C2F20000006841
:10B7B80004212DF03BF805462DF09CFC04460006BC
:10B7C80008BF2C46002D18BF2C46200608D042F68C
:10B7D8008B50E1B2C0F6040034F0D2F9E0B2B0BD4B
:10B7E80042F62C70C0F6040034F0C4FEE0B2B0BDDE
:10B7F80010B501F02DFB002818BF10BD40F2AC4475
:10B80800C2F20004207810B902A034F0B3FE01207F
:10B81800207010BD436F6E66696720536572766548
:10B8280072206D75746174696F6E206163636570F1
:10B838007465643A2066756C6C20636F6D6D69740D
:10B848002072657175697265640D000080B510F02D
:10B858007BFB18B310F07EFB00B341F66D50C2F2CB
:10B8680000000178002918BF80BD012101700BF08C
:10B8780007FD012802D003200AF0C2F80AA034F01C
:10B8880079FE002000212AF029FE40B942F67E7098
:10B89800C0F60400BDE8804034F06CBE80BD642072
:10B8A8000CF00AF832F03CFB50726F766973696FDE
:10B8B8006E696E672073657373696F6E2074696D46
:10B8C800656F75743A2072657475726E20746F2096
:10B8D8006C656761637920474154540D000000008E
:10B8E80081B08DF803004AF6C840C2F20000006833
:10B8F800406801B070470000B0B583B094468E46EA
:10B90800044609980899079A02948DF807E08DF87B
:10B9180006C0ADF80430ADF802208DF801108DF89E
:10B9280000000299012008700299002048700299CD
:10B9380088700299C8700299087103B0B0BD000000
:10B9480081B08DF803004AF6C840C2F200000068D2
:10B95800006901B0704700002DE9F04141F66C58CC
:10B9680040F61225C2F20008C2F2000598F800005D
:10B9780029784AF6A14440EA0106F707C2F2000412
:10B9880009D1207838B9FFF761FF40200021BDE8D0
:10B99800F04131F067BF2CF0F5FF217802460843EB
:10B9A800000608D097B342F6A250C9B2C0F6040008
:10B9B80034F0E6F8E9E7AFB110F0C6FA90B100202C
:10B9C80088F800002870012030F010F902200021CA
:10B9D8002AF084FDF8B942F63870C0F6040034F055
:10B9E800C9FDD0E728783040C007CCD040F2AC4140
:10B9F8000020C2F20001287088F8000008700AA030
:10BA080034F0B8FDBDE8F0412AF098BE402000218E
:10BA180031F028FFB7E712A034F0ACFDFA200BF0A4
:10BA28004BFF32F07DFA00BF4D65736820636F6E7F
:10BA380066696775726174696F6E20636F6D6D6991
:10BA4800747465643A20636F6E74726F6C6C6564AD
:10BA58002050726F787920726573746172740D006A
:10BA680050726F766973696F6E696E6720636F6D68
:10BA78006D69747465643A207265626F6F742074BE
:10BA88006F204D657368206F7065726174696F6EA1
:10BA9800616C0D0041F67250C2F200000078002877
:10BAA80018BF704780B501F0A7FD0A200BF004FF0E
:10BAB800FDF722FE002009F0A3FF42F6B560C0F6AC
:10BAC800040034F057FD01F0BFFB32F029FA000002
:10BAD80080B582B08DF807004AF6D040C2F2000067
:10BAE800006801699DF80700884702B080BD000022
:10BAF8002DE9F04F8FB0834600284FF0030000F087
:10BB080013810D46002900F00F8140F290389BF810
:10BB180000A045F24429C2F200080120C2F200093F
:10BB2800A8F800008FA0002189F800A0002730F0B5
:10BB3800CDFE9BF8001091A02A4634F021F894A677
:10BB4800002400BF1BF80710304634F019F8013400
:10BB5800A7B2BD42F6D842F25E30C0F6040034F017
:10BB68000FF8AAF1010127294FF0010000F2DC804B
:10BB7800DFE811F02800DA00DA00DA00DA00DA008B
:10BB8800DA00DA00DA00DA00DA00DA00DA00DA00DD
:10BB9800DA00990093009000DA00DA00DA00DA009F
:10BBA800DA00DA00DA00DA00DA00DA00DA00DA00BD
:10BBB800DA0047006D00A800B300D200BA003600D2
:10BBC8007A0059003C2D00F2B78045F24420C2F2B9
:10BBD800000059462A46FBF7B0FBA8F80050A2E03F
:10BBE8000BF076FB0446FBF7E6FBC5B2102D28BF29
:10BBF800102509F1010021462A46FBF79EFB681C27
:10BC08008FE0022DC0F098809BF8010069468DF8FE
:10BC180000004AF6C000C2F2000001224FF47A7315
:10BC28000EF07EFC7FE0012D40F0868068462AF009
:10BC38000FFB012089F80100BDF80000DDF80210B3
:10BC4800029AA9F802000C20C9E9011269E0032D43
:10BC580072D39BF8010004287CD003286CD19BF890
:10BC680002002FF03DFF5EE0052D60D1DBF80110EA
:10BC780003202AF033FC002862D0002089F8010054
:10BC8800DBF80100C9F802000620A8F800002AF035
:10BC980055FD48E00BF09CFA40E068463B210BF06C
:10BCA800B5FA30B952E068463B210BF097FA002804
:10BCB8004CD0044609F1010069462246FBF73DFBDA
:10BCC800601C2EE0022D37D39BF80100042846D0D3
:10BCD800032831D10BF0F0FA20E0022D2CD39BF889
:10BCE80001002FF095FE1EE0A5F1120010F1100FD3
:10BCF80022D3681E00216C468DF81010CDE9021180
:10BD0800CDE900110BF10101C2B22046FBF715FB8A
:10BD180020462FF025FF06E00BF098FA89F801007D
:10BD28000220A8F8000000200FB0BDE8F08F89F8C5
:10BD380001000220A8F8000003200FB0BDE8F08F32
:10BD4800042089F801000220A8F8000001200FB0A3
:10BD5800BDE8F08F9BF802002FF0E2FEE3E70BF05E
:10BD6800B1FADBE74170706C695F56656E646F729B
:10BD78005F446174615F7772697465002330452D93
:10BD88002530326878202530326C7821200A0D0061
:10BD980025303268782000002DE9F04F83B0054641
:10BDA800067845F24420C2F20000067043F2DC0037
:10BDB800C0F604000021002430F088FD297853A043
:10BDC80033F0DEFE701E032800F29A80DFE800F0F0
:10BDD80002084C9940F29030C2F2000002218CE037
:10BDE80000F02AFF04783CB343F2DC08471C002526
:10BDF8000DF102090FF23C1AC0F604080FF2481BB5
:10BE080013E000BFE0B201F03BF8044609F8060071
:10BE18005E464046002130F059FD3046214633F059
:10BE2800AFFE17F8014B013534B1EEB22E2C09F8EC
:10BE38000640E7D15646ECE7BDF8020045F2442239
:10BE4800BDF80510C2F20002A2F801009DF8080032
:10BE5800A2F80310BDF80910507140F29030D1805B
:10BE6800C2F20000082148E000F0E0FE04785CB36C
:10BE780043F2AC0B43F2DC09471C00250DF1020A22
:10BE8800C0F6040BC0F604090FF290080DE000BFDD
:10BE98005E464846002130F019FD3046214633F011
:10BEA8006FFE17F8014B013574B1EEB22E2C0AF86B
:10BEB8000640EDD0522CEBD0E0B200F0E1FF044692
:10BEC8000AF806004646E4E7BDF8020045F24427B2
:10BED800C2F20007A7F801009DF805009DF80710B9
:10BEE8009DF809209DF80B30F87040F290303971B8
:10BEF8007A71BB71C2F2000007210180002400E0C2
:10BF08000124204603B0BDE8F08F00BF2330322D56
:10BF1800253032687821200A0D0000005375622010
:10BF28004C69622076657273696F6E20697320258B
:10BF3800780A0D004C69622076657273696F6E200D
:10BF480069732025630A0D004C6962207665727357
:10BF5800696F6E2069732025780A0D002DE9F0437A
:10BF680081B0064690F8008043F2C400C0F6040091
:10BF780000211546002730F0A9FC31787CA033F069
:10BF8800FFFDA8F1010005284FF0010900F2CE805D
:10BF98000024DFE800F003502ACC718D43F2C4007E
:10BFA800C0F6040000214FF0000930F08FFC43F286
:10BFB8000100C0F60400294633F0E2FD40F2AC105F
:10BFC800C2F2000047F6F6410180016842688368C2
:10BFD800042010F061FE002001F0EEFF40F2AA10EC
:10BFE800C2F20000012101709FE043F2C400C0F6D4
:10BFF800040000214FF0000930F068FC43F23700DC
:10C00800C0F60400294633F0BBFD40F2AA14C2F280
:10C0180000042078012874D140F2AC10C2F200006C
:10C0280001210180016842688368042010F034FE11
:10C0380084F800901EE043F2C400C0F6040000211A
:10C048004FF0000930F042FC5DA0294633F098FD1E
:10C0580040F2AC10C2F20000012101800168426880
:10C068008368042010F018FE40F2AA10C2F2000003
:10C0780080F80090002018E043F2C400C0F60400E5
:10C08800002130F023FC43F27100C0F60400294679
:10C0980033F076FD707840F2AA11C2F2000101284F
:10C0A80008703DD000204FF0000901F075FF3CE01A
:10C0B80043F2C400C0F60400002130F007FC30A0B1
:10C0C800294633F05DFD7778B47847F6FF7147EA83
:10C0D800042000222DF020FD054640F2AC10C2F2EB
:10C0E80000000580016842688368042010F0D4FDD0
:10C0F80000204FF00009B5F57A5F35D901F05CFFF3
:10C1080015E040F2AC10C2F2000047F6F64101809B
:10C11800016842688368042010F0BEFD0120207089
:10C1280000204FF0000901F047FF0027002445F2E6
:10C138004420C2F20000B8F1060F80F8008003D155
:10C1480044708770032106E040F2AA11C2F2000190
:10C1580009784170022140F29032C2F2000248464A
:10C16800118001B0BDE8F08301F016FFDFE700BFE2
:10C178002330332D2530326878210A0D0000000065
:10C188004170706C695F4C45445F496E74656E73AD
:10C198006974792063616C6C6261636B207265639A
:10C1A800656976656420666F7220656C656D656E7D
:10C1B80074496E646578202564200D0A000000002B
:10C1C8004170706C695F4C45445F4F46462063611F
:10C1D8006C6C6261636B2072656365697665642067
:10C1E800666F7220656C656D656E74496E646578FE
:10C1F800202564200D0A0000B0B584B001F004FACF
:10C2080028B1002001F0D8FE012004B0B0BD002004
:10C21800002501F0C1FE40F20C22C2F20002136CAC
:10C22800108892F844100124CDE90035931C0E22A1
:10C23800029401F0CFF804B0B0BD0000F0B581B0B1
:10C2480040F20C270E46C2F2000715460146B81CFC
:10C2580032461C46FBF771F800203C803E643C2EB9
:10C2680088BF032087F8445001B0F0BD2DE9F041A4
:10C278000446077845F2442843F2F4000D46C2F21A
:10C288000008C0F60400002188F80070002630F08D
:10C298001DFB217820A033F073FCF81E032837D348
:10C2A800022F19D0062F32D19DB142F25E370021FC
:10C2B8000FF27408C0F60407002600BF625C40460F
:10C2C80033F05EFC384633F05BFC0136F1B28D4248
:10C2D800F4D80020BDE8F0813D2D0AD343F2F400E4
:10C2E800C0F60400002130F0F1FA13A034F042F94E
:10C2F8003C25611C6A1E08F10100FBF71EF840F29C
:10C308009030C2F2000005800020BDE8F0810126CF
:10C318003046BDE8F08100BF2330312D253032682A
:10C328007821200A0D000000646174615B25645D5A
:10C338003D202564000000004C656E67746820721B
:10C3480065636569766564206772656174657220E6
:10C358007468616E2073697A65206F6620726573F0
:10C36800706F6E736520627566666572200D0000D9
:10C3780040F2FC12C1EBC101C2F2000202EB410122
:10C38800002200BF31F81230984204BF01207047E4
:10C398000132072A04BF00207047F3E740F2542215
:10C3A800C2F2000202EBC101002200BF51F82230A4
:10C3B800984204BF012070470132012A1CBF0020A7
:10C3C8007047F3E70020704710B540F2FC12C1EB4C
:10C3D800C101C2F2000202EB410100244FF6FF72D4
:10C3E80031F81430934203D00134072CF8D10724D4
:10C3F8006200FAF7A2FFE0B210BD000010B540F2EB
:10C408005422C2F2000202EBC10100244FF6FF726F
:10C4180051F82430934203D00134012CF8D002247F
:10C42800A200FAF78AFFE0B210BD0000B0B588B0EC
:10C43800DDF844C0DDF840C0DDF83CC0DDF838C0A8
:10C44800DDF834C0DDF830C00790069105920493FA
:10C458000EF040FD06980EF08DFD05980499109A8F
:10C46800119BDDF83CC00D9CEE460025CEF8085027
:10C47800CEF80440CEF800C00EF01EFC0E980F99BE
:10C48800079A0EF08FFB0C980D990EF067FB03903E
:10C498000EF0F8FC039808B0B0BD0000B0B588B045
:10C4A800DDF844C0DDF840C0DDF83CC0DDF838C038
:10C4B800DDF834C0DDF830C007900691059204938A
:10C4C800002003900EF006FD04980EF053FD0C9822
:10C4D8000D99109A119BDDF83CC0059CEE4601258C
:10C4E800CEF80850CEF80440CEF800C00EF0E4FBB9
:10C4F8000E980F99079A0EF055FB069805990EF0BD
:10C50800CBFB0EF0BFFC039808B0B0BD80B592B06D
:10C51800119010910F920E9340F26020C2F2000029
:10C528000D9000200B9010980290119820B1FFE711
:10C53800119800F0FFF8FFE70E9890B1FFE70F9809
:10C5480000F00F000B900F9830B1FFE70B9818B967
:10C55800FFE710200B90FFE70B990F98401A0F90F8
:10C56800FFE7FFE70F9870B3FFE7029B1868596869
:10C578009A68DB680A93099208910790FFE7079881
:10C5880000BA0D99096848400790089800BA0D99B3
:10C59800496848400890099800BA0D998968484048
:10C5A80009900A9800BA0D99C96848400A90FFE7AF
:10C5B8000D9907A800F0B4F80298103002900F986F
:10C5C80010380F90CEE70E98002800F08180FFE722
:10C5D80000200A900990089007900C90FFE70C98AB
:10C5E8000B99884213D2FFE702990C98095C032241
:10C5F8008243D20001FA02F320F0030207A9885807
:10C6080018438850FFE70C9801300C90E7E70020AA
:10C61800069005900490039003A90191084600F044
:10C628007FF8019800F056F80B980F2811D8FFE70B
:10C638000B9803218143CA00802101FA02F320F0FC
:10C64800030207A988581843885003A800F042F845
:10C65800FFE700200C90FFE70C98032814D8FFE7A9
:10C668000D980C9A50F8220003A951F8221080EA7C
:10C67800010307A951F82200584041F82200FFE7BA
:10C688000C9801300C90E7E70D9907A800F048F8DE
:10C698000EF0F8FBFFE70D98006800BA07900D98B8
:10C6A800406800BA08900D98806800BA09900D9803
:10C6B800C06800BA0A90FFE70E990798089A099B84
:10C6C800DDF828C0C1F80CC08B604A600860FFE73D
:10C6D80012B080BD82B0019001980068C00F872118
:10C6E80048430090019908684A68400040EAD270BF
:10C6F8000860019948688A68400040EAD27048603A
:10C7080001998868CA68400040EAD2708860019937
:10C71800CA68009880EA4200C86002B0704700000A
:10C7280080B582B001900091019800990EF09CFBB1
:10C7380002B080BD80B584B0039040F26020C2F2A0
:10C74800000002900EF0C6FB03980EF013FC0020C8
:10C7580001900EF039FC01980299C860029988602E
:10C76800029948600299086004B080BD80B588B01D
:10C778000790069105920EF0ADFB07980EF0FAFBB4
:10C7880004200EF021FC069B186859689A68DB683B
:10C79800049303920291019001A908460EF064FBEC
:10C7A8000EF070FB05990198029A039BDDF810C002
:10C7B800C1F80CC08B604A60086008B080BD0000FA
:10C7C80010B54CF601020446C0F600024FF4806032
:10C7D800002130F033FF40F2F803C2F200034FF0BB
:10C7E800640C03EB840242F61920214623F824C086
:10C7F800BDE8104000F0A6B840F2F802C2F200020C
:10C8080042F61920002100F09DB8000040F2F8011E
:10C81800C2F20001CA780880012A18BF70474FF495
:10C828008060032131F01EB880B582B04178FF29BD
:10C8380002D0002002B080BDB0F8031040F61442C8
:10C84800914212D040F601429142F2D140F22811B1
:10C85800C2F200014988B0F8072002319142E8D1BC
:10C86800407B012121EA00000EE040F22811C2F2CB
:10C8780000014988B0F8072001319142D9D1B0F8B8
:10C88800050031F04DFE02208DF8060000208DF8DD
:10C8980007000DF1060000F035F8012002B080BD58
:10C8A800F0B587B04CF63100C0F600002EF0BCF8A9
:10C8B80041F60F0040F228150DF11A04ADF81A00E0
:10C8C800C2F2000501202146012204230095012619
:10C8D800042731F0C5FD42F6192135F8020BADF8F1
:10C8E8001A100A2100221223CDE90032CDE9027183
:10C8F8000121224601230496059531F041FD07B038
:10C90800F0BD00000078022812D0012809D00028C4
:10C9180018BF704740F2F800C2F200000121C17050
:10C92800704740F2F800C2F200000021C170704761
:10C9380040F2F802C2F2000242F61920002100F08B
:10C9480001B80000944642F61922904218BF704779
:10C9580080B582B001EB410040F22811C2F200011B
:10C9680001EB400231F81000518800220123CDF874
:10C9780000C031F0CDFE02B080BD000082B0009052
:10C98800009820B9FFE703208DF8070009E0009818
:10C998004AF6A441C2F20001086000208DF80700A1
:10C9A800FFE79DF8070002B07047000082B00090D2
:10C9B800009820B9FFE703208DF8070009E00098E8
:10C9C8004AF6D041C2F20001086000208DF8070045
:10C9D800FFE79DF8070002B07047000080B582B0FD
:10C9E80001908DF80310019820B1FFE79DF803002E
:10C9F80020B9FFE702208DF802000CE04BF6145036
:10CA0800C2F20000006801999DF8032005F040F883
:10CA18008DF80200FFE79DF8020002B080BD00001B
:10CA280080B50FF091FA002808BF80BD41F66C511F
:10CA3800C2F20001087830B9012203A00A70BDE8EB
:10CA4800804033F097BD80BD50726F766973696F0F
:10CA58006E696E6720636F6E666967757265643AA2
:10CA68002077616974696E6720646973636F6E6E9D
:10CA780065637420666F72204E564D20636F6D6D2E
:10CA880069740D000622028040F20012C0F20232E0
:10CA9800C0F8022004228271072008707047000045
:10CAA80083B0029001918DF803208DF8023003B015
:10CAB8007047000010B5044608A033F061F8601E06
:10CAC800C0B2022899BF13A151F8200042F6606055
:10CAD800C0F60400BDE8104033F04CBD46726965ED
:10CAE8006E647368697020636C65617265642E207A
