:020000040800F2
:1070000060DB0020BD720008A975030821BC0108DF
:1070100065D30108315501085DD603080000000062
:10702000000000000000000000000000B1AA0308FA
:10703000715C01080000000085960308C5B90308CB
:10704000D7720008D7720008D7720008CD990308DC
:10705000D7720008D7720008D7720008D7720008EC
:10706000D7720008D7720008D7720008D7720008DC
:10707000D7720008D7720008D7720008D7720008CC
:10708000D7720008D7720008D7720008D7720008BC
:10709000D7720008D7720008D7720008055D010892
:1070A000D7720008D7720008D7720008D77200089C
:1070B000D7720008D7720008D7720008D77200088C
:1070C000D7720008D7720008D7720008D77200087C
:1070D00045D303089DC00108D7720008D772000885
:1070E000D7720008D7720008D7720008D77200085C
:1070F00015BF010819BF01083DAB0108D772000890
:10710000D7720008D7720008D7720008D77200083B
:10711000D7720008D7720008D7720008D77200082B
:10712000D7720008D7720008CD5B0108D77200083B
:10713000D7720008D7720008D7720008000000005C
:107140004C4B04080000000081C201120812484A9A
:107150000C0412303B08051C1A041059041428189A
:107160000222B042201A270C5AD00C14FFFF031A37
:10717000034A13DC521420045514202C57142054B5
:1071800059181320399E030805A00308399F0308E6
:10719000AD9D030801041ABD0C1E09A30308FF01DD
:1071A000111B093D3C14FFFF011A02401204120595
:1071B000120EB6090DFF018314DD2A021A14894547
:1071C000194101083CDE2A08105A3510DADB20DAB2
:1071D000DC201A010C029B100000000000000000DF
:1071E000000000000000000000000000000000009F
:1071F000000000000000000000000000000000008F
:10720000000000000000000000000000000000007E
:10721000000000000000000000000000000000006E
:10722000000000000000000000000000000000005E
:10723000000000000000000000000000000000004E
:10724000000000000000000000000000000000003E
:10725000000000000000000000000000000000002E
:1072600000000000000000000000000001FF01FF1E
:1072700001FF01FF01FF01FF01FF01FF01FF01FF0E
:04728000014A0000BF
:020000040800F2
:1072A800DFF80CD000F002FD0048004781F2030827
:1072B80060DB00200648804706480047FEE7FEE7F7
:1072C800FEE7FEE7FEE7FEE7FEE7FEE7FEE7FEE78E
:1072D8006DBA0308A97200082DE9F05F0546002081
:1072E80092469B4688460646814640241BE028462F
:1072F80041464746224600F096FB53465A46C01A76
:10730800914110D311461846224600F07DFB2D1AF4
:1073180067EB01084F4622460120002100F074FB6C
:1073280017EB00094E41201EA4F10104DFDC48469A
:1073380031462A464346BDE8F09F10B5431A9342AA
:1073480009D28318881803E010F8011D03F8011DFD
:10735800521EF9D210BD40EA01039B0703D009E091
:1073680008C9121F08C0042AFAD203E011F8013B29
:1073780000F8013B521EF9D210BDD2B201E000F86C
:10738800012B491EFBD270470022F6E710B51346C1
:107398000A4604461946FFF7F0FF204610BD10B50F
:1073A800044604E00B7800F8013B03B1491C521E67
:1073B800F8D2204610BD421C10F8011B0029FBD151
:1073C800801A7047CBB203E00178994203D0401C81
:1073D800521EF9D20020704730B5044600200346FB
:1073E80000E05B1C934203D2E05CCD5C401BF8D00C
:1073F80030BD30B505460020034600E05B1C9342D3
:1074080005D2EC5CC85C201A01D1002CF6D130BD45
:107418000FB400B58DB010A909900B9000914FF0F2
:10742800FF300A9000200C90054806900548079008
:107438006A4609A80F9900F02DFB0DB05DF814FB02
:10744800B97A0008D77A00082DE9FF5F1D464FF08A
:10745800FF3BD5E9014691465F464FF00008A96910
:107468007F1C01988847296A824688470028F6D1F8
:10747800BAF1FF3F0CD024F4C064002E19DD600679
:1074880014D5BAF12B0F09D0BAF12D0F0ED103E0A4
:10749800584604B0BDE8F09F44F48064A9697F1C95
:1074A80001988847761E8246002E02DDBAF1300F19
:1074B80003D0B9F1000F26D032E0A969761E44F452
:1074C80000747F1C019888478246002E05DDBAF1BA
:1074D800780F06D0BAF1580F03D0B9F1000F10D0C9
:1074E8001EE0B9F1000F02D0B9F1100F18D1A96947
:1074F800761E24F400747F1C019888478246102069
:1075080002E0082000E00A20814609E008FB09089B
:10751800A969761E44F400747F1C01988847824646
:10752800002E05DD4946504600F09FFA0028EDDAA6
:10753800E96901988847A00502D46FF00100A8E71F
:10754800E00725D1600613D5600502D5C8F1000013
:1075580000E0404629680A1D2A600968220501D50D
:10756800087015E0220701D5088011E008600FE0D7
:107578002868011D29600068210502D580F800806F
:1075880006E0210702D5A0F8008001E0C0F80080DD
:1075980038467EE72DE9FF5FD2E901A74FF00008E2
:1075A800916999461446DDF838B0464601988847EF
:1075B800054659EA0B0005D009E0A169761C019837
:1075C80088470546216A284688470028F5D1681C5F
:1075D80003D05FEACA7005D015E04FF0FF3004B061
:1075E800BDE8F09F2068011D2160D0F800800AE006
:1075F8005FEACA7001D108F8015BA169761C7F1E99
:10760800019888470546002F1ADD681C18D0B9F183
:10761800000F0DD0E81705EBD060421120F01F00D5
:1076280059F822102A1A012090400142E0D107E0BF
:10763800BBF1000FDCD1216A284688470028D7D043
:10764800E16901988847BBF1000F07D1002E05DDDD
:107658005FEACA7002D1002188F80010A068B84219
:1076680003DDBBF1000F03D017B16FF00100B6E7DF
:107678003046B4E72DE9FE4F804681EA0300C00F8B
:107688000C46009021F0004123F00045B8EB0200C1
:10769800A94105D24046214690461C460B46024663
:1076A80023F00040104347D0270DC7F30A00C3F367
:1076B8000A510290401A019040286BDAC3F3130074
:1076C80040F4801B0098924620B10023D2EB030AB5
:1076D80063EB0B0B01985946C0F14002504600F08D
:1076E80093F906460D4650465946019A00F0ABF903
:1076F80010EB08006141002487EA115284EAE7731D
:107708001A4340D0009A62B3019A012A4FEA0752FD
:1077180015DC001B61EB02014FF0004202EA075240
:10772800CDE90042001C41F5801132462B4600F09D
:10773800EEF903B0BDE8F08F40462146F9E7001B9B
:1077480061EB0201001C41F5801300185B41201811
:10775800A2F5001747EB030140EAD570B6196D4151
:1077680011E06D084FEA360645EAC0754FEA075240
:10777800001B61EB0201001C41F5801149084FEA2A
:1077880030000019514132462B4603B0BDE8F04F96
:1077980000F0AEB90098012240000023D0EB0202AD
:1077A80063EBE073009821464FEAE074B8EB000001
:1077B80061EB0401E9E783F000435BE781F00041F6
:1077C80058E72DE9FE4F81EA030404F0004421F054
:1077D800004100944FF0000B23F0004350EA0104ED
:1077E8005ED052EA03045BD0C3F30A54C1F30A55CE
:1077F8002C44A4F2F3340194A0FB0254C1F3130106
:1078080041F48011C3F3130343F4801301FB0244D2
:1078180000FB034E840A970A44EA815447EA8357D7
:10782800A4FB076802958D0A05FB07854FEA932C90
:1078380004FB0C542705029D4FEA065847EA163701
:10784800B5EB08056EEB070C870E920E47EA811719
:1078580042EA8312A7FB0201B6EB0B0164EB0004BA
:107868002B0D43EA0C335E1844EB1C50DA465146A4
:10787800E7FB0201C5F313044FEA0B3343EA145341
:107888004FEA0432019C43EA0603A4F10C04029473
:10789800009CCDE900B400F03AF903B0BDE8F08FE0
:1078A80000200146F9E72DE9F04D81EA030404F0D0
:1078B800004B21F0004514464FF0000A23F0004128
:1078C80050EA050220D054EA01021DD0C5F30A5738
:1078D8000246C5F31303C1F31300C1F30A5640F47B
:1078E800801543F48013A7EB0608101BD64608F250
:1078F800FD3873EB050002D308F1010801E0921886
:107908005B41B8F1000F03DA00200146BDE8F08DB5
:1079180000204FF48011064684460EE0171B73EBD7
:10792800050705D3121B63EB050306434CEA010C5C
:1079380049084FEA300092185B4150EA0107EDD13F
:1079480052EA030012D082EA040083EA05010843E0
:1079580005D0101BAB4106D20122002306E000220D
:107968004FF0004302E06FF0010253101AEB0600DB
:107978004CEB085110EB0A0041EB0B01BDE8F04D50
:1079880000F0B6B80EB540F2334102910021CDE9BE
:1079980000110A460B4600F0BAF803B000BD70B5F6
:1079A800C1F30A5201F000450024C1F3130140F26B
:1079B800FF3341F480119A4201DA002070BD40F291
:1079C80033439A42A2F2334203DC524200F02BF8CE
:1079D80000E090402C43F1D0404270BD30B50B46DA
:1079E800014600202022012409E021FA02F59D42E7
:1079F80005D303FA02F5491B04FA02F52844151EBB
:107A0800A2F10102F1DC30BD202A04DB203A00FAA1
:107A180002F1002070479140C2F1200320FA03F3DD
:107A2800194390407047202A04DB203A21FA02F0DB
:107A38000021704721FA02F3D040C2F120029140A0
:107A4800084319467047202A06DBCB17203A41FA2B
:107A580002F043EAE07306E041FA02F3D040C2F1D3
:107A6800200291400843194670473A2800D230381E
:107A780020F02002412A01D3A2F13700884201D325
:107A88004FF0FF307047000002681144137801601E
:107A980018467047D16004495161044911620021B8
:107AA8001161114600F020B9917A0008E57C0008C0
:107AB800426842B1016811F8013B23B1521EC0E986
:107AC8000012184670470121C160881E704742683D
:107AD8005AB1C368016843B983688B4205D0491E0F
:107AE800521CC0E90012002070474FF0FF30704769
:107AF80010B5141E73F1000408DA401C41F10001AE
:107B080092185B411A4301D120F0010010BD2DE904
:107B1800F04D92469B4611B1B1FA81F202E0B0FAFB
:107B280080F220329046FFF76FFF04460F4640EA86
:107B38000A0041EA0B0153465A46084313D011463E
:107B480053EA010019D0C8F140025046FFF76BFF15
:107B580005460E46504659464246FFF755FF08432C
:107B680005D0012004E020463946BDE8F08D00200C
:107B7800054346EAE0762C4337430A986305E40A4E
:107B8800A0EB08000022FD0A44EA47540A3002D557
:107B980000200146E9E7010510196941DDE90845BA
:107BA80000196941BDE8F04DA2E72DE9F04D002329
:107BB8001A461B1A8A4103DB00200146BDE8F08DF6
:107BC800C1F30A52C1F3130141F480154FF0000BC1
:107BD800D10702D100186D41521E0027044640F219
:107BE800FF11384601EB620A3E46804602460020F5
:107BF8004FF48011FFF717FFC2197141BB1846EB0C
:107C08000100B4EB030C75EB000C04D3E41A65EB2C
:107C1800000517460E46241908F101006D418046FB
:107C28003428E3DDF91946EB0600091BA84103D205
:107C38004FF0FF32134601E0002213461BEB07000A
:107C480046EB0A51BDE8F04DFFF752BFC1F30A52A7
:107C5800C1F3130140F2FF3341F480119A4202DA72
:107C680000200146704740F233439A42A2F2334261
:107C780002DC5242FFF7D7BEFFF7C6BE30B5041E7E
:107C880071F1000404DB4FF00044404264EB010151
:107C9800141E73F1000405DB1C464FF000435242EA
:107CA80063EB0403994208BF904230BD1CB50948F4
:107CB8000090094801900546009C06E0E06840F005
:107CC800010394E8070098471034AC42F6D3FFF755
:107CD800EBFA0000FC4A04084C4B0408C0B24FF40D
:107CE800F05100F097B900002DE9F34F8BB04FF039
:107CF800000801F10C000C464FF0010B46460DF14F
:107D0800080A01906269012101989047051E2DD04B
:107D1800252D2CD0216A8847C0B1626901210198BC
:107D28009047216A88470028F7D1411E6269019867
:107D3800904700E0761CA1690B988847216A88471C
:107D48000028F7D1E1690B988847DBE7A1690B9810
:107D580088470746A84201D1761CD3E7E1690B980A
:107D680088477F1C02D1B8F1000F6FD046E1002789
:107D780062693D463946019890472A2804D16269CC
:107D88000121019890470125DFF884926269012159
:107D980001989047A0F130010A290AD24F45E5DC45
:107DA80007EB870100EB4107303FDFD445F01005B2
:107DB800ECE7E90601D46FF000476C280AD04C289C
:107DC80014D0682815D06A280DD074281CD07A28B9
:107DD8001AD01DE062690121019890476C2802D0F1
:107DE80045F0040514E045F002050DE045F02005D6
:107DF8000AE06269012101989047682802D045F09D
:107E0800080505E045F4006562690121019890477D
:107E1800C4E9015765283DD019DC58287AD00CDC14
:107E2800452837D004DC252826D0412831D131E037
:107E380046282FD047282CD12CE05B2877D0612802
:107E480028D063287CD0642823D15AE0D0E06F285A
:107E580048D008DC66281DD067281BD0692821D0A7
:107E68006E2816D127E0702845D0732868D0752869
:107E780047D078280DD14DE0A1690B988847054671
:107E880025283FF469AFE1690B9888476D1C3FF4DA
:107E98006AAFB3E023466A466FF001000B99AFF36F
:107EA80000809EE045F040006060A80723464FF040
:107EB800000236D43EE0E8077FF447AF2068011D92
:107EC80021600068290501D506701BE7290701D53F
:107ED800068017E7A90703D5F117C0E9006111E784
:107EE80006600FE745F040006060A80723464FF0A2
:107EF800080216D41EE040F60E0125EA0100606073
:107F080016E045F040006060A80723464FF00A02DB
:107F180007D40FE045F040006060A80708D5234665
:107F280010226FF001000B99AFF3008059E007E0D1
:107F3800234610226FF001000B99FFF785FA50E0F5
:107F48004FF000094F464B46632802D05B2806D005
:107F580040E0E80601D40120A06001273AE0626908
:107F68000121019890475E2805D14FF00109626907
:107F7800494601989047216939B900210A46534674
:107F880043F82120491C0829FADBB0B3216969B9F3
:107F9800C11700EBD16253110AEB830122F01F02D3
:107FA800821A01200B68904003430B60626901212B
:107FB800019890475D28E8D1B9F1000F09D0002059
:107FC800514651F82020D24341F82020401C08286F
:107FD800F7DB02AB224600976FF001000B99FFF721
:107FE800D9FA00280CDA401C08D1BBF1000F05D0E3
:107FF8004FF0FF300DB0BDE8F08FFFE74046F9E7DE
:10800800E90701D108F1010806444FF0000B79E6B1
:10801800CCCCCC0C7F2801D9002208E0064A02EB20
:108028005002C007127800D1120902F00F02012095
:1080380090400840704700003003040870B58C1861
:1080480010F8015B15F0070301D110F8013B2A1164
:1080580006D110F8012B03E010F8016B01F8016B51
:108068005B1EF9D12B0705D40023521E0DD401F84D
:10807800013BFAE710F8013BCB1A921C03E013F816
:10808800015B01F8015B521EF9D5A142D8D300204B
:1080980070BD000010B588B040F29840C0F60400EA
:1080A80090E80E5044690191018B807E02920393FF
:1080B800CDF810C0CDF814E00694ADF81C108DF87A
:1080C8001E0033F0DBFD01A831F09AFD08B010BDA9
:1080D8002DE9F04186B00FF00DFA0FF015FA40F6D1
:1080E8009000C5F60000016841F4803101600DF090
:1080F80077FD40F6702240F6000340F20047002169
:10810800C0F60402C4F60003C4F600074FF00008E6
:10811800002500200491CDE90211CDE9001104E009
:10812800A68835430131262914D002EBC104A6796B
:10813800002EF7D052F831609E4207D0BE42EFD0F1
:10814800B6F1904FEED1A6883043EBE7A68848EA0F
:108158000608E7E700214C2702910121C5F6000730
:10816800019103210204039121D084B2009438685C
:10817800694640F001003860386800F00100059059
:108188000598D7F8000140F00100C7F80001D7F8BA
:10819800000100F00100059005984FF090400FF0A5
:1081A800A1FD4FF09040214600220FF06BFE40F2F7
:1081B80000442804C4F600041FD0ADB20095386806
:1081C800694640F002003860386800F00200059007
:1081D8000598D7F8000140F00200C7F80001D7F869
:1081E800000100F002000590059820460FF07AFD86
:1081F8002046294600220FF045FE5FEA084022D0BB
:108208001FFA88F50095386804F5806440F004008A
:1082180038603868694600F0040005900598D7F87A
:10822800000140F00400C7F80001D7F8000100F091
:1082380004000590059820460FF054FD2046294675
:1082480000220FF01FFE06B0BDE8F0817047000065
:1082580070470000B0B588B04468B4F80B10A1F5B9
:108268001241072900F2AC81DFE811F00800C200D2
:10827800E400AA01F7000201BE00E20004466846D5
:1082880031F0EAFC9DF800109DF801209DF80230BD
:1082980041F21440C0F6040037F03AFB9DF8041090
:1082A80041F2E230C0F6040037F032FB9DF80910C5
:1082B800481E8F2800F2008141F23B72C0F604028A
:1082C800DFE810F021019000EB000E011301F0002F
:1082D800FF00FA00FA00FA00FA00FA00FA00FA00C1
:1082E800FA00FA00FA00FA00FA00FA00FA00FA00B6
:1082F800FA00FA00FA00FA00FA00FA00FA00FA00A6
:10830800FA00FA00FA00FA00FA00FA00FA00FA0095
:10831800FA00FA00FA00FA00FA00FA00FA00FA0085
:10832800FA00FA00FA00FA00FA00FA00FA00FA0075
:10833800FA00FA00FA00FA00FA00FA00FA00FA0065
:10834800FA00FA00FA00FA00FA00FA00FA00FA0055
:10835800FA00FA00FA00FA00FA00FA00FA00FA0045
:10836800FA0004011D011801FA00FA00FA00FA00E7
:10837800FA00FA00FA00FA00FA00FA00FA00FA0025
:10838800FA00FA00FA00FA00FA00FA00FA00FA0015
:10839800FA00FA00FA00FA00FA00FA00FA00FA0005
:1083A800FA00E100F500FA00FA00FA00FA00FA0013
:1083B800FA00E600DC00FA00FA00FA00FA00FA0017
:1083C800FA00FA00FA00FA00FA00FA00FA00FA00D5
:1083D800FA00FA00FA00FA00FA00FA00FA00FA00C5
:1083E800FA0009019CA28EE0D4F80D1082A03AE0B0
:1083F80041F2C841C0F604010446084637F088FA3D
:10840800646841F25A50617BC0F6040037F080FA84
:10841800607B002807BF41F24860C0F6040041F2C3
:108428001160C0F6040008B0BDE8B04037F06ABF7C
:1084380068A01EE041F2A950C0F6040037F062FFC0
:10844800D4F80D10D4F8112041F23840C0F60400D9
:1084580008B0BDE8B04037F05BBAD4F80D1041F26F
:108468005E40C0F6040008B0BDE8B04037F050BA2E
:1084780070A008B0BDE8B04037F04ABA41F299623E
:10848800C0F604023FE041F2F962C0F604023AE0A5
:1084980041F28262C0F6040235E041F24F72C0F642
:1084A800040230E041F26972C0F604022BE041F2A6
:1084B8000F72C0F6040226E042F22C22C0F6040233
:1084C80021E041F25972C0F604021CE041F2257223
:1084D800C0F6040217E041F2EA62C0F6040212E0B4
:1084E80041F24472C0F604020DE041F2E062C0F6C7
:1084F800040208E041F2C762C0F6040203E041F258
:10850800B062C0F6040241F2C130C0F6040037F090
:10851800FFF99DF80A109DF80B209DF80C3041F2E8
:10852800FE30C0F6040037F0F3F941F28A50C0F685
:10853800040037F0EDF9002560680795407B069543
:1085480001280595049534D0E0BB41F2F750C0F6F8
:10855800040037F0D7FEFFF79DFD0F208DF81000BF
:108568007F2042F200058DF81200CEF2040528683B
:10857800040C41F23950C0F60400214637F0C8F91E
:10858800ADF81C402C6841F21A506FF31F34C0F646
:108598000400214637F0BCF904A8ADF81E4031F0BC
:1085A80021FB00F031F90120002134F0D9FE08B098
:1085B800B0BD41F2E940C0F6040037F0A9F92570D2
:1085C80008B0B0BD41F29640C0F6040037F0A0F9FB
:1085D80008B0B0BD3E3E3D3D20534843495F53552A
:1085E800425F4556545F4E564D5F454E445F455277
:1085F8004153450A0D0000003D3D3E3E5348434966
:108608005F5355425F4556545F4E564D5F53544134
:1086180052545F4552415345203A204E756D62656C
:10862800724F66536563746F7273203D2025750A17
:10863800000000003E3E3D3D20534843495F5355EE
:10864800425F4556545F4E564D5F454E445F575204
:108658004954450A0D000000424C455F4843490013
:1086680080B54AF28070C2F2000010F09BF9BDE8B4
:1086780080402DF01DBE000040F2F020C2F2000044
:1086880090F88000704700002DE9F04116460D462D
:1086980004460FF0FDFB40F25401C2F200010A88C3
:1086A80040F65013A242C2F200030DD11A68821A92
:1086B800632A09D841F6CB30C0F604002146324679
:1086C800BDE8F04137F024B940F2F028C2F20008C2
:1086D800B8F816200C80002A186018BF944203D0FE
:1086E8002DA0214637F014F90020A8F8160088F8C4
:1086F800800041F60940C0F60400314637F008F919
:1087080042F28100C0F6040021462A4637F000F9FB
:108718000FF0BEFB014641F64750C0F6040037F0A3
:10872800F7F813F001FC05460EF09AFD06462EF008
:1087380049F898F88030074641F6A850C0F604007A
:108748002946324637F0E4F80FB120A017E001209F
:1087580000F0BEFB98F88000012808D042F2DA4009
:10876800C0F6040037F0CEFD012000F0B1FB98F808
:108778008000012805D042F2B750C0F6040037F057
:10878800C1FD40F24860C2F200000121017044803E
:10879800BDE8F0412FF0ECB93E3E3D3D2044697301
:1087A800636F6E6E6563742068616E646C65206DBE
:1087B80069736D617463683A206576743D30782515
:1087C80078206374783D307825780A003D3D3E3E38
:1087D80020536B6970206C656761637920616476EA
:1087E8006572746973696E672072657374617274F7
:1087F8003A204D657368206F776E732061647665E3
:1088080072746973696E67002DE9F04399B046F296
:108818002C30C2F200000921017040F2E05100241E
:10882800C2F200010A5D1AB10134082CFAD10824F9
:1088380040F2E0510130C2F200012246FEF7AFFDDE
:1088480040F2A001601CC2F2000108700EF0F4FCB6
:10885800FF2821D004460FF22050214637F058F85F
:10886800A52C13D10DF0AAF802F09CFF42F2855214
:108878000FF25451C0F60402012888BF1146084679
:1088880037F040FD00200DF0ABF805E00FF2105076
:1088980037F038FD0DF092F80EF0E2FC044613F0C4
:1088A80039FB40F29409C5F60009D9F80060804602
:1088B80030462DF023FD0DF04BFDC6F30070C6F3D6
:1088C8004071C6F380758DE8230041F65D50C6F30C
:1088D8008062C6F3C063F70FC0F604003146039701
:1088E80037F016F8D9F8000042F21B2140F40000D6
:1088F800C9F8000042F2DC10C0F60400C0F604011A
:10890800012C08BF014641F66840C0F60400224623
:10891800434636F0FDFF2DF081FC04462DF078FD2E
:1089280005462DF04FFF034641F63C40C0F60400D3
:1089380021462A4636F0ECFF40F2B440C0F6040067
:1089480090E88E00D0E904650DF1140ED0E906C454
:108958008EE88E00CDE9096500F12007D0E90C65A5
:10896800008F8ECFADF84C0040F22800C2F2030011
:1089780014904DF64120C0F600000DF1340E15900C
:108988004DF665208EE88E00C0F6000014A9CDE9EA
:108998000BC41196129536F053F90220012134F0D8
:1089A800DFFC4FF2B902C0F603020220002134F0C6
:1089B8000DFD05A831F008F948B1014642F2BB00A7
:1089C800C0F6040036F0A4FF0DF0ECFB05E041F61C
:1089D800A870C0F6040036F09BFF0020CDE9140013
:1089E800ADF84E000EF01AFC14900EF017FC42F28F
:1089F8005B50C0F60400159137F084FC36F0BEFADF
:108A080038B1014641F60820C0F6040036F080FF70
:108A180005E042F2BC30C0F6040037F073FCBDF844
:108A2800540040F2A10400BA1499C2F20004000CE8
:108A3800208108BAC4F80A0014AA2E20062135F0AD
:108A48002FFE38B1014641F66910C0F6040036F031
:108A58005FFF19E042F2BE20C0F6040037F052FC76
:108A6800DDE91470C0F30721C2B2C7F30740C7F3AA
:108A78000726CDE9000641F625603B0EFFB2C0F699
:108A88000400029736F044FF40F6B032C0F6040204
:108A98001820102135F004FE38B1014641F61410B3
:108AA800C0F6040036F034FF05E042F27920C0F643
:108AB800040037F027FC40F6A032C0F60402082074
:108AC800102135F0EDFD38B1014641F6BF00C0F682
:108AD800040036F01DFF05E042F23420C0F6040021
:108AE80037F010FC01201F2135F0B2FD38B10146E6
:108AF80041F6CA10C0F6040036F00AFF05E042F25B
:108B08008E30C0F6040037F0FDFB35F0A1FC38B11B
:108B1800014641F66520C0F6040036F0F9FE05E08E
:108B280042F2F930C0F6040037F0ECFB0DF15E07B5
:108B380018AE0DF16203052000210722CDE9006778
:108B480035F020F938B1014641F63520C0F6040069
:108B580036F0DEFE05E042F2D930C0F6040037F008
:108B6800D1FBBDF86200BDF8601042F2D417C0F620
:108B7800040700220723009735F092FCBDF8620035
:108B8800BDF85E100DF14E0700220223009735F064
:108B980087FC00200221022236F01CF938B1014678
:108BA80041F61F30C0F6040036F0B2FE05E042F28E
:108BB8008340C0F6040037F0A5FB40F2F025C2F26E
:108BC80000050120287035F0B1F938B1014641F6A9
:108BD8005930C0F6040036F09BFE05E042F2AD4085
:108BE800C0F6040037F08EFB40F20110C0F600001A
:108BF8004BF20721C5F801001020C0F20101002244
:108C080008236871A9600127CDE90030CDE9022168
:108C18000120012101220023049735F0FBF838B127
:108C2800014641F69620C0F6040036F071FE05E0D4
:108C380042F21A40C0F6040037F064FBA87880B10D
:108C480035F080F838B1014641F6E020C0F604005E
:108C580036F05EFE05E042F25440C0F6040037F0FC
:108C680051FB41F6EC70C0F6040036F051FE42F2BA
:108C78000F30C0F6040037F045FB31F08DFD0020C1
:108C880085F880004FF6FF7048F60962E882C0F662
:108C980000020120002134F099FB2020A071062059
:108CA80035F0B0FC38B1014641F62F70C0F604002B
:108CB80036F02EFE05E041F67370C0F6040036F07B
:108CC80027FE0CF0A3FE0020002603F069FD2EF01D
:108CD80017FF4EF26972C0F603024FF4804000217C
:108CE80034F074FB4EF26D74C0F603044FF4004088
:108CF8000021224634F06AFB05F18301002000229E
:108D0800234612F09BFC48F6D16305F18101C0F6B9
:108D180000030020002212F091FC4BF6C11305F16C
:108D28008201C0F603030020002212F087FC40F203
:108D38009210C2F200000121017040F29010C2F2BC
:108D480000002E8301702DF03DFD20B142F252301B
:108D5800C0F604000AE0012000F0BAF895F8800097
:108D6800012805D042F20D50C0F6040037F0CAFAC7
:108D780019B0BDE8F08300BF3D3D3E3E204E46435E
:108D880020626F6F74206F70636F64652064657410
:108D980065637465643A203078253032780A0000BB
:108DA8003D3D3E3E204E464320626F6F74206F70FB
:108DB800636F646520756E6B6E6F776E2C20636CC5
:108DC800656172696E6700003D3D3E3E204E464338
:108DD80020626F6F74207265736375653A206D65E4
:108DE80073682070726F766973696F6E696E672039
:108DF80073746F72616765206572617365640000E2
:108E080010B540F2F024C2F2000494F8800005285E
:108E18000CD035F0AFF8002184F8801011A10AA217
:108E2800002808BF1146084636F072FD2DF0CAFC2E
:108E380020B115A0BDE8104037F064BA0220BDE8A3
:108E4800104000F045B800BF2A2A2053544F502044
:108E58004144564552544953494E47202A2A202016
:108E68000D0A0D002A2A2053544F502041445645DC
:108E780052544953494E47202A2A20204661696C9A
:108E88006564200D0A0D00003D3D3E3E20536B6990
:108E980070206C6F772D706F7765722061647665CE
:108EA80072746973696E6720726573746172743A5B
:108EB800204D657368206F776E73206164766572E4
:108EC800746973696E6700000120042134F092BB55
:108ED8002DE9F04188B040F29211C2F20001044637
:108EE80040F290100D78C2F200000678002D40F292
:108EF800F02818BF8025002EC2F2000818BFA0264F
:108F0800012C18BF4FF4C86598F8810018BF4FF4BA
:108F18007A6612F0C9FD022C15D198F88000013844
:108F2800012810D835F026F838B1014641F674000A
:108F3800C0F6040036F0ECFC05E042F26E10C0F614
:108F4800040037F0DFF940F2A000C2F20000007818
:108F580098F8181046F22C33002708F11902C2F2CB
:108F68000003CDE90070CDE90231CDE904270020E6
:108F7800294632460123069734F088FFC0B10546DA
:108F8800122801D00C2D2DD12DF01CFC58B141F622
:108F9800F540C0F60400294636F0BAFC88F880404F
:108FA80008B0BDE8F08141F6A240C0F604001DE01B
:108FB8001FA088F8804037F0A5F940F2A101C2F25D
:108FC80000010E2035F078F8C8B10146012C12BF17
:108FD80021A041F6AD60C0F6040008B0BDE8F0413C
:108FE80036F096BC41F69630C0F60400294636F0B5
:108FF8008FFC002088F8800008B0BDE8F081012CC3
:109008000DD123A036F084FC98F881004EF2460179
:10901800C0F2010108B0BDE8F04112F065BC41F6AC
:109028000270C0F6040008B0BDE8F04136F070BC2C
:109038003D3D3E3E206163695F6761705F736574A3
:109048005F646973636F76657261626C65202D2059
:1090580053756363657373003D3D3E3E20537461F1
:109068007274204C6F7720506F7765722041647658
:109078006572746973696E67204661696C656420FE
:109088002C20726573756C743A202564200A0D00D3
:109098003D3D3E3E20537563636573733A205374B8
:1090A80061727420466173742041647665727469D4
:1090B80073696E67200A0D0010B503F059FE044667
:1090C800062817D940F2FC1041F20001C2F2000054
:1090D800C1F2020141F2060241F20033C1F2070275
:1090E800C1F2013380E80E004FF6FF718181072C31
:1090F8000DD228E003F03CFE024644F24850C0F688
:1091080004000721022336F003FC072C1BD303F0CD
:109118002FFE044606280CD940F254203021C2F212
:109128000000C0F201014FF6FF72C0E900120020F2
:1091380006E044F20560C0F6040036F0E9FB0120C1
:10914800062C88BF10BD44F2C050C0F6040036F0AB
:10915800DFFB022010BD000010B546F25C34C2F2FD
:109168000004207820B103F07FFE0020207010BD9D
:10917800002004F031FF0EF08BFE0446002004F0BE
:109188002BFF0028FAD00EF083FE001BB0F57A7F83
:1091980008D94AF6C8404F21C2F20000C0F2AD011A
:1091A800016010BD152838BF10BDBDE8104003F0A0
:1091B8005BBE000041F6705040F61221C2F200007A
:1091C800C2F2000140F2AC4200780978C2F2000213
:1091D80012780843104300F00100704702207047DE
:1091E800002200200A8070477047000080B50020E8
:1091F80004F0E2FE002080BD40F2C640C2F200004A
:109208000078704741F66950C2F2000001210170F0
:1092180041F67150C2F200000022027041F6765207
:10922800C2F200020120117004F0B6BE80B541F60A
:109238006950C2F200000021017041F67650C2F276
:1092480000000170012004F097FE12F06DFE10B1CD
:1092580003F0EEFD10B303F0EBFDF0B940F2AC40C3
:10926800C2F200000078002808BF80BD40F6122036
:109278004AF6A541C2F200000122C2F200010978B3
:10928800027042F66030C0F6040036F041FB402020
:109298000021BDE8804034F0ADB980BD41F6705082
:1092A800C2F2000001780029F1D140F2AC41C2F2CB
:1092B800000101220978027000A0E6E750726F767B
:1092C8006973696F6E696E672073657373696F6E12
:1092D80020636F6D706C65746564202864697363BE
:1092E8006F6E6E6563742C20636F6E6669675F735B
:1092F80065656E3D2575290D0A0000000020704740
:1093080070470000B0B540F25A04C2F20004257854
:1093180003F0A0FC854209D942F66E40C0F604006D
:1093280036F0F0FFBDE8B04003F094BC2078002888
:1093380018BFB0BD02A036F0E5FF0120B0BD00BFE8
:109348004E756D626572204F6620456C656D656E61
:109358007473206D7573742062652031206F7220DC
:1093680067726561746572207468616E2031210DC1
:109378000000000001463020C0F2020008604FF4EF
:10938800857200208A80704780B501201F2135F042
:109398005FF9002818BF0120400080BD01464EF645
:1093A8007D40888041F6F850CAF64F60086045F263
:1093B8004B30C5F2A140C1F8060046F24430C2F273
:1093C8000000828803680020CA81C1F80A3070470B
:1093D80000207047014601A036F09ABA556E7072A7
:1093E8006F766973696F6E6564204E6F6465204996
:1093F80064656E746966696572207265636569760D
:1094080065643A20253032780A0D0000B0B546F27E
:109418004435C2F20005E91D00202A4635F0B2F8AD
:1094280018B1014618A036F073FA0DF0F7FE020ADB
:1094380028704FEA112C6A70020C000E2971691EFF
:10944800AA70E870EF2006220B4685F805C000BF19
:1094580013F8014F013A04EB4000F9D10322EA71F5
:10946800EF230622A87100BF11F8014F013A04EB5F
:109478004303F9D1C0B2D9B2081AB0FA80F0400952
:109488004CF0C0016971B0BD4661696C65642074B7
:109498006F2072656164205075626C696320416455
:1094A80064726573732025640000000080B54DF276
:1094B8006932C0F601020420002133F087FF04203E
:1094C800002134F097F84BF66112C0F600024020F4
:1094D800002133F07BFF40200021BDE8804034F0BC
:1094E80089B8000080B544F2D420C0F6040036F0F4
:1094F80009FF44F23110C0F6040036F003FF44F2CD
:10950800BD10C0F6040036F0FDFE44F2CF10C0F6E0
:10951800040036F0F7FE44F2AA10C0F6040036F054
:10952800F1FE44F27610C0F6040036F0EBFE44F289
:109538009710C0F6040036F0E5FE44F28310C0F63A
:10954800040036F0DFFE44F24810C0F6040036F09E
:10955800D9FE03F067FB014644F24100C0F604005F
:1095680036F0D6F903F050FB014644F23000C0F65D
:10957800040036F0CDF903F06DFB014643F6C670E2
:10958800C0F6040036F0C4F903F0F2FB014644F2D9
:109598005200C0F6040036F0BBF903F0D1FB0146D7
:1095A80043F6E070C0F6040036F0B2F903F0CAFBE7
:1095B800014643F6B270C0F6040036F0A9F903F08C
:1095C80033FB014644F26D00C0F6040036F0A0F902
:1095D80003F0A0FB014644F29400C0F6040036F004
:1095E80097F944F26210C0F6040036F08BFE43F699
:1095F800FF70C0F604000021012236F089F944F218
:109608007120C0F6040036F07DFE44F2E110C0F689
:10961800040036F077FE44F21720C0F6040036F056
:1096280071FE44F2F910C0F6040036F06BFE44F205
:109638002E20C0F6040036F065FE44F28120C0F604
:10964800040036F05FFE44F25220C0F6040036F003
:1096580059FE07A036F056FE0CA0012136F058F945
:1096680017A036F04FFE1EA0BDE8804036F04ABE77
:109678000A5B496D706F7274616E7420496E666F13
:10968800726D6174696F6E5D200D00004E756D62BC
:109698006572206F6620456C656D656E7473206514
:1096A8006E61626C656420696E204170706C6963DC
:1096B8006174696F6E3A202564200D0A000000006D
:1096C8004E65696768626F7572205461626C6520C7
:1096D800697320656E61626C6564200D000000008E
:1096E8002A2A2A2A2A2A2A2A2A2A2A2A2A2A2A2AD2
:1096F8002A2A2A2A0D0A0D0010B54AF6E040C2F2BD
:109708000000006804212FF07FF804462FF0DCFCED
:10971800010608BF2046002C18BF2046010608D0C5
:10972800C1B242F61B30C0F60400BDE8104036F066
:10973800EFB842F6BC40C0F60400BDE8104036F071
:10974800E1BD000000207047B0B543F2B245C0F655
:109758000405284600211C4632F080FF43F25040A1
:10976800C0F60400214636F0D3F82846002132F02E
:1097780075FF02A036F0C6FD0020B0BD2338323197
:1097880030210D00B0B5B0F9000040F2941203EB9F
:109798004301C2F20002322822F8210040F2AC1044
:1097A8001C46C2F200000CDB47F6F6410180016856
:1097B80042688368042013F05FFA002004F0ECFB91
:1097C80008E0016842688368022013F055FA002017
:1097D80004F0D2FB43F26125C0F6040528460021B7
:1097E80032F03CFF06A0214636F092F828460021C8
:1097F80032F034FF11A036F085FD0020B0BD00BF67
:1098080047656E657269635F4C6576656C44656C27
:1098180074615F5365742063616C6C6261636B2073
:10982800726563656976656420666F7220656C652C
:109838006D656E74202564200D0A000023383230CF
:1098480039210D00014640F29310C2F20000825CFB
:1098580000200A7070470000014602EB420040F207
:109868009412C2F2000212F8203002EB80000B7052
:1098780042784A7082788A70C2780020CA7070472D
:10988800014602EB820040F2A012C2F20002125C12
:1098980000200A707047000002EB820140F2A0121B
:1098A800C2F200020A445378014603709078487067
:1098B800D078887012790020CA707047014640F24B
:1098C800A610C2F2000010F8122000200A7070479B
:1098D800B0B5B0F900101C4603EB430240F29413F4
:1098E80040F2A81CC2F2000321EAE170C2F2000CA7
:1098F80023F8220040F64A12BCF80030C2F20002F7
:10990800108098424FF0000347F6F54298BF0123B4
:1099180091424FF00002C8BF012200251A430029D6
:10992800C8BF012505EA020140F64812C2F200024A
:10993800117047F6FF710022ACF800002FF0B4FF59
:1099480040F2AC13C2F20003188019685A689B6889
:10995800042013F091F943F2C525C0F60405284602
:10996800002132F07BFE43F22020C0F6040021469D
:1099780035F0CEFF2846002132F070FE04A02146C3
:1099880035F0C6FF022021462EF092F80020B0BD27
:10999800233832303621666F7220656C656D656ECE
:1099A80074496E646578202564200D0A0000000063
:1099B80000207047B0B540F2941C1C46016842680C
:1099C800806803EB4303C2F2000C0CEB8305A8602C
:1099D8006A6043F27925C0F604054CF8231028463E
:1099E800002132F03BFE06A0214635F091FF2846C3
:1099F800002132F033FE11A036F084FC0020B0BD07
:109A080047656E657269635F4C6576656C4D6F7608
:109A1800655F5365742063616C6C6261636B20726F
:109A28006563656976656420666F7220656C656D2F
:109A3800656E74202564200D0A000000233832303A
:109A48004221200D0000000070B51C46002B47D1B4
:109A5800027840F2A016B0F8013001F0FE05C2F21B
:109A68000006022D3270A6F8013015D140F2AC156F
:109A7800C2F200052B8029686A68AB680546042095
:109A880013F0FAF8B5F80310B6F80100A6F80310B9
:109A9800884225D108BB0FE0012908BF012A0FD051
:109AA80040F2AC10C2F20000012101800168426856
:109AB8008368022013F0E0F8002004F05DFA0FE05C
:109AC80040F2AC10C2F2000047F6F641018001688E
:109AD80042688368042013F0CFF8002004F05CFA91
:109AE80043F29025C0F604052846002132F0B6FD61
:109AF80043F29910C0F60400214635F009FF2846C4
:109B0800002132F0ABFD05A0214635F001FF012010
:109B180021462DF0CDFF002070BD00BF2338323024
:109B28003221666F7220656C656D656E74496E646E
:109B38006578202564200D0A000000002DE9F04F0B
:109B480081B043F2DD47C0F604070C46804638462C
:109B580000211E4632F082FD1CA0314635F0D8FEA9
:109B68003846002132F07AFD27A036F0CBFB44B30B
:109B780043F2DD4608F1020B08F1010A0025C0F6A0
:109B880004060EE0D94629A73046002132F066FDCA
:109B980099F80010384635F0BBFE0135E8B284422A
:109BA8000FD9E8B250B10228ECD00128F5D143F220
:109BB8009947D146C0F60407E6E700BFC14614A797
:109BC800E2E7002001B0BDE8F08F00BF47656E6591
:109BD8007269635F4F6E4F66665F53746174757325
:109BE8002063616C6C6261636B2072656365697682
:109BF800656420666F7220656C656D656E742025DE
:109C080064200D0A000000002338323034210D0092
:109C180050726573656E74204F6E4F66662076616C
:109C28006C75653A2025640A0D00000052656D6167
:109C3800696E696E672054696D652076616C75651B
:109C48003A2025640A0D000070B5007840F2A61687
:109C580043F2A825C2F20006C0F6040526F8130050
:109C6800284600211C4632F0F9FC0EA0214635F0AA
:109C78004FFE2846002132F0F1FC43F2DA10C0F61C
:109C88000400214635F044FE36F81400012805D1B9
:109C980045F28420C2F2000001210170FFF7A4FA06
:109CA800002070BD23383231332120666F72206561
:109CB8006C656D656E74496E646578202564200D49
:109CC8000A0000002DE9F04143F2F847C0F6040706
:109CD8000C460546384600211E4632F0BFFC12A04D
:109CE800314635F015FE3846002132F0B7FC1EA08B
:109CF80036F008FBACB143F2F8480026C0F6040879
:109D08001BA703E00136F0B284420AD93006F9D124
:109D18004046002132F0A2FC2978384635F0F8FD9B
:109D2800F0E70020BDE8F08147656E657269635F02
:109D3800506F7765724F6E4F66665F5374617475C6
:109D4800732063616C6C6261636B20726563656923
:109D580076656420666F7220656C656D656E74202B
:109D68002564200D0A0000002338323132210D000D
:109D78004F6E20506F7765722075702076616C7514
:109D8800653A2025640A0D0070B5018842880446AA
:109D980018A035F0BDFD617B43F69210C0F60400B3
:109DA80035F0B6FD607B002808BF01F021FD607B1F
:109DB800002818BF70BD1FA035F0AAFD207B88B110
:109DC80043F6A0650026C0F6040500BFA068017828
:109DD800284635F09DFDA068217B013601308E4272
:109DE800A060F3D344F29720C0F60400BDE87040A9
:109DF80036F088BA4170704B6579204164642072EE
:109E08006563656976656420666F72206E65744B5C
:109E18006579496E64657820252E32782C2061702A
:109E2800704B6579496E64657820252E3278200D4F
:109E38000A0000004170704B65792069733A200070
:109E480010B582B00446007A002808BF01F0D0FCA3
:109E5800217862686388247A43F60550C0F60400C6
:109E6800009435F055FD02B010BD000010B5044651
:109E78000188428843F61760C0F6040035F048FDB3
:109E8800617B43F69210C0F6040035F041FD607B1B
:109E9800002818BF10BDBDE8104001F0A9BC0000A3
:109EA80070B50188044617A035F032FDA17A43F653
:109EB8009210C0F6040035F02BFDA07A002818BFD8
:109EC80070BD1AA036F01EFA208990B143F6A0653D
:109ED8000026C0F6040500BF60680188284635F0F2
:109EE80017FD606801362189F2B202309142606044
:109EF800F2D844F29720C0F60400BDE8704036F06E
:109F080001BA00BF417070204B6579204C697374A9
:109F180020666F72206E65744B6579496E6465784A
:109F280020252E3278206973200D0A004170704B6D
:109F3800657920496E6465786573206172653A2099
:109F48000D00000010B582B00446007A002808BF52
:109F580001F04EFC217862686388247A43F66C50DD
:109F6800C0F60400009435F0D3FC02B010BD000028
:109F780070B504460188428843F6D550C0F60400FF
:109F880035F0C6FC617B43F69210C0F6040035F04C
:109F9800BFFC607B002808BF01F02AFC607B00281A
:109FA80018BF70BD10A035F0B3FC207B80B143F61C
:109FB800A0650026C0F60405A0680178284635F09B
:109FC800A7FCA068217B013601308E42A060F3D344
:109FD80044F29720C0F6040036F094F907A0BDE8D3
:109FE800704036F08FB900BF5570646174656420A5
:109FF8004170704B65792069733A20004974207765
:10A00800696C6C206265207265706C6163656420A0
:10A018006279206F6C64206170704B65792061668D
:10A02800746572204B657920526566726573682085
:10A038000D00000070B50188044618A035F068FCD2
:10A04800617B43F69210C0F6040035F061FC607B3A
:10A05800002808BF01F0CCFB607B002818BF70BD4A
:10A068001AA035F055FC207B80B143F6A065002688
:10A07800C0F6040560680178284635F049FC606838
:10A08800217B013601308E426060F3D344F2972081
:10A09800C0F60400BDE8704036F034B94E6574204F
:10A0A8004B657920416464207265636569766564EF
:10A0B80020666F72206E65744B6579496E646578A9
:10A0C80020252E3278200D0A000000004E65744BC2
:10A0D80065792069733A200010B50188044609A003
:10A0E80035F016FC617B43F69210C0F6040035F09B
:10A0F8000FFC607B002818BF10BDBDE8104001F0C0
:10A1080077BB00BF4E6574204B65792044656C654C
:10A11800746520726563656976656420666F722070
:10A128006E65744B6579496E646578202564200DE9
:10A138000A00000070B50446817943F69210C0F613
:10A14800040035F0E5FB10A036F0DCF8A08890B1EB
:10A1580043F6A0650026C0F6040500BF2068018804
:10A16800284635F0D5FB20680136A188F2B20230C6
:10A1780091422060F2D844F29720C0F60400BDE86E
:10A18800704036F0BFB800BF4E65744B6579204902
:10A198006E6465786573206172653A200D00000071
:10A1A80070B5018804461AA035F0B2FB617B43F60E
:10A1B8009210C0F6040035F0ABFB607B002808BFA6
:10A1C80001F016FB607B002818BF70BD1CA035F09D
:10A1D8009FFB207B80B143F6A0650026C0F60405EE
:10A1E80060680178284635F093FB6068217B01366A
:10A1F80001308E426060F3D344F29720C0F6040029
:10A2080036F080F813A0BDE8704036F07BB800BF88
:10A218004E6574204B6579205570646174652072B1
:10A228006563656976656420666F72206E65744B38
:10A238006579496E646578202564200D0A00000060
:10A2480055706461746564204E65744B6579206946
:10A25800733A000049742077696C6C20626520723B
:10A2680065706C61636564206279206F6C64206E30
:10A2780065744B6579206166746572204B65792039
:10A2880052656672657368200D000000B0B586B02F
:10A298000446417C43F69210C0F6040035F038FBC2
:10A2A8006089217B2278636894F80EC094F80FE0E7
:10A2B800257C647B8DE8015043F6A610C0F60400A7
:10A2C8000395049435F024FB06B0B0BD10B50446E0
:10A2D800407C002808BF01F08BFA6168227843F6B9
:10A2E800C140C0F6040035F013FB6068B0F5885F24
:10A2F80018BF10BD2046BDE8104030F0F9BB000083
:10A3080010B50446817A43F69210C0F6040035F081
:10A31800FFFAA07A002808BF01F06AFA94F80BC087
:10A3280043F6A72021786268238943F60134C0F6F2
:10A338000400C0F60404BCF1000F08BF2046BDE8C5
:10A34800104035F0E5BA000010B50446817A43F6AE
:10A358009210C0F6040035F0DBFAA07A002808BF96
:10A3680001F046FAE07A50B121786268238943F611
:10A378005330C0F60400BDE8104035F0C9BA207B60
:10A388002178626838B143F65960C0F60400BDE828
:10A39800104035F0BDBA238943F6B430C0F6040046
:10A3A800BDE8104035F0B4BA10B50446817A43F6DA
:10A3B8009210C0F6040035F0ABFAA07A002808BF66
:10A3C80001F016FA94F80BC043F609402178626848
:10A3D800238943F66944C0F60400C0F60404BCF1BE
:10A3E800000F08BF2046BDE8104035F091BA0000C4
:10A3F80045F60C71C2F200010A6802700A68120A76
:10A4080042704A888270CA78C2700020086070471B
:10A4180010B54DF23162C0F603020820002132F077
:10A42800D5FF47F2C014C2F200044DF23963C0F6FA
:10A43800030300202146002211F000F920784CF295
:10A448005821C0F2120111F04FFA31F025F849F203
:10A458006112C0F6000280200021BDE8104032F0F1
:10A46800B5BF0000B0B540F2AA14C2F20004012042
:10A4780020700020002503F08FFD4FF4FA700DF0D6
:10A488000BFA0020257003F077FD4FF4FA700DF0F9
:10A4980003FA0020B0BD000040F2AA10C2F200008A
:10A4A800007810B1002003F077BD002003F064BDF0
:10A4B800002070472DE9F04F81B043F65217C0F6DF
:10A4C80004070C460546384600211E4632F0C6F8F9
:10A4D80024A0314635F01CFA3846002132F0BEF887
:10A4E8002FA035F00FFF002C38D043F6521B43F253
:10A4F800A2780027C0F6040BC0F604080FF2C009C2
:10A508000FF2A40A002605E00A4635F001FA0136E2
:10A51800B44223D0052EFAD8DFE806F00C030C1756
:10A528000C0E5846002132F099F8687847EA002165
:10A538004046E9E7AF5DEAE75846002132F08EF879
:10A54800687947EA00215046DEE75846002132F094
:10A5580085F8E87847EA00214846D5E7002001B0A9
:10A56800BDE8F08F4C696768745F43746C5F44653D
:10A578006661756C745374617475732063616C6C77
:10A588006261636B20726563656976656420666FD6
:10A598007220656C656D656E74202564200D0A0057
:10A5A8002338323638210D0044656C7461205556C5
:10A5B8003A203078257820282564290A0D000000E3
:10A5C80054656D70657261747572653A20307825CE
:10A5D8007820282564290A0D000000000020704713
:10A5E8002DE9F04F81B043F2DC77C0F604070C4642
:10A5F8000546384600211E4632F030F843F218501E
:10A60800C0F60400314635F083F93846002132F0AF
:10A6180025F823A035F076FE002C3DD043F2DC7BF4
:10A6280043F2466A43F23B7843F2C4690027C0F616
:10A63800040BC0F6040AC0F60408C0F60409002694
:10A6480004E000BFAF5D0136B44225D086B126F0E4
:10A6580002000128F6D0042E11D0022EF3D158465C
:10A66800002131F0FBFFA87847EA002148460FE0B7
:10A678005846002131F0F2FF2978504608E0584644
:10A68800002131F0EBFF287947EA0021404600BF5E
:10A698000A4635F03DF9D6E7002001B0BDE8F08F55
:10A6A8002338323633210D00002070472DE9F04F52
:10A6B80081B043F64307C0F604070C460546384602
:10A6C80000211E4631F0CAFF34A0314635F020F98A
:10A6D8003846002131F0C2FF40A035F013FE002CAF
:10A6E80057D043F6430643F27B6A43F25F674FF065
:10A6F8000008C0F60406C0F6040A0FF2E80BC0F61C
:10A7080004074FF0000906E00A4635F001F909F19F
:10A7180001094C453DD0B9F1080FF8D8DFE809F038
:10A728000E2D0E110E1D0E0526003046002131F0AB
:10A7380095FFE87948EA00215846E5E715F80980C9
:10A74800E5E73046002131F089FFE87848EA002142
:10A7580043F22460C0F60400D6E73046002131F009
:10A768007DFF687948EA00215046CDE73046002150
:10A7780031F074FF297A3846C6E73046002131F0B7
:10A788006DFF687848EA002143F29F60C0F6040034
:10A79800BAE7002001B0BDE8F08F00BF4C696768D8
:10A7A800745F43746C54656D70657261747572651D
:10A7B8005F5374617475732063616C6C6261636B61
:10A7C80020726563656976656420666F7220656CC2
:10A7D800656D656E74202564200D0A0023383236B5
:10A7E80036210D005461726765742043544C20442F
:10A7F800656C74612055563A2030782578202825D4
:10A8080064290D0A00000000002070472DE9F04F70
:10A8180081B043F69607C0F604070C46054638464D
:10A8280000211E4631F01AFF33A0314635F070F88A
:10A838003846002131F012FF3DA035F063FD002CB1
:10A8480055D043F6960643F27B6B4FF00008C0F6EE
:10A8580004060FF2001AC0F6040B37A74FF00009E0
:10A8680007E000BF0A4635F053F809F101094C45E5
:10A878003DD0B9F1080FF8D8DFE809F00E2D0E1118
:10A888000E1D0E0526003046002131F0E7FEE8795E
:10A8980048EA00215846E5E715F80980E5E730461B
:10A8A800002131F0DBFEE87848EA002143F29F609E
:10A8B800C0F60400D6E73046002131F0CFFE6879B3
:10A8C80048EA00215046CDE73046002131F0C6FE67
:10A8D800297A3846C6E73046002131F0BFFE68784D
:10A8E80048EA002143F2DB60C0F60400BAE7002022
:10A8F80001B0BDE8F08F00BF4C696768745F4374AE
:10A908006C5F5374617475732063616C6C6261630E
:10A918006B20726563656976656420666F72206571
:10A928006C656D656E74202564200D0A00000000BA
:10A938002338323630210D0052656D61696E696EBB
:10A94800672054696D653A30782578202825642970
:10A958000D0A00005461726765742043544C204C02
:10A96800696768746E6573733A2030782578202893
:10A978002564290D0A000000002070470020704758
:10A988000020704700207047002070470020704763
:10A998000020704700207047002070470020704753
:10A9A800002070470020704740F21001C2F20001F9
:10A9B8000B2312FB0312137901460370527900200E
:10A9C8004A70704740F21001C2F200010B2312FBDB
:10A9D8000312937801460370D27800204A707047BA
:10A9E800014640F25C20C2F2000010F8123000EB81
:10A9F80042000B7040780B23487040F21000C2F2FE
:10AA0800000012FB030082788A70C2780020CA70A6
:10AA18007047000040F21001C2F200010B2312FB44
:10AA28000312937901460370D0794870107A8870C0
:10AA3800507AC870927A00200A71704740F2100C60
:10AA48000B230146C2F2000C02FB03F01CF80000C5
:10AA580012FB03C208705078487090788870D278DA
:10AA68000020CA7070470000002070472DE9F04FA1
:10AA780081B043F63417C0F604070C46054638463D
:10AA880000211E4631F0EAFD24A0314634F040FF93
:10AA98003846002131F0E2FD2FA035F033FC002CC0
:10AAA80038D043F6341B43F2A2780027C0F6040BD3
:10AAB800C0F604080FF2C0090FF2A40A002605E048
:10AAC8000A4634F025FF0136B44223D0052EFAD8C1
:10AAD800DFE806F00C030C170C0E5846002131F085
:10AAE800BDFD687847EA00214046E9E7AF5DEAE73F
:10AAF8005846002131F0B2FD687947EA00215046F6
:10AB0800DEE75846002131F0A9FDE87847EA002140
:10AB18004846D5E7002001B0BDE8F08F4C6967686A
:10AB2800745F48736C44656661756C745F537461D7
:10AB38007475732063616C6C6261636B207265630A
:10AB4800656976656420666F7220656C656D656EF3
:10AB580074202564200D0A002338323743210D0064
:10AB680053617475726174696F6E3A203078257814
:10AB780020282564290A0D004875653A2030782573
:10AB88007820282564290A0D00000000002070475D
:10AB98002DE9F04F81B043F66507C0F604070C466F
:10ABA8000546384600211E4631F058FD28A031469A
:10ABB80034F0AEFE3846002131F050FD32A035F0B9
:10ABC800A1FB002C3FD043F6650B00276FF002066F
:10ABD800C0F6040B0FF2B8090FF2CC0A4FF00008C8
:10ABE80006E000BF15F8087008F1010844452AD0AE
:10ABF80018EA060FF6D0B8F1040F17D0B8F1030F12
:10AC08000BD0B8F1010FEFD15846002131F026FDE5
:10AC1800687847EA0021504611E05846002131F093
:10AC28001DFDE87847EA0021484608E0584600211B
:10AC380031F014FD297943F26B70C0F604000A461E
:10AC480034F066FED0E7002001B0BDE8F08F00BF09
:10AC58004C696768745F48736C4875655F537461C5
:10AC68007475732063616C6C6261636B20726563D9
:10AC7800656976656420666F7220656C656D656EC2
:10AC880074202564200D0A002338323731210D0045
:10AC9800546172676574204875653A203078257864
:10ACA80020282564290A0D0050726573656E74208A
:10ACB8004875653A203078257820282564290A0DBA
:10ACC80000000000002070472DE9F04F81B043F6E6
:10ACD8002707C0F604070C460546384600211E46DD
:10ACE80031F0BCFC33A0314634F012FE3846002166
:10ACF80031F0B4FC3EA035F005FB002C55D043F6EE
:10AD0800270643F2B97A4FF00008C0F60406C0F6E9
:10AD1800040A0FF2081B38A74FF0000907E000BF2C
:10AD28000A4634F0F5FD09F101094C453DD0B9F169
:10AD3800080FF8D8DFE809F02F0E110E1D0E050ECA
:10AD480026003046002131F089FCA87948EA002124
:10AD58005846E5E715F80980E5E73046002131F067
:10AD68007DFCA87848EA002143F28770C0F6040009
:10AD7800D6E73046002131F071FC287948EA0021F5
:10AD88005046CDE73046002131F068FC287A48EA81
:10AD980000213846C4E73046002131F05FFC2978AD
:10ADA80043F25270C0F60400BAE7002001B0BDE8D3
:10ADB800F08F00BF4C696768745F48736C52616EAE
:10ADC80067655F5374617475732063616C6C62614D
:10ADD800636B20726563656976656420666F7220AF
:10ADE800656C656D656E74202564200D0A00000091
:10ADF8002338323745210D005361747572617469C7
:10AE08006F6E2052616E6765204D61783A20307808
:10AE1800257820282564290A0D00000053617475DF
:10AE2800726174696F6E2052616E6765204D696E3C
:10AE38003A203078257820282564290A0D0000005A
:10AE4800002070472DE9F04F81B043F6AD07C0F6FA
:10AE580004070C460546384600211E4631F0FEFB25
:10AE680028A0314634F054FD3846002131F0F6FB75
:10AE780034A035F047FA002C3FD043F6AD0B00273D
:10AE88006FF00206C0F6040B0FF2C0090FF2DC0ADD
:10AE98004FF0000806E000BF15F8087008F1010837
:10AEA80044452AD018EA060FF6D0B8F1040F17D097
:10AEB800B8F1030F0BD0B8F1010FEFD158460021BC
:10AEC80031F0CCFB687847EA0021504611E058463B
:10AED800002131F0C3FBE87847EA0021484608E042
:10AEE8005846002131F0BAFB297943F26B70C0F65D
:10AEF80004000A4634F00CFDD0E7002001B0BDE89C
:10AF0800F08F00BF4C696768745F48736C53617455
:10AF180075726174696F6E5F5374617475732063C1
:10AF2800616C6C6261636B207265636569766564E8
:10AF380020666F7220656C656D656E7420256420CF
:10AF48000D0A00002338323735210D00546172672D
:10AF580065742053617475726174696F6E3A20303C
:10AF680078257820282564290A0D00005072657319
:10AF7800656E742053617475726174696F6E3A20DE
:10AF88003078257820282564290A0D00002070478C
:10AF98002DE9F04F81B043F67F07C0F604070C4651
:10AFA8000546384600211E4631F058FB2AA0314696
:10AFB80034F0AEFC3846002131F050FB34A035F0B7
:10AFC800A1F9002C44D043F67F0643F26B7B00279F
:10AFD800C0F604060FF2DC090FF2BC0AC0F6040B37
:10AFE8004FF0000806E00A4634F092FC08F1010828
:10AFF80044452DD0B8F1060FF8D8DFE808F00D0465
:10B008000D200D1019003046002131F027FB68781B
:10B0180047EA00212DA0E6E715F80870E6E7304674
:10B02800002131F01BFB687947EA00215046DAE736
:10B038003046002131F012FBA9795846D3E7304653
:10B04800002131F00BFBE87847EA00214846CAE7BF
:10B05800002001B0BDE8F08F4C696768745F4873E1
:10B068006C5F5374617475732063616C6C626163A7
:10B078006B20726563656976656420666F7220650A
:10B088006C656D656E74202564200D0A0000000053
:10B098002338323738210D0048534C2053617475DA
:10B0A800726174696F6E3A2030782578202825649B
:10B0B800290A0D0048534C204875653A20307825F8
:10B0C8007820282564290A0D0000000048534C20E8
:10B0D8004C696768746E6573733A203078257820F8
:10B0E800282564290A0D0000B0B5054600881C46CD
:10B0F80000284FF0000002D002F04EFF01E002F0FD
:10B108003BFF40F210012888C2F200010B2243F2F3
:10B118000F4514FB0211C0F604058880284600215B
:10B1280031F09CFA09A035F0EDF82846002131F0FD
:10B1380095FA43F26930C0F60400214634F0E8FB82
:10B14800032021462CF0B4FC0020B0BD2338323552
:10B158003921200D000000002DE9F04381B043F6AD
:10B168000F17C0F604070C460546384600211E4650
:10B1780031F074FA43F2E150C0F60400314634F07D
:10B18800C7FB3846002131F069FA43F2D470C0F6A3
:10B19800040035F0B7F8ECB143F60F180026C0F6F6
:10B1A80004080FF2380900270EE000BF40460021CE
:10B1B80031F054FA687846EA002148460A4634F0E5
:10B1C800A7FB0137BC4205D0012FEFD0002FF8D1E3
:10B1D8002E78F6E7002001B0BDE8F0834C69676877
:10B1E800746E6573732044656661756C743A2030BB
:10B1F80078257820282564290D0A0000B0B540F28A
:10B208001002B0F80700C2F200020B2343F23144E7
:10B2180011FB0325C0F6040468802046002131F0A4
:10B228001DFA06A034F074FB2046002131F016FA0E
:10B23800698805A034F06CFB0020B0BD2338323596
:10B2480039210A0D000000004170706C695F4C697B
:10B258006768745F4C696768746E6573735F4C6187
:10B2680073745F536574204C69676874204C61730C
:10B27800742056616C7565203078252E3278200D43
:10B288000A0000002DE9F04381B043F67017C0F6BC
:10B2980004070C460546384600211E4631F0DEF903
:10B2A80017A0314634F034FB3846002131F0D6F986
:10B2B80043F2D470C0F6040035F024F8E4B143F644
:10B2C80070180026C0F604080FF2740900270DE074
:10B2D8004046002131F0C2F9687846EA0021484624
:10B2E8000A4634F015FB0137BC4205D0012FEFD0D8
:10B2F800002FF8D12E78F6E7002001B0BDE8F083E2
:10B308004C696768745F4C696768746E6573735FCE
:10B318004C6173745F5374617475732063616C6CF2
:10B328006261636B20726563656976656420666F28
:10B338007220656C656D656E74202564200D0A00A9
:10B348004C696768746E657373204C6173743A2036
:10B358003078257820282564290D0A00B0B5408862
:10B3680040F25C2143F2D435C2F20001C0F6040574
:10B3780021F81300284600211C4631F06FF943F2EA
:10B388002630C0F60400214634F0C2FA28460021CF
:10B3980031F064F902A034F0BBFA0020B0BD00BF60
:10B3A8002338323530210A0D000000002DE9F04F16
:10B3B80081B043F6CE07C0F604070C46054638466A
:10B3C80000211E4631F04AF943F29F50C0F60400AE
:10B3D800314634F09DFA3846002131F03FF926A075
:10B3E80034F090FF002C42D043F6CE0B43F2FE69B6
:10B3F80043F21C7A00276FF00206C0F6040BC0F671
:10B408000409C0F6040A4FF0000805E015F80870B2
:10B4180008F1010844452AD018EA060FF6D0B8F119
:10B42800040F17D0B8F1030F0BD0B8F1010FEFD10B
:10B438005846002131F012F9687847EA0021504651
:10B4480011E05846002131F009F9E87847EA00216F
:10B45800484608E05846002131F000F9297943F2BE
:10B468005F60C0F604000A4634F052FAD0E70020C4
:10B4780001B0BDE8F08F00BF2338323532210D000E
:10B48800B0B540F210021C460178C2F200020B234C
:10B4980014FB03229171D0F8010043F2B435C0F6D1
:10B4A8000405C2F807002846002131F0D7F808A0A3
:10B4B80034F02EFA2846002131F0D0F843F2DD208E
:10B4C800C0F60400214634F023FA0020B0BD00BFC6
:10B4D800233832354221200A0D0000002DE9F04FB3
:10B4E80081B043F60407C0F604070C460546384603
:10B4F80000211E4631F0B2F843F25E50C0F6040057
:10B50800314634F005FA3846002131F0A7F823A077
:10B5180034F0F8FE002C3DD043F6040B43F2466AA3
:10B5280043F23B7843F2C4690027C0F6040BC0F627
:10B53800040AC0F60408C0F60409002604E000BFA7
:10B54800AF5D0136B44225D086B126F0020001284D
:10B55800F6D0042E11D0022EF3D15846002131F036
:10B568007DF8A87847EA002148460FE058460021B0
:10B5780031F074F82978504608E05846002131F037
:10B588006DF8287947EA0021404600BF0A4634F0A2
:10B59800BFF9D6E7002001B0BDE8F08F2338323577
:10B5A80038210D00F0B581B043F2F536C0F6040637
:10B5B8000546304600211C46002731F04FF827A0E9
:10B5C80034F0A6F93046002131F048F82A88B5F859
:10B5D800073025A0214634F09BF940F21001288855
:10B5E800C2F200010B2214FB02136243885240F698
:10B5F8004A1240F2B816B5F80710C2F20002C2F2B9
:10B608000006002818BF0146128835885980AA42CA
:10B618004FF0000147F6F54398BF01219A4288BFD1
:10B6280001273943002A328018BF0122114040F611
:10B638004812C2F2000211704FF6FF7100222EF07C
:10B6480033F940F2AC11C2F2000108800320214610
:10B658002CF02EFA002001B0F0BD00BF23383234A0
:10B6680043210A0D00000000456C656D656E74206D
:10B67800696E6465782025642070726573656E74E0
:10B68800203078252E3278206C617374203078252C
:10B698002E32780D0A0000002DE9F04F81B043F6F4
:10B6A800F207C0F604070C460546384600211E4638
:10B6B80030F0D4FF2AA0314634F02AF93846002168
:10B6C80030F0CCFF35A034F01DFE002C43D043F6FB
:10B6D800F20B43F2FE6943F21C7A00276FF0020670
:10B6E800C0F6040BC0F60409C0F6040A4FF00008BF
:10B6F80006E000BF15F8087008F1010844452AD093
:10B7080018EA060FF6D0B8F1040F17D0B8F1030FF6
:10B718000BD0B8F1010FEFD15846002130F09EFF51
:10B72800687847EA0021504611E05846002130F079
:10B7380095FFE87847EA0021484608E05846002186
:10B7480030F08CFF297943F25F60C0F604000A46A6
:10B7580034F0DEF8D0E7002001B0BDE8F08F00BF7C
:10B768004C696768745F4C696768746E6573735F6A
:10B778005374617475732063616C6C6261636B20D0
:10B78800726563656976656420666F7220656C65AD
:10B798006D656E74202564200D0A0000233832344C
:10B7A80045210D00B0B54AF6E040C2F2000000683D
:10B7B80004212DF029F805462DF086FC04460006E4
:10B7C80008BF2C46002D18BF2C46200608D042F68C
:10B7D8001B30E1B2C0F6040034F09AF8E0B2B0BD14
:10B7E80042F6BC40C0F6040034F08CFDE0B2B0BDB7
:10B7F80010B501F01DFB002818BF10BD40F2AC4485
:10B80800C2F20004207810B902A034F07BFD0120B8
:10B81800207010BD436F6E66696720536572766548
:10B8280072206D75746174696F6E206163636570F1
:10B838007465643A2066756C6C20636F6D6D69740D
:10B848002072657175697265640D000080B510F02D
:10B858006BFB18B310F06EFB00B341F67150C2F2E7
:10B8680000000178002918BF80BD012101700BF08C
:10B87800F7FC012802D003200AF0B2F80AA034F03D
:10B8880041FD002000212AF017FE40B942F60E5073
:10B89800C0F60400BDE8804034F034BD80BD6420AB
:10B8A8000BF0FAFF32F004FA50726F766973696F21
:10B8B8006E696E672073657373696F6E2074696D46
:10B8C800656F75743A2072657475726E20746F2096
:10B8D8006C656761637920474154540D000000008E
:10B8E80081B08DF803004AF6CC40C2F2000000682F
:10B8F800406801B070470000B0B583B094468E46EA
:10B90800044609980899079A02948DF807E08DF87B
:10B9180006C0ADF80430ADF802208DF801108DF89E
:10B9280000000299012008700299002048700299CD
:10B9380088700299C8700299087103B0B0BD000000
:10B9480081B08DF803004AF6CC40C2F200000068CE
:10B95800006901B070470000B0B541F67054C2F2FA
:10B968000004207840F61225C2F2000520B9287894
:10B9780010B9FFF76BFF11E02CF0F2FF4AF6A54172
:10B98800C2F2000109780246084300060CD042F6CC
:10B998003230C9B2C0F6040033F0BAFF40200021AB
:10B9A800BDE8B04031F026BE10F0BEFA88B10020E4
:10B9B8002070287001202FF0E1FF022000212AF0DA
:10B9C8007BFDC0B942F6C840C0F6040034F09AFCCA
:10B9D800CFE728780128CCD140F2AC410020C2F250
:10B9E800000128702070087007A034F08BFCBDE8B7
:10B9F800B0402AF091BE12A034F084FCFA200BF07B
:10BA08004BFF32F055F900BF4D65736820636F6EC8
:10BA180066696775726174696F6E20636F6D6D69B1
:10BA2800747465643A20636F6E74726F6C6C6564CD
:10BA38002050726F787920726573746172740D008A
:10BA480050726F766973696F6E696E6720636F6D88
:10BA58006D69747465643A207265626F6F742074DE
:10BA68006F204D657368206F7065726174696F6EC1
:10BA7800616C0D0041F67650C2F200000078002893
:10BA880018BF704780B501F0A7FD0A200BF004FF2E
:10BA9800FDF732FE002009F0A3FF42F64540C0F64C
:10BAA800040034F02FFC01F0BFFB32F001F9000074
:10BAB80080B582B08DF807004AF6D440C2F2000083
:10BAC800006801699DF80700884702B080BD000042
:10BAD8002DE9F04F8FB0834600284FF0030000F0A7
:10BAE80013810D46002900F00F8140F290389BF831
:10BAF80000A045F24829C2F200080120C2F200095C
:10BB0800A8F800008FA0002189F800A0002730F0D5
:10BB1800A5FD9BF8001091A02A4633F0F9FE94A6E3
:10BB2800002400BF1BF80710304633F0F1FE013443
:10BB3800A7B2BD42F6D842F2EE00C0F6040033F0D8
:10BB4800E7FEAAF1010127294FF0010000F2DC808D
:10BB5800DFE811F02800DA00DA00DA00DA00DA00AB
:10BB6800DA00DA00DA00DA00DA00DA00DA00DA00FD
:10BB7800DA00990093009000DA00DA00DA00DA00BF
:10BB8800DA00DA00DA00DA00DA00DA00DA00DA00DD
:10BB9800DA0047006D00A800B300D200BA003600F2
:10BBA8007A0059003C2D00F2B78045F24820C2F2D5
:10BBB800000059462A46FBF7C0FBA8F80050A2E04F
:10BBC8000BF076FB0446FBF7F6FBC5B2102D28BF39
:10BBD800102509F1010021462A46FBF7AEFB681C37
:10BBE8008FE0022DC0F098809BF8010069468DF81F
:10BBF80000004AF6C400C2F2000001224FF47A7332
:10BC08000EF07EFC7FE0012D40F0868068462AF029
:10BC18000DFB012089F80100BDF80000DDF80210D5
:10BC2800029AA9F802000C20C9E9011269E0032D63
:10BC380072D39BF8010004287CD003286CD19BF8B0
:10BC480002002FF015FE5EE0052D60D1DBF8011033
:10BC580003202AF031FC002862D0002089F8010076
:10BC6800DBF80100C9F802000620A8F800002AF055
:10BC780053FD48E00BF09CFA40E068463B210BF08E
:10BC8800B5FA30B952E068463B210BF097FA002824
:10BC98004CD0044609F1010069462246FBF74DFBEA
:10BCA800601C2EE0022D37D39BF80100042846D0F3
:10BCB800032831D10BF0F0FA20E0022D2CD39BF8A9
:10BCC80001002FF06DFD1EE0A5F1120010F1100F1C
:10BCD80022D3681E00216C468DF81010CDE90211A0
:10BCE800CDE900110BF10101C2B22046FBF725FB9B
:10BCF80020462FF0FDFD06E00BF098FA89F80100C8
:10BD08000220A8F8000000200FB0BDE8F08F89F8E5
:10BD180001000220A8F8000003200FB0BDE8F08F52
:10BD2800042089F801000220A8F8000001200FB0C3
:10BD3800BDE8F08F9BF802002FF0BAFDE3E70BF0A7
:10BD4800B1FADBE74170706C695F56656E646F72BB
:10BD58005F446174615F7772697465002330452DB3
:10BD68002530326878202530326C7821200A0D0081
:10BD780025303268782000002DE9F04F83B0054661
:10BD8800067845F24820C2F20000067042F66C6060
:10BD9800C0F604000021002430F060FC297853A08C
:10BDA80033F0B6FD701E032800F29A80DFE800F039
:10BDB80002084C9940F29030C2F2000002218CE057
:10BDC80000F02AFF04783CB342F66C68471C002553
:10BDD8000DF102090FF23C1AC0F604080FF2481BD5
:10BDE80013E000BFE0B201F03BF8044609F8060092
:10BDF8005E464046002130F031FC3046214633F0A3
:10BE080087FD17F8014B013534B1EEB22E2C09F835
:10BE18000640E7D15646ECE7BDF8020045F2482255
:10BE2800BDF80510C2F20002A2F801009DF8080052
:10BE3800A2F80310BDF80910507140F29030D1807B
:10BE4800C2F20000082148E000F0E0FE04785CB38C
:10BE580042F63C6B42F66C69471C00250DF1020A5C
:10BE6800C0F6040BC0F604090FF290080DE000BFFD
:10BE78005E464846002130F0F1FB3046214633F05B
:10BE880047FD17F8014B013574B1EEB22E2C0AF8B4
:10BE98000640EDD0522CEBD0E0B200F0E1FF0446B2
:10BEA8000AF806004646E4E7BDF8020045F24827CE
:10BEB800C2F20007A7F801009DF805009DF80710D9
:10BEC8009DF809209DF80B30F87040F290303971D8
:10BED8007A71BB71C2F2000007210180002400E0E2
:10BEE8000124204603B0BDE8F08F00BF2330322D77
:10BEF800253032687821200A0D0000005375622031
:10BF08004C69622076657273696F6E2069732025AB
:10BF1800780A0D004C69622076657273696F6E202D
:10BF280069732025630A0D004C6962207665727377
:10BF3800696F6E2069732025780A0D002DE9F0439A
:10BF480081B0064690F8008042F65460C0F60400BE
:10BF580000211546002730F081FB31787CA033F0B2
:10BF6800D7FCA8F1010005284FF0010900F2CE80A6
:10BF78000024DFE800F003502ACC718D42F65460AB
:10BF8800C0F6040000214FF0000930F067FB42F6CC
:10BF98009150C0F60400294633F0BAFC40F2AC10C8
:10BFA800C2F2000047F6F6410180016842688368E2
:10BFB800042010F061FE002001F0EEFF40F2AA100C
:10BFC800C2F20000012101709FE042F65460C0F601
:10BFD800040000214FF0000930F040FB42F6C75042
:10BFE800C0F60400294633F093FC40F2AA14C2F2CA
:10BFF80000042078012874D140F2AC10C2F200008D
:10C0080001210180016842688368042010F034FE31
:10C0180084F800901EE042F65460C0F60400002147
:10C028004FF0000930F01AFB5DA0294633F070FC90
:10C0380040F2AC10C2F200000121018001684268A0
:10C048008368042010F018FE40F2AA10C2F2000023
:10C0580080F80090002018E042F65460C0F6040012
:10C06800002130F0FBFA42F60160C0F604002946D0
:10C0780033F04EFC707840F2AA11C2F20001012898
:10C0880008703DD000204FF0000901F075FF3CE03A
:10C0980042F65460C0F60400002130F0DFFA30A008
:10C0A800294633F035FC7778B47847F6FF7147EACC
:10C0B800042000222DF0F8FB054640F2AC10C2F235
:10C0C80000000580016842688368042010F0D4FDF0
:10C0D80000204FF00009B5F57A5F35D901F05CFF13
:10C0E80015E040F2AC10C2F2000047F6F6410180BC
:10C0F800016842688368042010F0BEFD01202070AA
:10C1080000204FF0000901F047FF0027002445F206
:10C118004820C2F20000B8F1060F80F8008003D171
:10C1280044708770032106E040F2AA11C2F20001B0
:10C1380009784170022140F29032C2F2000248466A
:10C14800118001B0BDE8F08301F016FFDFE700BF02
:10C158002330332D2530326878210A0D0000000085
:10C168004170706C695F4C45445F496E74656E73CD
:10C178006974792063616C6C6261636B20726563BA
:10C18800656976656420666F7220656C656D656E9D
:10C1980074496E646578202564200D0A000000004B
:10C1A8004170706C695F4C45445F4F46462063613F
:10C1B8006C6C6261636B2072656365697665642087
:10C1C800666F7220656C656D656E74496E6465781E
:10C1D800202564200D0A0000B0B584B001F004FAEF
:10C1E80028B1002001F0D8FE012004B0B0BD002025
:10C1F800002501F0C1FE40F20C22C2F20002136CCD
:10C20800108892F844100124CDE90035931C0E22C1
:10C21800029401F0CFF804B0B0BD0000F0B581B0D1
:10C2280040F20C270E46C2F2000715460146B81C1C
:10C2380032461C46FBF781F800203C803E643C2EC9
:10C2480088BF032087F8445001B0F0BD2DE9F041C4
:10C258000446077845F2482842F684600D46C2F243
:10C268000008C0F60400002188F80070002630F0AD
:10C27800F5F9217820A033F04BFBF81E032837D3BB
:10C28800022F19D0062F32D19DB142F2EE070021BC
:10C298000FF27408C0F60407002600BF625C40462F
:10C2A80033F036FB384633F033FB0136F1B28D42BA
:10C2B800F4D80020BDE8F0813D2D0AD342F6846011
:10C2C800C0F60400002130F0C9F913A034F01AF8C0
:10C2D8003C25611C6A1E08F10100FBF72EF840F2AC
:10C2E8009030C2F2000005800020BDE8F0810126F0
:10C2F8003046BDE8F08100BF2330312D253032684B
:10C308007821200A0D000000646174615B25645D7A
:10C318003D202564000000004C656E67746820723B
:10C328006563656976656420677265617465722006
:10C338007468616E2073697A65206F662072657310
:10C34800706F6E736520627566666572200D0000F9
:10C3580040F2FC12C1EBC101C2F2000202EB410142
:10C36800002200BF31F81230984204BF0120704704
:10C378000132072A04BF00207047F3E740F2542235
:10C38800C2F2000202EBC101002200BF51F82230C4
:10C39800984204BF012070470132012A1CBF0020C7
:10C3A8007047F3E70020704710B540F2FC12C1EB6C
:10C3B800C101C2F2000202EB410100244FF6FF72F4
:10C3C80031F81430934203D00134072CF8D10724F4
:10C3D8006200FAF7B2FFE0B210BD000010B540F2FB
:10C3E8005422C2F2000202EBC10100244FF6FF7290
:10C3F80051F82430934203D00134012CF8D00224A0
:10C40800A200FAF79AFFE0B210BD0000B0B588B0FC
:10C41800DDF844C0DDF840C0DDF83CC0DDF838C0C8
:10C42800DDF834C0DDF830C007900691059204931A
:10C438000EF040FD06980EF08DFD05980499109AAF
:10C44800119BDDF83CC00D9CEE460025CEF8085047
:10C45800CEF80440CEF800C00EF01EFC0E980F99DE
:10C46800079A0EF08FFB0C980D990EF067FB03905E
:10C478000EF0F8FC039808B0B0BD0000B0B588B065
:10C48800DDF844C0DDF840C0DDF83CC0DDF838C058
:10C49800DDF834C0DDF830C00790069105920493AA
:10C4A800002003900EF006FD04980EF053FD0C9842
:10C4B8000D99109A119BDDF83CC0059CEE460125AC
:10C4C800CEF80850CEF80440CEF800C00EF0E4FBD9
:10C4D8000E980F99079A0EF055FB069805990EF0DD
:10C4E800CBFB0EF0BFFC039808B0B0BD80B592B08E
:10C4F800119010910F920E9340F26020C2F200004A
:10C508000D9000200B9010980290119820B1FFE731
:10C51800119800F0FFF8FFE70E9890B1FFE70F9829
:10C5280000F00F000B900F9830B1FFE70B9818B987
:10C53800FFE710200B90FFE70B990F98401A0F9018
:10C54800FFE7FFE70F9870B3FFE7029B1868596889
:10C558009A68DB680A93099208910790FFE70798A1
:10C5680000BA0D99096848400790089800BA0D99D3
:10C57800496848400890099800BA0D998968484068
:10C5880009900A9800BA0D99C96848400A90FFE7CF
:10C598000D9907A800F0B4F80298103002900F988F
:10C5A80010380F90CEE70E98002800F08180FFE742
:10C5B80000200A900990089007900C90FFE70C98CB
:10C5C8000B99884213D2FFE702990C98095C032261
:10C5D8008243D20001FA02F320F0030207A9885827
:10C5E80018438850FFE70C9801300C90E7E70020CB
:10C5F800069005900490039003A90191084600F065
:10C608007FF8019800F056F80B980F2811D8FFE72B
:10C618000B9803218143CA00802101FA02F320F01C
:10C62800030207A988581843885003A800F042F865
:10C63800FFE700200C90FFE70C98032814D8FFE7C9
:10C648000D980C9A50F8220003A951F8221080EA9C
:10C65800010307A951F82200584041F82200FFE7DA
:10C668000C9801300C90E7E70D9907A800F048F8FE
:10C678000EF0F8FBFFE70D98006800BA07900D98D8
:10C68800406800BA08900D98806800BA09900D9823
:10C69800C06800BA0A90FFE70E990798089A099BA4
:10C6A800DDF828C0C1F80CC08B604A600860FFE75D
:10C6B80012B080BD82B0019001980068C00F872138
:10C6C80048430090019908684A68400040EAD270DF
:10C6D8000860019948688A68400040EAD27048605A
:10C6E80001998868CA68400040EAD2708860019958
:10C6F800CA68009880EA4200C86002B0704700002B
:10C7080080B582B001900091019800990EF09CFBD1
:10C7180002B080BD80B584B0039040F26020C2F2C0
:10C72800000002900EF0C6FB03980EF013FC0020E8
:10C7380001900EF039FC01980299C860029988604E
:10C74800029948600299086004B080BD80B588B03D
:10C758000790069105920EF0ADFB07980EF0FAFBD4
:10C7680004200EF021FC069B186859689A68DB685B
:10C77800049303920291019001A908460EF064FB0C
:10C788000EF070FB05990198029A039BDDF810C022
:10C79800C1F80CC08B604A60086008B080BD00001A
:10C7A80010B54CF2E1720446C0F600024FF4806006
:10C7B800002130F00BFE40F2F803C2F200034FF004
:10C7C800640C03EB840242F61920214623F824C0A6
:10C7D800BDE8104000F0A6B840F2F802C2F200022C
:10C7E80042F61920002100F09DB8000040F2F8013F
:10C7F800C2F20001CA780880012A18BF70474FF4B6
:10C808008060032130F0F6BE80B582B04178FF2900
:10C8180002D0002002B080BDB0F8031040F61442E8
:10C82800914212D040F601429142F2D140F22811D1
:10C83800C2F200014988B0F8072002319142E8D1DC
:10C84800407B012121EA00000EE040F22811C2F2EB
:10C8580000014988B0F8072001319142D9D1B0F8D8
:10C86800050031F025FD02208DF8060000208DF826
:10C8780007000DF1060000F035F8012002B080BD78
:10C88800F0B587B04CF61100C0F600002DF094FF0B
:10C8980041F60F0040F228150DF11A04ADF81A0000
:10C8A800C2F2000501202146012204230095012639
:10C8B800042731F09DFC42F6192135F8020BADF83A
:10C8C8001A100A2100221223CDE90032CDE90271A3
:10C8D8000121224601230496059531F019FC07B081
:10C8E800F0BD00000078022812D0012809D00028E5
:10C8F80018BF704740F2F800C2F200000121C17071
:10C90800704740F2F800C2F200000021C170704781
:10C9180040F2F802C2F2000242F61920002100F0AB
:10C9280001B80000944642F61922904218BF704799
:10C9380080B582B001EB410040F22811C2F200013B
:10C9480001EB400231F81000518800220123CDF894
:10C9580000C031F0A5FD02B080BD000082B000909B
:10C96800009820B9FFE703208DF8070009E0009838
:10C978004AF6A841C2F20001086000208DF80700BD
:10C98800FFE79DF8070002B07047000082B00090F2
:10C99800009820B9FFE703208DF8070009E0009808
:10C9A8004AF6D441C2F20001086000208DF8070061
:10C9B800FFE79DF8070002B07047000080B582B01D
:10C9C80001908DF80310019820B1FFE79DF803004E
:10C9D80020B9FFE702208DF802000CE04BF6145056
:10C9E800C2F20000006801999DF8032005F040F8A4
:10C9F8008DF80200FFE79DF8020002B080BD00003C
:10CA080080B50FF091FA002808BF80BD41F670513B
:10CA1800C2F20001087830B9012203A00A70BDE80B
:10CA2800804033F06FBC80BD50726F766973696F58
:10CA38006E696E6720636F6E666967757265643AC2
:10CA48002077616974696E6720646973636F6E6EBD
:10CA580065637420666F72204E564D20636F6D6D4E
:10CA680069740D000622028040F20012C0F2023200
:10CA7800C0F8022004228271072008707047000065
:10CA880083B0029001918DF803208DF8023003B035
:10CA98007047000010B5044608A032F039FF601E48
:10CAA800C0B2022899BF13A151F8200042F6F03015
:10CAB800C0F60400BDE8104033F024BC4672696536
:10CAC8006E647368697020636C65617265642E209A
:10CAD8004C6F7720706F776572206E6F6465206188
:10CAE800646472657373203078252E3458200D0ADB
