:020000040800F2
:1070000038CB0020BD7200081D620308B9B1010829
:10701000E9C60108ED4C0108C9B1030800000000F1
:10702000000000000000000000000000918503083F
:1070300019540108000000008D710308C194030871
:10704000D7720008D7720008D7720008D5740308F9
:10705000D7720008D7720008D7720008D7720008EC
:10706000D7720008D7720008D7720008D7720008DC
:10707000D7720008D7720008D7720008D7720008CC
:10708000D7720008D7720008D7720008D7720008BC
:10709000D7720008D7720008D7720008AD540108F3
:1070A000D7720008D7720008D7720008D77200089C
:1070B000D7720008D7720008D7720008D77200088C
:1070C000D7720008D7720008D7720008D77200087C
:1070D00041AE030831B60108D7720008D772000824
:1070E000D7720008D7720008D7720008D77200085C
:1070F000A9B40108ADB40108D5A00108D7720008F1
:10710000D7720008D7720008D7720008D77200083B
:10711000D7720008D7720008D7720008D77200082B
:10712000D7720008D772000875530108D77200089B
:10713000D7720008D7720008D7720008000000005C
:10714000C81B04080000000081C201120812484A4E
:107150000C0412303B08051C1A041059041428189A
:107160000222B042201A270C5AD00C1A0302292CF2
:10717000137C521420A4541420CC561420F4581814
:107180000B2025790308F17A03082504180A997859
:107190000308ED770308A90C1EF57D0308FF011114
:1071A00013093D290812011A024212041205120E97
:1071B000B6090DFF018314DD2A021A145D45D53886
:1071C00001083CDE2A08105AF110DADB20DADC2054
:1071D0001A010C029B1000000000000000000000DB
:1071E000000000000000000000000000000000009F
:1071F000000000000000000000000000000000008F
:1072000001FF01FF01FF01FF01FF01FF01FF01FF7E
:0872100001FF01FF014A00002B
:020000040800F2
:1072A800DFF80CD000F002FD00480047D5CE0308F7
:1072B80038CB00200648804706480047FEE7FEE72F
:1072C800FEE7FEE7FEE7FEE7FEE7FEE7FEE7FEE78E
:1072D80069950308A97200082DE9F05F05460020AA
:1072E80092469B4688460646814640241BE028462F
:1072F80041464746224600F096FB53465A46C01A76
:10730800914110D311461846224600F07DFB2D1AF4
:1073180067EB01084F4622460120002100F074FB6C
:1073280017EB00094E41201EA4F10104DFDC48469A
:1073380031462A464346BDE8F09F10B5431A9342AA
:1073480009D28318881803E010F8011D03F8011DFD
:10735800521EF9D210BD40EA01039B0703D009E091
:1073680008C9121F08C0042AFAD203E011F8013B29
:1073780000F8013B521EF9D210BDD2B201E000F86C
:10738800012B491EFBD270470022F6E710B51346C1
:107398000A4604461946FFF7F0FF204610BD10B50F
:1073A800044604E00B7800F8013B03B1491C521E67
:1073B800F8D2204610BD421C10F8011B0029FBD151
:1073C800801A7047CBB203E00178994203D0401C81
:1073D800521EF9D20020704730B5044600200346FB
:1073E80000E05B1C934203D2E05CCD5C401BF8D00C
:1073F80030BD30B505460020034600E05B1C9342D3
:1074080005D2EC5CC85C201A01D1002CF6D130BD45
:107418000FB400B58DB010A909900B9000914FF0F2
:10742800FF300A9000200C90054806900548079008
:107438006A4609A80F9900F02DFB0DB05DF814FB02
:10744800B97A0008D77A00082DE9FF5F1D464FF08A
:10745800FF3BD5E9014691465F464FF00008A96910
:107468007F1C01988847296A824688470028F6D1F8
:10747800BAF1FF3F0CD024F4C064002E19DD600679
:1074880014D5BAF12B0F09D0BAF12D0F0ED103E0A4
:10749800584604B0BDE8F09F44F48064A9697F1C95
:1074A80001988847761E8246002E02DDBAF1300F19
:1074B80003D0B9F1000F26D032E0A969761E44F452
:1074C80000747F1C019888478246002E05DDBAF1BA
:1074D800780F06D0BAF1580F03D0B9F1000F10D0C9
:1074E8001EE0B9F1000F02D0B9F1100F18D1A96947
:1074F800761E24F400747F1C019888478246102069
:1075080002E0082000E00A20814609E008FB09089B
:10751800A969761E44F400747F1C01988847824646
:10752800002E05DD4946504600F09FFA0028EDDAA6
:10753800E96901988847A00502D46FF00100A8E71F
:10754800E00725D1600613D5600502D5C8F1000013
:1075580000E0404629680A1D2A600968220501D50D
:10756800087015E0220701D5088011E008600FE0D7
:107578002868011D29600068210502D580F800806F
:1075880006E0210702D5A0F8008001E0C0F80080DD
:1075980038467EE72DE9FF5FD2E901A74FF00008E2
:1075A800916999461446DDF838B0464601988847EF
:1075B800054659EA0B0005D009E0A169761C019837
:1075C80088470546216A284688470028F5D1681C5F
:1075D80003D05FEACA7005D015E04FF0FF3004B061
:1075E800BDE8F09F2068011D2160D0F800800AE006
:1075F8005FEACA7001D108F8015BA169761C7F1E99
:10760800019888470546002F1ADD681C18D0B9F183
:10761800000F0DD0E81705EBD060421120F01F00D5
:1076280059F822102A1A012090400142E0D107E0BF
:10763800BBF1000FDCD1216A284688470028D7D043
:10764800E16901988847BBF1000F07D1002E05DDDD
:107658005FEACA7002D1002188F80010A068B84219
:1076680003DDBBF1000F03D017B16FF00100B6E7DF
:107678003046B4E72DE9FE4F804681EA0300C00F8B
:107688000C46009021F0004123F00045B8EB0200C1
:10769800A94105D24046214690461C460B46024663
:1076A80023F00040104347D0270DC7F30A00C3F367
:1076B8000A510290401A019040286BDAC3F3130074
:1076C80040F4801B0098924620B10023D2EB030AB5
:1076D80063EB0B0B01985946C0F14002504600F08D
:1076E80093F906460D4650465946019A00F0ABF903
:1076F80010EB08006141002487EA115284EAE7731D
:107708001A4340D0009A62B3019A012A4FEA0752FD
:1077180015DC001B61EB02014FF0004202EA075240
:10772800CDE90042001C41F5801132462B4600F09D
:10773800EEF903B0BDE8F08F40462146F9E7001B9B
:1077480061EB0201001C41F5801300185B41201811
:10775800A2F5001747EB030140EAD570B6196D4151
:1077680011E06D084FEA360645EAC0754FEA075240
:10777800001B61EB0201001C41F5801149084FEA2A
:1077880030000019514132462B4603B0BDE8F04F96
:1077980000F0AEB90098012240000023D0EB0202AD
:1077A80063EBE073009821464FEAE074B8EB000001
:1077B80061EB0401E9E783F000435BE781F00041F6
:1077C80058E72DE9FE4F81EA030404F0004421F054
:1077D800004100944FF0000B23F0004350EA0104ED
:1077E8005ED052EA03045BD0C3F30A54C1F30A55CE
:1077F8002C44A4F2F3340194A0FB0254C1F3130106
:1078080041F48011C3F3130343F4801301FB0244D2
:1078180000FB034E840A970A44EA815447EA8357D7
:10782800A4FB076802958D0A05FB07854FEA932C90
:1078380004FB0C542705029D4FEA065847EA163701
:10784800B5EB08056EEB070C870E920E47EA811719
:1078580042EA8312A7FB0201B6EB0B0164EB0004BA
:107868002B0D43EA0C335E1844EB1C50DA465146A4
:10787800E7FB0201C5F313044FEA0B3343EA145341
:107888004FEA0432019C43EA0603A4F10C04029473
:10789800009CCDE900B400F03AF903B0BDE8F08FE0
:1078A80000200146F9E72DE9F04D81EA030404F0D0
:1078B800004B21F0004514464FF0000A23F0004128
:1078C80050EA050220D054EA01021DD0C5F30A5738
:1078D8000246C5F31303C1F31300C1F30A5640F47B
:1078E800801543F48013A7EB0608101BD64608F250
:1078F800FD3873EB050002D308F1010801E0921886
:107908005B41B8F1000F03DA00200146BDE8F08DB5
:1079180000204FF48011064684460EE0171B73EBD7
:10792800050705D3121B63EB050306434CEA010C5C
:1079380049084FEA300092185B4150EA0107EDD13F
:1079480052EA030012D082EA040083EA05010843E0
:1079580005D0101BAB4106D20122002306E000220D
:107968004FF0004302E06FF0010253101AEB0600DB
:107978004CEB085110EB0A0041EB0B01BDE8F04D50
:1079880000F0B6B80EB540F2334102910021CDE9BE
:1079980000110A460B4600F0BAF803B000BD70B5F6
:1079A800C1F30A5201F000450024C1F3130140F26B
:1079B800FF3341F480119A4201DA002070BD40F291
:1079C80033439A42A2F2334203DC524200F02BF8CE
:1079D80000E090402C43F1D0404270BD30B50B46DA
:1079E800014600202022012409E021FA02F59D42E7
:1079F80005D303FA02F5491B04FA02F52844151EBB
:107A0800A2F10102F1DC30BD202A04DB203A00FAA1
:107A180002F1002070479140C2F1200320FA03F3DD
:107A2800194390407047202A04DB203A21FA02F0DB
:107A38000021704721FA02F3D040C2F120029140A0
:107A4800084319467047202A06DBCB17203A41FA2B
:107A580002F043EAE07306E041FA02F3D040C2F1D3
:107A6800200291400843194670473A2800D230381E
:107A780020F02002412A01D3A2F13700884201D325
:107A88004FF0FF307047000002681144137801601E
:107A980018467047D16004495161044911620021B8
:107AA8001161114600F020B9917A0008E57C0008C0
:107AB800426842B1016811F8013B23B1521EC0E986
:107AC8000012184670470121C160881E704742683D
:107AD8005AB1C368016843B983688B4205D0491E0F
:107AE800521CC0E90012002070474FF0FF30704769
:107AF80010B5141E73F1000408DA401C41F10001AE
:107B080092185B411A4301D120F0010010BD2DE904
:107B1800F04D92469B4611B1B1FA81F202E0B0FAFB
:107B280080F220329046FFF76FFF04460F4640EA86
:107B38000A0041EA0B0153465A46084313D011463E
:107B480053EA010019D0C8F140025046FFF76BFF15
:107B580005460E46504659464246FFF755FF08432C
:107B680005D0012004E020463946BDE8F08D00200C
:107B7800054346EAE0762C4337430A986305E40A4E
:107B8800A0EB08000022FD0A44EA47540A3002D557
:107B980000200146E9E7010510196941DDE90845BA
:107BA80000196941BDE8F04DA2E72DE9F04D002329
:107BB8001A461B1A8A4103DB00200146BDE8F08DF6
:107BC800C1F30A52C1F3130141F480154FF0000BC1
:107BD800D10702D100186D41521E0027044640F219
:107BE800FF11384601EB620A3E46804602460020F5
:107BF8004FF48011FFF717FFC2197141BB1846EB0C
:107C08000100B4EB030C75EB000C04D3E41A65EB2C
:107C1800000517460E46241908F101006D418046FB
:107C28003428E3DDF91946EB0600091BA84103D205
:107C38004FF0FF32134601E0002213461BEB07000A
:107C480046EB0A51BDE8F04DFFF752BFC1F30A52A7
:107C5800C1F3130140F2FF3341F480119A4202DA72
:107C680000200146704740F233439A42A2F2334261
:107C780002DC5242FFF7D7BEFFF7C6BE30B5041E7E
:107C880071F1000404DB4FF00044404264EB010151
:107C9800141E73F1000405DB1C464FF000435242EA
:107CA80063EB0403994208BF904230BD1CB50948F4
:107CB8000090094801900546009C06E0E06840F005
:107CC800010394E8070098471034AC42F6D3FFF755
:107CD800EBFA0000881B0408C81B0408C0B24FF464
:107CE800F05100F097B900002DE9F34F8BB04FF039
:107CF800000801F10C000C464FF0010B46460DF14F
:107D0800080A01906269012101989047051E2DD04B
:107D1800252D2CD0216A8847C0B1626901210198BC
:107D28009047216A88470028F7D1411E6269019867
:107D3800904700E0761CA1690B988847216A88471C
:107D48000028F7D1E1690B988847DBE7A1690B9810
:107D580088470746A84201D1761CD3E7E1690B980A
:107D680088477F1C02D1B8F1000F6FD046E1002789
:107D780062693D463946019890472A2804D16269CC
:107D88000121019890470125DFF884926269012159
:107D980001989047A0F130010A290AD24F45E5DC45
:107DA80007EB870100EB4107303FDFD445F01005B2
:107DB800ECE7E90601D46FF000476C280AD04C289C
:107DC80014D0682815D06A280DD074281CD07A28B9
:107DD8001AD01DE062690121019890476C2802D0F1
:107DE80045F0040514E045F002050DE045F02005D6
:107DF8000AE06269012101989047682802D045F09D
:107E0800080505E045F4006562690121019890477D
:107E1800C4E9015765283DD019DC58287AD00CDC14
:107E2800452837D004DC252826D0412831D131E037
:107E380046282FD047282CD12CE05B2877D0612802
:107E480028D063287CD0642823D15AE0D0E06F285A
:107E580048D008DC66281DD067281BD0692821D0A7
:107E68006E2816D127E0702845D0732868D0752869
:107E780047D078280DD14DE0A1690B988847054671
:107E880025283FF469AFE1690B9888476D1C3FF4DA
:107E98006AAFB3E023466A466FF001000B99AFF36F
:107EA80000809EE045F040006060A80723464FF040
:107EB800000236D43EE0E8077FF447AF2068011D92
:107EC80021600068290501D506701BE7290701D53F
:107ED800068017E7A90703D5F117C0E9006111E784
:107EE80006600FE745F040006060A80723464FF0A2
:107EF800080216D41EE040F60E0125EA0100606073
:107F080016E045F040006060A80723464FF00A02DB
:107F180007D40FE045F040006060A80708D5234665
:107F280010226FF001000B99AFF3008059E007E0D1
:107F3800234610226FF001000B99FFF785FA50E0F5
:107F48004FF000094F464B46632802D05B2806D005
:107F580040E0E80601D40120A06001273AE0626908
:107F68000121019890475E2805D14FF00109626907
:107F7800494601989047216939B900210A46534674
:107F880043F82120491C0829FADBB0B3216969B9F3
:107F9800C11700EBD16253110AEB830122F01F02D3
:107FA800821A01200B68904003430B60626901212B
:107FB800019890475D28E8D1B9F1000F09D0002059
:107FC800514651F82020D24341F82020401C08286F
:107FD800F7DB02AB224600976FF001000B99FFF721
:107FE800D9FA00280CDA401C08D1BBF1000F05D0E3
:107FF8004FF0FF300DB0BDE8F08FFFE74046F9E7DE
:10800800E90701D108F1010806444FF0000B79E6B1
:10801800CCCCCC0C7F2801D9002208E0064A02EB20
:108028005002C007127800D1120902F00F02012095
:10803800904008407047000038DF030870B58C187E
:1080480010F8015B15F0070301D110F8013B2A1164
:1080580006D110F8012B03E010F8016B01F8016B51
:108068005B1EF9D12B0705D40023521E0DD401F84D
:10807800013BFAE710F8013BCB1A921C03E013F816
:10808800015B01F8015B521EF9D5A142D8D300204B
:1080980070BD000010B588B04EF2A000C0F6030015
:1080A80090E80E5044690191018B807E02920393FF
:1080B800CDF810C0CDF814E00694ADF81C108DF87A
:1080C8001E0031F059FB01A82FF01EFB08B010BDAF
:1080D8002DE9F04186B00EF013FD0EF01BFD40F6C1
:1080E8009000C5F60000016841F4803101600DF090
:1080F8004BF94EF27C6240F6000340F20047002143
:10810800C0F60302C4F60003C4F600074FF00008E7
:10811800002500200491CDE90211CDE9001104E009
:10812800A68835430131262914D002EBC104A6796B
:10813800002EF7D052F831609E4207D0BE42EFD0F1
:10814800B6F1904FEED1A6883043EBE7A68848EA0F
:108158000608E7E700214C2702910121C5F6000730
:10816800019103210204039121D084B2009438685C
:10817800694640F001003860386800F00100059059
:108188000598D7F8000140F00100C7F80001D7F8BA
:10819800000100F00100059005984FF090400FF0A5
:1081A800A7F84FF09040214600220FF071F940F2F5
:1081B80000442804C4F600041FD0ADB20095386806
:1081C800694640F002003860386800F00200059007
:1081D8000598D7F8000140F00200C7F80001D7F869
:1081E800000100F002000590059820460FF080F885
:1081F8002046294600220FF04BF95FEA084022D0BA
:108208001FFA88F50095386804F5806440F004008A
:1082180038603868694600F0040005900598D7F87A
:10822800000140F00400C7F80001D7F8000100F091
:1082380004000590059820460FF05AF82046294674
:1082480000220FF025F906B0BDE8F0817047000064
:10825800B0B588B04468B4F80B10A1F512410729ED
:1082680000F2AC81DFE811F00800C200E400AA01C6
:10827800F7000201BE00E200044668462FF062FAE9
:108288009DF800109DF801209DF802304EF67450BC
:10829800C0F6030035F040F99DF804104EF6425040
:1082A800C0F6030035F038F99DF80910481E8F28EC
:1082B80000F200814FF29B02C0F60302DFE810F0E3
:1082C80021019000EB000E011301F000FF00FA00FD
:1082D800FA00FA00FA00FA00FA00FA00FA00FA00C6
:1082E800FA00FA00FA00FA00FA00FA00FA00FA00B6
:1082F800FA00FA00FA00FA00FA00FA00FA00FA00A6
:10830800FA00FA00FA00FA00FA00FA00FA00FA0095
:10831800FA00FA00FA00FA00FA00FA00FA00FA0085
:10832800FA00FA00FA00FA00FA00FA00FA00FA0075
:10833800FA00FA00FA00FA00FA00FA00FA00FA0065
:10834800FA00FA00FA00FA00FA00FA00FA00FA0055
:10835800FA00FA00FA00FA00FA00FA00FA0004013A
:108368001D011801FA00FA00FA00FA00FA00FA00F2
:10837800FA00FA00FA00FA00FA00FA00FA00FA0025
:10838800FA00FA00FA00FA00FA00FA00FA00FA0015
:10839800FA00FA00FA00FA00FA00FA00FA00E1001E
:1083A800F500FA00FA00FA00FA00FA00FA00E6000E
:1083B800DC00FA00FA00FA00FA00FA00FA00FA0003
:1083C800FA00FA00FA00FA00FA00FA00FA00FA00D5
:1083D800FA00FA00FA00FA00FA00FA00FA000901B5
:1083E8009CA28EE0D4F80D1082A03AE04EF62861E7
:1083F800C0F603010446084635F08EF864684EF668
:10840800BA60617BC0F6030035F086F8607B00280F
:1084180007BF4EF6A870C0F603004EF67170C0F69E
:10842800030008B0BDE8B04035F070BD68A01EE09C
:108438004EF60970C0F6030035F068FDD4F80D104B
:10844800D4F811204EF69850C0F6030008B0BDE8E5
:10845800B04035F061B8D4F80D104EF6BE50C0F6F5
:10846800030008B0BDE8B04035F056B870A008B0B9
:10847800BDE8B04035F050B84EF6F972C0F60302C8
:108488003FE04FF25902C0F603023AE04EF6E272BC
:10849800C0F6030235E04FF2B702C0F6030230E03F
:1084A8004FF2D102C0F603022BE04FF26F02C0F682
:1084B800030226E04FF2AF02C0F6030221E04FF2BA
:1084C800C102C0F603021CE04FF28502C0F60302A7
:1084D80017E04FF24A02C0F6030212E04FF2A4027C
:1084E800C0F603020DE04FF24002C0F6030208E0B6
:1084F8004FF22702C0F6030203E04FF21002C0F663
:1085080003024EF62150C0F6030035F005F89DF839
:108518000A109DF80B209DF80C304EF65E50C0F600
:10852800030034F0F9FF4EF6EA60C0F6030034F0B9
:10853800F3FF002560680795407B0695012805959F
:10854800049534D0E0BB4EF65770C0F6030035F002
:10855800DDFCFFF79FFD0F208DF810007F2042F211
:1085680000058DF81200CEF204052868040C4EF6BA
:108578009960C0F60300214634F0CEFFADF81C40E8
:108588002C684EF67A606FF31F34C0F6030021465C
:1085980034F0C2FF04A8ADF81E402FF0A7F800F091
:1085A8005DF80120002132F059FC08B0B0BD4EF64C
:1085B8004960C0F6030034F0AFFF257008B0B0BDC5
:1085C8004EF6F650C0F6030034F0A6FF08B0B0BD72
:1085D8003E3E3D3D20534843495F5355425F455613
:1085E800545F4E564D5F454E445F45524153450AD0
:1085F8000D0000003D3D3E3E534843495F53554200
:108608005F4556545F4E564D5F53544152545F4533
:1086180052415345203A204E756D6265724F66533C
:108628006563746F7273203D2025750A0000000091
:108638003E3E3D3D20534843495F5355425F4556B2
:10864800545F4E564D5F454E445F57524954450A54
:108658000D000000424C455F4843490070B598B092
:1086680046F2B420C2F200000921017040F2D8514C
:108678000024C2F2000100BF0A5D1AB10134082CBF
:10868800FAD1082440F2D8510130C2F20001224642
:10869800FEF785FE40F2A001601CC2F200010870DE
:1086A8004EF2BC00C0F6030090E84E00D0E9045436
:1086B800D0E906CE089600F12006008F0591ADF8A6
:1086C8004C0040F22800C2F2030014904DF205203D
:1086D80006920793CDE909547ECEC0F60000CDE995
:1086E8000BCE0DF1340C15904DF221208CE83E0094
:1086F800C0F6000014A9129634F0CCF8022001212B
:1087080032F0ACFB4CF60D52C0F6030202200021F9
:1087180032F0D4FB05A82EF0DBFF30B10146E6A00D
:1087280034F0FAFE0DF0E8F803E00FF2C43034F04C
:10873800F3FE0020CDE91400ADF84E000EF088F8E5
:1087480014900EF085F84FF67D40C0F603001591A1
:1087580035F0DCFB34F03CFA38B101464FF23130E9
:10876800C0F6030034F0D8FE02E0EBA035F0CEFBF3
:10877800BDF8540040F2A10400BA1499C2F20004F2
:10878800000C208108BAC4F80A0014AA2E20062179
:1087980033F0C6FC38B101464FF29220C0F6030010
:1087A80034F0BAFE19E04FF62D20C0F6030035F07C
:1087B800ADFBDDE91460C0F30721C2B2C6F3074080
:1087C800C6F30725CDE900054FF2B950330EF6B2CE
:1087D800C0F60300029634F09FFE4EF2BC72C0F65B
:1087E80003021820102133F09BFC38B101464FF2E8
:1087F8003D20C0F6030034F08FFE05E04FF6E81088
:10880800C0F6030035F082FB4EF2AC72C0F60302EC
:108818000820102133F084FC38B101464FF2E810EB
:10882800C0F6030034F078FE05E04FF6A310C0F65A
:10883800030035F06BFB01201F2133F049FC38B1F0
:1088480001464FF2F320C0F6030034F065FE05E060
:108858004FF60830C0F6030035F058FB33F038FB0C
:1088680038B101464FF28E30C0F6030034F054FEA2
:1088780005E04FF65630C0F6030035F047FB0DF122
:108888005A0617AD0DF15E03052000210722CDE938
:10889800005632F0B7FF38B101464FF25E30C0F6ED
:1088A800030034F039FE05E04FF63630C0F6030019
:1088B80035F02CFBBDF85E00BDF85C109EA60022CA
:1088C8000723009633F02CFBBDF85E00BDF85A1064
:1088D8000DF14E0600220223009633F021FB002002
:1088E8000221022234F0A0F838B101464FF2484084
:1088F800C0F6030034F010FE05E04FF6E030C0F695
:10890800030035F003FB40F2F025C2F20005012018
:10891800287033F04BF838B101464FF28240C0F668
:10892800030034F0F9FD05E04FF60A40C0F60300F5
:1089380035F0ECFA40F20110C0F600004BF20721C6
:10894800C5F801001020C0F2010100220823687157
:10895800A9600126CDE90030CDE9022101200121DD
:1089680001220023049632F095FF38B101464FF2F8
:10897800BF30C0F6030034F0CFFD05E04FF6773086
:10898800C0F6030035F0C2FAA87880B132F01AFFB9
:1089980038B101464FF20940C0F6030034F0BCFD7F
:1089A80005E04FF6B130C0F6030035F0AFFA4FF2EC
:1089B8005A70C0F6030034F0AFFD4FF67E20C0F6C3
:1089C800030035F0A3FA2FF073FC002085F880002F
:1089D8004FF6FF7048F64932E882C0F600020120DF
:1089E800002132F06BFA2020A071062033F04AFBF8
:1089F80038B101464FF2C360C0F6030034F08CFD75
:108A080005E04FF20770C0F6030034F085FD0CF066
:108A1800D1FB0020002603F0C1FA2DF0ABFE4CF28A
:108A2800E912C0F603024FF48040002132F046FA02
:108A38004CF23134C0F603044FF4004000212246C2
:108A480032F03CFA05F1830100200022234612F09F
:108A5800C1F848F6C13305F18101C0F600030020D2
:108A6800002212F0B7F849F2BD4305F18201C0F6C1
:108A780003030020002212F0ADF840F29210C2F277
:108A880000000121017040F29010C2F200002E8314
:108A9800017012F013FD38B14FF6C120C0F6030083
:108AA80035F034FA18B070BD012000F089F833F0C1
:108AB80097FB18B070BD00BF20204661696C20206C
:108AC800203A20534843495F43325F424C455F494F
:108AD8006E697420636F6D6D616E642C20726573AE
:108AE800756C743A203078253032780A0D00000011
:108AF8002020537563636573733A20534843495F75
:108B080043325F424C455F496E697420636F6D6DF7
:108B1800616E640A0D00000020205375636365735D
:108B2800733A206863695F726573657420636F6D5B
:108B38006D616E640000000050325053525631008F
:108B480010B540F2F024C2F2000494F88000052821
:108B58000CD032F04FFF002184F880100DA106A23E
:108B6800002808BF1146084634F0D6FC0220BDE8AC
:108B7800104000F025B800BF2A2A2053544F502037
:108B88004144564552544953494E47202A2A2020E9
:108B98000D0A0D002A2A2053544F502041445645AF
:108BA80052544953494E47202A2A20204661696C6D
:108BB8006564200D0A0D00000120042132F098BAE6
:108BC8002DE9F04188B040F29211C2F2000104464A
:108BD80040F290100D78C2F200000678002D40F2A5
:108BE800F02818BF8025002EC2F2000818BFA02662
:108BF800012C18BF4FF4C86598F8810018BF4FF4CE
:108C08007A6612F01DFA022C15D198F88000013806
:108C1800012810D832F0EEFE38B101464FF29D100F
:108C2800C0F6030034F078FC05E04FF6E100C0F62A
:108C3800030035F06BF940F2A000C2F200000078A2
:108C480098F8181046F2B423002708F11902C2F266
:108C58000003CDE90070CDE90231CDE904270020F9
:108C6800294632460123069732F050FEA0B101464C
:108C78000C284FF2F440C0F6030006D012291EBF9C
:108C880000244FF2BF40C0F6030034F045FC88F8DA
:108C9800804008B0BDE8F08119A088F8804035F020
:108CA80035F940F2A101C2F200010E2032F044FF72
:108CB80060B10146012C12BF1BA04FF24160C0F603
:108CC800030008B0BDE8F04134F026BC012C0DD1FA
:108CD80023A034F021FC98F881004EF24601C0F23E
:108CE800010108B0BDE8F04112F0CAB84FF2966031
:108CF800C0F6030008B0BDE8F04134F00DBC00BF79
:108D08003D3D3E3E206163695F6761705F736574D6
:108D18005F646973636F76657261626C65202D208C
:108D280053756363657373003D3D3E3E2053746124
:108D38007274204C6F7720506F776572204164768B
:108D48006572746973696E67204661696C65642031
:108D58002C20726573756C743A202564200A0D0006
:108D68003D3D3E3E20537563636573733A205374EB
:108D78006172742046617374204164766572746907
:108D880073696E67200A0D0010B503F0D5FB044621
:108D9800062817D940F2FC1041F20001C2F2000087
:108DA800C1F2020141F2060241F20033C1F20702A8
:108DB800C1F2013380E80E004FF6FF718181072C64
:108DC8000DD228E003F0B8FB024641F2D450C0F6B9
:108DD80004000721022334F09FFB072C1BD303F068
:108DE800ABFB044606280CD940F254203021C2F2CD
:108DF8000000C0F201014FF6FF72C0E90012002026
:108E080006E041F29160C0F6040034F085FB0120D1
:108E1800062C88BF10BD41F24C60C0F6040034F047
:108E28007BFB022010BD000010B546F2E024C2F220
:108E38000004207820B103F0FBFB0020207010BD57
:108E4800002004F0A7FC0EF029FB0446002004F0E3
:108E5800A1FC0028FAD00EF021FB001BB0F57A7FA8
:108E680008D94AF6A4404F21C2F20000C0F2AD0171
:108E7800016010BD152838BF10BDBDE8104003F0D3
:108E8800D7BB000002207047002200200A807047EC
:108E98007047000080B5002004F06CFC002080BD05
:108EA80040F2C240C2F200000078704741F6095013
:108EB800C2F200000121017041F61050C2F2000018
:108EC8000022027041F61652C2F20002012011700F
:108ED80004F040BC80B541F60950C2F20000002100
:108EE800017041F61650C2F200000170012004F032
:108EF80021FC12F0E3FAA8B103F07EFB002818BFAA
:108F080080BD41F60A50C2F20000007850B101203D
:108F18000CF032F940F28D20C0F60400BDE8804024
:108F280034F0F4BF80BD0000002070477047000097
:108F3800B0B540F25804C2F20004257803F06EFA86
:108F4800854209D940F29810C0F6040034F0DEFFDB
:108F5800BDE8B04003F062BA2078002818BFB0BD61
:108F680002A034F0D3FF0120B0BD00BF4E756D6282
:108F78006572204F6620456C656D656E7473206D53
:108F88007573742062652031206F72206772656185
:108F9800746572207468616E2031210D0000000034
:108FA80001463020C0F2020008604FF485720020AC
:108FB8008A80704780B501201F2133F089F8002886
:108FC80018BF0120400080BD01464EF67D408880D4
:108FD80041F6F850CAF64F60086045F24B30C5F2CA
:108FE800A140C1F8060046F2C820C2F200008288FB
:108FF80003680020CA81C1F80A3070470020704712
:10900800014601A034F088BA556E70726F766973A4
:10901800696F6E6564204E6F6465204964656E747F
:1090280069666965722072656365697665643A2068
:10903800253032780A0D0000B0B546F2C825C2F2D4
:109048000005E91D00202A4632F0DCFF18B1014670
:1090580012A034F061FA691EEF2006220B4600BF09
:1090680013F8014F013A04EB4000F9D10322EA71E9
:10907800EF220623A87100BF11F8014F013B04EB52
:109088004202F9D1C0B2D1B2081A6979B0FA80F0B7
:10909800400941F0C0016971B0BD00BF4661696C0B
:1090A800656420746F2072656164205075626C6914
:1090B80063204164647265737320256400000000B6
:1090C80080B54CF2ED62C0F601020420002131F0B7
:1090D800F5FE0420002132F00BF84BF21D42C0F6D9
:1090E80000024020002131F0E9FE40200021BDE8C7
:1090F800804031F0FDBF000080B541F2BD40C0F6B0
:10910800040034F003FF41F21A30C0F6040034F0D2
:10911800FDFE41F2A630C0F6040034F0F7FE41F23D
:10912800B830C0F6040034F0F1FE41F29330C0F6D6
:10913800040034F0EBFE41F25F30C0F6040034F076
:10914800E5FE41F28030C0F6040034F0DFFE41F263
:109158006C30C0F6040034F0D9FE41F23130C0F66C
:10916800040034F0D3FE03F041F9014641F22A200D
:10917800C0F6040034F0D0F903F02AF9014641F2B0
:109188001920C0F6040034F0C7F903F047F9014686
:1091980041F2AF10C0F6040034F0BEF903F0CCF988
:1091A800014641F23B20C0F6040034F0B5F903F063
:1091B800ABF9014641F2C910C0F6040034F0ACF92D
:1091C80003F0A4F9014641F29B10C0F6040034F004
:1091D800A3F903F00DF9014641F25620C0F6040048
:1091E80034F09AF903F07AF9014641F27D20C0F68D
:1091F800040034F091F941F24B30C0F6040034F029
:1092080085FE41F2E810C0F604000021012234F086
:1092180083F941F25A40C0F6040034F077FE41F277
:10922800CA30C0F6040034F071FE41F20040C0F6C6
:10923800040034F06BFE41F2E230C0F6040034F072
:1092480065FE41F21740C0F6040034F05FFE41F2BB
:109258006A40C0F6040034F059FE41F23B40C0F6C3
:10926800040034F053FE07A034F050FE0CA0012196
:1092780034F052F917A034F049FE1EA0BDE8804032
:1092880034F044BE0A5B496D706F7274616E74206D
:10929800496E666F726D6174696F6E5D200D0000B6
:1092A8004E756D626572206F6620456C656D656EE2
:1092B800747320656E61626C656420696E2041700C
:1092C800706C69636174696F6E3A202564200D0AB9
:1092D800000000004E65696768626F75722054610E
:1092E800626C6520697320656E61626C6564200D2F
:1092F800000000002A2A2A2A2A2A2A2A2A2A2A2A6E
:109308002A2A2A2A2A2A2A2A0D0A0D00002070470A
:10931800B0B540F25775C0F60405284600211C4632
:1093280030F01AFF40F2F560C0F60400214634F030
:10933800F3F82846002130F00FFF02A034F0E6FDD4
:109348000020B0BD2338323130210D00B0B5B0F95E
:10935800000040F2941203EB4301C2F200023228EB
:1093680022F8210040F2AC101C46C2F200000CDBCF
:1093780047F6F6410180016842688368042012F0CC
:1093880043FF002004F0E6F908E0016842688368BA
:10939800022012F039FF002004F0CCF940F2065503
:1093A800C0F604052846002130F0D6FE06A0214666
:1093B80034F0B2F82846002130F0CEFE11A034F087
:1093C800A5FD0020B0BD00BF47656E657269635F8B
:1093D8004C6576656C44656C74615F536574206395
:1093E800616C6C6261636B20726563656976656444
:1093F80020666F7220656C656D656E74202564202B
:109408000D0A00002338323039210D00014640F2A0
:109418009310C2F20000825C00200A7070470000BE
:10942800014602EB420040F29412C2F2000212F826
:10943800203002EB80000B7042784A7082788A7084
:10944800C2780020CA707047014602EB820040F2E1
:10945800A012C2F20002125C00200A7070470000DD
:1094680002EB820140F2A012C2F200020A445378D1
:109478000146037090784870D0788870127900207F
:10948800CA707047014640F2A610C2F2000010F8F8
:10949800122000200A707047B0B5B0F900101C46C1
:1094A80003EB430240F2941340F2A81CC2F20003FB
:1094B80021EAE170C2F2000C23F8220040F64212C1
:1094C800BCF80030C2F20002108098424FF000034E
:1094D80047F6F54298BF012391424FF00002C8BFFA
:1094E800012200251A430029C8BF012505EA020107
:1094F80040F64012C2F20002117047F6FF710022D6
:10950800ACF800002DF054FF40F2AC13C2F2000397
:10951800188019685A689B68042012F075FE40F29A
:109528006A55C0F604052846002130F015FE40F2C1
:10953800C540C0F60400214633F0EEFF284600215E
:1095480030F00AFE04A0214633F0E6FF022021464F
:109558002DF0E8F80020B0BD233832303621666F90
:109568007220656C656D656E74496E64657820253A
:1095780064200D0A0000000000207047B0B540F2DA
:10958800941C1C4601684268806803EB4303C2F2DE
:10959800000C0CEB8305A8606A6040F21E55C0F60B
:1095A80004054CF823102846002130F0D5FD06A00C
:1095B800214633F0B1FF2846002130F0CDFD11A03F
:1095C80034F0A4FC0020B0BD47656E657269635F26
:1095D8004C6576656C4D6F76655F53657420636185
:1095E8006C6C6261636B2072656365697665642083
:1095F800666F7220656C656D656E74202564200D3C
:109608000A000000233832304221200D00000000FB
:1096180070B51C46002B47D1027840F2A016B0F86E
:10962800013001F0FE05C2F20006022D3270A6F8E4
:10963800013015D140F2AC15C2F200052B80296823
:109648006A68AB680546042012F0DEFDB5F8031021
:10965800B6F80100A6F80310884225D108BB0FE030
:10966800012908BF012A0FD040F2AC10C2F2000055
:1096780001210180016842688368022012F0C4FD5C
:10968800002004F057F80FE040F2AC10C2F20000DE
:1096980047F6F6410180016842688368042012F0A9
:1096A800B3FD002004F056F840F23555C0F6040525
:1096B8002846002130F050FD40F23E40C0F604003C
:1096C800214633F029FF2846002130F045FD05A04A
:1096D800214633F021FF012021462DF023F80020F8
:1096E80070BD00BF233832303221666F7220656C3E
:1096F800656D656E74496E646578202564200D0A71
:10970800000000002DE9F04F81B040F28277C0F6EA
:1097180004070C468046384600211E4630F01CFDE2
:109728001CA0314633F0F8FE3846002130F014FD15
:1097380027A034F0EBFB44B340F2827608F1020B29
:1097480008F1010A0025C0F604060EE0D94629A74B
:109758003046002130F000FD99F80010384633F00B
:10976800DBFE0135E8B284420FD9E8B250B10228D5
:10977800ECD00128F5D140F23E77D146C0F6040777
:10978800E6E700BFC14614A7E2E7002001B0BDE844
:10979800F08F00BF47656E657269635F4F6E4F66F5
:1097A800665F5374617475732063616C6C62616386
:1097B8006B20726563656976656420666F722065E3
:1097C8006C656D656E74202564200D0A000000002C
:1097D8002338323034210D0050726573656E742061
:1097E8004F6E4F66662076616C75653A2025640A6F
:1097F8000D00000052656D61696E696E67205469DD
:109808006D652076616C75653A2025640A0D000047
:1098180070B5007840F2A61640F24D55C2F2000627
:10982800C0F6040526F81300284600211C4630F02F
:1098380093FC0EA0214633F06FFE2846002130F03D
:109848008BFC40F27F40C0F60400214633F064FEF2
:1098580036F81400012805D145F22420C2F2000090
:1098680001210170FFF714FB002070BD233832314D
:10987800332120666F7220656C656D656E74496E64
:10988800646578202564200D0A0000002DE9F04168
:1098980040F29D77C0F604070C460546384600217D
:1098A8001E4630F059FC12A0314633F035FE3846DA
:1098B800002130F051FC1EA034F028FBACB140F27E
:1098C8009D780026C0F604081BA703E00136F0B215
:1098D80084420AD93006F9D14046002130F03CFCD8
:1098E8002978384633F018FEF0E70020BDE8F0810B
:1098F80047656E657269635F506F7765724F6E4F2B
:1099080066665F5374617475732063616C6C626121
:10991800636B20726563656976656420666F722083
:10992800656C656D656E74202564200D0A00000065
:109938002338323132210D004F6E20506F77657217
:109948002075702076616C75653A2025640A0D00D3
:1099580070B501884288044618A033F0DDFD617BAC
:1099680040F63740C0F6040033F0D6FD607B00288F
:1099780008BF01F003FD607B002818BF70BD1FA061
:1099880033F0CAFD207B88B141F245150026C0F6A8
:10999800040500BFA0680178284633F0BDFDA06823
:1099A800217B013601308E42A060F3D341F2804022
:1099B800C0F60400BDE8704034F0A8BA4170704B9E
:1099C8006579204164642072656365697665642001
:1099D800666F72206E65744B6579496E6465782090
:1099E800252E32782C206170704B6579496E64653C
:1099F8007820252E3278200D0A0000004170704B27
:109A080065792069733A200010B582B00446007A5F
:109A1800002808BF01F0B2FC217862686388247AC4
:109A280040F6AA70C0F60400009433F075FD02B049
:109A380010BD000010B504460188428841F2BC0000
:109A4800C0F6040033F068FD617B40F63740C0F68D
:109A5800040033F061FD607B002818BF10BDBDE82D
:109A6800104001F08BBC000070B50188044619A0B5
:109A780033F052FDA17A40F63740C0F6040033F0C7
:109A88004BFDA07A002808BF01F078FCA07A0028D6
:109A980018BF70BD19A034F039FA208988B141F295
:109AA80045150026C0F6040560680188284633F08D
:109AB80033FD606801362189F2B20230914260605C
:109AC800F2D841F28040C0F60400BDE8704034F09E
:109AD8001DBA00BF417070204B6579204C697374C2
:109AE80020666F72206E65744B6579496E6465787F
:109AF80020252E3278206973200D0A004170704BA2
:109B0800657920496E6465786573206172653A20CD
:109B18000D00000010B582B00446007A002808BF86
:109B280001F02CFC217862686388247A41F21100E4
:109B3800C0F60400009433F0EFFC02B010BD000042
:109B480070B504460188428841F27A00C0F60400E4
:109B580033F0E2FC617B40F63740C0F6040033F096
:109B6800DBFC607B002808BF01F008FC607B002854
:109B780018BF70BD10A033F0CFFC207B80B141F23C
:109B880045150026C0F60405A0680178284633F07C
:109B9800C3FCA068217B013601308E42A060F3D35C
:109BA80041F28040C0F6040034F0B0F907A0BDE8E7
:109BB800704034F0ABB900BF5570646174656420BF
:109BC8004170704B65792069733A20004974207799
:109BD800696C6C206265207265706C6163656420D5
:109BE8006279206F6C64206170704B6579206166C2
:109BF800746572204B6579205265667265736820BA
:109C08000D00000070B50188044618A033F084FCEC
:109C1800617B40F63740C0F6040033F07DFC607B82
:109C2800002808BF01F0AAFB607B002818BF70BDA0
:109C38001AA033F071FC207B80B141F24515002653
:109C4800C0F6040560680178284633F065FC606852
:109C5800217B013601308E426060F3D341F28040AF
:109C6800C0F60400BDE8704034F050B94E65742069
:109C78004B65792041646420726563656976656423
:109C880020666F72206E65744B6579496E646578DD
:109C980020252E3278200D0A000000004E65744BF6
:109CA80065792069733A200010B50188044609A037
:109CB80033F032FC617B40F63740C0F6040033F0E5
:109CC8002BFC607B002818BF10BDBDE8104001F0D8
:109CD80055BB00BF4E6574204B65792044656C65A3
:109CE800746520726563656976656420666F7220A5
:109CF8006E65744B6579496E646578202564200D1E
:109D08000A00000070B50446817940F63740C0F675
:109D1800040033F001FCA079002808BF01F02EFBF5
:109D28000FA034F0F3F8A08888B141F24515002659
:109D3800C0F6040520680188284633F0EDFB20684A
:109D48000136A188F2B2023091422060F2D841F285
:109D58008040C0F60400BDE8704034F0D7B800BFBA
:109D68004E65744B657920496E646578657320612A
:109D780072653A200D00000070B5018804461AA0EB
:109D880033F0CAFB617B40F63740C0F6040033F07D
:109D9800C3FB607B002808BF01F0F0FA607B002855
:109DA80018BF70BD1CA033F0B7FB207B80B141F217
:109DB80045150026C0F6040560680178284633F08A
:109DC800ABFB6068217B013601308E426060F3D3C3
:109DD80041F28040C0F6040034F098F813A0BDE8C2
:109DE800704034F093B800BF4E6574204B657920FD
:109DF8005570646174652072656365697665642071
:109E0800666F72206E65744B6579496E646578205B
:109E18002564200D0A000000557064617465642093
:109E28004E65744B65792069733A00004974207750
:109E3800696C6C206265207265706C616365642072
:109E48006279206F6C64206E65744B657920616659
:109E5800746572204B657920526566726573682057
:109E68000D000000B0B586B00446417C40F637408E
:109E7800C0F6040033F050FB607C002808BF01F0F6
:109E88007DFA6089217B2278636894F80EC094F883
:109E98000FE0257C647B8DE8015040F64B40C0F60E
:109EA80004000395049433F037FB06B0B0BD0000FE
:109EB80010B504464168027840F66670C0F60400A2
:109EC80033F02AFB6168B1F5885F18BF10BD2046E2
:109ED800BDE810402EF07CBB10B50446817A40F6F0
:109EE8003740C0F6040033F017FBA07A002808BFFB
:109EF80001F044FA94F80BC040F64C50217862689F
:109F0800238940F6A654C0F60400C0F60404BCF148
:109F1800000F08BF2046BDE8104033F0FDBA00002E
:109F280010B50446817A40F63740C0F6040033F095
:109F3800F3FAA07A002808BF01F020FAE07A50B1BD
:109F480021786268238940F6F850C0F60400BDE81D
:109F5800104033F0E1BA207B2178626838B141F2D1
:109F6800FE00C0F60400BDE8104033F0D5BA2389DE
:109F780040F65960C0F60400BDE8104033F0CCBA92
:109F880010B50446817A40F63740C0F6040033F035
:109F9800C3FAA07A002808BF01F0F0F994F80BC0C2
:109FA80040F6AE6021786268238940F60E74C0F6E8
:109FB8000400C0F60404BCF1000F08BF2046BDE849
:109FC800104033F0A9BA000045F69461C2F20001CE
:109FD8000A6802700A68120A42704A888270CA784F
:109FE800C27000200860704710B54BF29D12C0F691
:109FF80003020820002130F061FF47F24414C2F246
:10A0080000044BF2A513C0F60303002021460022EA
:10A0180010F0E0FD20784CF25821C0F2120110F047
:10A028002FFF2EF0A9FF48F63162C0F6000280200B
:10A038000021BDE8104030F041BF0000B0B540F24B
:10A04800AA14C2F20004012020700020002503F0A9
:10A0580081FB4FF4FA700CF025FF0020257003F007
:10A0680069FB4FF4FA700CF01DFF0020B0BD000032
:10A0780040F2AA10C2F20000007810B1002003F0EC
:10A0880069BB002003F056BB002070472DE9F04F54
:10A0980081B040F6F737C0F604070C460546384647
:10A0A80000211E4630F058F824A0314633F034FA27
:10A0B8003846002130F050F82FA033F027FF002C4D
:10A0C80038D040F6F73B40F647280027C0F6040B87
:10A0D800C0F604080FF2C0090FF2A40A002605E032
:10A0E8000A4633F019FA0136B44223D0052EFAD8BD
:10A0F800DFE806F00C030C170C0E5846002130F070
:10A108002BF8687847EA00214046E9E7AF5DEAE7BF
:10A118005846002130F020F8687947EA0021504677
:10A12800DEE75846002130F017F8E87847EA0021C2
:10A138004846D5E7002001B0BDE8F08F4C69676854
:10A14800745F43746C5F44656661756C74537461C5
:10A158007475732063616C6C6261636B20726563F4
:10A16800656976656420666F7220656C656D656EDD
:10A1780074202564200D0A002338323638210D005A
:10A1880044656C74612055563A203078257820282B
:10A198002564290A0D00000054656D7065726174AC
:10A1A8007572653A203078257820282564290A0DAB
:10A1B80000000000002070472DE9F04F81B040F604
:10A1C8008127C0F604070C460546384600211E467E
:10A1D8002FF0C2FF40F2BD70C0F60400314633F0E4
:10A1E8009BF9384600212FF0B7FF23A033F08EFEED
:10A1F800002C3DD040F6812B40F6EB0A40F6E018E3
:10A2080040F669190027C0F6040BC0F6040AC0F628
:10A218000408C0F60409002604E000BFAF5D01365B
:10A22800B44225D086B126F002000128F6D0042ECB
:10A2380011D0022EF3D1584600212FF08DFFA878B7
:10A2480047EA002148460FE0584600212FF084FFD6
:10A258002978504608E0584600212FF07DFF2879DC
:10A2680047EA0021404600BF0A4633F055F9D6E7D1
:10A27800002001B0BDE8F08F2338323633210D00BD
:10A28800002070472DE9F04F81B040F6E827C0F66E
:10A2980004070C460546384600211E462FF05CFF91
:10A2A80034A0314633F038F9384600212FF054FFF6
:10A2B80040A033F02BFE002C57D040F6E82640F69D
:10A2C800201A40F604174FF00008C0F60406C0F63E
:10A2D800040A0FF2E80BC0F604074FF0000906E085
:10A2E8000A4633F019F909F101094C453DD0B9F195
:10A2F800080FF8D8DFE809F00E2D0E110E1D0E0517
:10A308002600304600212FF027FFE87948EA00218F
:10A318005846E5E715F80980E5E7304600212FF0B3
:10A328001BFFE87848EA002140F6C900C0F604009F
:10A33800D6E7304600212FF00FFF687948EA002160
:10A348005046CDE7304600212FF006FF297A3846DF
:10A35800C6E7304600212FF0FFFE687848EA002162
:10A3680040F64410C0F60400BAE7002001B0BDE88A
:10A37800F08F00BF4C696768745F43746C54656DF7
:10A3880070657261747572655F537461747573205A
:10A3980063616C6C6261636B207265636569766585
:10A3A8006420666F7220656C656D656E7420256427
:10A3B800200D0A002338323636210D0054617267A9
:10A3C80065742043544C2044656C74612055563A9A
:10A3D800203078257820282564290D0A00000000FF
:10A3E800002070472DE9F04F81B040F63B37C0F6AA
:10A3F80004070C460546384600211E462FF0ACFEE1
:10A4080033A0314633F088F8384600212FF0A4FEF7
:10A418003DA033F07BFD002C55D040F63B3640F68E
:10A42800201B4FF00008C0F604060FF2001AC0F611
:10A43800040B37A74FF0000907E000BF0A4633F0C6
:10A448006BF809F101094C453DD0B9F1080FF8D86E
:10A45800DFE809F00E2D0E110E1D0E052600304600
:10A4680000212FF079FEE87948EA00215846E5E70F
:10A4780015F80980E5E7304600212FF06DFEE878F1
:10A4880048EA002140F64410C0F60400D6E73046FA
:10A4980000212FF061FE687948EA00215046CDE797
:10A4A800304600212FF058FE297A3846C6E7304654
:10A4B80000212FF051FE687848EA002140F680100C
:10A4C800C0F60400BAE7002001B0BDE8F08F00BF75
:10A4D8004C696768745F43746C5F53746174757317
:10A4E8002063616C6C6261636B2072656365697679
:10A4F800656420666F7220656C656D656E742025D5
:10A5080064200D0A000000002338323630210D0087
:10A5180052656D61696E696E672054696D653A3080
:10A5280078257820282564290D0A0000546172676F
:10A5380065742043544C204C696768746E65737366
:10A548003A203078257820282564290D0A00000053
:10A558000020704700207047002070470020704797
:10A568000020704700207047002070470020704787
:10A578000020704700207047002070470020704777
:10A5880040F21001C2F200010B2312FB03121379EF
:10A5980001460370527900204A70704740F210015A
:10A5A800C2F200010B2312FB0312937801460370D9
:10A5B800D27800204A707047014640F25C20C2F20F
:10A5C800000010F8123000EB42000B7040780B23AB
:10A5D800487040F21000C2F2000012FB03008278BB
:10A5E8008A70C2780020CA707047000040F21001DB
:10A5F800C2F200010B2312FB031293790146037088
:10A60800D0794870107A8870507AC870927A002091
:10A618000A71704740F2100C0B230146C2F2000C7D
:10A6280002FB03F01CF8000012FB03C2087050780C
:10A63800487090788870D2780020CA7070470000FF
:10A64800002070472DE9F04F81B040F6D937C0F6A9
:10A6580004070C460546384600211E462FF07CFDAF
:10A6680024A0314632F058FF384600212FF074FDFF
:10A678002FA033F04BFC002C38D040F6D93B40F6E5
:10A6880047280027C0F6040BC0F604080FF2C009DB
:10A698000FF2A40A002605E00A4632F03DFF013613
:10A6A800B44223D0052EFAD8DFE806F00C030C17C5
:10A6B8000C0E584600212FF04FFD687847EA00211C
:10A6C8004046E9E7AF5DEAE7584600212FF044FD30
:10A6D800687947EA00215046DEE7584600212FF006
:10A6E8003BFDE87847EA00214846D5E7002001B05D
:10A6F800BDE8F08F4C696768745F48736C446566A1
:10A7080061756C745F5374617475732063616C6CEC
:10A718006261636B20726563656976656420666F44
:10A728007220656C656D656E74202564200D0A00C5
:10A738002338323743210D0053617475726174698F
:10A748006F6E3A203078257820282564290A0D0074
:10A758004875653A203078257820282564290A0D1F
:10A7680000000000002070472DE9F04F81B040F64E
:10A778000A37C0F604070C460546384600211E462F
:10A788002FF0EAFC28A0314632F0C6FE38460021F8
:10A798002FF0E2FC32A033F0B9FB002C3FD040F69A
:10A7A8000A3B00276FF00206C0F6040B0FF2B80947
:10A7B8000FF2CC0A4FF0000806E000BF15F8087049
:10A7C80008F1010844452AD018EA060FF6D0B8F176
:10A7D800040F17D0B8F1030F0BD0B8F1010FEFD168
:10A7E800584600212FF0B8FC687847EA0021504607
:10A7F80011E0584600212FF0AFFCE87847EA002125
:10A80800484608E0584600212FF0A6FC297940F672
:10A818001020C0F604000A4632F07EFED0E7002081
:10A8280001B0BDE8F08F00BF4C696768745F48737A
:10A838006C4875655F5374617475732063616C6CE3
:10A848006261636B20726563656976656420666F13
:10A858007220656C656D656E74202564200D0A0094
:10A868002338323731210D005461726765742048EE
:10A8780075653A203078257820282564290A0D0046
:10A8880050726573656E74204875653A2030782576
:10A898007820282564290A0D000000000020704750
:10A8A8002DE9F04F81B040F6CC27C0F604070C46DE
:10A8B8000546384600211E462FF04EFC33A031468F
:10A8C80032F02AFE384600212FF046FC3EA033F035
:10A8D8001DFB002C55D040F6CC2640F65E2A4FF0E2
:10A8E8000008C0F60406C0F6040A0FF2081B38A7D1
:10A8F8004FF0000907E000BF0A4632F00DFE09F1EB
:10A9080001094C453DD0B9F1080FF8D8DFE809F046
:10A918002F0E110E1D0E050E2600304600212FF0B9
:10A928001BFCA87948EA00215846E5E715F8098094
:10A93800E5E7304600212FF00FFCA87848EA00210F
:10A9480040F62C20C0F60400D6E7304600212FF050
:10A9580003FC287948EA00215046CDE7304600211B
:10A968002FF0FAFB287A48EA00213846C4E7304637
:10A9780000212FF0F1FB297840F6F710C0F604000B
:10A98800BAE7002001B0BDE8F08F00BF4C696768E6
:10A99800745F48736C52616E67655F537461747558
:10A9A800732063616C6C6261636B207265636569B7
:10A9B80076656420666F7220656C656D656E7420BF
:10A9C8002564200D0A0000002338323745210D0088
:10A9D80053617475726174696F6E2052616E676538
:10A9E800204D61783A203078257820282564290A76
:10A9F8000D00000053617475726174696F6E2052A6
:10AA0800616E6765204D696E3A2030782578202878
:10AA18002564290A0D000000002070472DE9F04F39
:10AA280081B040F65237C0F604070C460546384652
:10AA380000211E462FF090FB28A0314632F06CFD15
:10AA4800384600212FF088FB34A033F05FFA002C41
:10AA58003FD040F6523B00276FF00206C0F6040BC9
:10AA68000FF2C0090FF2DC0A4FF0000806E000BF41
:10AA780015F8087008F1010844452AD018EA060FAD
:10AA8800F6D0B8F1040F17D0B8F1030F0BD0B8F116
:10AA9800010FEFD1584600212FF05EFB687847EA96
:10AAA8000021504611E0584600212FF055FBE87868
:10AAB80047EA0021484608E0584600212FF04CFBA1
:10AAC800297940F61020C0F604000A4632F024FD29
:10AAD800D0E7002001B0BDE8F08F00BF4C6967687F
:10AAE800745F48736C53617475726174696F6E5FDB
:10AAF8005374617475732063616C6C6261636B205D
:10AB0800726563656976656420666F7220656C6539
:10AB18006D656E74202564200D0A000023383237D5
:10AB280035210D0054617267657420536174757224
:10AB38006174696F6E3A2030782578202825642959
:10AB48000A0D000050726573656E74205361747548
:10AB5800726174696F6E3A203078257820282564F0
:10AB6800290A0D00002070472DE9F04F81B040F60A
:10AB78002437C0F604070C460546384600211E4611
:10AB88002FF0EAFA2AA0314632F0C6FC38460021F6
:10AB98002FF0E2FA34A033F0B9F9002C44D040F693
:10ABA800243640F6102B0027C0F604060FF2DC0905
:10ABB8000FF2BC0AC0F6040B4FF0000806E00A4684
:10ABC80032F0AAFC08F1010844452DD0B8F1060F6F
:10ABD800F8D8DFE808F00D040D200D1019003046F4
:10ABE80000212FF0B9FA687847EA00212DA0E6E79E
:10ABF80015F80870E6E7304600212FF0ADFA6879BD
:10AC080047EA00215046DAE7304600212FF0A4FA3F
:10AC1800A9795846D3E7304600212FF09DFAE87805
:10AC280047EA00214846CAE7002001B0BDE8F08F96
:10AC38004C696768745F48736C5F537461747573AB
:10AC48002063616C6C6261636B2072656365697611
:10AC5800656420666F7220656C656D656E7420256D
:10AC680064200D0A000000002338323738210D0017
:10AC780048534C2053617475726174696F6E3A2041
:10AC88003078257820282564290A0D0048534C205F
:10AC98004875653A203078257820282564290A0DDA
:10ACA8000000000048534C204C696768746E657357
:10ACB800733A203078257820282564290A0D000069
:10ACC800B0B5054600881C4600284FF0000002D0A9
:10ACD80002F040FD01E002F02DFD40F2100128884D
:10ACE800C2F200010B2240F2B46514FB0211C0F657
:10ACF80004058880284600212FF02EFA09A033F099
:10AD080005F9284600212FF027FA40F20E60C0F618
:10AD18000400214632F000FC032021462BF002FDFE
:10AD28000020B0BD233832353921200D0000000045
:10AD38002DE9F04381B040F6B437C0F604070C465D
:10AD48000546384600211E462FF006FA40F68600D2
:10AD5800C0F60400314632F0DFFB384600212FF000
:10AD6800FBF940F67920C0F6040033F0CFF8ECB1D7
:10AD780040F6B4380026C0F604080FF23809002758
:10AD88000EE000BF404600212FF0E6F9687846EA59
:10AD9800002148460A4632F0BFFB0137BC4205D0C5
:10ADA800012FEFD0002FF8D12E78F6E7002001B060
:10ADB800BDE8F0834C696768746E657373204465F9
:10ADC8006661756C743A20307825782028256429C6
:10ADD8000D0A0000B0B540F21002B0F80700C2F248
:10ADE80000020B2340F2D66411FB0325C0F60404CD
:10ADF8006880204600212FF0AFF906A032F08CFBC6
:10AE0800204600212FF0A8F9698805A032F084FBBC
:10AE18000020B0BD2338323539210A0D000000006A
:10AE28004170706C695F4C696768745F4C696768EA
:10AE3800746E6573735F4C6173745F536574204CF3
:10AE480069676874204C6173742056616C7565205D
:10AE58003078252E3278200D0A0000002DE9F043C5
:10AE680081B040F61547C0F604070C46054638463B
:10AE780000211E462FF070F917A0314632F04CFB26
:10AE8800384600212FF068F940F67920C0F6040012
:10AE980033F03CF8E4B140F615480026C0F6040843
:10AEA8000FF2740900270DE0404600212FF054F9F5
:10AEB800687846EA002148460A4632F02DFB0137F9
:10AEC800BC4205D0012FEFD0002FF8D12E78F6E73D
:10AED800002001B0BDE8F0834C696768745F4C6975
:10AEE8006768746E6573735F4C6173745F537461E4
:10AEF8007475732063616C6C6261636B2072656347
:10AF0800656976656420666F7220656C656D656E2F
:10AF180074202564200D0A004C696768746E657397
:10AF280073204C6173743A20307825782028256482
:10AF3800290D0A00B0B5408840F25C2140F27965DD
:10AF4800C2F20001C0F6040521F8130028460021CA
:10AF58001C462FF001F940F2CB50C0F60400214600
:10AF680032F0DAFA284600212FF0F6F802A032F083
:10AF7800D3FA0020B0BD00BF2338323530210A0D86
:10AF8800000000002DE9F04F81B040F67337C0F69D
:10AF980004070C460546384600211E462FF0DCF80B
:10AFA80040F64400C0F60400314632F0B5FA38469F
:10AFB80000212FF0D1F826A032F0A8FF002C42D0B3
:10AFC80040F6733B40F6A31940F6C11A00276FF00C
:10AFD8000206C0F6040BC0F60409C0F6040A4FF0D6
:10AFE800000805E015F8087008F1010844452AD062
:10AFF80018EA060FF6D0B8F1040F17D0B8F1030F0E
:10B008000BD0B8F1010FEFD1584600212FF0A4F86A
:10B01800687847EA0021504611E0584600212FF091
:10B028009BF8E87847EA0021484608E0584600219E
:10B038002FF092F8297940F60410C0F604000A4669
:10B0480032F06AFAD0E7002001B0BDE8F08F00BF07
:10B058002338323532210D00B0B540F210021C46BB
:10B068000178C2F200020B2314FB03229171D0F87D
:10B07800010040F25965C0F60405C2F807002846E9
:10B0880000212FF069F808A032F046FA284600217E
:10B098002FF062F840F28250C0F60400214632F0E8
:10B0A8003BFA0020B0BD00BF233832354221200AC8
:10B0B8000D0000002DE9F04F81B040F6A927C0F639
:10B0C80004070C460546384600211E462FF044F872
:10B0D80040F60300C0F60400314632F01DFA384647
:10B0E80000212FF039F823A032F010FF002C3DD0BA
:10B0F80040F6A92B40F6EB0A40F6E01840F669192D
:10B108000027C0F6040BC0F6040AC0F60408C0F60F
:10B118000409002604E000BFAF5D0136B44225D023
:10B1280086B126F002000128F6D0042E11D0022E96
:10B13800F3D1584600212FF00FF8A87847EA0021EC
:10B1480048460FE0584600212FF006F82978504667
:10B1580008E0584600212EF0FFFF287947EA002131
:10B16800404600BF0A4632F0D7F9D6E7002001B0C2
:10B17800BDE8F08F2338323538210D00F0B581B0A5
:10B1880040F29A66C0F604060546304600211C4681
:10B1980000272EF0E1FF27A032F0BEF9304600214B
:10B1A8002EF0DAFF2A88B5F8073025A0214632F0BC
:10B1B800B3F940F210012888C2F200010B2214FBF7
:10B1C80002136243885240F6421240F2B816B5F8AC
:10B1D8000710C2F20002C2F20006002818BF01469A
:10B1E800128835885980AA424FF0000147F6F54386
:10B1F80098BF01219A4288BF01273943002A32802B
:10B2080018BF0122114040F64012C2F2000211702C
:10B218004FF6FF7100222CF0CBF840F2AC11C2F2CD
:10B2280000010880032021462BF07CFA002001B0A1
:10B23800F0BD00BF2338323443210A0D000000005E
:10B24800456C656D656E7420696E6465782025644B
:10B258002070726573656E74203078252E327820E0
:10B268006C617374203078252E32780D0A00000046
:10B278002DE9F04F81B040F69737C0F604070C4629
:10B288000546384600211E462EF066FF2AA03146A4
:10B2980032F042F9384600212EF05EFF35A032F038
:10B2A80035FE002C43D040F6973B40F6A31940F6F4
:10B2B800C11A00276FF00206C0F6040BC0F6040995
:10B2C800C0F6040A4FF0000806E000BF15F8087041
:10B2D80008F1010844452AD018EA060FF6D0B8F15B
:10B2E800040F17D0B8F1030F0BD0B8F1010FEFD14D
:10B2F800584600212EF030FF687847EA0021504672
:10B3080011E0584600212EF027FFE87847EA00218F
:10B31800484608E0584600212EF01EFF297940F6DD
:10B328000410C0F604000A4632F0F6F8D0E7002010
:10B3380001B0BDE8F08F00BF4C696768745F4C6965
:10B348006768746E6573735F537461747573206393
:10B35800616C6C6261636B207265636569766564B4
:10B3680020666F7220656C656D656E74202564209B
:10B378000D0A00002338323445210D0080B510F045
:10B388009DF850B101F038F9002818BF80BD41F68A
:10B398000A50C2F200000121017080BD81B08DF811
:10B3A80003004AF6A840C2F200000068406801B0F5
:10B3B80070470000B0B583B094468E46044609989D
:10B3C8000899079A02948DF807E08DF806C0ADF841
:10B3D8000430ADF802208DF801108DF800000299B4
:10B3E800012008700299002048700299887002991B
:10B3F800C8700299087103B0B0BD000081B08DF823
:10B4080003004AF6A840C2F200000068006901B0D3
:10B418007047000080B510F051F8B8B110F054F83A
:10B42800A0B141F61050C2F20000017871B90121B3
:10B4380001700BF01BFA012802D0032009F09CFED2
:10B4480040F2F020C0F6040032F060FD40200021F8
:10B45800BDE880402FF04CBE41F61650C2F2000005
:10B468000078002818BF704780B501F08DFC0A20CD
:10B478000BF018FD4AF6BC40C2F200000068042137
:10B488002BF0B0FD40F22920C0F6040032F03EFD5A
:10B4980040F26F10C0F6040032F038FD01F0A8FA4F
:10B4A80030F0E8F880B582B08DF807004AF6B04071
:10B4B800C2F20000006801699DF80700884702B0E1
:10B4C80080BD00002DE9F041054690F8008045F266
:10B4D800E810C2F200000C4680F8008018A0002195
:10B4E8002EF03AFE29781CA0224632F015F85CB1FD
:10B4F80000201EA6002700BF295C304632F00CF859
:10B508000137B8B28442F7D84FF62600C0F60300D8
:10B5180032F002F8B8F1010F1CBF0120BDE8F0813C
:10B5280045F2E810C2F2000029462246FBF705FF63
:10B5380040F29030C2F2000004800020BDE8F081A3
:10B548004170706C695F56656E646F725F446174B8
:10B55800615F7772697465002330452D2530326844
:10B5680078202530326C7821200A0D002530326889
:10B57800782000002DE9F04F83B00546067845F2A3
:10B58800E810C2F20000067040F21440C0F6040051
:10B59800002100242EF0E0FD297853A031F0BCFFF3
:10B5A800701E032800F29A80DFE800F002084C9928
:10B5B80040F29030C2F2000002218CE000F010FF4F
:10B5C80004783CB340F21448471C00250DF10209E9
:10B5D8000FF23C1AC0F604080FF2481B13E000BF34
:10B5E800E0B201F021F8044609F806005E4640463C
:10B5F80000212EF0B1FD3046214631F08DFF17F8BD
:10B60800014B013534B1EEB22E2C09F80640E7D1D2
:10B618005646ECE7BDF8020045F2E812BDF8051001
:10B62800C2F20002A2F801009DF80800A2F8031077
:10B63800BDF80910507140F29030D180C2F200007C
:10B64800082148E000F0C6FE04785CB340F2E43B11
:10B6580040F21449471C00250DF1020AC0F6040BFC
:10B66800C0F604090FF290080DE000BF5E46484698
:10B6780000212EF071FD3046214631F04DFF17F8BC
:10B68800014B013574B1EEB22E2C0AF80640EDD00C
:10B69800522CEBD0E0B200F0C7FF04460AF80600CF
:10B6A8004646E4E7BDF8020045F2E817C2F2000793
:10B6B800A7F801009DF805009DF807109DF80920DE
:10B6C8009DF80B30F87040F2903039717A71BB7187
:10B6D800C2F2000007210180002400E00124204676
:10B6E80003B0BDE8F08F00BF2330322D253032681B
:10B6F8007821200A0D000000537562204C696220F1
:10B7080076657273696F6E2069732025780A0D005B
:10B718004C69622076657273696F6E2069732025A3
:10B72800630A0D004C69622076657273696F6E203A
:10B7380069732025780A0D002DE9F04381B006468B
:10B7480090F8008040F2FC30C0F604000021154655
:10B7580000272EF001FD31787CA031F0DDFEA8F144
:10B76800010005284FF0010900F2CE800024DFE82F
:10B7780000F003502ACC718D40F2FC30C0F6040072
:10B7880000214FF000092EF0E7FC40F23930C0F6F6
:10B798000400294631F0C0FE40F2AC10C2F20000AD
:10B7A80047F6F6410180016842688368042010F07A
:10B7B8002BFD002001F0CEFF40F2AA10C2F20000DB
:10B7C800012101709FE040F2FC30C0F60400002126
:10B7D8004FF000092EF0C0FC40F26F30C0F60400B4
:10B7E800294631F099FE40F2AA14C2F200042078EA
:10B7F800012874D140F2AC10C2F20000012101808E
:10B80800016842688368042010F0FEFC84F8009008
:10B818001EE040F2FC30C0F6040000214FF00009A1
:10B828002EF09AFC5DA0294631F076FE40F2AC106D
:10B83800C2F2000001210180016842688368042087
:10B8480010F0E2FC40F2AA10C2F2000080F800906A
:10B85800002018E040F2FC30C0F6040000212EF071
:10B868007BFC40F2A930C0F60400294631F054FEB2
:10B87800707840F2AA11C2F20001012808703DD088
:10B8880000204FF0000901F055FF3CE040F2FC3089
:10B89800C0F6040000212EF05FFC30A0294631F0EC
:10B8A8003BFE7778B47847F6FF7147EA0420002218
:10B8B8002BF07EFD054640F2AC10C2F20000058078
:10B8C800016842688368042010F09EFC00204FF055
:10B8D8000009B5F57A5F35D901F03CFF15E040F273
:10B8E800AC10C2F2000047F6F641018001684268D8
:10B8F8008368042010F088FC0120207000204FF09D
:10B90800000901F027FF0027002445F2E810C2F2E1
:10B918000000B8F1060F80F8008003D144708770EA
:10B92800032106E040F2AA11C2F200010978417031
:10B93800022140F29032C2F200024846118001B062
:10B94800BDE8F08301F0F6FEDFE700BF2330332DBA
:10B958002530326878210A0D000000004170706CB3
:10B96800695F4C45445F496E74656E7369747920EC
:10B9780063616C6C6261636B20726563656976658F
:10B988006420666F7220656C656D656E74496E64BF
:10B998006578202564200D0A000000004170706C55
:10B9A800695F4C45445F4F46462063616C6C626139
:10B9B800636B20726563656976656420666F7220C3
:10B9C800656C656D656E74496E64657820256420C4
:10B9D8000D0A0000B0B584B001F0DEF928B10020EE
:10B9E80001F0B8FE012004B0B0BD0020002501F030
:10B9F800A1FE40F20C22C2F20002136C108892F8E9
:10BA080044100124CDE90035931C0E22029401F064
:10BA1800A9F804B0B0BD0000F0B581B040F20C2721
:10BA28000E46C2F2000715460146B81C32461C46AF
:10BA3800FBF783FC00203C803E643C2E88BF03203B
:10BA480087F8445001B0F0BD2DE9F041044607786D
:10BA580045F2E81840F22C400D46C2F20008C0F644
:10BA68000400002188F8007000262EF075FB21786C
:10BA780020A031F051FDF81E032837D3022F19D02A
:10BA8800062F32D19DB14FF6260700210FF2740818
:10BA9800C0F60307002600BF625C404631F03CFD5B
:10BAA800384631F039FD0136F1B28D42F4D8002024
:10BAB800BDE8F0813D2D0AD340F22C40C0F60400C9
:10BAC80000212EF049FB13A032F020FA3C25611C1E
:10BAD8006A1E08F10100FBF730FC40F29030C2F218
:10BAE800000005800020BDE8F08101263046BDE851
:10BAF800F08100BF2330312D253032687821200AAB
:10BB08000D000000646174615B25645D3D2025645F
:10BB1800000000004C656E67746820726563656993
:10BB28007665642067726561746572207468616EF9
:10BB38002073697A65206F6620726573706F6E7303
:10BB48006520627566666572200D000040F2FC1281
:10BB5800C1EBC101C2F2000202EB4101002200BFA9
:10BB680031F81230984204BF012070470132072A89
:10BB780004BF00207047F3E740F25422C2F20002EB
:10BB880002EBC101002200BF51F82230984204BFE5
:10BB9800012070470132012A1CBF00207047F3E7DB
:10BBA8000020704710B540F2FC12C1EBC101C2F28F
:10BBB800000202EB410100244FF6FF7231F8143005
:10BBC800934203D00134072CF8D107246200FBF715
:10BBD800B4FBE0B210BD000010B540F25422C2F22E
:10BBE800000202EBC10100244FF6FF7251F8243025
:10BBF800934203D00134012CF8D00224A200FBF7B1
:10BC08009CFBE0B210BD0000B0B588B0DDF844C0C0
:10BC1800DDF840C0DDF83CC0DDF838C0DDF834C0E0
:10BC2800DDF830C007900691059204930EF00EFCE3
:10BC380006980EF05BFC05980499109A119BDDF8A4
:10BC48003CC00D9CEE460025CEF80850CEF80440C6
:10BC5800CEF800C00EF0ECFA0E980F99079A0EF085
:10BC68005DFA0C980D990EF035FA03900EF0C6FBAC
:10BC7800039808B0B0BD0000B0B588B0DDF844C086
:10BC8800DDF840C0DDF83CC0DDF838C0DDF834C070
:10BC9800DDF830C0079006910592049300200390C8
:10BCA8000EF0D4FB04980EF021FC0C980D99109A14
:10BCB800119BDDF83CC0059CEE460125CEF80850E6
:10BCC800CEF80440CEF800C00EF0B2FA0E980F99E4
:10BCD800079A0EF023FA069805990EF099FA0EF0D5
:10BCE8008DFB039808B0B0BD80B592B0119010914B
:10BCF8000F920E9340F26020C2F200000D900020D7
:10BD08000B9010980290119820B1FFE7119800F05D
:10BD1800FFF8FFE70E9890B1FFE70F9800F00F00CB
:10BD28000B900F9830B1FFE70B9818B9FFE7102078
:10BD38000B90FFE70B990F98401A0F90FFE7FFE76A
:10BD48000F9870B3FFE7029B186859689A68DB6818
:10BD58000A93099208910790FFE7079800BA0D998E
:10BD6800096848400790089800BA0D994968484002
:10BD78000890099800BA0D998968484009900A986E
:10BD880000BA0D99C96848400A90FFE70D9907A8BD
:10BD980000F0B4F80298103002900F9810380F9005
:10BDA800CEE70E98002800F08180FFE700200A9077
:10BDB8000990089007900C90FFE70C980B9988421F
:10BDC80013D2FFE702990C98095C03228243D20040
:10BDD80001FA02F320F0030207A988581843885093
:10BDE800FFE70C9801300C90E7E7002006900590DB
:10BDF8000490039003A90191084600F07FF8019888
:10BE080000F056F80B980F2811D8FFE70B9803217C
:10BE18008143CA00802101FA02F320F0030207A936
:10BE280088581843885003A800F042F8FFE700201C
:10BE38000C90FFE70C98032814D8FFE70D980C9A8C
:10BE480050F8220003A951F8221080EA010307A93B
:10BE580051F82200584041F82200FFE70C980130C1
:10BE68000C90E7E70D9907A800F048F80EF0C6FA1D
:10BE7800FFE70D98006800BA07900D98406800BA6F
:10BE880008900D98806800BA09900D98C06800BAAB
:10BE98000A90FFE70E990798089A099BDDF828C0D1
:10BEA800C1F80CC08B604A600860FFE712B080BD23
:10BEB80082B0019001980068C00F87214843009024
:10BEC800019908684A68400040EAD2700860019900
:10BED80048688A68400040EAD270486001998868DA
:10BEE800CA68400040EAD27088600199CA68009820
:10BEF80080EA4200C86002B07047000080B582B096
:10BF080001900091019800990EF06AFA02B080BD84
:10BF180080B584B0039040F26020C2F20000029025
:10BF28000EF094FA03980EF0E1FA002001900EF05A
:10BF380007FB01980299C8600299886002994860D5
:10BF48000299086004B080BD80B588B0079006915A
:10BF580005920EF07BFA07980EF0C8FA04200EF04E
:10BF6800EFFA069B186859689A68DB68049303928D
:10BF78000291019001A908460EF032FA0EF03EFA3D
:10BF880005990198029A039BDDF810C0C1F80CC00E
:10BF98008B604A60086008B080BD000010B54BF6A1
:10BFA800DD720446C0F600024FF4806000212EF0D6
:10BFB80085FF40F2F803C2F200034FF0640C03EB74
:10BFC800840242F61920214623F824C0BDE8104017
:10BFD80000F0A6B840F2F802C2F2000242F61920B8
:10BFE800002100F09DB8000040F2F801C2F2000103
:10BFF800CA780880012A18BF70474FF4806003216F
:10C008002FF076B880B582B04178FF2902D00020A1
:10C0180002B080BDB0F8031040F61442914212D02D
:10C0280040F601429142F2D140F22811C2F20001D9
:10C038004988B0F8072002319142E8D1407B0121BC
:10C0480021EA00000EE040F22811C2F200014988FE
:10C05800B0F8072001319142D9D1B0F805002FF08E
:10C0680067FE02208DF8060000208DF807000DF10C
:10C07800060000F035F8012002B080BDF0B587B0A9
:10C088004CF20D00C0F600002CF022F941F60F002A
:10C0980040F228150DF11A04ADF81A00C2F2000595
:10C0A80001202146012204230095012604272FF0B0
:10C0B800DFFD42F6192135F8020BADF81A100A21F6
:10C0C80000221223CDE90032CDE902710121224676
:10C0D8000123049605952FF05BFD07B0F0BD000025
:10C0E8000078022812D0012809D0002818BF70470C
:10C0F80040F2F800C2F200000121C170704740F21E
:10C10800F800C2F200000021C170704740F2F80246
:10C11800C2F2000242F61920002100F001B8000026
:10C12800944642F61922904218BF704780B582B0F3
:10C1380001EB410040F22811C2F2000101EB40027C
:10C1480031F81000518800220123CDF800C02FF0EB
:10C15800E7FE02B080BD000082B00090009820B9D0
:10C16800FFE703208DF8070009E000984AF68441AC
:10C17800C2F20001086000208DF80700FFE79DF873
:10C18800070002B07047000082B00090009820B904
:10C19800FFE703208DF8070009E000984AF6B04150
:10C1A800C2F20001086000208DF80700FFE79DF843
:10C1B800070002B07047000080B582B001908DF88A
:10C1C8000310019820B1FFE79DF8030020B9FFE7AD
:10C1D80002208DF802000CE04AF6EC40C2F20000A2
:10C1E800006801999DF8032005F020F88DF80200F9
:10C1F800FFE79DF8020002B080BD000080B541F65F
:10C208000A50C2F2000001210170012008F0B4FFB9
:10C218000FF054F9002808BF80BD40F23520C0F661
:10C228000400BDE8804031F071BE000006220280A3
:10C2380040F20012C0F20232C0F8022004228271D9
:10C24800072008707047000083B0029001918DF8B4
:10C2580003208DF8023003B07047000010B5044683
:10C2680008A031F059F9601EC0B2022899BF13A185
:10C2780051F8200040F21A10C0F60400BDE8104042
:10C2880031F044BE467269656E64736869702063F4
:10C298006C65617265642E204C6F7720706F7765CE
:10C2A80072206E6F646520616464726573732030F8
:10C2B80078252E3458200D0A000000002C010408AF
:10C2C800CB000408FA000408F0B581B00F46014617
:10C2D80040F29200069CC0F604001D46164631F056
:10C2E8001BF90DA0394631F017F9642006FB00F15F
:10C2F80013A031F011F91CA0294631F00DF94CB109
:10C3080040F26100C0F60400214601B0BDE8F040EB
:10C3180031F002B901B0F0BD4C6F7720706F7765CE
:10C3280072206E6F64652072656365697665206446
:10C33800656C61792025646D73200D0A000000008A
:10C348004C6F7720706F776572206E6F6465207010
:10C358006F6C6C2074696D656F757420256C646DE5
:10C3680073200D0A000000004C6F7720706F77650E
:10C3780072206E6F6465206E756D626572206F66DF
:10C3880020656C656D656E7473202564200D0A0048
:10C3980081B00020ADF802004AF6EC40C2F200007D
:10C3A800006880B1FFE74AF63440C2F20000007826
:10C3B800012808D1FFE74AF63440C2F2000040885D
:10C3C800ADF80200FFE7BDF8020001B070470000B9
:10C3D8000320704741F66510C0F60400704700005E
:10C3E80041F62D10C0F60400704700000320704786
:10C3F80080B582B04AF6EC40C2F20000006828B16D
:10C40800FFE713F08BF88DF8070003E000208DF8A4
:10C418000700FFE79DF8070002B080BD05207047C0
:10C4280083B08DF80B0001910020ADF802009DF853
:10C438000B0004284ADCFFE74AF6EC40C2F2000091
:10C448000068002841D0FFE74AF63440C2F20000F5
:10C458000078012839D1FFE700208DF80100FFE7B7
:10C468009DF801000A282FDCFFE79DF80B104AF61B
:10C478003440C2F2000000EB8100406A9DF80110D0
:10C48800C1EBC10100EBC100806F0199884214D152
:10C49800FFE79DF80B104AF63440C2F2000000EBAB
:10C4A8008100406A9DF80110C1EBC10100EBC10099
:10C4B800B0F87C00ADF8020006E0FFE79DF8010047
:10C4C80001308DF80100CBE7FFE703E00020ADF86D
:10C4D8000200FFE7BDF8020003B0704780B582B0E4
:10C4E8004AF6EC40C2F20000006828B1FFE713F0FA
:10C4F8006BF88DF8070003E000208DF80700FFE7D0
:10C508009DF8070002B080BD0A20704780B582B050
:10C518004AF6EC40C2F20000006828B1FFE713F0C9
:10C5280067F88DF8070003E000208DF80700FFE7A3
:10C538009DF8070002B080BD0B20704780B582B01F
:10C548000190019830F0A2FE019819F025F802B088
:10C5580080BD000080B582B04AF6A840C2F2000053
:10C5680000688269036A4BF2BD30C0F60000694674
:10C5780048604BF20540C0F6000008604BF2A53158
:10C58800C0F60001052019F003F902B080BD0000D3
:10C598002DE9F0478AB04AF6A840C2F200000168C7
:10C5A8000A784B68886891F80CC091F814E04C7DC3
:10C5B8008D690E7F4F7FD1F8208091F80D90D1F8CA
:10C5C80010A06946C1F824A0C1F82090C1F81C80C9
:10C5D8008F614E610D61CC60C1F808E0C1F804C0FC
:10C5E80008604BF2AD40C0F60000002119F0F4F8E5
:10C5F8000AB0BDE8F087000080B582B04AF6EC408A
:10C60800C2F20000006821F04DFB012804D1FFE7C9
:10C6180001208DF8070003E000208DF80700FFE7F0
:10C628009DF8070002B080BD3038C0B270470000E6
:10C6380080B5FFF7ADFEBDE8804009F0CDBF000032
:10C648002DE9F04383B040F2BA16C2F2000615464F
:10C6580032781C4688460746A2B1501CC1B2AB22AC
:10C668005143490A01EB4101411AD6F8050006F188
:10C6780026029042317031D0717A1C30C6F805001C
:10C68800481C30E00120307001A830F039F90AF078
:10C6980005FFBDF8041041F26F22C0F28302A1FB2E
:10C6A80002234FF4FA7203FB1211084400F5FA70E2
:10C6B800C6F8010006F10A00C6F8050000207072ED
:10C6C80016A000212DF048FDD6F801900AF0E6FEEC
:10C6D800A9EB000118A030F01FFF05E006F10A00E1
:10C6E800C6F80500002070727868D6F80510086052
:10C6F80038784871788981F80480C8808C6154B191
:10C7080000210020D6F8052001306B5C0A44C1B234
:10C718008C421372F6D803B0BDE8F083424C454D05
:10C728006573685F4D6F64656C7344656C617950BF
:10C7380061636B657400000052616E646F6D697AA5
:10C7480065642074696D653A20256C640A0D0000E3
:10C7580080B592B00FF084FC4EF26050C0F6030032
:10C76800022100F095FA0DF106000DF14601FCF7E3
:10C778008BFBBDF8460020B1C1B20DF1060029F0CF
:10C7880077F812B080BD000080B509F07BFE0FF08D
:10C798003DFDBDE880402EF087BD00002DE9F04F3B
:10C7A80085B040F2BA17C2F20007387800283FD0A7
:10C7B800D7F801400AF072FE844239D83C78ACB30D
:10C7C800C4F101050FF270084FF0000B0FF2880951
:10C7D8000DF1080A404600212DF0BEFC38782918D2
:10C7E800484630F099FE787A8DF808B0284402302F
:10C7F80000EBD07101F0FE01401AC0B2C0EBC000DE
:10C8080007EB8000D0F80A10827BD0F822600391F1
:10C8180000F1120330205146CDF810B000962EF0EA
:10C8280013FD013C200605F10105D3D10020387025
:10C8380005B0BDE8F08F00BF424C454D6573685F99
:10C848004D6F64656C7353656E6444656C6179659E
:10C85800645061636B65740053656E64696E67202C
:10C8680072616E646F6D697A6564207061636B656F
:10C8780074732E205061636B657420636F756E74DA
:10C888003A202564200A0D00704700007047000018
:10C8980070B587B09C4696460C4605460E980D998D
:10C8A8000C9A0B9B0595ADF81240CDF80CE08DF86D
:10C8B8000BC08DF80A308DF809208DF808108DF816
:10C8C8000700059800909DF80B0001284EDBFFE754
:10C8D8009DF80B00192849D8FFE70098F0B1FFE749
:10C8E8000398D8B1FFE7BDF812009DF80B10B0EB24
:10C8F800411F13D3FFE79DF80A0078B1FFE79DF8C1
:10C90800090001280ADCFFE79DF80800012805DC7A
:10C91800FFE79DF80700032804DBFFE703208DF8F5
:10C928001B0027E09DF80B00009981F85801039837
:10C938000099C1F850019DF80A004FF47A714843F4
:10C948000099C1F854019DF80900009981F859012E
:10C958009DF80800009981F85A019DF80700009990
:10C9680081F85B0100208DF81B0003E000208DF8A2
:10C978001B00FFE79DF81B0007B070BD80B541F6AE
:10C988000950C2F200000021017004A030F0C4FD7B
:10C998000220BDE8804000F0DDBE00BF50422D41BE
:10C9A8004456204C696E6B206F70656E6564207309
:10C9B80075636365737366756C6C79200A0D000086
:10C9C80069B170B50C46461E06A500BF16F8011FD2
:10C9D800284630F0A1FD013CF8D1BDE8704003A025
:10C9E80030F09ABD25303258000000000A0D0000D2
:10C9F80080B518F055FF80BD80B541F60950C2F2E8
:10CA080000000121017041F60A50C2F20000002125
:10CA1800017041F61050C2F200000170012008F0C8
:10CA2800ABFB05A031F072FA40F2E610C0F6040044
:10CA3800BDE8804031F06ABA44657669636520696B
:10CA4800732070726F766973696F6E65642062799E
:10CA58002070726F766973696F6E6572200D0000C1
:10CA680083B0029001918DF80320002003B0704735
:10CA780080B586B00590ADF812100392029301209C
:10CA88008DF8070005989DF80710BDF81220039B44
:10CA9800DDF808C0EE46CEF800C018F019FF06B061
:10CAA80080BD000082B000904AF6EC40C2F200005F
:10CAB800006820B9FFE702208DF807000BE0009816
:10CAC8004AF6EC41C2F200010968C1F8F4010020FD
:10CAD8008DF80700FFE79DF8070002B070470000D7
:10CAE80080B584B002908DF80710029848B1FFE72E
:10CAF8009DF8070028B1FFE79DF80700092804DB27
:10CB0800FFE703208DF80F0027E000208DF80600CE
:10CB1800FFE79DF80600072812DCFFE702989DF85A
:10CB28000610405C332804DBFFE703208DF80F0074
:10CB380013E0FFE79DF8060001308DF80600E8E7EE
:10CB48004AF6EC40C2F20000006802999DF80720FE
:10CB580004F0E8FD8DF80F00FFE79DF80F0004B022
